{
	"OrgContract.sol": {
		"OrgContract": {
			"abi": [
				{
					"inputs": [
						{
							"internalType": "address",
							"name": "_admin",
							"type": "address"
						},
						{
							"internalType": "string",
							"name": "_name",
							"type": "string"
						}
					],
					"stateMutability": "nonpayable",
					"type": "constructor"
				},
				{
					"anonymous": false,
					"inputs": [
						{
							"indexed": true,
							"internalType": "address",
							"name": "user",
							"type": "address"
						},
						{
							"indexed": false,
							"internalType": "string",
							"name": "cid",
							"type": "string"
						},
						{
							"indexed": false,
							"internalType": "string",
							"name": "docType",
							"type": "string"
						}
					],
					"name": "DocumentUploaded",
					"type": "event"
				},
				{
					"anonymous": false,
					"inputs": [
						{
							"indexed": true,
							"internalType": "address",
							"name": "user",
							"type": "address"
						},
						{
							"indexed": false,
							"internalType": "uint256",
							"name": "index",
							"type": "uint256"
						},
						{
							"indexed": false,
							"internalType": "enum OrgContract.Status",
							"name": "status",
							"type": "uint8"
						}
					],
					"name": "DocumentVerified",
					"type": "event"
				},
				{
					"inputs": [
						{
							"internalType": "address",
							"name": "",
							"type": "address"
						},
						{
							"internalType": "uint256",
							"name": "",
							"type": "uint256"
						}
					],
					"name": "documentsByUser",
					"outputs": [
						{
							"internalType": "string",
							"name": "cid",
							"type": "string"
						},
						{
							"internalType": "string",
							"name": "docType",
							"type": "string"
						},
						{
							"internalType": "address",
							"name": "uploadedBy",
							"type": "address"
						},
						{
							"internalType": "enum OrgContract.Status",
							"name": "status",
							"type": "uint8"
						},
						{
							"internalType": "uint256",
							"name": "uploadedAt",
							"type": "uint256"
						}
					],
					"stateMutability": "view",
					"type": "function"
				},
				{
					"inputs": [
						{
							"internalType": "address",
							"name": "user",
							"type": "address"
						}
					],
					"name": "getAllDocuments",
					"outputs": [
						{
							"components": [
								{
									"internalType": "string",
									"name": "cid",
									"type": "string"
								},
								{
									"internalType": "string",
									"name": "docType",
									"type": "string"
								},
								{
									"internalType": "address",
									"name": "uploadedBy",
									"type": "address"
								},
								{
									"internalType": "enum OrgContract.Status",
									"name": "status",
									"type": "uint8"
								},
								{
									"internalType": "uint256",
									"name": "uploadedAt",
									"type": "uint256"
								}
							],
							"internalType": "struct OrgContract.Document[]",
							"name": "",
							"type": "tuple[]"
						}
					],
					"stateMutability": "view",
					"type": "function"
				},
				{
					"inputs": [],
					"name": "getAllUsers",
					"outputs": [
						{
							"internalType": "address[]",
							"name": "",
							"type": "address[]"
						}
					],
					"stateMutability": "view",
					"type": "function"
				},
				{
					"inputs": [
						{
							"internalType": "address",
							"name": "user",
							"type": "address"
						}
					],
					"name": "getApprovedDocuments",
					"outputs": [
						{
							"components": [
								{
									"internalType": "string",
									"name": "cid",
									"type": "string"
								},
								{
									"internalType": "string",
									"name": "docType",
									"type": "string"
								},
								{
									"internalType": "address",
									"name": "uploadedBy",
									"type": "address"
								},
								{
									"internalType": "enum OrgContract.Status",
									"name": "status",
									"type": "uint8"
								},
								{
									"internalType": "uint256",
									"name": "uploadedAt",
									"type": "uint256"
								}
							],
							"internalType": "struct OrgContract.Document[]",
							"name": "",
							"type": "tuple[]"
						}
					],
					"stateMutability": "view",
					"type": "function"
				},
				{
					"inputs": [
						{
							"internalType": "address",
							"name": "user",
							"type": "address"
						},
						{
							"internalType": "uint256",
							"name": "index",
							"type": "uint256"
						}
					],
					"name": "getDocument",
					"outputs": [
						{
							"components": [
								{
									"internalType": "string",
									"name": "cid",
									"type": "string"
								},
								{
									"internalType": "string",
									"name": "docType",
									"type": "string"
								},
								{
									"internalType": "address",
									"name": "uploadedBy",
									"type": "address"
								},
								{
									"internalType": "enum OrgContract.Status",
									"name": "status",
									"type": "uint8"
								},
								{
									"internalType": "uint256",
									"name": "uploadedAt",
									"type": "uint256"
								}
							],
							"internalType": "struct OrgContract.Document",
							"name": "",
							"type": "tuple"
						}
					],
					"stateMutability": "view",
					"type": "function"
				},
				{
					"inputs": [
						{
							"internalType": "address",
							"name": "",
							"type": "address"
						}
					],
					"name": "isUserKnown",
					"outputs": [
						{
							"internalType": "bool",
							"name": "",
							"type": "bool"
						}
					],
					"stateMutability": "view",
					"type": "function"
				},
				{
					"inputs": [],
					"name": "orgAdmin",
					"outputs": [
						{
							"internalType": "address",
							"name": "",
							"type": "address"
						}
					],
					"stateMutability": "view",
					"type": "function"
				},
				{
					"inputs": [],
					"name": "orgName",
					"outputs": [
						{
							"internalType": "string",
							"name": "",
							"type": "string"
						}
					],
					"stateMutability": "view",
					"type": "function"
				},
				{
					"inputs": [
						{
							"internalType": "string",
							"name": "_cid",
							"type": "string"
						},
						{
							"internalType": "string",
							"name": "_docType",
							"type": "string"
						}
					],
					"name": "uploadDocument",
					"outputs": [],
					"stateMutability": "nonpayable",
					"type": "function"
				},
				{
					"inputs": [
						{
							"internalType": "uint256",
							"name": "",
							"type": "uint256"
						}
					],
					"name": "users",
					"outputs": [
						{
							"internalType": "address",
							"name": "",
							"type": "address"
						}
					],
					"stateMutability": "view",
					"type": "function"
				},
				{
					"inputs": [
						{
							"internalType": "address",
							"name": "user",
							"type": "address"
						},
						{
							"internalType": "uint256",
							"name": "index",
							"type": "uint256"
						},
						{
							"internalType": "bool",
							"name": "approve",
							"type": "bool"
						}
					],
					"name": "verifyDocument",
					"outputs": [],
					"stateMutability": "nonpayable",
					"type": "function"
				}
			],
			"devdoc": {
				"kind": "dev",
				"methods": {},
				"version": 1
			},
			"evm": {
				"assembly": "    /* \"OrgContract.sol\":57:2866  contract OrgContract {... */\n  mstore(0x40, 0x80)\n    /* \"OrgContract.sol\":840:948  constructor(address _admin, string memory _name) {... */\n  callvalue\n  dup1\n  iszero\n  tag_1\n  jumpi\n  revert(0x00, 0x00)\ntag_1:\n  pop\n  mload(0x40)\n  sub(codesize, bytecodeSize)\n  dup1\n  bytecodeSize\n  dup4\n  codecopy\n  dup2\n  dup2\n  add\n  0x40\n  mstore\n  dup2\n  add\n  swap1\n  tag_2\n  swap2\n  swap1\n  tag_3\n  jump\t// in\ntag_2:\n    /* \"OrgContract.sol\":910:916  _admin */\n  dup2\n    /* \"OrgContract.sol\":899:907  orgAdmin */\n  0x00\n  0x00\n    /* \"OrgContract.sol\":899:916  orgAdmin = _admin */\n  0x0100\n  exp\n  dup2\n  sload\n  dup2\n  0xffffffffffffffffffffffffffffffffffffffff\n  mul\n  not\n  and\n  swap1\n  dup4\n  0xffffffffffffffffffffffffffffffffffffffff\n  and\n  mul\n  or\n  swap1\n  sstore\n  pop\n    /* \"OrgContract.sol\":936:941  _name */\n  dup1\n    /* \"OrgContract.sol\":926:933  orgName */\n  0x01\n    /* \"OrgContract.sol\":926:941  orgName = _name */\n  swap1\n  dup2\n  tag_6\n  swap2\n  swap1\n  tag_7\n  jump\t// in\ntag_6:\n  pop\n    /* \"OrgContract.sol\":840:948  constructor(address _admin, string memory _name) {... */\n  pop\n  pop\n    /* \"OrgContract.sol\":57:2866  contract OrgContract {... */\n  jump(tag_8)\n    /* \"#utility.yul\":7:82   */\ntag_9:\n    /* \"#utility.yul\":40:46   */\n  0x00\n    /* \"#utility.yul\":73:75   */\n  0x40\n    /* \"#utility.yul\":67:76   */\n  mload\n    /* \"#utility.yul\":57:76   */\n  swap1\n  pop\n    /* \"#utility.yul\":7:82   */\n  swap1\n  jump\t// out\n    /* \"#utility.yul\":88:205   */\ntag_10:\n    /* \"#utility.yul\":197:198   */\n  0x00\n    /* \"#utility.yul\":194:195   */\n  0x00\n    /* \"#utility.yul\":187:199   */\n  revert\n    /* \"#utility.yul\":211:328   */\ntag_11:\n    /* \"#utility.yul\":320:321   */\n  0x00\n    /* \"#utility.yul\":317:318   */\n  0x00\n    /* \"#utility.yul\":310:322   */\n  revert\n    /* \"#utility.yul\":334:460   */\ntag_12:\n    /* \"#utility.yul\":371:378   */\n  0x00\n    /* \"#utility.yul\":411:453   */\n  0xffffffffffffffffffffffffffffffffffffffff\n    /* \"#utility.yul\":404:409   */\n  dup3\n    /* \"#utility.yul\":400:454   */\n  and\n    /* \"#utility.yul\":389:454   */\n  swap1\n  pop\n    /* \"#utility.yul\":334:460   */\n  swap2\n  swap1\n  pop\n  jump\t// out\n    /* \"#utility.yul\":466:562   */\ntag_13:\n    /* \"#utility.yul\":503:510   */\n  0x00\n    /* \"#utility.yul\":532:556   */\n  tag_51\n    /* \"#utility.yul\":550:555   */\n  dup3\n    /* \"#utility.yul\":532:556   */\n  tag_12\n  jump\t// in\ntag_51:\n    /* \"#utility.yul\":521:556   */\n  swap1\n  pop\n    /* \"#utility.yul\":466:562   */\n  swap2\n  swap1\n  pop\n  jump\t// out\n    /* \"#utility.yul\":568:690   */\ntag_14:\n    /* \"#utility.yul\":641:665   */\n  tag_53\n    /* \"#utility.yul\":659:664   */\n  dup2\n    /* \"#utility.yul\":641:665   */\n  tag_13\n  jump\t// in\ntag_53:\n    /* \"#utility.yul\":634:639   */\n  dup2\n    /* \"#utility.yul\":631:666   */\n  eq\n    /* \"#utility.yul\":621:684   */\n  tag_54\n  jumpi\n    /* \"#utility.yul\":680:681   */\n  0x00\n    /* \"#utility.yul\":677:678   */\n  0x00\n    /* \"#utility.yul\":670:682   */\n  revert\n    /* \"#utility.yul\":621:684   */\ntag_54:\n    /* \"#utility.yul\":568:690   */\n  pop\n  jump\t// out\n    /* \"#utility.yul\":696:839   */\ntag_15:\n    /* \"#utility.yul\":753:758   */\n  0x00\n    /* \"#utility.yul\":784:790   */\n  dup2\n    /* \"#utility.yul\":778:791   */\n  mload\n    /* \"#utility.yul\":769:791   */\n  swap1\n  pop\n    /* \"#utility.yul\":800:833   */\n  tag_56\n    /* \"#utility.yul\":827:832   */\n  dup2\n    /* \"#utility.yul\":800:833   */\n  tag_14\n  jump\t// in\ntag_56:\n    /* \"#utility.yul\":696:839   */\n  swap3\n  swap2\n  pop\n  pop\n  jump\t// out\n    /* \"#utility.yul\":845:962   */\ntag_16:\n    /* \"#utility.yul\":954:955   */\n  0x00\n    /* \"#utility.yul\":951:952   */\n  0x00\n    /* \"#utility.yul\":944:956   */\n  revert\n    /* \"#utility.yul\":968:1085   */\ntag_17:\n    /* \"#utility.yul\":1077:1078   */\n  0x00\n    /* \"#utility.yul\":1074:1075   */\n  0x00\n    /* \"#utility.yul\":1067:1079   */\n  revert\n    /* \"#utility.yul\":1091:1193   */\ntag_18:\n    /* \"#utility.yul\":1132:1138   */\n  0x00\n    /* \"#utility.yul\":1183:1185   */\n  0x1f\n    /* \"#utility.yul\":1179:1186   */\n  not\n    /* \"#utility.yul\":1174:1176   */\n  0x1f\n    /* \"#utility.yul\":1167:1172   */\n  dup4\n    /* \"#utility.yul\":1163:1177   */\n  add\n    /* \"#utility.yul\":1159:1187   */\n  and\n    /* \"#utility.yul\":1149:1187   */\n  swap1\n  pop\n    /* \"#utility.yul\":1091:1193   */\n  swap2\n  swap1\n  pop\n  jump\t// out\n    /* \"#utility.yul\":1199:1379   */\ntag_19:\n    /* \"#utility.yul\":1247:1324   */\n  0x4e487b7100000000000000000000000000000000000000000000000000000000\n    /* \"#utility.yul\":1244:1245   */\n  0x00\n    /* \"#utility.yul\":1237:1325   */\n  mstore\n    /* \"#utility.yul\":1344:1348   */\n  0x41\n    /* \"#utility.yul\":1341:1342   */\n  0x04\n    /* \"#utility.yul\":1334:1349   */\n  mstore\n    /* \"#utility.yul\":1368:1372   */\n  0x24\n    /* \"#utility.yul\":1365:1366   */\n  0x00\n    /* \"#utility.yul\":1358:1373   */\n  revert\n    /* \"#utility.yul\":1385:1666   */\ntag_20:\n    /* \"#utility.yul\":1468:1495   */\n  tag_62\n    /* \"#utility.yul\":1490:1494   */\n  dup3\n    /* \"#utility.yul\":1468:1495   */\n  tag_18\n  jump\t// in\ntag_62:\n    /* \"#utility.yul\":1460:1466   */\n  dup2\n    /* \"#utility.yul\":1456:1496   */\n  add\n    /* \"#utility.yul\":1598:1604   */\n  dup2\n    /* \"#utility.yul\":1586:1596   */\n  dup2\n    /* \"#utility.yul\":1583:1605   */\n  lt\n    /* \"#utility.yul\":1562:1580   */\n  0xffffffffffffffff\n    /* \"#utility.yul\":1550:1560   */\n  dup3\n    /* \"#utility.yul\":1547:1581   */\n  gt\n    /* \"#utility.yul\":1544:1606   */\n  or\n    /* \"#utility.yul\":1541:1629   */\n  iszero\n  tag_63\n  jumpi\n    /* \"#utility.yul\":1609:1627   */\n  tag_64\n  tag_19\n  jump\t// in\ntag_64:\n    /* \"#utility.yul\":1541:1629   */\ntag_63:\n    /* \"#utility.yul\":1649:1659   */\n  dup1\n    /* \"#utility.yul\":1645:1647   */\n  0x40\n    /* \"#utility.yul\":1638:1660   */\n  mstore\n    /* \"#utility.yul\":1428:1666   */\n  pop\n    /* \"#utility.yul\":1385:1666   */\n  pop\n  pop\n  jump\t// out\n    /* \"#utility.yul\":1672:1801   */\ntag_21:\n    /* \"#utility.yul\":1706:1712   */\n  0x00\n    /* \"#utility.yul\":1733:1753   */\n  tag_66\n  tag_9\n  jump\t// in\ntag_66:\n    /* \"#utility.yul\":1723:1753   */\n  swap1\n  pop\n    /* \"#utility.yul\":1762:1795   */\n  tag_67\n    /* \"#utility.yul\":1790:1794   */\n  dup3\n    /* \"#utility.yul\":1782:1788   */\n  dup3\n    /* \"#utility.yul\":1762:1795   */\n  tag_20\n  jump\t// in\ntag_67:\n    /* \"#utility.yul\":1672:1801   */\n  swap2\n  swap1\n  pop\n  jump\t// out\n    /* \"#utility.yul\":1807:2115   */\ntag_22:\n    /* \"#utility.yul\":1869:1873   */\n  0x00\n    /* \"#utility.yul\":1959:1977   */\n  0xffffffffffffffff\n    /* \"#utility.yul\":1951:1957   */\n  dup3\n    /* \"#utility.yul\":1948:1978   */\n  gt\n    /* \"#utility.yul\":1945:2001   */\n  iszero\n  tag_69\n  jumpi\n    /* \"#utility.yul\":1981:1999   */\n  tag_70\n  tag_19\n  jump\t// in\ntag_70:\n    /* \"#utility.yul\":1945:2001   */\ntag_69:\n    /* \"#utility.yul\":2019:2048   */\n  tag_71\n    /* \"#utility.yul\":2041:2047   */\n  dup3\n    /* \"#utility.yul\":2019:2048   */\n  tag_18\n  jump\t// in\ntag_71:\n    /* \"#utility.yul\":2011:2048   */\n  swap1\n  pop\n    /* \"#utility.yul\":2103:2107   */\n  0x20\n    /* \"#utility.yul\":2097:2101   */\n  dup2\n    /* \"#utility.yul\":2093:2108   */\n  add\n    /* \"#utility.yul\":2085:2108   */\n  swap1\n  pop\n    /* \"#utility.yul\":1807:2115   */\n  swap2\n  swap1\n  pop\n  jump\t// out\n    /* \"#utility.yul\":2121:2260   */\ntag_23:\n    /* \"#utility.yul\":2210:2216   */\n  dup3\n    /* \"#utility.yul\":2205:2208   */\n  dup2\n    /* \"#utility.yul\":2200:2203   */\n  dup4\n    /* \"#utility.yul\":2194:2217   */\n  mcopy\n    /* \"#utility.yul\":2251:2252   */\n  0x00\n    /* \"#utility.yul\":2242:2248   */\n  dup4\n    /* \"#utility.yul\":2237:2240   */\n  dup4\n    /* \"#utility.yul\":2233:2249   */\n  add\n    /* \"#utility.yul\":2226:2253   */\n  mstore\n    /* \"#utility.yul\":2121:2260   */\n  pop\n  pop\n  pop\n  jump\t// out\n    /* \"#utility.yul\":2266:2700   */\ntag_24:\n    /* \"#utility.yul\":2355:2360   */\n  0x00\n    /* \"#utility.yul\":2380:2446   */\n  tag_74\n    /* \"#utility.yul\":2396:2445   */\n  tag_75\n    /* \"#utility.yul\":2438:2444   */\n  dup5\n    /* \"#utility.yul\":2396:2445   */\n  tag_22\n  jump\t// in\ntag_75:\n    /* \"#utility.yul\":2380:2446   */\n  tag_21\n  jump\t// in\ntag_74:\n    /* \"#utility.yul\":2371:2446   */\n  swap1\n  pop\n    /* \"#utility.yul\":2469:2475   */\n  dup3\n    /* \"#utility.yul\":2462:2467   */\n  dup2\n    /* \"#utility.yul\":2455:2476   */\n  mstore\n    /* \"#utility.yul\":2507:2511   */\n  0x20\n    /* \"#utility.yul\":2500:2505   */\n  dup2\n    /* \"#utility.yul\":2496:2512   */\n  add\n    /* \"#utility.yul\":2545:2548   */\n  dup5\n    /* \"#utility.yul\":2536:2542   */\n  dup5\n    /* \"#utility.yul\":2531:2534   */\n  dup5\n    /* \"#utility.yul\":2527:2543   */\n  add\n    /* \"#utility.yul\":2524:2549   */\n  gt\n    /* \"#utility.yul\":2521:2633   */\n  iszero\n  tag_76\n  jumpi\n    /* \"#utility.yul\":2552:2631   */\n  tag_77\n  tag_17\n  jump\t// in\ntag_77:\n    /* \"#utility.yul\":2521:2633   */\ntag_76:\n    /* \"#utility.yul\":2642:2694   */\n  tag_78\n    /* \"#utility.yul\":2687:2693   */\n  dup5\n    /* \"#utility.yul\":2682:2685   */\n  dup3\n    /* \"#utility.yul\":2677:2680   */\n  dup6\n    /* \"#utility.yul\":2642:2694   */\n  tag_23\n  jump\t// in\ntag_78:\n    /* \"#utility.yul\":2361:2700   */\n  pop\n    /* \"#utility.yul\":2266:2700   */\n  swap4\n  swap3\n  pop\n  pop\n  pop\n  jump\t// out\n    /* \"#utility.yul\":2720:3075   */\ntag_25:\n    /* \"#utility.yul\":2787:2792   */\n  0x00\n    /* \"#utility.yul\":2836:2839   */\n  dup3\n    /* \"#utility.yul\":2829:2833   */\n  0x1f\n    /* \"#utility.yul\":2821:2827   */\n  dup4\n    /* \"#utility.yul\":2817:2834   */\n  add\n    /* \"#utility.yul\":2813:2840   */\n  slt\n    /* \"#utility.yul\":2803:2925   */\n  tag_80\n  jumpi\n    /* \"#utility.yul\":2844:2923   */\n  tag_81\n  tag_16\n  jump\t// in\ntag_81:\n    /* \"#utility.yul\":2803:2925   */\ntag_80:\n    /* \"#utility.yul\":2954:2960   */\n  dup2\n    /* \"#utility.yul\":2948:2961   */\n  mload\n    /* \"#utility.yul\":2979:3069   */\n  tag_82\n    /* \"#utility.yul\":3065:3068   */\n  dup5\n    /* \"#utility.yul\":3057:3063   */\n  dup3\n    /* \"#utility.yul\":3050:3054   */\n  0x20\n    /* \"#utility.yul\":3042:3048   */\n  dup7\n    /* \"#utility.yul\":3038:3055   */\n  add\n    /* \"#utility.yul\":2979:3069   */\n  tag_24\n  jump\t// in\ntag_82:\n    /* \"#utility.yul\":2970:3069   */\n  swap2\n  pop\n    /* \"#utility.yul\":2793:3075   */\n  pop\n    /* \"#utility.yul\":2720:3075   */\n  swap3\n  swap2\n  pop\n  pop\n  jump\t// out\n    /* \"#utility.yul\":3081:3761   */\ntag_3:\n    /* \"#utility.yul\":3170:3176   */\n  0x00\n    /* \"#utility.yul\":3178:3184   */\n  0x00\n    /* \"#utility.yul\":3227:3229   */\n  0x40\n    /* \"#utility.yul\":3215:3224   */\n  dup4\n    /* \"#utility.yul\":3206:3213   */\n  dup6\n    /* \"#utility.yul\":3202:3225   */\n  sub\n    /* \"#utility.yul\":3198:3230   */\n  slt\n    /* \"#utility.yul\":3195:3314   */\n  iszero\n  tag_84\n  jumpi\n    /* \"#utility.yul\":3233:3312   */\n  tag_85\n  tag_10\n  jump\t// in\ntag_85:\n    /* \"#utility.yul\":3195:3314   */\ntag_84:\n    /* \"#utility.yul\":3353:3354   */\n  0x00\n    /* \"#utility.yul\":3378:3442   */\n  tag_86\n    /* \"#utility.yul\":3434:3441   */\n  dup6\n    /* \"#utility.yul\":3425:3431   */\n  dup3\n    /* \"#utility.yul\":3414:3423   */\n  dup7\n    /* \"#utility.yul\":3410:3432   */\n  add\n    /* \"#utility.yul\":3378:3442   */\n  tag_15\n  jump\t// in\ntag_86:\n    /* \"#utility.yul\":3368:3442   */\n  swap3\n  pop\n    /* \"#utility.yul\":3324:3452   */\n  pop\n    /* \"#utility.yul\":3512:3514   */\n  0x20\n    /* \"#utility.yul\":3501:3510   */\n  dup4\n    /* \"#utility.yul\":3497:3515   */\n  add\n    /* \"#utility.yul\":3491:3516   */\n  mload\n    /* \"#utility.yul\":3543:3561   */\n  0xffffffffffffffff\n    /* \"#utility.yul\":3535:3541   */\n  dup2\n    /* \"#utility.yul\":3532:3562   */\n  gt\n    /* \"#utility.yul\":3529:3646   */\n  iszero\n  tag_87\n  jumpi\n    /* \"#utility.yul\":3565:3644   */\n  tag_88\n  tag_11\n  jump\t// in\ntag_88:\n    /* \"#utility.yul\":3529:3646   */\ntag_87:\n    /* \"#utility.yul\":3670:3744   */\n  tag_89\n    /* \"#utility.yul\":3736:3743   */\n  dup6\n    /* \"#utility.yul\":3727:3733   */\n  dup3\n    /* \"#utility.yul\":3716:3725   */\n  dup7\n    /* \"#utility.yul\":3712:3734   */\n  add\n    /* \"#utility.yul\":3670:3744   */\n  tag_25\n  jump\t// in\ntag_89:\n    /* \"#utility.yul\":3660:3744   */\n  swap2\n  pop\n    /* \"#utility.yul\":3462:3754   */\n  pop\n    /* \"#utility.yul\":3081:3761   */\n  swap3\n  pop\n  swap3\n  swap1\n  pop\n  jump\t// out\n    /* \"#utility.yul\":3767:3866   */\ntag_26:\n    /* \"#utility.yul\":3819:3825   */\n  0x00\n    /* \"#utility.yul\":3853:3858   */\n  dup2\n    /* \"#utility.yul\":3847:3859   */\n  mload\n    /* \"#utility.yul\":3837:3859   */\n  swap1\n  pop\n    /* \"#utility.yul\":3767:3866   */\n  swap2\n  swap1\n  pop\n  jump\t// out\n    /* \"#utility.yul\":3872:4052   */\ntag_27:\n    /* \"#utility.yul\":3920:3997   */\n  0x4e487b7100000000000000000000000000000000000000000000000000000000\n    /* \"#utility.yul\":3917:3918   */\n  0x00\n    /* \"#utility.yul\":3910:3998   */\n  mstore\n    /* \"#utility.yul\":4017:4021   */\n  0x22\n    /* \"#utility.yul\":4014:4015   */\n  0x04\n    /* \"#utility.yul\":4007:4022   */\n  mstore\n    /* \"#utility.yul\":4041:4045   */\n  0x24\n    /* \"#utility.yul\":4038:4039   */\n  0x00\n    /* \"#utility.yul\":4031:4046   */\n  revert\n    /* \"#utility.yul\":4058:4378   */\ntag_28:\n    /* \"#utility.yul\":4102:4108   */\n  0x00\n    /* \"#utility.yul\":4139:4140   */\n  0x02\n    /* \"#utility.yul\":4133:4137   */\n  dup3\n    /* \"#utility.yul\":4129:4141   */\n  div\n    /* \"#utility.yul\":4119:4141   */\n  swap1\n  pop\n    /* \"#utility.yul\":4186:4187   */\n  0x01\n    /* \"#utility.yul\":4180:4184   */\n  dup3\n    /* \"#utility.yul\":4176:4188   */\n  and\n    /* \"#utility.yul\":4207:4225   */\n  dup1\n    /* \"#utility.yul\":4197:4278   */\n  tag_93\n  jumpi\n    /* \"#utility.yul\":4263:4267   */\n  0x7f\n    /* \"#utility.yul\":4255:4261   */\n  dup3\n    /* \"#utility.yul\":4251:4268   */\n  and\n    /* \"#utility.yul\":4241:4268   */\n  swap2\n  pop\n    /* \"#utility.yul\":4197:4278   */\ntag_93:\n    /* \"#utility.yul\":4325:4327   */\n  0x20\n    /* \"#utility.yul\":4317:4323   */\n  dup3\n    /* \"#utility.yul\":4314:4328   */\n  lt\n    /* \"#utility.yul\":4294:4312   */\n  dup2\n    /* \"#utility.yul\":4291:4329   */\n  sub\n    /* \"#utility.yul\":4288:4372   */\n  tag_94\n  jumpi\n    /* \"#utility.yul\":4344:4362   */\n  tag_95\n  tag_27\n  jump\t// in\ntag_95:\n    /* \"#utility.yul\":4288:4372   */\ntag_94:\n    /* \"#utility.yul\":4109:4378   */\n  pop\n    /* \"#utility.yul\":4058:4378   */\n  swap2\n  swap1\n  pop\n  jump\t// out\n    /* \"#utility.yul\":4384:4525   */\ntag_29:\n    /* \"#utility.yul\":4433:4437   */\n  0x00\n    /* \"#utility.yul\":4456:4459   */\n  dup2\n    /* \"#utility.yul\":4448:4459   */\n  swap1\n  pop\n    /* \"#utility.yul\":4479:4482   */\n  dup2\n    /* \"#utility.yul\":4476:4477   */\n  0x00\n    /* \"#utility.yul\":4469:4483   */\n  mstore\n    /* \"#utility.yul\":4513:4517   */\n  0x20\n    /* \"#utility.yul\":4510:4511   */\n  0x00\n    /* \"#utility.yul\":4500:4518   */\n  keccak256\n    /* \"#utility.yul\":4492:4518   */\n  swap1\n  pop\n    /* \"#utility.yul\":4384:4525   */\n  swap2\n  swap1\n  pop\n  jump\t// out\n    /* \"#utility.yul\":4531:4624   */\ntag_30:\n    /* \"#utility.yul\":4568:4574   */\n  0x00\n    /* \"#utility.yul\":4615:4617   */\n  0x20\n    /* \"#utility.yul\":4610:4612   */\n  0x1f\n    /* \"#utility.yul\":4603:4608   */\n  dup4\n    /* \"#utility.yul\":4599:4613   */\n  add\n    /* \"#utility.yul\":4595:4618   */\n  div\n    /* \"#utility.yul\":4585:4618   */\n  swap1\n  pop\n    /* \"#utility.yul\":4531:4624   */\n  swap2\n  swap1\n  pop\n  jump\t// out\n    /* \"#utility.yul\":4630:4737   */\ntag_31:\n    /* \"#utility.yul\":4674:4682   */\n  0x00\n    /* \"#utility.yul\":4724:4729   */\n  dup3\n    /* \"#utility.yul\":4718:4722   */\n  dup3\n    /* \"#utility.yul\":4714:4730   */\n  shl\n    /* \"#utility.yul\":4693:4730   */\n  swap1\n  pop\n    /* \"#utility.yul\":4630:4737   */\n  swap3\n  swap2\n  pop\n  pop\n  jump\t// out\n    /* \"#utility.yul\":4743:5136   */\ntag_32:\n    /* \"#utility.yul\":4812:4818   */\n  0x00\n    /* \"#utility.yul\":4862:4863   */\n  0x08\n    /* \"#utility.yul\":4850:4860   */\n  dup4\n    /* \"#utility.yul\":4846:4864   */\n  mul\n    /* \"#utility.yul\":4885:4982   */\n  tag_100\n    /* \"#utility.yul\":4915:4981   */\n  0xffffffffffffffffffffffffffffffffffffffffffffffffffffffffffffffff\n    /* \"#utility.yul\":4904:4913   */\n  dup3\n    /* \"#utility.yul\":4885:4982   */\n  tag_31\n  jump\t// in\ntag_100:\n    /* \"#utility.yul\":5003:5042   */\n  tag_101\n    /* \"#utility.yul\":5033:5041   */\n  dup7\n    /* \"#utility.yul\":5022:5031   */\n  dup4\n    /* \"#utility.yul\":5003:5042   */\n  tag_31\n  jump\t// in\ntag_101:\n    /* \"#utility.yul\":4991:5042   */\n  swap6\n  pop\n    /* \"#utility.yul\":5075:5079   */\n  dup1\n    /* \"#utility.yul\":5071:5080   */\n  not\n    /* \"#utility.yul\":5064:5069   */\n  dup5\n    /* \"#utility.yul\":5060:5081   */\n  and\n    /* \"#utility.yul\":5051:5081   */\n  swap4\n  pop\n    /* \"#utility.yul\":5124:5128   */\n  dup1\n    /* \"#utility.yul\":5114:5122   */\n  dup7\n    /* \"#utility.yul\":5110:5129   */\n  and\n    /* \"#utility.yul\":5103:5108   */\n  dup5\n    /* \"#utility.yul\":5100:5130   */\n  or\n    /* \"#utility.yul\":5090:5130   */\n  swap3\n  pop\n    /* \"#utility.yul\":4819:5136   */\n  pop\n  pop\n    /* \"#utility.yul\":4743:5136   */\n  swap4\n  swap3\n  pop\n  pop\n  pop\n  jump\t// out\n    /* \"#utility.yul\":5142:5219   */\ntag_33:\n    /* \"#utility.yul\":5179:5186   */\n  0x00\n    /* \"#utility.yul\":5208:5213   */\n  dup2\n    /* \"#utility.yul\":5197:5213   */\n  swap1\n  pop\n    /* \"#utility.yul\":5142:5219   */\n  swap2\n  swap1\n  pop\n  jump\t// out\n    /* \"#utility.yul\":5225:5285   */\ntag_34:\n    /* \"#utility.yul\":5253:5256   */\n  0x00\n    /* \"#utility.yul\":5274:5279   */\n  dup2\n    /* \"#utility.yul\":5267:5279   */\n  swap1\n  pop\n    /* \"#utility.yul\":5225:5285   */\n  swap2\n  swap1\n  pop\n  jump\t// out\n    /* \"#utility.yul\":5291:5433   */\ntag_35:\n    /* \"#utility.yul\":5341:5350   */\n  0x00\n    /* \"#utility.yul\":5374:5427   */\n  tag_105\n    /* \"#utility.yul\":5392:5426   */\n  tag_106\n    /* \"#utility.yul\":5401:5425   */\n  tag_107\n    /* \"#utility.yul\":5419:5424   */\n  dup5\n    /* \"#utility.yul\":5401:5425   */\n  tag_33\n  jump\t// in\ntag_107:\n    /* \"#utility.yul\":5392:5426   */\n  tag_34\n  jump\t// in\ntag_106:\n    /* \"#utility.yul\":5374:5427   */\n  tag_33\n  jump\t// in\ntag_105:\n    /* \"#utility.yul\":5361:5427   */\n  swap1\n  pop\n    /* \"#utility.yul\":5291:5433   */\n  swap2\n  swap1\n  pop\n  jump\t// out\n    /* \"#utility.yul\":5439:5514   */\ntag_36:\n    /* \"#utility.yul\":5482:5485   */\n  0x00\n    /* \"#utility.yul\":5503:5508   */\n  dup2\n    /* \"#utility.yul\":5496:5508   */\n  swap1\n  pop\n    /* \"#utility.yul\":5439:5514   */\n  swap2\n  swap1\n  pop\n  jump\t// out\n    /* \"#utility.yul\":5520:5789   */\ntag_37:\n    /* \"#utility.yul\":5630:5669   */\n  tag_110\n    /* \"#utility.yul\":5661:5668   */\n  dup4\n    /* \"#utility.yul\":5630:5669   */\n  tag_35\n  jump\t// in\ntag_110:\n    /* \"#utility.yul\":5691:5782   */\n  tag_111\n    /* \"#utility.yul\":5740:5781   */\n  tag_112\n    /* \"#utility.yul\":5764:5780   */\n  dup3\n    /* \"#utility.yul\":5740:5781   */\n  tag_36\n  jump\t// in\ntag_112:\n    /* \"#utility.yul\":5732:5738   */\n  dup5\n    /* \"#utility.yul\":5725:5729   */\n  dup5\n    /* \"#utility.yul\":5719:5730   */\n  sload\n    /* \"#utility.yul\":5691:5782   */\n  tag_32\n  jump\t// in\ntag_111:\n    /* \"#utility.yul\":5685:5689   */\n  dup3\n    /* \"#utility.yul\":5678:5783   */\n  sstore\n    /* \"#utility.yul\":5596:5789   */\n  pop\n    /* \"#utility.yul\":5520:5789   */\n  pop\n  pop\n  pop\n  jump\t// out\n    /* \"#utility.yul\":5795:5868   */\ntag_38:\n    /* \"#utility.yul\":5840:5843   */\n  0x00\n    /* \"#utility.yul\":5861:5862   */\n  0x00\n    /* \"#utility.yul\":5854:5862   */\n  swap1\n  pop\n    /* \"#utility.yul\":5795:5868   */\n  swap1\n  jump\t// out\n    /* \"#utility.yul\":5874:6063   */\ntag_39:\n    /* \"#utility.yul\":5951:5983   */\n  tag_115\n  tag_38\n  jump\t// in\ntag_115:\n    /* \"#utility.yul\":5992:6057   */\n  tag_116\n    /* \"#utility.yul\":6050:6056   */\n  dup2\n    /* \"#utility.yul\":6042:6048   */\n  dup5\n    /* \"#utility.yul\":6036:6040   */\n  dup5\n    /* \"#utility.yul\":5992:6057   */\n  tag_37\n  jump\t// in\ntag_116:\n    /* \"#utility.yul\":5927:6063   */\n  pop\n    /* \"#utility.yul\":5874:6063   */\n  pop\n  pop\n  jump\t// out\n    /* \"#utility.yul\":6069:6255   */\ntag_40:\n    /* \"#utility.yul\":6129:6249   */\ntag_118:\n    /* \"#utility.yul\":6146:6149   */\n  dup2\n    /* \"#utility.yul\":6139:6144   */\n  dup2\n    /* \"#utility.yul\":6136:6150   */\n  lt\n    /* \"#utility.yul\":6129:6249   */\n  iszero\n  tag_120\n  jumpi\n    /* \"#utility.yul\":6200:6239   */\n  tag_121\n    /* \"#utility.yul\":6237:6238   */\n  0x00\n    /* \"#utility.yul\":6230:6235   */\n  dup3\n    /* \"#utility.yul\":6200:6239   */\n  tag_39\n  jump\t// in\ntag_121:\n    /* \"#utility.yul\":6173:6174   */\n  0x01\n    /* \"#utility.yul\":6166:6171   */\n  dup2\n    /* \"#utility.yul\":6162:6175   */\n  add\n    /* \"#utility.yul\":6153:6175   */\n  swap1\n  pop\n    /* \"#utility.yul\":6129:6249   */\n  jump(tag_118)\ntag_120:\n    /* \"#utility.yul\":6069:6255   */\n  pop\n  pop\n  jump\t// out\n    /* \"#utility.yul\":6261:6804   */\ntag_41:\n    /* \"#utility.yul\":6362:6364   */\n  0x1f\n    /* \"#utility.yul\":6357:6360   */\n  dup3\n    /* \"#utility.yul\":6354:6365   */\n  gt\n    /* \"#utility.yul\":6351:6797   */\n  iszero\n  tag_123\n  jumpi\n    /* \"#utility.yul\":6396:6434   */\n  tag_124\n    /* \"#utility.yul\":6428:6433   */\n  dup2\n    /* \"#utility.yul\":6396:6434   */\n  tag_29\n  jump\t// in\ntag_124:\n    /* \"#utility.yul\":6480:6509   */\n  tag_125\n    /* \"#utility.yul\":6498:6508   */\n  dup5\n    /* \"#utility.yul\":6480:6509   */\n  tag_30\n  jump\t// in\ntag_125:\n    /* \"#utility.yul\":6470:6478   */\n  dup2\n    /* \"#utility.yul\":6466:6510   */\n  add\n    /* \"#utility.yul\":6663:6665   */\n  0x20\n    /* \"#utility.yul\":6651:6661   */\n  dup6\n    /* \"#utility.yul\":6648:6666   */\n  lt\n    /* \"#utility.yul\":6645:6694   */\n  iszero\n  tag_126\n  jumpi\n    /* \"#utility.yul\":6684:6692   */\n  dup2\n    /* \"#utility.yul\":6669:6692   */\n  swap1\n  pop\n    /* \"#utility.yul\":6645:6694   */\ntag_126:\n    /* \"#utility.yul\":6707:6787   */\n  tag_127\n    /* \"#utility.yul\":6763:6785   */\n  tag_128\n    /* \"#utility.yul\":6781:6784   */\n  dup6\n    /* \"#utility.yul\":6763:6785   */\n  tag_30\n  jump\t// in\ntag_128:\n    /* \"#utility.yul\":6753:6761   */\n  dup4\n    /* \"#utility.yul\":6749:6786   */\n  add\n    /* \"#utility.yul\":6736:6747   */\n  dup3\n    /* \"#utility.yul\":6707:6787   */\n  tag_40\n  jump\t// in\ntag_127:\n    /* \"#utility.yul\":6366:6797   */\n  pop\n  pop\n    /* \"#utility.yul\":6351:6797   */\ntag_123:\n    /* \"#utility.yul\":6261:6804   */\n  pop\n  pop\n  pop\n  jump\t// out\n    /* \"#utility.yul\":6810:6927   */\ntag_42:\n    /* \"#utility.yul\":6864:6872   */\n  0x00\n    /* \"#utility.yul\":6914:6919   */\n  dup3\n    /* \"#utility.yul\":6908:6912   */\n  dup3\n    /* \"#utility.yul\":6904:6920   */\n  shr\n    /* \"#utility.yul\":6883:6920   */\n  swap1\n  pop\n    /* \"#utility.yul\":6810:6927   */\n  swap3\n  swap2\n  pop\n  pop\n  jump\t// out\n    /* \"#utility.yul\":6933:7102   */\ntag_43:\n    /* \"#utility.yul\":6977:6983   */\n  0x00\n    /* \"#utility.yul\":7010:7061   */\n  tag_131\n    /* \"#utility.yul\":7058:7059   */\n  0x00\n    /* \"#utility.yul\":7054:7060   */\n  not\n    /* \"#utility.yul\":7046:7051   */\n  dup5\n    /* \"#utility.yul\":7043:7044   */\n  0x08\n    /* \"#utility.yul\":7039:7052   */\n  mul\n    /* \"#utility.yul\":7010:7061   */\n  tag_42\n  jump\t// in\ntag_131:\n    /* \"#utility.yul\":7006:7062   */\n  not\n    /* \"#utility.yul\":7091:7095   */\n  dup1\n    /* \"#utility.yul\":7085:7089   */\n  dup4\n    /* \"#utility.yul\":7081:7096   */\n  and\n    /* \"#utility.yul\":7071:7096   */\n  swap2\n  pop\n    /* \"#utility.yul\":6984:7102   */\n  pop\n    /* \"#utility.yul\":6933:7102   */\n  swap3\n  swap2\n  pop\n  pop\n  jump\t// out\n    /* \"#utility.yul\":7107:7402   */\ntag_44:\n    /* \"#utility.yul\":7183:7187   */\n  0x00\n    /* \"#utility.yul\":7329:7358   */\n  tag_133\n    /* \"#utility.yul\":7354:7357   */\n  dup4\n    /* \"#utility.yul\":7348:7352   */\n  dup4\n    /* \"#utility.yul\":7329:7358   */\n  tag_43\n  jump\t// in\ntag_133:\n    /* \"#utility.yul\":7321:7358   */\n  swap2\n  pop\n    /* \"#utility.yul\":7391:7394   */\n  dup3\n    /* \"#utility.yul\":7388:7389   */\n  0x02\n    /* \"#utility.yul\":7384:7395   */\n  mul\n    /* \"#utility.yul\":7378:7382   */\n  dup3\n    /* \"#utility.yul\":7375:7396   */\n  or\n    /* \"#utility.yul\":7367:7396   */\n  swap1\n  pop\n    /* \"#utility.yul\":7107:7402   */\n  swap3\n  swap2\n  pop\n  pop\n  jump\t// out\n    /* \"#utility.yul\":7407:8802   */\ntag_7:\n    /* \"#utility.yul\":7524:7561   */\n  tag_135\n    /* \"#utility.yul\":7557:7560   */\n  dup3\n    /* \"#utility.yul\":7524:7561   */\n  tag_26\n  jump\t// in\ntag_135:\n    /* \"#utility.yul\":7626:7644   */\n  0xffffffffffffffff\n    /* \"#utility.yul\":7618:7624   */\n  dup2\n    /* \"#utility.yul\":7615:7645   */\n  gt\n    /* \"#utility.yul\":7612:7668   */\n  iszero\n  tag_136\n  jumpi\n    /* \"#utility.yul\":7648:7666   */\n  tag_137\n  tag_19\n  jump\t// in\ntag_137:\n    /* \"#utility.yul\":7612:7668   */\ntag_136:\n    /* \"#utility.yul\":7692:7730   */\n  tag_138\n    /* \"#utility.yul\":7724:7728   */\n  dup3\n    /* \"#utility.yul\":7718:7729   */\n  sload\n    /* \"#utility.yul\":7692:7730   */\n  tag_28\n  jump\t// in\ntag_138:\n    /* \"#utility.yul\":7777:7844   */\n  tag_139\n    /* \"#utility.yul\":7837:7843   */\n  dup3\n    /* \"#utility.yul\":7829:7835   */\n  dup3\n    /* \"#utility.yul\":7823:7827   */\n  dup6\n    /* \"#utility.yul\":7777:7844   */\n  tag_41\n  jump\t// in\ntag_139:\n    /* \"#utility.yul\":7871:7872   */\n  0x00\n    /* \"#utility.yul\":7895:7899   */\n  0x20\n    /* \"#utility.yul\":7882:7899   */\n  swap1\n  pop\n    /* \"#utility.yul\":7927:7929   */\n  0x1f\n    /* \"#utility.yul\":7919:7925   */\n  dup4\n    /* \"#utility.yul\":7916:7930   */\n  gt\n    /* \"#utility.yul\":7944:7945   */\n  0x01\n    /* \"#utility.yul\":7939:8557   */\n  dup2\n  eq\n  tag_141\n  jumpi\n    /* \"#utility.yul\":8601:8602   */\n  0x00\n    /* \"#utility.yul\":8618:8624   */\n  dup5\n    /* \"#utility.yul\":8615:8692   */\n  iszero\n  tag_142\n  jumpi\n    /* \"#utility.yul\":8667:8676   */\n  dup3\n    /* \"#utility.yul\":8662:8665   */\n  dup8\n    /* \"#utility.yul\":8658:8677   */\n  add\n    /* \"#utility.yul\":8652:8678   */\n  mload\n    /* \"#utility.yul\":8643:8678   */\n  swap1\n  pop\n    /* \"#utility.yul\":8615:8692   */\ntag_142:\n    /* \"#utility.yul\":8718:8785   */\n  tag_143\n    /* \"#utility.yul\":8778:8784   */\n  dup6\n    /* \"#utility.yul\":8771:8776   */\n  dup3\n    /* \"#utility.yul\":8718:8785   */\n  tag_44\n  jump\t// in\ntag_143:\n    /* \"#utility.yul\":8712:8716   */\n  dup7\n    /* \"#utility.yul\":8705:8786   */\n  sstore\n    /* \"#utility.yul\":8574:8796   */\n  pop\n    /* \"#utility.yul\":7909:8796   */\n  jump(tag_140)\n    /* \"#utility.yul\":7939:8557   */\ntag_141:\n    /* \"#utility.yul\":7991:7995   */\n  0x1f\n    /* \"#utility.yul\":7987:7996   */\n  not\n    /* \"#utility.yul\":7979:7985   */\n  dup5\n    /* \"#utility.yul\":7975:7997   */\n  and\n    /* \"#utility.yul\":8025:8062   */\n  tag_144\n    /* \"#utility.yul\":8057:8061   */\n  dup7\n    /* \"#utility.yul\":8025:8062   */\n  tag_29\n  jump\t// in\ntag_144:\n    /* \"#utility.yul\":8084:8085   */\n  0x00\n    /* \"#utility.yul\":8098:8306   */\ntag_145:\n    /* \"#utility.yul\":8112:8119   */\n  dup3\n    /* \"#utility.yul\":8109:8110   */\n  dup2\n    /* \"#utility.yul\":8106:8120   */\n  lt\n    /* \"#utility.yul\":8098:8306   */\n  iszero\n  tag_147\n  jumpi\n    /* \"#utility.yul\":8191:8200   */\n  dup5\n    /* \"#utility.yul\":8186:8189   */\n  dup10\n    /* \"#utility.yul\":8182:8201   */\n  add\n    /* \"#utility.yul\":8176:8202   */\n  mload\n    /* \"#utility.yul\":8168:8174   */\n  dup3\n    /* \"#utility.yul\":8161:8203   */\n  sstore\n    /* \"#utility.yul\":8242:8243   */\n  0x01\n    /* \"#utility.yul\":8234:8240   */\n  dup3\n    /* \"#utility.yul\":8230:8244   */\n  add\n    /* \"#utility.yul\":8220:8244   */\n  swap2\n  pop\n    /* \"#utility.yul\":8289:8291   */\n  0x20\n    /* \"#utility.yul\":8278:8287   */\n  dup6\n    /* \"#utility.yul\":8274:8292   */\n  add\n    /* \"#utility.yul\":8261:8292   */\n  swap5\n  pop\n    /* \"#utility.yul\":8135:8139   */\n  0x20\n    /* \"#utility.yul\":8132:8133   */\n  dup2\n    /* \"#utility.yul\":8128:8140   */\n  add\n    /* \"#utility.yul\":8123:8140   */\n  swap1\n  pop\n    /* \"#utility.yul\":8098:8306   */\n  jump(tag_145)\ntag_147:\n    /* \"#utility.yul\":8334:8340   */\n  dup7\n    /* \"#utility.yul\":8325:8332   */\n  dup4\n    /* \"#utility.yul\":8322:8341   */\n  lt\n    /* \"#utility.yul\":8319:8498   */\n  iszero\n  tag_148\n  jumpi\n    /* \"#utility.yul\":8392:8401   */\n  dup5\n    /* \"#utility.yul\":8387:8390   */\n  dup10\n    /* \"#utility.yul\":8383:8402   */\n  add\n    /* \"#utility.yul\":8377:8403   */\n  mload\n    /* \"#utility.yul\":8435:8483   */\n  tag_149\n    /* \"#utility.yul\":8477:8481   */\n  0x1f\n    /* \"#utility.yul\":8469:8475   */\n  dup10\n    /* \"#utility.yul\":8465:8482   */\n  and\n    /* \"#utility.yul\":8454:8463   */\n  dup3\n    /* \"#utility.yul\":8435:8483   */\n  tag_43\n  jump\t// in\ntag_149:\n    /* \"#utility.yul\":8427:8433   */\n  dup4\n    /* \"#utility.yul\":8420:8484   */\n  sstore\n    /* \"#utility.yul\":8342:8498   */\n  pop\n    /* \"#utility.yul\":8319:8498   */\ntag_148:\n    /* \"#utility.yul\":8544:8545   */\n  0x01\n    /* \"#utility.yul\":8540:8541   */\n  0x02\n    /* \"#utility.yul\":8532:8538   */\n  dup9\n    /* \"#utility.yul\":8528:8542   */\n  mul\n    /* \"#utility.yul\":8524:8546   */\n  add\n    /* \"#utility.yul\":8518:8522   */\n  dup9\n    /* \"#utility.yul\":8511:8547   */\n  sstore\n    /* \"#utility.yul\":7946:8557   */\n  pop\n  pop\n  pop\n    /* \"#utility.yul\":7909:8796   */\ntag_140:\n  pop\n    /* \"#utility.yul\":7499:8802   */\n  pop\n  pop\n  pop\n    /* \"#utility.yul\":7407:8802   */\n  pop\n  pop\n  jump\t// out\n    /* \"OrgContract.sol\":57:2866  contract OrgContract {... */\ntag_8:\n  dataSize(sub_0)\n  dup1\n  dataOffset(sub_0)\n  0x00\n  codecopy\n  0x00\n  return\nstop\n\nsub_0: assembly {\n        /* \"OrgContract.sol\":57:2866  contract OrgContract {... */\n      mstore(0x40, 0x80)\n      callvalue\n      dup1\n      iszero\n      tag_1\n      jumpi\n      revert(0x00, 0x00)\n    tag_1:\n      pop\n      jumpi(tag_2, lt(calldatasize, 0x04))\n      shr(0xe0, calldataload(0x00))\n      dup1\n      0x59ded538\n      gt\n      tag_14\n      jumpi\n      dup1\n      0x59ded538\n      eq\n      tag_8\n      jumpi\n      dup1\n      0x6224f36f\n      eq\n      tag_9\n      jumpi\n      dup1\n      0x8fb97378\n      eq\n      tag_10\n      jumpi\n      dup1\n      0xcee4f70b\n      eq\n      tag_11\n      jumpi\n      dup1\n      0xda5cd453\n      eq\n      tag_12\n      jumpi\n      dup1\n      0xe2842d79\n      eq\n      tag_13\n      jumpi\n      jump(tag_2)\n    tag_14:\n      dup1\n      0x0ef3eb8b\n      eq\n      tag_3\n      jumpi\n      dup1\n      0x1386dc2d\n      eq\n      tag_4\n      jumpi\n      dup1\n      0x365b98b2\n      eq\n      tag_5\n      jumpi\n      dup1\n      0x4464fe33\n      eq\n      tag_6\n      jumpi\n      dup1\n      0x59543973\n      eq\n      tag_7\n      jumpi\n    tag_2:\n      revert(0x00, 0x00)\n        /* \"OrgContract.sol\":1466:1806  function verifyDocument(address user, uint256 index, bool approve) external onlyOrgAdmin {... */\n    tag_3:\n      tag_15\n      0x04\n      dup1\n      calldatasize\n      sub\n      dup2\n      add\n      swap1\n      tag_16\n      swap2\n      swap1\n      tag_17\n      jump\t// in\n    tag_16:\n      tag_18\n      jump\t// in\n    tag_15:\n      stop\n        /* \"OrgContract.sol\":113:134  string public orgName */\n    tag_4:\n      tag_19\n      tag_20\n      jump\t// in\n    tag_19:\n      mload(0x40)\n      tag_21\n      swap2\n      swap1\n      tag_22\n      jump\t// in\n    tag_21:\n      mload(0x40)\n      dup1\n      swap2\n      sub\n      swap1\n      return\n        /* \"OrgContract.sol\":461:483  address[] public users */\n    tag_5:\n      tag_23\n      0x04\n      dup1\n      calldatasize\n      sub\n      dup2\n      add\n      swap1\n      tag_24\n      swap2\n      swap1\n      tag_25\n      jump\t// in\n    tag_24:\n      tag_26\n      jump\t// in\n    tag_23:\n      mload(0x40)\n      tag_27\n      swap2\n      swap1\n      tag_28\n      jump\t// in\n    tag_27:\n      mload(0x40)\n      dup1\n      swap2\n      sub\n      swap1\n      return\n        /* \"OrgContract.sol\":954:1460  function uploadDocument(string memory _cid, string memory _docType) external {... */\n    tag_6:\n      tag_29\n      0x04\n      dup1\n      calldatasize\n      sub\n      dup2\n      add\n      swap1\n      tag_30\n      swap2\n      swap1\n      tag_31\n      jump\t// in\n    tag_30:\n      tag_32\n      jump\t// in\n    tag_29:\n      stop\n        /* \"OrgContract.sol\":84:107  address public orgAdmin */\n    tag_7:\n      tag_33\n      tag_34\n      jump\t// in\n    tag_33:\n      mload(0x40)\n      tag_35\n      swap2\n      swap1\n      tag_28\n      jump\t// in\n    tag_35:\n      mload(0x40)\n      dup1\n      swap2\n      sub\n      swap1\n      return\n        /* \"OrgContract.sol\":2032:2158  function getAllDocuments(address user) external view returns (Document[] memory) {... */\n    tag_8:\n      tag_36\n      0x04\n      dup1\n      calldatasize\n      sub\n      dup2\n      add\n      swap1\n      tag_37\n      swap2\n      swap1\n      tag_38\n      jump\t// in\n    tag_37:\n      tag_39\n      jump\t// in\n    tag_36:\n      mload(0x40)\n      tag_40\n      swap2\n      swap1\n      tag_41\n      jump\t// in\n    tag_40:\n      mload(0x40)\n      dup1\n      swap2\n      sub\n      swap1\n      return\n        /* \"OrgContract.sol\":524:567  mapping(address => bool) public isUserKnown */\n    tag_9:\n      tag_42\n      0x04\n      dup1\n      calldatasize\n      sub\n      dup2\n      add\n      swap1\n      tag_43\n      swap2\n      swap1\n      tag_38\n      jump\t// in\n    tag_43:\n      tag_44\n      jump\t// in\n    tag_42:\n      mload(0x40)\n      tag_45\n      swap2\n      swap1\n      tag_46\n      jump\t// in\n    tag_45:\n      mload(0x40)\n      dup1\n      swap2\n      sub\n      swap1\n      return\n        /* \"OrgContract.sol\":2263:2864  function getApprovedDocuments(address user) external view returns (Document[] memory) {... */\n    tag_10:\n      tag_47\n      0x04\n      dup1\n      calldatasize\n      sub\n      dup2\n      add\n      swap1\n      tag_48\n      swap2\n      swap1\n      tag_38\n      jump\t// in\n    tag_48:\n      tag_49\n      jump\t// in\n    tag_47:\n      mload(0x40)\n      tag_50\n      swap2\n      swap1\n      tag_41\n      jump\t// in\n    tag_50:\n      mload(0x40)\n      dup1\n      swap2\n      sub\n      swap1\n      return\n        /* \"OrgContract.sol\":1812:2026  function getDocument(address user, uint256 index) external view returns (Document memory) {... */\n    tag_11:\n      tag_51\n      0x04\n      dup1\n      calldatasize\n      sub\n      dup2\n      add\n      swap1\n      tag_52\n      swap2\n      swap1\n      tag_53\n      jump\t// in\n    tag_52:\n      tag_54\n      jump\t// in\n    tag_51:\n      mload(0x40)\n      tag_55\n      swap2\n      swap1\n      tag_56\n      jump\t// in\n    tag_55:\n      mload(0x40)\n      dup1\n      swap2\n      sub\n      swap1\n      return\n        /* \"OrgContract.sol\":373:426  mapping(address => Document[]) public documentsByUser */\n    tag_12:\n      tag_57\n      0x04\n      dup1\n      calldatasize\n      sub\n      dup2\n      add\n      swap1\n      tag_58\n      swap2\n      swap1\n      tag_53\n      jump\t// in\n    tag_58:\n      tag_59\n      jump\t// in\n    tag_57:\n      mload(0x40)\n      tag_60\n      swap6\n      swap5\n      swap4\n      swap3\n      swap2\n      swap1\n      tag_61\n      jump\t// in\n    tag_60:\n      mload(0x40)\n      dup1\n      swap2\n      sub\n      swap1\n      return\n        /* \"OrgContract.sol\":2164:2257  function getAllUsers() external view returns (address[] memory) {... */\n    tag_13:\n      tag_62\n      tag_63\n      jump\t// in\n    tag_62:\n      mload(0x40)\n      tag_64\n      swap2\n      swap1\n      tag_65\n      jump\t// in\n    tag_64:\n      mload(0x40)\n      dup1\n      swap2\n      sub\n      swap1\n      return\n        /* \"OrgContract.sol\":1466:1806  function verifyDocument(address user, uint256 index, bool approve) external onlyOrgAdmin {... */\n    tag_18:\n        /* \"OrgContract.sol\":789:797  orgAdmin */\n      0x00\n      0x00\n      swap1\n      sload\n      swap1\n      0x0100\n      exp\n      swap1\n      div\n      0xffffffffffffffffffffffffffffffffffffffff\n      and\n        /* \"OrgContract.sol\":775:797  msg.sender == orgAdmin */\n      0xffffffffffffffffffffffffffffffffffffffff\n      and\n        /* \"OrgContract.sol\":775:785  msg.sender */\n      caller\n        /* \"OrgContract.sol\":775:797  msg.sender == orgAdmin */\n      0xffffffffffffffffffffffffffffffffffffffff\n      and\n      eq\n        /* \"OrgContract.sol\":767:816  require(msg.sender == orgAdmin, \"Only Org Admin\") */\n      tag_67\n      jumpi\n      mload(0x40)\n      0x08c379a000000000000000000000000000000000000000000000000000000000\n      dup2\n      mstore\n      0x04\n      add\n      tag_68\n      swap1\n      tag_69\n      jump\t// in\n    tag_68:\n      mload(0x40)\n      dup1\n      swap2\n      sub\n      swap1\n      revert\n    tag_67:\n        /* \"OrgContract.sol\":1581:1596  documentsByUser */\n      0x02\n        /* \"OrgContract.sol\":1581:1602  documentsByUser[user] */\n      0x00\n        /* \"OrgContract.sol\":1597:1601  user */\n      dup5\n        /* \"OrgContract.sol\":1581:1602  documentsByUser[user] */\n      0xffffffffffffffffffffffffffffffffffffffff\n      and\n      0xffffffffffffffffffffffffffffffffffffffff\n      and\n      dup2\n      mstore\n      0x20\n      add\n      swap1\n      dup2\n      mstore\n      0x20\n      add\n      0x00\n      keccak256\n        /* \"OrgContract.sol\":1581:1609  documentsByUser[user].length */\n      dup1\n      sload\n      swap1\n      pop\n        /* \"OrgContract.sol\":1573:1578  index */\n      dup3\n        /* \"OrgContract.sol\":1573:1609  index < documentsByUser[user].length */\n      lt\n        /* \"OrgContract.sol\":1565:1627  require(index < documentsByUser[user].length, \"Invalid index\") */\n      tag_71\n      jumpi\n      mload(0x40)\n      0x08c379a000000000000000000000000000000000000000000000000000000000\n      dup2\n      mstore\n      0x04\n      add\n      tag_72\n      swap1\n      tag_73\n      jump\t// in\n    tag_72:\n      mload(0x40)\n      dup1\n      swap2\n      sub\n      swap1\n      revert\n    tag_71:\n        /* \"OrgContract.sol\":1675:1682  approve */\n      dup1\n        /* \"OrgContract.sol\":1675:1718  approve ? Status.Approved : Status.Rejected */\n      tag_74\n      jumpi\n        /* \"OrgContract.sol\":1703:1718  Status.Rejected */\n      0x02\n        /* \"OrgContract.sol\":1675:1718  approve ? Status.Approved : Status.Rejected */\n      jump(tag_75)\n    tag_74:\n        /* \"OrgContract.sol\":1685:1700  Status.Approved */\n      0x01\n        /* \"OrgContract.sol\":1675:1718  approve ? Status.Approved : Status.Rejected */\n    tag_75:\n        /* \"OrgContract.sol\":1637:1652  documentsByUser */\n      0x02\n        /* \"OrgContract.sol\":1637:1658  documentsByUser[user] */\n      0x00\n        /* \"OrgContract.sol\":1653:1657  user */\n      dup6\n        /* \"OrgContract.sol\":1637:1658  documentsByUser[user] */\n      0xffffffffffffffffffffffffffffffffffffffff\n      and\n      0xffffffffffffffffffffffffffffffffffffffff\n      and\n      dup2\n      mstore\n      0x20\n      add\n      swap1\n      dup2\n      mstore\n      0x20\n      add\n      0x00\n      keccak256\n        /* \"OrgContract.sol\":1659:1664  index */\n      dup4\n        /* \"OrgContract.sol\":1637:1665  documentsByUser[user][index] */\n      dup2\n      sload\n      dup2\n      lt\n      tag_76\n      jumpi\n      tag_77\n      tag_78\n      jump\t// in\n    tag_77:\n    tag_76:\n      swap1\n      0x00\n      mstore\n      keccak256(0x00, 0x20)\n      swap1\n      0x04\n      mul\n      add\n        /* \"OrgContract.sol\":1637:1672  documentsByUser[user][index].status */\n      0x02\n      add\n      0x14\n        /* \"OrgContract.sol\":1637:1718  documentsByUser[user][index].status = approve ? Status.Approved : Status.Rejected */\n      0x0100\n      exp\n      dup2\n      sload\n      dup2\n      0xff\n      mul\n      not\n      and\n      swap1\n      dup4\n      0x02\n      dup2\n      gt\n      iszero\n      tag_80\n      jumpi\n      tag_81\n      tag_82\n      jump\t// in\n    tag_81:\n    tag_80:\n      mul\n      or\n      swap1\n      sstore\n      pop\n        /* \"OrgContract.sol\":1750:1754  user */\n      dup3\n        /* \"OrgContract.sol\":1733:1799  DocumentVerified(user, index, documentsByUser[user][index].status) */\n      0xffffffffffffffffffffffffffffffffffffffff\n      and\n      0x1a89217130676043c8af061fa235971f4a763da41aeb98d04fa1043034d9e2e5\n        /* \"OrgContract.sol\":1756:1761  index */\n      dup4\n        /* \"OrgContract.sol\":1763:1778  documentsByUser */\n      0x02\n        /* \"OrgContract.sol\":1763:1784  documentsByUser[user] */\n      0x00\n        /* \"OrgContract.sol\":1779:1783  user */\n      dup8\n        /* \"OrgContract.sol\":1763:1784  documentsByUser[user] */\n      0xffffffffffffffffffffffffffffffffffffffff\n      and\n      0xffffffffffffffffffffffffffffffffffffffff\n      and\n      dup2\n      mstore\n      0x20\n      add\n      swap1\n      dup2\n      mstore\n      0x20\n      add\n      0x00\n      keccak256\n        /* \"OrgContract.sol\":1785:1790  index */\n      dup6\n        /* \"OrgContract.sol\":1763:1791  documentsByUser[user][index] */\n      dup2\n      sload\n      dup2\n      lt\n      tag_83\n      jumpi\n      tag_84\n      tag_78\n      jump\t// in\n    tag_84:\n    tag_83:\n      swap1\n      0x00\n      mstore\n      keccak256(0x00, 0x20)\n      swap1\n      0x04\n      mul\n      add\n        /* \"OrgContract.sol\":1763:1798  documentsByUser[user][index].status */\n      0x02\n      add\n      0x14\n      swap1\n      sload\n      swap1\n      0x0100\n      exp\n      swap1\n      div\n      0xff\n      and\n        /* \"OrgContract.sol\":1733:1799  DocumentVerified(user, index, documentsByUser[user][index].status) */\n      mload(0x40)\n      tag_86\n      swap3\n      swap2\n      swap1\n      tag_87\n      jump\t// in\n    tag_86:\n      mload(0x40)\n      dup1\n      swap2\n      sub\n      swap1\n      log2\n        /* \"OrgContract.sol\":1466:1806  function verifyDocument(address user, uint256 index, bool approve) external onlyOrgAdmin {... */\n      pop\n      pop\n      pop\n      jump\t// out\n        /* \"OrgContract.sol\":113:134  string public orgName */\n    tag_20:\n      0x01\n      dup1\n      sload\n      tag_88\n      swap1\n      tag_89\n      jump\t// in\n    tag_88:\n      dup1\n      0x1f\n      add\n      0x20\n      dup1\n      swap2\n      div\n      mul\n      0x20\n      add\n      mload(0x40)\n      swap1\n      dup2\n      add\n      0x40\n      mstore\n      dup1\n      swap3\n      swap2\n      swap1\n      dup2\n      dup2\n      mstore\n      0x20\n      add\n      dup3\n      dup1\n      sload\n      tag_90\n      swap1\n      tag_89\n      jump\t// in\n    tag_90:\n      dup1\n      iszero\n      tag_91\n      jumpi\n      dup1\n      0x1f\n      lt\n      tag_92\n      jumpi\n      0x0100\n      dup1\n      dup4\n      sload\n      div\n      mul\n      dup4\n      mstore\n      swap2\n      0x20\n      add\n      swap2\n      jump(tag_91)\n    tag_92:\n      dup3\n      add\n      swap2\n      swap1\n      0x00\n      mstore\n      keccak256(0x00, 0x20)\n      swap1\n    tag_93:\n      dup2\n      sload\n      dup2\n      mstore\n      swap1\n      0x01\n      add\n      swap1\n      0x20\n      add\n      dup1\n      dup4\n      gt\n      tag_93\n      jumpi\n      dup3\n      swap1\n      sub\n      0x1f\n      and\n      dup3\n      add\n      swap2\n    tag_91:\n      pop\n      pop\n      pop\n      pop\n      pop\n      dup2\n      jump\t// out\n        /* \"OrgContract.sol\":461:483  address[] public users */\n    tag_26:\n      0x03\n      dup2\n      dup2\n      sload\n      dup2\n      lt\n      tag_94\n      jumpi\n      0x00\n      dup1\n      revert\n    tag_94:\n      swap1\n      0x00\n      mstore\n      keccak256(0x00, 0x20)\n      add\n      0x00\n      swap2\n      pop\n      sload\n      swap1\n      0x0100\n      exp\n      swap1\n      div\n      0xffffffffffffffffffffffffffffffffffffffff\n      and\n      dup2\n      jump\t// out\n        /* \"OrgContract.sol\":954:1460  function uploadDocument(string memory _cid, string memory _docType) external {... */\n    tag_32:\n        /* \"OrgContract.sol\":1041:1056  documentsByUser */\n      0x02\n        /* \"OrgContract.sol\":1041:1068  documentsByUser[msg.sender] */\n      0x00\n        /* \"OrgContract.sol\":1057:1067  msg.sender */\n      caller\n        /* \"OrgContract.sol\":1041:1068  documentsByUser[msg.sender] */\n      0xffffffffffffffffffffffffffffffffffffffff\n      and\n      0xffffffffffffffffffffffffffffffffffffffff\n      and\n      dup2\n      mstore\n      0x20\n      add\n      swap1\n      dup2\n      mstore\n      0x20\n      add\n      0x00\n      keccak256\n        /* \"OrgContract.sol\":1074:1261  Document({... */\n      mload(0x40)\n      dup1\n      0xa0\n      add\n      0x40\n      mstore\n      dup1\n        /* \"OrgContract.sol\":1102:1106  _cid */\n      dup5\n        /* \"OrgContract.sol\":1074:1261  Document({... */\n      dup2\n      mstore\n      0x20\n      add\n        /* \"OrgContract.sol\":1129:1137  _docType */\n      dup4\n        /* \"OrgContract.sol\":1074:1261  Document({... */\n      dup2\n      mstore\n      0x20\n      add\n        /* \"OrgContract.sol\":1163:1173  msg.sender */\n      caller\n        /* \"OrgContract.sol\":1074:1261  Document({... */\n      0xffffffffffffffffffffffffffffffffffffffff\n      and\n      dup2\n      mstore\n      0x20\n      add\n        /* \"OrgContract.sol\":1195:1209  Status.Pending */\n      0x00\n        /* \"OrgContract.sol\":1074:1261  Document({... */\n      0x02\n      dup2\n      gt\n      iszero\n      tag_97\n      jumpi\n      tag_98\n      tag_82\n      jump\t// in\n    tag_98:\n    tag_97:\n      dup2\n      mstore\n      0x20\n      add\n        /* \"OrgContract.sol\":1235:1250  block.timestamp */\n      timestamp\n        /* \"OrgContract.sol\":1074:1261  Document({... */\n      dup2\n      mstore\n      pop\n        /* \"OrgContract.sol\":1041:1262  documentsByUser[msg.sender].push(Document({... */\n      swap1\n      dup1\n      0x01\n      dup2\n      sload\n      add\n      dup1\n      dup3\n      sstore\n      dup1\n      swap2\n      pop\n      pop\n      0x01\n      swap1\n      sub\n      swap1\n      0x00\n      mstore\n      keccak256(0x00, 0x20)\n      swap1\n      0x04\n      mul\n      add\n      0x00\n      swap1\n      swap2\n      swap1\n      swap2\n      swap1\n      swap2\n      pop\n      0x00\n      dup3\n      add\n      mload\n      dup2\n      0x00\n      add\n      swap1\n      dup2\n      tag_100\n      swap2\n      swap1\n      tag_101\n      jump\t// in\n    tag_100:\n      pop\n      0x20\n      dup3\n      add\n      mload\n      dup2\n      0x01\n      add\n      swap1\n      dup2\n      tag_102\n      swap2\n      swap1\n      tag_101\n      jump\t// in\n    tag_102:\n      pop\n      0x40\n      dup3\n      add\n      mload\n      dup2\n      0x02\n      add\n      exp(0x0100, 0x00)\n      dup2\n      sload\n      dup2\n      0xffffffffffffffffffffffffffffffffffffffff\n      mul\n      not\n      and\n      swap1\n      dup4\n      0xffffffffffffffffffffffffffffffffffffffff\n      and\n      mul\n      or\n      swap1\n      sstore\n      pop\n      0x60\n      dup3\n      add\n      mload\n      dup2\n      0x02\n      add\n      exp(0x0100, 0x14)\n      dup2\n      sload\n      dup2\n      0xff\n      mul\n      not\n      and\n      swap1\n      dup4\n      0x02\n      dup2\n      gt\n      iszero\n      tag_103\n      jumpi\n      tag_104\n      tag_82\n      jump\t// in\n    tag_104:\n    tag_103:\n      mul\n      or\n      swap1\n      sstore\n      pop\n      0x80\n      dup3\n      add\n      mload\n      dup2\n      0x03\n      add\n      sstore\n      pop\n      pop\n        /* \"OrgContract.sol\":1278:1289  isUserKnown */\n      0x04\n        /* \"OrgContract.sol\":1278:1301  isUserKnown[msg.sender] */\n      0x00\n        /* \"OrgContract.sol\":1290:1300  msg.sender */\n      caller\n        /* \"OrgContract.sol\":1278:1301  isUserKnown[msg.sender] */\n      0xffffffffffffffffffffffffffffffffffffffff\n      and\n      0xffffffffffffffffffffffffffffffffffffffff\n      and\n      dup2\n      mstore\n      0x20\n      add\n      swap1\n      dup2\n      mstore\n      0x20\n      add\n      0x00\n      keccak256\n      0x00\n      swap1\n      sload\n      swap1\n      0x0100\n      exp\n      swap1\n      div\n      0xff\n      and\n        /* \"OrgContract.sol\":1273:1394  if (!isUserKnown[msg.sender]) {... */\n      tag_105\n      jumpi\n        /* \"OrgContract.sol\":1317:1322  users */\n      0x03\n        /* \"OrgContract.sol\":1328:1338  msg.sender */\n      caller\n        /* \"OrgContract.sol\":1317:1339  users.push(msg.sender) */\n      swap1\n      dup1\n      0x01\n      dup2\n      sload\n      add\n      dup1\n      dup3\n      sstore\n      dup1\n      swap2\n      pop\n      pop\n      0x01\n      swap1\n      sub\n      swap1\n      0x00\n      mstore\n      keccak256(0x00, 0x20)\n      add\n      0x00\n      swap1\n      swap2\n      swap1\n      swap2\n      swap1\n      swap2\n      0x0100\n      exp\n      dup2\n      sload\n      dup2\n      0xffffffffffffffffffffffffffffffffffffffff\n      mul\n      not\n      and\n      swap1\n      dup4\n      0xffffffffffffffffffffffffffffffffffffffff\n      and\n      mul\n      or\n      swap1\n      sstore\n      pop\n        /* \"OrgContract.sol\":1379:1383  true */\n      0x01\n        /* \"OrgContract.sol\":1353:1364  isUserKnown */\n      0x04\n        /* \"OrgContract.sol\":1353:1376  isUserKnown[msg.sender] */\n      0x00\n        /* \"OrgContract.sol\":1365:1375  msg.sender */\n      caller\n        /* \"OrgContract.sol\":1353:1376  isUserKnown[msg.sender] */\n      0xffffffffffffffffffffffffffffffffffffffff\n      and\n      0xffffffffffffffffffffffffffffffffffffffff\n      and\n      dup2\n      mstore\n      0x20\n      add\n      swap1\n      dup2\n      mstore\n      0x20\n      add\n      0x00\n      keccak256\n      0x00\n        /* \"OrgContract.sol\":1353:1383  isUserKnown[msg.sender] = true */\n      0x0100\n      exp\n      dup2\n      sload\n      dup2\n      0xff\n      mul\n      not\n      and\n      swap1\n      dup4\n      iszero\n      iszero\n      mul\n      or\n      swap1\n      sstore\n      pop\n        /* \"OrgContract.sol\":1273:1394  if (!isUserKnown[msg.sender]) {... */\n    tag_105:\n        /* \"OrgContract.sol\":1426:1436  msg.sender */\n      caller\n        /* \"OrgContract.sol\":1409:1453  DocumentUploaded(msg.sender, _cid, _docType) */\n      0xffffffffffffffffffffffffffffffffffffffff\n      and\n      0x63630f357f7a0fe7466b2c369dab72c6b5e951f8e9c0de24fa8f4ee1d10c62d9\n        /* \"OrgContract.sol\":1438:1442  _cid */\n      dup4\n        /* \"OrgContract.sol\":1444:1452  _docType */\n      dup4\n        /* \"OrgContract.sol\":1409:1453  DocumentUploaded(msg.sender, _cid, _docType) */\n      mload(0x40)\n      tag_107\n      swap3\n      swap2\n      swap1\n      tag_108\n      jump\t// in\n    tag_107:\n      mload(0x40)\n      dup1\n      swap2\n      sub\n      swap1\n      log2\n        /* \"OrgContract.sol\":954:1460  function uploadDocument(string memory _cid, string memory _docType) external {... */\n      pop\n      pop\n      jump\t// out\n        /* \"OrgContract.sol\":84:107  address public orgAdmin */\n    tag_34:\n      0x00\n      0x00\n      swap1\n      sload\n      swap1\n      0x0100\n      exp\n      swap1\n      div\n      0xffffffffffffffffffffffffffffffffffffffff\n      and\n      dup2\n      jump\t// out\n        /* \"OrgContract.sol\":2032:2158  function getAllDocuments(address user) external view returns (Document[] memory) {... */\n    tag_39:\n        /* \"OrgContract.sol\":2094:2111  Document[] memory */\n      0x60\n        /* \"OrgContract.sol\":2130:2145  documentsByUser */\n      0x02\n        /* \"OrgContract.sol\":2130:2151  documentsByUser[user] */\n      0x00\n        /* \"OrgContract.sol\":2146:2150  user */\n      dup4\n        /* \"OrgContract.sol\":2130:2151  documentsByUser[user] */\n      0xffffffffffffffffffffffffffffffffffffffff\n      and\n      0xffffffffffffffffffffffffffffffffffffffff\n      and\n      dup2\n      mstore\n      0x20\n      add\n      swap1\n      dup2\n      mstore\n      0x20\n      add\n      0x00\n      keccak256\n        /* \"OrgContract.sol\":2123:2151  return documentsByUser[user] */\n      dup1\n      sload\n      dup1\n      0x20\n      mul\n      0x20\n      add\n      mload(0x40)\n      swap1\n      dup2\n      add\n      0x40\n      mstore\n      dup1\n      swap3\n      swap2\n      swap1\n      dup2\n      dup2\n      mstore\n      0x20\n      add\n      0x00\n      swap1\n    tag_110:\n      dup3\n      dup3\n      lt\n      iszero\n      tag_111\n      jumpi\n      dup4\n      dup3\n      swap1\n      0x00\n      mstore\n      keccak256(0x00, 0x20)\n      swap1\n      0x04\n      mul\n      add\n      mload(0x40)\n      dup1\n      0xa0\n      add\n      0x40\n      mstore\n      swap1\n      dup2\n      0x00\n      dup3\n      add\n      dup1\n      sload\n      tag_113\n      swap1\n      tag_89\n      jump\t// in\n    tag_113:\n      dup1\n      0x1f\n      add\n      0x20\n      dup1\n      swap2\n      div\n      mul\n      0x20\n      add\n      mload(0x40)\n      swap1\n      dup2\n      add\n      0x40\n      mstore\n      dup1\n      swap3\n      swap2\n      swap1\n      dup2\n      dup2\n      mstore\n      0x20\n      add\n      dup3\n      dup1\n      sload\n      tag_114\n      swap1\n      tag_89\n      jump\t// in\n    tag_114:\n      dup1\n      iszero\n      tag_115\n      jumpi\n      dup1\n      0x1f\n      lt\n      tag_116\n      jumpi\n      0x0100\n      dup1\n      dup4\n      sload\n      div\n      mul\n      dup4\n      mstore\n      swap2\n      0x20\n      add\n      swap2\n      jump(tag_115)\n    tag_116:\n      dup3\n      add\n      swap2\n      swap1\n      0x00\n      mstore\n      keccak256(0x00, 0x20)\n      swap1\n    tag_117:\n      dup2\n      sload\n      dup2\n      mstore\n      swap1\n      0x01\n      add\n      swap1\n      0x20\n      add\n      dup1\n      dup4\n      gt\n      tag_117\n      jumpi\n      dup3\n      swap1\n      sub\n      0x1f\n      and\n      dup3\n      add\n      swap2\n    tag_115:\n      pop\n      pop\n      pop\n      pop\n      pop\n      dup2\n      mstore\n      0x20\n      add\n      0x01\n      dup3\n      add\n      dup1\n      sload\n      tag_118\n      swap1\n      tag_89\n      jump\t// in\n    tag_118:\n      dup1\n      0x1f\n      add\n      0x20\n      dup1\n      swap2\n      div\n      mul\n      0x20\n      add\n      mload(0x40)\n      swap1\n      dup2\n      add\n      0x40\n      mstore\n      dup1\n      swap3\n      swap2\n      swap1\n      dup2\n      dup2\n      mstore\n      0x20\n      add\n      dup3\n      dup1\n      sload\n      tag_119\n      swap1\n      tag_89\n      jump\t// in\n    tag_119:\n      dup1\n      iszero\n      tag_120\n      jumpi\n      dup1\n      0x1f\n      lt\n      tag_121\n      jumpi\n      0x0100\n      dup1\n      dup4\n      sload\n      div\n      mul\n      dup4\n      mstore\n      swap2\n      0x20\n      add\n      swap2\n      jump(tag_120)\n    tag_121:\n      dup3\n      add\n      swap2\n      swap1\n      0x00\n      mstore\n      keccak256(0x00, 0x20)\n      swap1\n    tag_122:\n      dup2\n      sload\n      dup2\n      mstore\n      swap1\n      0x01\n      add\n      swap1\n      0x20\n      add\n      dup1\n      dup4\n      gt\n      tag_122\n      jumpi\n      dup3\n      swap1\n      sub\n      0x1f\n      and\n      dup3\n      add\n      swap2\n    tag_120:\n      pop\n      pop\n      pop\n      pop\n      pop\n      dup2\n      mstore\n      0x20\n      add\n      0x02\n      dup3\n      add\n      0x00\n      swap1\n      sload\n      swap1\n      0x0100\n      exp\n      swap1\n      div\n      0xffffffffffffffffffffffffffffffffffffffff\n      and\n      0xffffffffffffffffffffffffffffffffffffffff\n      and\n      0xffffffffffffffffffffffffffffffffffffffff\n      and\n      dup2\n      mstore\n      0x20\n      add\n      0x02\n      dup3\n      add\n      0x14\n      swap1\n      sload\n      swap1\n      0x0100\n      exp\n      swap1\n      div\n      0xff\n      and\n      0x02\n      dup2\n      gt\n      iszero\n      tag_123\n      jumpi\n      tag_124\n      tag_82\n      jump\t// in\n    tag_124:\n    tag_123:\n      0x02\n      dup2\n      gt\n      iszero\n      tag_125\n      jumpi\n      tag_126\n      tag_82\n      jump\t// in\n    tag_126:\n    tag_125:\n      dup2\n      mstore\n      0x20\n      add\n      0x03\n      dup3\n      add\n      sload\n      dup2\n      mstore\n      pop\n      pop\n      dup2\n      mstore\n      0x20\n      add\n      swap1\n      0x01\n      add\n      swap1\n      jump(tag_110)\n    tag_111:\n      pop\n      pop\n      pop\n      pop\n      swap1\n      pop\n        /* \"OrgContract.sol\":2032:2158  function getAllDocuments(address user) external view returns (Document[] memory) {... */\n      swap2\n      swap1\n      pop\n      jump\t// out\n        /* \"OrgContract.sol\":524:567  mapping(address => bool) public isUserKnown */\n    tag_44:\n      mstore(0x20, 0x04)\n      dup1\n      0x00\n      mstore\n      keccak256(0x00, 0x40)\n      0x00\n      swap2\n      pop\n      sload\n      swap1\n      0x0100\n      exp\n      swap1\n      div\n      0xff\n      and\n      dup2\n      jump\t// out\n        /* \"OrgContract.sol\":2263:2864  function getApprovedDocuments(address user) external view returns (Document[] memory) {... */\n    tag_49:\n        /* \"OrgContract.sol\":2330:2347  Document[] memory */\n      0x60\n        /* \"OrgContract.sol\":2359:2380  Document[] memory all */\n      0x00\n        /* \"OrgContract.sol\":2383:2398  documentsByUser */\n      0x02\n        /* \"OrgContract.sol\":2383:2404  documentsByUser[user] */\n      0x00\n        /* \"OrgContract.sol\":2399:2403  user */\n      dup5\n        /* \"OrgContract.sol\":2383:2404  documentsByUser[user] */\n      0xffffffffffffffffffffffffffffffffffffffff\n      and\n      0xffffffffffffffffffffffffffffffffffffffff\n      and\n      dup2\n      mstore\n      0x20\n      add\n      swap1\n      dup2\n      mstore\n      0x20\n      add\n      0x00\n      keccak256\n        /* \"OrgContract.sol\":2359:2404  Document[] memory all = documentsByUser[user] */\n      dup1\n      sload\n      dup1\n      0x20\n      mul\n      0x20\n      add\n      mload(0x40)\n      swap1\n      dup2\n      add\n      0x40\n      mstore\n      dup1\n      swap3\n      swap2\n      swap1\n      dup2\n      dup2\n      mstore\n      0x20\n      add\n      0x00\n      swap1\n    tag_128:\n      dup3\n      dup3\n      lt\n      iszero\n      tag_129\n      jumpi\n      dup4\n      dup3\n      swap1\n      0x00\n      mstore\n      keccak256(0x00, 0x20)\n      swap1\n      0x04\n      mul\n      add\n      mload(0x40)\n      dup1\n      0xa0\n      add\n      0x40\n      mstore\n      swap1\n      dup2\n      0x00\n      dup3\n      add\n      dup1\n      sload\n      tag_131\n      swap1\n      tag_89\n      jump\t// in\n    tag_131:\n      dup1\n      0x1f\n      add\n      0x20\n      dup1\n      swap2\n      div\n      mul\n      0x20\n      add\n      mload(0x40)\n      swap1\n      dup2\n      add\n      0x40\n      mstore\n      dup1\n      swap3\n      swap2\n      swap1\n      dup2\n      dup2\n      mstore\n      0x20\n      add\n      dup3\n      dup1\n      sload\n      tag_132\n      swap1\n      tag_89\n      jump\t// in\n    tag_132:\n      dup1\n      iszero\n      tag_133\n      jumpi\n      dup1\n      0x1f\n      lt\n      tag_134\n      jumpi\n      0x0100\n      dup1\n      dup4\n      sload\n      div\n      mul\n      dup4\n      mstore\n      swap2\n      0x20\n      add\n      swap2\n      jump(tag_133)\n    tag_134:\n      dup3\n      add\n      swap2\n      swap1\n      0x00\n      mstore\n      keccak256(0x00, 0x20)\n      swap1\n    tag_135:\n      dup2\n      sload\n      dup2\n      mstore\n      swap1\n      0x01\n      add\n      swap1\n      0x20\n      add\n      dup1\n      dup4\n      gt\n      tag_135\n      jumpi\n      dup3\n      swap1\n      sub\n      0x1f\n      and\n      dup3\n      add\n      swap2\n    tag_133:\n      pop\n      pop\n      pop\n      pop\n      pop\n      dup2\n      mstore\n      0x20\n      add\n      0x01\n      dup3\n      add\n      dup1\n      sload\n      tag_136\n      swap1\n      tag_89\n      jump\t// in\n    tag_136:\n      dup1\n      0x1f\n      add\n      0x20\n      dup1\n      swap2\n      div\n      mul\n      0x20\n      add\n      mload(0x40)\n      swap1\n      dup2\n      add\n      0x40\n      mstore\n      dup1\n      swap3\n      swap2\n      swap1\n      dup2\n      dup2\n      mstore\n      0x20\n      add\n      dup3\n      dup1\n      sload\n      tag_137\n      swap1\n      tag_89\n      jump\t// in\n    tag_137:\n      dup1\n      iszero\n      tag_138\n      jumpi\n      dup1\n      0x1f\n      lt\n      tag_139\n      jumpi\n      0x0100\n      dup1\n      dup4\n      sload\n      div\n      mul\n      dup4\n      mstore\n      swap2\n      0x20\n      add\n      swap2\n      jump(tag_138)\n    tag_139:\n      dup3\n      add\n      swap2\n      swap1\n      0x00\n      mstore\n      keccak256(0x00, 0x20)\n      swap1\n    tag_140:\n      dup2\n      sload\n      dup2\n      mstore\n      swap1\n      0x01\n      add\n      swap1\n      0x20\n      add\n      dup1\n      dup4\n      gt\n      tag_140\n      jumpi\n      dup3\n      swap1\n      sub\n      0x1f\n      and\n      dup3\n      add\n      swap2\n    tag_138:\n      pop\n      pop\n      pop\n      pop\n      pop\n      dup2\n      mstore\n      0x20\n      add\n      0x02\n      dup3\n      add\n      0x00\n      swap1\n      sload\n      swap1\n      0x0100\n      exp\n      swap1\n      div\n      0xffffffffffffffffffffffffffffffffffffffff\n      and\n      0xffffffffffffffffffffffffffffffffffffffff\n      and\n      0xffffffffffffffffffffffffffffffffffffffff\n      and\n      dup2\n      mstore\n      0x20\n      add\n      0x02\n      dup3\n      add\n      0x14\n      swap1\n      sload\n      swap1\n      0x0100\n      exp\n      swap1\n      div\n      0xff\n      and\n      0x02\n      dup2\n      gt\n      iszero\n      tag_141\n      jumpi\n      tag_142\n      tag_82\n      jump\t// in\n    tag_142:\n    tag_141:\n      0x02\n      dup2\n      gt\n      iszero\n      tag_143\n      jumpi\n      tag_144\n      tag_82\n      jump\t// in\n    tag_144:\n    tag_143:\n      dup2\n      mstore\n      0x20\n      add\n      0x03\n      dup3\n      add\n      sload\n      dup2\n      mstore\n      pop\n      pop\n      dup2\n      mstore\n      0x20\n      add\n      swap1\n      0x01\n      add\n      swap1\n      jump(tag_128)\n    tag_129:\n      pop\n      pop\n      pop\n      pop\n      swap1\n      pop\n        /* \"OrgContract.sol\":2414:2427  uint256 count */\n      0x00\n        /* \"OrgContract.sol\":2443:2452  uint256 i */\n      0x00\n        /* \"OrgContract.sol\":2455:2456  0 */\n      0x00\n        /* \"OrgContract.sol\":2443:2456  uint256 i = 0 */\n      swap1\n      pop\n        /* \"OrgContract.sol\":2438:2581  for (uint256 i = 0; i < all.length; i++) {... */\n    tag_145:\n        /* \"OrgContract.sol\":2462:2465  all */\n      dup3\n        /* \"OrgContract.sol\":2462:2472  all.length */\n      mload\n        /* \"OrgContract.sol\":2458:2459  i */\n      dup2\n        /* \"OrgContract.sol\":2458:2472  i < all.length */\n      lt\n        /* \"OrgContract.sol\":2438:2581  for (uint256 i = 0; i < all.length; i++) {... */\n      iszero\n      tag_146\n      jumpi\n        /* \"OrgContract.sol\":2514:2529  Status.Approved */\n      0x01\n        /* \"OrgContract.sol\":2497:2529  all[i].status == Status.Approved */\n      0x02\n      dup2\n      gt\n      iszero\n      tag_148\n      jumpi\n      tag_149\n      tag_82\n      jump\t// in\n    tag_149:\n    tag_148:\n        /* \"OrgContract.sol\":2497:2500  all */\n      dup4\n        /* \"OrgContract.sol\":2501:2502  i */\n      dup3\n        /* \"OrgContract.sol\":2497:2503  all[i] */\n      dup2\n      mload\n      dup2\n      lt\n      tag_150\n      jumpi\n      tag_151\n      tag_78\n      jump\t// in\n    tag_151:\n    tag_150:\n      0x20\n      mul\n      0x20\n      add\n      add\n      mload\n        /* \"OrgContract.sol\":2497:2510  all[i].status */\n      0x60\n      add\n      mload\n        /* \"OrgContract.sol\":2497:2529  all[i].status == Status.Approved */\n      0x02\n      dup2\n      gt\n      iszero\n      tag_152\n      jumpi\n      tag_153\n      tag_82\n      jump\t// in\n    tag_153:\n    tag_152:\n      sub\n        /* \"OrgContract.sol\":2493:2571  if (all[i].status == Status.Approved) {... */\n      tag_154\n      jumpi\n        /* \"OrgContract.sol\":2549:2556  count++ */\n      dup2\n      dup1\n      tag_155\n      swap1\n      tag_156\n      jump\t// in\n    tag_155:\n      swap3\n      pop\n      pop\n        /* \"OrgContract.sol\":2493:2571  if (all[i].status == Status.Approved) {... */\n    tag_154:\n        /* \"OrgContract.sol\":2474:2477  i++ */\n      dup1\n      dup1\n      0x01\n      add\n      swap2\n      pop\n      pop\n        /* \"OrgContract.sol\":2438:2581  for (uint256 i = 0; i < all.length; i++) {... */\n      jump(tag_145)\n    tag_146:\n      pop\n        /* \"OrgContract.sol\":2591:2617  Document[] memory approved */\n      0x00\n        /* \"OrgContract.sol\":2635:2640  count */\n      dup2\n        /* \"OrgContract.sol\":2620:2641  new Document[](count) */\n      0xffffffffffffffff\n      dup2\n      gt\n      iszero\n      tag_157\n      jumpi\n      tag_158\n      tag_159\n      jump\t// in\n    tag_158:\n    tag_157:\n      mload(0x40)\n      swap1\n      dup1\n      dup3\n      mstore\n      dup1\n      0x20\n      mul\n      0x20\n      add\n      dup3\n      add\n      0x40\n      mstore\n      dup1\n      iszero\n      tag_160\n      jumpi\n      dup2\n      0x20\n      add\n    tag_161:\n      tag_162\n      tag_163\n      jump\t// in\n    tag_162:\n      dup2\n      mstore\n      0x20\n      add\n      swap1\n      0x01\n      swap1\n      sub\n      swap1\n      dup2\n      tag_161\n      jumpi\n      swap1\n      pop\n    tag_160:\n      pop\n        /* \"OrgContract.sol\":2591:2641  Document[] memory approved = new Document[](count) */\n      swap1\n      pop\n        /* \"OrgContract.sol\":2651:2660  uint256 j */\n      0x00\n        /* \"OrgContract.sol\":2663:2664  0 */\n      0x00\n        /* \"OrgContract.sol\":2651:2664  uint256 j = 0 */\n      swap1\n      pop\n        /* \"OrgContract.sol\":2679:2688  uint256 i */\n      0x00\n        /* \"OrgContract.sol\":2691:2692  0 */\n      0x00\n        /* \"OrgContract.sol\":2679:2692  uint256 i = 0 */\n      swap1\n      pop\n        /* \"OrgContract.sol\":2674:2832  for (uint256 i = 0; i < all.length; i++) {... */\n    tag_164:\n        /* \"OrgContract.sol\":2698:2701  all */\n      dup5\n        /* \"OrgContract.sol\":2698:2708  all.length */\n      mload\n        /* \"OrgContract.sol\":2694:2695  i */\n      dup2\n        /* \"OrgContract.sol\":2694:2708  i < all.length */\n      lt\n        /* \"OrgContract.sol\":2674:2832  for (uint256 i = 0; i < all.length; i++) {... */\n      iszero\n      tag_165\n      jumpi\n        /* \"OrgContract.sol\":2750:2765  Status.Approved */\n      0x01\n        /* \"OrgContract.sol\":2733:2765  all[i].status == Status.Approved */\n      0x02\n      dup2\n      gt\n      iszero\n      tag_167\n      jumpi\n      tag_168\n      tag_82\n      jump\t// in\n    tag_168:\n    tag_167:\n        /* \"OrgContract.sol\":2733:2736  all */\n      dup6\n        /* \"OrgContract.sol\":2737:2738  i */\n      dup3\n        /* \"OrgContract.sol\":2733:2739  all[i] */\n      dup2\n      mload\n      dup2\n      lt\n      tag_169\n      jumpi\n      tag_170\n      tag_78\n      jump\t// in\n    tag_170:\n    tag_169:\n      0x20\n      mul\n      0x20\n      add\n      add\n      mload\n        /* \"OrgContract.sol\":2733:2746  all[i].status */\n      0x60\n      add\n      mload\n        /* \"OrgContract.sol\":2733:2765  all[i].status == Status.Approved */\n      0x02\n      dup2\n      gt\n      iszero\n      tag_171\n      jumpi\n      tag_172\n      tag_82\n      jump\t// in\n    tag_172:\n    tag_171:\n      sub\n        /* \"OrgContract.sol\":2729:2822  if (all[i].status == Status.Approved) {... */\n      tag_173\n      jumpi\n        /* \"OrgContract.sol\":2801:2804  all */\n      dup5\n        /* \"OrgContract.sol\":2805:2806  i */\n      dup2\n        /* \"OrgContract.sol\":2801:2807  all[i] */\n      dup2\n      mload\n      dup2\n      lt\n      tag_174\n      jumpi\n      tag_175\n      tag_78\n      jump\t// in\n    tag_175:\n    tag_174:\n      0x20\n      mul\n      0x20\n      add\n      add\n      mload\n        /* \"OrgContract.sol\":2785:2793  approved */\n      dup4\n        /* \"OrgContract.sol\":2794:2797  j++ */\n      dup4\n      dup1\n      tag_176\n      swap1\n      tag_156\n      jump\t// in\n    tag_176:\n      swap5\n      pop\n        /* \"OrgContract.sol\":2785:2798  approved[j++] */\n      dup2\n      mload\n      dup2\n      lt\n      tag_177\n      jumpi\n      tag_178\n      tag_78\n      jump\t// in\n    tag_178:\n    tag_177:\n      0x20\n      mul\n      0x20\n      add\n      add\n        /* \"OrgContract.sol\":2785:2807  approved[j++] = all[i] */\n      dup2\n      swap1\n      mstore\n      pop\n        /* \"OrgContract.sol\":2729:2822  if (all[i].status == Status.Approved) {... */\n    tag_173:\n        /* \"OrgContract.sol\":2710:2713  i++ */\n      dup1\n      dup1\n      0x01\n      add\n      swap2\n      pop\n      pop\n        /* \"OrgContract.sol\":2674:2832  for (uint256 i = 0; i < all.length; i++) {... */\n      jump(tag_164)\n    tag_165:\n      pop\n        /* \"OrgContract.sol\":2849:2857  approved */\n      dup2\n        /* \"OrgContract.sol\":2842:2857  return approved */\n      swap5\n      pop\n      pop\n      pop\n      pop\n      pop\n        /* \"OrgContract.sol\":2263:2864  function getApprovedDocuments(address user) external view returns (Document[] memory) {... */\n      swap2\n      swap1\n      pop\n      jump\t// out\n        /* \"OrgContract.sol\":1812:2026  function getDocument(address user, uint256 index) external view returns (Document memory) {... */\n    tag_54:\n        /* \"OrgContract.sol\":1885:1900  Document memory */\n      tag_179\n      tag_163\n      jump\t// in\n    tag_179:\n        /* \"OrgContract.sol\":1928:1943  documentsByUser */\n      0x02\n        /* \"OrgContract.sol\":1928:1949  documentsByUser[user] */\n      0x00\n        /* \"OrgContract.sol\":1944:1948  user */\n      dup5\n        /* \"OrgContract.sol\":1928:1949  documentsByUser[user] */\n      0xffffffffffffffffffffffffffffffffffffffff\n      and\n      0xffffffffffffffffffffffffffffffffffffffff\n      and\n      dup2\n      mstore\n      0x20\n      add\n      swap1\n      dup2\n      mstore\n      0x20\n      add\n      0x00\n      keccak256\n        /* \"OrgContract.sol\":1928:1956  documentsByUser[user].length */\n      dup1\n      sload\n      swap1\n      pop\n        /* \"OrgContract.sol\":1920:1925  index */\n      dup3\n        /* \"OrgContract.sol\":1920:1956  index < documentsByUser[user].length */\n      lt\n        /* \"OrgContract.sol\":1912:1974  require(index < documentsByUser[user].length, \"Invalid index\") */\n      tag_181\n      jumpi\n      mload(0x40)\n      0x08c379a000000000000000000000000000000000000000000000000000000000\n      dup2\n      mstore\n      0x04\n      add\n      tag_182\n      swap1\n      tag_73\n      jump\t// in\n    tag_182:\n      mload(0x40)\n      dup1\n      swap2\n      sub\n      swap1\n      revert\n    tag_181:\n        /* \"OrgContract.sol\":1991:2006  documentsByUser */\n      0x02\n        /* \"OrgContract.sol\":1991:2012  documentsByUser[user] */\n      0x00\n        /* \"OrgContract.sol\":2007:2011  user */\n      dup5\n        /* \"OrgContract.sol\":1991:2012  documentsByUser[user] */\n      0xffffffffffffffffffffffffffffffffffffffff\n      and\n      0xffffffffffffffffffffffffffffffffffffffff\n      and\n      dup2\n      mstore\n      0x20\n      add\n      swap1\n      dup2\n      mstore\n      0x20\n      add\n      0x00\n      keccak256\n        /* \"OrgContract.sol\":2013:2018  index */\n      dup3\n        /* \"OrgContract.sol\":1991:2019  documentsByUser[user][index] */\n      dup2\n      sload\n      dup2\n      lt\n      tag_183\n      jumpi\n      tag_184\n      tag_78\n      jump\t// in\n    tag_184:\n    tag_183:\n      swap1\n      0x00\n      mstore\n      keccak256(0x00, 0x20)\n      swap1\n      0x04\n      mul\n      add\n        /* \"OrgContract.sol\":1984:2019  return documentsByUser[user][index] */\n      mload(0x40)\n      dup1\n      0xa0\n      add\n      0x40\n      mstore\n      swap1\n      dup2\n      0x00\n      dup3\n      add\n      dup1\n      sload\n      tag_186\n      swap1\n      tag_89\n      jump\t// in\n    tag_186:\n      dup1\n      0x1f\n      add\n      0x20\n      dup1\n      swap2\n      div\n      mul\n      0x20\n      add\n      mload(0x40)\n      swap1\n      dup2\n      add\n      0x40\n      mstore\n      dup1\n      swap3\n      swap2\n      swap1\n      dup2\n      dup2\n      mstore\n      0x20\n      add\n      dup3\n      dup1\n      sload\n      tag_187\n      swap1\n      tag_89\n      jump\t// in\n    tag_187:\n      dup1\n      iszero\n      tag_188\n      jumpi\n      dup1\n      0x1f\n      lt\n      tag_189\n      jumpi\n      0x0100\n      dup1\n      dup4\n      sload\n      div\n      mul\n      dup4\n      mstore\n      swap2\n      0x20\n      add\n      swap2\n      jump(tag_188)\n    tag_189:\n      dup3\n      add\n      swap2\n      swap1\n      0x00\n      mstore\n      keccak256(0x00, 0x20)\n      swap1\n    tag_190:\n      dup2\n      sload\n      dup2\n      mstore\n      swap1\n      0x01\n      add\n      swap1\n      0x20\n      add\n      dup1\n      dup4\n      gt\n      tag_190\n      jumpi\n      dup3\n      swap1\n      sub\n      0x1f\n      and\n      dup3\n      add\n      swap2\n    tag_188:\n      pop\n      pop\n      pop\n      pop\n      pop\n      dup2\n      mstore\n      0x20\n      add\n      0x01\n      dup3\n      add\n      dup1\n      sload\n      tag_191\n      swap1\n      tag_89\n      jump\t// in\n    tag_191:\n      dup1\n      0x1f\n      add\n      0x20\n      dup1\n      swap2\n      div\n      mul\n      0x20\n      add\n      mload(0x40)\n      swap1\n      dup2\n      add\n      0x40\n      mstore\n      dup1\n      swap3\n      swap2\n      swap1\n      dup2\n      dup2\n      mstore\n      0x20\n      add\n      dup3\n      dup1\n      sload\n      tag_192\n      swap1\n      tag_89\n      jump\t// in\n    tag_192:\n      dup1\n      iszero\n      tag_193\n      jumpi\n      dup1\n      0x1f\n      lt\n      tag_194\n      jumpi\n      0x0100\n      dup1\n      dup4\n      sload\n      div\n      mul\n      dup4\n      mstore\n      swap2\n      0x20\n      add\n      swap2\n      jump(tag_193)\n    tag_194:\n      dup3\n      add\n      swap2\n      swap1\n      0x00\n      mstore\n      keccak256(0x00, 0x20)\n      swap1\n    tag_195:\n      dup2\n      sload\n      dup2\n      mstore\n      swap1\n      0x01\n      add\n      swap1\n      0x20\n      add\n      dup1\n      dup4\n      gt\n      tag_195\n      jumpi\n      dup3\n      swap1\n      sub\n      0x1f\n      and\n      dup3\n      add\n      swap2\n    tag_193:\n      pop\n      pop\n      pop\n      pop\n      pop\n      dup2\n      mstore\n      0x20\n      add\n      0x02\n      dup3\n      add\n      0x00\n      swap1\n      sload\n      swap1\n      0x0100\n      exp\n      swap1\n      div\n      0xffffffffffffffffffffffffffffffffffffffff\n      and\n      0xffffffffffffffffffffffffffffffffffffffff\n      and\n      0xffffffffffffffffffffffffffffffffffffffff\n      and\n      dup2\n      mstore\n      0x20\n      add\n      0x02\n      dup3\n      add\n      0x14\n      swap1\n      sload\n      swap1\n      0x0100\n      exp\n      swap1\n      div\n      0xff\n      and\n      0x02\n      dup2\n      gt\n      iszero\n      tag_196\n      jumpi\n      tag_197\n      tag_82\n      jump\t// in\n    tag_197:\n    tag_196:\n      0x02\n      dup2\n      gt\n      iszero\n      tag_198\n      jumpi\n      tag_199\n      tag_82\n      jump\t// in\n    tag_199:\n    tag_198:\n      dup2\n      mstore\n      0x20\n      add\n      0x03\n      dup3\n      add\n      sload\n      dup2\n      mstore\n      pop\n      pop\n      swap1\n      pop\n        /* \"OrgContract.sol\":1812:2026  function getDocument(address user, uint256 index) external view returns (Document memory) {... */\n      swap3\n      swap2\n      pop\n      pop\n      jump\t// out\n        /* \"OrgContract.sol\":373:426  mapping(address => Document[]) public documentsByUser */\n    tag_59:\n      mstore(0x20, 0x02)\n      dup2\n      0x00\n      mstore\n      keccak256(0x00, 0x40)\n      dup2\n      dup2\n      sload\n      dup2\n      lt\n      tag_200\n      jumpi\n      0x00\n      dup1\n      revert\n    tag_200:\n      swap1\n      0x00\n      mstore\n      keccak256(0x00, 0x20)\n      swap1\n      0x04\n      mul\n      add\n      0x00\n      swap2\n      pop\n      swap2\n      pop\n      pop\n      dup1\n      0x00\n      add\n      dup1\n      sload\n      tag_202\n      swap1\n      tag_89\n      jump\t// in\n    tag_202:\n      dup1\n      0x1f\n      add\n      0x20\n      dup1\n      swap2\n      div\n      mul\n      0x20\n      add\n      mload(0x40)\n      swap1\n      dup2\n      add\n      0x40\n      mstore\n      dup1\n      swap3\n      swap2\n      swap1\n      dup2\n      dup2\n      mstore\n      0x20\n      add\n      dup3\n      dup1\n      sload\n      tag_203\n      swap1\n      tag_89\n      jump\t// in\n    tag_203:\n      dup1\n      iszero\n      tag_204\n      jumpi\n      dup1\n      0x1f\n      lt\n      tag_205\n      jumpi\n      0x0100\n      dup1\n      dup4\n      sload\n      div\n      mul\n      dup4\n      mstore\n      swap2\n      0x20\n      add\n      swap2\n      jump(tag_204)\n    tag_205:\n      dup3\n      add\n      swap2\n      swap1\n      0x00\n      mstore\n      keccak256(0x00, 0x20)\n      swap1\n    tag_206:\n      dup2\n      sload\n      dup2\n      mstore\n      swap1\n      0x01\n      add\n      swap1\n      0x20\n      add\n      dup1\n      dup4\n      gt\n      tag_206\n      jumpi\n      dup3\n      swap1\n      sub\n      0x1f\n      and\n      dup3\n      add\n      swap2\n    tag_204:\n      pop\n      pop\n      pop\n      pop\n      pop\n      swap1\n      dup1\n      0x01\n      add\n      dup1\n      sload\n      tag_207\n      swap1\n      tag_89\n      jump\t// in\n    tag_207:\n      dup1\n      0x1f\n      add\n      0x20\n      dup1\n      swap2\n      div\n      mul\n      0x20\n      add\n      mload(0x40)\n      swap1\n      dup2\n      add\n      0x40\n      mstore\n      dup1\n      swap3\n      swap2\n      swap1\n      dup2\n      dup2\n      mstore\n      0x20\n      add\n      dup3\n      dup1\n      sload\n      tag_208\n      swap1\n      tag_89\n      jump\t// in\n    tag_208:\n      dup1\n      iszero\n      tag_209\n      jumpi\n      dup1\n      0x1f\n      lt\n      tag_210\n      jumpi\n      0x0100\n      dup1\n      dup4\n      sload\n      div\n      mul\n      dup4\n      mstore\n      swap2\n      0x20\n      add\n      swap2\n      jump(tag_209)\n    tag_210:\n      dup3\n      add\n      swap2\n      swap1\n      0x00\n      mstore\n      keccak256(0x00, 0x20)\n      swap1\n    tag_211:\n      dup2\n      sload\n      dup2\n      mstore\n      swap1\n      0x01\n      add\n      swap1\n      0x20\n      add\n      dup1\n      dup4\n      gt\n      tag_211\n      jumpi\n      dup3\n      swap1\n      sub\n      0x1f\n      and\n      dup3\n      add\n      swap2\n    tag_209:\n      pop\n      pop\n      pop\n      pop\n      pop\n      swap1\n      dup1\n      0x02\n      add\n      0x00\n      swap1\n      sload\n      swap1\n      0x0100\n      exp\n      swap1\n      div\n      0xffffffffffffffffffffffffffffffffffffffff\n      and\n      swap1\n      dup1\n      0x02\n      add\n      0x14\n      swap1\n      sload\n      swap1\n      0x0100\n      exp\n      swap1\n      div\n      0xff\n      and\n      swap1\n      dup1\n      0x03\n      add\n      sload\n      swap1\n      pop\n      dup6\n      jump\t// out\n        /* \"OrgContract.sol\":2164:2257  function getAllUsers() external view returns (address[] memory) {... */\n    tag_63:\n        /* \"OrgContract.sol\":2210:2226  address[] memory */\n      0x60\n        /* \"OrgContract.sol\":2245:2250  users */\n      0x03\n        /* \"OrgContract.sol\":2238:2250  return users */\n      dup1\n      sload\n      dup1\n      0x20\n      mul\n      0x20\n      add\n      mload(0x40)\n      swap1\n      dup2\n      add\n      0x40\n      mstore\n      dup1\n      swap3\n      swap2\n      swap1\n      dup2\n      dup2\n      mstore\n      0x20\n      add\n      dup3\n      dup1\n      sload\n      dup1\n      iszero\n      tag_213\n      jumpi\n      0x20\n      mul\n      dup3\n      add\n      swap2\n      swap1\n      0x00\n      mstore\n      keccak256(0x00, 0x20)\n      swap1\n    tag_214:\n      dup2\n      0x00\n      swap1\n      sload\n      swap1\n      0x0100\n      exp\n      swap1\n      div\n      0xffffffffffffffffffffffffffffffffffffffff\n      and\n      0xffffffffffffffffffffffffffffffffffffffff\n      and\n      dup2\n      mstore\n      0x20\n      add\n      swap1\n      0x01\n      add\n      swap1\n      dup1\n      dup4\n      gt\n      tag_214\n      jumpi\n    tag_213:\n      pop\n      pop\n      pop\n      pop\n      pop\n      swap1\n      pop\n        /* \"OrgContract.sol\":2164:2257  function getAllUsers() external view returns (address[] memory) {... */\n      swap1\n      jump\t// out\n    tag_163:\n      mload(0x40)\n      dup1\n      0xa0\n      add\n      0x40\n      mstore\n      dup1\n      0x60\n      dup2\n      mstore\n      0x20\n      add\n      0x60\n      dup2\n      mstore\n      0x20\n      add\n      and(0xffffffffffffffffffffffffffffffffffffffff, 0x00)\n      dup2\n      mstore\n      0x20\n      add\n      0x00\n      0x02\n      dup2\n      gt\n      iszero\n      tag_215\n      jumpi\n      tag_216\n      tag_82\n      jump\t// in\n    tag_216:\n    tag_215:\n      dup2\n      mstore\n      0x20\n      add\n      0x00\n      dup2\n      mstore\n      pop\n      swap1\n      jump\t// out\n        /* \"#utility.yul\":7:82   */\n    tag_217:\n        /* \"#utility.yul\":40:46   */\n      0x00\n        /* \"#utility.yul\":73:75   */\n      0x40\n        /* \"#utility.yul\":67:76   */\n      mload\n        /* \"#utility.yul\":57:76   */\n      swap1\n      pop\n        /* \"#utility.yul\":7:82   */\n      swap1\n      jump\t// out\n        /* \"#utility.yul\":88:205   */\n    tag_218:\n        /* \"#utility.yul\":197:198   */\n      0x00\n        /* \"#utility.yul\":194:195   */\n      0x00\n        /* \"#utility.yul\":187:199   */\n      revert\n        /* \"#utility.yul\":211:328   */\n    tag_219:\n        /* \"#utility.yul\":320:321   */\n      0x00\n        /* \"#utility.yul\":317:318   */\n      0x00\n        /* \"#utility.yul\":310:322   */\n      revert\n        /* \"#utility.yul\":334:460   */\n    tag_220:\n        /* \"#utility.yul\":371:378   */\n      0x00\n        /* \"#utility.yul\":411:453   */\n      0xffffffffffffffffffffffffffffffffffffffff\n        /* \"#utility.yul\":404:409   */\n      dup3\n        /* \"#utility.yul\":400:454   */\n      and\n        /* \"#utility.yul\":389:454   */\n      swap1\n      pop\n        /* \"#utility.yul\":334:460   */\n      swap2\n      swap1\n      pop\n      jump\t// out\n        /* \"#utility.yul\":466:562   */\n    tag_221:\n        /* \"#utility.yul\":503:510   */\n      0x00\n        /* \"#utility.yul\":532:556   */\n      tag_296\n        /* \"#utility.yul\":550:555   */\n      dup3\n        /* \"#utility.yul\":532:556   */\n      tag_220\n      jump\t// in\n    tag_296:\n        /* \"#utility.yul\":521:556   */\n      swap1\n      pop\n        /* \"#utility.yul\":466:562   */\n      swap2\n      swap1\n      pop\n      jump\t// out\n        /* \"#utility.yul\":568:690   */\n    tag_222:\n        /* \"#utility.yul\":641:665   */\n      tag_298\n        /* \"#utility.yul\":659:664   */\n      dup2\n        /* \"#utility.yul\":641:665   */\n      tag_221\n      jump\t// in\n    tag_298:\n        /* \"#utility.yul\":634:639   */\n      dup2\n        /* \"#utility.yul\":631:666   */\n      eq\n        /* \"#utility.yul\":621:684   */\n      tag_299\n      jumpi\n        /* \"#utility.yul\":680:681   */\n      0x00\n        /* \"#utility.yul\":677:678   */\n      0x00\n        /* \"#utility.yul\":670:682   */\n      revert\n        /* \"#utility.yul\":621:684   */\n    tag_299:\n        /* \"#utility.yul\":568:690   */\n      pop\n      jump\t// out\n        /* \"#utility.yul\":696:835   */\n    tag_223:\n        /* \"#utility.yul\":742:747   */\n      0x00\n        /* \"#utility.yul\":780:786   */\n      dup2\n        /* \"#utility.yul\":767:787   */\n      calldataload\n        /* \"#utility.yul\":758:787   */\n      swap1\n      pop\n        /* \"#utility.yul\":796:829   */\n      tag_301\n        /* \"#utility.yul\":823:828   */\n      dup2\n        /* \"#utility.yul\":796:829   */\n      tag_222\n      jump\t// in\n    tag_301:\n        /* \"#utility.yul\":696:835   */\n      swap3\n      swap2\n      pop\n      pop\n      jump\t// out\n        /* \"#utility.yul\":841:918   */\n    tag_224:\n        /* \"#utility.yul\":878:885   */\n      0x00\n        /* \"#utility.yul\":907:912   */\n      dup2\n        /* \"#utility.yul\":896:912   */\n      swap1\n      pop\n        /* \"#utility.yul\":841:918   */\n      swap2\n      swap1\n      pop\n      jump\t// out\n        /* \"#utility.yul\":924:1046   */\n    tag_225:\n        /* \"#utility.yul\":997:1021   */\n      tag_304\n        /* \"#utility.yul\":1015:1020   */\n      dup2\n        /* \"#utility.yul\":997:1021   */\n      tag_224\n      jump\t// in\n    tag_304:\n        /* \"#utility.yul\":990:995   */\n      dup2\n        /* \"#utility.yul\":987:1022   */\n      eq\n        /* \"#utility.yul\":977:1040   */\n      tag_305\n      jumpi\n        /* \"#utility.yul\":1036:1037   */\n      0x00\n        /* \"#utility.yul\":1033:1034   */\n      0x00\n        /* \"#utility.yul\":1026:1038   */\n      revert\n        /* \"#utility.yul\":977:1040   */\n    tag_305:\n        /* \"#utility.yul\":924:1046   */\n      pop\n      jump\t// out\n        /* \"#utility.yul\":1052:1191   */\n    tag_226:\n        /* \"#utility.yul\":1098:1103   */\n      0x00\n        /* \"#utility.yul\":1136:1142   */\n      dup2\n        /* \"#utility.yul\":1123:1143   */\n      calldataload\n        /* \"#utility.yul\":1114:1143   */\n      swap1\n      pop\n        /* \"#utility.yul\":1152:1185   */\n      tag_307\n        /* \"#utility.yul\":1179:1184   */\n      dup2\n        /* \"#utility.yul\":1152:1185   */\n      tag_225\n      jump\t// in\n    tag_307:\n        /* \"#utility.yul\":1052:1191   */\n      swap3\n      swap2\n      pop\n      pop\n      jump\t// out\n        /* \"#utility.yul\":1197:1287   */\n    tag_227:\n        /* \"#utility.yul\":1231:1238   */\n      0x00\n        /* \"#utility.yul\":1274:1279   */\n      dup2\n        /* \"#utility.yul\":1267:1280   */\n      iszero\n        /* \"#utility.yul\":1260:1281   */\n      iszero\n        /* \"#utility.yul\":1249:1281   */\n      swap1\n      pop\n        /* \"#utility.yul\":1197:1287   */\n      swap2\n      swap1\n      pop\n      jump\t// out\n        /* \"#utility.yul\":1293:1409   */\n    tag_228:\n        /* \"#utility.yul\":1363:1384   */\n      tag_310\n        /* \"#utility.yul\":1378:1383   */\n      dup2\n        /* \"#utility.yul\":1363:1384   */\n      tag_227\n      jump\t// in\n    tag_310:\n        /* \"#utility.yul\":1356:1361   */\n      dup2\n        /* \"#utility.yul\":1353:1385   */\n      eq\n        /* \"#utility.yul\":1343:1403   */\n      tag_311\n      jumpi\n        /* \"#utility.yul\":1399:1400   */\n      0x00\n        /* \"#utility.yul\":1396:1397   */\n      0x00\n        /* \"#utility.yul\":1389:1401   */\n      revert\n        /* \"#utility.yul\":1343:1403   */\n    tag_311:\n        /* \"#utility.yul\":1293:1409   */\n      pop\n      jump\t// out\n        /* \"#utility.yul\":1415:1548   */\n    tag_229:\n        /* \"#utility.yul\":1458:1463   */\n      0x00\n        /* \"#utility.yul\":1496:1502   */\n      dup2\n        /* \"#utility.yul\":1483:1503   */\n      calldataload\n        /* \"#utility.yul\":1474:1503   */\n      swap1\n      pop\n        /* \"#utility.yul\":1512:1542   */\n      tag_313\n        /* \"#utility.yul\":1536:1541   */\n      dup2\n        /* \"#utility.yul\":1512:1542   */\n      tag_228\n      jump\t// in\n    tag_313:\n        /* \"#utility.yul\":1415:1548   */\n      swap3\n      swap2\n      pop\n      pop\n      jump\t// out\n        /* \"#utility.yul\":1554:2167   */\n    tag_17:\n        /* \"#utility.yul\":1628:1634   */\n      0x00\n        /* \"#utility.yul\":1636:1642   */\n      0x00\n        /* \"#utility.yul\":1644:1650   */\n      0x00\n        /* \"#utility.yul\":1693:1695   */\n      0x60\n        /* \"#utility.yul\":1681:1690   */\n      dup5\n        /* \"#utility.yul\":1672:1679   */\n      dup7\n        /* \"#utility.yul\":1668:1691   */\n      sub\n        /* \"#utility.yul\":1664:1696   */\n      slt\n        /* \"#utility.yul\":1661:1780   */\n      iszero\n      tag_315\n      jumpi\n        /* \"#utility.yul\":1699:1778   */\n      tag_316\n      tag_218\n      jump\t// in\n    tag_316:\n        /* \"#utility.yul\":1661:1780   */\n    tag_315:\n        /* \"#utility.yul\":1819:1820   */\n      0x00\n        /* \"#utility.yul\":1844:1897   */\n      tag_317\n        /* \"#utility.yul\":1889:1896   */\n      dup7\n        /* \"#utility.yul\":1880:1886   */\n      dup3\n        /* \"#utility.yul\":1869:1878   */\n      dup8\n        /* \"#utility.yul\":1865:1887   */\n      add\n        /* \"#utility.yul\":1844:1897   */\n      tag_223\n      jump\t// in\n    tag_317:\n        /* \"#utility.yul\":1834:1897   */\n      swap4\n      pop\n        /* \"#utility.yul\":1790:1907   */\n      pop\n        /* \"#utility.yul\":1946:1948   */\n      0x20\n        /* \"#utility.yul\":1972:2025   */\n      tag_318\n        /* \"#utility.yul\":2017:2024   */\n      dup7\n        /* \"#utility.yul\":2008:2014   */\n      dup3\n        /* \"#utility.yul\":1997:2006   */\n      dup8\n        /* \"#utility.yul\":1993:2015   */\n      add\n        /* \"#utility.yul\":1972:2025   */\n      tag_226\n      jump\t// in\n    tag_318:\n        /* \"#utility.yul\":1962:2025   */\n      swap3\n      pop\n        /* \"#utility.yul\":1917:2035   */\n      pop\n        /* \"#utility.yul\":2074:2076   */\n      0x40\n        /* \"#utility.yul\":2100:2150   */\n      tag_319\n        /* \"#utility.yul\":2142:2149   */\n      dup7\n        /* \"#utility.yul\":2133:2139   */\n      dup3\n        /* \"#utility.yul\":2122:2131   */\n      dup8\n        /* \"#utility.yul\":2118:2140   */\n      add\n        /* \"#utility.yul\":2100:2150   */\n      tag_229\n      jump\t// in\n    tag_319:\n        /* \"#utility.yul\":2090:2150   */\n      swap2\n      pop\n        /* \"#utility.yul\":2045:2160   */\n      pop\n        /* \"#utility.yul\":1554:2167   */\n      swap3\n      pop\n      swap3\n      pop\n      swap3\n      jump\t// out\n        /* \"#utility.yul\":2173:2272   */\n    tag_230:\n        /* \"#utility.yul\":2225:2231   */\n      0x00\n        /* \"#utility.yul\":2259:2264   */\n      dup2\n        /* \"#utility.yul\":2253:2265   */\n      mload\n        /* \"#utility.yul\":2243:2265   */\n      swap1\n      pop\n        /* \"#utility.yul\":2173:2272   */\n      swap2\n      swap1\n      pop\n      jump\t// out\n        /* \"#utility.yul\":2278:2447   */\n    tag_231:\n        /* \"#utility.yul\":2362:2373   */\n      0x00\n        /* \"#utility.yul\":2396:2402   */\n      dup3\n        /* \"#utility.yul\":2391:2394   */\n      dup3\n        /* \"#utility.yul\":2384:2403   */\n      mstore\n        /* \"#utility.yul\":2436:2440   */\n      0x20\n        /* \"#utility.yul\":2431:2434   */\n      dup3\n        /* \"#utility.yul\":2427:2441   */\n      add\n        /* \"#utility.yul\":2412:2441   */\n      swap1\n      pop\n        /* \"#utility.yul\":2278:2447   */\n      swap3\n      swap2\n      pop\n      pop\n      jump\t// out\n        /* \"#utility.yul\":2453:2592   */\n    tag_232:\n        /* \"#utility.yul\":2542:2548   */\n      dup3\n        /* \"#utility.yul\":2537:2540   */\n      dup2\n        /* \"#utility.yul\":2532:2535   */\n      dup4\n        /* \"#utility.yul\":2526:2549   */\n      mcopy\n        /* \"#utility.yul\":2583:2584   */\n      0x00\n        /* \"#utility.yul\":2574:2580   */\n      dup4\n        /* \"#utility.yul\":2569:2572   */\n      dup4\n        /* \"#utility.yul\":2565:2581   */\n      add\n        /* \"#utility.yul\":2558:2585   */\n      mstore\n        /* \"#utility.yul\":2453:2592   */\n      pop\n      pop\n      pop\n      jump\t// out\n        /* \"#utility.yul\":2598:2700   */\n    tag_233:\n        /* \"#utility.yul\":2639:2645   */\n      0x00\n        /* \"#utility.yul\":2690:2692   */\n      0x1f\n        /* \"#utility.yul\":2686:2693   */\n      not\n        /* \"#utility.yul\":2681:2683   */\n      0x1f\n        /* \"#utility.yul\":2674:2679   */\n      dup4\n        /* \"#utility.yul\":2670:2684   */\n      add\n        /* \"#utility.yul\":2666:2694   */\n      and\n        /* \"#utility.yul\":2656:2694   */\n      swap1\n      pop\n        /* \"#utility.yul\":2598:2700   */\n      swap2\n      swap1\n      pop\n      jump\t// out\n        /* \"#utility.yul\":2706:3083   */\n    tag_234:\n        /* \"#utility.yul\":2794:2797   */\n      0x00\n        /* \"#utility.yul\":2822:2861   */\n      tag_325\n        /* \"#utility.yul\":2855:2860   */\n      dup3\n        /* \"#utility.yul\":2822:2861   */\n      tag_230\n      jump\t// in\n    tag_325:\n        /* \"#utility.yul\":2877:2948   */\n      tag_326\n        /* \"#utility.yul\":2941:2947   */\n      dup2\n        /* \"#utility.yul\":2936:2939   */\n      dup6\n        /* \"#utility.yul\":2877:2948   */\n      tag_231\n      jump\t// in\n    tag_326:\n        /* \"#utility.yul\":2870:2948   */\n      swap4\n      pop\n        /* \"#utility.yul\":2957:3022   */\n      tag_327\n        /* \"#utility.yul\":3015:3021   */\n      dup2\n        /* \"#utility.yul\":3010:3013   */\n      dup6\n        /* \"#utility.yul\":3003:3007   */\n      0x20\n        /* \"#utility.yul\":2996:3001   */\n      dup7\n        /* \"#utility.yul\":2992:3008   */\n      add\n        /* \"#utility.yul\":2957:3022   */\n      tag_232\n      jump\t// in\n    tag_327:\n        /* \"#utility.yul\":3047:3076   */\n      tag_328\n        /* \"#utility.yul\":3069:3075   */\n      dup2\n        /* \"#utility.yul\":3047:3076   */\n      tag_233\n      jump\t// in\n    tag_328:\n        /* \"#utility.yul\":3042:3045   */\n      dup5\n        /* \"#utility.yul\":3038:3077   */\n      add\n        /* \"#utility.yul\":3031:3077   */\n      swap2\n      pop\n        /* \"#utility.yul\":2798:3083   */\n      pop\n        /* \"#utility.yul\":2706:3083   */\n      swap3\n      swap2\n      pop\n      pop\n      jump\t// out\n        /* \"#utility.yul\":3089:3402   */\n    tag_22:\n        /* \"#utility.yul\":3202:3206   */\n      0x00\n        /* \"#utility.yul\":3240:3242   */\n      0x20\n        /* \"#utility.yul\":3229:3238   */\n      dup3\n        /* \"#utility.yul\":3225:3243   */\n      add\n        /* \"#utility.yul\":3217:3243   */\n      swap1\n      pop\n        /* \"#utility.yul\":3289:3298   */\n      dup2\n        /* \"#utility.yul\":3283:3287   */\n      dup2\n        /* \"#utility.yul\":3279:3299   */\n      sub\n        /* \"#utility.yul\":3275:3276   */\n      0x00\n        /* \"#utility.yul\":3264:3273   */\n      dup4\n        /* \"#utility.yul\":3260:3277   */\n      add\n        /* \"#utility.yul\":3253:3300   */\n      mstore\n        /* \"#utility.yul\":3317:3395   */\n      tag_330\n        /* \"#utility.yul\":3390:3394   */\n      dup2\n        /* \"#utility.yul\":3381:3387   */\n      dup5\n        /* \"#utility.yul\":3317:3395   */\n      tag_234\n      jump\t// in\n    tag_330:\n        /* \"#utility.yul\":3309:3395   */\n      swap1\n      pop\n        /* \"#utility.yul\":3089:3402   */\n      swap3\n      swap2\n      pop\n      pop\n      jump\t// out\n        /* \"#utility.yul\":3408:3737   */\n    tag_25:\n        /* \"#utility.yul\":3467:3473   */\n      0x00\n        /* \"#utility.yul\":3516:3518   */\n      0x20\n        /* \"#utility.yul\":3504:3513   */\n      dup3\n        /* \"#utility.yul\":3495:3502   */\n      dup5\n        /* \"#utility.yul\":3491:3514   */\n      sub\n        /* \"#utility.yul\":3487:3519   */\n      slt\n        /* \"#utility.yul\":3484:3603   */\n      iszero\n      tag_332\n      jumpi\n        /* \"#utility.yul\":3522:3601   */\n      tag_333\n      tag_218\n      jump\t// in\n    tag_333:\n        /* \"#utility.yul\":3484:3603   */\n    tag_332:\n        /* \"#utility.yul\":3642:3643   */\n      0x00\n        /* \"#utility.yul\":3667:3720   */\n      tag_334\n        /* \"#utility.yul\":3712:3719   */\n      dup5\n        /* \"#utility.yul\":3703:3709   */\n      dup3\n        /* \"#utility.yul\":3692:3701   */\n      dup6\n        /* \"#utility.yul\":3688:3710   */\n      add\n        /* \"#utility.yul\":3667:3720   */\n      tag_226\n      jump\t// in\n    tag_334:\n        /* \"#utility.yul\":3657:3720   */\n      swap2\n      pop\n        /* \"#utility.yul\":3613:3730   */\n      pop\n        /* \"#utility.yul\":3408:3737   */\n      swap3\n      swap2\n      pop\n      pop\n      jump\t// out\n        /* \"#utility.yul\":3743:3861   */\n    tag_235:\n        /* \"#utility.yul\":3830:3854   */\n      tag_336\n        /* \"#utility.yul\":3848:3853   */\n      dup2\n        /* \"#utility.yul\":3830:3854   */\n      tag_221\n      jump\t// in\n    tag_336:\n        /* \"#utility.yul\":3825:3828   */\n      dup3\n        /* \"#utility.yul\":3818:3855   */\n      mstore\n        /* \"#utility.yul\":3743:3861   */\n      pop\n      pop\n      jump\t// out\n        /* \"#utility.yul\":3867:4089   */\n    tag_28:\n        /* \"#utility.yul\":3960:3964   */\n      0x00\n        /* \"#utility.yul\":3998:4000   */\n      0x20\n        /* \"#utility.yul\":3987:3996   */\n      dup3\n        /* \"#utility.yul\":3983:4001   */\n      add\n        /* \"#utility.yul\":3975:4001   */\n      swap1\n      pop\n        /* \"#utility.yul\":4011:4082   */\n      tag_338\n        /* \"#utility.yul\":4079:4080   */\n      0x00\n        /* \"#utility.yul\":4068:4077   */\n      dup4\n        /* \"#utility.yul\":4064:4081   */\n      add\n        /* \"#utility.yul\":4055:4061   */\n      dup5\n        /* \"#utility.yul\":4011:4082   */\n      tag_235\n      jump\t// in\n    tag_338:\n        /* \"#utility.yul\":3867:4089   */\n      swap3\n      swap2\n      pop\n      pop\n      jump\t// out\n        /* \"#utility.yul\":4095:4212   */\n    tag_236:\n        /* \"#utility.yul\":4204:4205   */\n      0x00\n        /* \"#utility.yul\":4201:4202   */\n      0x00\n        /* \"#utility.yul\":4194:4206   */\n      revert\n        /* \"#utility.yul\":4218:4335   */\n    tag_237:\n        /* \"#utility.yul\":4327:4328   */\n      0x00\n        /* \"#utility.yul\":4324:4325   */\n      0x00\n        /* \"#utility.yul\":4317:4329   */\n      revert\n        /* \"#utility.yul\":4341:4521   */\n    tag_159:\n        /* \"#utility.yul\":4389:4466   */\n      0x4e487b7100000000000000000000000000000000000000000000000000000000\n        /* \"#utility.yul\":4386:4387   */\n      0x00\n        /* \"#utility.yul\":4379:4467   */\n      mstore\n        /* \"#utility.yul\":4486:4490   */\n      0x41\n        /* \"#utility.yul\":4483:4484   */\n      0x04\n        /* \"#utility.yul\":4476:4491   */\n      mstore\n        /* \"#utility.yul\":4510:4514   */\n      0x24\n        /* \"#utility.yul\":4507:4508   */\n      0x00\n        /* \"#utility.yul\":4500:4515   */\n      revert\n        /* \"#utility.yul\":4527:4808   */\n    tag_238:\n        /* \"#utility.yul\":4610:4637   */\n      tag_343\n        /* \"#utility.yul\":4632:4636   */\n      dup3\n        /* \"#utility.yul\":4610:4637   */\n      tag_233\n      jump\t// in\n    tag_343:\n        /* \"#utility.yul\":4602:4608   */\n      dup2\n        /* \"#utility.yul\":4598:4638   */\n      add\n        /* \"#utility.yul\":4740:4746   */\n      dup2\n        /* \"#utility.yul\":4728:4738   */\n      dup2\n        /* \"#utility.yul\":4725:4747   */\n      lt\n        /* \"#utility.yul\":4704:4722   */\n      0xffffffffffffffff\n        /* \"#utility.yul\":4692:4702   */\n      dup3\n        /* \"#utility.yul\":4689:4723   */\n      gt\n        /* \"#utility.yul\":4686:4748   */\n      or\n        /* \"#utility.yul\":4683:4771   */\n      iszero\n      tag_344\n      jumpi\n        /* \"#utility.yul\":4751:4769   */\n      tag_345\n      tag_159\n      jump\t// in\n    tag_345:\n        /* \"#utility.yul\":4683:4771   */\n    tag_344:\n        /* \"#utility.yul\":4791:4801   */\n      dup1\n        /* \"#utility.yul\":4787:4789   */\n      0x40\n        /* \"#utility.yul\":4780:4802   */\n      mstore\n        /* \"#utility.yul\":4570:4808   */\n      pop\n        /* \"#utility.yul\":4527:4808   */\n      pop\n      pop\n      jump\t// out\n        /* \"#utility.yul\":4814:4943   */\n    tag_239:\n        /* \"#utility.yul\":4848:4854   */\n      0x00\n        /* \"#utility.yul\":4875:4895   */\n      tag_347\n      tag_217\n      jump\t// in\n    tag_347:\n        /* \"#utility.yul\":4865:4895   */\n      swap1\n      pop\n        /* \"#utility.yul\":4904:4937   */\n      tag_348\n        /* \"#utility.yul\":4932:4936   */\n      dup3\n        /* \"#utility.yul\":4924:4930   */\n      dup3\n        /* \"#utility.yul\":4904:4937   */\n      tag_238\n      jump\t// in\n    tag_348:\n        /* \"#utility.yul\":4814:4943   */\n      swap2\n      swap1\n      pop\n      jump\t// out\n        /* \"#utility.yul\":4949:5257   */\n    tag_240:\n        /* \"#utility.yul\":5011:5015   */\n      0x00\n        /* \"#utility.yul\":5101:5119   */\n      0xffffffffffffffff\n        /* \"#utility.yul\":5093:5099   */\n      dup3\n        /* \"#utility.yul\":5090:5120   */\n      gt\n        /* \"#utility.yul\":5087:5143   */\n      iszero\n      tag_350\n      jumpi\n        /* \"#utility.yul\":5123:5141   */\n      tag_351\n      tag_159\n      jump\t// in\n    tag_351:\n        /* \"#utility.yul\":5087:5143   */\n    tag_350:\n        /* \"#utility.yul\":5161:5190   */\n      tag_352\n        /* \"#utility.yul\":5183:5189   */\n      dup3\n        /* \"#utility.yul\":5161:5190   */\n      tag_233\n      jump\t// in\n    tag_352:\n        /* \"#utility.yul\":5153:5190   */\n      swap1\n      pop\n        /* \"#utility.yul\":5245:5249   */\n      0x20\n        /* \"#utility.yul\":5239:5243   */\n      dup2\n        /* \"#utility.yul\":5235:5250   */\n      add\n        /* \"#utility.yul\":5227:5250   */\n      swap1\n      pop\n        /* \"#utility.yul\":4949:5257   */\n      swap2\n      swap1\n      pop\n      jump\t// out\n        /* \"#utility.yul\":5263:5411   */\n    tag_241:\n        /* \"#utility.yul\":5361:5367   */\n      dup3\n        /* \"#utility.yul\":5356:5359   */\n      dup2\n        /* \"#utility.yul\":5351:5354   */\n      dup4\n        /* \"#utility.yul\":5338:5368   */\n      calldatacopy\n        /* \"#utility.yul\":5402:5403   */\n      0x00\n        /* \"#utility.yul\":5393:5399   */\n      dup4\n        /* \"#utility.yul\":5388:5391   */\n      dup4\n        /* \"#utility.yul\":5384:5400   */\n      add\n        /* \"#utility.yul\":5377:5404   */\n      mstore\n        /* \"#utility.yul\":5263:5411   */\n      pop\n      pop\n      pop\n      jump\t// out\n        /* \"#utility.yul\":5417:5842   */\n    tag_242:\n        /* \"#utility.yul\":5495:5500   */\n      0x00\n        /* \"#utility.yul\":5520:5586   */\n      tag_355\n        /* \"#utility.yul\":5536:5585   */\n      tag_356\n        /* \"#utility.yul\":5578:5584   */\n      dup5\n        /* \"#utility.yul\":5536:5585   */\n      tag_240\n      jump\t// in\n    tag_356:\n        /* \"#utility.yul\":5520:5586   */\n      tag_239\n      jump\t// in\n    tag_355:\n        /* \"#utility.yul\":5511:5586   */\n      swap1\n      pop\n        /* \"#utility.yul\":5609:5615   */\n      dup3\n        /* \"#utility.yul\":5602:5607   */\n      dup2\n        /* \"#utility.yul\":5595:5616   */\n      mstore\n        /* \"#utility.yul\":5647:5651   */\n      0x20\n        /* \"#utility.yul\":5640:5645   */\n      dup2\n        /* \"#utility.yul\":5636:5652   */\n      add\n        /* \"#utility.yul\":5685:5688   */\n      dup5\n        /* \"#utility.yul\":5676:5682   */\n      dup5\n        /* \"#utility.yul\":5671:5674   */\n      dup5\n        /* \"#utility.yul\":5667:5683   */\n      add\n        /* \"#utility.yul\":5664:5689   */\n      gt\n        /* \"#utility.yul\":5661:5773   */\n      iszero\n      tag_357\n      jumpi\n        /* \"#utility.yul\":5692:5771   */\n      tag_358\n      tag_237\n      jump\t// in\n    tag_358:\n        /* \"#utility.yul\":5661:5773   */\n    tag_357:\n        /* \"#utility.yul\":5782:5836   */\n      tag_359\n        /* \"#utility.yul\":5829:5835   */\n      dup5\n        /* \"#utility.yul\":5824:5827   */\n      dup3\n        /* \"#utility.yul\":5819:5822   */\n      dup6\n        /* \"#utility.yul\":5782:5836   */\n      tag_241\n      jump\t// in\n    tag_359:\n        /* \"#utility.yul\":5501:5842   */\n      pop\n        /* \"#utility.yul\":5417:5842   */\n      swap4\n      swap3\n      pop\n      pop\n      pop\n      jump\t// out\n        /* \"#utility.yul\":5862:6202   */\n    tag_243:\n        /* \"#utility.yul\":5918:5923   */\n      0x00\n        /* \"#utility.yul\":5967:5970   */\n      dup3\n        /* \"#utility.yul\":5960:5964   */\n      0x1f\n        /* \"#utility.yul\":5952:5958   */\n      dup4\n        /* \"#utility.yul\":5948:5965   */\n      add\n        /* \"#utility.yul\":5944:5971   */\n      slt\n        /* \"#utility.yul\":5934:6056   */\n      tag_361\n      jumpi\n        /* \"#utility.yul\":5975:6054   */\n      tag_362\n      tag_236\n      jump\t// in\n    tag_362:\n        /* \"#utility.yul\":5934:6056   */\n    tag_361:\n        /* \"#utility.yul\":6092:6098   */\n      dup2\n        /* \"#utility.yul\":6079:6099   */\n      calldataload\n        /* \"#utility.yul\":6117:6196   */\n      tag_363\n        /* \"#utility.yul\":6192:6195   */\n      dup5\n        /* \"#utility.yul\":6184:6190   */\n      dup3\n        /* \"#utility.yul\":6177:6181   */\n      0x20\n        /* \"#utility.yul\":6169:6175   */\n      dup7\n        /* \"#utility.yul\":6165:6182   */\n      add\n        /* \"#utility.yul\":6117:6196   */\n      tag_242\n      jump\t// in\n    tag_363:\n        /* \"#utility.yul\":6108:6196   */\n      swap2\n      pop\n        /* \"#utility.yul\":5924:6202   */\n      pop\n        /* \"#utility.yul\":5862:6202   */\n      swap3\n      swap2\n      pop\n      pop\n      jump\t// out\n        /* \"#utility.yul\":6208:7042   */\n    tag_31:\n        /* \"#utility.yul\":6296:6302   */\n      0x00\n        /* \"#utility.yul\":6304:6310   */\n      0x00\n        /* \"#utility.yul\":6353:6355   */\n      0x40\n        /* \"#utility.yul\":6341:6350   */\n      dup4\n        /* \"#utility.yul\":6332:6339   */\n      dup6\n        /* \"#utility.yul\":6328:6351   */\n      sub\n        /* \"#utility.yul\":6324:6356   */\n      slt\n        /* \"#utility.yul\":6321:6440   */\n      iszero\n      tag_365\n      jumpi\n        /* \"#utility.yul\":6359:6438   */\n      tag_366\n      tag_218\n      jump\t// in\n    tag_366:\n        /* \"#utility.yul\":6321:6440   */\n    tag_365:\n        /* \"#utility.yul\":6507:6508   */\n      0x00\n        /* \"#utility.yul\":6496:6505   */\n      dup4\n        /* \"#utility.yul\":6492:6509   */\n      add\n        /* \"#utility.yul\":6479:6510   */\n      calldataload\n        /* \"#utility.yul\":6537:6555   */\n      0xffffffffffffffff\n        /* \"#utility.yul\":6529:6535   */\n      dup2\n        /* \"#utility.yul\":6526:6556   */\n      gt\n        /* \"#utility.yul\":6523:6640   */\n      iszero\n      tag_367\n      jumpi\n        /* \"#utility.yul\":6559:6638   */\n      tag_368\n      tag_219\n      jump\t// in\n    tag_368:\n        /* \"#utility.yul\":6523:6640   */\n    tag_367:\n        /* \"#utility.yul\":6664:6727   */\n      tag_369\n        /* \"#utility.yul\":6719:6726   */\n      dup6\n        /* \"#utility.yul\":6710:6716   */\n      dup3\n        /* \"#utility.yul\":6699:6708   */\n      dup7\n        /* \"#utility.yul\":6695:6717   */\n      add\n        /* \"#utility.yul\":6664:6727   */\n      tag_243\n      jump\t// in\n    tag_369:\n        /* \"#utility.yul\":6654:6727   */\n      swap3\n      pop\n        /* \"#utility.yul\":6450:6737   */\n      pop\n        /* \"#utility.yul\":6804:6806   */\n      0x20\n        /* \"#utility.yul\":6793:6802   */\n      dup4\n        /* \"#utility.yul\":6789:6807   */\n      add\n        /* \"#utility.yul\":6776:6808   */\n      calldataload\n        /* \"#utility.yul\":6835:6853   */\n      0xffffffffffffffff\n        /* \"#utility.yul\":6827:6833   */\n      dup2\n        /* \"#utility.yul\":6824:6854   */\n      gt\n        /* \"#utility.yul\":6821:6938   */\n      iszero\n      tag_370\n      jumpi\n        /* \"#utility.yul\":6857:6936   */\n      tag_371\n      tag_219\n      jump\t// in\n    tag_371:\n        /* \"#utility.yul\":6821:6938   */\n    tag_370:\n        /* \"#utility.yul\":6962:7025   */\n      tag_372\n        /* \"#utility.yul\":7017:7024   */\n      dup6\n        /* \"#utility.yul\":7008:7014   */\n      dup3\n        /* \"#utility.yul\":6997:7006   */\n      dup7\n        /* \"#utility.yul\":6993:7015   */\n      add\n        /* \"#utility.yul\":6962:7025   */\n      tag_243\n      jump\t// in\n    tag_372:\n        /* \"#utility.yul\":6952:7025   */\n      swap2\n      pop\n        /* \"#utility.yul\":6747:7035   */\n      pop\n        /* \"#utility.yul\":6208:7042   */\n      swap3\n      pop\n      swap3\n      swap1\n      pop\n      jump\t// out\n        /* \"#utility.yul\":7048:7377   */\n    tag_38:\n        /* \"#utility.yul\":7107:7113   */\n      0x00\n        /* \"#utility.yul\":7156:7158   */\n      0x20\n        /* \"#utility.yul\":7144:7153   */\n      dup3\n        /* \"#utility.yul\":7135:7142   */\n      dup5\n        /* \"#utility.yul\":7131:7154   */\n      sub\n        /* \"#utility.yul\":7127:7159   */\n      slt\n        /* \"#utility.yul\":7124:7243   */\n      iszero\n      tag_374\n      jumpi\n        /* \"#utility.yul\":7162:7241   */\n      tag_375\n      tag_218\n      jump\t// in\n    tag_375:\n        /* \"#utility.yul\":7124:7243   */\n    tag_374:\n        /* \"#utility.yul\":7282:7283   */\n      0x00\n        /* \"#utility.yul\":7307:7360   */\n      tag_376\n        /* \"#utility.yul\":7352:7359   */\n      dup5\n        /* \"#utility.yul\":7343:7349   */\n      dup3\n        /* \"#utility.yul\":7332:7341   */\n      dup6\n        /* \"#utility.yul\":7328:7350   */\n      add\n        /* \"#utility.yul\":7307:7360   */\n      tag_223\n      jump\t// in\n    tag_376:\n        /* \"#utility.yul\":7297:7360   */\n      swap2\n      pop\n        /* \"#utility.yul\":7253:7370   */\n      pop\n        /* \"#utility.yul\":7048:7377   */\n      swap3\n      swap2\n      pop\n      pop\n      jump\t// out\n        /* \"#utility.yul\":7383:7521   */\n    tag_244:\n        /* \"#utility.yul\":7474:7480   */\n      0x00\n        /* \"#utility.yul\":7508:7513   */\n      dup2\n        /* \"#utility.yul\":7502:7514   */\n      mload\n        /* \"#utility.yul\":7492:7514   */\n      swap1\n      pop\n        /* \"#utility.yul\":7383:7521   */\n      swap2\n      swap1\n      pop\n      jump\t// out\n        /* \"#utility.yul\":7527:7735   */\n    tag_245:\n        /* \"#utility.yul\":7650:7661   */\n      0x00\n        /* \"#utility.yul\":7684:7690   */\n      dup3\n        /* \"#utility.yul\":7679:7682   */\n      dup3\n        /* \"#utility.yul\":7672:7691   */\n      mstore\n        /* \"#utility.yul\":7724:7728   */\n      0x20\n        /* \"#utility.yul\":7719:7722   */\n      dup3\n        /* \"#utility.yul\":7715:7729   */\n      add\n        /* \"#utility.yul\":7700:7729   */\n      swap1\n      pop\n        /* \"#utility.yul\":7527:7735   */\n      swap3\n      swap2\n      pop\n      pop\n      jump\t// out\n        /* \"#utility.yul\":7741:7897   */\n    tag_246:\n        /* \"#utility.yul\":7832:7836   */\n      0x00\n        /* \"#utility.yul\":7855:7858   */\n      dup2\n        /* \"#utility.yul\":7847:7858   */\n      swap1\n      pop\n        /* \"#utility.yul\":7885:7889   */\n      0x20\n        /* \"#utility.yul\":7880:7883   */\n      dup3\n        /* \"#utility.yul\":7876:7890   */\n      add\n        /* \"#utility.yul\":7868:7890   */\n      swap1\n      pop\n        /* \"#utility.yul\":7741:7897   */\n      swap2\n      swap1\n      pop\n      jump\t// out\n        /* \"#utility.yul\":7903:8062   */\n    tag_247:\n        /* \"#utility.yul\":7977:7988   */\n      0x00\n        /* \"#utility.yul\":8011:8017   */\n      dup3\n        /* \"#utility.yul\":8006:8009   */\n      dup3\n        /* \"#utility.yul\":7999:8018   */\n      mstore\n        /* \"#utility.yul\":8051:8055   */\n      0x20\n        /* \"#utility.yul\":8046:8049   */\n      dup3\n        /* \"#utility.yul\":8042:8056   */\n      add\n        /* \"#utility.yul\":8027:8056   */\n      swap1\n      pop\n        /* \"#utility.yul\":7903:8062   */\n      swap3\n      swap2\n      pop\n      pop\n      jump\t// out\n        /* \"#utility.yul\":8068:8425   */\n    tag_248:\n        /* \"#utility.yul\":8146:8149   */\n      0x00\n        /* \"#utility.yul\":8174:8213   */\n      tag_382\n        /* \"#utility.yul\":8207:8212   */\n      dup3\n        /* \"#utility.yul\":8174:8213   */\n      tag_230\n      jump\t// in\n    tag_382:\n        /* \"#utility.yul\":8229:8290   */\n      tag_383\n        /* \"#utility.yul\":8283:8289   */\n      dup2\n        /* \"#utility.yul\":8278:8281   */\n      dup6\n        /* \"#utility.yul\":8229:8290   */\n      tag_247\n      jump\t// in\n    tag_383:\n        /* \"#utility.yul\":8222:8290   */\n      swap4\n      pop\n        /* \"#utility.yul\":8299:8364   */\n      tag_384\n        /* \"#utility.yul\":8357:8363   */\n      dup2\n        /* \"#utility.yul\":8352:8355   */\n      dup6\n        /* \"#utility.yul\":8345:8349   */\n      0x20\n        /* \"#utility.yul\":8338:8343   */\n      dup7\n        /* \"#utility.yul\":8334:8350   */\n      add\n        /* \"#utility.yul\":8299:8364   */\n      tag_232\n      jump\t// in\n    tag_384:\n        /* \"#utility.yul\":8389:8418   */\n      tag_385\n        /* \"#utility.yul\":8411:8417   */\n      dup2\n        /* \"#utility.yul\":8389:8418   */\n      tag_233\n      jump\t// in\n    tag_385:\n        /* \"#utility.yul\":8384:8387   */\n      dup5\n        /* \"#utility.yul\":8380:8419   */\n      add\n        /* \"#utility.yul\":8373:8419   */\n      swap2\n      pop\n        /* \"#utility.yul\":8150:8425   */\n      pop\n        /* \"#utility.yul\":8068:8425   */\n      swap3\n      swap2\n      pop\n      pop\n      jump\t// out\n        /* \"#utility.yul\":8431:8539   */\n    tag_249:\n        /* \"#utility.yul\":8508:8532   */\n      tag_387\n        /* \"#utility.yul\":8526:8531   */\n      dup2\n        /* \"#utility.yul\":8508:8532   */\n      tag_221\n      jump\t// in\n    tag_387:\n        /* \"#utility.yul\":8503:8506   */\n      dup3\n        /* \"#utility.yul\":8496:8533   */\n      mstore\n        /* \"#utility.yul\":8431:8539   */\n      pop\n      pop\n      jump\t// out\n        /* \"#utility.yul\":8545:8725   */\n    tag_82:\n        /* \"#utility.yul\":8593:8670   */\n      0x4e487b7100000000000000000000000000000000000000000000000000000000\n        /* \"#utility.yul\":8590:8591   */\n      0x00\n        /* \"#utility.yul\":8583:8671   */\n      mstore\n        /* \"#utility.yul\":8690:8694   */\n      0x21\n        /* \"#utility.yul\":8687:8688   */\n      0x04\n        /* \"#utility.yul\":8680:8695   */\n      mstore\n        /* \"#utility.yul\":8714:8718   */\n      0x24\n        /* \"#utility.yul\":8711:8712   */\n      0x00\n        /* \"#utility.yul\":8704:8719   */\n      revert\n        /* \"#utility.yul\":8731:8844   */\n    tag_250:\n        /* \"#utility.yul\":8812:8813   */\n      0x03\n        /* \"#utility.yul\":8805:8810   */\n      dup2\n        /* \"#utility.yul\":8802:8814   */\n      lt\n        /* \"#utility.yul\":8792:8838   */\n      tag_390\n      jumpi\n        /* \"#utility.yul\":8818:8836   */\n      tag_391\n      tag_82\n      jump\t// in\n    tag_391:\n        /* \"#utility.yul\":8792:8838   */\n    tag_390:\n        /* \"#utility.yul\":8731:8844   */\n      pop\n      jump\t// out\n        /* \"#utility.yul\":8850:8977   */\n    tag_251:\n        /* \"#utility.yul\":8895:8902   */\n      0x00\n        /* \"#utility.yul\":8924:8929   */\n      dup2\n        /* \"#utility.yul\":8913:8929   */\n      swap1\n      pop\n        /* \"#utility.yul\":8930:8971   */\n      tag_393\n        /* \"#utility.yul\":8965:8970   */\n      dup3\n        /* \"#utility.yul\":8930:8971   */\n      tag_250\n      jump\t// in\n    tag_393:\n        /* \"#utility.yul\":8850:8977   */\n      swap2\n      swap1\n      pop\n      jump\t// out\n        /* \"#utility.yul\":8983:9110   */\n    tag_252:\n        /* \"#utility.yul\":9039:9048   */\n      0x00\n        /* \"#utility.yul\":9072:9104   */\n      tag_395\n        /* \"#utility.yul\":9098:9103   */\n      dup3\n        /* \"#utility.yul\":9072:9104   */\n      tag_251\n      jump\t// in\n    tag_395:\n        /* \"#utility.yul\":9059:9104   */\n      swap1\n      pop\n        /* \"#utility.yul\":8983:9110   */\n      swap2\n      swap1\n      pop\n      jump\t// out\n        /* \"#utility.yul\":9116:9249   */\n    tag_253:\n        /* \"#utility.yul\":9199:9242   */\n      tag_397\n        /* \"#utility.yul\":9236:9241   */\n      dup2\n        /* \"#utility.yul\":9199:9242   */\n      tag_252\n      jump\t// in\n    tag_397:\n        /* \"#utility.yul\":9194:9197   */\n      dup3\n        /* \"#utility.yul\":9187:9243   */\n      mstore\n        /* \"#utility.yul\":9116:9249   */\n      pop\n      pop\n      jump\t// out\n        /* \"#utility.yul\":9255:9363   */\n    tag_254:\n        /* \"#utility.yul\":9332:9356   */\n      tag_399\n        /* \"#utility.yul\":9350:9355   */\n      dup2\n        /* \"#utility.yul\":9332:9356   */\n      tag_224\n      jump\t// in\n    tag_399:\n        /* \"#utility.yul\":9327:9330   */\n      dup3\n        /* \"#utility.yul\":9320:9357   */\n      mstore\n        /* \"#utility.yul\":9255:9363   */\n      pop\n      pop\n      jump\t// out\n        /* \"#utility.yul\":9435:10644   */\n    tag_255:\n        /* \"#utility.yul\":9542:9545   */\n      0x00\n        /* \"#utility.yul\":9578:9582   */\n      0xa0\n        /* \"#utility.yul\":9573:9576   */\n      dup4\n        /* \"#utility.yul\":9569:9583   */\n      add\n        /* \"#utility.yul\":9664:9668   */\n      0x00\n        /* \"#utility.yul\":9657:9662   */\n      dup4\n        /* \"#utility.yul\":9653:9669   */\n      add\n        /* \"#utility.yul\":9647:9670   */\n      mload\n        /* \"#utility.yul\":9717:9720   */\n      dup5\n        /* \"#utility.yul\":9711:9715   */\n      dup3\n        /* \"#utility.yul\":9707:9721   */\n      sub\n        /* \"#utility.yul\":9700:9704   */\n      0x00\n        /* \"#utility.yul\":9695:9698   */\n      dup7\n        /* \"#utility.yul\":9691:9705   */\n      add\n        /* \"#utility.yul\":9684:9722   */\n      mstore\n        /* \"#utility.yul\":9743:9816   */\n      tag_401\n        /* \"#utility.yul\":9811:9815   */\n      dup3\n        /* \"#utility.yul\":9797:9809   */\n      dup3\n        /* \"#utility.yul\":9743:9816   */\n      tag_248\n      jump\t// in\n    tag_401:\n        /* \"#utility.yul\":9735:9816   */\n      swap2\n      pop\n        /* \"#utility.yul\":9593:9827   */\n      pop\n        /* \"#utility.yul\":9912:9916   */\n      0x20\n        /* \"#utility.yul\":9905:9910   */\n      dup4\n        /* \"#utility.yul\":9901:9917   */\n      add\n        /* \"#utility.yul\":9895:9918   */\n      mload\n        /* \"#utility.yul\":9965:9968   */\n      dup5\n        /* \"#utility.yul\":9959:9963   */\n      dup3\n        /* \"#utility.yul\":9955:9969   */\n      sub\n        /* \"#utility.yul\":9948:9952   */\n      0x20\n        /* \"#utility.yul\":9943:9946   */\n      dup7\n        /* \"#utility.yul\":9939:9953   */\n      add\n        /* \"#utility.yul\":9932:9970   */\n      mstore\n        /* \"#utility.yul\":9991:10064   */\n      tag_402\n        /* \"#utility.yul\":10059:10063   */\n      dup3\n        /* \"#utility.yul\":10045:10057   */\n      dup3\n        /* \"#utility.yul\":9991:10064   */\n      tag_248\n      jump\t// in\n    tag_402:\n        /* \"#utility.yul\":9983:10064   */\n      swap2\n      pop\n        /* \"#utility.yul\":9837:10075   */\n      pop\n        /* \"#utility.yul\":10163:10167   */\n      0x40\n        /* \"#utility.yul\":10156:10161   */\n      dup4\n        /* \"#utility.yul\":10152:10168   */\n      add\n        /* \"#utility.yul\":10146:10169   */\n      mload\n        /* \"#utility.yul\":10182:10245   */\n      tag_403\n        /* \"#utility.yul\":10239:10243   */\n      0x40\n        /* \"#utility.yul\":10234:10237   */\n      dup7\n        /* \"#utility.yul\":10230:10244   */\n      add\n        /* \"#utility.yul\":10216:10228   */\n      dup3\n        /* \"#utility.yul\":10182:10245   */\n      tag_249\n      jump\t// in\n    tag_403:\n        /* \"#utility.yul\":10085:10255   */\n      pop\n        /* \"#utility.yul\":10339:10343   */\n      0x60\n        /* \"#utility.yul\":10332:10337   */\n      dup4\n        /* \"#utility.yul\":10328:10344   */\n      add\n        /* \"#utility.yul\":10322:10345   */\n      mload\n        /* \"#utility.yul\":10358:10427   */\n      tag_404\n        /* \"#utility.yul\":10421:10425   */\n      0x60\n        /* \"#utility.yul\":10416:10419   */\n      dup7\n        /* \"#utility.yul\":10412:10426   */\n      add\n        /* \"#utility.yul\":10398:10410   */\n      dup3\n        /* \"#utility.yul\":10358:10427   */\n      tag_253\n      jump\t// in\n    tag_404:\n        /* \"#utility.yul\":10265:10437   */\n      pop\n        /* \"#utility.yul\":10525:10529   */\n      0x80\n        /* \"#utility.yul\":10518:10523   */\n      dup4\n        /* \"#utility.yul\":10514:10530   */\n      add\n        /* \"#utility.yul\":10508:10531   */\n      mload\n        /* \"#utility.yul\":10544:10607   */\n      tag_405\n        /* \"#utility.yul\":10601:10605   */\n      0x80\n        /* \"#utility.yul\":10596:10599   */\n      dup7\n        /* \"#utility.yul\":10592:10606   */\n      add\n        /* \"#utility.yul\":10578:10590   */\n      dup3\n        /* \"#utility.yul\":10544:10607   */\n      tag_254\n      jump\t// in\n    tag_405:\n        /* \"#utility.yul\":10447:10617   */\n      pop\n        /* \"#utility.yul\":10634:10638   */\n      dup1\n        /* \"#utility.yul\":10627:10638   */\n      swap2\n      pop\n        /* \"#utility.yul\":9547:10644   */\n      pop\n        /* \"#utility.yul\":9435:10644   */\n      swap3\n      swap2\n      pop\n      pop\n      jump\t// out\n        /* \"#utility.yul\":10650:10902   */\n    tag_256:\n        /* \"#utility.yul\":10767:10777   */\n      0x00\n        /* \"#utility.yul\":10802:10896   */\n      tag_407\n        /* \"#utility.yul\":10892:10895   */\n      dup4\n        /* \"#utility.yul\":10884:10890   */\n      dup4\n        /* \"#utility.yul\":10802:10896   */\n      tag_255\n      jump\t// in\n    tag_407:\n        /* \"#utility.yul\":10788:10896   */\n      swap1\n      pop\n        /* \"#utility.yul\":10650:10902   */\n      swap3\n      swap2\n      pop\n      pop\n      jump\t// out\n        /* \"#utility.yul\":10908:11045   */\n    tag_257:\n        /* \"#utility.yul\":11002:11006   */\n      0x00\n        /* \"#utility.yul\":11034:11038   */\n      0x20\n        /* \"#utility.yul\":11029:11032   */\n      dup3\n        /* \"#utility.yul\":11025:11039   */\n      add\n        /* \"#utility.yul\":11017:11039   */\n      swap1\n      pop\n        /* \"#utility.yul\":10908:11045   */\n      swap2\n      swap1\n      pop\n      jump\t// out\n        /* \"#utility.yul\":11121:12224   */\n    tag_258:\n        /* \"#utility.yul\":11288:11291   */\n      0x00\n        /* \"#utility.yul\":11317:11395   */\n      tag_410\n        /* \"#utility.yul\":11389:11394   */\n      dup3\n        /* \"#utility.yul\":11317:11395   */\n      tag_244\n      jump\t// in\n    tag_410:\n        /* \"#utility.yul\":11411:11521   */\n      tag_411\n        /* \"#utility.yul\":11514:11520   */\n      dup2\n        /* \"#utility.yul\":11509:11512   */\n      dup6\n        /* \"#utility.yul\":11411:11521   */\n      tag_245\n      jump\t// in\n    tag_411:\n        /* \"#utility.yul\":11404:11521   */\n      swap4\n      pop\n        /* \"#utility.yul\":11547:11550   */\n      dup4\n        /* \"#utility.yul\":11592:11596   */\n      0x20\n        /* \"#utility.yul\":11584:11590   */\n      dup3\n        /* \"#utility.yul\":11580:11597   */\n      mul\n        /* \"#utility.yul\":11575:11578   */\n      dup6\n        /* \"#utility.yul\":11571:11598   */\n      add\n        /* \"#utility.yul\":11622:11702   */\n      tag_412\n        /* \"#utility.yul\":11696:11701   */\n      dup6\n        /* \"#utility.yul\":11622:11702   */\n      tag_246\n      jump\t// in\n    tag_412:\n        /* \"#utility.yul\":11725:11732   */\n      dup1\n        /* \"#utility.yul\":11756:11757   */\n      0x00\n        /* \"#utility.yul\":11741:12179   */\n    tag_413:\n        /* \"#utility.yul\":11766:11772   */\n      dup6\n        /* \"#utility.yul\":11763:11764   */\n      dup2\n        /* \"#utility.yul\":11760:11773   */\n      lt\n        /* \"#utility.yul\":11741:12179   */\n      iszero\n      tag_415\n      jumpi\n        /* \"#utility.yul\":11837:11846   */\n      dup5\n        /* \"#utility.yul\":11831:11835   */\n      dup5\n        /* \"#utility.yul\":11827:11847   */\n      sub\n        /* \"#utility.yul\":11822:11825   */\n      dup10\n        /* \"#utility.yul\":11815:11848   */\n      mstore\n        /* \"#utility.yul\":11888:11894   */\n      dup2\n        /* \"#utility.yul\":11882:11895   */\n      mload\n        /* \"#utility.yul\":11916:12028   */\n      tag_416\n        /* \"#utility.yul\":12023:12027   */\n      dup6\n        /* \"#utility.yul\":12008:12021   */\n      dup3\n        /* \"#utility.yul\":11916:12028   */\n      tag_256\n      jump\t// in\n    tag_416:\n        /* \"#utility.yul\":11908:12028   */\n      swap5\n      pop\n        /* \"#utility.yul\":12051:12135   */\n      tag_417\n        /* \"#utility.yul\":12128:12134   */\n      dup4\n        /* \"#utility.yul\":12051:12135   */\n      tag_257\n      jump\t// in\n    tag_417:\n        /* \"#utility.yul\":12041:12135   */\n      swap3\n      pop\n        /* \"#utility.yul\":12164:12168   */\n      0x20\n        /* \"#utility.yul\":12159:12162   */\n      dup11\n        /* \"#utility.yul\":12155:12169   */\n      add\n        /* \"#utility.yul\":12148:12169   */\n      swap10\n      pop\n        /* \"#utility.yul\":11801:12179   */\n      pop\n        /* \"#utility.yul\":11788:11789   */\n      0x01\n        /* \"#utility.yul\":11785:11786   */\n      dup2\n        /* \"#utility.yul\":11781:11790   */\n      add\n        /* \"#utility.yul\":11776:11790   */\n      swap1\n      pop\n        /* \"#utility.yul\":11741:12179   */\n      jump(tag_413)\n    tag_415:\n        /* \"#utility.yul\":11745:11759   */\n      pop\n        /* \"#utility.yul\":12195:12199   */\n      dup3\n        /* \"#utility.yul\":12188:12199   */\n      swap8\n      pop\n        /* \"#utility.yul\":12215:12218   */\n      dup8\n        /* \"#utility.yul\":12208:12218   */\n      swap6\n      pop\n        /* \"#utility.yul\":11293:12224   */\n      pop\n      pop\n      pop\n      pop\n      pop\n        /* \"#utility.yul\":11121:12224   */\n      swap3\n      swap2\n      pop\n      pop\n      jump\t// out\n        /* \"#utility.yul\":12230:12699   */\n    tag_41:\n        /* \"#utility.yul\":12421:12425   */\n      0x00\n        /* \"#utility.yul\":12459:12461   */\n      0x20\n        /* \"#utility.yul\":12448:12457   */\n      dup3\n        /* \"#utility.yul\":12444:12462   */\n      add\n        /* \"#utility.yul\":12436:12462   */\n      swap1\n      pop\n        /* \"#utility.yul\":12508:12517   */\n      dup2\n        /* \"#utility.yul\":12502:12506   */\n      dup2\n        /* \"#utility.yul\":12498:12518   */\n      sub\n        /* \"#utility.yul\":12494:12495   */\n      0x00\n        /* \"#utility.yul\":12483:12492   */\n      dup4\n        /* \"#utility.yul\":12479:12496   */\n      add\n        /* \"#utility.yul\":12472:12519   */\n      mstore\n        /* \"#utility.yul\":12536:12692   */\n      tag_419\n        /* \"#utility.yul\":12687:12691   */\n      dup2\n        /* \"#utility.yul\":12678:12684   */\n      dup5\n        /* \"#utility.yul\":12536:12692   */\n      tag_258\n      jump\t// in\n    tag_419:\n        /* \"#utility.yul\":12528:12692   */\n      swap1\n      pop\n        /* \"#utility.yul\":12230:12699   */\n      swap3\n      swap2\n      pop\n      pop\n      jump\t// out\n        /* \"#utility.yul\":12705:12814   */\n    tag_259:\n        /* \"#utility.yul\":12786:12807   */\n      tag_421\n        /* \"#utility.yul\":12801:12806   */\n      dup2\n        /* \"#utility.yul\":12786:12807   */\n      tag_227\n      jump\t// in\n    tag_421:\n        /* \"#utility.yul\":12781:12784   */\n      dup3\n        /* \"#utility.yul\":12774:12808   */\n      mstore\n        /* \"#utility.yul\":12705:12814   */\n      pop\n      pop\n      jump\t// out\n        /* \"#utility.yul\":12820:13030   */\n    tag_46:\n        /* \"#utility.yul\":12907:12911   */\n      0x00\n        /* \"#utility.yul\":12945:12947   */\n      0x20\n        /* \"#utility.yul\":12934:12943   */\n      dup3\n        /* \"#utility.yul\":12930:12948   */\n      add\n        /* \"#utility.yul\":12922:12948   */\n      swap1\n      pop\n        /* \"#utility.yul\":12958:13023   */\n      tag_423\n        /* \"#utility.yul\":13020:13021   */\n      0x00\n        /* \"#utility.yul\":13009:13018   */\n      dup4\n        /* \"#utility.yul\":13005:13022   */\n      add\n        /* \"#utility.yul\":12996:13002   */\n      dup5\n        /* \"#utility.yul\":12958:13023   */\n      tag_259\n      jump\t// in\n    tag_423:\n        /* \"#utility.yul\":12820:13030   */\n      swap3\n      swap2\n      pop\n      pop\n      jump\t// out\n        /* \"#utility.yul\":13036:13510   */\n    tag_53:\n        /* \"#utility.yul\":13104:13110   */\n      0x00\n        /* \"#utility.yul\":13112:13118   */\n      0x00\n        /* \"#utility.yul\":13161:13163   */\n      0x40\n        /* \"#utility.yul\":13149:13158   */\n      dup4\n        /* \"#utility.yul\":13140:13147   */\n      dup6\n        /* \"#utility.yul\":13136:13159   */\n      sub\n        /* \"#utility.yul\":13132:13164   */\n      slt\n        /* \"#utility.yul\":13129:13248   */\n      iszero\n      tag_425\n      jumpi\n        /* \"#utility.yul\":13167:13246   */\n      tag_426\n      tag_218\n      jump\t// in\n    tag_426:\n        /* \"#utility.yul\":13129:13248   */\n    tag_425:\n        /* \"#utility.yul\":13287:13288   */\n      0x00\n        /* \"#utility.yul\":13312:13365   */\n      tag_427\n        /* \"#utility.yul\":13357:13364   */\n      dup6\n        /* \"#utility.yul\":13348:13354   */\n      dup3\n        /* \"#utility.yul\":13337:13346   */\n      dup7\n        /* \"#utility.yul\":13333:13355   */\n      add\n        /* \"#utility.yul\":13312:13365   */\n      tag_223\n      jump\t// in\n    tag_427:\n        /* \"#utility.yul\":13302:13365   */\n      swap3\n      pop\n        /* \"#utility.yul\":13258:13375   */\n      pop\n        /* \"#utility.yul\":13414:13416   */\n      0x20\n        /* \"#utility.yul\":13440:13493   */\n      tag_428\n        /* \"#utility.yul\":13485:13492   */\n      dup6\n        /* \"#utility.yul\":13476:13482   */\n      dup3\n        /* \"#utility.yul\":13465:13474   */\n      dup7\n        /* \"#utility.yul\":13461:13483   */\n      add\n        /* \"#utility.yul\":13440:13493   */\n      tag_226\n      jump\t// in\n    tag_428:\n        /* \"#utility.yul\":13430:13493   */\n      swap2\n      pop\n        /* \"#utility.yul\":13385:13503   */\n      pop\n        /* \"#utility.yul\":13036:13510   */\n      swap3\n      pop\n      swap3\n      swap1\n      pop\n      jump\t// out\n        /* \"#utility.yul\":13582:14801   */\n    tag_260:\n        /* \"#utility.yul\":13699:13702   */\n      0x00\n        /* \"#utility.yul\":13735:13739   */\n      0xa0\n        /* \"#utility.yul\":13730:13733   */\n      dup4\n        /* \"#utility.yul\":13726:13740   */\n      add\n        /* \"#utility.yul\":13821:13825   */\n      0x00\n        /* \"#utility.yul\":13814:13819   */\n      dup4\n        /* \"#utility.yul\":13810:13826   */\n      add\n        /* \"#utility.yul\":13804:13827   */\n      mload\n        /* \"#utility.yul\":13874:13877   */\n      dup5\n        /* \"#utility.yul\":13868:13872   */\n      dup3\n        /* \"#utility.yul\":13864:13878   */\n      sub\n        /* \"#utility.yul\":13857:13861   */\n      0x00\n        /* \"#utility.yul\":13852:13855   */\n      dup7\n        /* \"#utility.yul\":13848:13862   */\n      add\n        /* \"#utility.yul\":13841:13879   */\n      mstore\n        /* \"#utility.yul\":13900:13973   */\n      tag_430\n        /* \"#utility.yul\":13968:13972   */\n      dup3\n        /* \"#utility.yul\":13954:13966   */\n      dup3\n        /* \"#utility.yul\":13900:13973   */\n      tag_248\n      jump\t// in\n    tag_430:\n        /* \"#utility.yul\":13892:13973   */\n      swap2\n      pop\n        /* \"#utility.yul\":13750:13984   */\n      pop\n        /* \"#utility.yul\":14069:14073   */\n      0x20\n        /* \"#utility.yul\":14062:14067   */\n      dup4\n        /* \"#utility.yul\":14058:14074   */\n      add\n        /* \"#utility.yul\":14052:14075   */\n      mload\n        /* \"#utility.yul\":14122:14125   */\n      dup5\n        /* \"#utility.yul\":14116:14120   */\n      dup3\n        /* \"#utility.yul\":14112:14126   */\n      sub\n        /* \"#utility.yul\":14105:14109   */\n      0x20\n        /* \"#utility.yul\":14100:14103   */\n      dup7\n        /* \"#utility.yul\":14096:14110   */\n      add\n        /* \"#utility.yul\":14089:14127   */\n      mstore\n        /* \"#utility.yul\":14148:14221   */\n      tag_431\n        /* \"#utility.yul\":14216:14220   */\n      dup3\n        /* \"#utility.yul\":14202:14214   */\n      dup3\n        /* \"#utility.yul\":14148:14221   */\n      tag_248\n      jump\t// in\n    tag_431:\n        /* \"#utility.yul\":14140:14221   */\n      swap2\n      pop\n        /* \"#utility.yul\":13994:14232   */\n      pop\n        /* \"#utility.yul\":14320:14324   */\n      0x40\n        /* \"#utility.yul\":14313:14318   */\n      dup4\n        /* \"#utility.yul\":14309:14325   */\n      add\n        /* \"#utility.yul\":14303:14326   */\n      mload\n        /* \"#utility.yul\":14339:14402   */\n      tag_432\n        /* \"#utility.yul\":14396:14400   */\n      0x40\n        /* \"#utility.yul\":14391:14394   */\n      dup7\n        /* \"#utility.yul\":14387:14401   */\n      add\n        /* \"#utility.yul\":14373:14385   */\n      dup3\n        /* \"#utility.yul\":14339:14402   */\n      tag_249\n      jump\t// in\n    tag_432:\n        /* \"#utility.yul\":14242:14412   */\n      pop\n        /* \"#utility.yul\":14496:14500   */\n      0x60\n        /* \"#utility.yul\":14489:14494   */\n      dup4\n        /* \"#utility.yul\":14485:14501   */\n      add\n        /* \"#utility.yul\":14479:14502   */\n      mload\n        /* \"#utility.yul\":14515:14584   */\n      tag_433\n        /* \"#utility.yul\":14578:14582   */\n      0x60\n        /* \"#utility.yul\":14573:14576   */\n      dup7\n        /* \"#utility.yul\":14569:14583   */\n      add\n        /* \"#utility.yul\":14555:14567   */\n      dup3\n        /* \"#utility.yul\":14515:14584   */\n      tag_253\n      jump\t// in\n    tag_433:\n        /* \"#utility.yul\":14422:14594   */\n      pop\n        /* \"#utility.yul\":14682:14686   */\n      0x80\n        /* \"#utility.yul\":14675:14680   */\n      dup4\n        /* \"#utility.yul\":14671:14687   */\n      add\n        /* \"#utility.yul\":14665:14688   */\n      mload\n        /* \"#utility.yul\":14701:14764   */\n      tag_434\n        /* \"#utility.yul\":14758:14762   */\n      0x80\n        /* \"#utility.yul\":14753:14756   */\n      dup7\n        /* \"#utility.yul\":14749:14763   */\n      add\n        /* \"#utility.yul\":14735:14747   */\n      dup3\n        /* \"#utility.yul\":14701:14764   */\n      tag_254\n      jump\t// in\n    tag_434:\n        /* \"#utility.yul\":14604:14774   */\n      pop\n        /* \"#utility.yul\":14791:14795   */\n      dup1\n        /* \"#utility.yul\":14784:14795   */\n      swap2\n      pop\n        /* \"#utility.yul\":13704:14801   */\n      pop\n        /* \"#utility.yul\":13582:14801   */\n      swap3\n      swap2\n      pop\n      pop\n      jump\t// out\n        /* \"#utility.yul\":14807:15176   */\n    tag_56:\n        /* \"#utility.yul\":14948:14952   */\n      0x00\n        /* \"#utility.yul\":14986:14988   */\n      0x20\n        /* \"#utility.yul\":14975:14984   */\n      dup3\n        /* \"#utility.yul\":14971:14989   */\n      add\n        /* \"#utility.yul\":14963:14989   */\n      swap1\n      pop\n        /* \"#utility.yul\":15035:15044   */\n      dup2\n        /* \"#utility.yul\":15029:15033   */\n      dup2\n        /* \"#utility.yul\":15025:15045   */\n      sub\n        /* \"#utility.yul\":15021:15022   */\n      0x00\n        /* \"#utility.yul\":15010:15019   */\n      dup4\n        /* \"#utility.yul\":15006:15023   */\n      add\n        /* \"#utility.yul\":14999:15046   */\n      mstore\n        /* \"#utility.yul\":15063:15169   */\n      tag_436\n        /* \"#utility.yul\":15164:15168   */\n      dup2\n        /* \"#utility.yul\":15155:15161   */\n      dup5\n        /* \"#utility.yul\":15063:15169   */\n      tag_260\n      jump\t// in\n    tag_436:\n        /* \"#utility.yul\":15055:15169   */\n      swap1\n      pop\n        /* \"#utility.yul\":14807:15176   */\n      swap3\n      swap2\n      pop\n      pop\n      jump\t// out\n        /* \"#utility.yul\":15182:15325   */\n    tag_261:\n        /* \"#utility.yul\":15275:15318   */\n      tag_438\n        /* \"#utility.yul\":15312:15317   */\n      dup2\n        /* \"#utility.yul\":15275:15318   */\n      tag_252\n      jump\t// in\n    tag_438:\n        /* \"#utility.yul\":15270:15273   */\n      dup3\n        /* \"#utility.yul\":15263:15319   */\n      mstore\n        /* \"#utility.yul\":15182:15325   */\n      pop\n      pop\n      jump\t// out\n        /* \"#utility.yul\":15331:15449   */\n    tag_262:\n        /* \"#utility.yul\":15418:15442   */\n      tag_440\n        /* \"#utility.yul\":15436:15441   */\n      dup2\n        /* \"#utility.yul\":15418:15442   */\n      tag_224\n      jump\t// in\n    tag_440:\n        /* \"#utility.yul\":15413:15416   */\n      dup3\n        /* \"#utility.yul\":15406:15443   */\n      mstore\n        /* \"#utility.yul\":15331:15449   */\n      pop\n      pop\n      jump\t// out\n        /* \"#utility.yul\":15455:16313   */\n    tag_61:\n        /* \"#utility.yul\":15706:15710   */\n      0x00\n        /* \"#utility.yul\":15744:15747   */\n      0xa0\n        /* \"#utility.yul\":15733:15742   */\n      dup3\n        /* \"#utility.yul\":15729:15748   */\n      add\n        /* \"#utility.yul\":15721:15748   */\n      swap1\n      pop\n        /* \"#utility.yul\":15794:15803   */\n      dup2\n        /* \"#utility.yul\":15788:15792   */\n      dup2\n        /* \"#utility.yul\":15784:15804   */\n      sub\n        /* \"#utility.yul\":15780:15781   */\n      0x00\n        /* \"#utility.yul\":15769:15778   */\n      dup4\n        /* \"#utility.yul\":15765:15782   */\n      add\n        /* \"#utility.yul\":15758:15805   */\n      mstore\n        /* \"#utility.yul\":15822:15900   */\n      tag_442\n        /* \"#utility.yul\":15895:15899   */\n      dup2\n        /* \"#utility.yul\":15886:15892   */\n      dup9\n        /* \"#utility.yul\":15822:15900   */\n      tag_234\n      jump\t// in\n    tag_442:\n        /* \"#utility.yul\":15814:15900   */\n      swap1\n      pop\n        /* \"#utility.yul\":15947:15956   */\n      dup2\n        /* \"#utility.yul\":15941:15945   */\n      dup2\n        /* \"#utility.yul\":15937:15957   */\n      sub\n        /* \"#utility.yul\":15932:15934   */\n      0x20\n        /* \"#utility.yul\":15921:15930   */\n      dup4\n        /* \"#utility.yul\":15917:15935   */\n      add\n        /* \"#utility.yul\":15910:15958   */\n      mstore\n        /* \"#utility.yul\":15975:16053   */\n      tag_443\n        /* \"#utility.yul\":16048:16052   */\n      dup2\n        /* \"#utility.yul\":16039:16045   */\n      dup8\n        /* \"#utility.yul\":15975:16053   */\n      tag_234\n      jump\t// in\n    tag_443:\n        /* \"#utility.yul\":15967:16053   */\n      swap1\n      pop\n        /* \"#utility.yul\":16063:16135   */\n      tag_444\n        /* \"#utility.yul\":16131:16133   */\n      0x40\n        /* \"#utility.yul\":16120:16129   */\n      dup4\n        /* \"#utility.yul\":16116:16134   */\n      add\n        /* \"#utility.yul\":16107:16113   */\n      dup7\n        /* \"#utility.yul\":16063:16135   */\n      tag_235\n      jump\t// in\n    tag_444:\n        /* \"#utility.yul\":16145:16223   */\n      tag_445\n        /* \"#utility.yul\":16219:16221   */\n      0x60\n        /* \"#utility.yul\":16208:16217   */\n      dup4\n        /* \"#utility.yul\":16204:16222   */\n      add\n        /* \"#utility.yul\":16195:16201   */\n      dup6\n        /* \"#utility.yul\":16145:16223   */\n      tag_261\n      jump\t// in\n    tag_445:\n        /* \"#utility.yul\":16233:16306   */\n      tag_446\n        /* \"#utility.yul\":16301:16304   */\n      0x80\n        /* \"#utility.yul\":16290:16299   */\n      dup4\n        /* \"#utility.yul\":16286:16305   */\n      add\n        /* \"#utility.yul\":16277:16283   */\n      dup5\n        /* \"#utility.yul\":16233:16306   */\n      tag_262\n      jump\t// in\n    tag_446:\n        /* \"#utility.yul\":15455:16313   */\n      swap7\n      swap6\n      pop\n      pop\n      pop\n      pop\n      pop\n      pop\n      jump\t// out\n        /* \"#utility.yul\":16319:16433   */\n    tag_263:\n        /* \"#utility.yul\":16386:16392   */\n      0x00\n        /* \"#utility.yul\":16420:16425   */\n      dup2\n        /* \"#utility.yul\":16414:16426   */\n      mload\n        /* \"#utility.yul\":16404:16426   */\n      swap1\n      pop\n        /* \"#utility.yul\":16319:16433   */\n      swap2\n      swap1\n      pop\n      jump\t// out\n        /* \"#utility.yul\":16439:16623   */\n    tag_264:\n        /* \"#utility.yul\":16538:16549   */\n      0x00\n        /* \"#utility.yul\":16572:16578   */\n      dup3\n        /* \"#utility.yul\":16567:16570   */\n      dup3\n        /* \"#utility.yul\":16560:16579   */\n      mstore\n        /* \"#utility.yul\":16612:16616   */\n      0x20\n        /* \"#utility.yul\":16607:16610   */\n      dup3\n        /* \"#utility.yul\":16603:16617   */\n      add\n        /* \"#utility.yul\":16588:16617   */\n      swap1\n      pop\n        /* \"#utility.yul\":16439:16623   */\n      swap3\n      swap2\n      pop\n      pop\n      jump\t// out\n        /* \"#utility.yul\":16629:16761   */\n    tag_265:\n        /* \"#utility.yul\":16696:16700   */\n      0x00\n        /* \"#utility.yul\":16719:16722   */\n      dup2\n        /* \"#utility.yul\":16711:16722   */\n      swap1\n      pop\n        /* \"#utility.yul\":16749:16753   */\n      0x20\n        /* \"#utility.yul\":16744:16747   */\n      dup3\n        /* \"#utility.yul\":16740:16754   */\n      add\n        /* \"#utility.yul\":16732:16754   */\n      swap1\n      pop\n        /* \"#utility.yul\":16629:16761   */\n      swap2\n      swap1\n      pop\n      jump\t// out\n        /* \"#utility.yul\":16767:16946   */\n    tag_266:\n        /* \"#utility.yul\":16836:16846   */\n      0x00\n        /* \"#utility.yul\":16857:16903   */\n      tag_451\n        /* \"#utility.yul\":16899:16902   */\n      dup4\n        /* \"#utility.yul\":16891:16897   */\n      dup4\n        /* \"#utility.yul\":16857:16903   */\n      tag_249\n      jump\t// in\n    tag_451:\n        /* \"#utility.yul\":16935:16939   */\n      0x20\n        /* \"#utility.yul\":16930:16933   */\n      dup4\n        /* \"#utility.yul\":16926:16940   */\n      add\n        /* \"#utility.yul\":16912:16940   */\n      swap1\n      pop\n        /* \"#utility.yul\":16767:16946   */\n      swap3\n      swap2\n      pop\n      pop\n      jump\t// out\n        /* \"#utility.yul\":16952:17065   */\n    tag_267:\n        /* \"#utility.yul\":17022:17026   */\n      0x00\n        /* \"#utility.yul\":17054:17058   */\n      0x20\n        /* \"#utility.yul\":17049:17052   */\n      dup3\n        /* \"#utility.yul\":17045:17059   */\n      add\n        /* \"#utility.yul\":17037:17059   */\n      swap1\n      pop\n        /* \"#utility.yul\":16952:17065   */\n      swap2\n      swap1\n      pop\n      jump\t// out\n        /* \"#utility.yul\":17101:17833   */\n    tag_268:\n        /* \"#utility.yul\":17220:17223   */\n      0x00\n        /* \"#utility.yul\":17249:17303   */\n      tag_454\n        /* \"#utility.yul\":17297:17302   */\n      dup3\n        /* \"#utility.yul\":17249:17303   */\n      tag_263\n      jump\t// in\n    tag_454:\n        /* \"#utility.yul\":17319:17405   */\n      tag_455\n        /* \"#utility.yul\":17398:17404   */\n      dup2\n        /* \"#utility.yul\":17393:17396   */\n      dup6\n        /* \"#utility.yul\":17319:17405   */\n      tag_264\n      jump\t// in\n    tag_455:\n        /* \"#utility.yul\":17312:17405   */\n      swap4\n      pop\n        /* \"#utility.yul\":17429:17485   */\n      tag_456\n        /* \"#utility.yul\":17479:17484   */\n      dup4\n        /* \"#utility.yul\":17429:17485   */\n      tag_265\n      jump\t// in\n    tag_456:\n        /* \"#utility.yul\":17508:17515   */\n      dup1\n        /* \"#utility.yul\":17539:17540   */\n      0x00\n        /* \"#utility.yul\":17524:17808   */\n    tag_457:\n        /* \"#utility.yul\":17549:17555   */\n      dup4\n        /* \"#utility.yul\":17546:17547   */\n      dup2\n        /* \"#utility.yul\":17543:17556   */\n      lt\n        /* \"#utility.yul\":17524:17808   */\n      iszero\n      tag_459\n      jumpi\n        /* \"#utility.yul\":17625:17631   */\n      dup2\n        /* \"#utility.yul\":17619:17632   */\n      mload\n        /* \"#utility.yul\":17652:17715   */\n      tag_460\n        /* \"#utility.yul\":17711:17714   */\n      dup9\n        /* \"#utility.yul\":17696:17709   */\n      dup3\n        /* \"#utility.yul\":17652:17715   */\n      tag_266\n      jump\t// in\n    tag_460:\n        /* \"#utility.yul\":17645:17715   */\n      swap8\n      pop\n        /* \"#utility.yul\":17738:17798   */\n      tag_461\n        /* \"#utility.yul\":17791:17797   */\n      dup4\n        /* \"#utility.yul\":17738:17798   */\n      tag_267\n      jump\t// in\n    tag_461:\n        /* \"#utility.yul\":17728:17798   */\n      swap3\n      pop\n        /* \"#utility.yul\":17584:17808   */\n      pop\n        /* \"#utility.yul\":17571:17572   */\n      0x01\n        /* \"#utility.yul\":17568:17569   */\n      dup2\n        /* \"#utility.yul\":17564:17573   */\n      add\n        /* \"#utility.yul\":17559:17573   */\n      swap1\n      pop\n        /* \"#utility.yul\":17524:17808   */\n      jump(tag_457)\n    tag_459:\n        /* \"#utility.yul\":17528:17542   */\n      pop\n        /* \"#utility.yul\":17824:17827   */\n      dup6\n        /* \"#utility.yul\":17817:17827   */\n      swap4\n      pop\n        /* \"#utility.yul\":17225:17833   */\n      pop\n      pop\n      pop\n        /* \"#utility.yul\":17101:17833   */\n      swap3\n      swap2\n      pop\n      pop\n      jump\t// out\n        /* \"#utility.yul\":17839:18212   */\n    tag_65:\n        /* \"#utility.yul\":17982:17986   */\n      0x00\n        /* \"#utility.yul\":18020:18022   */\n      0x20\n        /* \"#utility.yul\":18009:18018   */\n      dup3\n        /* \"#utility.yul\":18005:18023   */\n      add\n        /* \"#utility.yul\":17997:18023   */\n      swap1\n      pop\n        /* \"#utility.yul\":18069:18078   */\n      dup2\n        /* \"#utility.yul\":18063:18067   */\n      dup2\n        /* \"#utility.yul\":18059:18079   */\n      sub\n        /* \"#utility.yul\":18055:18056   */\n      0x00\n        /* \"#utility.yul\":18044:18053   */\n      dup4\n        /* \"#utility.yul\":18040:18057   */\n      add\n        /* \"#utility.yul\":18033:18080   */\n      mstore\n        /* \"#utility.yul\":18097:18205   */\n      tag_463\n        /* \"#utility.yul\":18200:18204   */\n      dup2\n        /* \"#utility.yul\":18191:18197   */\n      dup5\n        /* \"#utility.yul\":18097:18205   */\n      tag_268\n      jump\t// in\n    tag_463:\n        /* \"#utility.yul\":18089:18205   */\n      swap1\n      pop\n        /* \"#utility.yul\":17839:18212   */\n      swap3\n      swap2\n      pop\n      pop\n      jump\t// out\n        /* \"#utility.yul\":18218:18382   */\n    tag_269:\n        /* \"#utility.yul\":18358:18374   */\n      0x4f6e6c79204f72672041646d696e000000000000000000000000000000000000\n        /* \"#utility.yul\":18354:18355   */\n      0x00\n        /* \"#utility.yul\":18346:18352   */\n      dup3\n        /* \"#utility.yul\":18342:18356   */\n      add\n        /* \"#utility.yul\":18335:18375   */\n      mstore\n        /* \"#utility.yul\":18218:18382   */\n      pop\n      jump\t// out\n        /* \"#utility.yul\":18388:18754   */\n    tag_270:\n        /* \"#utility.yul\":18530:18533   */\n      0x00\n        /* \"#utility.yul\":18551:18618   */\n      tag_466\n        /* \"#utility.yul\":18615:18617   */\n      0x0e\n        /* \"#utility.yul\":18610:18613   */\n      dup4\n        /* \"#utility.yul\":18551:18618   */\n      tag_231\n      jump\t// in\n    tag_466:\n        /* \"#utility.yul\":18544:18618   */\n      swap2\n      pop\n        /* \"#utility.yul\":18627:18720   */\n      tag_467\n        /* \"#utility.yul\":18716:18719   */\n      dup3\n        /* \"#utility.yul\":18627:18720   */\n      tag_269\n      jump\t// in\n    tag_467:\n        /* \"#utility.yul\":18745:18747   */\n      0x20\n        /* \"#utility.yul\":18740:18743   */\n      dup3\n        /* \"#utility.yul\":18736:18748   */\n      add\n        /* \"#utility.yul\":18729:18748   */\n      swap1\n      pop\n        /* \"#utility.yul\":18388:18754   */\n      swap2\n      swap1\n      pop\n      jump\t// out\n        /* \"#utility.yul\":18760:19179   */\n    tag_69:\n        /* \"#utility.yul\":18926:18930   */\n      0x00\n        /* \"#utility.yul\":18964:18966   */\n      0x20\n        /* \"#utility.yul\":18953:18962   */\n      dup3\n        /* \"#utility.yul\":18949:18967   */\n      add\n        /* \"#utility.yul\":18941:18967   */\n      swap1\n      pop\n        /* \"#utility.yul\":19013:19022   */\n      dup2\n        /* \"#utility.yul\":19007:19011   */\n      dup2\n        /* \"#utility.yul\":19003:19023   */\n      sub\n        /* \"#utility.yul\":18999:19000   */\n      0x00\n        /* \"#utility.yul\":18988:18997   */\n      dup4\n        /* \"#utility.yul\":18984:19001   */\n      add\n        /* \"#utility.yul\":18977:19024   */\n      mstore\n        /* \"#utility.yul\":19041:19172   */\n      tag_469\n        /* \"#utility.yul\":19167:19171   */\n      dup2\n        /* \"#utility.yul\":19041:19172   */\n      tag_270\n      jump\t// in\n    tag_469:\n        /* \"#utility.yul\":19033:19172   */\n      swap1\n      pop\n        /* \"#utility.yul\":18760:19179   */\n      swap2\n      swap1\n      pop\n      jump\t// out\n        /* \"#utility.yul\":19185:19348   */\n    tag_271:\n        /* \"#utility.yul\":19325:19340   */\n      0x496e76616c696420696e64657800000000000000000000000000000000000000\n        /* \"#utility.yul\":19321:19322   */\n      0x00\n        /* \"#utility.yul\":19313:19319   */\n      dup3\n        /* \"#utility.yul\":19309:19323   */\n      add\n        /* \"#utility.yul\":19302:19341   */\n      mstore\n        /* \"#utility.yul\":19185:19348   */\n      pop\n      jump\t// out\n        /* \"#utility.yul\":19354:19720   */\n    tag_272:\n        /* \"#utility.yul\":19496:19499   */\n      0x00\n        /* \"#utility.yul\":19517:19584   */\n      tag_472\n        /* \"#utility.yul\":19581:19583   */\n      0x0d\n        /* \"#utility.yul\":19576:19579   */\n      dup4\n        /* \"#utility.yul\":19517:19584   */\n      tag_231\n      jump\t// in\n    tag_472:\n        /* \"#utility.yul\":19510:19584   */\n      swap2\n      pop\n        /* \"#utility.yul\":19593:19686   */\n      tag_473\n        /* \"#utility.yul\":19682:19685   */\n      dup3\n        /* \"#utility.yul\":19593:19686   */\n      tag_271\n      jump\t// in\n    tag_473:\n        /* \"#utility.yul\":19711:19713   */\n      0x20\n        /* \"#utility.yul\":19706:19709   */\n      dup3\n        /* \"#utility.yul\":19702:19714   */\n      add\n        /* \"#utility.yul\":19695:19714   */\n      swap1\n      pop\n        /* \"#utility.yul\":19354:19720   */\n      swap2\n      swap1\n      pop\n      jump\t// out\n        /* \"#utility.yul\":19726:20145   */\n    tag_73:\n        /* \"#utility.yul\":19892:19896   */\n      0x00\n        /* \"#utility.yul\":19930:19932   */\n      0x20\n        /* \"#utility.yul\":19919:19928   */\n      dup3\n        /* \"#utility.yul\":19915:19933   */\n      add\n        /* \"#utility.yul\":19907:19933   */\n      swap1\n      pop\n        /* \"#utility.yul\":19979:19988   */\n      dup2\n        /* \"#utility.yul\":19973:19977   */\n      dup2\n        /* \"#utility.yul\":19969:19989   */\n      sub\n        /* \"#utility.yul\":19965:19966   */\n      0x00\n        /* \"#utility.yul\":19954:19963   */\n      dup4\n        /* \"#utility.yul\":19950:19967   */\n      add\n        /* \"#utility.yul\":19943:19990   */\n      mstore\n        /* \"#utility.yul\":20007:20138   */\n      tag_475\n        /* \"#utility.yul\":20133:20137   */\n      dup2\n        /* \"#utility.yul\":20007:20138   */\n      tag_272\n      jump\t// in\n    tag_475:\n        /* \"#utility.yul\":19999:20138   */\n      swap1\n      pop\n        /* \"#utility.yul\":19726:20145   */\n      swap2\n      swap1\n      pop\n      jump\t// out\n        /* \"#utility.yul\":20151:20331   */\n    tag_78:\n        /* \"#utility.yul\":20199:20276   */\n      0x4e487b7100000000000000000000000000000000000000000000000000000000\n        /* \"#utility.yul\":20196:20197   */\n      0x00\n        /* \"#utility.yul\":20189:20277   */\n      mstore\n        /* \"#utility.yul\":20296:20300   */\n      0x32\n        /* \"#utility.yul\":20293:20294   */\n      0x04\n        /* \"#utility.yul\":20286:20301   */\n      mstore\n        /* \"#utility.yul\":20320:20324   */\n      0x24\n        /* \"#utility.yul\":20317:20318   */\n      0x00\n        /* \"#utility.yul\":20310:20325   */\n      revert\n        /* \"#utility.yul\":20337:20681   */\n    tag_87:\n        /* \"#utility.yul\":20464:20468   */\n      0x00\n        /* \"#utility.yul\":20502:20504   */\n      0x40\n        /* \"#utility.yul\":20491:20500   */\n      dup3\n        /* \"#utility.yul\":20487:20505   */\n      add\n        /* \"#utility.yul\":20479:20505   */\n      swap1\n      pop\n        /* \"#utility.yul\":20515:20586   */\n      tag_478\n        /* \"#utility.yul\":20583:20584   */\n      0x00\n        /* \"#utility.yul\":20572:20581   */\n      dup4\n        /* \"#utility.yul\":20568:20585   */\n      add\n        /* \"#utility.yul\":20559:20565   */\n      dup6\n        /* \"#utility.yul\":20515:20586   */\n      tag_262\n      jump\t// in\n    tag_478:\n        /* \"#utility.yul\":20596:20674   */\n      tag_479\n        /* \"#utility.yul\":20670:20672   */\n      0x20\n        /* \"#utility.yul\":20659:20668   */\n      dup4\n        /* \"#utility.yul\":20655:20673   */\n      add\n        /* \"#utility.yul\":20646:20652   */\n      dup5\n        /* \"#utility.yul\":20596:20674   */\n      tag_261\n      jump\t// in\n    tag_479:\n        /* \"#utility.yul\":20337:20681   */\n      swap4\n      swap3\n      pop\n      pop\n      pop\n      jump\t// out\n        /* \"#utility.yul\":20687:20867   */\n    tag_273:\n        /* \"#utility.yul\":20735:20812   */\n      0x4e487b7100000000000000000000000000000000000000000000000000000000\n        /* \"#utility.yul\":20732:20733   */\n      0x00\n        /* \"#utility.yul\":20725:20813   */\n      mstore\n        /* \"#utility.yul\":20832:20836   */\n      0x22\n        /* \"#utility.yul\":20829:20830   */\n      0x04\n        /* \"#utility.yul\":20822:20837   */\n      mstore\n        /* \"#utility.yul\":20856:20860   */\n      0x24\n        /* \"#utility.yul\":20853:20854   */\n      0x00\n        /* \"#utility.yul\":20846:20861   */\n      revert\n        /* \"#utility.yul\":20873:21193   */\n    tag_89:\n        /* \"#utility.yul\":20917:20923   */\n      0x00\n        /* \"#utility.yul\":20954:20955   */\n      0x02\n        /* \"#utility.yul\":20948:20952   */\n      dup3\n        /* \"#utility.yul\":20944:20956   */\n      div\n        /* \"#utility.yul\":20934:20956   */\n      swap1\n      pop\n        /* \"#utility.yul\":21001:21002   */\n      0x01\n        /* \"#utility.yul\":20995:20999   */\n      dup3\n        /* \"#utility.yul\":20991:21003   */\n      and\n        /* \"#utility.yul\":21022:21040   */\n      dup1\n        /* \"#utility.yul\":21012:21093   */\n      tag_482\n      jumpi\n        /* \"#utility.yul\":21078:21082   */\n      0x7f\n        /* \"#utility.yul\":21070:21076   */\n      dup3\n        /* \"#utility.yul\":21066:21083   */\n      and\n        /* \"#utility.yul\":21056:21083   */\n      swap2\n      pop\n        /* \"#utility.yul\":21012:21093   */\n    tag_482:\n        /* \"#utility.yul\":21140:21142   */\n      0x20\n        /* \"#utility.yul\":21132:21138   */\n      dup3\n        /* \"#utility.yul\":21129:21143   */\n      lt\n        /* \"#utility.yul\":21109:21127   */\n      dup2\n        /* \"#utility.yul\":21106:21144   */\n      sub\n        /* \"#utility.yul\":21103:21187   */\n      tag_483\n      jumpi\n        /* \"#utility.yul\":21159:21177   */\n      tag_484\n      tag_273\n      jump\t// in\n    tag_484:\n        /* \"#utility.yul\":21103:21187   */\n    tag_483:\n        /* \"#utility.yul\":20924:21193   */\n      pop\n        /* \"#utility.yul\":20873:21193   */\n      swap2\n      swap1\n      pop\n      jump\t// out\n        /* \"#utility.yul\":21199:21340   */\n    tag_274:\n        /* \"#utility.yul\":21248:21252   */\n      0x00\n        /* \"#utility.yul\":21271:21274   */\n      dup2\n        /* \"#utility.yul\":21263:21274   */\n      swap1\n      pop\n        /* \"#utility.yul\":21294:21297   */\n      dup2\n        /* \"#utility.yul\":21291:21292   */\n      0x00\n        /* \"#utility.yul\":21284:21298   */\n      mstore\n        /* \"#utility.yul\":21328:21332   */\n      0x20\n        /* \"#utility.yul\":21325:21326   */\n      0x00\n        /* \"#utility.yul\":21315:21333   */\n      keccak256\n        /* \"#utility.yul\":21307:21333   */\n      swap1\n      pop\n        /* \"#utility.yul\":21199:21340   */\n      swap2\n      swap1\n      pop\n      jump\t// out\n        /* \"#utility.yul\":21346:21439   */\n    tag_275:\n        /* \"#utility.yul\":21383:21389   */\n      0x00\n        /* \"#utility.yul\":21430:21432   */\n      0x20\n        /* \"#utility.yul\":21425:21427   */\n      0x1f\n        /* \"#utility.yul\":21418:21423   */\n      dup4\n        /* \"#utility.yul\":21414:21428   */\n      add\n        /* \"#utility.yul\":21410:21433   */\n      div\n        /* \"#utility.yul\":21400:21433   */\n      swap1\n      pop\n        /* \"#utility.yul\":21346:21439   */\n      swap2\n      swap1\n      pop\n      jump\t// out\n        /* \"#utility.yul\":21445:21552   */\n    tag_276:\n        /* \"#utility.yul\":21489:21497   */\n      0x00\n        /* \"#utility.yul\":21539:21544   */\n      dup3\n        /* \"#utility.yul\":21533:21537   */\n      dup3\n        /* \"#utility.yul\":21529:21545   */\n      shl\n        /* \"#utility.yul\":21508:21545   */\n      swap1\n      pop\n        /* \"#utility.yul\":21445:21552   */\n      swap3\n      swap2\n      pop\n      pop\n      jump\t// out\n        /* \"#utility.yul\":21558:21951   */\n    tag_277:\n        /* \"#utility.yul\":21627:21633   */\n      0x00\n        /* \"#utility.yul\":21677:21678   */\n      0x08\n        /* \"#utility.yul\":21665:21675   */\n      dup4\n        /* \"#utility.yul\":21661:21679   */\n      mul\n        /* \"#utility.yul\":21700:21797   */\n      tag_489\n        /* \"#utility.yul\":21730:21796   */\n      0xffffffffffffffffffffffffffffffffffffffffffffffffffffffffffffffff\n        /* \"#utility.yul\":21719:21728   */\n      dup3\n        /* \"#utility.yul\":21700:21797   */\n      tag_276\n      jump\t// in\n    tag_489:\n        /* \"#utility.yul\":21818:21857   */\n      tag_490\n        /* \"#utility.yul\":21848:21856   */\n      dup7\n        /* \"#utility.yul\":21837:21846   */\n      dup4\n        /* \"#utility.yul\":21818:21857   */\n      tag_276\n      jump\t// in\n    tag_490:\n        /* \"#utility.yul\":21806:21857   */\n      swap6\n      pop\n        /* \"#utility.yul\":21890:21894   */\n      dup1\n        /* \"#utility.yul\":21886:21895   */\n      not\n        /* \"#utility.yul\":21879:21884   */\n      dup5\n        /* \"#utility.yul\":21875:21896   */\n      and\n        /* \"#utility.yul\":21866:21896   */\n      swap4\n      pop\n        /* \"#utility.yul\":21939:21943   */\n      dup1\n        /* \"#utility.yul\":21929:21937   */\n      dup7\n        /* \"#utility.yul\":21925:21944   */\n      and\n        /* \"#utility.yul\":21918:21923   */\n      dup5\n        /* \"#utility.yul\":21915:21945   */\n      or\n        /* \"#utility.yul\":21905:21945   */\n      swap3\n      pop\n        /* \"#utility.yul\":21634:21951   */\n      pop\n      pop\n        /* \"#utility.yul\":21558:21951   */\n      swap4\n      swap3\n      pop\n      pop\n      pop\n      jump\t// out\n        /* \"#utility.yul\":21957:22017   */\n    tag_278:\n        /* \"#utility.yul\":21985:21988   */\n      0x00\n        /* \"#utility.yul\":22006:22011   */\n      dup2\n        /* \"#utility.yul\":21999:22011   */\n      swap1\n      pop\n        /* \"#utility.yul\":21957:22017   */\n      swap2\n      swap1\n      pop\n      jump\t// out\n        /* \"#utility.yul\":22023:22165   */\n    tag_279:\n        /* \"#utility.yul\":22073:22082   */\n      0x00\n        /* \"#utility.yul\":22106:22159   */\n      tag_493\n        /* \"#utility.yul\":22124:22158   */\n      tag_494\n        /* \"#utility.yul\":22133:22157   */\n      tag_495\n        /* \"#utility.yul\":22151:22156   */\n      dup5\n        /* \"#utility.yul\":22133:22157   */\n      tag_224\n      jump\t// in\n    tag_495:\n        /* \"#utility.yul\":22124:22158   */\n      tag_278\n      jump\t// in\n    tag_494:\n        /* \"#utility.yul\":22106:22159   */\n      tag_224\n      jump\t// in\n    tag_493:\n        /* \"#utility.yul\":22093:22159   */\n      swap1\n      pop\n        /* \"#utility.yul\":22023:22165   */\n      swap2\n      swap1\n      pop\n      jump\t// out\n        /* \"#utility.yul\":22171:22246   */\n    tag_280:\n        /* \"#utility.yul\":22214:22217   */\n      0x00\n        /* \"#utility.yul\":22235:22240   */\n      dup2\n        /* \"#utility.yul\":22228:22240   */\n      swap1\n      pop\n        /* \"#utility.yul\":22171:22246   */\n      swap2\n      swap1\n      pop\n      jump\t// out\n        /* \"#utility.yul\":22252:22521   */\n    tag_281:\n        /* \"#utility.yul\":22362:22401   */\n      tag_498\n        /* \"#utility.yul\":22393:22400   */\n      dup4\n        /* \"#utility.yul\":22362:22401   */\n      tag_279\n      jump\t// in\n    tag_498:\n        /* \"#utility.yul\":22423:22514   */\n      tag_499\n        /* \"#utility.yul\":22472:22513   */\n      tag_500\n        /* \"#utility.yul\":22496:22512   */\n      dup3\n        /* \"#utility.yul\":22472:22513   */\n      tag_280\n      jump\t// in\n    tag_500:\n        /* \"#utility.yul\":22464:22470   */\n      dup5\n        /* \"#utility.yul\":22457:22461   */\n      dup5\n        /* \"#utility.yul\":22451:22462   */\n      sload\n        /* \"#utility.yul\":22423:22514   */\n      tag_277\n      jump\t// in\n    tag_499:\n        /* \"#utility.yul\":22417:22421   */\n      dup3\n        /* \"#utility.yul\":22410:22515   */\n      sstore\n        /* \"#utility.yul\":22328:22521   */\n      pop\n        /* \"#utility.yul\":22252:22521   */\n      pop\n      pop\n      pop\n      jump\t// out\n        /* \"#utility.yul\":22527:22600   */\n    tag_282:\n        /* \"#utility.yul\":22572:22575   */\n      0x00\n        /* \"#utility.yul\":22593:22594   */\n      0x00\n        /* \"#utility.yul\":22586:22594   */\n      swap1\n      pop\n        /* \"#utility.yul\":22527:22600   */\n      swap1\n      jump\t// out\n        /* \"#utility.yul\":22606:22795   */\n    tag_283:\n        /* \"#utility.yul\":22683:22715   */\n      tag_503\n      tag_282\n      jump\t// in\n    tag_503:\n        /* \"#utility.yul\":22724:22789   */\n      tag_504\n        /* \"#utility.yul\":22782:22788   */\n      dup2\n        /* \"#utility.yul\":22774:22780   */\n      dup5\n        /* \"#utility.yul\":22768:22772   */\n      dup5\n        /* \"#utility.yul\":22724:22789   */\n      tag_281\n      jump\t// in\n    tag_504:\n        /* \"#utility.yul\":22659:22795   */\n      pop\n        /* \"#utility.yul\":22606:22795   */\n      pop\n      pop\n      jump\t// out\n        /* \"#utility.yul\":22801:22987   */\n    tag_284:\n        /* \"#utility.yul\":22861:22981   */\n    tag_506:\n        /* \"#utility.yul\":22878:22881   */\n      dup2\n        /* \"#utility.yul\":22871:22876   */\n      dup2\n        /* \"#utility.yul\":22868:22882   */\n      lt\n        /* \"#utility.yul\":22861:22981   */\n      iszero\n      tag_508\n      jumpi\n        /* \"#utility.yul\":22932:22971   */\n      tag_509\n        /* \"#utility.yul\":22969:22970   */\n      0x00\n        /* \"#utility.yul\":22962:22967   */\n      dup3\n        /* \"#utility.yul\":22932:22971   */\n      tag_283\n      jump\t// in\n    tag_509:\n        /* \"#utility.yul\":22905:22906   */\n      0x01\n        /* \"#utility.yul\":22898:22903   */\n      dup2\n        /* \"#utility.yul\":22894:22907   */\n      add\n        /* \"#utility.yul\":22885:22907   */\n      swap1\n      pop\n        /* \"#utility.yul\":22861:22981   */\n      jump(tag_506)\n    tag_508:\n        /* \"#utility.yul\":22801:22987   */\n      pop\n      pop\n      jump\t// out\n        /* \"#utility.yul\":22993:23536   */\n    tag_285:\n        /* \"#utility.yul\":23094:23096   */\n      0x1f\n        /* \"#utility.yul\":23089:23092   */\n      dup3\n        /* \"#utility.yul\":23086:23097   */\n      gt\n        /* \"#utility.yul\":23083:23529   */\n      iszero\n      tag_511\n      jumpi\n        /* \"#utility.yul\":23128:23166   */\n      tag_512\n        /* \"#utility.yul\":23160:23165   */\n      dup2\n        /* \"#utility.yul\":23128:23166   */\n      tag_274\n      jump\t// in\n    tag_512:\n        /* \"#utility.yul\":23212:23241   */\n      tag_513\n        /* \"#utility.yul\":23230:23240   */\n      dup5\n        /* \"#utility.yul\":23212:23241   */\n      tag_275\n      jump\t// in\n    tag_513:\n        /* \"#utility.yul\":23202:23210   */\n      dup2\n        /* \"#utility.yul\":23198:23242   */\n      add\n        /* \"#utility.yul\":23395:23397   */\n      0x20\n        /* \"#utility.yul\":23383:23393   */\n      dup6\n        /* \"#utility.yul\":23380:23398   */\n      lt\n        /* \"#utility.yul\":23377:23426   */\n      iszero\n      tag_514\n      jumpi\n        /* \"#utility.yul\":23416:23424   */\n      dup2\n        /* \"#utility.yul\":23401:23424   */\n      swap1\n      pop\n        /* \"#utility.yul\":23377:23426   */\n    tag_514:\n        /* \"#utility.yul\":23439:23519   */\n      tag_515\n        /* \"#utility.yul\":23495:23517   */\n      tag_516\n        /* \"#utility.yul\":23513:23516   */\n      dup6\n        /* \"#utility.yul\":23495:23517   */\n      tag_275\n      jump\t// in\n    tag_516:\n        /* \"#utility.yul\":23485:23493   */\n      dup4\n        /* \"#utility.yul\":23481:23518   */\n      add\n        /* \"#utility.yul\":23468:23479   */\n      dup3\n        /* \"#utility.yul\":23439:23519   */\n      tag_284\n      jump\t// in\n    tag_515:\n        /* \"#utility.yul\":23098:23529   */\n      pop\n      pop\n        /* \"#utility.yul\":23083:23529   */\n    tag_511:\n        /* \"#utility.yul\":22993:23536   */\n      pop\n      pop\n      pop\n      jump\t// out\n        /* \"#utility.yul\":23542:23659   */\n    tag_286:\n        /* \"#utility.yul\":23596:23604   */\n      0x00\n        /* \"#utility.yul\":23646:23651   */\n      dup3\n        /* \"#utility.yul\":23640:23644   */\n      dup3\n        /* \"#utility.yul\":23636:23652   */\n      shr\n        /* \"#utility.yul\":23615:23652   */\n      swap1\n      pop\n        /* \"#utility.yul\":23542:23659   */\n      swap3\n      swap2\n      pop\n      pop\n      jump\t// out\n        /* \"#utility.yul\":23665:23834   */\n    tag_287:\n        /* \"#utility.yul\":23709:23715   */\n      0x00\n        /* \"#utility.yul\":23742:23793   */\n      tag_519\n        /* \"#utility.yul\":23790:23791   */\n      0x00\n        /* \"#utility.yul\":23786:23792   */\n      not\n        /* \"#utility.yul\":23778:23783   */\n      dup5\n        /* \"#utility.yul\":23775:23776   */\n      0x08\n        /* \"#utility.yul\":23771:23784   */\n      mul\n        /* \"#utility.yul\":23742:23793   */\n      tag_286\n      jump\t// in\n    tag_519:\n        /* \"#utility.yul\":23738:23794   */\n      not\n        /* \"#utility.yul\":23823:23827   */\n      dup1\n        /* \"#utility.yul\":23817:23821   */\n      dup4\n        /* \"#utility.yul\":23813:23828   */\n      and\n        /* \"#utility.yul\":23803:23828   */\n      swap2\n      pop\n        /* \"#utility.yul\":23716:23834   */\n      pop\n        /* \"#utility.yul\":23665:23834   */\n      swap3\n      swap2\n      pop\n      pop\n      jump\t// out\n        /* \"#utility.yul\":23839:24134   */\n    tag_288:\n        /* \"#utility.yul\":23915:23919   */\n      0x00\n        /* \"#utility.yul\":24061:24090   */\n      tag_521\n        /* \"#utility.yul\":24086:24089   */\n      dup4\n        /* \"#utility.yul\":24080:24084   */\n      dup4\n        /* \"#utility.yul\":24061:24090   */\n      tag_287\n      jump\t// in\n    tag_521:\n        /* \"#utility.yul\":24053:24090   */\n      swap2\n      pop\n        /* \"#utility.yul\":24123:24126   */\n      dup3\n        /* \"#utility.yul\":24120:24121   */\n      0x02\n        /* \"#utility.yul\":24116:24127   */\n      mul\n        /* \"#utility.yul\":24110:24114   */\n      dup3\n        /* \"#utility.yul\":24107:24128   */\n      or\n        /* \"#utility.yul\":24099:24128   */\n      swap1\n      pop\n        /* \"#utility.yul\":23839:24134   */\n      swap3\n      swap2\n      pop\n      pop\n      jump\t// out\n        /* \"#utility.yul\":24139:25534   */\n    tag_101:\n        /* \"#utility.yul\":24256:24293   */\n      tag_523\n        /* \"#utility.yul\":24289:24292   */\n      dup3\n        /* \"#utility.yul\":24256:24293   */\n      tag_230\n      jump\t// in\n    tag_523:\n        /* \"#utility.yul\":24358:24376   */\n      0xffffffffffffffff\n        /* \"#utility.yul\":24350:24356   */\n      dup2\n        /* \"#utility.yul\":24347:24377   */\n      gt\n        /* \"#utility.yul\":24344:24400   */\n      iszero\n      tag_524\n      jumpi\n        /* \"#utility.yul\":24380:24398   */\n      tag_525\n      tag_159\n      jump\t// in\n    tag_525:\n        /* \"#utility.yul\":24344:24400   */\n    tag_524:\n        /* \"#utility.yul\":24424:24462   */\n      tag_526\n        /* \"#utility.yul\":24456:24460   */\n      dup3\n        /* \"#utility.yul\":24450:24461   */\n      sload\n        /* \"#utility.yul\":24424:24462   */\n      tag_89\n      jump\t// in\n    tag_526:\n        /* \"#utility.yul\":24509:24576   */\n      tag_527\n        /* \"#utility.yul\":24569:24575   */\n      dup3\n        /* \"#utility.yul\":24561:24567   */\n      dup3\n        /* \"#utility.yul\":24555:24559   */\n      dup6\n        /* \"#utility.yul\":24509:24576   */\n      tag_285\n      jump\t// in\n    tag_527:\n        /* \"#utility.yul\":24603:24604   */\n      0x00\n        /* \"#utility.yul\":24627:24631   */\n      0x20\n        /* \"#utility.yul\":24614:24631   */\n      swap1\n      pop\n        /* \"#utility.yul\":24659:24661   */\n      0x1f\n        /* \"#utility.yul\":24651:24657   */\n      dup4\n        /* \"#utility.yul\":24648:24662   */\n      gt\n        /* \"#utility.yul\":24676:24677   */\n      0x01\n        /* \"#utility.yul\":24671:25289   */\n      dup2\n      eq\n      tag_529\n      jumpi\n        /* \"#utility.yul\":25333:25334   */\n      0x00\n        /* \"#utility.yul\":25350:25356   */\n      dup5\n        /* \"#utility.yul\":25347:25424   */\n      iszero\n      tag_530\n      jumpi\n        /* \"#utility.yul\":25399:25408   */\n      dup3\n        /* \"#utility.yul\":25394:25397   */\n      dup8\n        /* \"#utility.yul\":25390:25409   */\n      add\n        /* \"#utility.yul\":25384:25410   */\n      mload\n        /* \"#utility.yul\":25375:25410   */\n      swap1\n      pop\n        /* \"#utility.yul\":25347:25424   */\n    tag_530:\n        /* \"#utility.yul\":25450:25517   */\n      tag_531\n        /* \"#utility.yul\":25510:25516   */\n      dup6\n        /* \"#utility.yul\":25503:25508   */\n      dup3\n        /* \"#utility.yul\":25450:25517   */\n      tag_288\n      jump\t// in\n    tag_531:\n        /* \"#utility.yul\":25444:25448   */\n      dup7\n        /* \"#utility.yul\":25437:25518   */\n      sstore\n        /* \"#utility.yul\":25306:25528   */\n      pop\n        /* \"#utility.yul\":24641:25528   */\n      jump(tag_528)\n        /* \"#utility.yul\":24671:25289   */\n    tag_529:\n        /* \"#utility.yul\":24723:24727   */\n      0x1f\n        /* \"#utility.yul\":24719:24728   */\n      not\n        /* \"#utility.yul\":24711:24717   */\n      dup5\n        /* \"#utility.yul\":24707:24729   */\n      and\n        /* \"#utility.yul\":24757:24794   */\n      tag_532\n        /* \"#utility.yul\":24789:24793   */\n      dup7\n        /* \"#utility.yul\":24757:24794   */\n      tag_274\n      jump\t// in\n    tag_532:\n        /* \"#utility.yul\":24816:24817   */\n      0x00\n        /* \"#utility.yul\":24830:25038   */\n    tag_533:\n        /* \"#utility.yul\":24844:24851   */\n      dup3\n        /* \"#utility.yul\":24841:24842   */\n      dup2\n        /* \"#utility.yul\":24838:24852   */\n      lt\n        /* \"#utility.yul\":24830:25038   */\n      iszero\n      tag_535\n      jumpi\n        /* \"#utility.yul\":24923:24932   */\n      dup5\n        /* \"#utility.yul\":24918:24921   */\n      dup10\n        /* \"#utility.yul\":24914:24933   */\n      add\n        /* \"#utility.yul\":24908:24934   */\n      mload\n        /* \"#utility.yul\":24900:24906   */\n      dup3\n        /* \"#utility.yul\":24893:24935   */\n      sstore\n        /* \"#utility.yul\":24974:24975   */\n      0x01\n        /* \"#utility.yul\":24966:24972   */\n      dup3\n        /* \"#utility.yul\":24962:24976   */\n      add\n        /* \"#utility.yul\":24952:24976   */\n      swap2\n      pop\n        /* \"#utility.yul\":25021:25023   */\n      0x20\n        /* \"#utility.yul\":25010:25019   */\n      dup6\n        /* \"#utility.yul\":25006:25024   */\n      add\n        /* \"#utility.yul\":24993:25024   */\n      swap5\n      pop\n        /* \"#utility.yul\":24867:24871   */\n      0x20\n        /* \"#utility.yul\":24864:24865   */\n      dup2\n        /* \"#utility.yul\":24860:24872   */\n      add\n        /* \"#utility.yul\":24855:24872   */\n      swap1\n      pop\n        /* \"#utility.yul\":24830:25038   */\n      jump(tag_533)\n    tag_535:\n        /* \"#utility.yul\":25066:25072   */\n      dup7\n        /* \"#utility.yul\":25057:25064   */\n      dup4\n        /* \"#utility.yul\":25054:25073   */\n      lt\n        /* \"#utility.yul\":25051:25230   */\n      iszero\n      tag_536\n      jumpi\n        /* \"#utility.yul\":25124:25133   */\n      dup5\n        /* \"#utility.yul\":25119:25122   */\n      dup10\n        /* \"#utility.yul\":25115:25134   */\n      add\n        /* \"#utility.yul\":25109:25135   */\n      mload\n        /* \"#utility.yul\":25167:25215   */\n      tag_537\n        /* \"#utility.yul\":25209:25213   */\n      0x1f\n        /* \"#utility.yul\":25201:25207   */\n      dup10\n        /* \"#utility.yul\":25197:25214   */\n      and\n        /* \"#utility.yul\":25186:25195   */\n      dup3\n        /* \"#utility.yul\":25167:25215   */\n      tag_287\n      jump\t// in\n    tag_537:\n        /* \"#utility.yul\":25159:25165   */\n      dup4\n        /* \"#utility.yul\":25152:25216   */\n      sstore\n        /* \"#utility.yul\":25074:25230   */\n      pop\n        /* \"#utility.yul\":25051:25230   */\n    tag_536:\n        /* \"#utility.yul\":25276:25277   */\n      0x01\n        /* \"#utility.yul\":25272:25273   */\n      0x02\n        /* \"#utility.yul\":25264:25270   */\n      dup9\n        /* \"#utility.yul\":25260:25274   */\n      mul\n        /* \"#utility.yul\":25256:25278   */\n      add\n        /* \"#utility.yul\":25250:25254   */\n      dup9\n        /* \"#utility.yul\":25243:25279   */\n      sstore\n        /* \"#utility.yul\":24678:25289   */\n      pop\n      pop\n      pop\n        /* \"#utility.yul\":24641:25528   */\n    tag_528:\n      pop\n        /* \"#utility.yul\":24231:25534   */\n      pop\n      pop\n      pop\n        /* \"#utility.yul\":24139:25534   */\n      pop\n      pop\n      jump\t// out\n        /* \"#utility.yul\":25540:26054   */\n    tag_108:\n        /* \"#utility.yul\":25701:25705   */\n      0x00\n        /* \"#utility.yul\":25739:25741   */\n      0x40\n        /* \"#utility.yul\":25728:25737   */\n      dup3\n        /* \"#utility.yul\":25724:25742   */\n      add\n        /* \"#utility.yul\":25716:25742   */\n      swap1\n      pop\n        /* \"#utility.yul\":25788:25797   */\n      dup2\n        /* \"#utility.yul\":25782:25786   */\n      dup2\n        /* \"#utility.yul\":25778:25798   */\n      sub\n        /* \"#utility.yul\":25774:25775   */\n      0x00\n        /* \"#utility.yul\":25763:25772   */\n      dup4\n        /* \"#utility.yul\":25759:25776   */\n      add\n        /* \"#utility.yul\":25752:25799   */\n      mstore\n        /* \"#utility.yul\":25816:25894   */\n      tag_539\n        /* \"#utility.yul\":25889:25893   */\n      dup2\n        /* \"#utility.yul\":25880:25886   */\n      dup6\n        /* \"#utility.yul\":25816:25894   */\n      tag_234\n      jump\t// in\n    tag_539:\n        /* \"#utility.yul\":25808:25894   */\n      swap1\n      pop\n        /* \"#utility.yul\":25941:25950   */\n      dup2\n        /* \"#utility.yul\":25935:25939   */\n      dup2\n        /* \"#utility.yul\":25931:25951   */\n      sub\n        /* \"#utility.yul\":25926:25928   */\n      0x20\n        /* \"#utility.yul\":25915:25924   */\n      dup4\n        /* \"#utility.yul\":25911:25929   */\n      add\n        /* \"#utility.yul\":25904:25952   */\n      mstore\n        /* \"#utility.yul\":25969:26047   */\n      tag_540\n        /* \"#utility.yul\":26042:26046   */\n      dup2\n        /* \"#utility.yul\":26033:26039   */\n      dup5\n        /* \"#utility.yul\":25969:26047   */\n      tag_234\n      jump\t// in\n    tag_540:\n        /* \"#utility.yul\":25961:26047   */\n      swap1\n      pop\n        /* \"#utility.yul\":25540:26054   */\n      swap4\n      swap3\n      pop\n      pop\n      pop\n      jump\t// out\n        /* \"#utility.yul\":26060:26240   */\n    tag_289:\n        /* \"#utility.yul\":26108:26185   */\n      0x4e487b7100000000000000000000000000000000000000000000000000000000\n        /* \"#utility.yul\":26105:26106   */\n      0x00\n        /* \"#utility.yul\":26098:26186   */\n      mstore\n        /* \"#utility.yul\":26205:26209   */\n      0x11\n        /* \"#utility.yul\":26202:26203   */\n      0x04\n        /* \"#utility.yul\":26195:26210   */\n      mstore\n        /* \"#utility.yul\":26229:26233   */\n      0x24\n        /* \"#utility.yul\":26226:26227   */\n      0x00\n        /* \"#utility.yul\":26219:26234   */\n      revert\n        /* \"#utility.yul\":26246:26479   */\n    tag_156:\n        /* \"#utility.yul\":26285:26288   */\n      0x00\n        /* \"#utility.yul\":26308:26332   */\n      tag_543\n        /* \"#utility.yul\":26326:26331   */\n      dup3\n        /* \"#utility.yul\":26308:26332   */\n      tag_224\n      jump\t// in\n    tag_543:\n        /* \"#utility.yul\":26299:26332   */\n      swap2\n      pop\n        /* \"#utility.yul\":26354:26420   */\n      0xffffffffffffffffffffffffffffffffffffffffffffffffffffffffffffffff\n        /* \"#utility.yul\":26347:26352   */\n      dup3\n        /* \"#utility.yul\":26344:26421   */\n      sub\n        /* \"#utility.yul\":26341:26444   */\n      tag_544\n      jumpi\n        /* \"#utility.yul\":26424:26442   */\n      tag_545\n      tag_289\n      jump\t// in\n    tag_545:\n        /* \"#utility.yul\":26341:26444   */\n    tag_544:\n        /* \"#utility.yul\":26471:26472   */\n      0x01\n        /* \"#utility.yul\":26464:26469   */\n      dup3\n        /* \"#utility.yul\":26460:26473   */\n      add\n        /* \"#utility.yul\":26453:26473   */\n      swap1\n      pop\n        /* \"#utility.yul\":26246:26479   */\n      swap2\n      swap1\n      pop\n      jump\t// out\n\n    auxdata: 0xa2646970667358221220e39b4159f2792d692bd17685abd43cc00d546868d67ed065370fa8689847c20a64736f6c634300081e0033\n}\n",
				"bytecode": {
					"linkReferences": {},
					"object": "608060405234801561000f575f5ffd5b506040516126493803806126498339818101604052810190610031919061022e565b815f5f6101000a81548173ffffffffffffffffffffffffffffffffffffffff021916908373ffffffffffffffffffffffffffffffffffffffff160217905550806001908161007f9190610498565b505050610567565b5f604051905090565b5f5ffd5b5f5ffd5b5f73ffffffffffffffffffffffffffffffffffffffff82169050919050565b5f6100c182610098565b9050919050565b6100d1816100b7565b81146100db575f5ffd5b50565b5f815190506100ec816100c8565b92915050565b5f5ffd5b5f5ffd5b5f601f19601f8301169050919050565b7f4e487b71000000000000000000000000000000000000000000000000000000005f52604160045260245ffd5b610140826100fa565b810181811067ffffffffffffffff8211171561015f5761015e61010a565b5b80604052505050565b5f610171610087565b905061017d8282610137565b919050565b5f67ffffffffffffffff82111561019c5761019b61010a565b5b6101a5826100fa565b9050602081019050919050565b8281835e5f83830152505050565b5f6101d26101cd84610182565b610168565b9050828152602081018484840111156101ee576101ed6100f6565b5b6101f98482856101b2565b509392505050565b5f82601f830112610215576102146100f2565b5b81516102258482602086016101c0565b91505092915050565b5f5f6040838503121561024457610243610090565b5b5f610251858286016100de565b925050602083015167ffffffffffffffff81111561027257610271610094565b5b61027e85828601610201565b9150509250929050565b5f81519050919050565b7f4e487b71000000000000000000000000000000000000000000000000000000005f52602260045260245ffd5b5f60028204905060018216806102d657607f821691505b6020821081036102e9576102e8610292565b5b50919050565b5f819050815f5260205f209050919050565b5f6020601f8301049050919050565b5f82821b905092915050565b5f6008830261034b7fffffffffffffffffffffffffffffffffffffffffffffffffffffffffffffffff82610310565b6103558683610310565b95508019841693508086168417925050509392505050565b5f819050919050565b5f819050919050565b5f61039961039461038f8461036d565b610376565b61036d565b9050919050565b5f819050919050565b6103b28361037f565b6103c66103be826103a0565b84845461031c565b825550505050565b5f5f905090565b6103dd6103ce565b6103e88184846103a9565b505050565b5b8181101561040b576104005f826103d5565b6001810190506103ee565b5050565b601f82111561045057610421816102ef565b61042a84610301565b81016020851015610439578190505b61044d61044585610301565b8301826103ed565b50505b505050565b5f82821c905092915050565b5f6104705f1984600802610455565b1980831691505092915050565b5f6104888383610461565b9150826002028217905092915050565b6104a182610288565b67ffffffffffffffff8111156104ba576104b961010a565b5b6104c482546102bf565b6104cf82828561040f565b5f60209050601f831160018114610500575f84156104ee578287015190505b6104f8858261047d565b86555061055f565b601f19841661050e866102ef565b5f5b8281101561053557848901518255600182019150602085019450602081019050610510565b86831015610552578489015161054e601f891682610461565b8355505b6001600288020188555050505b505050505050565b6120d5806105745f395ff3fe608060405234801561000f575f5ffd5b50600436106100a7575f3560e01c806359ded5381161006f57806359ded5381461014f5780636224f36f1461017f5780638fb97378146101af578063cee4f70b146101df578063da5cd4531461020f578063e2842d7914610243576100a7565b80630ef3eb8b146100ab5780631386dc2d146100c7578063365b98b2146100e55780634464fe33146101155780635954397314610131575b5f5ffd5b6100c560048036038101906100c09190611493565b610261565b005b6100cf6104c5565b6040516100dc9190611553565b60405180910390f35b6100ff60048036038101906100fa9190611573565b610551565b60405161010c91906115ad565b60405180910390f35b61012f600480360381019061012a91906116f2565b61058c565b005b610139610842565b60405161014691906115ad565b60405180910390f35b61016960048036038101906101649190611768565b610866565b60405161017691906119a1565b60405180910390f35b61019960048036038101906101949190611768565b610ab8565b6040516101a691906119d0565b60405180910390f35b6101c960048036038101906101c49190611768565b610ad5565b6040516101d691906119a1565b60405180910390f35b6101f960048036038101906101f491906119e9565b610eac565b6040516102069190611aa1565b60405180910390f35b610229600480360381019061022491906119e9565b61115d565b60405161023a959493929190611adf565b60405180910390f35b61024b6112e1565b6040516102589190611be6565b60405180910390f35b5f5f9054906101000a900473ffffffffffffffffffffffffffffffffffffffff1673ffffffffffffffffffffffffffffffffffffffff163373ffffffffffffffffffffffffffffffffffffffff16146102ef576040517f08c379a00000000000000000000000000000000000000000000000000000000081526004016102e690611c50565b60405180910390fd5b60025f8473ffffffffffffffffffffffffffffffffffffffff1673ffffffffffffffffffffffffffffffffffffffff1681526020019081526020015f20805490508210610371576040517f08c379a000000000000000000000000000000000000000000000000000000000815260040161036890611cb8565b60405180910390fd5b8061037d576002610380565b60015b60025f8573ffffffffffffffffffffffffffffffffffffffff1673ffffffffffffffffffffffffffffffffffffffff1681526020019081526020015f2083815481106103cf576103ce611cd6565b5b905f5260205f20906004020160020160146101000a81548160ff02191690836002811115610400576103ff611813565b5b02179055508273ffffffffffffffffffffffffffffffffffffffff167f1a89217130676043c8af061fa235971f4a763da41aeb98d04fa1043034d9e2e58360025f8773ffffffffffffffffffffffffffffffffffffffff1673ffffffffffffffffffffffffffffffffffffffff1681526020019081526020015f20858154811061048d5761048c611cd6565b5b905f5260205f20906004020160020160149054906101000a900460ff166040516104b8929190611d03565b60405180910390a2505050565b600180546104d290611d57565b80601f01602080910402602001604051908101604052809291908181526020018280546104fe90611d57565b80156105495780601f1061052057610100808354040283529160200191610549565b820191905f5260205f20905b81548152906001019060200180831161052c57829003601f168201915b505050505081565b60038181548110610560575f80fd5b905f5260205f20015f915054906101000a900473ffffffffffffffffffffffffffffffffffffffff1681565b60025f3373ffffffffffffffffffffffffffffffffffffffff1673ffffffffffffffffffffffffffffffffffffffff1681526020019081526020015f206040518060a001604052808481526020018381526020013373ffffffffffffffffffffffffffffffffffffffff1681526020015f600281111561060f5761060e611813565b5b815260200142815250908060018154018082558091505060019003905f5260205f2090600402015f909190919091505f820151815f0190816106519190611f27565b5060208201518160010190816106679190611f27565b506040820151816002015f6101000a81548173ffffffffffffffffffffffffffffffffffffffff021916908373ffffffffffffffffffffffffffffffffffffffff16021790555060608201518160020160146101000a81548160ff021916908360028111156106d9576106d8611813565b5b021790555060808201518160030155505060045f3373ffffffffffffffffffffffffffffffffffffffff1673ffffffffffffffffffffffffffffffffffffffff1681526020019081526020015f205f9054906101000a900460ff166107ee57600333908060018154018082558091505060019003905f5260205f20015f9091909190916101000a81548173ffffffffffffffffffffffffffffffffffffffff021916908373ffffffffffffffffffffffffffffffffffffffff160217905550600160045f3373ffffffffffffffffffffffffffffffffffffffff1673ffffffffffffffffffffffffffffffffffffffff1681526020019081526020015f205f6101000a81548160ff0219169083151502179055505b3373ffffffffffffffffffffffffffffffffffffffff167f63630f357f7a0fe7466b2c369dab72c6b5e951f8e9c0de24fa8f4ee1d10c62d98383604051610836929190611ff6565b60405180910390a25050565b5f5f9054906101000a900473ffffffffffffffffffffffffffffffffffffffff1681565b606060025f8373ffffffffffffffffffffffffffffffffffffffff1673ffffffffffffffffffffffffffffffffffffffff1681526020019081526020015f20805480602002602001604051908101604052809291908181526020015f905b82821015610aad578382905f5260205f2090600402016040518060a00160405290815f820180546108f490611d57565b80601f016020809104026020016040519081016040528092919081815260200182805461092090611d57565b801561096b5780601f106109425761010080835404028352916020019161096b565b820191905f5260205f20905b81548152906001019060200180831161094e57829003601f168201915b5050505050815260200160018201805461098490611d57565b80601f01602080910402602001604051908101604052809291908181526020018280546109b090611d57565b80156109fb5780601f106109d2576101008083540402835291602001916109fb565b820191905f5260205f20905b8154815290600101906020018083116109de57829003601f168201915b50505050508152602001600282015f9054906101000a900473ffffffffffffffffffffffffffffffffffffffff1673ffffffffffffffffffffffffffffffffffffffff1673ffffffffffffffffffffffffffffffffffffffff1681526020016002820160149054906101000a900460ff166002811115610a7e57610a7d611813565b5b6002811115610a9057610a8f611813565b5b8152602001600382015481525050815260200190600101906108c4565b505050509050919050565b6004602052805f5260405f205f915054906101000a900460ff1681565b60605f60025f8473ffffffffffffffffffffffffffffffffffffffff1673ffffffffffffffffffffffffffffffffffffffff1681526020019081526020015f20805480602002602001604051908101604052809291908181526020015f905b82821015610d1d578382905f5260205f2090600402016040518060a00160405290815f82018054610b6490611d57565b80601f0160208091040260200160405190810160405280929190818152602001828054610b9090611d57565b8015610bdb5780601f10610bb257610100808354040283529160200191610bdb565b820191905f5260205f20905b815481529060010190602001808311610bbe57829003601f168201915b50505050508152602001600182018054610bf490611d57565b80601f0160208091040260200160405190810160405280929190818152602001828054610c2090611d57565b8015610c6b5780601f10610c4257610100808354040283529160200191610c6b565b820191905f5260205f20905b815481529060010190602001808311610c4e57829003601f168201915b50505050508152602001600282015f9054906101000a900473ffffffffffffffffffffffffffffffffffffffff1673ffffffffffffffffffffffffffffffffffffffff1673ffffffffffffffffffffffffffffffffffffffff1681526020016002820160149054906101000a900460ff166002811115610cee57610ced611813565b5b6002811115610d0057610cff611813565b5b815260200160038201548152505081526020019060010190610b34565b5050505090505f5f5f90505b8251811015610d985760016002811115610d4657610d45611813565b5b838281518110610d5957610d58611cd6565b5b6020026020010151606001516002811115610d7757610d76611813565b5b03610d8b578180610d8790612058565b9250505b8080600101915050610d29565b505f8167ffffffffffffffff811115610db457610db36115ce565b5b604051908082528060200260200182016040528015610ded57816020015b610dda61136c565b815260200190600190039081610dd25790505b5090505f5f90505f5f90505b8451811015610e9f5760016002811115610e1657610e15611813565b5b858281518110610e2957610e28611cd6565b5b6020026020010151606001516002811115610e4757610e46611813565b5b03610e9257848181518110610e5f57610e5e611cd6565b5b6020026020010151838380610e7390612058565b945081518110610e8657610e85611cd6565b5b60200260200101819052505b8080600101915050610df9565b5081945050505050919050565b610eb461136c565b60025f8473ffffffffffffffffffffffffffffffffffffffff1673ffffffffffffffffffffffffffffffffffffffff1681526020019081526020015f20805490508210610f36576040517f08c379a0000000000000000000000000000000000000000000000000000000008152600401610f2d90611cb8565b60405180910390fd5b60025f8473ffffffffffffffffffffffffffffffffffffffff1673ffffffffffffffffffffffffffffffffffffffff1681526020019081526020015f208281548110610f8557610f84611cd6565b5b905f5260205f2090600402016040518060a00160405290815f82018054610fab90611d57565b80601f0160208091040260200160405190810160405280929190818152602001828054610fd790611d57565b80156110225780601f10610ff957610100808354040283529160200191611022565b820191905f5260205f20905b81548152906001019060200180831161100557829003601f168201915b5050505050815260200160018201805461103b90611d57565b80601f016020809104026020016040519081016040528092919081815260200182805461106790611d57565b80156110b25780601f10611089576101008083540402835291602001916110b2565b820191905f5260205f20905b81548152906001019060200180831161109557829003601f168201915b50505050508152602001600282015f9054906101000a900473ffffffffffffffffffffffffffffffffffffffff1673ffffffffffffffffffffffffffffffffffffffff1673ffffffffffffffffffffffffffffffffffffffff1681526020016002820160149054906101000a900460ff16600281111561113557611134611813565b5b600281111561114757611146611813565b5b8152602001600382015481525050905092915050565b6002602052815f5260405f208181548110611176575f80fd5b905f5260205f2090600402015f9150915050805f01805461119690611d57565b80601f01602080910402602001604051908101604052809291908181526020018280546111c290611d57565b801561120d5780601f106111e45761010080835404028352916020019161120d565b820191905f5260205f20905b8154815290600101906020018083116111f057829003601f168201915b50505050509080600101805461122290611d57565b80601f016020809104026020016040519081016040528092919081815260200182805461124e90611d57565b80156112995780601f1061127057610100808354040283529160200191611299565b820191905f5260205f20905b81548152906001019060200180831161127c57829003601f168201915b505050505090806002015f9054906101000a900473ffffffffffffffffffffffffffffffffffffffff16908060020160149054906101000a900460ff16908060030154905085565b6060600380548060200260200160405190810160405280929190818152602001828054801561136257602002820191905f5260205f20905b815f9054906101000a900473ffffffffffffffffffffffffffffffffffffffff1673ffffffffffffffffffffffffffffffffffffffff1681526020019060010190808311611319575b5050505050905090565b6040518060a0016040528060608152602001606081526020015f73ffffffffffffffffffffffffffffffffffffffff1681526020015f60028111156113b4576113b3611813565b5b81526020015f81525090565b5f604051905090565b5f5ffd5b5f5ffd5b5f73ffffffffffffffffffffffffffffffffffffffff82169050919050565b5f6113fa826113d1565b9050919050565b61140a816113f0565b8114611414575f5ffd5b50565b5f8135905061142581611401565b92915050565b5f819050919050565b61143d8161142b565b8114611447575f5ffd5b50565b5f8135905061145881611434565b92915050565b5f8115159050919050565b6114728161145e565b811461147c575f5ffd5b50565b5f8135905061148d81611469565b92915050565b5f5f5f606084860312156114aa576114a96113c9565b5b5f6114b786828701611417565b93505060206114c88682870161144a565b92505060406114d98682870161147f565b9150509250925092565b5f81519050919050565b5f82825260208201905092915050565b8281835e5f83830152505050565b5f601f19601f8301169050919050565b5f611525826114e3565b61152f81856114ed565b935061153f8185602086016114fd565b6115488161150b565b840191505092915050565b5f6020820190508181035f83015261156b818461151b565b905092915050565b5f60208284031215611588576115876113c9565b5b5f6115958482850161144a565b91505092915050565b6115a7816113f0565b82525050565b5f6020820190506115c05f83018461159e565b92915050565b5f5ffd5b5f5ffd5b7f4e487b71000000000000000000000000000000000000000000000000000000005f52604160045260245ffd5b6116048261150b565b810181811067ffffffffffffffff82111715611623576116226115ce565b5b80604052505050565b5f6116356113c0565b905061164182826115fb565b919050565b5f67ffffffffffffffff8211156116605761165f6115ce565b5b6116698261150b565b9050602081019050919050565b828183375f83830152505050565b5f61169661169184611646565b61162c565b9050828152602081018484840111156116b2576116b16115ca565b5b6116bd848285611676565b509392505050565b5f82601f8301126116d9576116d86115c6565b5b81356116e9848260208601611684565b91505092915050565b5f5f60408385031215611708576117076113c9565b5b5f83013567ffffffffffffffff811115611725576117246113cd565b5b611731858286016116c5565b925050602083013567ffffffffffffffff811115611752576117516113cd565b5b61175e858286016116c5565b9150509250929050565b5f6020828403121561177d5761177c6113c9565b5b5f61178a84828501611417565b91505092915050565b5f81519050919050565b5f82825260208201905092915050565b5f819050602082019050919050565b5f82825260208201905092915050565b5f6117d6826114e3565b6117e081856117bc565b93506117f08185602086016114fd565b6117f98161150b565b840191505092915050565b61180d816113f0565b82525050565b7f4e487b71000000000000000000000000000000000000000000000000000000005f52602160045260245ffd5b6003811061185157611850611813565b5b50565b5f81905061186182611840565b919050565b5f61187082611854565b9050919050565b61188081611866565b82525050565b61188f8161142b565b82525050565b5f60a083015f8301518482035f8601526118af82826117cc565b915050602083015184820360208601526118c982826117cc565b91505060408301516118de6040860182611804565b5060608301516118f16060860182611877565b5060808301516119046080860182611886565b508091505092915050565b5f61191a8383611895565b905092915050565b5f602082019050919050565b5f61193882611793565b611942818561179d565b935083602082028501611954856117ad565b805f5b8581101561198f5784840389528151611970858261190f565b945061197b83611922565b925060208a01995050600181019050611957565b50829750879550505050505092915050565b5f6020820190508181035f8301526119b9818461192e565b905092915050565b6119ca8161145e565b82525050565b5f6020820190506119e35f8301846119c1565b92915050565b5f5f604083850312156119ff576119fe6113c9565b5b5f611a0c85828601611417565b9250506020611a1d8582860161144a565b9150509250929050565b5f60a083015f8301518482035f860152611a4182826117cc565b91505060208301518482036020860152611a5b82826117cc565b9150506040830151611a706040860182611804565b506060830151611a836060860182611877565b506080830151611a966080860182611886565b508091505092915050565b5f6020820190508181035f830152611ab98184611a27565b905092915050565b611aca81611866565b82525050565b611ad98161142b565b82525050565b5f60a0820190508181035f830152611af7818861151b565b90508181036020830152611b0b818761151b565b9050611b1a604083018661159e565b611b276060830185611ac1565b611b346080830184611ad0565b9695505050505050565b5f81519050919050565b5f82825260208201905092915050565b5f819050602082019050919050565b5f611b728383611804565b60208301905092915050565b5f602082019050919050565b5f611b9482611b3e565b611b9e8185611b48565b9350611ba983611b58565b805f5b83811015611bd9578151611bc08882611b67565b9750611bcb83611b7e565b925050600181019050611bac565b5085935050505092915050565b5f6020820190508181035f830152611bfe8184611b8a565b905092915050565b7f4f6e6c79204f72672041646d696e0000000000000000000000000000000000005f82015250565b5f611c3a600e836114ed565b9150611c4582611c06565b602082019050919050565b5f6020820190508181035f830152611c6781611c2e565b9050919050565b7f496e76616c696420696e646578000000000000000000000000000000000000005f82015250565b5f611ca2600d836114ed565b9150611cad82611c6e565b602082019050919050565b5f6020820190508181035f830152611ccf81611c96565b9050919050565b7f4e487b71000000000000000000000000000000000000000000000000000000005f52603260045260245ffd5b5f604082019050611d165f830185611ad0565b611d236020830184611ac1565b9392505050565b7f4e487b71000000000000000000000000000000000000000000000000000000005f52602260045260245ffd5b5f6002820490506001821680611d6e57607f821691505b602082108103611d8157611d80611d2a565b5b50919050565b5f819050815f5260205f209050919050565b5f6020601f8301049050919050565b5f82821b905092915050565b5f60088302611de37fffffffffffffffffffffffffffffffffffffffffffffffffffffffffffffffff82611da8565b611ded8683611da8565b95508019841693508086168417925050509392505050565b5f819050919050565b5f611e28611e23611e1e8461142b565b611e05565b61142b565b9050919050565b5f819050919050565b611e4183611e0e565b611e55611e4d82611e2f565b848454611db4565b825550505050565b5f5f905090565b611e6c611e5d565b611e77818484611e38565b505050565b5b81811015611e9a57611e8f5f82611e64565b600181019050611e7d565b5050565b601f821115611edf57611eb081611d87565b611eb984611d99565b81016020851015611ec8578190505b611edc611ed485611d99565b830182611e7c565b50505b505050565b5f82821c905092915050565b5f611eff5f1984600802611ee4565b1980831691505092915050565b5f611f178383611ef0565b9150826002028217905092915050565b611f30826114e3565b67ffffffffffffffff811115611f4957611f486115ce565b5b611f538254611d57565b611f5e828285611e9e565b5f60209050601f831160018114611f8f575f8415611f7d578287015190505b611f878582611f0c565b865550611fee565b601f198416611f9d86611d87565b5f5b82811015611fc457848901518255600182019150602085019450602081019050611f9f565b86831015611fe15784890151611fdd601f891682611ef0565b8355505b6001600288020188555050505b505050505050565b5f6040820190508181035f83015261200e818561151b565b90508181036020830152612022818461151b565b90509392505050565b7f4e487b71000000000000000000000000000000000000000000000000000000005f52601160045260245ffd5b5f6120628261142b565b91507fffffffffffffffffffffffffffffffffffffffffffffffffffffffffffffffff82036120945761209361202b565b5b60018201905091905056fea2646970667358221220e39b4159f2792d692bd17685abd43cc00d546868d67ed065370fa8689847c20a64736f6c634300081e0033",
					"opcodes": "PUSH1 0x80 PUSH1 0x40 MSTORE CALLVALUE DUP1 ISZERO PUSH2 0xF JUMPI PUSH0 PUSH0 REVERT JUMPDEST POP PUSH1 0x40 MLOAD PUSH2 0x2649 CODESIZE SUB DUP1 PUSH2 0x2649 DUP4 CODECOPY DUP2 DUP2 ADD PUSH1 0x40 MSTORE DUP2 ADD SWAP1 PUSH2 0x31 SWAP2 SWAP1 PUSH2 0x22E JUMP JUMPDEST DUP2 PUSH0 PUSH0 PUSH2 0x100 EXP DUP2 SLOAD DUP2 PUSH20 0xFFFFFFFFFFFFFFFFFFFFFFFFFFFFFFFFFFFFFFFF MUL NOT AND SWAP1 DUP4 PUSH20 0xFFFFFFFFFFFFFFFFFFFFFFFFFFFFFFFFFFFFFFFF AND MUL OR SWAP1 SSTORE POP DUP1 PUSH1 0x1 SWAP1 DUP2 PUSH2 0x7F SWAP2 SWAP1 PUSH2 0x498 JUMP JUMPDEST POP POP POP PUSH2 0x567 JUMP JUMPDEST PUSH0 PUSH1 0x40 MLOAD SWAP1 POP SWAP1 JUMP JUMPDEST PUSH0 PUSH0 REVERT JUMPDEST PUSH0 PUSH0 REVERT JUMPDEST PUSH0 PUSH20 0xFFFFFFFFFFFFFFFFFFFFFFFFFFFFFFFFFFFFFFFF DUP3 AND SWAP1 POP SWAP2 SWAP1 POP JUMP JUMPDEST PUSH0 PUSH2 0xC1 DUP3 PUSH2 0x98 JUMP JUMPDEST SWAP1 POP SWAP2 SWAP1 POP JUMP JUMPDEST PUSH2 0xD1 DUP2 PUSH2 0xB7 JUMP JUMPDEST DUP2 EQ PUSH2 0xDB JUMPI PUSH0 PUSH0 REVERT JUMPDEST POP JUMP JUMPDEST PUSH0 DUP2 MLOAD SWAP1 POP PUSH2 0xEC DUP2 PUSH2 0xC8 JUMP JUMPDEST SWAP3 SWAP2 POP POP JUMP JUMPDEST PUSH0 PUSH0 REVERT JUMPDEST PUSH0 PUSH0 REVERT JUMPDEST PUSH0 PUSH1 0x1F NOT PUSH1 0x1F DUP4 ADD AND SWAP1 POP SWAP2 SWAP1 POP JUMP JUMPDEST PUSH32 0x4E487B7100000000000000000000000000000000000000000000000000000000 PUSH0 MSTORE PUSH1 0x41 PUSH1 0x4 MSTORE PUSH1 0x24 PUSH0 REVERT JUMPDEST PUSH2 0x140 DUP3 PUSH2 0xFA JUMP JUMPDEST DUP2 ADD DUP2 DUP2 LT PUSH8 0xFFFFFFFFFFFFFFFF DUP3 GT OR ISZERO PUSH2 0x15F JUMPI PUSH2 0x15E PUSH2 0x10A JUMP JUMPDEST JUMPDEST DUP1 PUSH1 0x40 MSTORE POP POP POP JUMP JUMPDEST PUSH0 PUSH2 0x171 PUSH2 0x87 JUMP JUMPDEST SWAP1 POP PUSH2 0x17D DUP3 DUP3 PUSH2 0x137 JUMP JUMPDEST SWAP2 SWAP1 POP JUMP JUMPDEST PUSH0 PUSH8 0xFFFFFFFFFFFFFFFF DUP3 GT ISZERO PUSH2 0x19C JUMPI PUSH2 0x19B PUSH2 0x10A JUMP JUMPDEST JUMPDEST PUSH2 0x1A5 DUP3 PUSH2 0xFA JUMP JUMPDEST SWAP1 POP PUSH1 0x20 DUP2 ADD SWAP1 POP SWAP2 SWAP1 POP JUMP JUMPDEST DUP3 DUP2 DUP4 MCOPY PUSH0 DUP4 DUP4 ADD MSTORE POP POP POP JUMP JUMPDEST PUSH0 PUSH2 0x1D2 PUSH2 0x1CD DUP5 PUSH2 0x182 JUMP JUMPDEST PUSH2 0x168 JUMP JUMPDEST SWAP1 POP DUP3 DUP2 MSTORE PUSH1 0x20 DUP2 ADD DUP5 DUP5 DUP5 ADD GT ISZERO PUSH2 0x1EE JUMPI PUSH2 0x1ED PUSH2 0xF6 JUMP JUMPDEST JUMPDEST PUSH2 0x1F9 DUP5 DUP3 DUP6 PUSH2 0x1B2 JUMP JUMPDEST POP SWAP4 SWAP3 POP POP POP JUMP JUMPDEST PUSH0 DUP3 PUSH1 0x1F DUP4 ADD SLT PUSH2 0x215 JUMPI PUSH2 0x214 PUSH2 0xF2 JUMP JUMPDEST JUMPDEST DUP2 MLOAD PUSH2 0x225 DUP5 DUP3 PUSH1 0x20 DUP7 ADD PUSH2 0x1C0 JUMP JUMPDEST SWAP2 POP POP SWAP3 SWAP2 POP POP JUMP JUMPDEST PUSH0 PUSH0 PUSH1 0x40 DUP4 DUP6 SUB SLT ISZERO PUSH2 0x244 JUMPI PUSH2 0x243 PUSH2 0x90 JUMP JUMPDEST JUMPDEST PUSH0 PUSH2 0x251 DUP6 DUP3 DUP7 ADD PUSH2 0xDE JUMP JUMPDEST SWAP3 POP POP PUSH1 0x20 DUP4 ADD MLOAD PUSH8 0xFFFFFFFFFFFFFFFF DUP2 GT ISZERO PUSH2 0x272 JUMPI PUSH2 0x271 PUSH2 0x94 JUMP JUMPDEST JUMPDEST PUSH2 0x27E DUP6 DUP3 DUP7 ADD PUSH2 0x201 JUMP JUMPDEST SWAP2 POP POP SWAP3 POP SWAP3 SWAP1 POP JUMP JUMPDEST PUSH0 DUP2 MLOAD SWAP1 POP SWAP2 SWAP1 POP JUMP JUMPDEST PUSH32 0x4E487B7100000000000000000000000000000000000000000000000000000000 PUSH0 MSTORE PUSH1 0x22 PUSH1 0x4 MSTORE PUSH1 0x24 PUSH0 REVERT JUMPDEST PUSH0 PUSH1 0x2 DUP3 DIV SWAP1 POP PUSH1 0x1 DUP3 AND DUP1 PUSH2 0x2D6 JUMPI PUSH1 0x7F DUP3 AND SWAP2 POP JUMPDEST PUSH1 0x20 DUP3 LT DUP2 SUB PUSH2 0x2E9 JUMPI PUSH2 0x2E8 PUSH2 0x292 JUMP JUMPDEST JUMPDEST POP SWAP2 SWAP1 POP JUMP JUMPDEST PUSH0 DUP2 SWAP1 POP DUP2 PUSH0 MSTORE PUSH1 0x20 PUSH0 KECCAK256 SWAP1 POP SWAP2 SWAP1 POP JUMP JUMPDEST PUSH0 PUSH1 0x20 PUSH1 0x1F DUP4 ADD DIV SWAP1 POP SWAP2 SWAP1 POP JUMP JUMPDEST PUSH0 DUP3 DUP3 SHL SWAP1 POP SWAP3 SWAP2 POP POP JUMP JUMPDEST PUSH0 PUSH1 0x8 DUP4 MUL PUSH2 0x34B PUSH32 0xFFFFFFFFFFFFFFFFFFFFFFFFFFFFFFFFFFFFFFFFFFFFFFFFFFFFFFFFFFFFFFFF DUP3 PUSH2 0x310 JUMP JUMPDEST PUSH2 0x355 DUP7 DUP4 PUSH2 0x310 JUMP JUMPDEST SWAP6 POP DUP1 NOT DUP5 AND SWAP4 POP DUP1 DUP7 AND DUP5 OR SWAP3 POP POP POP SWAP4 SWAP3 POP POP POP JUMP JUMPDEST PUSH0 DUP2 SWAP1 POP SWAP2 SWAP1 POP JUMP JUMPDEST PUSH0 DUP2 SWAP1 POP SWAP2 SWAP1 POP JUMP JUMPDEST PUSH0 PUSH2 0x399 PUSH2 0x394 PUSH2 0x38F DUP5 PUSH2 0x36D JUMP JUMPDEST PUSH2 0x376 JUMP JUMPDEST PUSH2 0x36D JUMP JUMPDEST SWAP1 POP SWAP2 SWAP1 POP JUMP JUMPDEST PUSH0 DUP2 SWAP1 POP SWAP2 SWAP1 POP JUMP JUMPDEST PUSH2 0x3B2 DUP4 PUSH2 0x37F JUMP JUMPDEST PUSH2 0x3C6 PUSH2 0x3BE DUP3 PUSH2 0x3A0 JUMP JUMPDEST DUP5 DUP5 SLOAD PUSH2 0x31C JUMP JUMPDEST DUP3 SSTORE POP POP POP POP JUMP JUMPDEST PUSH0 PUSH0 SWAP1 POP SWAP1 JUMP JUMPDEST PUSH2 0x3DD PUSH2 0x3CE JUMP JUMPDEST PUSH2 0x3E8 DUP2 DUP5 DUP5 PUSH2 0x3A9 JUMP JUMPDEST POP POP POP JUMP JUMPDEST JUMPDEST DUP2 DUP2 LT ISZERO PUSH2 0x40B JUMPI PUSH2 0x400 PUSH0 DUP3 PUSH2 0x3D5 JUMP JUMPDEST PUSH1 0x1 DUP2 ADD SWAP1 POP PUSH2 0x3EE JUMP JUMPDEST POP POP JUMP JUMPDEST PUSH1 0x1F DUP3 GT ISZERO PUSH2 0x450 JUMPI PUSH2 0x421 DUP2 PUSH2 0x2EF JUMP JUMPDEST PUSH2 0x42A DUP5 PUSH2 0x301 JUMP JUMPDEST DUP2 ADD PUSH1 0x20 DUP6 LT ISZERO PUSH2 0x439 JUMPI DUP2 SWAP1 POP JUMPDEST PUSH2 0x44D PUSH2 0x445 DUP6 PUSH2 0x301 JUMP JUMPDEST DUP4 ADD DUP3 PUSH2 0x3ED JUMP JUMPDEST POP POP JUMPDEST POP POP POP JUMP JUMPDEST PUSH0 DUP3 DUP3 SHR SWAP1 POP SWAP3 SWAP2 POP POP JUMP JUMPDEST PUSH0 PUSH2 0x470 PUSH0 NOT DUP5 PUSH1 0x8 MUL PUSH2 0x455 JUMP JUMPDEST NOT DUP1 DUP4 AND SWAP2 POP POP SWAP3 SWAP2 POP POP JUMP JUMPDEST PUSH0 PUSH2 0x488 DUP4 DUP4 PUSH2 0x461 JUMP JUMPDEST SWAP2 POP DUP3 PUSH1 0x2 MUL DUP3 OR SWAP1 POP SWAP3 SWAP2 POP POP JUMP JUMPDEST PUSH2 0x4A1 DUP3 PUSH2 0x288 JUMP JUMPDEST PUSH8 0xFFFFFFFFFFFFFFFF DUP2 GT ISZERO PUSH2 0x4BA JUMPI PUSH2 0x4B9 PUSH2 0x10A JUMP JUMPDEST JUMPDEST PUSH2 0x4C4 DUP3 SLOAD PUSH2 0x2BF JUMP JUMPDEST PUSH2 0x4CF DUP3 DUP3 DUP6 PUSH2 0x40F JUMP JUMPDEST PUSH0 PUSH1 0x20 SWAP1 POP PUSH1 0x1F DUP4 GT PUSH1 0x1 DUP2 EQ PUSH2 0x500 JUMPI PUSH0 DUP5 ISZERO PUSH2 0x4EE JUMPI DUP3 DUP8 ADD MLOAD SWAP1 POP JUMPDEST PUSH2 0x4F8 DUP6 DUP3 PUSH2 0x47D JUMP JUMPDEST DUP7 SSTORE POP PUSH2 0x55F JUMP JUMPDEST PUSH1 0x1F NOT DUP5 AND PUSH2 0x50E DUP7 PUSH2 0x2EF JUMP JUMPDEST PUSH0 JUMPDEST DUP3 DUP2 LT ISZERO PUSH2 0x535 JUMPI DUP5 DUP10 ADD MLOAD DUP3 SSTORE PUSH1 0x1 DUP3 ADD SWAP2 POP PUSH1 0x20 DUP6 ADD SWAP5 POP PUSH1 0x20 DUP2 ADD SWAP1 POP PUSH2 0x510 JUMP JUMPDEST DUP7 DUP4 LT ISZERO PUSH2 0x552 JUMPI DUP5 DUP10 ADD MLOAD PUSH2 0x54E PUSH1 0x1F DUP10 AND DUP3 PUSH2 0x461 JUMP JUMPDEST DUP4 SSTORE POP JUMPDEST PUSH1 0x1 PUSH1 0x2 DUP9 MUL ADD DUP9 SSTORE POP POP POP JUMPDEST POP POP POP POP POP POP JUMP JUMPDEST PUSH2 0x20D5 DUP1 PUSH2 0x574 PUSH0 CODECOPY PUSH0 RETURN INVALID PUSH1 0x80 PUSH1 0x40 MSTORE CALLVALUE DUP1 ISZERO PUSH2 0xF JUMPI PUSH0 PUSH0 REVERT JUMPDEST POP PUSH1 0x4 CALLDATASIZE LT PUSH2 0xA7 JUMPI PUSH0 CALLDATALOAD PUSH1 0xE0 SHR DUP1 PUSH4 0x59DED538 GT PUSH2 0x6F JUMPI DUP1 PUSH4 0x59DED538 EQ PUSH2 0x14F JUMPI DUP1 PUSH4 0x6224F36F EQ PUSH2 0x17F JUMPI DUP1 PUSH4 0x8FB97378 EQ PUSH2 0x1AF JUMPI DUP1 PUSH4 0xCEE4F70B EQ PUSH2 0x1DF JUMPI DUP1 PUSH4 0xDA5CD453 EQ PUSH2 0x20F JUMPI DUP1 PUSH4 0xE2842D79 EQ PUSH2 0x243 JUMPI PUSH2 0xA7 JUMP JUMPDEST DUP1 PUSH4 0xEF3EB8B EQ PUSH2 0xAB JUMPI DUP1 PUSH4 0x1386DC2D EQ PUSH2 0xC7 JUMPI DUP1 PUSH4 0x365B98B2 EQ PUSH2 0xE5 JUMPI DUP1 PUSH4 0x4464FE33 EQ PUSH2 0x115 JUMPI DUP1 PUSH4 0x59543973 EQ PUSH2 0x131 JUMPI JUMPDEST PUSH0 PUSH0 REVERT JUMPDEST PUSH2 0xC5 PUSH1 0x4 DUP1 CALLDATASIZE SUB DUP2 ADD SWAP1 PUSH2 0xC0 SWAP2 SWAP1 PUSH2 0x1493 JUMP JUMPDEST PUSH2 0x261 JUMP JUMPDEST STOP JUMPDEST PUSH2 0xCF PUSH2 0x4C5 JUMP JUMPDEST PUSH1 0x40 MLOAD PUSH2 0xDC SWAP2 SWAP1 PUSH2 0x1553 JUMP JUMPDEST PUSH1 0x40 MLOAD DUP1 SWAP2 SUB SWAP1 RETURN JUMPDEST PUSH2 0xFF PUSH1 0x4 DUP1 CALLDATASIZE SUB DUP2 ADD SWAP1 PUSH2 0xFA SWAP2 SWAP1 PUSH2 0x1573 JUMP JUMPDEST PUSH2 0x551 JUMP JUMPDEST PUSH1 0x40 MLOAD PUSH2 0x10C SWAP2 SWAP1 PUSH2 0x15AD JUMP JUMPDEST PUSH1 0x40 MLOAD DUP1 SWAP2 SUB SWAP1 RETURN JUMPDEST PUSH2 0x12F PUSH1 0x4 DUP1 CALLDATASIZE SUB DUP2 ADD SWAP1 PUSH2 0x12A SWAP2 SWAP1 PUSH2 0x16F2 JUMP JUMPDEST PUSH2 0x58C JUMP JUMPDEST STOP JUMPDEST PUSH2 0x139 PUSH2 0x842 JUMP JUMPDEST PUSH1 0x40 MLOAD PUSH2 0x146 SWAP2 SWAP1 PUSH2 0x15AD JUMP JUMPDEST PUSH1 0x40 MLOAD DUP1 SWAP2 SUB SWAP1 RETURN JUMPDEST PUSH2 0x169 PUSH1 0x4 DUP1 CALLDATASIZE SUB DUP2 ADD SWAP1 PUSH2 0x164 SWAP2 SWAP1 PUSH2 0x1768 JUMP JUMPDEST PUSH2 0x866 JUMP JUMPDEST PUSH1 0x40 MLOAD PUSH2 0x176 SWAP2 SWAP1 PUSH2 0x19A1 JUMP JUMPDEST PUSH1 0x40 MLOAD DUP1 SWAP2 SUB SWAP1 RETURN JUMPDEST PUSH2 0x199 PUSH1 0x4 DUP1 CALLDATASIZE SUB DUP2 ADD SWAP1 PUSH2 0x194 SWAP2 SWAP1 PUSH2 0x1768 JUMP JUMPDEST PUSH2 0xAB8 JUMP JUMPDEST PUSH1 0x40 MLOAD PUSH2 0x1A6 SWAP2 SWAP1 PUSH2 0x19D0 JUMP JUMPDEST PUSH1 0x40 MLOAD DUP1 SWAP2 SUB SWAP1 RETURN JUMPDEST PUSH2 0x1C9 PUSH1 0x4 DUP1 CALLDATASIZE SUB DUP2 ADD SWAP1 PUSH2 0x1C4 SWAP2 SWAP1 PUSH2 0x1768 JUMP JUMPDEST PUSH2 0xAD5 JUMP JUMPDEST PUSH1 0x40 MLOAD PUSH2 0x1D6 SWAP2 SWAP1 PUSH2 0x19A1 JUMP JUMPDEST PUSH1 0x40 MLOAD DUP1 SWAP2 SUB SWAP1 RETURN JUMPDEST PUSH2 0x1F9 PUSH1 0x4 DUP1 CALLDATASIZE SUB DUP2 ADD SWAP1 PUSH2 0x1F4 SWAP2 SWAP1 PUSH2 0x19E9 JUMP JUMPDEST PUSH2 0xEAC JUMP JUMPDEST PUSH1 0x40 MLOAD PUSH2 0x206 SWAP2 SWAP1 PUSH2 0x1AA1 JUMP JUMPDEST PUSH1 0x40 MLOAD DUP1 SWAP2 SUB SWAP1 RETURN JUMPDEST PUSH2 0x229 PUSH1 0x4 DUP1 CALLDATASIZE SUB DUP2 ADD SWAP1 PUSH2 0x224 SWAP2 SWAP1 PUSH2 0x19E9 JUMP JUMPDEST PUSH2 0x115D JUMP JUMPDEST PUSH1 0x40 MLOAD PUSH2 0x23A SWAP6 SWAP5 SWAP4 SWAP3 SWAP2 SWAP1 PUSH2 0x1ADF JUMP JUMPDEST PUSH1 0x40 MLOAD DUP1 SWAP2 SUB SWAP1 RETURN JUMPDEST PUSH2 0x24B PUSH2 0x12E1 JUMP JUMPDEST PUSH1 0x40 MLOAD PUSH2 0x258 SWAP2 SWAP1 PUSH2 0x1BE6 JUMP JUMPDEST PUSH1 0x40 MLOAD DUP1 SWAP2 SUB SWAP1 RETURN JUMPDEST PUSH0 PUSH0 SWAP1 SLOAD SWAP1 PUSH2 0x100 EXP SWAP1 DIV PUSH20 0xFFFFFFFFFFFFFFFFFFFFFFFFFFFFFFFFFFFFFFFF AND PUSH20 0xFFFFFFFFFFFFFFFFFFFFFFFFFFFFFFFFFFFFFFFF AND CALLER PUSH20 0xFFFFFFFFFFFFFFFFFFFFFFFFFFFFFFFFFFFFFFFF AND EQ PUSH2 0x2EF JUMPI PUSH1 0x40 MLOAD PUSH32 0x8C379A000000000000000000000000000000000000000000000000000000000 DUP2 MSTORE PUSH1 0x4 ADD PUSH2 0x2E6 SWAP1 PUSH2 0x1C50 JUMP JUMPDEST PUSH1 0x40 MLOAD DUP1 SWAP2 SUB SWAP1 REVERT JUMPDEST PUSH1 0x2 PUSH0 DUP5 PUSH20 0xFFFFFFFFFFFFFFFFFFFFFFFFFFFFFFFFFFFFFFFF AND PUSH20 0xFFFFFFFFFFFFFFFFFFFFFFFFFFFFFFFFFFFFFFFF AND DUP2 MSTORE PUSH1 0x20 ADD SWAP1 DUP2 MSTORE PUSH1 0x20 ADD PUSH0 KECCAK256 DUP1 SLOAD SWAP1 POP DUP3 LT PUSH2 0x371 JUMPI PUSH1 0x40 MLOAD PUSH32 0x8C379A000000000000000000000000000000000000000000000000000000000 DUP2 MSTORE PUSH1 0x4 ADD PUSH2 0x368 SWAP1 PUSH2 0x1CB8 JUMP JUMPDEST PUSH1 0x40 MLOAD DUP1 SWAP2 SUB SWAP1 REVERT JUMPDEST DUP1 PUSH2 0x37D JUMPI PUSH1 0x2 PUSH2 0x380 JUMP JUMPDEST PUSH1 0x1 JUMPDEST PUSH1 0x2 PUSH0 DUP6 PUSH20 0xFFFFFFFFFFFFFFFFFFFFFFFFFFFFFFFFFFFFFFFF AND PUSH20 0xFFFFFFFFFFFFFFFFFFFFFFFFFFFFFFFFFFFFFFFF AND DUP2 MSTORE PUSH1 0x20 ADD SWAP1 DUP2 MSTORE PUSH1 0x20 ADD PUSH0 KECCAK256 DUP4 DUP2 SLOAD DUP2 LT PUSH2 0x3CF JUMPI PUSH2 0x3CE PUSH2 0x1CD6 JUMP JUMPDEST JUMPDEST SWAP1 PUSH0 MSTORE PUSH1 0x20 PUSH0 KECCAK256 SWAP1 PUSH1 0x4 MUL ADD PUSH1 0x2 ADD PUSH1 0x14 PUSH2 0x100 EXP DUP2 SLOAD DUP2 PUSH1 0xFF MUL NOT AND SWAP1 DUP4 PUSH1 0x2 DUP2 GT ISZERO PUSH2 0x400 JUMPI PUSH2 0x3FF PUSH2 0x1813 JUMP JUMPDEST JUMPDEST MUL OR SWAP1 SSTORE POP DUP3 PUSH20 0xFFFFFFFFFFFFFFFFFFFFFFFFFFFFFFFFFFFFFFFF AND PUSH32 0x1A89217130676043C8AF061FA235971F4A763DA41AEB98D04FA1043034D9E2E5 DUP4 PUSH1 0x2 PUSH0 DUP8 PUSH20 0xFFFFFFFFFFFFFFFFFFFFFFFFFFFFFFFFFFFFFFFF AND PUSH20 0xFFFFFFFFFFFFFFFFFFFFFFFFFFFFFFFFFFFFFFFF AND DUP2 MSTORE PUSH1 0x20 ADD SWAP1 DUP2 MSTORE PUSH1 0x20 ADD PUSH0 KECCAK256 DUP6 DUP2 SLOAD DUP2 LT PUSH2 0x48D JUMPI PUSH2 0x48C PUSH2 0x1CD6 JUMP JUMPDEST JUMPDEST SWAP1 PUSH0 MSTORE PUSH1 0x20 PUSH0 KECCAK256 SWAP1 PUSH1 0x4 MUL ADD PUSH1 0x2 ADD PUSH1 0x14 SWAP1 SLOAD SWAP1 PUSH2 0x100 EXP SWAP1 DIV PUSH1 0xFF AND PUSH1 0x40 MLOAD PUSH2 0x4B8 SWAP3 SWAP2 SWAP1 PUSH2 0x1D03 JUMP JUMPDEST PUSH1 0x40 MLOAD DUP1 SWAP2 SUB SWAP1 LOG2 POP POP POP JUMP JUMPDEST PUSH1 0x1 DUP1 SLOAD PUSH2 0x4D2 SWAP1 PUSH2 0x1D57 JUMP JUMPDEST DUP1 PUSH1 0x1F ADD PUSH1 0x20 DUP1 SWAP2 DIV MUL PUSH1 0x20 ADD PUSH1 0x40 MLOAD SWAP1 DUP2 ADD PUSH1 0x40 MSTORE DUP1 SWAP3 SWAP2 SWAP1 DUP2 DUP2 MSTORE PUSH1 0x20 ADD DUP3 DUP1 SLOAD PUSH2 0x4FE SWAP1 PUSH2 0x1D57 JUMP JUMPDEST DUP1 ISZERO PUSH2 0x549 JUMPI DUP1 PUSH1 0x1F LT PUSH2 0x520 JUMPI PUSH2 0x100 DUP1 DUP4 SLOAD DIV MUL DUP4 MSTORE SWAP2 PUSH1 0x20 ADD SWAP2 PUSH2 0x549 JUMP JUMPDEST DUP3 ADD SWAP2 SWAP1 PUSH0 MSTORE PUSH1 0x20 PUSH0 KECCAK256 SWAP1 JUMPDEST DUP2 SLOAD DUP2 MSTORE SWAP1 PUSH1 0x1 ADD SWAP1 PUSH1 0x20 ADD DUP1 DUP4 GT PUSH2 0x52C JUMPI DUP3 SWAP1 SUB PUSH1 0x1F AND DUP3 ADD SWAP2 JUMPDEST POP POP POP POP POP DUP2 JUMP JUMPDEST PUSH1 0x3 DUP2 DUP2 SLOAD DUP2 LT PUSH2 0x560 JUMPI PUSH0 DUP1 REVERT JUMPDEST SWAP1 PUSH0 MSTORE PUSH1 0x20 PUSH0 KECCAK256 ADD PUSH0 SWAP2 POP SLOAD SWAP1 PUSH2 0x100 EXP SWAP1 DIV PUSH20 0xFFFFFFFFFFFFFFFFFFFFFFFFFFFFFFFFFFFFFFFF AND DUP2 JUMP JUMPDEST PUSH1 0x2 PUSH0 CALLER PUSH20 0xFFFFFFFFFFFFFFFFFFFFFFFFFFFFFFFFFFFFFFFF AND PUSH20 0xFFFFFFFFFFFFFFFFFFFFFFFFFFFFFFFFFFFFFFFF AND DUP2 MSTORE PUSH1 0x20 ADD SWAP1 DUP2 MSTORE PUSH1 0x20 ADD PUSH0 KECCAK256 PUSH1 0x40 MLOAD DUP1 PUSH1 0xA0 ADD PUSH1 0x40 MSTORE DUP1 DUP5 DUP2 MSTORE PUSH1 0x20 ADD DUP4 DUP2 MSTORE PUSH1 0x20 ADD CALLER PUSH20 0xFFFFFFFFFFFFFFFFFFFFFFFFFFFFFFFFFFFFFFFF AND DUP2 MSTORE PUSH1 0x20 ADD PUSH0 PUSH1 0x2 DUP2 GT ISZERO PUSH2 0x60F JUMPI PUSH2 0x60E PUSH2 0x1813 JUMP JUMPDEST JUMPDEST DUP2 MSTORE PUSH1 0x20 ADD TIMESTAMP DUP2 MSTORE POP SWAP1 DUP1 PUSH1 0x1 DUP2 SLOAD ADD DUP1 DUP3 SSTORE DUP1 SWAP2 POP POP PUSH1 0x1 SWAP1 SUB SWAP1 PUSH0 MSTORE PUSH1 0x20 PUSH0 KECCAK256 SWAP1 PUSH1 0x4 MUL ADD PUSH0 SWAP1 SWAP2 SWAP1 SWAP2 SWAP1 SWAP2 POP PUSH0 DUP3 ADD MLOAD DUP2 PUSH0 ADD SWAP1 DUP2 PUSH2 0x651 SWAP2 SWAP1 PUSH2 0x1F27 JUMP JUMPDEST POP PUSH1 0x20 DUP3 ADD MLOAD DUP2 PUSH1 0x1 ADD SWAP1 DUP2 PUSH2 0x667 SWAP2 SWAP1 PUSH2 0x1F27 JUMP JUMPDEST POP PUSH1 0x40 DUP3 ADD MLOAD DUP2 PUSH1 0x2 ADD PUSH0 PUSH2 0x100 EXP DUP2 SLOAD DUP2 PUSH20 0xFFFFFFFFFFFFFFFFFFFFFFFFFFFFFFFFFFFFFFFF MUL NOT AND SWAP1 DUP4 PUSH20 0xFFFFFFFFFFFFFFFFFFFFFFFFFFFFFFFFFFFFFFFF AND MUL OR SWAP1 SSTORE POP PUSH1 0x60 DUP3 ADD MLOAD DUP2 PUSH1 0x2 ADD PUSH1 0x14 PUSH2 0x100 EXP DUP2 SLOAD DUP2 PUSH1 0xFF MUL NOT AND SWAP1 DUP4 PUSH1 0x2 DUP2 GT ISZERO PUSH2 0x6D9 JUMPI PUSH2 0x6D8 PUSH2 0x1813 JUMP JUMPDEST JUMPDEST MUL OR SWAP1 SSTORE POP PUSH1 0x80 DUP3 ADD MLOAD DUP2 PUSH1 0x3 ADD SSTORE POP POP PUSH1 0x4 PUSH0 CALLER PUSH20 0xFFFFFFFFFFFFFFFFFFFFFFFFFFFFFFFFFFFFFFFF AND PUSH20 0xFFFFFFFFFFFFFFFFFFFFFFFFFFFFFFFFFFFFFFFF AND DUP2 MSTORE PUSH1 0x20 ADD SWAP1 DUP2 MSTORE PUSH1 0x20 ADD PUSH0 KECCAK256 PUSH0 SWAP1 SLOAD SWAP1 PUSH2 0x100 EXP SWAP1 DIV PUSH1 0xFF AND PUSH2 0x7EE JUMPI PUSH1 0x3 CALLER SWAP1 DUP1 PUSH1 0x1 DUP2 SLOAD ADD DUP1 DUP3 SSTORE DUP1 SWAP2 POP POP PUSH1 0x1 SWAP1 SUB SWAP1 PUSH0 MSTORE PUSH1 0x20 PUSH0 KECCAK256 ADD PUSH0 SWAP1 SWAP2 SWAP1 SWAP2 SWAP1 SWAP2 PUSH2 0x100 EXP DUP2 SLOAD DUP2 PUSH20 0xFFFFFFFFFFFFFFFFFFFFFFFFFFFFFFFFFFFFFFFF MUL NOT AND SWAP1 DUP4 PUSH20 0xFFFFFFFFFFFFFFFFFFFFFFFFFFFFFFFFFFFFFFFF AND MUL OR SWAP1 SSTORE POP PUSH1 0x1 PUSH1 0x4 PUSH0 CALLER PUSH20 0xFFFFFFFFFFFFFFFFFFFFFFFFFFFFFFFFFFFFFFFF AND PUSH20 0xFFFFFFFFFFFFFFFFFFFFFFFFFFFFFFFFFFFFFFFF AND DUP2 MSTORE PUSH1 0x20 ADD SWAP1 DUP2 MSTORE PUSH1 0x20 ADD PUSH0 KECCAK256 PUSH0 PUSH2 0x100 EXP DUP2 SLOAD DUP2 PUSH1 0xFF MUL NOT AND SWAP1 DUP4 ISZERO ISZERO MUL OR SWAP1 SSTORE POP JUMPDEST CALLER PUSH20 0xFFFFFFFFFFFFFFFFFFFFFFFFFFFFFFFFFFFFFFFF AND PUSH32 0x63630F357F7A0FE7466B2C369DAB72C6B5E951F8E9C0DE24FA8F4EE1D10C62D9 DUP4 DUP4 PUSH1 0x40 MLOAD PUSH2 0x836 SWAP3 SWAP2 SWAP1 PUSH2 0x1FF6 JUMP JUMPDEST PUSH1 0x40 MLOAD DUP1 SWAP2 SUB SWAP1 LOG2 POP POP JUMP JUMPDEST PUSH0 PUSH0 SWAP1 SLOAD SWAP1 PUSH2 0x100 EXP SWAP1 DIV PUSH20 0xFFFFFFFFFFFFFFFFFFFFFFFFFFFFFFFFFFFFFFFF AND DUP2 JUMP JUMPDEST PUSH1 0x60 PUSH1 0x2 PUSH0 DUP4 PUSH20 0xFFFFFFFFFFFFFFFFFFFFFFFFFFFFFFFFFFFFFFFF AND PUSH20 0xFFFFFFFFFFFFFFFFFFFFFFFFFFFFFFFFFFFFFFFF AND DUP2 MSTORE PUSH1 0x20 ADD SWAP1 DUP2 MSTORE PUSH1 0x20 ADD PUSH0 KECCAK256 DUP1 SLOAD DUP1 PUSH1 0x20 MUL PUSH1 0x20 ADD PUSH1 0x40 MLOAD SWAP1 DUP2 ADD PUSH1 0x40 MSTORE DUP1 SWAP3 SWAP2 SWAP1 DUP2 DUP2 MSTORE PUSH1 0x20 ADD PUSH0 SWAP1 JUMPDEST DUP3 DUP3 LT ISZERO PUSH2 0xAAD JUMPI DUP4 DUP3 SWAP1 PUSH0 MSTORE PUSH1 0x20 PUSH0 KECCAK256 SWAP1 PUSH1 0x4 MUL ADD PUSH1 0x40 MLOAD DUP1 PUSH1 0xA0 ADD PUSH1 0x40 MSTORE SWAP1 DUP2 PUSH0 DUP3 ADD DUP1 SLOAD PUSH2 0x8F4 SWAP1 PUSH2 0x1D57 JUMP JUMPDEST DUP1 PUSH1 0x1F ADD PUSH1 0x20 DUP1 SWAP2 DIV MUL PUSH1 0x20 ADD PUSH1 0x40 MLOAD SWAP1 DUP2 ADD PUSH1 0x40 MSTORE DUP1 SWAP3 SWAP2 SWAP1 DUP2 DUP2 MSTORE PUSH1 0x20 ADD DUP3 DUP1 SLOAD PUSH2 0x920 SWAP1 PUSH2 0x1D57 JUMP JUMPDEST DUP1 ISZERO PUSH2 0x96B JUMPI DUP1 PUSH1 0x1F LT PUSH2 0x942 JUMPI PUSH2 0x100 DUP1 DUP4 SLOAD DIV MUL DUP4 MSTORE SWAP2 PUSH1 0x20 ADD SWAP2 PUSH2 0x96B JUMP JUMPDEST DUP3 ADD SWAP2 SWAP1 PUSH0 MSTORE PUSH1 0x20 PUSH0 KECCAK256 SWAP1 JUMPDEST DUP2 SLOAD DUP2 MSTORE SWAP1 PUSH1 0x1 ADD SWAP1 PUSH1 0x20 ADD DUP1 DUP4 GT PUSH2 0x94E JUMPI DUP3 SWAP1 SUB PUSH1 0x1F AND DUP3 ADD SWAP2 JUMPDEST POP POP POP POP POP DUP2 MSTORE PUSH1 0x20 ADD PUSH1 0x1 DUP3 ADD DUP1 SLOAD PUSH2 0x984 SWAP1 PUSH2 0x1D57 JUMP JUMPDEST DUP1 PUSH1 0x1F ADD PUSH1 0x20 DUP1 SWAP2 DIV MUL PUSH1 0x20 ADD PUSH1 0x40 MLOAD SWAP1 DUP2 ADD PUSH1 0x40 MSTORE DUP1 SWAP3 SWAP2 SWAP1 DUP2 DUP2 MSTORE PUSH1 0x20 ADD DUP3 DUP1 SLOAD PUSH2 0x9B0 SWAP1 PUSH2 0x1D57 JUMP JUMPDEST DUP1 ISZERO PUSH2 0x9FB JUMPI DUP1 PUSH1 0x1F LT PUSH2 0x9D2 JUMPI PUSH2 0x100 DUP1 DUP4 SLOAD DIV MUL DUP4 MSTORE SWAP2 PUSH1 0x20 ADD SWAP2 PUSH2 0x9FB JUMP JUMPDEST DUP3 ADD SWAP2 SWAP1 PUSH0 MSTORE PUSH1 0x20 PUSH0 KECCAK256 SWAP1 JUMPDEST DUP2 SLOAD DUP2 MSTORE SWAP1 PUSH1 0x1 ADD SWAP1 PUSH1 0x20 ADD DUP1 DUP4 GT PUSH2 0x9DE JUMPI DUP3 SWAP1 SUB PUSH1 0x1F AND DUP3 ADD SWAP2 JUMPDEST POP POP POP POP POP DUP2 MSTORE PUSH1 0x20 ADD PUSH1 0x2 DUP3 ADD PUSH0 SWAP1 SLOAD SWAP1 PUSH2 0x100 EXP SWAP1 DIV PUSH20 0xFFFFFFFFFFFFFFFFFFFFFFFFFFFFFFFFFFFFFFFF AND PUSH20 0xFFFFFFFFFFFFFFFFFFFFFFFFFFFFFFFFFFFFFFFF AND PUSH20 0xFFFFFFFFFFFFFFFFFFFFFFFFFFFFFFFFFFFFFFFF AND DUP2 MSTORE PUSH1 0x20 ADD PUSH1 0x2 DUP3 ADD PUSH1 0x14 SWAP1 SLOAD SWAP1 PUSH2 0x100 EXP SWAP1 DIV PUSH1 0xFF AND PUSH1 0x2 DUP2 GT ISZERO PUSH2 0xA7E JUMPI PUSH2 0xA7D PUSH2 0x1813 JUMP JUMPDEST JUMPDEST PUSH1 0x2 DUP2 GT ISZERO PUSH2 0xA90 JUMPI PUSH2 0xA8F PUSH2 0x1813 JUMP JUMPDEST JUMPDEST DUP2 MSTORE PUSH1 0x20 ADD PUSH1 0x3 DUP3 ADD SLOAD DUP2 MSTORE POP POP DUP2 MSTORE PUSH1 0x20 ADD SWAP1 PUSH1 0x1 ADD SWAP1 PUSH2 0x8C4 JUMP JUMPDEST POP POP POP POP SWAP1 POP SWAP2 SWAP1 POP JUMP JUMPDEST PUSH1 0x4 PUSH1 0x20 MSTORE DUP1 PUSH0 MSTORE PUSH1 0x40 PUSH0 KECCAK256 PUSH0 SWAP2 POP SLOAD SWAP1 PUSH2 0x100 EXP SWAP1 DIV PUSH1 0xFF AND DUP2 JUMP JUMPDEST PUSH1 0x60 PUSH0 PUSH1 0x2 PUSH0 DUP5 PUSH20 0xFFFFFFFFFFFFFFFFFFFFFFFFFFFFFFFFFFFFFFFF AND PUSH20 0xFFFFFFFFFFFFFFFFFFFFFFFFFFFFFFFFFFFFFFFF AND DUP2 MSTORE PUSH1 0x20 ADD SWAP1 DUP2 MSTORE PUSH1 0x20 ADD PUSH0 KECCAK256 DUP1 SLOAD DUP1 PUSH1 0x20 MUL PUSH1 0x20 ADD PUSH1 0x40 MLOAD SWAP1 DUP2 ADD PUSH1 0x40 MSTORE DUP1 SWAP3 SWAP2 SWAP1 DUP2 DUP2 MSTORE PUSH1 0x20 ADD PUSH0 SWAP1 JUMPDEST DUP3 DUP3 LT ISZERO PUSH2 0xD1D JUMPI DUP4 DUP3 SWAP1 PUSH0 MSTORE PUSH1 0x20 PUSH0 KECCAK256 SWAP1 PUSH1 0x4 MUL ADD PUSH1 0x40 MLOAD DUP1 PUSH1 0xA0 ADD PUSH1 0x40 MSTORE SWAP1 DUP2 PUSH0 DUP3 ADD DUP1 SLOAD PUSH2 0xB64 SWAP1 PUSH2 0x1D57 JUMP JUMPDEST DUP1 PUSH1 0x1F ADD PUSH1 0x20 DUP1 SWAP2 DIV MUL PUSH1 0x20 ADD PUSH1 0x40 MLOAD SWAP1 DUP2 ADD PUSH1 0x40 MSTORE DUP1 SWAP3 SWAP2 SWAP1 DUP2 DUP2 MSTORE PUSH1 0x20 ADD DUP3 DUP1 SLOAD PUSH2 0xB90 SWAP1 PUSH2 0x1D57 JUMP JUMPDEST DUP1 ISZERO PUSH2 0xBDB JUMPI DUP1 PUSH1 0x1F LT PUSH2 0xBB2 JUMPI PUSH2 0x100 DUP1 DUP4 SLOAD DIV MUL DUP4 MSTORE SWAP2 PUSH1 0x20 ADD SWAP2 PUSH2 0xBDB JUMP JUMPDEST DUP3 ADD SWAP2 SWAP1 PUSH0 MSTORE PUSH1 0x20 PUSH0 KECCAK256 SWAP1 JUMPDEST DUP2 SLOAD DUP2 MSTORE SWAP1 PUSH1 0x1 ADD SWAP1 PUSH1 0x20 ADD DUP1 DUP4 GT PUSH2 0xBBE JUMPI DUP3 SWAP1 SUB PUSH1 0x1F AND DUP3 ADD SWAP2 JUMPDEST POP POP POP POP POP DUP2 MSTORE PUSH1 0x20 ADD PUSH1 0x1 DUP3 ADD DUP1 SLOAD PUSH2 0xBF4 SWAP1 PUSH2 0x1D57 JUMP JUMPDEST DUP1 PUSH1 0x1F ADD PUSH1 0x20 DUP1 SWAP2 DIV MUL PUSH1 0x20 ADD PUSH1 0x40 MLOAD SWAP1 DUP2 ADD PUSH1 0x40 MSTORE DUP1 SWAP3 SWAP2 SWAP1 DUP2 DUP2 MSTORE PUSH1 0x20 ADD DUP3 DUP1 SLOAD PUSH2 0xC20 SWAP1 PUSH2 0x1D57 JUMP JUMPDEST DUP1 ISZERO PUSH2 0xC6B JUMPI DUP1 PUSH1 0x1F LT PUSH2 0xC42 JUMPI PUSH2 0x100 DUP1 DUP4 SLOAD DIV MUL DUP4 MSTORE SWAP2 PUSH1 0x20 ADD SWAP2 PUSH2 0xC6B JUMP JUMPDEST DUP3 ADD SWAP2 SWAP1 PUSH0 MSTORE PUSH1 0x20 PUSH0 KECCAK256 SWAP1 JUMPDEST DUP2 SLOAD DUP2 MSTORE SWAP1 PUSH1 0x1 ADD SWAP1 PUSH1 0x20 ADD DUP1 DUP4 GT PUSH2 0xC4E JUMPI DUP3 SWAP1 SUB PUSH1 0x1F AND DUP3 ADD SWAP2 JUMPDEST POP POP POP POP POP DUP2 MSTORE PUSH1 0x20 ADD PUSH1 0x2 DUP3 ADD PUSH0 SWAP1 SLOAD SWAP1 PUSH2 0x100 EXP SWAP1 DIV PUSH20 0xFFFFFFFFFFFFFFFFFFFFFFFFFFFFFFFFFFFFFFFF AND PUSH20 0xFFFFFFFFFFFFFFFFFFFFFFFFFFFFFFFFFFFFFFFF AND PUSH20 0xFFFFFFFFFFFFFFFFFFFFFFFFFFFFFFFFFFFFFFFF AND DUP2 MSTORE PUSH1 0x20 ADD PUSH1 0x2 DUP3 ADD PUSH1 0x14 SWAP1 SLOAD SWAP1 PUSH2 0x100 EXP SWAP1 DIV PUSH1 0xFF AND PUSH1 0x2 DUP2 GT ISZERO PUSH2 0xCEE JUMPI PUSH2 0xCED PUSH2 0x1813 JUMP JUMPDEST JUMPDEST PUSH1 0x2 DUP2 GT ISZERO PUSH2 0xD00 JUMPI PUSH2 0xCFF PUSH2 0x1813 JUMP JUMPDEST JUMPDEST DUP2 MSTORE PUSH1 0x20 ADD PUSH1 0x3 DUP3 ADD SLOAD DUP2 MSTORE POP POP DUP2 MSTORE PUSH1 0x20 ADD SWAP1 PUSH1 0x1 ADD SWAP1 PUSH2 0xB34 JUMP JUMPDEST POP POP POP POP SWAP1 POP PUSH0 PUSH0 PUSH0 SWAP1 POP JUMPDEST DUP3 MLOAD DUP2 LT ISZERO PUSH2 0xD98 JUMPI PUSH1 0x1 PUSH1 0x2 DUP2 GT ISZERO PUSH2 0xD46 JUMPI PUSH2 0xD45 PUSH2 0x1813 JUMP JUMPDEST JUMPDEST DUP4 DUP3 DUP2 MLOAD DUP2 LT PUSH2 0xD59 JUMPI PUSH2 0xD58 PUSH2 0x1CD6 JUMP JUMPDEST JUMPDEST PUSH1 0x20 MUL PUSH1 0x20 ADD ADD MLOAD PUSH1 0x60 ADD MLOAD PUSH1 0x2 DUP2 GT ISZERO PUSH2 0xD77 JUMPI PUSH2 0xD76 PUSH2 0x1813 JUMP JUMPDEST JUMPDEST SUB PUSH2 0xD8B JUMPI DUP2 DUP1 PUSH2 0xD87 SWAP1 PUSH2 0x2058 JUMP JUMPDEST SWAP3 POP POP JUMPDEST DUP1 DUP1 PUSH1 0x1 ADD SWAP2 POP POP PUSH2 0xD29 JUMP JUMPDEST POP PUSH0 DUP2 PUSH8 0xFFFFFFFFFFFFFFFF DUP2 GT ISZERO PUSH2 0xDB4 JUMPI PUSH2 0xDB3 PUSH2 0x15CE JUMP JUMPDEST JUMPDEST PUSH1 0x40 MLOAD SWAP1 DUP1 DUP3 MSTORE DUP1 PUSH1 0x20 MUL PUSH1 0x20 ADD DUP3 ADD PUSH1 0x40 MSTORE DUP1 ISZERO PUSH2 0xDED JUMPI DUP2 PUSH1 0x20 ADD JUMPDEST PUSH2 0xDDA PUSH2 0x136C JUMP JUMPDEST DUP2 MSTORE PUSH1 0x20 ADD SWAP1 PUSH1 0x1 SWAP1 SUB SWAP1 DUP2 PUSH2 0xDD2 JUMPI SWAP1 POP JUMPDEST POP SWAP1 POP PUSH0 PUSH0 SWAP1 POP PUSH0 PUSH0 SWAP1 POP JUMPDEST DUP5 MLOAD DUP2 LT ISZERO PUSH2 0xE9F JUMPI PUSH1 0x1 PUSH1 0x2 DUP2 GT ISZERO PUSH2 0xE16 JUMPI PUSH2 0xE15 PUSH2 0x1813 JUMP JUMPDEST JUMPDEST DUP6 DUP3 DUP2 MLOAD DUP2 LT PUSH2 0xE29 JUMPI PUSH2 0xE28 PUSH2 0x1CD6 JUMP JUMPDEST JUMPDEST PUSH1 0x20 MUL PUSH1 0x20 ADD ADD MLOAD PUSH1 0x60 ADD MLOAD PUSH1 0x2 DUP2 GT ISZERO PUSH2 0xE47 JUMPI PUSH2 0xE46 PUSH2 0x1813 JUMP JUMPDEST JUMPDEST SUB PUSH2 0xE92 JUMPI DUP5 DUP2 DUP2 MLOAD DUP2 LT PUSH2 0xE5F JUMPI PUSH2 0xE5E PUSH2 0x1CD6 JUMP JUMPDEST JUMPDEST PUSH1 0x20 MUL PUSH1 0x20 ADD ADD MLOAD DUP4 DUP4 DUP1 PUSH2 0xE73 SWAP1 PUSH2 0x2058 JUMP JUMPDEST SWAP5 POP DUP2 MLOAD DUP2 LT PUSH2 0xE86 JUMPI PUSH2 0xE85 PUSH2 0x1CD6 JUMP JUMPDEST JUMPDEST PUSH1 0x20 MUL PUSH1 0x20 ADD ADD DUP2 SWAP1 MSTORE POP JUMPDEST DUP1 DUP1 PUSH1 0x1 ADD SWAP2 POP POP PUSH2 0xDF9 JUMP JUMPDEST POP DUP2 SWAP5 POP POP POP POP POP SWAP2 SWAP1 POP JUMP JUMPDEST PUSH2 0xEB4 PUSH2 0x136C JUMP JUMPDEST PUSH1 0x2 PUSH0 DUP5 PUSH20 0xFFFFFFFFFFFFFFFFFFFFFFFFFFFFFFFFFFFFFFFF AND PUSH20 0xFFFFFFFFFFFFFFFFFFFFFFFFFFFFFFFFFFFFFFFF AND DUP2 MSTORE PUSH1 0x20 ADD SWAP1 DUP2 MSTORE PUSH1 0x20 ADD PUSH0 KECCAK256 DUP1 SLOAD SWAP1 POP DUP3 LT PUSH2 0xF36 JUMPI PUSH1 0x40 MLOAD PUSH32 0x8C379A000000000000000000000000000000000000000000000000000000000 DUP2 MSTORE PUSH1 0x4 ADD PUSH2 0xF2D SWAP1 PUSH2 0x1CB8 JUMP JUMPDEST PUSH1 0x40 MLOAD DUP1 SWAP2 SUB SWAP1 REVERT JUMPDEST PUSH1 0x2 PUSH0 DUP5 PUSH20 0xFFFFFFFFFFFFFFFFFFFFFFFFFFFFFFFFFFFFFFFF AND PUSH20 0xFFFFFFFFFFFFFFFFFFFFFFFFFFFFFFFFFFFFFFFF AND DUP2 MSTORE PUSH1 0x20 ADD SWAP1 DUP2 MSTORE PUSH1 0x20 ADD PUSH0 KECCAK256 DUP3 DUP2 SLOAD DUP2 LT PUSH2 0xF85 JUMPI PUSH2 0xF84 PUSH2 0x1CD6 JUMP JUMPDEST JUMPDEST SWAP1 PUSH0 MSTORE PUSH1 0x20 PUSH0 KECCAK256 SWAP1 PUSH1 0x4 MUL ADD PUSH1 0x40 MLOAD DUP1 PUSH1 0xA0 ADD PUSH1 0x40 MSTORE SWAP1 DUP2 PUSH0 DUP3 ADD DUP1 SLOAD PUSH2 0xFAB SWAP1 PUSH2 0x1D57 JUMP JUMPDEST DUP1 PUSH1 0x1F ADD PUSH1 0x20 DUP1 SWAP2 DIV MUL PUSH1 0x20 ADD PUSH1 0x40 MLOAD SWAP1 DUP2 ADD PUSH1 0x40 MSTORE DUP1 SWAP3 SWAP2 SWAP1 DUP2 DUP2 MSTORE PUSH1 0x20 ADD DUP3 DUP1 SLOAD PUSH2 0xFD7 SWAP1 PUSH2 0x1D57 JUMP JUMPDEST DUP1 ISZERO PUSH2 0x1022 JUMPI DUP1 PUSH1 0x1F LT PUSH2 0xFF9 JUMPI PUSH2 0x100 DUP1 DUP4 SLOAD DIV MUL DUP4 MSTORE SWAP2 PUSH1 0x20 ADD SWAP2 PUSH2 0x1022 JUMP JUMPDEST DUP3 ADD SWAP2 SWAP1 PUSH0 MSTORE PUSH1 0x20 PUSH0 KECCAK256 SWAP1 JUMPDEST DUP2 SLOAD DUP2 MSTORE SWAP1 PUSH1 0x1 ADD SWAP1 PUSH1 0x20 ADD DUP1 DUP4 GT PUSH2 0x1005 JUMPI DUP3 SWAP1 SUB PUSH1 0x1F AND DUP3 ADD SWAP2 JUMPDEST POP POP POP POP POP DUP2 MSTORE PUSH1 0x20 ADD PUSH1 0x1 DUP3 ADD DUP1 SLOAD PUSH2 0x103B SWAP1 PUSH2 0x1D57 JUMP JUMPDEST DUP1 PUSH1 0x1F ADD PUSH1 0x20 DUP1 SWAP2 DIV MUL PUSH1 0x20 ADD PUSH1 0x40 MLOAD SWAP1 DUP2 ADD PUSH1 0x40 MSTORE DUP1 SWAP3 SWAP2 SWAP1 DUP2 DUP2 MSTORE PUSH1 0x20 ADD DUP3 DUP1 SLOAD PUSH2 0x1067 SWAP1 PUSH2 0x1D57 JUMP JUMPDEST DUP1 ISZERO PUSH2 0x10B2 JUMPI DUP1 PUSH1 0x1F LT PUSH2 0x1089 JUMPI PUSH2 0x100 DUP1 DUP4 SLOAD DIV MUL DUP4 MSTORE SWAP2 PUSH1 0x20 ADD SWAP2 PUSH2 0x10B2 JUMP JUMPDEST DUP3 ADD SWAP2 SWAP1 PUSH0 MSTORE PUSH1 0x20 PUSH0 KECCAK256 SWAP1 JUMPDEST DUP2 SLOAD DUP2 MSTORE SWAP1 PUSH1 0x1 ADD SWAP1 PUSH1 0x20 ADD DUP1 DUP4 GT PUSH2 0x1095 JUMPI DUP3 SWAP1 SUB PUSH1 0x1F AND DUP3 ADD SWAP2 JUMPDEST POP POP POP POP POP DUP2 MSTORE PUSH1 0x20 ADD PUSH1 0x2 DUP3 ADD PUSH0 SWAP1 SLOAD SWAP1 PUSH2 0x100 EXP SWAP1 DIV PUSH20 0xFFFFFFFFFFFFFFFFFFFFFFFFFFFFFFFFFFFFFFFF AND PUSH20 0xFFFFFFFFFFFFFFFFFFFFFFFFFFFFFFFFFFFFFFFF AND PUSH20 0xFFFFFFFFFFFFFFFFFFFFFFFFFFFFFFFFFFFFFFFF AND DUP2 MSTORE PUSH1 0x20 ADD PUSH1 0x2 DUP3 ADD PUSH1 0x14 SWAP1 SLOAD SWAP1 PUSH2 0x100 EXP SWAP1 DIV PUSH1 0xFF AND PUSH1 0x2 DUP2 GT ISZERO PUSH2 0x1135 JUMPI PUSH2 0x1134 PUSH2 0x1813 JUMP JUMPDEST JUMPDEST PUSH1 0x2 DUP2 GT ISZERO PUSH2 0x1147 JUMPI PUSH2 0x1146 PUSH2 0x1813 JUMP JUMPDEST JUMPDEST DUP2 MSTORE PUSH1 0x20 ADD PUSH1 0x3 DUP3 ADD SLOAD DUP2 MSTORE POP POP SWAP1 POP SWAP3 SWAP2 POP POP JUMP JUMPDEST PUSH1 0x2 PUSH1 0x20 MSTORE DUP2 PUSH0 MSTORE PUSH1 0x40 PUSH0 KECCAK256 DUP2 DUP2 SLOAD DUP2 LT PUSH2 0x1176 JUMPI PUSH0 DUP1 REVERT JUMPDEST SWAP1 PUSH0 MSTORE PUSH1 0x20 PUSH0 KECCAK256 SWAP1 PUSH1 0x4 MUL ADD PUSH0 SWAP2 POP SWAP2 POP POP DUP1 PUSH0 ADD DUP1 SLOAD PUSH2 0x1196 SWAP1 PUSH2 0x1D57 JUMP JUMPDEST DUP1 PUSH1 0x1F ADD PUSH1 0x20 DUP1 SWAP2 DIV MUL PUSH1 0x20 ADD PUSH1 0x40 MLOAD SWAP1 DUP2 ADD PUSH1 0x40 MSTORE DUP1 SWAP3 SWAP2 SWAP1 DUP2 DUP2 MSTORE PUSH1 0x20 ADD DUP3 DUP1 SLOAD PUSH2 0x11C2 SWAP1 PUSH2 0x1D57 JUMP JUMPDEST DUP1 ISZERO PUSH2 0x120D JUMPI DUP1 PUSH1 0x1F LT PUSH2 0x11E4 JUMPI PUSH2 0x100 DUP1 DUP4 SLOAD DIV MUL DUP4 MSTORE SWAP2 PUSH1 0x20 ADD SWAP2 PUSH2 0x120D JUMP JUMPDEST DUP3 ADD SWAP2 SWAP1 PUSH0 MSTORE PUSH1 0x20 PUSH0 KECCAK256 SWAP1 JUMPDEST DUP2 SLOAD DUP2 MSTORE SWAP1 PUSH1 0x1 ADD SWAP1 PUSH1 0x20 ADD DUP1 DUP4 GT PUSH2 0x11F0 JUMPI DUP3 SWAP1 SUB PUSH1 0x1F AND DUP3 ADD SWAP2 JUMPDEST POP POP POP POP POP SWAP1 DUP1 PUSH1 0x1 ADD DUP1 SLOAD PUSH2 0x1222 SWAP1 PUSH2 0x1D57 JUMP JUMPDEST DUP1 PUSH1 0x1F ADD PUSH1 0x20 DUP1 SWAP2 DIV MUL PUSH1 0x20 ADD PUSH1 0x40 MLOAD SWAP1 DUP2 ADD PUSH1 0x40 MSTORE DUP1 SWAP3 SWAP2 SWAP1 DUP2 DUP2 MSTORE PUSH1 0x20 ADD DUP3 DUP1 SLOAD PUSH2 0x124E SWAP1 PUSH2 0x1D57 JUMP JUMPDEST DUP1 ISZERO PUSH2 0x1299 JUMPI DUP1 PUSH1 0x1F LT PUSH2 0x1270 JUMPI PUSH2 0x100 DUP1 DUP4 SLOAD DIV MUL DUP4 MSTORE SWAP2 PUSH1 0x20 ADD SWAP2 PUSH2 0x1299 JUMP JUMPDEST DUP3 ADD SWAP2 SWAP1 PUSH0 MSTORE PUSH1 0x20 PUSH0 KECCAK256 SWAP1 JUMPDEST DUP2 SLOAD DUP2 MSTORE SWAP1 PUSH1 0x1 ADD SWAP1 PUSH1 0x20 ADD DUP1 DUP4 GT PUSH2 0x127C JUMPI DUP3 SWAP1 SUB PUSH1 0x1F AND DUP3 ADD SWAP2 JUMPDEST POP POP POP POP POP SWAP1 DUP1 PUSH1 0x2 ADD PUSH0 SWAP1 SLOAD SWAP1 PUSH2 0x100 EXP SWAP1 DIV PUSH20 0xFFFFFFFFFFFFFFFFFFFFFFFFFFFFFFFFFFFFFFFF AND SWAP1 DUP1 PUSH1 0x2 ADD PUSH1 0x14 SWAP1 SLOAD SWAP1 PUSH2 0x100 EXP SWAP1 DIV PUSH1 0xFF AND SWAP1 DUP1 PUSH1 0x3 ADD SLOAD SWAP1 POP DUP6 JUMP JUMPDEST PUSH1 0x60 PUSH1 0x3 DUP1 SLOAD DUP1 PUSH1 0x20 MUL PUSH1 0x20 ADD PUSH1 0x40 MLOAD SWAP1 DUP2 ADD PUSH1 0x40 MSTORE DUP1 SWAP3 SWAP2 SWAP1 DUP2 DUP2 MSTORE PUSH1 0x20 ADD DUP3 DUP1 SLOAD DUP1 ISZERO PUSH2 0x1362 JUMPI PUSH1 0x20 MUL DUP3 ADD SWAP2 SWAP1 PUSH0 MSTORE PUSH1 0x20 PUSH0 KECCAK256 SWAP1 JUMPDEST DUP2 PUSH0 SWAP1 SLOAD SWAP1 PUSH2 0x100 EXP SWAP1 DIV PUSH20 0xFFFFFFFFFFFFFFFFFFFFFFFFFFFFFFFFFFFFFFFF AND PUSH20 0xFFFFFFFFFFFFFFFFFFFFFFFFFFFFFFFFFFFFFFFF AND DUP2 MSTORE PUSH1 0x20 ADD SWAP1 PUSH1 0x1 ADD SWAP1 DUP1 DUP4 GT PUSH2 0x1319 JUMPI JUMPDEST POP POP POP POP POP SWAP1 POP SWAP1 JUMP JUMPDEST PUSH1 0x40 MLOAD DUP1 PUSH1 0xA0 ADD PUSH1 0x40 MSTORE DUP1 PUSH1 0x60 DUP2 MSTORE PUSH1 0x20 ADD PUSH1 0x60 DUP2 MSTORE PUSH1 0x20 ADD PUSH0 PUSH20 0xFFFFFFFFFFFFFFFFFFFFFFFFFFFFFFFFFFFFFFFF AND DUP2 MSTORE PUSH1 0x20 ADD PUSH0 PUSH1 0x2 DUP2 GT ISZERO PUSH2 0x13B4 JUMPI PUSH2 0x13B3 PUSH2 0x1813 JUMP JUMPDEST JUMPDEST DUP2 MSTORE PUSH1 0x20 ADD PUSH0 DUP2 MSTORE POP SWAP1 JUMP JUMPDEST PUSH0 PUSH1 0x40 MLOAD SWAP1 POP SWAP1 JUMP JUMPDEST PUSH0 PUSH0 REVERT JUMPDEST PUSH0 PUSH0 REVERT JUMPDEST PUSH0 PUSH20 0xFFFFFFFFFFFFFFFFFFFFFFFFFFFFFFFFFFFFFFFF DUP3 AND SWAP1 POP SWAP2 SWAP1 POP JUMP JUMPDEST PUSH0 PUSH2 0x13FA DUP3 PUSH2 0x13D1 JUMP JUMPDEST SWAP1 POP SWAP2 SWAP1 POP JUMP JUMPDEST PUSH2 0x140A DUP2 PUSH2 0x13F0 JUMP JUMPDEST DUP2 EQ PUSH2 0x1414 JUMPI PUSH0 PUSH0 REVERT JUMPDEST POP JUMP JUMPDEST PUSH0 DUP2 CALLDATALOAD SWAP1 POP PUSH2 0x1425 DUP2 PUSH2 0x1401 JUMP JUMPDEST SWAP3 SWAP2 POP POP JUMP JUMPDEST PUSH0 DUP2 SWAP1 POP SWAP2 SWAP1 POP JUMP JUMPDEST PUSH2 0x143D DUP2 PUSH2 0x142B JUMP JUMPDEST DUP2 EQ PUSH2 0x1447 JUMPI PUSH0 PUSH0 REVERT JUMPDEST POP JUMP JUMPDEST PUSH0 DUP2 CALLDATALOAD SWAP1 POP PUSH2 0x1458 DUP2 PUSH2 0x1434 JUMP JUMPDEST SWAP3 SWAP2 POP POP JUMP JUMPDEST PUSH0 DUP2 ISZERO ISZERO SWAP1 POP SWAP2 SWAP1 POP JUMP JUMPDEST PUSH2 0x1472 DUP2 PUSH2 0x145E JUMP JUMPDEST DUP2 EQ PUSH2 0x147C JUMPI PUSH0 PUSH0 REVERT JUMPDEST POP JUMP JUMPDEST PUSH0 DUP2 CALLDATALOAD SWAP1 POP PUSH2 0x148D DUP2 PUSH2 0x1469 JUMP JUMPDEST SWAP3 SWAP2 POP POP JUMP JUMPDEST PUSH0 PUSH0 PUSH0 PUSH1 0x60 DUP5 DUP7 SUB SLT ISZERO PUSH2 0x14AA JUMPI PUSH2 0x14A9 PUSH2 0x13C9 JUMP JUMPDEST JUMPDEST PUSH0 PUSH2 0x14B7 DUP7 DUP3 DUP8 ADD PUSH2 0x1417 JUMP JUMPDEST SWAP4 POP POP PUSH1 0x20 PUSH2 0x14C8 DUP7 DUP3 DUP8 ADD PUSH2 0x144A JUMP JUMPDEST SWAP3 POP POP PUSH1 0x40 PUSH2 0x14D9 DUP7 DUP3 DUP8 ADD PUSH2 0x147F JUMP JUMPDEST SWAP2 POP POP SWAP3 POP SWAP3 POP SWAP3 JUMP JUMPDEST PUSH0 DUP2 MLOAD SWAP1 POP SWAP2 SWAP1 POP JUMP JUMPDEST PUSH0 DUP3 DUP3 MSTORE PUSH1 0x20 DUP3 ADD SWAP1 POP SWAP3 SWAP2 POP POP JUMP JUMPDEST DUP3 DUP2 DUP4 MCOPY PUSH0 DUP4 DUP4 ADD MSTORE POP POP POP JUMP JUMPDEST PUSH0 PUSH1 0x1F NOT PUSH1 0x1F DUP4 ADD AND SWAP1 POP SWAP2 SWAP1 POP JUMP JUMPDEST PUSH0 PUSH2 0x1525 DUP3 PUSH2 0x14E3 JUMP JUMPDEST PUSH2 0x152F DUP2 DUP6 PUSH2 0x14ED JUMP JUMPDEST SWAP4 POP PUSH2 0x153F DUP2 DUP6 PUSH1 0x20 DUP7 ADD PUSH2 0x14FD JUMP JUMPDEST PUSH2 0x1548 DUP2 PUSH2 0x150B JUMP JUMPDEST DUP5 ADD SWAP2 POP POP SWAP3 SWAP2 POP POP JUMP JUMPDEST PUSH0 PUSH1 0x20 DUP3 ADD SWAP1 POP DUP2 DUP2 SUB PUSH0 DUP4 ADD MSTORE PUSH2 0x156B DUP2 DUP5 PUSH2 0x151B JUMP JUMPDEST SWAP1 POP SWAP3 SWAP2 POP POP JUMP JUMPDEST PUSH0 PUSH1 0x20 DUP3 DUP5 SUB SLT ISZERO PUSH2 0x1588 JUMPI PUSH2 0x1587 PUSH2 0x13C9 JUMP JUMPDEST JUMPDEST PUSH0 PUSH2 0x1595 DUP5 DUP3 DUP6 ADD PUSH2 0x144A JUMP JUMPDEST SWAP2 POP POP SWAP3 SWAP2 POP POP JUMP JUMPDEST PUSH2 0x15A7 DUP2 PUSH2 0x13F0 JUMP JUMPDEST DUP3 MSTORE POP POP JUMP JUMPDEST PUSH0 PUSH1 0x20 DUP3 ADD SWAP1 POP PUSH2 0x15C0 PUSH0 DUP4 ADD DUP5 PUSH2 0x159E JUMP JUMPDEST SWAP3 SWAP2 POP POP JUMP JUMPDEST PUSH0 PUSH0 REVERT JUMPDEST PUSH0 PUSH0 REVERT JUMPDEST PUSH32 0x4E487B7100000000000000000000000000000000000000000000000000000000 PUSH0 MSTORE PUSH1 0x41 PUSH1 0x4 MSTORE PUSH1 0x24 PUSH0 REVERT JUMPDEST PUSH2 0x1604 DUP3 PUSH2 0x150B JUMP JUMPDEST DUP2 ADD DUP2 DUP2 LT PUSH8 0xFFFFFFFFFFFFFFFF DUP3 GT OR ISZERO PUSH2 0x1623 JUMPI PUSH2 0x1622 PUSH2 0x15CE JUMP JUMPDEST JUMPDEST DUP1 PUSH1 0x40 MSTORE POP POP POP JUMP JUMPDEST PUSH0 PUSH2 0x1635 PUSH2 0x13C0 JUMP JUMPDEST SWAP1 POP PUSH2 0x1641 DUP3 DUP3 PUSH2 0x15FB JUMP JUMPDEST SWAP2 SWAP1 POP JUMP JUMPDEST PUSH0 PUSH8 0xFFFFFFFFFFFFFFFF DUP3 GT ISZERO PUSH2 0x1660 JUMPI PUSH2 0x165F PUSH2 0x15CE JUMP JUMPDEST JUMPDEST PUSH2 0x1669 DUP3 PUSH2 0x150B JUMP JUMPDEST SWAP1 POP PUSH1 0x20 DUP2 ADD SWAP1 POP SWAP2 SWAP1 POP JUMP JUMPDEST DUP3 DUP2 DUP4 CALLDATACOPY PUSH0 DUP4 DUP4 ADD MSTORE POP POP POP JUMP JUMPDEST PUSH0 PUSH2 0x1696 PUSH2 0x1691 DUP5 PUSH2 0x1646 JUMP JUMPDEST PUSH2 0x162C JUMP JUMPDEST SWAP1 POP DUP3 DUP2 MSTORE PUSH1 0x20 DUP2 ADD DUP5 DUP5 DUP5 ADD GT ISZERO PUSH2 0x16B2 JUMPI PUSH2 0x16B1 PUSH2 0x15CA JUMP JUMPDEST JUMPDEST PUSH2 0x16BD DUP5 DUP3 DUP6 PUSH2 0x1676 JUMP JUMPDEST POP SWAP4 SWAP3 POP POP POP JUMP JUMPDEST PUSH0 DUP3 PUSH1 0x1F DUP4 ADD SLT PUSH2 0x16D9 JUMPI PUSH2 0x16D8 PUSH2 0x15C6 JUMP JUMPDEST JUMPDEST DUP2 CALLDATALOAD PUSH2 0x16E9 DUP5 DUP3 PUSH1 0x20 DUP7 ADD PUSH2 0x1684 JUMP JUMPDEST SWAP2 POP POP SWAP3 SWAP2 POP POP JUMP JUMPDEST PUSH0 PUSH0 PUSH1 0x40 DUP4 DUP6 SUB SLT ISZERO PUSH2 0x1708 JUMPI PUSH2 0x1707 PUSH2 0x13C9 JUMP JUMPDEST JUMPDEST PUSH0 DUP4 ADD CALLDATALOAD PUSH8 0xFFFFFFFFFFFFFFFF DUP2 GT ISZERO PUSH2 0x1725 JUMPI PUSH2 0x1724 PUSH2 0x13CD JUMP JUMPDEST JUMPDEST PUSH2 0x1731 DUP6 DUP3 DUP7 ADD PUSH2 0x16C5 JUMP JUMPDEST SWAP3 POP POP PUSH1 0x20 DUP4 ADD CALLDATALOAD PUSH8 0xFFFFFFFFFFFFFFFF DUP2 GT ISZERO PUSH2 0x1752 JUMPI PUSH2 0x1751 PUSH2 0x13CD JUMP JUMPDEST JUMPDEST PUSH2 0x175E DUP6 DUP3 DUP7 ADD PUSH2 0x16C5 JUMP JUMPDEST SWAP2 POP POP SWAP3 POP SWAP3 SWAP1 POP JUMP JUMPDEST PUSH0 PUSH1 0x20 DUP3 DUP5 SUB SLT ISZERO PUSH2 0x177D JUMPI PUSH2 0x177C PUSH2 0x13C9 JUMP JUMPDEST JUMPDEST PUSH0 PUSH2 0x178A DUP5 DUP3 DUP6 ADD PUSH2 0x1417 JUMP JUMPDEST SWAP2 POP POP SWAP3 SWAP2 POP POP JUMP JUMPDEST PUSH0 DUP2 MLOAD SWAP1 POP SWAP2 SWAP1 POP JUMP JUMPDEST PUSH0 DUP3 DUP3 MSTORE PUSH1 0x20 DUP3 ADD SWAP1 POP SWAP3 SWAP2 POP POP JUMP JUMPDEST PUSH0 DUP2 SWAP1 POP PUSH1 0x20 DUP3 ADD SWAP1 POP SWAP2 SWAP1 POP JUMP JUMPDEST PUSH0 DUP3 DUP3 MSTORE PUSH1 0x20 DUP3 ADD SWAP1 POP SWAP3 SWAP2 POP POP JUMP JUMPDEST PUSH0 PUSH2 0x17D6 DUP3 PUSH2 0x14E3 JUMP JUMPDEST PUSH2 0x17E0 DUP2 DUP6 PUSH2 0x17BC JUMP JUMPDEST SWAP4 POP PUSH2 0x17F0 DUP2 DUP6 PUSH1 0x20 DUP7 ADD PUSH2 0x14FD JUMP JUMPDEST PUSH2 0x17F9 DUP2 PUSH2 0x150B JUMP JUMPDEST DUP5 ADD SWAP2 POP POP SWAP3 SWAP2 POP POP JUMP JUMPDEST PUSH2 0x180D DUP2 PUSH2 0x13F0 JUMP JUMPDEST DUP3 MSTORE POP POP JUMP JUMPDEST PUSH32 0x4E487B7100000000000000000000000000000000000000000000000000000000 PUSH0 MSTORE PUSH1 0x21 PUSH1 0x4 MSTORE PUSH1 0x24 PUSH0 REVERT JUMPDEST PUSH1 0x3 DUP2 LT PUSH2 0x1851 JUMPI PUSH2 0x1850 PUSH2 0x1813 JUMP JUMPDEST JUMPDEST POP JUMP JUMPDEST PUSH0 DUP2 SWAP1 POP PUSH2 0x1861 DUP3 PUSH2 0x1840 JUMP JUMPDEST SWAP2 SWAP1 POP JUMP JUMPDEST PUSH0 PUSH2 0x1870 DUP3 PUSH2 0x1854 JUMP JUMPDEST SWAP1 POP SWAP2 SWAP1 POP JUMP JUMPDEST PUSH2 0x1880 DUP2 PUSH2 0x1866 JUMP JUMPDEST DUP3 MSTORE POP POP JUMP JUMPDEST PUSH2 0x188F DUP2 PUSH2 0x142B JUMP JUMPDEST DUP3 MSTORE POP POP JUMP JUMPDEST PUSH0 PUSH1 0xA0 DUP4 ADD PUSH0 DUP4 ADD MLOAD DUP5 DUP3 SUB PUSH0 DUP7 ADD MSTORE PUSH2 0x18AF DUP3 DUP3 PUSH2 0x17CC JUMP JUMPDEST SWAP2 POP POP PUSH1 0x20 DUP4 ADD MLOAD DUP5 DUP3 SUB PUSH1 0x20 DUP7 ADD MSTORE PUSH2 0x18C9 DUP3 DUP3 PUSH2 0x17CC JUMP JUMPDEST SWAP2 POP POP PUSH1 0x40 DUP4 ADD MLOAD PUSH2 0x18DE PUSH1 0x40 DUP7 ADD DUP3 PUSH2 0x1804 JUMP JUMPDEST POP PUSH1 0x60 DUP4 ADD MLOAD PUSH2 0x18F1 PUSH1 0x60 DUP7 ADD DUP3 PUSH2 0x1877 JUMP JUMPDEST POP PUSH1 0x80 DUP4 ADD MLOAD PUSH2 0x1904 PUSH1 0x80 DUP7 ADD DUP3 PUSH2 0x1886 JUMP JUMPDEST POP DUP1 SWAP2 POP POP SWAP3 SWAP2 POP POP JUMP JUMPDEST PUSH0 PUSH2 0x191A DUP4 DUP4 PUSH2 0x1895 JUMP JUMPDEST SWAP1 POP SWAP3 SWAP2 POP POP JUMP JUMPDEST PUSH0 PUSH1 0x20 DUP3 ADD SWAP1 POP SWAP2 SWAP1 POP JUMP JUMPDEST PUSH0 PUSH2 0x1938 DUP3 PUSH2 0x1793 JUMP JUMPDEST PUSH2 0x1942 DUP2 DUP6 PUSH2 0x179D JUMP JUMPDEST SWAP4 POP DUP4 PUSH1 0x20 DUP3 MUL DUP6 ADD PUSH2 0x1954 DUP6 PUSH2 0x17AD JUMP JUMPDEST DUP1 PUSH0 JUMPDEST DUP6 DUP2 LT ISZERO PUSH2 0x198F JUMPI DUP5 DUP5 SUB DUP10 MSTORE DUP2 MLOAD PUSH2 0x1970 DUP6 DUP3 PUSH2 0x190F JUMP JUMPDEST SWAP5 POP PUSH2 0x197B DUP4 PUSH2 0x1922 JUMP JUMPDEST SWAP3 POP PUSH1 0x20 DUP11 ADD SWAP10 POP POP PUSH1 0x1 DUP2 ADD SWAP1 POP PUSH2 0x1957 JUMP JUMPDEST POP DUP3 SWAP8 POP DUP8 SWAP6 POP POP POP POP POP POP SWAP3 SWAP2 POP POP JUMP JUMPDEST PUSH0 PUSH1 0x20 DUP3 ADD SWAP1 POP DUP2 DUP2 SUB PUSH0 DUP4 ADD MSTORE PUSH2 0x19B9 DUP2 DUP5 PUSH2 0x192E JUMP JUMPDEST SWAP1 POP SWAP3 SWAP2 POP POP JUMP JUMPDEST PUSH2 0x19CA DUP2 PUSH2 0x145E JUMP JUMPDEST DUP3 MSTORE POP POP JUMP JUMPDEST PUSH0 PUSH1 0x20 DUP3 ADD SWAP1 POP PUSH2 0x19E3 PUSH0 DUP4 ADD DUP5 PUSH2 0x19C1 JUMP JUMPDEST SWAP3 SWAP2 POP POP JUMP JUMPDEST PUSH0 PUSH0 PUSH1 0x40 DUP4 DUP6 SUB SLT ISZERO PUSH2 0x19FF JUMPI PUSH2 0x19FE PUSH2 0x13C9 JUMP JUMPDEST JUMPDEST PUSH0 PUSH2 0x1A0C DUP6 DUP3 DUP7 ADD PUSH2 0x1417 JUMP JUMPDEST SWAP3 POP POP PUSH1 0x20 PUSH2 0x1A1D DUP6 DUP3 DUP7 ADD PUSH2 0x144A JUMP JUMPDEST SWAP2 POP POP SWAP3 POP SWAP3 SWAP1 POP JUMP JUMPDEST PUSH0 PUSH1 0xA0 DUP4 ADD PUSH0 DUP4 ADD MLOAD DUP5 DUP3 SUB PUSH0 DUP7 ADD MSTORE PUSH2 0x1A41 DUP3 DUP3 PUSH2 0x17CC JUMP JUMPDEST SWAP2 POP POP PUSH1 0x20 DUP4 ADD MLOAD DUP5 DUP3 SUB PUSH1 0x20 DUP7 ADD MSTORE PUSH2 0x1A5B DUP3 DUP3 PUSH2 0x17CC JUMP JUMPDEST SWAP2 POP POP PUSH1 0x40 DUP4 ADD MLOAD PUSH2 0x1A70 PUSH1 0x40 DUP7 ADD DUP3 PUSH2 0x1804 JUMP JUMPDEST POP PUSH1 0x60 DUP4 ADD MLOAD PUSH2 0x1A83 PUSH1 0x60 DUP7 ADD DUP3 PUSH2 0x1877 JUMP JUMPDEST POP PUSH1 0x80 DUP4 ADD MLOAD PUSH2 0x1A96 PUSH1 0x80 DUP7 ADD DUP3 PUSH2 0x1886 JUMP JUMPDEST POP DUP1 SWAP2 POP POP SWAP3 SWAP2 POP POP JUMP JUMPDEST PUSH0 PUSH1 0x20 DUP3 ADD SWAP1 POP DUP2 DUP2 SUB PUSH0 DUP4 ADD MSTORE PUSH2 0x1AB9 DUP2 DUP5 PUSH2 0x1A27 JUMP JUMPDEST SWAP1 POP SWAP3 SWAP2 POP POP JUMP JUMPDEST PUSH2 0x1ACA DUP2 PUSH2 0x1866 JUMP JUMPDEST DUP3 MSTORE POP POP JUMP JUMPDEST PUSH2 0x1AD9 DUP2 PUSH2 0x142B JUMP JUMPDEST DUP3 MSTORE POP POP JUMP JUMPDEST PUSH0 PUSH1 0xA0 DUP3 ADD SWAP1 POP DUP2 DUP2 SUB PUSH0 DUP4 ADD MSTORE PUSH2 0x1AF7 DUP2 DUP9 PUSH2 0x151B JUMP JUMPDEST SWAP1 POP DUP2 DUP2 SUB PUSH1 0x20 DUP4 ADD MSTORE PUSH2 0x1B0B DUP2 DUP8 PUSH2 0x151B JUMP JUMPDEST SWAP1 POP PUSH2 0x1B1A PUSH1 0x40 DUP4 ADD DUP7 PUSH2 0x159E JUMP JUMPDEST PUSH2 0x1B27 PUSH1 0x60 DUP4 ADD DUP6 PUSH2 0x1AC1 JUMP JUMPDEST PUSH2 0x1B34 PUSH1 0x80 DUP4 ADD DUP5 PUSH2 0x1AD0 JUMP JUMPDEST SWAP7 SWAP6 POP POP POP POP POP POP JUMP JUMPDEST PUSH0 DUP2 MLOAD SWAP1 POP SWAP2 SWAP1 POP JUMP JUMPDEST PUSH0 DUP3 DUP3 MSTORE PUSH1 0x20 DUP3 ADD SWAP1 POP SWAP3 SWAP2 POP POP JUMP JUMPDEST PUSH0 DUP2 SWAP1 POP PUSH1 0x20 DUP3 ADD SWAP1 POP SWAP2 SWAP1 POP JUMP JUMPDEST PUSH0 PUSH2 0x1B72 DUP4 DUP4 PUSH2 0x1804 JUMP JUMPDEST PUSH1 0x20 DUP4 ADD SWAP1 POP SWAP3 SWAP2 POP POP JUMP JUMPDEST PUSH0 PUSH1 0x20 DUP3 ADD SWAP1 POP SWAP2 SWAP1 POP JUMP JUMPDEST PUSH0 PUSH2 0x1B94 DUP3 PUSH2 0x1B3E JUMP JUMPDEST PUSH2 0x1B9E DUP2 DUP6 PUSH2 0x1B48 JUMP JUMPDEST SWAP4 POP PUSH2 0x1BA9 DUP4 PUSH2 0x1B58 JUMP JUMPDEST DUP1 PUSH0 JUMPDEST DUP4 DUP2 LT ISZERO PUSH2 0x1BD9 JUMPI DUP2 MLOAD PUSH2 0x1BC0 DUP9 DUP3 PUSH2 0x1B67 JUMP JUMPDEST SWAP8 POP PUSH2 0x1BCB DUP4 PUSH2 0x1B7E JUMP JUMPDEST SWAP3 POP POP PUSH1 0x1 DUP2 ADD SWAP1 POP PUSH2 0x1BAC JUMP JUMPDEST POP DUP6 SWAP4 POP POP POP POP SWAP3 SWAP2 POP POP JUMP JUMPDEST PUSH0 PUSH1 0x20 DUP3 ADD SWAP1 POP DUP2 DUP2 SUB PUSH0 DUP4 ADD MSTORE PUSH2 0x1BFE DUP2 DUP5 PUSH2 0x1B8A JUMP JUMPDEST SWAP1 POP SWAP3 SWAP2 POP POP JUMP JUMPDEST PUSH32 0x4F6E6C79204F72672041646D696E000000000000000000000000000000000000 PUSH0 DUP3 ADD MSTORE POP JUMP JUMPDEST PUSH0 PUSH2 0x1C3A PUSH1 0xE DUP4 PUSH2 0x14ED JUMP JUMPDEST SWAP2 POP PUSH2 0x1C45 DUP3 PUSH2 0x1C06 JUMP JUMPDEST PUSH1 0x20 DUP3 ADD SWAP1 POP SWAP2 SWAP1 POP JUMP JUMPDEST PUSH0 PUSH1 0x20 DUP3 ADD SWAP1 POP DUP2 DUP2 SUB PUSH0 DUP4 ADD MSTORE PUSH2 0x1C67 DUP2 PUSH2 0x1C2E JUMP JUMPDEST SWAP1 POP SWAP2 SWAP1 POP JUMP JUMPDEST PUSH32 0x496E76616C696420696E64657800000000000000000000000000000000000000 PUSH0 DUP3 ADD MSTORE POP JUMP JUMPDEST PUSH0 PUSH2 0x1CA2 PUSH1 0xD DUP4 PUSH2 0x14ED JUMP JUMPDEST SWAP2 POP PUSH2 0x1CAD DUP3 PUSH2 0x1C6E JUMP JUMPDEST PUSH1 0x20 DUP3 ADD SWAP1 POP SWAP2 SWAP1 POP JUMP JUMPDEST PUSH0 PUSH1 0x20 DUP3 ADD SWAP1 POP DUP2 DUP2 SUB PUSH0 DUP4 ADD MSTORE PUSH2 0x1CCF DUP2 PUSH2 0x1C96 JUMP JUMPDEST SWAP1 POP SWAP2 SWAP1 POP JUMP JUMPDEST PUSH32 0x4E487B7100000000000000000000000000000000000000000000000000000000 PUSH0 MSTORE PUSH1 0x32 PUSH1 0x4 MSTORE PUSH1 0x24 PUSH0 REVERT JUMPDEST PUSH0 PUSH1 0x40 DUP3 ADD SWAP1 POP PUSH2 0x1D16 PUSH0 DUP4 ADD DUP6 PUSH2 0x1AD0 JUMP JUMPDEST PUSH2 0x1D23 PUSH1 0x20 DUP4 ADD DUP5 PUSH2 0x1AC1 JUMP JUMPDEST SWAP4 SWAP3 POP POP POP JUMP JUMPDEST PUSH32 0x4E487B7100000000000000000000000000000000000000000000000000000000 PUSH0 MSTORE PUSH1 0x22 PUSH1 0x4 MSTORE PUSH1 0x24 PUSH0 REVERT JUMPDEST PUSH0 PUSH1 0x2 DUP3 DIV SWAP1 POP PUSH1 0x1 DUP3 AND DUP1 PUSH2 0x1D6E JUMPI PUSH1 0x7F DUP3 AND SWAP2 POP JUMPDEST PUSH1 0x20 DUP3 LT DUP2 SUB PUSH2 0x1D81 JUMPI PUSH2 0x1D80 PUSH2 0x1D2A JUMP JUMPDEST JUMPDEST POP SWAP2 SWAP1 POP JUMP JUMPDEST PUSH0 DUP2 SWAP1 POP DUP2 PUSH0 MSTORE PUSH1 0x20 PUSH0 KECCAK256 SWAP1 POP SWAP2 SWAP1 POP JUMP JUMPDEST PUSH0 PUSH1 0x20 PUSH1 0x1F DUP4 ADD DIV SWAP1 POP SWAP2 SWAP1 POP JUMP JUMPDEST PUSH0 DUP3 DUP3 SHL SWAP1 POP SWAP3 SWAP2 POP POP JUMP JUMPDEST PUSH0 PUSH1 0x8 DUP4 MUL PUSH2 0x1DE3 PUSH32 0xFFFFFFFFFFFFFFFFFFFFFFFFFFFFFFFFFFFFFFFFFFFFFFFFFFFFFFFFFFFFFFFF DUP3 PUSH2 0x1DA8 JUMP JUMPDEST PUSH2 0x1DED DUP7 DUP4 PUSH2 0x1DA8 JUMP JUMPDEST SWAP6 POP DUP1 NOT DUP5 AND SWAP4 POP DUP1 DUP7 AND DUP5 OR SWAP3 POP POP POP SWAP4 SWAP3 POP POP POP JUMP JUMPDEST PUSH0 DUP2 SWAP1 POP SWAP2 SWAP1 POP JUMP JUMPDEST PUSH0 PUSH2 0x1E28 PUSH2 0x1E23 PUSH2 0x1E1E DUP5 PUSH2 0x142B JUMP JUMPDEST PUSH2 0x1E05 JUMP JUMPDEST PUSH2 0x142B JUMP JUMPDEST SWAP1 POP SWAP2 SWAP1 POP JUMP JUMPDEST PUSH0 DUP2 SWAP1 POP SWAP2 SWAP1 POP JUMP JUMPDEST PUSH2 0x1E41 DUP4 PUSH2 0x1E0E JUMP JUMPDEST PUSH2 0x1E55 PUSH2 0x1E4D DUP3 PUSH2 0x1E2F JUMP JUMPDEST DUP5 DUP5 SLOAD PUSH2 0x1DB4 JUMP JUMPDEST DUP3 SSTORE POP POP POP POP JUMP JUMPDEST PUSH0 PUSH0 SWAP1 POP SWAP1 JUMP JUMPDEST PUSH2 0x1E6C PUSH2 0x1E5D JUMP JUMPDEST PUSH2 0x1E77 DUP2 DUP5 DUP5 PUSH2 0x1E38 JUMP JUMPDEST POP POP POP JUMP JUMPDEST JUMPDEST DUP2 DUP2 LT ISZERO PUSH2 0x1E9A JUMPI PUSH2 0x1E8F PUSH0 DUP3 PUSH2 0x1E64 JUMP JUMPDEST PUSH1 0x1 DUP2 ADD SWAP1 POP PUSH2 0x1E7D JUMP JUMPDEST POP POP JUMP JUMPDEST PUSH1 0x1F DUP3 GT ISZERO PUSH2 0x1EDF JUMPI PUSH2 0x1EB0 DUP2 PUSH2 0x1D87 JUMP JUMPDEST PUSH2 0x1EB9 DUP5 PUSH2 0x1D99 JUMP JUMPDEST DUP2 ADD PUSH1 0x20 DUP6 LT ISZERO PUSH2 0x1EC8 JUMPI DUP2 SWAP1 POP JUMPDEST PUSH2 0x1EDC PUSH2 0x1ED4 DUP6 PUSH2 0x1D99 JUMP JUMPDEST DUP4 ADD DUP3 PUSH2 0x1E7C JUMP JUMPDEST POP POP JUMPDEST POP POP POP JUMP JUMPDEST PUSH0 DUP3 DUP3 SHR SWAP1 POP SWAP3 SWAP2 POP POP JUMP JUMPDEST PUSH0 PUSH2 0x1EFF PUSH0 NOT DUP5 PUSH1 0x8 MUL PUSH2 0x1EE4 JUMP JUMPDEST NOT DUP1 DUP4 AND SWAP2 POP POP SWAP3 SWAP2 POP POP JUMP JUMPDEST PUSH0 PUSH2 0x1F17 DUP4 DUP4 PUSH2 0x1EF0 JUMP JUMPDEST SWAP2 POP DUP3 PUSH1 0x2 MUL DUP3 OR SWAP1 POP SWAP3 SWAP2 POP POP JUMP JUMPDEST PUSH2 0x1F30 DUP3 PUSH2 0x14E3 JUMP JUMPDEST PUSH8 0xFFFFFFFFFFFFFFFF DUP2 GT ISZERO PUSH2 0x1F49 JUMPI PUSH2 0x1F48 PUSH2 0x15CE JUMP JUMPDEST JUMPDEST PUSH2 0x1F53 DUP3 SLOAD PUSH2 0x1D57 JUMP JUMPDEST PUSH2 0x1F5E DUP3 DUP3 DUP6 PUSH2 0x1E9E JUMP JUMPDEST PUSH0 PUSH1 0x20 SWAP1 POP PUSH1 0x1F DUP4 GT PUSH1 0x1 DUP2 EQ PUSH2 0x1F8F JUMPI PUSH0 DUP5 ISZERO PUSH2 0x1F7D JUMPI DUP3 DUP8 ADD MLOAD SWAP1 POP JUMPDEST PUSH2 0x1F87 DUP6 DUP3 PUSH2 0x1F0C JUMP JUMPDEST DUP7 SSTORE POP PUSH2 0x1FEE JUMP JUMPDEST PUSH1 0x1F NOT DUP5 AND PUSH2 0x1F9D DUP7 PUSH2 0x1D87 JUMP JUMPDEST PUSH0 JUMPDEST DUP3 DUP2 LT ISZERO PUSH2 0x1FC4 JUMPI DUP5 DUP10 ADD MLOAD DUP3 SSTORE PUSH1 0x1 DUP3 ADD SWAP2 POP PUSH1 0x20 DUP6 ADD SWAP5 POP PUSH1 0x20 DUP2 ADD SWAP1 POP PUSH2 0x1F9F JUMP JUMPDEST DUP7 DUP4 LT ISZERO PUSH2 0x1FE1 JUMPI DUP5 DUP10 ADD MLOAD PUSH2 0x1FDD PUSH1 0x1F DUP10 AND DUP3 PUSH2 0x1EF0 JUMP JUMPDEST DUP4 SSTORE POP JUMPDEST PUSH1 0x1 PUSH1 0x2 DUP9 MUL ADD DUP9 SSTORE POP POP POP JUMPDEST POP POP POP POP POP POP JUMP JUMPDEST PUSH0 PUSH1 0x40 DUP3 ADD SWAP1 POP DUP2 DUP2 SUB PUSH0 DUP4 ADD MSTORE PUSH2 0x200E DUP2 DUP6 PUSH2 0x151B JUMP JUMPDEST SWAP1 POP DUP2 DUP2 SUB PUSH1 0x20 DUP4 ADD MSTORE PUSH2 0x2022 DUP2 DUP5 PUSH2 0x151B JUMP JUMPDEST SWAP1 POP SWAP4 SWAP3 POP POP POP JUMP JUMPDEST PUSH32 0x4E487B7100000000000000000000000000000000000000000000000000000000 PUSH0 MSTORE PUSH1 0x11 PUSH1 0x4 MSTORE PUSH1 0x24 PUSH0 REVERT JUMPDEST PUSH0 PUSH2 0x2062 DUP3 PUSH2 0x142B JUMP JUMPDEST SWAP2 POP PUSH32 0xFFFFFFFFFFFFFFFFFFFFFFFFFFFFFFFFFFFFFFFFFFFFFFFFFFFFFFFFFFFFFFFF DUP3 SUB PUSH2 0x2094 JUMPI PUSH2 0x2093 PUSH2 0x202B JUMP JUMPDEST JUMPDEST PUSH1 0x1 DUP3 ADD SWAP1 POP SWAP2 SWAP1 POP JUMP INVALID LOG2 PUSH5 0x6970667358 0x22 SLT KECCAK256 CALLF 0x9B41 MSIZE CALLCODE PUSH26 0x2D692BD17685ABD43CC00D546868D67ED065370FA8689847C20A PUSH5 0x736F6C6343 STOP ADDMOD 0x1E STOP CALLER "
				},
				"gasEstimates": {
					"creation": {
						"codeDepositCost": "1681000",
						"executionCost": "infinite",
						"totalCost": "infinite"
					},
					"external": {
						"documentsByUser(address,uint256)": "infinite",
						"getAllDocuments(address)": "infinite",
						"getAllUsers()": "infinite",
						"getApprovedDocuments(address)": "infinite",
						"getDocument(address,uint256)": "infinite",
						"isUserKnown(address)": "2855",
						"orgAdmin()": "2596",
						"orgName()": "infinite",
						"uploadDocument(string,string)": "infinite",
						"users(uint256)": "4989",
						"verifyDocument(address,uint256,bool)": "infinite"
					}
				},
				"methodIdentifiers": {
					"documentsByUser(address,uint256)": "da5cd453",
					"getAllDocuments(address)": "59ded538",
					"getAllUsers()": "e2842d79",
					"getApprovedDocuments(address)": "8fb97378",
					"getDocument(address,uint256)": "cee4f70b",
					"isUserKnown(address)": "6224f36f",
					"orgAdmin()": "59543973",
					"orgName()": "1386dc2d",
					"uploadDocument(string,string)": "4464fe33",
					"users(uint256)": "365b98b2",
					"verifyDocument(address,uint256,bool)": "0ef3eb8b"
				}
			},
			"storageLayout": {
				"storage": [
					{
						"astId": 3,
						"contract": "OrgContract.sol:OrgContract",
						"label": "orgAdmin",
						"offset": 0,
						"slot": "0",
						"type": "t_address"
					},
					{
						"astId": 5,
						"contract": "OrgContract.sol:OrgContract",
						"label": "orgName",
						"offset": 0,
						"slot": "1",
						"type": "t_string_storage"
					},
					{
						"astId": 27,
						"contract": "OrgContract.sol:OrgContract",
						"label": "documentsByUser",
						"offset": 0,
						"slot": "2",
						"type": "t_mapping(t_address,t_array(t_struct(Document)21_storage)dyn_storage)"
					},
					{
						"astId": 30,
						"contract": "OrgContract.sol:OrgContract",
						"label": "users",
						"offset": 0,
						"slot": "3",
						"type": "t_array(t_address)dyn_storage"
					},
					{
						"astId": 34,
						"contract": "OrgContract.sol:OrgContract",
						"label": "isUserKnown",
						"offset": 0,
						"slot": "4",
						"type": "t_mapping(t_address,t_bool)"
					}
				],
				"types": {
					"t_address": {
						"encoding": "inplace",
						"label": "address",
						"numberOfBytes": "20"
					},
					"t_array(t_address)dyn_storage": {
						"base": "t_address",
						"encoding": "dynamic_array",
						"label": "address[]",
						"numberOfBytes": "32"
					},
					"t_array(t_struct(Document)21_storage)dyn_storage": {
						"base": "t_struct(Document)21_storage",
						"encoding": "dynamic_array",
						"label": "struct OrgContract.Document[]",
						"numberOfBytes": "32"
					},
					"t_bool": {
						"encoding": "inplace",
						"label": "bool",
						"numberOfBytes": "1"
					},
					"t_enum(Status)9": {
						"encoding": "inplace",
						"label": "enum OrgContract.Status",
						"numberOfBytes": "1"
					},
					"t_mapping(t_address,t_array(t_struct(Document)21_storage)dyn_storage)": {
						"encoding": "mapping",
						"key": "t_address",
						"label": "mapping(address => struct OrgContract.Document[])",
						"numberOfBytes": "32",
						"value": "t_array(t_struct(Document)21_storage)dyn_storage"
					},
					"t_mapping(t_address,t_bool)": {
						"encoding": "mapping",
						"key": "t_address",
						"label": "mapping(address => bool)",
						"numberOfBytes": "32",
						"value": "t_bool"
					},
					"t_string_storage": {
						"encoding": "bytes",
						"label": "string",
						"numberOfBytes": "32"
					},
					"t_struct(Document)21_storage": {
						"encoding": "inplace",
						"label": "struct OrgContract.Document",
						"members": [
							{
								"astId": 11,
								"contract": "OrgContract.sol:OrgContract",
								"label": "cid",
								"offset": 0,
								"slot": "0",
								"type": "t_string_storage"
							},
							{
								"astId": 13,
								"contract": "OrgContract.sol:OrgContract",
								"label": "docType",
								"offset": 0,
								"slot": "1",
								"type": "t_string_storage"
							},
							{
								"astId": 15,
								"contract": "OrgContract.sol:OrgContract",
								"label": "uploadedBy",
								"offset": 0,
								"slot": "2",
								"type": "t_address"
							},
							{
								"astId": 18,
								"contract": "OrgContract.sol:OrgContract",
								"label": "status",
								"offset": 20,
								"slot": "2",
								"type": "t_enum(Status)9"
							},
							{
								"astId": 20,
								"contract": "OrgContract.sol:OrgContract",
								"label": "uploadedAt",
								"offset": 0,
								"slot": "3",
								"type": "t_uint256"
							}
						],
						"numberOfBytes": "128"
					},
					"t_uint256": {
						"encoding": "inplace",
						"label": "uint256",
						"numberOfBytes": "32"
					}
				}
			},
			"userdoc": {
				"kind": "user",
				"methods": {},
				"version": 1
			}
		}
	}
}