{
	"airdropnft.sol": {
		"MultiNFTAirdrop": {
			"abi": [
				{
					"inputs": [],
					"stateMutability": "nonpayable",
					"type": "constructor"
				},
				{
					"anonymous": false,
					"inputs": [
						{
							"indexed": true,
							"internalType": "address",
							"name": "nftContract",
							"type": "address"
						},
						{
							"indexed": false,
							"internalType": "address",
							"name": "recipient",
							"type": "address"
						},
						{
							"indexed": false,
							"internalType": "uint256",
							"name": "tokenId",
							"type": "uint256"
						}
					],
					"name": "AirdropEvent",
					"type": "event"
				},
				{
					"inputs": [
						{
							"internalType": "address",
							"name": "nftContract",
							"type": "address"
						},
						{
							"internalType": "address",
							"name": "recipient",
							"type": "address"
						},
						{
							"internalType": "uint256",
							"name": "tokenId",
							"type": "uint256"
						}
					],
					"name": "airdrop",
					"outputs": [],
					"stateMutability": "nonpayable",
					"type": "function"
				},
				{
					"inputs": [
						{
							"internalType": "uint256",
							"name": "",
							"type": "uint256"
						}
					],
					"name": "allAirdrops",
					"outputs": [
						{
							"internalType": "address",
							"name": "recipient",
							"type": "address"
						},
						{
							"internalType": "address",
							"name": "nftContract",
							"type": "address"
						},
						{
							"internalType": "uint256",
							"name": "tokenId",
							"type": "uint256"
						}
					],
					"stateMutability": "view",
					"type": "function"
				},
				{
					"inputs": [
						{
							"internalType": "address[]",
							"name": "nftContracts",
							"type": "address[]"
						},
						{
							"internalType": "address[]",
							"name": "recipients",
							"type": "address[]"
						},
						{
							"internalType": "uint256[]",
							"name": "tokenIds",
							"type": "uint256[]"
						}
					],
					"name": "bulkAirdrop",
					"outputs": [],
					"stateMutability": "nonpayable",
					"type": "function"
				},
				{
					"inputs": [
						{
							"internalType": "uint256",
							"name": "offset",
							"type": "uint256"
						},
						{
							"internalType": "uint256",
							"name": "limit",
							"type": "uint256"
						}
					],
					"name": "getAllAirdrops",
					"outputs": [
						{
							"components": [
								{
									"internalType": "address",
									"name": "recipient",
									"type": "address"
								},
								{
									"internalType": "address",
									"name": "nftContract",
									"type": "address"
								},
								{
									"internalType": "uint256",
									"name": "tokenId",
									"type": "uint256"
								}
							],
							"internalType": "struct MultiNFTAirdrop.AirdropInfo[]",
							"name": "",
							"type": "tuple[]"
						}
					],
					"stateMutability": "view",
					"type": "function"
				},
				{
					"inputs": [
						{
							"internalType": "address",
							"name": "user",
							"type": "address"
						}
					],
					"name": "getUserAirdrop",
					"outputs": [
						{
							"internalType": "address",
							"name": "",
							"type": "address"
						},
						{
							"internalType": "uint256",
							"name": "",
							"type": "uint256"
						}
					],
					"stateMutability": "view",
					"type": "function"
				},
				{
					"inputs": [
						{
							"internalType": "address",
							"name": "",
							"type": "address"
						}
					],
					"name": "hasClaimed",
					"outputs": [
						{
							"internalType": "bool",
							"name": "",
							"type": "bool"
						}
					],
					"stateMutability": "view",
					"type": "function"
				},
				{
					"inputs": [],
					"name": "owner",
					"outputs": [
						{
							"internalType": "address",
							"name": "",
							"type": "address"
						}
					],
					"stateMutability": "view",
					"type": "function"
				},
				{
					"inputs": [
						{
							"internalType": "address",
							"name": "user",
							"type": "address"
						}
					],
					"name": "resetClaim",
					"outputs": [],
					"stateMutability": "nonpayable",
					"type": "function"
				},
				{
					"inputs": [],
					"name": "totalAirdropped",
					"outputs": [
						{
							"internalType": "uint256",
							"name": "",
							"type": "uint256"
						}
					],
					"stateMutability": "view",
					"type": "function"
				},
				{
					"inputs": [
						{
							"internalType": "address",
							"name": "newOwner",
							"type": "address"
						}
					],
					"name": "updateOwner",
					"outputs": [],
					"stateMutability": "nonpayable",
					"type": "function"
				},
				{
					"inputs": [
						{
							"internalType": "address",
							"name": "",
							"type": "address"
						}
					],
					"name": "userAirdrops",
					"outputs": [
						{
							"internalType": "address",
							"name": "recipient",
							"type": "address"
						},
						{
							"internalType": "address",
							"name": "nftContract",
							"type": "address"
						},
						{
							"internalType": "uint256",
							"name": "tokenId",
							"type": "uint256"
						}
					],
					"stateMutability": "view",
					"type": "function"
				},
				{
					"inputs": [],
					"name": "withdraw",
					"outputs": [],
					"stateMutability": "nonpayable",
					"type": "function"
				},
				{
					"stateMutability": "payable",
					"type": "receive"
				}
			],
			"devdoc": {
				"kind": "dev",
				"methods": {},
				"version": 1
			},
			"evm": {
				"assembly": "    /* \"airdropnft.sol\":165:3929  contract MultiNFTAirdrop {... */\n  mstore(0x40, 0x80)\n    /* \"airdropnft.sol\":797:846  constructor() {... */\n  callvalue\n  dup1\n  iszero\n  tag_1\n  jumpi\n  revert(0x00, 0x00)\ntag_1:\n  pop\n    /* \"airdropnft.sol\":829:839  msg.sender */\n  caller\n    /* \"airdropnft.sol\":821:826  owner */\n  0x00\n  0x00\n    /* \"airdropnft.sol\":821:839  owner = msg.sender */\n  0x0100\n  exp\n  dup2\n  sload\n  dup2\n  0xffffffffffffffffffffffffffffffffffffffff\n  mul\n  not\n  and\n  swap1\n  dup4\n  0xffffffffffffffffffffffffffffffffffffffff\n  and\n  mul\n  or\n  swap1\n  sstore\n  pop\n    /* \"airdropnft.sol\":165:3929  contract MultiNFTAirdrop {... */\n  dataSize(sub_0)\n  dup1\n  dataOffset(sub_0)\n  0x00\n  codecopy\n  0x00\n  return\nstop\n\nsub_0: assembly {\n        /* \"airdropnft.sol\":165:3929  contract MultiNFTAirdrop {... */\n      mstore(0x40, 0x80)\n      jumpi(tag_1, lt(calldatasize, 0x04))\n      shr(0xe0, calldataload(0x00))\n      dup1\n      0x880cdc31\n      gt\n      tag_15\n      jumpi\n      dup1\n      0x880cdc31\n      eq\n      tag_9\n      jumpi\n      dup1\n      0x8da5cb5b\n      eq\n      tag_10\n      jumpi\n      dup1\n      0xa5cbb928\n      eq\n      tag_11\n      jumpi\n      dup1\n      0xcd56beed\n      eq\n      tag_12\n      jumpi\n      dup1\n      0xce678580\n      eq\n      tag_13\n      jumpi\n      dup1\n      0xed7f07ea\n      eq\n      tag_14\n      jumpi\n      jump(tag_2)\n    tag_15:\n      dup1\n      0x146df43d\n      eq\n      tag_3\n      jumpi\n      dup1\n      0x1822eb70\n      eq\n      tag_4\n      jumpi\n      dup1\n      0x3ccfd60b\n      eq\n      tag_5\n      jumpi\n      dup1\n      0x700805e3\n      eq\n      tag_6\n      jumpi\n      dup1\n      0x73b2e80e\n      eq\n      tag_7\n      jumpi\n      dup1\n      0x78af9931\n      eq\n      tag_8\n      jumpi\n      jump(tag_2)\n    tag_1:\n      jumpi(tag_2, calldatasize)\n      stop\n    tag_2:\n      revert(0x00, 0x00)\n        /* \"airdropnft.sol\":1642:2750  function bulkAirdrop(... */\n    tag_3:\n      callvalue\n      dup1\n      iszero\n      tag_18\n      jumpi\n      revert(0x00, 0x00)\n    tag_18:\n      pop\n      tag_19\n      0x04\n      dup1\n      calldatasize\n      sub\n      dup2\n      add\n      swap1\n      tag_20\n      swap2\n      swap1\n      tag_21\n      jump\t// in\n    tag_20:\n      tag_22\n      jump\t// in\n    tag_19:\n      stop\n        /* \"airdropnft.sol\":852:1636  function airdrop (... */\n    tag_4:\n      callvalue\n      dup1\n      iszero\n      tag_23\n      jumpi\n      revert(0x00, 0x00)\n    tag_23:\n      pop\n      tag_24\n      0x04\n      dup1\n      calldatasize\n      sub\n      dup2\n      add\n      swap1\n      tag_25\n      swap2\n      swap1\n      tag_26\n      jump\t// in\n    tag_25:\n      tag_27\n      jump\t// in\n    tag_24:\n      stop\n        /* \"airdropnft.sol\":3790:3892  function withdraw() external onlyOwner {... */\n    tag_5:\n      callvalue\n      dup1\n      iszero\n      tag_28\n      jumpi\n      revert(0x00, 0x00)\n    tag_28:\n      pop\n      tag_29\n      tag_30\n      jump\t// in\n    tag_29:\n      stop\n        /* \"airdropnft.sol\":3501:3630  function resetClaim(address user) external onlyOwner {... */\n    tag_6:\n      callvalue\n      dup1\n      iszero\n      tag_31\n      jumpi\n      revert(0x00, 0x00)\n    tag_31:\n      pop\n      tag_32\n      0x04\n      dup1\n      calldatasize\n      sub\n      dup2\n      add\n      swap1\n      tag_33\n      swap2\n      swap1\n      tag_34\n      jump\t// in\n    tag_33:\n      tag_35\n      jump\t// in\n    tag_32:\n      stop\n        /* \"airdropnft.sol\":381:423  mapping(address => bool) public hasClaimed */\n    tag_7:\n      callvalue\n      dup1\n      iszero\n      tag_36\n      jumpi\n      revert(0x00, 0x00)\n    tag_36:\n      pop\n      tag_37\n      0x04\n      dup1\n      calldatasize\n      sub\n      dup2\n      add\n      swap1\n      tag_38\n      swap2\n      swap1\n      tag_34\n      jump\t// in\n    tag_38:\n      tag_39\n      jump\t// in\n    tag_37:\n      mload(0x40)\n      tag_40\n      swap2\n      swap1\n      tag_41\n      jump\t// in\n    tag_40:\n      mload(0x40)\n      dup1\n      swap2\n      sub\n      swap1\n      return\n        /* \"airdropnft.sol\":467:518  mapping(address => AirdropInfo) public userAirdrops */\n    tag_8:\n      callvalue\n      dup1\n      iszero\n      tag_42\n      jumpi\n      revert(0x00, 0x00)\n    tag_42:\n      pop\n      tag_43\n      0x04\n      dup1\n      calldatasize\n      sub\n      dup2\n      add\n      swap1\n      tag_44\n      swap2\n      swap1\n      tag_34\n      jump\t// in\n    tag_44:\n      tag_45\n      jump\t// in\n    tag_43:\n      mload(0x40)\n      tag_46\n      swap4\n      swap3\n      swap2\n      swap1\n      tag_47\n      jump\t// in\n    tag_46:\n      mload(0x40)\n      dup1\n      swap2\n      sub\n      swap1\n      return\n        /* \"airdropnft.sol\":3636:3784  function updateOwner(address newOwner) external onlyOwner {... */\n    tag_9:\n      callvalue\n      dup1\n      iszero\n      tag_48\n      jumpi\n      revert(0x00, 0x00)\n    tag_48:\n      pop\n      tag_49\n      0x04\n      dup1\n      calldatasize\n      sub\n      dup2\n      add\n      swap1\n      tag_50\n      swap2\n      swap1\n      tag_34\n      jump\t// in\n    tag_50:\n      tag_51\n      jump\t// in\n    tag_49:\n      stop\n        /* \"airdropnft.sol\":196:216  address public owner */\n    tag_10:\n      callvalue\n      dup1\n      iszero\n      tag_52\n      jumpi\n      revert(0x00, 0x00)\n    tag_52:\n      pop\n      tag_53\n      tag_54\n      jump\t// in\n    tag_53:\n      mload(0x40)\n      tag_55\n      swap2\n      swap1\n      tag_56\n      jump\t// in\n    tag_55:\n      mload(0x40)\n      dup1\n      swap2\n      sub\n      swap1\n      return\n        /* \"airdropnft.sol\":2756:2945  function getUserAirdrop(address user) external view returns (address, uint256) {... */\n    tag_11:\n      callvalue\n      dup1\n      iszero\n      tag_57\n      jumpi\n      revert(0x00, 0x00)\n    tag_57:\n      pop\n      tag_58\n      0x04\n      dup1\n      calldatasize\n      sub\n      dup2\n      add\n      swap1\n      tag_59\n      swap2\n      swap1\n      tag_34\n      jump\t// in\n    tag_59:\n      tag_60\n      jump\t// in\n    tag_58:\n      mload(0x40)\n      tag_61\n      swap3\n      swap2\n      swap1\n      tag_62\n      jump\t// in\n    tag_61:\n      mload(0x40)\n      dup1\n      swap2\n      sub\n      swap1\n      return\n        /* \"airdropnft.sol\":567:599  AirdropInfo[] public allAirdrops */\n    tag_12:\n      callvalue\n      dup1\n      iszero\n      tag_63\n      jumpi\n      revert(0x00, 0x00)\n    tag_63:\n      pop\n      tag_64\n      0x04\n      dup1\n      calldatasize\n      sub\n      dup2\n      add\n      swap1\n      tag_65\n      swap2\n      swap1\n      tag_66\n      jump\t// in\n    tag_65:\n      tag_67\n      jump\t// in\n    tag_64:\n      mload(0x40)\n      tag_68\n      swap4\n      swap3\n      swap2\n      swap1\n      tag_47\n      jump\t// in\n    tag_68:\n      mload(0x40)\n      dup1\n      swap2\n      sub\n      swap1\n      return\n        /* \"airdropnft.sol\":3394:3495  function totalAirdropped() external view returns (uint256) {... */\n    tag_13:\n      callvalue\n      dup1\n      iszero\n      tag_69\n      jumpi\n      revert(0x00, 0x00)\n    tag_69:\n      pop\n      tag_70\n      tag_71\n      jump\t// in\n    tag_70:\n      mload(0x40)\n      tag_72\n      swap2\n      swap1\n      tag_73\n      jump\t// in\n    tag_72:\n      mload(0x40)\n      dup1\n      swap2\n      sub\n      swap1\n      return\n        /* \"airdropnft.sol\":2951:3388  function getAllAirdrops(uint256 offset, uint256 limit) external view returns (AirdropInfo[] memory) {... */\n    tag_14:\n      callvalue\n      dup1\n      iszero\n      tag_74\n      jumpi\n      revert(0x00, 0x00)\n    tag_74:\n      pop\n      tag_75\n      0x04\n      dup1\n      calldatasize\n      sub\n      dup2\n      add\n      swap1\n      tag_76\n      swap2\n      swap1\n      tag_77\n      jump\t// in\n    tag_76:\n      tag_78\n      jump\t// in\n    tag_75:\n      mload(0x40)\n      tag_79\n      swap2\n      swap1\n      tag_80\n      jump\t// in\n    tag_79:\n      mload(0x40)\n      dup1\n      swap2\n      sub\n      swap1\n      return\n        /* \"airdropnft.sol\":1642:2750  function bulkAirdrop(... */\n    tag_22:\n        /* \"airdropnft.sol\":748:753  owner */\n      0x00\n      0x00\n      swap1\n      sload\n      swap1\n      0x0100\n      exp\n      swap1\n      div\n      0xffffffffffffffffffffffffffffffffffffffff\n      and\n        /* \"airdropnft.sol\":734:753  msg.sender == owner */\n      0xffffffffffffffffffffffffffffffffffffffff\n      and\n        /* \"airdropnft.sol\":734:744  msg.sender */\n      caller\n        /* \"airdropnft.sol\":734:753  msg.sender == owner */\n      0xffffffffffffffffffffffffffffffffffffffff\n      and\n      eq\n        /* \"airdropnft.sol\":726:772  require(msg.sender == owner, \"Not authorized\") */\n      tag_82\n      jumpi\n      mload(0x40)\n      0x08c379a000000000000000000000000000000000000000000000000000000000\n      dup2\n      mstore\n      0x04\n      add\n      tag_83\n      swap1\n      tag_84\n      jump\t// in\n    tag_83:\n      mload(0x40)\n      dup1\n      swap2\n      sub\n      swap1\n      revert\n    tag_82:\n        /* \"airdropnft.sol\":1859:1869  recipients */\n      dup4\n      dup4\n        /* \"airdropnft.sol\":1859:1876  recipients.length */\n      swap1\n      pop\n        /* \"airdropnft.sol\":1836:1848  nftContracts */\n      dup7\n      dup7\n        /* \"airdropnft.sol\":1836:1855  nftContracts.length */\n      swap1\n      pop\n        /* \"airdropnft.sol\":1836:1876  nftContracts.length == recipients.length */\n      eq\n        /* \"airdropnft.sol\":1836:1929  nftContracts.length == recipients.length && ... */\n      dup1\n      iszero\n      tag_86\n      jumpi\n      pop\n        /* \"airdropnft.sol\":1914:1922  tokenIds */\n      dup2\n      dup2\n        /* \"airdropnft.sol\":1914:1929  tokenIds.length */\n      swap1\n      pop\n        /* \"airdropnft.sol\":1893:1903  recipients */\n      dup5\n      dup5\n        /* \"airdropnft.sol\":1893:1910  recipients.length */\n      swap1\n      pop\n        /* \"airdropnft.sol\":1893:1929  recipients.length == tokenIds.length */\n      eq\n        /* \"airdropnft.sol\":1836:1929  nftContracts.length == recipients.length && ... */\n    tag_86:\n        /* \"airdropnft.sol\":1815:1977  require(... */\n      tag_87\n      jumpi\n      mload(0x40)\n      0x08c379a000000000000000000000000000000000000000000000000000000000\n      dup2\n      mstore\n      0x04\n      add\n      tag_88\n      swap1\n      tag_89\n      jump\t// in\n    tag_88:\n      mload(0x40)\n      dup1\n      swap2\n      sub\n      swap1\n      revert\n    tag_87:\n        /* \"airdropnft.sol\":1993:2002  uint256 i */\n      0x00\n        /* \"airdropnft.sol\":2005:2006  0 */\n      0x00\n        /* \"airdropnft.sol\":1993:2006  uint256 i = 0 */\n      swap1\n      pop\n        /* \"airdropnft.sol\":1988:2744  for (uint256 i = 0; i < recipients.length; i++) {... */\n    tag_90:\n        /* \"airdropnft.sol\":2012:2022  recipients */\n      dup5\n      dup5\n        /* \"airdropnft.sol\":2012:2029  recipients.length */\n      swap1\n      pop\n        /* \"airdropnft.sol\":2008:2009  i */\n      dup2\n        /* \"airdropnft.sol\":2008:2029  i < recipients.length */\n      lt\n        /* \"airdropnft.sol\":1988:2744  for (uint256 i = 0; i < recipients.length; i++) {... */\n      iszero\n      tag_91\n      jumpi\n        /* \"airdropnft.sol\":2050:2067  address recipient */\n      0x00\n        /* \"airdropnft.sol\":2070:2080  recipients */\n      dup6\n      dup6\n        /* \"airdropnft.sol\":2081:2082  i */\n      dup4\n        /* \"airdropnft.sol\":2070:2083  recipients[i] */\n      dup2\n      dup2\n      lt\n      tag_93\n      jumpi\n      tag_94\n      tag_95\n      jump\t// in\n    tag_94:\n    tag_93:\n      swap1\n      pop\n      0x20\n      mul\n      add\n      0x20\n      dup2\n      add\n      swap1\n      tag_96\n      swap2\n      swap1\n      tag_34\n      jump\t// in\n    tag_96:\n        /* \"airdropnft.sol\":2050:2083  address recipient = recipients[i] */\n      swap1\n      pop\n        /* \"airdropnft.sol\":2102:2112  hasClaimed */\n      0x01\n        /* \"airdropnft.sol\":2102:2123  hasClaimed[recipient] */\n      0x00\n        /* \"airdropnft.sol\":2113:2122  recipient */\n      dup3\n        /* \"airdropnft.sol\":2102:2123  hasClaimed[recipient] */\n      0xffffffffffffffffffffffffffffffffffffffff\n      and\n      0xffffffffffffffffffffffffffffffffffffffff\n      and\n      dup2\n      mstore\n      0x20\n      add\n      swap1\n      dup2\n      mstore\n      0x20\n      add\n      0x00\n      keccak256\n      0x00\n      swap1\n      sload\n      swap1\n      0x0100\n      exp\n      swap1\n      div\n      0xff\n      and\n        /* \"airdropnft.sol\":2098:2193  if (hasClaimed[recipient]) {... */\n      iszero\n      tag_97\n      jumpi\n        /* \"airdropnft.sol\":2143:2151  continue */\n      pop\n      jump(tag_92)\n        /* \"airdropnft.sol\":2098:2193  if (hasClaimed[recipient]) {... */\n    tag_97:\n        /* \"airdropnft.sol\":2231:2235  true */\n      0x01\n        /* \"airdropnft.sol\":2207:2217  hasClaimed */\n      dup1\n        /* \"airdropnft.sol\":2207:2228  hasClaimed[recipient] */\n      0x00\n        /* \"airdropnft.sol\":2218:2227  recipient */\n      dup4\n        /* \"airdropnft.sol\":2207:2228  hasClaimed[recipient] */\n      0xffffffffffffffffffffffffffffffffffffffff\n      and\n      0xffffffffffffffffffffffffffffffffffffffff\n      and\n      dup2\n      mstore\n      0x20\n      add\n      swap1\n      dup2\n      mstore\n      0x20\n      add\n      0x00\n      keccak256\n      0x00\n        /* \"airdropnft.sol\":2207:2235  hasClaimed[recipient] = true */\n      0x0100\n      exp\n      dup2\n      sload\n      dup2\n      0xff\n      mul\n      not\n      and\n      swap1\n      dup4\n      iszero\n      iszero\n      mul\n      or\n      swap1\n      sstore\n      pop\n        /* \"airdropnft.sol\":2250:2273  AirdropInfo memory info */\n      0x00\n        /* \"airdropnft.sol\":2276:2425  AirdropInfo({... */\n      mload(0x40)\n      dup1\n      0x60\n      add\n      0x40\n      mstore\n      dup1\n        /* \"airdropnft.sol\":2317:2326  recipient */\n      dup4\n        /* \"airdropnft.sol\":2276:2425  AirdropInfo({... */\n      0xffffffffffffffffffffffffffffffffffffffff\n      and\n      dup2\n      mstore\n      0x20\n      add\n        /* \"airdropnft.sol\":2357:2369  nftContracts */\n      dup11\n      dup11\n        /* \"airdropnft.sol\":2370:2371  i */\n      dup7\n        /* \"airdropnft.sol\":2357:2372  nftContracts[i] */\n      dup2\n      dup2\n      lt\n      tag_98\n      jumpi\n      tag_99\n      tag_95\n      jump\t// in\n    tag_99:\n    tag_98:\n      swap1\n      pop\n      0x20\n      mul\n      add\n      0x20\n      dup2\n      add\n      swap1\n      tag_100\n      swap2\n      swap1\n      tag_34\n      jump\t// in\n    tag_100:\n        /* \"airdropnft.sol\":2276:2425  AirdropInfo({... */\n      0xffffffffffffffffffffffffffffffffffffffff\n      and\n      dup2\n      mstore\n      0x20\n      add\n        /* \"airdropnft.sol\":2399:2407  tokenIds */\n      dup7\n      dup7\n        /* \"airdropnft.sol\":2408:2409  i */\n      dup7\n        /* \"airdropnft.sol\":2399:2410  tokenIds[i] */\n      dup2\n      dup2\n      lt\n      tag_101\n      jumpi\n      tag_102\n      tag_95\n      jump\t// in\n    tag_102:\n    tag_101:\n      swap1\n      pop\n      0x20\n      mul\n      add\n      calldataload\n        /* \"airdropnft.sol\":2276:2425  AirdropInfo({... */\n      dup2\n      mstore\n      pop\n        /* \"airdropnft.sol\":2250:2425  AirdropInfo memory info = AirdropInfo({... */\n      swap1\n      pop\n        /* \"airdropnft.sol\":2466:2470  info */\n      dup1\n        /* \"airdropnft.sol\":2440:2452  userAirdrops */\n      0x02\n        /* \"airdropnft.sol\":2440:2463  userAirdrops[recipient] */\n      0x00\n        /* \"airdropnft.sol\":2453:2462  recipient */\n      dup5\n        /* \"airdropnft.sol\":2440:2463  userAirdrops[recipient] */\n      0xffffffffffffffffffffffffffffffffffffffff\n      and\n      0xffffffffffffffffffffffffffffffffffffffff\n      and\n      dup2\n      mstore\n      0x20\n      add\n      swap1\n      dup2\n      mstore\n      0x20\n      add\n      0x00\n      keccak256\n        /* \"airdropnft.sol\":2440:2470  userAirdrops[recipient] = info */\n      0x00\n      dup3\n      add\n      mload\n      dup2\n      0x00\n      add\n      exp(0x0100, 0x00)\n      dup2\n      sload\n      dup2\n      0xffffffffffffffffffffffffffffffffffffffff\n      mul\n      not\n      and\n      swap1\n      dup4\n      0xffffffffffffffffffffffffffffffffffffffff\n      and\n      mul\n      or\n      swap1\n      sstore\n      pop\n      0x20\n      dup3\n      add\n      mload\n      dup2\n      0x01\n      add\n      exp(0x0100, 0x00)\n      dup2\n      sload\n      dup2\n      0xffffffffffffffffffffffffffffffffffffffff\n      mul\n      not\n      and\n      swap1\n      dup4\n      0xffffffffffffffffffffffffffffffffffffffff\n      and\n      mul\n      or\n      swap1\n      sstore\n      pop\n      0x40\n      dup3\n      add\n      mload\n      dup2\n      0x02\n      add\n      sstore\n      swap1\n      pop\n      pop\n        /* \"airdropnft.sol\":2484:2495  allAirdrops */\n      0x03\n        /* \"airdropnft.sol\":2501:2505  info */\n      dup2\n        /* \"airdropnft.sol\":2484:2506  allAirdrops.push(info) */\n      swap1\n      dup1\n      0x01\n      dup2\n      sload\n      add\n      dup1\n      dup3\n      sstore\n      dup1\n      swap2\n      pop\n      pop\n      0x01\n      swap1\n      sub\n      swap1\n      0x00\n      mstore\n      keccak256(0x00, 0x20)\n      swap1\n      0x03\n      mul\n      add\n      0x00\n      swap1\n      swap2\n      swap1\n      swap2\n      swap1\n      swap2\n      pop\n      0x00\n      dup3\n      add\n      mload\n      dup2\n      0x00\n      add\n      exp(0x0100, 0x00)\n      dup2\n      sload\n      dup2\n      0xffffffffffffffffffffffffffffffffffffffff\n      mul\n      not\n      and\n      swap1\n      dup4\n      0xffffffffffffffffffffffffffffffffffffffff\n      and\n      mul\n      or\n      swap1\n      sstore\n      pop\n      0x20\n      dup3\n      add\n      mload\n      dup2\n      0x01\n      add\n      exp(0x0100, 0x00)\n      dup2\n      sload\n      dup2\n      0xffffffffffffffffffffffffffffffffffffffff\n      mul\n      not\n      and\n      swap1\n      dup4\n      0xffffffffffffffffffffffffffffffffffffffff\n      and\n      mul\n      or\n      swap1\n      sstore\n      pop\n      0x40\n      dup3\n      add\n      mload\n      dup2\n      0x02\n      add\n      sstore\n      pop\n      pop\n        /* \"airdropnft.sol\":2529:2541  nftContracts */\n      dup9\n      dup9\n        /* \"airdropnft.sol\":2542:2543  i */\n      dup5\n        /* \"airdropnft.sol\":2529:2544  nftContracts[i] */\n      dup2\n      dup2\n      lt\n      tag_104\n      jumpi\n      tag_105\n      tag_95\n      jump\t// in\n    tag_105:\n    tag_104:\n      swap1\n      pop\n      0x20\n      mul\n      add\n      0x20\n      dup2\n      add\n      swap1\n      tag_106\n      swap2\n      swap1\n      tag_34\n      jump\t// in\n    tag_106:\n        /* \"airdropnft.sol\":2521:2562  IERC721(nftContracts[i]).safeTransferFrom */\n      0xffffffffffffffffffffffffffffffffffffffff\n      and\n      0x42842e0e\n        /* \"airdropnft.sol\":2580:2590  msg.sender */\n      caller\n        /* \"airdropnft.sol\":2608:2617  recipient */\n      dup5\n        /* \"airdropnft.sol\":2635:2643  tokenIds */\n      dup9\n      dup9\n        /* \"airdropnft.sol\":2644:2645  i */\n      dup9\n        /* \"airdropnft.sol\":2635:2646  tokenIds[i] */\n      dup2\n      dup2\n      lt\n      tag_107\n      jumpi\n      tag_108\n      tag_95\n      jump\t// in\n    tag_108:\n    tag_107:\n      swap1\n      pop\n      0x20\n      mul\n      add\n      calldataload\n        /* \"airdropnft.sol\":2521:2660  IERC721(nftContracts[i]).safeTransferFrom(... */\n      mload(0x40)\n      dup5\n      0xffffffff\n      and\n      0xe0\n      shl\n      dup2\n      mstore\n      0x04\n      add\n      tag_109\n      swap4\n      swap3\n      swap2\n      swap1\n      tag_47\n      jump\t// in\n    tag_109:\n      0x00\n      mload(0x40)\n      dup1\n      dup4\n      sub\n      dup2\n      0x00\n      dup8\n      dup1\n      extcodesize\n      iszero\n      dup1\n      iszero\n      tag_110\n      jumpi\n      revert(0x00, 0x00)\n    tag_110:\n      pop\n      gas\n      call\n      iszero\n      dup1\n      iszero\n      tag_112\n      jumpi\n      returndatacopy(0x00, 0x00, returndatasize)\n      revert(0x00, returndatasize)\n    tag_112:\n      pop\n      pop\n      pop\n      pop\n        /* \"airdropnft.sol\":2692:2704  nftContracts */\n      dup9\n      dup9\n        /* \"airdropnft.sol\":2705:2706  i */\n      dup5\n        /* \"airdropnft.sol\":2692:2707  nftContracts[i] */\n      dup2\n      dup2\n      lt\n      tag_113\n      jumpi\n      tag_114\n      tag_95\n      jump\t// in\n    tag_114:\n    tag_113:\n      swap1\n      pop\n      0x20\n      mul\n      add\n      0x20\n      dup2\n      add\n      swap1\n      tag_115\n      swap2\n      swap1\n      tag_34\n      jump\t// in\n    tag_115:\n        /* \"airdropnft.sol\":2679:2732  AirdropEvent(nftContracts[i], recipient, tokenIds[i]) */\n      0xffffffffffffffffffffffffffffffffffffffff\n      and\n      0x3f3e0cb0c8889648d91931efa9d3f6d0d04adfb07c856e6c4e09334339befe91\n        /* \"airdropnft.sol\":2709:2718  recipient */\n      dup4\n        /* \"airdropnft.sol\":2720:2728  tokenIds */\n      dup8\n      dup8\n        /* \"airdropnft.sol\":2729:2730  i */\n      dup8\n        /* \"airdropnft.sol\":2720:2731  tokenIds[i] */\n      dup2\n      dup2\n      lt\n      tag_116\n      jumpi\n      tag_117\n      tag_95\n      jump\t// in\n    tag_117:\n    tag_116:\n      swap1\n      pop\n      0x20\n      mul\n      add\n      calldataload\n        /* \"airdropnft.sol\":2679:2732  AirdropEvent(nftContracts[i], recipient, tokenIds[i]) */\n      mload(0x40)\n      tag_118\n      swap3\n      swap2\n      swap1\n      tag_62\n      jump\t// in\n    tag_118:\n      mload(0x40)\n      dup1\n      swap2\n      sub\n      swap1\n      log2\n        /* \"airdropnft.sol\":2036:2744  {... */\n      pop\n      pop\n        /* \"airdropnft.sol\":1988:2744  for (uint256 i = 0; i < recipients.length; i++) {... */\n    tag_92:\n        /* \"airdropnft.sol\":2031:2034  i++ */\n      dup1\n      dup1\n      0x01\n      add\n      swap2\n      pop\n      pop\n        /* \"airdropnft.sol\":1988:2744  for (uint256 i = 0; i < recipients.length; i++) {... */\n      jump(tag_90)\n    tag_91:\n      pop\n        /* \"airdropnft.sol\":1642:2750  function bulkAirdrop(... */\n      pop\n      pop\n      pop\n      pop\n      pop\n      pop\n      jump\t// out\n        /* \"airdropnft.sol\":852:1636  function airdrop (... */\n    tag_27:\n        /* \"airdropnft.sol\":748:753  owner */\n      0x00\n      0x00\n      swap1\n      sload\n      swap1\n      0x0100\n      exp\n      swap1\n      div\n      0xffffffffffffffffffffffffffffffffffffffff\n      and\n        /* \"airdropnft.sol\":734:753  msg.sender == owner */\n      0xffffffffffffffffffffffffffffffffffffffff\n      and\n        /* \"airdropnft.sol\":734:744  msg.sender */\n      caller\n        /* \"airdropnft.sol\":734:753  msg.sender == owner */\n      0xffffffffffffffffffffffffffffffffffffffff\n      and\n      eq\n        /* \"airdropnft.sol\":726:772  require(msg.sender == owner, \"Not authorized\") */\n      tag_120\n      jumpi\n      mload(0x40)\n      0x08c379a000000000000000000000000000000000000000000000000000000000\n      dup2\n      mstore\n      0x04\n      add\n      tag_121\n      swap1\n      tag_84\n      jump\t// in\n    tag_121:\n      mload(0x40)\n      dup1\n      swap2\n      sub\n      swap1\n      revert\n    tag_120:\n        /* \"airdropnft.sol\":1024:1025  0 */\n      0x00\n        /* \"airdropnft.sol\":992:1026  address(nftContract) != address(0) */\n      0xffffffffffffffffffffffffffffffffffffffff\n      and\n        /* \"airdropnft.sol\":1000:1011  nftContract */\n      dup4\n        /* \"airdropnft.sol\":992:1026  address(nftContract) != address(0) */\n      0xffffffffffffffffffffffffffffffffffffffff\n      and\n      sub\n        /* \"airdropnft.sol\":984:1059  require(address(nftContract) != address(0), \"Invalid NFT contract address\") */\n      tag_123\n      jumpi\n      mload(0x40)\n      0x08c379a000000000000000000000000000000000000000000000000000000000\n      dup2\n      mstore\n      0x04\n      add\n      tag_124\n      swap1\n      tag_125\n      jump\t// in\n    tag_124:\n      mload(0x40)\n      dup1\n      swap2\n      sub\n      swap1\n      revert\n    tag_123:\n        /* \"airdropnft.sol\":1098:1099  0 */\n      0x00\n        /* \"airdropnft.sol\":1077:1100  recipient != address(0) */\n      0xffffffffffffffffffffffffffffffffffffffff\n      and\n        /* \"airdropnft.sol\":1077:1086  recipient */\n      dup3\n        /* \"airdropnft.sol\":1077:1100  recipient != address(0) */\n      0xffffffffffffffffffffffffffffffffffffffff\n      and\n      sub\n        /* \"airdropnft.sol\":1069:1122  require(recipient != address(0), \"Invalid recipient\") */\n      tag_126\n      jumpi\n      mload(0x40)\n      0x08c379a000000000000000000000000000000000000000000000000000000000\n      dup2\n      mstore\n      0x04\n      add\n      tag_127\n      swap1\n      tag_128\n      jump\t// in\n    tag_127:\n      mload(0x40)\n      dup1\n      swap2\n      sub\n      swap1\n      revert\n    tag_126:\n        /* \"airdropnft.sol\":1141:1151  hasClaimed */\n      0x01\n        /* \"airdropnft.sol\":1141:1162  hasClaimed[recipient] */\n      0x00\n        /* \"airdropnft.sol\":1152:1161  recipient */\n      dup4\n        /* \"airdropnft.sol\":1141:1162  hasClaimed[recipient] */\n      0xffffffffffffffffffffffffffffffffffffffff\n      and\n      0xffffffffffffffffffffffffffffffffffffffff\n      and\n      dup2\n      mstore\n      0x20\n      add\n      swap1\n      dup2\n      mstore\n      0x20\n      add\n      0x00\n      keccak256\n      0x00\n      swap1\n      sload\n      swap1\n      0x0100\n      exp\n      swap1\n      div\n      0xff\n      and\n        /* \"airdropnft.sol\":1140:1162  !hasClaimed[recipient] */\n      iszero\n        /* \"airdropnft.sol\":1132:1185  require(!hasClaimed[recipient], \"Already airdropped\") */\n      tag_129\n      jumpi\n      mload(0x40)\n      0x08c379a000000000000000000000000000000000000000000000000000000000\n      dup2\n      mstore\n      0x04\n      add\n      tag_130\n      swap1\n      tag_131\n      jump\t// in\n    tag_130:\n      mload(0x40)\n      dup1\n      swap2\n      sub\n      swap1\n      revert\n    tag_129:\n        /* \"airdropnft.sol\":1228:1232  true */\n      0x01\n        /* \"airdropnft.sol\":1204:1214  hasClaimed */\n      dup1\n        /* \"airdropnft.sol\":1204:1225  hasClaimed[recipient] */\n      0x00\n        /* \"airdropnft.sol\":1215:1224  recipient */\n      dup5\n        /* \"airdropnft.sol\":1204:1225  hasClaimed[recipient] */\n      0xffffffffffffffffffffffffffffffffffffffff\n      and\n      0xffffffffffffffffffffffffffffffffffffffff\n      and\n      dup2\n      mstore\n      0x20\n      add\n      swap1\n      dup2\n      mstore\n      0x20\n      add\n      0x00\n      keccak256\n      0x00\n        /* \"airdropnft.sol\":1204:1232  hasClaimed[recipient] = true */\n      0x0100\n      exp\n      dup2\n      sload\n      dup2\n      0xff\n      mul\n      not\n      and\n      swap1\n      dup4\n      iszero\n      iszero\n      mul\n      or\n      swap1\n      sstore\n      pop\n        /* \"airdropnft.sol\":1262:1285  AirdropInfo memory info */\n      0x00\n        /* \"airdropnft.sol\":1288:1413  AirdropInfo({... */\n      mload(0x40)\n      dup1\n      0x60\n      add\n      0x40\n      mstore\n      dup1\n        /* \"airdropnft.sol\":1325:1334  recipient */\n      dup5\n        /* \"airdropnft.sol\":1288:1413  AirdropInfo({... */\n      0xffffffffffffffffffffffffffffffffffffffff\n      and\n      dup2\n      mstore\n      0x20\n      add\n        /* \"airdropnft.sol\":1361:1372  nftContract */\n      dup6\n        /* \"airdropnft.sol\":1288:1413  AirdropInfo({... */\n      0xffffffffffffffffffffffffffffffffffffffff\n      and\n      dup2\n      mstore\n      0x20\n      add\n        /* \"airdropnft.sol\":1395:1402  tokenId */\n      dup4\n        /* \"airdropnft.sol\":1288:1413  AirdropInfo({... */\n      dup2\n      mstore\n      pop\n        /* \"airdropnft.sol\":1262:1413  AirdropInfo memory info = AirdropInfo({... */\n      swap1\n      pop\n        /* \"airdropnft.sol\":1450:1454  info */\n      dup1\n        /* \"airdropnft.sol\":1424:1436  userAirdrops */\n      0x02\n        /* \"airdropnft.sol\":1424:1447  userAirdrops[recipient] */\n      0x00\n        /* \"airdropnft.sol\":1437:1446  recipient */\n      dup6\n        /* \"airdropnft.sol\":1424:1447  userAirdrops[recipient] */\n      0xffffffffffffffffffffffffffffffffffffffff\n      and\n      0xffffffffffffffffffffffffffffffffffffffff\n      and\n      dup2\n      mstore\n      0x20\n      add\n      swap1\n      dup2\n      mstore\n      0x20\n      add\n      0x00\n      keccak256\n        /* \"airdropnft.sol\":1424:1454  userAirdrops[recipient] = info */\n      0x00\n      dup3\n      add\n      mload\n      dup2\n      0x00\n      add\n      exp(0x0100, 0x00)\n      dup2\n      sload\n      dup2\n      0xffffffffffffffffffffffffffffffffffffffff\n      mul\n      not\n      and\n      swap1\n      dup4\n      0xffffffffffffffffffffffffffffffffffffffff\n      and\n      mul\n      or\n      swap1\n      sstore\n      pop\n      0x20\n      dup3\n      add\n      mload\n      dup2\n      0x01\n      add\n      exp(0x0100, 0x00)\n      dup2\n      sload\n      dup2\n      0xffffffffffffffffffffffffffffffffffffffff\n      mul\n      not\n      and\n      swap1\n      dup4\n      0xffffffffffffffffffffffffffffffffffffffff\n      and\n      mul\n      or\n      swap1\n      sstore\n      pop\n      0x40\n      dup3\n      add\n      mload\n      dup2\n      0x02\n      add\n      sstore\n      swap1\n      pop\n      pop\n        /* \"airdropnft.sol\":1464:1475  allAirdrops */\n      0x03\n        /* \"airdropnft.sol\":1481:1485  info */\n      dup2\n        /* \"airdropnft.sol\":1464:1486  allAirdrops.push(info) */\n      swap1\n      dup1\n      0x01\n      dup2\n      sload\n      add\n      dup1\n      dup3\n      sstore\n      dup1\n      swap2\n      pop\n      pop\n      0x01\n      swap1\n      sub\n      swap1\n      0x00\n      mstore\n      keccak256(0x00, 0x20)\n      swap1\n      0x03\n      mul\n      add\n      0x00\n      swap1\n      swap2\n      swap1\n      swap2\n      swap1\n      swap2\n      pop\n      0x00\n      dup3\n      add\n      mload\n      dup2\n      0x00\n      add\n      exp(0x0100, 0x00)\n      dup2\n      sload\n      dup2\n      0xffffffffffffffffffffffffffffffffffffffff\n      mul\n      not\n      and\n      swap1\n      dup4\n      0xffffffffffffffffffffffffffffffffffffffff\n      and\n      mul\n      or\n      swap1\n      sstore\n      pop\n      0x20\n      dup3\n      add\n      mload\n      dup2\n      0x01\n      add\n      exp(0x0100, 0x00)\n      dup2\n      sload\n      dup2\n      0xffffffffffffffffffffffffffffffffffffffff\n      mul\n      not\n      and\n      swap1\n      dup4\n      0xffffffffffffffffffffffffffffffffffffffff\n      and\n      mul\n      or\n      swap1\n      sstore\n      pop\n      0x40\n      dup3\n      add\n      mload\n      dup2\n      0x02\n      add\n      sstore\n      pop\n      pop\n        /* \"airdropnft.sol\":1505:1516  nftContract */\n      dup4\n        /* \"airdropnft.sol\":1497:1534  IERC721(nftContract).safeTransferFrom */\n      0xffffffffffffffffffffffffffffffffffffffff\n      and\n      0x42842e0e\n        /* \"airdropnft.sol\":1535:1545  msg.sender */\n      caller\n        /* \"airdropnft.sol\":1547:1556  recipient */\n      dup6\n        /* \"airdropnft.sol\":1558:1565  tokenId */\n      dup6\n        /* \"airdropnft.sol\":1497:1566  IERC721(nftContract).safeTransferFrom(msg.sender, recipient, tokenId) */\n      mload(0x40)\n      dup5\n      0xffffffff\n      and\n      0xe0\n      shl\n      dup2\n      mstore\n      0x04\n      add\n      tag_133\n      swap4\n      swap3\n      swap2\n      swap1\n      tag_47\n      jump\t// in\n    tag_133:\n      0x00\n      mload(0x40)\n      dup1\n      dup4\n      sub\n      dup2\n      0x00\n      dup8\n      dup1\n      extcodesize\n      iszero\n      dup1\n      iszero\n      tag_134\n      jumpi\n      revert(0x00, 0x00)\n    tag_134:\n      pop\n      gas\n      call\n      iszero\n      dup1\n      iszero\n      tag_136\n      jumpi\n      returndatacopy(0x00, 0x00, returndatasize)\n      revert(0x00, returndatasize)\n    tag_136:\n      pop\n      pop\n      pop\n      pop\n        /* \"airdropnft.sol\":1595:1606  nftContract */\n      dup4\n        /* \"airdropnft.sol\":1582:1627  AirdropEvent(nftContract, recipient, tokenId) */\n      0xffffffffffffffffffffffffffffffffffffffff\n      and\n      0x3f3e0cb0c8889648d91931efa9d3f6d0d04adfb07c856e6c4e09334339befe91\n        /* \"airdropnft.sol\":1608:1617  recipient */\n      dup5\n        /* \"airdropnft.sol\":1619:1626  tokenId */\n      dup5\n        /* \"airdropnft.sol\":1582:1627  AirdropEvent(nftContract, recipient, tokenId) */\n      mload(0x40)\n      tag_137\n      swap3\n      swap2\n      swap1\n      tag_62\n      jump\t// in\n    tag_137:\n      mload(0x40)\n      dup1\n      swap2\n      sub\n      swap1\n      log2\n        /* \"airdropnft.sol\":974:1636  {... */\n      pop\n        /* \"airdropnft.sol\":852:1636  function airdrop (... */\n      pop\n      pop\n      pop\n      jump\t// out\n        /* \"airdropnft.sol\":3790:3892  function withdraw() external onlyOwner {... */\n    tag_30:\n        /* \"airdropnft.sol\":748:753  owner */\n      0x00\n      0x00\n      swap1\n      sload\n      swap1\n      0x0100\n      exp\n      swap1\n      div\n      0xffffffffffffffffffffffffffffffffffffffff\n      and\n        /* \"airdropnft.sol\":734:753  msg.sender == owner */\n      0xffffffffffffffffffffffffffffffffffffffff\n      and\n        /* \"airdropnft.sol\":734:744  msg.sender */\n      caller\n        /* \"airdropnft.sol\":734:753  msg.sender == owner */\n      0xffffffffffffffffffffffffffffffffffffffff\n      and\n      eq\n        /* \"airdropnft.sol\":726:772  require(msg.sender == owner, \"Not authorized\") */\n      tag_139\n      jumpi\n      mload(0x40)\n      0x08c379a000000000000000000000000000000000000000000000000000000000\n      dup2\n      mstore\n      0x04\n      add\n      tag_140\n      swap1\n      tag_84\n      jump\t// in\n    tag_140:\n      mload(0x40)\n      dup1\n      swap2\n      sub\n      swap1\n      revert\n    tag_139:\n        /* \"airdropnft.sol\":3847:3852  owner */\n      0x00\n      0x00\n      swap1\n      sload\n      swap1\n      0x0100\n      exp\n      swap1\n      div\n      0xffffffffffffffffffffffffffffffffffffffff\n      and\n        /* \"airdropnft.sol\":3839:3862  payable(owner).transfer */\n      0xffffffffffffffffffffffffffffffffffffffff\n      and\n        /* \"airdropnft.sol\":3839:3885  payable(owner).transfer(address(this).balance) */\n      0x08fc\n        /* \"airdropnft.sol\":3863:3884  address(this).balance */\n      selfbalance\n        /* \"airdropnft.sol\":3839:3885  payable(owner).transfer(address(this).balance) */\n      swap1\n      dup2\n      iszero\n      mul\n      swap1\n      mload(0x40)\n      0x00\n      mload(0x40)\n      dup1\n      dup4\n      sub\n      dup2\n      dup6\n      dup9\n      dup9\n      call\n      swap4\n      pop\n      pop\n      pop\n      pop\n      iszero\n      dup1\n      iszero\n      tag_143\n      jumpi\n      returndatacopy(0x00, 0x00, returndatasize)\n      revert(0x00, returndatasize)\n    tag_143:\n      pop\n        /* \"airdropnft.sol\":3790:3892  function withdraw() external onlyOwner {... */\n      jump\t// out\n        /* \"airdropnft.sol\":3501:3630  function resetClaim(address user) external onlyOwner {... */\n    tag_35:\n        /* \"airdropnft.sol\":748:753  owner */\n      0x00\n      0x00\n      swap1\n      sload\n      swap1\n      0x0100\n      exp\n      swap1\n      div\n      0xffffffffffffffffffffffffffffffffffffffff\n      and\n        /* \"airdropnft.sol\":734:753  msg.sender == owner */\n      0xffffffffffffffffffffffffffffffffffffffff\n      and\n        /* \"airdropnft.sol\":734:744  msg.sender */\n      caller\n        /* \"airdropnft.sol\":734:753  msg.sender == owner */\n      0xffffffffffffffffffffffffffffffffffffffff\n      and\n      eq\n        /* \"airdropnft.sol\":726:772  require(msg.sender == owner, \"Not authorized\") */\n      tag_145\n      jumpi\n      mload(0x40)\n      0x08c379a000000000000000000000000000000000000000000000000000000000\n      dup2\n      mstore\n      0x04\n      add\n      tag_146\n      swap1\n      tag_84\n      jump\t// in\n    tag_146:\n      mload(0x40)\n      dup1\n      swap2\n      sub\n      swap1\n      revert\n    tag_145:\n        /* \"airdropnft.sol\":3583:3588  false */\n      0x00\n        /* \"airdropnft.sol\":3564:3574  hasClaimed */\n      0x01\n        /* \"airdropnft.sol\":3564:3580  hasClaimed[user] */\n      0x00\n        /* \"airdropnft.sol\":3575:3579  user */\n      dup4\n        /* \"airdropnft.sol\":3564:3580  hasClaimed[user] */\n      0xffffffffffffffffffffffffffffffffffffffff\n      and\n      0xffffffffffffffffffffffffffffffffffffffff\n      and\n      dup2\n      mstore\n      0x20\n      add\n      swap1\n      dup2\n      mstore\n      0x20\n      add\n      0x00\n      keccak256\n      0x00\n        /* \"airdropnft.sol\":3564:3588  hasClaimed[user] = false */\n      0x0100\n      exp\n      dup2\n      sload\n      dup2\n      0xff\n      mul\n      not\n      and\n      swap1\n      dup4\n      iszero\n      iszero\n      mul\n      or\n      swap1\n      sstore\n      pop\n        /* \"airdropnft.sol\":3605:3617  userAirdrops */\n      0x02\n        /* \"airdropnft.sol\":3605:3623  userAirdrops[user] */\n      0x00\n        /* \"airdropnft.sol\":3618:3622  user */\n      dup3\n        /* \"airdropnft.sol\":3605:3623  userAirdrops[user] */\n      0xffffffffffffffffffffffffffffffffffffffff\n      and\n      0xffffffffffffffffffffffffffffffffffffffff\n      and\n      dup2\n      mstore\n      0x20\n      add\n      swap1\n      dup2\n      mstore\n      0x20\n      add\n      0x00\n      keccak256\n      0x00\n        /* \"airdropnft.sol\":3598:3623  delete userAirdrops[user] */\n      0x00\n      dup3\n      add\n      exp(0x0100, 0x00)\n      dup2\n      sload\n      swap1\n      0xffffffffffffffffffffffffffffffffffffffff\n      mul\n      not\n      and\n      swap1\n      sstore\n      0x01\n      dup3\n      add\n      exp(0x0100, 0x00)\n      dup2\n      sload\n      swap1\n      0xffffffffffffffffffffffffffffffffffffffff\n      mul\n      not\n      and\n      swap1\n      sstore\n      0x02\n      dup3\n      add\n      0x00\n      swap1\n      sstore\n      pop\n      pop\n        /* \"airdropnft.sol\":3501:3630  function resetClaim(address user) external onlyOwner {... */\n      pop\n      jump\t// out\n        /* \"airdropnft.sol\":381:423  mapping(address => bool) public hasClaimed */\n    tag_39:\n      mstore(0x20, 0x01)\n      dup1\n      0x00\n      mstore\n      keccak256(0x00, 0x40)\n      0x00\n      swap2\n      pop\n      sload\n      swap1\n      0x0100\n      exp\n      swap1\n      div\n      0xff\n      and\n      dup2\n      jump\t// out\n        /* \"airdropnft.sol\":467:518  mapping(address => AirdropInfo) public userAirdrops */\n    tag_45:\n      mstore(0x20, 0x02)\n      dup1\n      0x00\n      mstore\n      keccak256(0x00, 0x40)\n      0x00\n      swap2\n      pop\n      swap1\n      pop\n      dup1\n      0x00\n      add\n      0x00\n      swap1\n      sload\n      swap1\n      0x0100\n      exp\n      swap1\n      div\n      0xffffffffffffffffffffffffffffffffffffffff\n      and\n      swap1\n      dup1\n      0x01\n      add\n      0x00\n      swap1\n      sload\n      swap1\n      0x0100\n      exp\n      swap1\n      div\n      0xffffffffffffffffffffffffffffffffffffffff\n      and\n      swap1\n      dup1\n      0x02\n      add\n      sload\n      swap1\n      pop\n      dup4\n      jump\t// out\n        /* \"airdropnft.sol\":3636:3784  function updateOwner(address newOwner) external onlyOwner {... */\n    tag_51:\n        /* \"airdropnft.sol\":748:753  owner */\n      0x00\n      0x00\n      swap1\n      sload\n      swap1\n      0x0100\n      exp\n      swap1\n      div\n      0xffffffffffffffffffffffffffffffffffffffff\n      and\n        /* \"airdropnft.sol\":734:753  msg.sender == owner */\n      0xffffffffffffffffffffffffffffffffffffffff\n      and\n        /* \"airdropnft.sol\":734:744  msg.sender */\n      caller\n        /* \"airdropnft.sol\":734:753  msg.sender == owner */\n      0xffffffffffffffffffffffffffffffffffffffff\n      and\n      eq\n        /* \"airdropnft.sol\":726:772  require(msg.sender == owner, \"Not authorized\") */\n      tag_149\n      jumpi\n      mload(0x40)\n      0x08c379a000000000000000000000000000000000000000000000000000000000\n      dup2\n      mstore\n      0x04\n      add\n      tag_150\n      swap1\n      tag_84\n      jump\t// in\n    tag_150:\n      mload(0x40)\n      dup1\n      swap2\n      sub\n      swap1\n      revert\n    tag_149:\n        /* \"airdropnft.sol\":3732:3733  0 */\n      0x00\n        /* \"airdropnft.sol\":3712:3734  newOwner != address(0) */\n      0xffffffffffffffffffffffffffffffffffffffff\n      and\n        /* \"airdropnft.sol\":3712:3720  newOwner */\n      dup2\n        /* \"airdropnft.sol\":3712:3734  newOwner != address(0) */\n      0xffffffffffffffffffffffffffffffffffffffff\n      and\n      sub\n        /* \"airdropnft.sol\":3704:3751  require(newOwner != address(0), \"Zero address\") */\n      tag_152\n      jumpi\n      mload(0x40)\n      0x08c379a000000000000000000000000000000000000000000000000000000000\n      dup2\n      mstore\n      0x04\n      add\n      tag_153\n      swap1\n      tag_154\n      jump\t// in\n    tag_153:\n      mload(0x40)\n      dup1\n      swap2\n      sub\n      swap1\n      revert\n    tag_152:\n        /* \"airdropnft.sol\":3769:3777  newOwner */\n      dup1\n        /* \"airdropnft.sol\":3761:3766  owner */\n      0x00\n      0x00\n        /* \"airdropnft.sol\":3761:3777  owner = newOwner */\n      0x0100\n      exp\n      dup2\n      sload\n      dup2\n      0xffffffffffffffffffffffffffffffffffffffff\n      mul\n      not\n      and\n      swap1\n      dup4\n      0xffffffffffffffffffffffffffffffffffffffff\n      and\n      mul\n      or\n      swap1\n      sstore\n      pop\n        /* \"airdropnft.sol\":3636:3784  function updateOwner(address newOwner) external onlyOwner {... */\n      pop\n      jump\t// out\n        /* \"airdropnft.sol\":196:216  address public owner */\n    tag_54:\n      0x00\n      0x00\n      swap1\n      sload\n      swap1\n      0x0100\n      exp\n      swap1\n      div\n      0xffffffffffffffffffffffffffffffffffffffff\n      and\n      dup2\n      jump\t// out\n        /* \"airdropnft.sol\":2756:2945  function getUserAirdrop(address user) external view returns (address, uint256) {... */\n    tag_60:\n        /* \"airdropnft.sol\":2817:2824  address */\n      0x00\n        /* \"airdropnft.sol\":2826:2833  uint256 */\n      0x00\n        /* \"airdropnft.sol\":2845:2868  AirdropInfo memory info */\n      0x00\n        /* \"airdropnft.sol\":2871:2883  userAirdrops */\n      0x02\n        /* \"airdropnft.sol\":2871:2889  userAirdrops[user] */\n      0x00\n        /* \"airdropnft.sol\":2884:2888  user */\n      dup6\n        /* \"airdropnft.sol\":2871:2889  userAirdrops[user] */\n      0xffffffffffffffffffffffffffffffffffffffff\n      and\n      0xffffffffffffffffffffffffffffffffffffffff\n      and\n      dup2\n      mstore\n      0x20\n      add\n      swap1\n      dup2\n      mstore\n      0x20\n      add\n      0x00\n      keccak256\n        /* \"airdropnft.sol\":2845:2889  AirdropInfo memory info = userAirdrops[user] */\n      mload(0x40)\n      dup1\n      0x60\n      add\n      0x40\n      mstore\n      swap1\n      dup2\n      0x00\n      dup3\n      add\n      0x00\n      swap1\n      sload\n      swap1\n      0x0100\n      exp\n      swap1\n      div\n      0xffffffffffffffffffffffffffffffffffffffff\n      and\n      0xffffffffffffffffffffffffffffffffffffffff\n      and\n      0xffffffffffffffffffffffffffffffffffffffff\n      and\n      dup2\n      mstore\n      0x20\n      add\n      0x01\n      dup3\n      add\n      0x00\n      swap1\n      sload\n      swap1\n      0x0100\n      exp\n      swap1\n      div\n      0xffffffffffffffffffffffffffffffffffffffff\n      and\n      0xffffffffffffffffffffffffffffffffffffffff\n      and\n      0xffffffffffffffffffffffffffffffffffffffff\n      and\n      dup2\n      mstore\n      0x20\n      add\n      0x02\n      dup3\n      add\n      sload\n      dup2\n      mstore\n      pop\n      pop\n      swap1\n      pop\n        /* \"airdropnft.sol\":2907:2911  info */\n      dup1\n        /* \"airdropnft.sol\":2907:2923  info.nftContract */\n      0x20\n      add\n      mload\n        /* \"airdropnft.sol\":2925:2929  info */\n      dup2\n        /* \"airdropnft.sol\":2925:2937  info.tokenId */\n      0x40\n      add\n      mload\n        /* \"airdropnft.sol\":2899:2938  return (info.nftContract, info.tokenId) */\n      swap3\n      pop\n      swap3\n      pop\n      pop\n        /* \"airdropnft.sol\":2756:2945  function getUserAirdrop(address user) external view returns (address, uint256) {... */\n      swap2\n      pop\n      swap2\n      jump\t// out\n        /* \"airdropnft.sol\":567:599  AirdropInfo[] public allAirdrops */\n    tag_67:\n      0x03\n      dup2\n      dup2\n      sload\n      dup2\n      lt\n      tag_156\n      jumpi\n      0x00\n      dup1\n      revert\n    tag_156:\n      swap1\n      0x00\n      mstore\n      keccak256(0x00, 0x20)\n      swap1\n      0x03\n      mul\n      add\n      0x00\n      swap2\n      pop\n      swap1\n      pop\n      dup1\n      0x00\n      add\n      0x00\n      swap1\n      sload\n      swap1\n      0x0100\n      exp\n      swap1\n      div\n      0xffffffffffffffffffffffffffffffffffffffff\n      and\n      swap1\n      dup1\n      0x01\n      add\n      0x00\n      swap1\n      sload\n      swap1\n      0x0100\n      exp\n      swap1\n      div\n      0xffffffffffffffffffffffffffffffffffffffff\n      and\n      swap1\n      dup1\n      0x02\n      add\n      sload\n      swap1\n      pop\n      dup4\n      jump\t// out\n        /* \"airdropnft.sol\":3394:3495  function totalAirdropped() external view returns (uint256) {... */\n    tag_71:\n        /* \"airdropnft.sol\":3444:3451  uint256 */\n      0x00\n        /* \"airdropnft.sol\":3470:3481  allAirdrops */\n      0x03\n        /* \"airdropnft.sol\":3470:3488  allAirdrops.length */\n      dup1\n      sload\n      swap1\n      pop\n        /* \"airdropnft.sol\":3463:3488  return allAirdrops.length */\n      swap1\n      pop\n        /* \"airdropnft.sol\":3394:3495  function totalAirdropped() external view returns (uint256) {... */\n      swap1\n      jump\t// out\n        /* \"airdropnft.sol\":2951:3388  function getAllAirdrops(uint256 offset, uint256 limit) external view returns (AirdropInfo[] memory) {... */\n    tag_78:\n        /* \"airdropnft.sol\":3029:3049  AirdropInfo[] memory */\n      0x60\n        /* \"airdropnft.sol\":3061:3072  uint256 end */\n      0x00\n        /* \"airdropnft.sol\":3084:3089  limit */\n      dup3\n        /* \"airdropnft.sol\":3075:3081  offset */\n      dup5\n        /* \"airdropnft.sol\":3075:3089  offset + limit */\n      tag_160\n      swap2\n      swap1\n      tag_161\n      jump\t// in\n    tag_160:\n        /* \"airdropnft.sol\":3061:3089  uint256 end = offset + limit */\n      swap1\n      pop\n        /* \"airdropnft.sol\":3109:3120  allAirdrops */\n      0x03\n        /* \"airdropnft.sol\":3109:3127  allAirdrops.length */\n      dup1\n      sload\n      swap1\n      pop\n        /* \"airdropnft.sol\":3103:3106  end */\n      dup2\n        /* \"airdropnft.sol\":3103:3127  end > allAirdrops.length */\n      gt\n        /* \"airdropnft.sol\":3099:3178  if (end > allAirdrops.length) {... */\n      iszero\n      tag_162\n      jumpi\n        /* \"airdropnft.sol\":3149:3160  allAirdrops */\n      0x03\n        /* \"airdropnft.sol\":3149:3167  allAirdrops.length */\n      dup1\n      sload\n      swap1\n      pop\n        /* \"airdropnft.sol\":3143:3167  end = allAirdrops.length */\n      swap1\n      pop\n        /* \"airdropnft.sol\":3099:3178  if (end > allAirdrops.length) {... */\n    tag_162:\n        /* \"airdropnft.sol\":3188:3215  AirdropInfo[] memory result */\n      0x00\n        /* \"airdropnft.sol\":3242:3248  offset */\n      dup5\n        /* \"airdropnft.sol\":3236:3239  end */\n      dup3\n        /* \"airdropnft.sol\":3236:3248  end - offset */\n      tag_163\n      swap2\n      swap1\n      tag_164\n      jump\t// in\n    tag_163:\n        /* \"airdropnft.sol\":3218:3249  new AirdropInfo[](end - offset) */\n      0xffffffffffffffff\n      dup2\n      gt\n      iszero\n      tag_165\n      jumpi\n      tag_166\n      tag_167\n      jump\t// in\n    tag_166:\n    tag_165:\n      mload(0x40)\n      swap1\n      dup1\n      dup3\n      mstore\n      dup1\n      0x20\n      mul\n      0x20\n      add\n      dup3\n      add\n      0x40\n      mstore\n      dup1\n      iszero\n      tag_168\n      jumpi\n      dup2\n      0x20\n      add\n    tag_169:\n      tag_170\n      tag_171\n      jump\t// in\n    tag_170:\n      dup2\n      mstore\n      0x20\n      add\n      swap1\n      0x01\n      swap1\n      sub\n      swap1\n      dup2\n      tag_169\n      jumpi\n      swap1\n      pop\n    tag_168:\n      pop\n        /* \"airdropnft.sol\":3188:3249  AirdropInfo[] memory result = new AirdropInfo[](end - offset) */\n      swap1\n      pop\n        /* \"airdropnft.sol\":3264:3273  uint256 i */\n      0x00\n        /* \"airdropnft.sol\":3276:3282  offset */\n      dup6\n        /* \"airdropnft.sol\":3264:3282  uint256 i = offset */\n      swap1\n      pop\n        /* \"airdropnft.sol\":3259:3358  for (uint256 i = offset; i < end; i++) {... */\n    tag_172:\n        /* \"airdropnft.sol\":3288:3291  end */\n      dup3\n        /* \"airdropnft.sol\":3284:3285  i */\n      dup2\n        /* \"airdropnft.sol\":3284:3291  i < end */\n      lt\n        /* \"airdropnft.sol\":3259:3358  for (uint256 i = offset; i < end; i++) {... */\n      iszero\n      tag_173\n      jumpi\n        /* \"airdropnft.sol\":3333:3344  allAirdrops */\n      0x03\n        /* \"airdropnft.sol\":3345:3346  i */\n      dup2\n        /* \"airdropnft.sol\":3333:3347  allAirdrops[i] */\n      dup2\n      sload\n      dup2\n      lt\n      tag_175\n      jumpi\n      tag_176\n      tag_95\n      jump\t// in\n    tag_176:\n    tag_175:\n      swap1\n      0x00\n      mstore\n      keccak256(0x00, 0x20)\n      swap1\n      0x03\n      mul\n      add\n        /* \"airdropnft.sol\":3312:3347  result[i - offset] = allAirdrops[i] */\n      mload(0x40)\n      dup1\n      0x60\n      add\n      0x40\n      mstore\n      swap1\n      dup2\n      0x00\n      dup3\n      add\n      0x00\n      swap1\n      sload\n      swap1\n      0x0100\n      exp\n      swap1\n      div\n      0xffffffffffffffffffffffffffffffffffffffff\n      and\n      0xffffffffffffffffffffffffffffffffffffffff\n      and\n      0xffffffffffffffffffffffffffffffffffffffff\n      and\n      dup2\n      mstore\n      0x20\n      add\n      0x01\n      dup3\n      add\n      0x00\n      swap1\n      sload\n      swap1\n      0x0100\n      exp\n      swap1\n      div\n      0xffffffffffffffffffffffffffffffffffffffff\n      and\n      0xffffffffffffffffffffffffffffffffffffffff\n      and\n      0xffffffffffffffffffffffffffffffffffffffff\n      and\n      dup2\n      mstore\n      0x20\n      add\n      0x02\n      dup3\n      add\n      sload\n      dup2\n      mstore\n      pop\n      pop\n        /* \"airdropnft.sol\":3312:3318  result */\n      dup3\n        /* \"airdropnft.sol\":3323:3329  offset */\n      dup8\n        /* \"airdropnft.sol\":3319:3320  i */\n      dup4\n        /* \"airdropnft.sol\":3319:3329  i - offset */\n      tag_178\n      swap2\n      swap1\n      tag_164\n      jump\t// in\n    tag_178:\n        /* \"airdropnft.sol\":3312:3330  result[i - offset] */\n      dup2\n      mload\n      dup2\n      lt\n      tag_179\n      jumpi\n      tag_180\n      tag_95\n      jump\t// in\n    tag_180:\n    tag_179:\n      0x20\n      mul\n      0x20\n      add\n      add\n        /* \"airdropnft.sol\":3312:3347  result[i - offset] = allAirdrops[i] */\n      dup2\n      swap1\n      mstore\n      pop\n        /* \"airdropnft.sol\":3293:3296  i++ */\n      dup1\n      dup1\n      0x01\n      add\n      swap2\n      pop\n      pop\n        /* \"airdropnft.sol\":3259:3358  for (uint256 i = offset; i < end; i++) {... */\n      jump(tag_172)\n    tag_173:\n      pop\n        /* \"airdropnft.sol\":3375:3381  result */\n      dup1\n        /* \"airdropnft.sol\":3368:3381  return result */\n      swap3\n      pop\n      pop\n      pop\n        /* \"airdropnft.sol\":2951:3388  function getAllAirdrops(uint256 offset, uint256 limit) external view returns (AirdropInfo[] memory) {... */\n      swap3\n      swap2\n      pop\n      pop\n      jump\t// out\n    tag_171:\n      mload(0x40)\n      dup1\n      0x60\n      add\n      0x40\n      mstore\n      dup1\n      and(0xffffffffffffffffffffffffffffffffffffffff, 0x00)\n      dup2\n      mstore\n      0x20\n      add\n      and(0xffffffffffffffffffffffffffffffffffffffff, 0x00)\n      dup2\n      mstore\n      0x20\n      add\n      0x00\n      dup2\n      mstore\n      pop\n      swap1\n      jump\t// out\n        /* \"#utility.yul\":88:205   */\n    tag_182:\n        /* \"#utility.yul\":197:198   */\n      0x00\n        /* \"#utility.yul\":194:195   */\n      0x00\n        /* \"#utility.yul\":187:199   */\n      revert\n        /* \"#utility.yul\":211:328   */\n    tag_183:\n        /* \"#utility.yul\":320:321   */\n      0x00\n        /* \"#utility.yul\":317:318   */\n      0x00\n        /* \"#utility.yul\":310:322   */\n      revert\n        /* \"#utility.yul\":334:451   */\n    tag_184:\n        /* \"#utility.yul\":443:444   */\n      0x00\n        /* \"#utility.yul\":440:441   */\n      0x00\n        /* \"#utility.yul\":433:445   */\n      revert\n        /* \"#utility.yul\":457:574   */\n    tag_185:\n        /* \"#utility.yul\":566:567   */\n      0x00\n        /* \"#utility.yul\":563:564   */\n      0x00\n        /* \"#utility.yul\":556:568   */\n      revert\n        /* \"#utility.yul\":580:697   */\n    tag_186:\n        /* \"#utility.yul\":689:690   */\n      0x00\n        /* \"#utility.yul\":686:687   */\n      0x00\n        /* \"#utility.yul\":679:691   */\n      revert\n        /* \"#utility.yul\":720:1288   */\n    tag_187:\n        /* \"#utility.yul\":793:801   */\n      0x00\n        /* \"#utility.yul\":803:809   */\n      0x00\n        /* \"#utility.yul\":853:856   */\n      dup4\n        /* \"#utility.yul\":846:850   */\n      0x1f\n        /* \"#utility.yul\":838:844   */\n      dup5\n        /* \"#utility.yul\":834:851   */\n      add\n        /* \"#utility.yul\":830:857   */\n      slt\n        /* \"#utility.yul\":820:942   */\n      tag_231\n      jumpi\n        /* \"#utility.yul\":861:940   */\n      tag_232\n      tag_184\n      jump\t// in\n    tag_232:\n        /* \"#utility.yul\":820:942   */\n    tag_231:\n        /* \"#utility.yul\":974:980   */\n      dup3\n        /* \"#utility.yul\":961:981   */\n      calldataload\n        /* \"#utility.yul\":951:981   */\n      swap1\n      pop\n        /* \"#utility.yul\":1004:1022   */\n      0xffffffffffffffff\n        /* \"#utility.yul\":996:1002   */\n      dup2\n        /* \"#utility.yul\":993:1023   */\n      gt\n        /* \"#utility.yul\":990:1107   */\n      iszero\n      tag_233\n      jumpi\n        /* \"#utility.yul\":1026:1105   */\n      tag_234\n      tag_185\n      jump\t// in\n    tag_234:\n        /* \"#utility.yul\":990:1107   */\n    tag_233:\n        /* \"#utility.yul\":1140:1144   */\n      0x20\n        /* \"#utility.yul\":1132:1138   */\n      dup4\n        /* \"#utility.yul\":1128:1145   */\n      add\n        /* \"#utility.yul\":1116:1145   */\n      swap2\n      pop\n        /* \"#utility.yul\":1194:1197   */\n      dup4\n        /* \"#utility.yul\":1186:1190   */\n      0x20\n        /* \"#utility.yul\":1178:1184   */\n      dup3\n        /* \"#utility.yul\":1174:1191   */\n      mul\n        /* \"#utility.yul\":1164:1172   */\n      dup4\n        /* \"#utility.yul\":1160:1192   */\n      add\n        /* \"#utility.yul\":1157:1198   */\n      gt\n        /* \"#utility.yul\":1154:1282   */\n      iszero\n      tag_235\n      jumpi\n        /* \"#utility.yul\":1201:1280   */\n      tag_236\n      tag_186\n      jump\t// in\n    tag_236:\n        /* \"#utility.yul\":1154:1282   */\n    tag_235:\n        /* \"#utility.yul\":720:1288   */\n      swap3\n      pop\n      swap3\n      swap1\n      pop\n      jump\t// out\n        /* \"#utility.yul\":1311:1879   */\n    tag_188:\n        /* \"#utility.yul\":1384:1392   */\n      0x00\n        /* \"#utility.yul\":1394:1400   */\n      0x00\n        /* \"#utility.yul\":1444:1447   */\n      dup4\n        /* \"#utility.yul\":1437:1441   */\n      0x1f\n        /* \"#utility.yul\":1429:1435   */\n      dup5\n        /* \"#utility.yul\":1425:1442   */\n      add\n        /* \"#utility.yul\":1421:1448   */\n      slt\n        /* \"#utility.yul\":1411:1533   */\n      tag_238\n      jumpi\n        /* \"#utility.yul\":1452:1531   */\n      tag_239\n      tag_184\n      jump\t// in\n    tag_239:\n        /* \"#utility.yul\":1411:1533   */\n    tag_238:\n        /* \"#utility.yul\":1565:1571   */\n      dup3\n        /* \"#utility.yul\":1552:1572   */\n      calldataload\n        /* \"#utility.yul\":1542:1572   */\n      swap1\n      pop\n        /* \"#utility.yul\":1595:1613   */\n      0xffffffffffffffff\n        /* \"#utility.yul\":1587:1593   */\n      dup2\n        /* \"#utility.yul\":1584:1614   */\n      gt\n        /* \"#utility.yul\":1581:1698   */\n      iszero\n      tag_240\n      jumpi\n        /* \"#utility.yul\":1617:1696   */\n      tag_241\n      tag_185\n      jump\t// in\n    tag_241:\n        /* \"#utility.yul\":1581:1698   */\n    tag_240:\n        /* \"#utility.yul\":1731:1735   */\n      0x20\n        /* \"#utility.yul\":1723:1729   */\n      dup4\n        /* \"#utility.yul\":1719:1736   */\n      add\n        /* \"#utility.yul\":1707:1736   */\n      swap2\n      pop\n        /* \"#utility.yul\":1785:1788   */\n      dup4\n        /* \"#utility.yul\":1777:1781   */\n      0x20\n        /* \"#utility.yul\":1769:1775   */\n      dup3\n        /* \"#utility.yul\":1765:1782   */\n      mul\n        /* \"#utility.yul\":1755:1763   */\n      dup4\n        /* \"#utility.yul\":1751:1783   */\n      add\n        /* \"#utility.yul\":1748:1789   */\n      gt\n        /* \"#utility.yul\":1745:1873   */\n      iszero\n      tag_242\n      jumpi\n        /* \"#utility.yul\":1792:1871   */\n      tag_243\n      tag_186\n      jump\t// in\n    tag_243:\n        /* \"#utility.yul\":1745:1873   */\n    tag_242:\n        /* \"#utility.yul\":1311:1879   */\n      swap3\n      pop\n      swap3\n      swap1\n      pop\n      jump\t// out\n        /* \"#utility.yul\":1885:3194   */\n    tag_21:\n        /* \"#utility.yul\":2043:2049   */\n      0x00\n        /* \"#utility.yul\":2051:2057   */\n      0x00\n        /* \"#utility.yul\":2059:2065   */\n      0x00\n        /* \"#utility.yul\":2067:2073   */\n      0x00\n        /* \"#utility.yul\":2075:2081   */\n      0x00\n        /* \"#utility.yul\":2083:2089   */\n      0x00\n        /* \"#utility.yul\":2132:2134   */\n      0x60\n        /* \"#utility.yul\":2120:2129   */\n      dup8\n        /* \"#utility.yul\":2111:2118   */\n      dup10\n        /* \"#utility.yul\":2107:2130   */\n      sub\n        /* \"#utility.yul\":2103:2135   */\n      slt\n        /* \"#utility.yul\":2100:2219   */\n      iszero\n      tag_245\n      jumpi\n        /* \"#utility.yul\":2138:2217   */\n      tag_246\n      tag_182\n      jump\t// in\n    tag_246:\n        /* \"#utility.yul\":2100:2219   */\n    tag_245:\n        /* \"#utility.yul\":2286:2287   */\n      0x00\n        /* \"#utility.yul\":2275:2284   */\n      dup8\n        /* \"#utility.yul\":2271:2288   */\n      add\n        /* \"#utility.yul\":2258:2289   */\n      calldataload\n        /* \"#utility.yul\":2316:2334   */\n      0xffffffffffffffff\n        /* \"#utility.yul\":2308:2314   */\n      dup2\n        /* \"#utility.yul\":2305:2335   */\n      gt\n        /* \"#utility.yul\":2302:2419   */\n      iszero\n      tag_247\n      jumpi\n        /* \"#utility.yul\":2338:2417   */\n      tag_248\n      tag_183\n      jump\t// in\n    tag_248:\n        /* \"#utility.yul\":2302:2419   */\n    tag_247:\n        /* \"#utility.yul\":2451:2531   */\n      tag_249\n        /* \"#utility.yul\":2523:2530   */\n      dup10\n        /* \"#utility.yul\":2514:2520   */\n      dup3\n        /* \"#utility.yul\":2503:2512   */\n      dup11\n        /* \"#utility.yul\":2499:2521   */\n      add\n        /* \"#utility.yul\":2451:2531   */\n      tag_187\n      jump\t// in\n    tag_249:\n        /* \"#utility.yul\":2433:2531   */\n      swap7\n      pop\n      swap7\n      pop\n        /* \"#utility.yul\":2229:2541   */\n      pop\n        /* \"#utility.yul\":2608:2610   */\n      0x20\n        /* \"#utility.yul\":2597:2606   */\n      dup8\n        /* \"#utility.yul\":2593:2611   */\n      add\n        /* \"#utility.yul\":2580:2612   */\n      calldataload\n        /* \"#utility.yul\":2639:2657   */\n      0xffffffffffffffff\n        /* \"#utility.yul\":2631:2637   */\n      dup2\n        /* \"#utility.yul\":2628:2658   */\n      gt\n        /* \"#utility.yul\":2625:2742   */\n      iszero\n      tag_250\n      jumpi\n        /* \"#utility.yul\":2661:2740   */\n      tag_251\n      tag_183\n      jump\t// in\n    tag_251:\n        /* \"#utility.yul\":2625:2742   */\n    tag_250:\n        /* \"#utility.yul\":2774:2854   */\n      tag_252\n        /* \"#utility.yul\":2846:2853   */\n      dup10\n        /* \"#utility.yul\":2837:2843   */\n      dup3\n        /* \"#utility.yul\":2826:2835   */\n      dup11\n        /* \"#utility.yul\":2822:2844   */\n      add\n        /* \"#utility.yul\":2774:2854   */\n      tag_187\n      jump\t// in\n    tag_252:\n        /* \"#utility.yul\":2756:2854   */\n      swap5\n      pop\n      swap5\n      pop\n        /* \"#utility.yul\":2551:2864   */\n      pop\n        /* \"#utility.yul\":2931:2933   */\n      0x40\n        /* \"#utility.yul\":2920:2929   */\n      dup8\n        /* \"#utility.yul\":2916:2934   */\n      add\n        /* \"#utility.yul\":2903:2935   */\n      calldataload\n        /* \"#utility.yul\":2962:2980   */\n      0xffffffffffffffff\n        /* \"#utility.yul\":2954:2960   */\n      dup2\n        /* \"#utility.yul\":2951:2981   */\n      gt\n        /* \"#utility.yul\":2948:3065   */\n      iszero\n      tag_253\n      jumpi\n        /* \"#utility.yul\":2984:3063   */\n      tag_254\n      tag_183\n      jump\t// in\n    tag_254:\n        /* \"#utility.yul\":2948:3065   */\n    tag_253:\n        /* \"#utility.yul\":3097:3177   */\n      tag_255\n        /* \"#utility.yul\":3169:3176   */\n      dup10\n        /* \"#utility.yul\":3160:3166   */\n      dup3\n        /* \"#utility.yul\":3149:3158   */\n      dup11\n        /* \"#utility.yul\":3145:3167   */\n      add\n        /* \"#utility.yul\":3097:3177   */\n      tag_188\n      jump\t// in\n    tag_255:\n        /* \"#utility.yul\":3079:3177   */\n      swap3\n      pop\n      swap3\n      pop\n        /* \"#utility.yul\":2874:3187   */\n      pop\n        /* \"#utility.yul\":1885:3194   */\n      swap3\n      swap6\n      pop\n      swap3\n      swap6\n      pop\n      swap3\n      swap6\n      jump\t// out\n        /* \"#utility.yul\":3200:3326   */\n    tag_189:\n        /* \"#utility.yul\":3237:3244   */\n      0x00\n        /* \"#utility.yul\":3277:3319   */\n      0xffffffffffffffffffffffffffffffffffffffff\n        /* \"#utility.yul\":3270:3275   */\n      dup3\n        /* \"#utility.yul\":3266:3320   */\n      and\n        /* \"#utility.yul\":3255:3320   */\n      swap1\n      pop\n        /* \"#utility.yul\":3200:3326   */\n      swap2\n      swap1\n      pop\n      jump\t// out\n        /* \"#utility.yul\":3332:3428   */\n    tag_190:\n        /* \"#utility.yul\":3369:3376   */\n      0x00\n        /* \"#utility.yul\":3398:3422   */\n      tag_258\n        /* \"#utility.yul\":3416:3421   */\n      dup3\n        /* \"#utility.yul\":3398:3422   */\n      tag_189\n      jump\t// in\n    tag_258:\n        /* \"#utility.yul\":3387:3422   */\n      swap1\n      pop\n        /* \"#utility.yul\":3332:3428   */\n      swap2\n      swap1\n      pop\n      jump\t// out\n        /* \"#utility.yul\":3434:3556   */\n    tag_191:\n        /* \"#utility.yul\":3507:3531   */\n      tag_260\n        /* \"#utility.yul\":3525:3530   */\n      dup2\n        /* \"#utility.yul\":3507:3531   */\n      tag_190\n      jump\t// in\n    tag_260:\n        /* \"#utility.yul\":3500:3505   */\n      dup2\n        /* \"#utility.yul\":3497:3532   */\n      eq\n        /* \"#utility.yul\":3487:3550   */\n      tag_261\n      jumpi\n        /* \"#utility.yul\":3546:3547   */\n      0x00\n        /* \"#utility.yul\":3543:3544   */\n      0x00\n        /* \"#utility.yul\":3536:3548   */\n      revert\n        /* \"#utility.yul\":3487:3550   */\n    tag_261:\n        /* \"#utility.yul\":3434:3556   */\n      pop\n      jump\t// out\n        /* \"#utility.yul\":3562:3701   */\n    tag_192:\n        /* \"#utility.yul\":3608:3613   */\n      0x00\n        /* \"#utility.yul\":3646:3652   */\n      dup2\n        /* \"#utility.yul\":3633:3653   */\n      calldataload\n        /* \"#utility.yul\":3624:3653   */\n      swap1\n      pop\n        /* \"#utility.yul\":3662:3695   */\n      tag_263\n        /* \"#utility.yul\":3689:3694   */\n      dup2\n        /* \"#utility.yul\":3662:3695   */\n      tag_191\n      jump\t// in\n    tag_263:\n        /* \"#utility.yul\":3562:3701   */\n      swap3\n      swap2\n      pop\n      pop\n      jump\t// out\n        /* \"#utility.yul\":3707:3784   */\n    tag_193:\n        /* \"#utility.yul\":3744:3751   */\n      0x00\n        /* \"#utility.yul\":3773:3778   */\n      dup2\n        /* \"#utility.yul\":3762:3778   */\n      swap1\n      pop\n        /* \"#utility.yul\":3707:3784   */\n      swap2\n      swap1\n      pop\n      jump\t// out\n        /* \"#utility.yul\":3790:3912   */\n    tag_194:\n        /* \"#utility.yul\":3863:3887   */\n      tag_266\n        /* \"#utility.yul\":3881:3886   */\n      dup2\n        /* \"#utility.yul\":3863:3887   */\n      tag_193\n      jump\t// in\n    tag_266:\n        /* \"#utility.yul\":3856:3861   */\n      dup2\n        /* \"#utility.yul\":3853:3888   */\n      eq\n        /* \"#utility.yul\":3843:3906   */\n      tag_267\n      jumpi\n        /* \"#utility.yul\":3902:3903   */\n      0x00\n        /* \"#utility.yul\":3899:3900   */\n      0x00\n        /* \"#utility.yul\":3892:3904   */\n      revert\n        /* \"#utility.yul\":3843:3906   */\n    tag_267:\n        /* \"#utility.yul\":3790:3912   */\n      pop\n      jump\t// out\n        /* \"#utility.yul\":3918:4057   */\n    tag_195:\n        /* \"#utility.yul\":3964:3969   */\n      0x00\n        /* \"#utility.yul\":4002:4008   */\n      dup2\n        /* \"#utility.yul\":3989:4009   */\n      calldataload\n        /* \"#utility.yul\":3980:4009   */\n      swap1\n      pop\n        /* \"#utility.yul\":4018:4051   */\n      tag_269\n        /* \"#utility.yul\":4045:4050   */\n      dup2\n        /* \"#utility.yul\":4018:4051   */\n      tag_194\n      jump\t// in\n    tag_269:\n        /* \"#utility.yul\":3918:4057   */\n      swap3\n      swap2\n      pop\n      pop\n      jump\t// out\n        /* \"#utility.yul\":4063:4682   */\n    tag_26:\n        /* \"#utility.yul\":4140:4146   */\n      0x00\n        /* \"#utility.yul\":4148:4154   */\n      0x00\n        /* \"#utility.yul\":4156:4162   */\n      0x00\n        /* \"#utility.yul\":4205:4207   */\n      0x60\n        /* \"#utility.yul\":4193:4202   */\n      dup5\n        /* \"#utility.yul\":4184:4191   */\n      dup7\n        /* \"#utility.yul\":4180:4203   */\n      sub\n        /* \"#utility.yul\":4176:4208   */\n      slt\n        /* \"#utility.yul\":4173:4292   */\n      iszero\n      tag_271\n      jumpi\n        /* \"#utility.yul\":4211:4290   */\n      tag_272\n      tag_182\n      jump\t// in\n    tag_272:\n        /* \"#utility.yul\":4173:4292   */\n    tag_271:\n        /* \"#utility.yul\":4331:4332   */\n      0x00\n        /* \"#utility.yul\":4356:4409   */\n      tag_273\n        /* \"#utility.yul\":4401:4408   */\n      dup7\n        /* \"#utility.yul\":4392:4398   */\n      dup3\n        /* \"#utility.yul\":4381:4390   */\n      dup8\n        /* \"#utility.yul\":4377:4399   */\n      add\n        /* \"#utility.yul\":4356:4409   */\n      tag_192\n      jump\t// in\n    tag_273:\n        /* \"#utility.yul\":4346:4409   */\n      swap4\n      pop\n        /* \"#utility.yul\":4302:4419   */\n      pop\n        /* \"#utility.yul\":4458:4460   */\n      0x20\n        /* \"#utility.yul\":4484:4537   */\n      tag_274\n        /* \"#utility.yul\":4529:4536   */\n      dup7\n        /* \"#utility.yul\":4520:4526   */\n      dup3\n        /* \"#utility.yul\":4509:4518   */\n      dup8\n        /* \"#utility.yul\":4505:4527   */\n      add\n        /* \"#utility.yul\":4484:4537   */\n      tag_192\n      jump\t// in\n    tag_274:\n        /* \"#utility.yul\":4474:4537   */\n      swap3\n      pop\n        /* \"#utility.yul\":4429:4547   */\n      pop\n        /* \"#utility.yul\":4586:4588   */\n      0x40\n        /* \"#utility.yul\":4612:4665   */\n      tag_275\n        /* \"#utility.yul\":4657:4664   */\n      dup7\n        /* \"#utility.yul\":4648:4654   */\n      dup3\n        /* \"#utility.yul\":4637:4646   */\n      dup8\n        /* \"#utility.yul\":4633:4655   */\n      add\n        /* \"#utility.yul\":4612:4665   */\n      tag_195\n      jump\t// in\n    tag_275:\n        /* \"#utility.yul\":4602:4665   */\n      swap2\n      pop\n        /* \"#utility.yul\":4557:4675   */\n      pop\n        /* \"#utility.yul\":4063:4682   */\n      swap3\n      pop\n      swap3\n      pop\n      swap3\n      jump\t// out\n        /* \"#utility.yul\":4688:5017   */\n    tag_34:\n        /* \"#utility.yul\":4747:4753   */\n      0x00\n        /* \"#utility.yul\":4796:4798   */\n      0x20\n        /* \"#utility.yul\":4784:4793   */\n      dup3\n        /* \"#utility.yul\":4775:4782   */\n      dup5\n        /* \"#utility.yul\":4771:4794   */\n      sub\n        /* \"#utility.yul\":4767:4799   */\n      slt\n        /* \"#utility.yul\":4764:4883   */\n      iszero\n      tag_277\n      jumpi\n        /* \"#utility.yul\":4802:4881   */\n      tag_278\n      tag_182\n      jump\t// in\n    tag_278:\n        /* \"#utility.yul\":4764:4883   */\n    tag_277:\n        /* \"#utility.yul\":4922:4923   */\n      0x00\n        /* \"#utility.yul\":4947:5000   */\n      tag_279\n        /* \"#utility.yul\":4992:4999   */\n      dup5\n        /* \"#utility.yul\":4983:4989   */\n      dup3\n        /* \"#utility.yul\":4972:4981   */\n      dup6\n        /* \"#utility.yul\":4968:4990   */\n      add\n        /* \"#utility.yul\":4947:5000   */\n      tag_192\n      jump\t// in\n    tag_279:\n        /* \"#utility.yul\":4937:5000   */\n      swap2\n      pop\n        /* \"#utility.yul\":4893:5010   */\n      pop\n        /* \"#utility.yul\":4688:5017   */\n      swap3\n      swap2\n      pop\n      pop\n      jump\t// out\n        /* \"#utility.yul\":5023:5113   */\n    tag_196:\n        /* \"#utility.yul\":5057:5064   */\n      0x00\n        /* \"#utility.yul\":5100:5105   */\n      dup2\n        /* \"#utility.yul\":5093:5106   */\n      iszero\n        /* \"#utility.yul\":5086:5107   */\n      iszero\n        /* \"#utility.yul\":5075:5107   */\n      swap1\n      pop\n        /* \"#utility.yul\":5023:5113   */\n      swap2\n      swap1\n      pop\n      jump\t// out\n        /* \"#utility.yul\":5119:5228   */\n    tag_197:\n        /* \"#utility.yul\":5200:5221   */\n      tag_282\n        /* \"#utility.yul\":5215:5220   */\n      dup2\n        /* \"#utility.yul\":5200:5221   */\n      tag_196\n      jump\t// in\n    tag_282:\n        /* \"#utility.yul\":5195:5198   */\n      dup3\n        /* \"#utility.yul\":5188:5222   */\n      mstore\n        /* \"#utility.yul\":5119:5228   */\n      pop\n      pop\n      jump\t// out\n        /* \"#utility.yul\":5234:5444   */\n    tag_41:\n        /* \"#utility.yul\":5321:5325   */\n      0x00\n        /* \"#utility.yul\":5359:5361   */\n      0x20\n        /* \"#utility.yul\":5348:5357   */\n      dup3\n        /* \"#utility.yul\":5344:5362   */\n      add\n        /* \"#utility.yul\":5336:5362   */\n      swap1\n      pop\n        /* \"#utility.yul\":5372:5437   */\n      tag_284\n        /* \"#utility.yul\":5434:5435   */\n      0x00\n        /* \"#utility.yul\":5423:5432   */\n      dup4\n        /* \"#utility.yul\":5419:5436   */\n      add\n        /* \"#utility.yul\":5410:5416   */\n      dup5\n        /* \"#utility.yul\":5372:5437   */\n      tag_197\n      jump\t// in\n    tag_284:\n        /* \"#utility.yul\":5234:5444   */\n      swap3\n      swap2\n      pop\n      pop\n      jump\t// out\n        /* \"#utility.yul\":5450:5568   */\n    tag_198:\n        /* \"#utility.yul\":5537:5561   */\n      tag_286\n        /* \"#utility.yul\":5555:5560   */\n      dup2\n        /* \"#utility.yul\":5537:5561   */\n      tag_190\n      jump\t// in\n    tag_286:\n        /* \"#utility.yul\":5532:5535   */\n      dup3\n        /* \"#utility.yul\":5525:5562   */\n      mstore\n        /* \"#utility.yul\":5450:5568   */\n      pop\n      pop\n      jump\t// out\n        /* \"#utility.yul\":5574:5692   */\n    tag_199:\n        /* \"#utility.yul\":5661:5685   */\n      tag_288\n        /* \"#utility.yul\":5679:5684   */\n      dup2\n        /* \"#utility.yul\":5661:5685   */\n      tag_193\n      jump\t// in\n    tag_288:\n        /* \"#utility.yul\":5656:5659   */\n      dup3\n        /* \"#utility.yul\":5649:5686   */\n      mstore\n        /* \"#utility.yul\":5574:5692   */\n      pop\n      pop\n      jump\t// out\n        /* \"#utility.yul\":5698:6140   */\n    tag_47:\n        /* \"#utility.yul\":5847:5851   */\n      0x00\n        /* \"#utility.yul\":5885:5887   */\n      0x60\n        /* \"#utility.yul\":5874:5883   */\n      dup3\n        /* \"#utility.yul\":5870:5888   */\n      add\n        /* \"#utility.yul\":5862:5888   */\n      swap1\n      pop\n        /* \"#utility.yul\":5898:5969   */\n      tag_290\n        /* \"#utility.yul\":5966:5967   */\n      0x00\n        /* \"#utility.yul\":5955:5964   */\n      dup4\n        /* \"#utility.yul\":5951:5968   */\n      add\n        /* \"#utility.yul\":5942:5948   */\n      dup7\n        /* \"#utility.yul\":5898:5969   */\n      tag_198\n      jump\t// in\n    tag_290:\n        /* \"#utility.yul\":5979:6051   */\n      tag_291\n        /* \"#utility.yul\":6047:6049   */\n      0x20\n        /* \"#utility.yul\":6036:6045   */\n      dup4\n        /* \"#utility.yul\":6032:6050   */\n      add\n        /* \"#utility.yul\":6023:6029   */\n      dup6\n        /* \"#utility.yul\":5979:6051   */\n      tag_198\n      jump\t// in\n    tag_291:\n        /* \"#utility.yul\":6061:6133   */\n      tag_292\n        /* \"#utility.yul\":6129:6131   */\n      0x40\n        /* \"#utility.yul\":6118:6127   */\n      dup4\n        /* \"#utility.yul\":6114:6132   */\n      add\n        /* \"#utility.yul\":6105:6111   */\n      dup5\n        /* \"#utility.yul\":6061:6133   */\n      tag_199\n      jump\t// in\n    tag_292:\n        /* \"#utility.yul\":5698:6140   */\n      swap5\n      swap4\n      pop\n      pop\n      pop\n      pop\n      jump\t// out\n        /* \"#utility.yul\":6146:6368   */\n    tag_56:\n        /* \"#utility.yul\":6239:6243   */\n      0x00\n        /* \"#utility.yul\":6277:6279   */\n      0x20\n        /* \"#utility.yul\":6266:6275   */\n      dup3\n        /* \"#utility.yul\":6262:6280   */\n      add\n        /* \"#utility.yul\":6254:6280   */\n      swap1\n      pop\n        /* \"#utility.yul\":6290:6361   */\n      tag_294\n        /* \"#utility.yul\":6358:6359   */\n      0x00\n        /* \"#utility.yul\":6347:6356   */\n      dup4\n        /* \"#utility.yul\":6343:6360   */\n      add\n        /* \"#utility.yul\":6334:6340   */\n      dup5\n        /* \"#utility.yul\":6290:6361   */\n      tag_198\n      jump\t// in\n    tag_294:\n        /* \"#utility.yul\":6146:6368   */\n      swap3\n      swap2\n      pop\n      pop\n      jump\t// out\n        /* \"#utility.yul\":6374:6706   */\n    tag_62:\n        /* \"#utility.yul\":6495:6499   */\n      0x00\n        /* \"#utility.yul\":6533:6535   */\n      0x40\n        /* \"#utility.yul\":6522:6531   */\n      dup3\n        /* \"#utility.yul\":6518:6536   */\n      add\n        /* \"#utility.yul\":6510:6536   */\n      swap1\n      pop\n        /* \"#utility.yul\":6546:6617   */\n      tag_296\n        /* \"#utility.yul\":6614:6615   */\n      0x00\n        /* \"#utility.yul\":6603:6612   */\n      dup4\n        /* \"#utility.yul\":6599:6616   */\n      add\n        /* \"#utility.yul\":6590:6596   */\n      dup6\n        /* \"#utility.yul\":6546:6617   */\n      tag_198\n      jump\t// in\n    tag_296:\n        /* \"#utility.yul\":6627:6699   */\n      tag_297\n        /* \"#utility.yul\":6695:6697   */\n      0x20\n        /* \"#utility.yul\":6684:6693   */\n      dup4\n        /* \"#utility.yul\":6680:6698   */\n      add\n        /* \"#utility.yul\":6671:6677   */\n      dup5\n        /* \"#utility.yul\":6627:6699   */\n      tag_199\n      jump\t// in\n    tag_297:\n        /* \"#utility.yul\":6374:6706   */\n      swap4\n      swap3\n      pop\n      pop\n      pop\n      jump\t// out\n        /* \"#utility.yul\":6712:7041   */\n    tag_66:\n        /* \"#utility.yul\":6771:6777   */\n      0x00\n        /* \"#utility.yul\":6820:6822   */\n      0x20\n        /* \"#utility.yul\":6808:6817   */\n      dup3\n        /* \"#utility.yul\":6799:6806   */\n      dup5\n        /* \"#utility.yul\":6795:6818   */\n      sub\n        /* \"#utility.yul\":6791:6823   */\n      slt\n        /* \"#utility.yul\":6788:6907   */\n      iszero\n      tag_299\n      jumpi\n        /* \"#utility.yul\":6826:6905   */\n      tag_300\n      tag_182\n      jump\t// in\n    tag_300:\n        /* \"#utility.yul\":6788:6907   */\n    tag_299:\n        /* \"#utility.yul\":6946:6947   */\n      0x00\n        /* \"#utility.yul\":6971:7024   */\n      tag_301\n        /* \"#utility.yul\":7016:7023   */\n      dup5\n        /* \"#utility.yul\":7007:7013   */\n      dup3\n        /* \"#utility.yul\":6996:7005   */\n      dup6\n        /* \"#utility.yul\":6992:7014   */\n      add\n        /* \"#utility.yul\":6971:7024   */\n      tag_195\n      jump\t// in\n    tag_301:\n        /* \"#utility.yul\":6961:7024   */\n      swap2\n      pop\n        /* \"#utility.yul\":6917:7034   */\n      pop\n        /* \"#utility.yul\":6712:7041   */\n      swap3\n      swap2\n      pop\n      pop\n      jump\t// out\n        /* \"#utility.yul\":7047:7269   */\n    tag_73:\n        /* \"#utility.yul\":7140:7144   */\n      0x00\n        /* \"#utility.yul\":7178:7180   */\n      0x20\n        /* \"#utility.yul\":7167:7176   */\n      dup3\n        /* \"#utility.yul\":7163:7181   */\n      add\n        /* \"#utility.yul\":7155:7181   */\n      swap1\n      pop\n        /* \"#utility.yul\":7191:7262   */\n      tag_303\n        /* \"#utility.yul\":7259:7260   */\n      0x00\n        /* \"#utility.yul\":7248:7257   */\n      dup4\n        /* \"#utility.yul\":7244:7261   */\n      add\n        /* \"#utility.yul\":7235:7241   */\n      dup5\n        /* \"#utility.yul\":7191:7262   */\n      tag_199\n      jump\t// in\n    tag_303:\n        /* \"#utility.yul\":7047:7269   */\n      swap3\n      swap2\n      pop\n      pop\n      jump\t// out\n        /* \"#utility.yul\":7275:7749   */\n    tag_77:\n        /* \"#utility.yul\":7343:7349   */\n      0x00\n        /* \"#utility.yul\":7351:7357   */\n      0x00\n        /* \"#utility.yul\":7400:7402   */\n      0x40\n        /* \"#utility.yul\":7388:7397   */\n      dup4\n        /* \"#utility.yul\":7379:7386   */\n      dup6\n        /* \"#utility.yul\":7375:7398   */\n      sub\n        /* \"#utility.yul\":7371:7403   */\n      slt\n        /* \"#utility.yul\":7368:7487   */\n      iszero\n      tag_305\n      jumpi\n        /* \"#utility.yul\":7406:7485   */\n      tag_306\n      tag_182\n      jump\t// in\n    tag_306:\n        /* \"#utility.yul\":7368:7487   */\n    tag_305:\n        /* \"#utility.yul\":7526:7527   */\n      0x00\n        /* \"#utility.yul\":7551:7604   */\n      tag_307\n        /* \"#utility.yul\":7596:7603   */\n      dup6\n        /* \"#utility.yul\":7587:7593   */\n      dup3\n        /* \"#utility.yul\":7576:7585   */\n      dup7\n        /* \"#utility.yul\":7572:7594   */\n      add\n        /* \"#utility.yul\":7551:7604   */\n      tag_195\n      jump\t// in\n    tag_307:\n        /* \"#utility.yul\":7541:7604   */\n      swap3\n      pop\n        /* \"#utility.yul\":7497:7614   */\n      pop\n        /* \"#utility.yul\":7653:7655   */\n      0x20\n        /* \"#utility.yul\":7679:7732   */\n      tag_308\n        /* \"#utility.yul\":7724:7731   */\n      dup6\n        /* \"#utility.yul\":7715:7721   */\n      dup3\n        /* \"#utility.yul\":7704:7713   */\n      dup7\n        /* \"#utility.yul\":7700:7722   */\n      add\n        /* \"#utility.yul\":7679:7732   */\n      tag_195\n      jump\t// in\n    tag_308:\n        /* \"#utility.yul\":7669:7732   */\n      swap2\n      pop\n        /* \"#utility.yul\":7624:7742   */\n      pop\n        /* \"#utility.yul\":7275:7749   */\n      swap3\n      pop\n      swap3\n      swap1\n      pop\n      jump\t// out\n        /* \"#utility.yul\":7755:7896   */\n    tag_200:\n        /* \"#utility.yul\":7849:7855   */\n      0x00\n        /* \"#utility.yul\":7883:7888   */\n      dup2\n        /* \"#utility.yul\":7877:7889   */\n      mload\n        /* \"#utility.yul\":7867:7889   */\n      swap1\n      pop\n        /* \"#utility.yul\":7755:7896   */\n      swap2\n      swap1\n      pop\n      jump\t// out\n        /* \"#utility.yul\":7902:8113   */\n    tag_201:\n        /* \"#utility.yul\":8028:8039   */\n      0x00\n        /* \"#utility.yul\":8062:8068   */\n      dup3\n        /* \"#utility.yul\":8057:8060   */\n      dup3\n        /* \"#utility.yul\":8050:8069   */\n      mstore\n        /* \"#utility.yul\":8102:8106   */\n      0x20\n        /* \"#utility.yul\":8097:8100   */\n      dup3\n        /* \"#utility.yul\":8093:8107   */\n      add\n        /* \"#utility.yul\":8078:8107   */\n      swap1\n      pop\n        /* \"#utility.yul\":7902:8113   */\n      swap3\n      swap2\n      pop\n      pop\n      jump\t// out\n        /* \"#utility.yul\":8119:8278   */\n    tag_202:\n        /* \"#utility.yul\":8213:8217   */\n      0x00\n        /* \"#utility.yul\":8236:8239   */\n      dup2\n        /* \"#utility.yul\":8228:8239   */\n      swap1\n      pop\n        /* \"#utility.yul\":8266:8270   */\n      0x20\n        /* \"#utility.yul\":8261:8264   */\n      dup3\n        /* \"#utility.yul\":8257:8271   */\n      add\n        /* \"#utility.yul\":8249:8271   */\n      swap1\n      pop\n        /* \"#utility.yul\":8119:8278   */\n      swap2\n      swap1\n      pop\n      jump\t// out\n        /* \"#utility.yul\":8284:8392   */\n    tag_203:\n        /* \"#utility.yul\":8361:8385   */\n      tag_313\n        /* \"#utility.yul\":8379:8384   */\n      dup2\n        /* \"#utility.yul\":8361:8385   */\n      tag_190\n      jump\t// in\n    tag_313:\n        /* \"#utility.yul\":8356:8359   */\n      dup3\n        /* \"#utility.yul\":8349:8386   */\n      mstore\n        /* \"#utility.yul\":8284:8392   */\n      pop\n      pop\n      jump\t// out\n        /* \"#utility.yul\":8398:8506   */\n    tag_204:\n        /* \"#utility.yul\":8475:8499   */\n      tag_315\n        /* \"#utility.yul\":8493:8498   */\n      dup2\n        /* \"#utility.yul\":8475:8499   */\n      tag_193\n      jump\t// in\n    tag_315:\n        /* \"#utility.yul\":8470:8473   */\n      dup3\n        /* \"#utility.yul\":8463:8500   */\n      mstore\n        /* \"#utility.yul\":8398:8506   */\n      pop\n      pop\n      jump\t// out\n        /* \"#utility.yul\":8592:9282   */\n    tag_205:\n        /* \"#utility.yul\":8733:8737   */\n      0x60\n        /* \"#utility.yul\":8728:8731   */\n      dup3\n        /* \"#utility.yul\":8724:8738   */\n      add\n        /* \"#utility.yul\":8825:8829   */\n      0x00\n        /* \"#utility.yul\":8818:8823   */\n      dup3\n        /* \"#utility.yul\":8814:8830   */\n      add\n        /* \"#utility.yul\":8808:8831   */\n      mload\n        /* \"#utility.yul\":8844:8907   */\n      tag_317\n        /* \"#utility.yul\":8901:8905   */\n      0x00\n        /* \"#utility.yul\":8896:8899   */\n      dup6\n        /* \"#utility.yul\":8892:8906   */\n      add\n        /* \"#utility.yul\":8878:8890   */\n      dup3\n        /* \"#utility.yul\":8844:8907   */\n      tag_203\n      jump\t// in\n    tag_317:\n        /* \"#utility.yul\":8748:8917   */\n      pop\n        /* \"#utility.yul\":9006:9010   */\n      0x20\n        /* \"#utility.yul\":8999:9004   */\n      dup3\n        /* \"#utility.yul\":8995:9011   */\n      add\n        /* \"#utility.yul\":8989:9012   */\n      mload\n        /* \"#utility.yul\":9025:9088   */\n      tag_318\n        /* \"#utility.yul\":9082:9086   */\n      0x20\n        /* \"#utility.yul\":9077:9080   */\n      dup6\n        /* \"#utility.yul\":9073:9087   */\n      add\n        /* \"#utility.yul\":9059:9071   */\n      dup3\n        /* \"#utility.yul\":9025:9088   */\n      tag_203\n      jump\t// in\n    tag_318:\n        /* \"#utility.yul\":8927:9098   */\n      pop\n        /* \"#utility.yul\":9183:9187   */\n      0x40\n        /* \"#utility.yul\":9176:9181   */\n      dup3\n        /* \"#utility.yul\":9172:9188   */\n      add\n        /* \"#utility.yul\":9166:9189   */\n      mload\n        /* \"#utility.yul\":9202:9265   */\n      tag_319\n        /* \"#utility.yul\":9259:9263   */\n      0x40\n        /* \"#utility.yul\":9254:9257   */\n      dup6\n        /* \"#utility.yul\":9250:9264   */\n      add\n        /* \"#utility.yul\":9236:9248   */\n      dup3\n        /* \"#utility.yul\":9202:9265   */\n      tag_204\n      jump\t// in\n    tag_319:\n        /* \"#utility.yul\":9108:9275   */\n      pop\n        /* \"#utility.yul\":8702:9282   */\n      pop\n        /* \"#utility.yul\":8592:9282   */\n      pop\n      pop\n      jump\t// out\n        /* \"#utility.yul\":9288:9575   */\n    tag_206:\n        /* \"#utility.yul\":9411:9421   */\n      0x00\n        /* \"#utility.yul\":9432:9532   */\n      tag_321\n        /* \"#utility.yul\":9528:9531   */\n      dup4\n        /* \"#utility.yul\":9520:9526   */\n      dup4\n        /* \"#utility.yul\":9432:9532   */\n      tag_205\n      jump\t// in\n    tag_321:\n        /* \"#utility.yul\":9564:9568   */\n      0x60\n        /* \"#utility.yul\":9559:9562   */\n      dup4\n        /* \"#utility.yul\":9555:9569   */\n      add\n        /* \"#utility.yul\":9541:9569   */\n      swap1\n      pop\n        /* \"#utility.yul\":9288:9575   */\n      swap3\n      swap2\n      pop\n      pop\n      jump\t// out\n        /* \"#utility.yul\":9581:9721   */\n    tag_207:\n        /* \"#utility.yul\":9678:9682   */\n      0x00\n        /* \"#utility.yul\":9710:9714   */\n      0x20\n        /* \"#utility.yul\":9705:9708   */\n      dup3\n        /* \"#utility.yul\":9701:9715   */\n      add\n        /* \"#utility.yul\":9693:9715   */\n      swap1\n      pop\n        /* \"#utility.yul\":9581:9721   */\n      swap2\n      swap1\n      pop\n      jump\t// out\n        /* \"#utility.yul\":9811:10759   */\n    tag_208:\n        /* \"#utility.yul\":9984:9987   */\n      0x00\n        /* \"#utility.yul\":10013:10094   */\n      tag_324\n        /* \"#utility.yul\":10088:10093   */\n      dup3\n        /* \"#utility.yul\":10013:10094   */\n      tag_200\n      jump\t// in\n    tag_324:\n        /* \"#utility.yul\":10110:10223   */\n      tag_325\n        /* \"#utility.yul\":10216:10222   */\n      dup2\n        /* \"#utility.yul\":10211:10214   */\n      dup6\n        /* \"#utility.yul\":10110:10223   */\n      tag_201\n      jump\t// in\n    tag_325:\n        /* \"#utility.yul\":10103:10223   */\n      swap4\n      pop\n        /* \"#utility.yul\":10247:10330   */\n      tag_326\n        /* \"#utility.yul\":10324:10329   */\n      dup4\n        /* \"#utility.yul\":10247:10330   */\n      tag_202\n      jump\t// in\n    tag_326:\n        /* \"#utility.yul\":10353:10360   */\n      dup1\n        /* \"#utility.yul\":10384:10385   */\n      0x00\n        /* \"#utility.yul\":10369:10734   */\n    tag_327:\n        /* \"#utility.yul\":10394:10400   */\n      dup4\n        /* \"#utility.yul\":10391:10392   */\n      dup2\n        /* \"#utility.yul\":10388:10401   */\n      lt\n        /* \"#utility.yul\":10369:10734   */\n      iszero\n      tag_329\n      jumpi\n        /* \"#utility.yul\":10470:10476   */\n      dup2\n        /* \"#utility.yul\":10464:10477   */\n      mload\n        /* \"#utility.yul\":10497:10614   */\n      tag_330\n        /* \"#utility.yul\":10610:10613   */\n      dup9\n        /* \"#utility.yul\":10595:10608   */\n      dup3\n        /* \"#utility.yul\":10497:10614   */\n      tag_206\n      jump\t// in\n    tag_330:\n        /* \"#utility.yul\":10490:10614   */\n      swap8\n      pop\n        /* \"#utility.yul\":10637:10724   */\n      tag_331\n        /* \"#utility.yul\":10717:10723   */\n      dup4\n        /* \"#utility.yul\":10637:10724   */\n      tag_207\n      jump\t// in\n    tag_331:\n        /* \"#utility.yul\":10627:10724   */\n      swap3\n      pop\n        /* \"#utility.yul\":10429:10734   */\n      pop\n        /* \"#utility.yul\":10416:10417   */\n      0x01\n        /* \"#utility.yul\":10413:10414   */\n      dup2\n        /* \"#utility.yul\":10409:10418   */\n      add\n        /* \"#utility.yul\":10404:10418   */\n      swap1\n      pop\n        /* \"#utility.yul\":10369:10734   */\n      jump(tag_327)\n    tag_329:\n        /* \"#utility.yul\":10373:10387   */\n      pop\n        /* \"#utility.yul\":10750:10753   */\n      dup6\n        /* \"#utility.yul\":10743:10753   */\n      swap4\n      pop\n        /* \"#utility.yul\":9989:10759   */\n      pop\n      pop\n      pop\n        /* \"#utility.yul\":9811:10759   */\n      swap3\n      swap2\n      pop\n      pop\n      jump\t// out\n        /* \"#utility.yul\":10765:11246   */\n    tag_80:\n        /* \"#utility.yul\":10962:10966   */\n      0x00\n        /* \"#utility.yul\":11000:11002   */\n      0x20\n        /* \"#utility.yul\":10989:10998   */\n      dup3\n        /* \"#utility.yul\":10985:11003   */\n      add\n        /* \"#utility.yul\":10977:11003   */\n      swap1\n      pop\n        /* \"#utility.yul\":11049:11058   */\n      dup2\n        /* \"#utility.yul\":11043:11047   */\n      dup2\n        /* \"#utility.yul\":11039:11059   */\n      sub\n        /* \"#utility.yul\":11035:11036   */\n      0x00\n        /* \"#utility.yul\":11024:11033   */\n      dup4\n        /* \"#utility.yul\":11020:11037   */\n      add\n        /* \"#utility.yul\":11013:11060   */\n      mstore\n        /* \"#utility.yul\":11077:11239   */\n      tag_333\n        /* \"#utility.yul\":11234:11238   */\n      dup2\n        /* \"#utility.yul\":11225:11231   */\n      dup5\n        /* \"#utility.yul\":11077:11239   */\n      tag_208\n      jump\t// in\n    tag_333:\n        /* \"#utility.yul\":11069:11239   */\n      swap1\n      pop\n        /* \"#utility.yul\":10765:11246   */\n      swap3\n      swap2\n      pop\n      pop\n      jump\t// out\n        /* \"#utility.yul\":11252:11421   */\n    tag_209:\n        /* \"#utility.yul\":11336:11347   */\n      0x00\n        /* \"#utility.yul\":11370:11376   */\n      dup3\n        /* \"#utility.yul\":11365:11368   */\n      dup3\n        /* \"#utility.yul\":11358:11377   */\n      mstore\n        /* \"#utility.yul\":11410:11414   */\n      0x20\n        /* \"#utility.yul\":11405:11408   */\n      dup3\n        /* \"#utility.yul\":11401:11415   */\n      add\n        /* \"#utility.yul\":11386:11415   */\n      swap1\n      pop\n        /* \"#utility.yul\":11252:11421   */\n      swap3\n      swap2\n      pop\n      pop\n      jump\t// out\n        /* \"#utility.yul\":11427:11591   */\n    tag_210:\n        /* \"#utility.yul\":11567:11583   */\n      0x4e6f7420617574686f72697a6564000000000000000000000000000000000000\n        /* \"#utility.yul\":11563:11564   */\n      0x00\n        /* \"#utility.yul\":11555:11561   */\n      dup3\n        /* \"#utility.yul\":11551:11565   */\n      add\n        /* \"#utility.yul\":11544:11584   */\n      mstore\n        /* \"#utility.yul\":11427:11591   */\n      pop\n      jump\t// out\n        /* \"#utility.yul\":11597:11963   */\n    tag_211:\n        /* \"#utility.yul\":11739:11742   */\n      0x00\n        /* \"#utility.yul\":11760:11827   */\n      tag_337\n        /* \"#utility.yul\":11824:11826   */\n      0x0e\n        /* \"#utility.yul\":11819:11822   */\n      dup4\n        /* \"#utility.yul\":11760:11827   */\n      tag_209\n      jump\t// in\n    tag_337:\n        /* \"#utility.yul\":11753:11827   */\n      swap2\n      pop\n        /* \"#utility.yul\":11836:11929   */\n      tag_338\n        /* \"#utility.yul\":11925:11928   */\n      dup3\n        /* \"#utility.yul\":11836:11929   */\n      tag_210\n      jump\t// in\n    tag_338:\n        /* \"#utility.yul\":11954:11956   */\n      0x20\n        /* \"#utility.yul\":11949:11952   */\n      dup3\n        /* \"#utility.yul\":11945:11957   */\n      add\n        /* \"#utility.yul\":11938:11957   */\n      swap1\n      pop\n        /* \"#utility.yul\":11597:11963   */\n      swap2\n      swap1\n      pop\n      jump\t// out\n        /* \"#utility.yul\":11969:12388   */\n    tag_84:\n        /* \"#utility.yul\":12135:12139   */\n      0x00\n        /* \"#utility.yul\":12173:12175   */\n      0x20\n        /* \"#utility.yul\":12162:12171   */\n      dup3\n        /* \"#utility.yul\":12158:12176   */\n      add\n        /* \"#utility.yul\":12150:12176   */\n      swap1\n      pop\n        /* \"#utility.yul\":12222:12231   */\n      dup2\n        /* \"#utility.yul\":12216:12220   */\n      dup2\n        /* \"#utility.yul\":12212:12232   */\n      sub\n        /* \"#utility.yul\":12208:12209   */\n      0x00\n        /* \"#utility.yul\":12197:12206   */\n      dup4\n        /* \"#utility.yul\":12193:12210   */\n      add\n        /* \"#utility.yul\":12186:12233   */\n      mstore\n        /* \"#utility.yul\":12250:12381   */\n      tag_340\n        /* \"#utility.yul\":12376:12380   */\n      dup2\n        /* \"#utility.yul\":12250:12381   */\n      tag_211\n      jump\t// in\n    tag_340:\n        /* \"#utility.yul\":12242:12381   */\n      swap1\n      pop\n        /* \"#utility.yul\":11969:12388   */\n      swap2\n      swap1\n      pop\n      jump\t// out\n        /* \"#utility.yul\":12394:12566   */\n    tag_212:\n        /* \"#utility.yul\":12534:12558   */\n      0x4172726179206c656e67746873206d69736d6174636800000000000000000000\n        /* \"#utility.yul\":12530:12531   */\n      0x00\n        /* \"#utility.yul\":12522:12528   */\n      dup3\n        /* \"#utility.yul\":12518:12532   */\n      add\n        /* \"#utility.yul\":12511:12559   */\n      mstore\n        /* \"#utility.yul\":12394:12566   */\n      pop\n      jump\t// out\n        /* \"#utility.yul\":12572:12938   */\n    tag_213:\n        /* \"#utility.yul\":12714:12717   */\n      0x00\n        /* \"#utility.yul\":12735:12802   */\n      tag_343\n        /* \"#utility.yul\":12799:12801   */\n      0x16\n        /* \"#utility.yul\":12794:12797   */\n      dup4\n        /* \"#utility.yul\":12735:12802   */\n      tag_209\n      jump\t// in\n    tag_343:\n        /* \"#utility.yul\":12728:12802   */\n      swap2\n      pop\n        /* \"#utility.yul\":12811:12904   */\n      tag_344\n        /* \"#utility.yul\":12900:12903   */\n      dup3\n        /* \"#utility.yul\":12811:12904   */\n      tag_212\n      jump\t// in\n    tag_344:\n        /* \"#utility.yul\":12929:12931   */\n      0x20\n        /* \"#utility.yul\":12924:12927   */\n      dup3\n        /* \"#utility.yul\":12920:12932   */\n      add\n        /* \"#utility.yul\":12913:12932   */\n      swap1\n      pop\n        /* \"#utility.yul\":12572:12938   */\n      swap2\n      swap1\n      pop\n      jump\t// out\n        /* \"#utility.yul\":12944:13363   */\n    tag_89:\n        /* \"#utility.yul\":13110:13114   */\n      0x00\n        /* \"#utility.yul\":13148:13150   */\n      0x20\n        /* \"#utility.yul\":13137:13146   */\n      dup3\n        /* \"#utility.yul\":13133:13151   */\n      add\n        /* \"#utility.yul\":13125:13151   */\n      swap1\n      pop\n        /* \"#utility.yul\":13197:13206   */\n      dup2\n        /* \"#utility.yul\":13191:13195   */\n      dup2\n        /* \"#utility.yul\":13187:13207   */\n      sub\n        /* \"#utility.yul\":13183:13184   */\n      0x00\n        /* \"#utility.yul\":13172:13181   */\n      dup4\n        /* \"#utility.yul\":13168:13185   */\n      add\n        /* \"#utility.yul\":13161:13208   */\n      mstore\n        /* \"#utility.yul\":13225:13356   */\n      tag_346\n        /* \"#utility.yul\":13351:13355   */\n      dup2\n        /* \"#utility.yul\":13225:13356   */\n      tag_213\n      jump\t// in\n    tag_346:\n        /* \"#utility.yul\":13217:13356   */\n      swap1\n      pop\n        /* \"#utility.yul\":12944:13363   */\n      swap2\n      swap1\n      pop\n      jump\t// out\n        /* \"#utility.yul\":13369:13549   */\n    tag_95:\n        /* \"#utility.yul\":13417:13494   */\n      0x4e487b7100000000000000000000000000000000000000000000000000000000\n        /* \"#utility.yul\":13414:13415   */\n      0x00\n        /* \"#utility.yul\":13407:13495   */\n      mstore\n        /* \"#utility.yul\":13514:13518   */\n      0x32\n        /* \"#utility.yul\":13511:13512   */\n      0x04\n        /* \"#utility.yul\":13504:13519   */\n      mstore\n        /* \"#utility.yul\":13538:13542   */\n      0x24\n        /* \"#utility.yul\":13535:13536   */\n      0x00\n        /* \"#utility.yul\":13528:13543   */\n      revert\n        /* \"#utility.yul\":13555:13733   */\n    tag_214:\n        /* \"#utility.yul\":13695:13725   */\n      0x496e76616c6964204e465420636f6e7472616374206164647265737300000000\n        /* \"#utility.yul\":13691:13692   */\n      0x00\n        /* \"#utility.yul\":13683:13689   */\n      dup3\n        /* \"#utility.yul\":13679:13693   */\n      add\n        /* \"#utility.yul\":13672:13726   */\n      mstore\n        /* \"#utility.yul\":13555:13733   */\n      pop\n      jump\t// out\n        /* \"#utility.yul\":13739:14105   */\n    tag_215:\n        /* \"#utility.yul\":13881:13884   */\n      0x00\n        /* \"#utility.yul\":13902:13969   */\n      tag_350\n        /* \"#utility.yul\":13966:13968   */\n      0x1c\n        /* \"#utility.yul\":13961:13964   */\n      dup4\n        /* \"#utility.yul\":13902:13969   */\n      tag_209\n      jump\t// in\n    tag_350:\n        /* \"#utility.yul\":13895:13969   */\n      swap2\n      pop\n        /* \"#utility.yul\":13978:14071   */\n      tag_351\n        /* \"#utility.yul\":14067:14070   */\n      dup3\n        /* \"#utility.yul\":13978:14071   */\n      tag_214\n      jump\t// in\n    tag_351:\n        /* \"#utility.yul\":14096:14098   */\n      0x20\n        /* \"#utility.yul\":14091:14094   */\n      dup3\n        /* \"#utility.yul\":14087:14099   */\n      add\n        /* \"#utility.yul\":14080:14099   */\n      swap1\n      pop\n        /* \"#utility.yul\":13739:14105   */\n      swap2\n      swap1\n      pop\n      jump\t// out\n        /* \"#utility.yul\":14111:14530   */\n    tag_125:\n        /* \"#utility.yul\":14277:14281   */\n      0x00\n        /* \"#utility.yul\":14315:14317   */\n      0x20\n        /* \"#utility.yul\":14304:14313   */\n      dup3\n        /* \"#utility.yul\":14300:14318   */\n      add\n        /* \"#utility.yul\":14292:14318   */\n      swap1\n      pop\n        /* \"#utility.yul\":14364:14373   */\n      dup2\n        /* \"#utility.yul\":14358:14362   */\n      dup2\n        /* \"#utility.yul\":14354:14374   */\n      sub\n        /* \"#utility.yul\":14350:14351   */\n      0x00\n        /* \"#utility.yul\":14339:14348   */\n      dup4\n        /* \"#utility.yul\":14335:14352   */\n      add\n        /* \"#utility.yul\":14328:14375   */\n      mstore\n        /* \"#utility.yul\":14392:14523   */\n      tag_353\n        /* \"#utility.yul\":14518:14522   */\n      dup2\n        /* \"#utility.yul\":14392:14523   */\n      tag_215\n      jump\t// in\n    tag_353:\n        /* \"#utility.yul\":14384:14523   */\n      swap1\n      pop\n        /* \"#utility.yul\":14111:14530   */\n      swap2\n      swap1\n      pop\n      jump\t// out\n        /* \"#utility.yul\":14536:14703   */\n    tag_216:\n        /* \"#utility.yul\":14676:14695   */\n      0x496e76616c696420726563697069656e74000000000000000000000000000000\n        /* \"#utility.yul\":14672:14673   */\n      0x00\n        /* \"#utility.yul\":14664:14670   */\n      dup3\n        /* \"#utility.yul\":14660:14674   */\n      add\n        /* \"#utility.yul\":14653:14696   */\n      mstore\n        /* \"#utility.yul\":14536:14703   */\n      pop\n      jump\t// out\n        /* \"#utility.yul\":14709:15075   */\n    tag_217:\n        /* \"#utility.yul\":14851:14854   */\n      0x00\n        /* \"#utility.yul\":14872:14939   */\n      tag_356\n        /* \"#utility.yul\":14936:14938   */\n      0x11\n        /* \"#utility.yul\":14931:14934   */\n      dup4\n        /* \"#utility.yul\":14872:14939   */\n      tag_209\n      jump\t// in\n    tag_356:\n        /* \"#utility.yul\":14865:14939   */\n      swap2\n      pop\n        /* \"#utility.yul\":14948:15041   */\n      tag_357\n        /* \"#utility.yul\":15037:15040   */\n      dup3\n        /* \"#utility.yul\":14948:15041   */\n      tag_216\n      jump\t// in\n    tag_357:\n        /* \"#utility.yul\":15066:15068   */\n      0x20\n        /* \"#utility.yul\":15061:15064   */\n      dup3\n        /* \"#utility.yul\":15057:15069   */\n      add\n        /* \"#utility.yul\":15050:15069   */\n      swap1\n      pop\n        /* \"#utility.yul\":14709:15075   */\n      swap2\n      swap1\n      pop\n      jump\t// out\n        /* \"#utility.yul\":15081:15500   */\n    tag_128:\n        /* \"#utility.yul\":15247:15251   */\n      0x00\n        /* \"#utility.yul\":15285:15287   */\n      0x20\n        /* \"#utility.yul\":15274:15283   */\n      dup3\n        /* \"#utility.yul\":15270:15288   */\n      add\n        /* \"#utility.yul\":15262:15288   */\n      swap1\n      pop\n        /* \"#utility.yul\":15334:15343   */\n      dup2\n        /* \"#utility.yul\":15328:15332   */\n      dup2\n        /* \"#utility.yul\":15324:15344   */\n      sub\n        /* \"#utility.yul\":15320:15321   */\n      0x00\n        /* \"#utility.yul\":15309:15318   */\n      dup4\n        /* \"#utility.yul\":15305:15322   */\n      add\n        /* \"#utility.yul\":15298:15345   */\n      mstore\n        /* \"#utility.yul\":15362:15493   */\n      tag_359\n        /* \"#utility.yul\":15488:15492   */\n      dup2\n        /* \"#utility.yul\":15362:15493   */\n      tag_217\n      jump\t// in\n    tag_359:\n        /* \"#utility.yul\":15354:15493   */\n      swap1\n      pop\n        /* \"#utility.yul\":15081:15500   */\n      swap2\n      swap1\n      pop\n      jump\t// out\n        /* \"#utility.yul\":15506:15674   */\n    tag_218:\n        /* \"#utility.yul\":15646:15666   */\n      0x416c72656164792061697264726f707065640000000000000000000000000000\n        /* \"#utility.yul\":15642:15643   */\n      0x00\n        /* \"#utility.yul\":15634:15640   */\n      dup3\n        /* \"#utility.yul\":15630:15644   */\n      add\n        /* \"#utility.yul\":15623:15667   */\n      mstore\n        /* \"#utility.yul\":15506:15674   */\n      pop\n      jump\t// out\n        /* \"#utility.yul\":15680:16046   */\n    tag_219:\n        /* \"#utility.yul\":15822:15825   */\n      0x00\n        /* \"#utility.yul\":15843:15910   */\n      tag_362\n        /* \"#utility.yul\":15907:15909   */\n      0x12\n        /* \"#utility.yul\":15902:15905   */\n      dup4\n        /* \"#utility.yul\":15843:15910   */\n      tag_209\n      jump\t// in\n    tag_362:\n        /* \"#utility.yul\":15836:15910   */\n      swap2\n      pop\n        /* \"#utility.yul\":15919:16012   */\n      tag_363\n        /* \"#utility.yul\":16008:16011   */\n      dup3\n        /* \"#utility.yul\":15919:16012   */\n      tag_218\n      jump\t// in\n    tag_363:\n        /* \"#utility.yul\":16037:16039   */\n      0x20\n        /* \"#utility.yul\":16032:16035   */\n      dup3\n        /* \"#utility.yul\":16028:16040   */\n      add\n        /* \"#utility.yul\":16021:16040   */\n      swap1\n      pop\n        /* \"#utility.yul\":15680:16046   */\n      swap2\n      swap1\n      pop\n      jump\t// out\n        /* \"#utility.yul\":16052:16471   */\n    tag_131:\n        /* \"#utility.yul\":16218:16222   */\n      0x00\n        /* \"#utility.yul\":16256:16258   */\n      0x20\n        /* \"#utility.yul\":16245:16254   */\n      dup3\n        /* \"#utility.yul\":16241:16259   */\n      add\n        /* \"#utility.yul\":16233:16259   */\n      swap1\n      pop\n        /* \"#utility.yul\":16305:16314   */\n      dup2\n        /* \"#utility.yul\":16299:16303   */\n      dup2\n        /* \"#utility.yul\":16295:16315   */\n      sub\n        /* \"#utility.yul\":16291:16292   */\n      0x00\n        /* \"#utility.yul\":16280:16289   */\n      dup4\n        /* \"#utility.yul\":16276:16293   */\n      add\n        /* \"#utility.yul\":16269:16316   */\n      mstore\n        /* \"#utility.yul\":16333:16464   */\n      tag_365\n        /* \"#utility.yul\":16459:16463   */\n      dup2\n        /* \"#utility.yul\":16333:16464   */\n      tag_219\n      jump\t// in\n    tag_365:\n        /* \"#utility.yul\":16325:16464   */\n      swap1\n      pop\n        /* \"#utility.yul\":16052:16471   */\n      swap2\n      swap1\n      pop\n      jump\t// out\n        /* \"#utility.yul\":16477:16639   */\n    tag_220:\n        /* \"#utility.yul\":16617:16631   */\n      0x5a65726f20616464726573730000000000000000000000000000000000000000\n        /* \"#utility.yul\":16613:16614   */\n      0x00\n        /* \"#utility.yul\":16605:16611   */\n      dup3\n        /* \"#utility.yul\":16601:16615   */\n      add\n        /* \"#utility.yul\":16594:16632   */\n      mstore\n        /* \"#utility.yul\":16477:16639   */\n      pop\n      jump\t// out\n        /* \"#utility.yul\":16645:17011   */\n    tag_221:\n        /* \"#utility.yul\":16787:16790   */\n      0x00\n        /* \"#utility.yul\":16808:16875   */\n      tag_368\n        /* \"#utility.yul\":16872:16874   */\n      0x0c\n        /* \"#utility.yul\":16867:16870   */\n      dup4\n        /* \"#utility.yul\":16808:16875   */\n      tag_209\n      jump\t// in\n    tag_368:\n        /* \"#utility.yul\":16801:16875   */\n      swap2\n      pop\n        /* \"#utility.yul\":16884:16977   */\n      tag_369\n        /* \"#utility.yul\":16973:16976   */\n      dup3\n        /* \"#utility.yul\":16884:16977   */\n      tag_220\n      jump\t// in\n    tag_369:\n        /* \"#utility.yul\":17002:17004   */\n      0x20\n        /* \"#utility.yul\":16997:17000   */\n      dup3\n        /* \"#utility.yul\":16993:17005   */\n      add\n        /* \"#utility.yul\":16986:17005   */\n      swap1\n      pop\n        /* \"#utility.yul\":16645:17011   */\n      swap2\n      swap1\n      pop\n      jump\t// out\n        /* \"#utility.yul\":17017:17436   */\n    tag_154:\n        /* \"#utility.yul\":17183:17187   */\n      0x00\n        /* \"#utility.yul\":17221:17223   */\n      0x20\n        /* \"#utility.yul\":17210:17219   */\n      dup3\n        /* \"#utility.yul\":17206:17224   */\n      add\n        /* \"#utility.yul\":17198:17224   */\n      swap1\n      pop\n        /* \"#utility.yul\":17270:17279   */\n      dup2\n        /* \"#utility.yul\":17264:17268   */\n      dup2\n        /* \"#utility.yul\":17260:17280   */\n      sub\n        /* \"#utility.yul\":17256:17257   */\n      0x00\n        /* \"#utility.yul\":17245:17254   */\n      dup4\n        /* \"#utility.yul\":17241:17258   */\n      add\n        /* \"#utility.yul\":17234:17281   */\n      mstore\n        /* \"#utility.yul\":17298:17429   */\n      tag_371\n        /* \"#utility.yul\":17424:17428   */\n      dup2\n        /* \"#utility.yul\":17298:17429   */\n      tag_221\n      jump\t// in\n    tag_371:\n        /* \"#utility.yul\":17290:17429   */\n      swap1\n      pop\n        /* \"#utility.yul\":17017:17436   */\n      swap2\n      swap1\n      pop\n      jump\t// out\n        /* \"#utility.yul\":17442:17622   */\n    tag_222:\n        /* \"#utility.yul\":17490:17567   */\n      0x4e487b7100000000000000000000000000000000000000000000000000000000\n        /* \"#utility.yul\":17487:17488   */\n      0x00\n        /* \"#utility.yul\":17480:17568   */\n      mstore\n        /* \"#utility.yul\":17587:17591   */\n      0x11\n        /* \"#utility.yul\":17584:17585   */\n      0x04\n        /* \"#utility.yul\":17577:17592   */\n      mstore\n        /* \"#utility.yul\":17611:17615   */\n      0x24\n        /* \"#utility.yul\":17608:17609   */\n      0x00\n        /* \"#utility.yul\":17601:17616   */\n      revert\n        /* \"#utility.yul\":17628:17819   */\n    tag_161:\n        /* \"#utility.yul\":17668:17671   */\n      0x00\n        /* \"#utility.yul\":17687:17707   */\n      tag_374\n        /* \"#utility.yul\":17705:17706   */\n      dup3\n        /* \"#utility.yul\":17687:17707   */\n      tag_193\n      jump\t// in\n    tag_374:\n        /* \"#utility.yul\":17682:17707   */\n      swap2\n      pop\n        /* \"#utility.yul\":17721:17741   */\n      tag_375\n        /* \"#utility.yul\":17739:17740   */\n      dup4\n        /* \"#utility.yul\":17721:17741   */\n      tag_193\n      jump\t// in\n    tag_375:\n        /* \"#utility.yul\":17716:17741   */\n      swap3\n      pop\n        /* \"#utility.yul\":17764:17765   */\n      dup3\n        /* \"#utility.yul\":17761:17762   */\n      dup3\n        /* \"#utility.yul\":17757:17766   */\n      add\n        /* \"#utility.yul\":17750:17766   */\n      swap1\n      pop\n        /* \"#utility.yul\":17785:17788   */\n      dup1\n        /* \"#utility.yul\":17782:17783   */\n      dup3\n        /* \"#utility.yul\":17779:17789   */\n      gt\n        /* \"#utility.yul\":17776:17812   */\n      iszero\n      tag_376\n      jumpi\n        /* \"#utility.yul\":17792:17810   */\n      tag_377\n      tag_222\n      jump\t// in\n    tag_377:\n        /* \"#utility.yul\":17776:17812   */\n    tag_376:\n        /* \"#utility.yul\":17628:17819   */\n      swap3\n      swap2\n      pop\n      pop\n      jump\t// out\n        /* \"#utility.yul\":17825:18019   */\n    tag_164:\n        /* \"#utility.yul\":17865:17869   */\n      0x00\n        /* \"#utility.yul\":17885:17905   */\n      tag_379\n        /* \"#utility.yul\":17903:17904   */\n      dup3\n        /* \"#utility.yul\":17885:17905   */\n      tag_193\n      jump\t// in\n    tag_379:\n        /* \"#utility.yul\":17880:17905   */\n      swap2\n      pop\n        /* \"#utility.yul\":17919:17939   */\n      tag_380\n        /* \"#utility.yul\":17937:17938   */\n      dup4\n        /* \"#utility.yul\":17919:17939   */\n      tag_193\n      jump\t// in\n    tag_380:\n        /* \"#utility.yul\":17914:17939   */\n      swap3\n      pop\n        /* \"#utility.yul\":17963:17964   */\n      dup3\n        /* \"#utility.yul\":17960:17961   */\n      dup3\n        /* \"#utility.yul\":17956:17965   */\n      sub\n        /* \"#utility.yul\":17948:17965   */\n      swap1\n      pop\n        /* \"#utility.yul\":17987:17988   */\n      dup2\n        /* \"#utility.yul\":17981:17985   */\n      dup2\n        /* \"#utility.yul\":17978:17989   */\n      gt\n        /* \"#utility.yul\":17975:18012   */\n      iszero\n      tag_381\n      jumpi\n        /* \"#utility.yul\":17992:18010   */\n      tag_382\n      tag_222\n      jump\t// in\n    tag_382:\n        /* \"#utility.yul\":17975:18012   */\n    tag_381:\n        /* \"#utility.yul\":17825:18019   */\n      swap3\n      swap2\n      pop\n      pop\n      jump\t// out\n        /* \"#utility.yul\":18025:18205   */\n    tag_167:\n        /* \"#utility.yul\":18073:18150   */\n      0x4e487b7100000000000000000000000000000000000000000000000000000000\n        /* \"#utility.yul\":18070:18071   */\n      0x00\n        /* \"#utility.yul\":18063:18151   */\n      mstore\n        /* \"#utility.yul\":18170:18174   */\n      0x41\n        /* \"#utility.yul\":18167:18168   */\n      0x04\n        /* \"#utility.yul\":18160:18175   */\n      mstore\n        /* \"#utility.yul\":18194:18198   */\n      0x24\n        /* \"#utility.yul\":18191:18192   */\n      0x00\n        /* \"#utility.yul\":18184:18199   */\n      revert\n\n    auxdata: 0xa264697066735822122072c77a4dcb4450d74d71c20e64556743f604d2a8f32ba78b8f0b6b7261291fed64736f6c634300081e0033\n}\n",
				"bytecode": {
					"linkReferences": {},
					"object": "6080604052348015600e575f5ffd5b50335f5f6101000a81548173ffffffffffffffffffffffffffffffffffffffff021916908373ffffffffffffffffffffffffffffffffffffffff160217905550611d7a8061005b5f395ff3fe6080604052600436106100aa575f3560e01c8063880cdc3111610063578063880cdc31146101bd5780638da5cb5b146101e5578063a5cbb9281461020f578063cd56beed1461024c578063ce6785801461028a578063ed7f07ea146102b4576100b1565b8063146df43d146100b55780631822eb70146100dd5780633ccfd60b14610105578063700805e31461011b57806373b2e80e1461014357806378af99311461017f576100b1565b366100b157005b5f5ffd5b3480156100c0575f5ffd5b506100db60048036038101906100d691906115b1565b6102f0565b005b3480156100e8575f5ffd5b5061010360048036038101906100fe91906116ee565b61082c565b005b348015610110575f5ffd5b50610119610d12565b005b348015610126575f5ffd5b50610141600480360381019061013c919061173e565b610e06565b005b34801561014e575f5ffd5b506101696004803603810190610164919061173e565b610f7d565b6040516101769190611783565b60405180910390f35b34801561018a575f5ffd5b506101a560048036038101906101a0919061173e565b610f9a565b6040516101b4939291906117ba565b60405180910390f35b3480156101c8575f5ffd5b506101e360048036038101906101de919061173e565b610ffe565b005b3480156101f0575f5ffd5b506101f961113c565b60405161020691906117ef565b60405180910390f35b34801561021a575f5ffd5b506102356004803603810190610230919061173e565b611160565b604051610243929190611808565b60405180910390f35b348015610257575f5ffd5b50610272600480360381019061026d919061182f565b611274565b604051610281939291906117ba565b60405180910390f35b348015610295575f5ffd5b5061029e6112e7565b6040516102ab919061185a565b60405180910390f35b3480156102bf575f5ffd5b506102da60048036038101906102d59190611873565b6112f3565b6040516102e791906119b7565b60405180910390f35b5f5f9054906101000a900473ffffffffffffffffffffffffffffffffffffffff1673ffffffffffffffffffffffffffffffffffffffff163373ffffffffffffffffffffffffffffffffffffffff161461037e576040517f08c379a000000000000000000000000000000000000000000000000000000000815260040161037590611a31565b60405180910390fd5b838390508686905014801561039857508181905084849050145b6103d7576040517f08c379a00000000000000000000000000000000000000000000000000000000081526004016103ce90611a99565b60405180910390fd5b5f5f90505b84849050811015610823575f8585838181106103fb576103fa611ab7565b5b9050602002016020810190610410919061173e565b905060015f8273ffffffffffffffffffffffffffffffffffffffff1673ffffffffffffffffffffffffffffffffffffffff1681526020019081526020015f205f9054906101000a900460ff16156104675750610816565b6001805f8373ffffffffffffffffffffffffffffffffffffffff1673ffffffffffffffffffffffffffffffffffffffff1681526020019081526020015f205f6101000a81548160ff0219169083151502179055505f60405180606001604052808373ffffffffffffffffffffffffffffffffffffffff1681526020018a8a868181106104f6576104f5611ab7565b5b905060200201602081019061050b919061173e565b73ffffffffffffffffffffffffffffffffffffffff16815260200186868681811061053957610538611ab7565b5b9050602002013581525090508060025f8473ffffffffffffffffffffffffffffffffffffffff1673ffffffffffffffffffffffffffffffffffffffff1681526020019081526020015f205f820151815f015f6101000a81548173ffffffffffffffffffffffffffffffffffffffff021916908373ffffffffffffffffffffffffffffffffffffffff1602179055506020820151816001015f6101000a81548173ffffffffffffffffffffffffffffffffffffffff021916908373ffffffffffffffffffffffffffffffffffffffff16021790555060408201518160020155905050600381908060018154018082558091505060019003905f5260205f2090600302015f909190919091505f820151815f015f6101000a81548173ffffffffffffffffffffffffffffffffffffffff021916908373ffffffffffffffffffffffffffffffffffffffff1602179055506020820151816001015f6101000a81548173ffffffffffffffffffffffffffffffffffffffff021916908373ffffffffffffffffffffffffffffffffffffffff1602179055506040820151816002015550508888848181106106ec576106eb611ab7565b5b9050602002016020810190610701919061173e565b73ffffffffffffffffffffffffffffffffffffffff166342842e0e338488888881811061073157610730611ab7565b5b905060200201356040518463ffffffff1660e01b8152600401610756939291906117ba565b5f604051808303815f87803b15801561076d575f5ffd5b505af115801561077f573d5f5f3e3d5ffd5b5050505088888481811061079657610795611ab7565b5b90506020020160208101906107ab919061173e565b73ffffffffffffffffffffffffffffffffffffffff167f3f3e0cb0c8889648d91931efa9d3f6d0d04adfb07c856e6c4e09334339befe91838787878181106107f6576107f5611ab7565b5b9050602002013560405161080b929190611808565b60405180910390a250505b80806001019150506103dc565b50505050505050565b5f5f9054906101000a900473ffffffffffffffffffffffffffffffffffffffff1673ffffffffffffffffffffffffffffffffffffffff163373ffffffffffffffffffffffffffffffffffffffff16146108ba576040517f08c379a00000000000000000000000000000000000000000000000000000000081526004016108b190611a31565b60405180910390fd5b5f73ffffffffffffffffffffffffffffffffffffffff168373ffffffffffffffffffffffffffffffffffffffff1603610928576040517f08c379a000000000000000000000000000000000000000000000000000000000815260040161091f90611b2e565b60405180910390fd5b5f73ffffffffffffffffffffffffffffffffffffffff168273ffffffffffffffffffffffffffffffffffffffff1603610996576040517f08c379a000000000000000000000000000000000000000000000000000000000815260040161098d90611b96565b60405180910390fd5b60015f8373ffffffffffffffffffffffffffffffffffffffff1673ffffffffffffffffffffffffffffffffffffffff1681526020019081526020015f205f9054906101000a900460ff1615610a20576040517f08c379a0000000000000000000000000000000000000000000000000000000008152600401610a1790611bfe565b60405180910390fd5b6001805f8473ffffffffffffffffffffffffffffffffffffffff1673ffffffffffffffffffffffffffffffffffffffff1681526020019081526020015f205f6101000a81548160ff0219169083151502179055505f60405180606001604052808473ffffffffffffffffffffffffffffffffffffffff1681526020018573ffffffffffffffffffffffffffffffffffffffff1681526020018381525090508060025f8573ffffffffffffffffffffffffffffffffffffffff1673ffffffffffffffffffffffffffffffffffffffff1681526020019081526020015f205f820151815f015f6101000a81548173ffffffffffffffffffffffffffffffffffffffff021916908373ffffffffffffffffffffffffffffffffffffffff1602179055506020820151816001015f6101000a81548173ffffffffffffffffffffffffffffffffffffffff021916908373ffffffffffffffffffffffffffffffffffffffff16021790555060408201518160020155905050600381908060018154018082558091505060019003905f5260205f2090600302015f909190919091505f820151815f015f6101000a81548173ffffffffffffffffffffffffffffffffffffffff021916908373ffffffffffffffffffffffffffffffffffffffff1602179055506020820151816001015f6101000a81548173ffffffffffffffffffffffffffffffffffffffff021916908373ffffffffffffffffffffffffffffffffffffffff1602179055506040820151816002015550508373ffffffffffffffffffffffffffffffffffffffff166342842e0e3385856040518463ffffffff1660e01b8152600401610c8f939291906117ba565b5f604051808303815f87803b158015610ca6575f5ffd5b505af1158015610cb8573d5f5f3e3d5ffd5b505050508373ffffffffffffffffffffffffffffffffffffffff167f3f3e0cb0c8889648d91931efa9d3f6d0d04adfb07c856e6c4e09334339befe918484604051610d04929190611808565b60405180910390a250505050565b5f5f9054906101000a900473ffffffffffffffffffffffffffffffffffffffff1673ffffffffffffffffffffffffffffffffffffffff163373ffffffffffffffffffffffffffffffffffffffff1614610da0576040517f08c379a0000000000000000000000000000000000000000000000000000000008152600401610d9790611a31565b60405180910390fd5b5f5f9054906101000a900473ffffffffffffffffffffffffffffffffffffffff1673ffffffffffffffffffffffffffffffffffffffff166108fc4790811502906040515f60405180830381858888f19350505050158015610e03573d5f5f3e3d5ffd5b50565b5f5f9054906101000a900473ffffffffffffffffffffffffffffffffffffffff1673ffffffffffffffffffffffffffffffffffffffff163373ffffffffffffffffffffffffffffffffffffffff1614610e94576040517f08c379a0000000000000000000000000000000000000000000000000000000008152600401610e8b90611a31565b60405180910390fd5b5f60015f8373ffffffffffffffffffffffffffffffffffffffff1673ffffffffffffffffffffffffffffffffffffffff1681526020019081526020015f205f6101000a81548160ff02191690831515021790555060025f8273ffffffffffffffffffffffffffffffffffffffff1673ffffffffffffffffffffffffffffffffffffffff1681526020019081526020015f205f5f82015f6101000a81549073ffffffffffffffffffffffffffffffffffffffff0219169055600182015f6101000a81549073ffffffffffffffffffffffffffffffffffffffff0219169055600282015f9055505050565b6001602052805f5260405f205f915054906101000a900460ff1681565b6002602052805f5260405f205f91509050805f015f9054906101000a900473ffffffffffffffffffffffffffffffffffffffff1690806001015f9054906101000a900473ffffffffffffffffffffffffffffffffffffffff16908060020154905083565b5f5f9054906101000a900473ffffffffffffffffffffffffffffffffffffffff1673ffffffffffffffffffffffffffffffffffffffff163373ffffffffffffffffffffffffffffffffffffffff161461108c576040517f08c379a000000000000000000000000000000000000000000000000000000000815260040161108390611a31565b60405180910390fd5b5f73ffffffffffffffffffffffffffffffffffffffff168173ffffffffffffffffffffffffffffffffffffffff16036110fa576040517f08c379a00000000000000000000000000000000000000000000000000000000081526004016110f190611c66565b60405180910390fd5b805f5f6101000a81548173ffffffffffffffffffffffffffffffffffffffff021916908373ffffffffffffffffffffffffffffffffffffffff16021790555050565b5f5f9054906101000a900473ffffffffffffffffffffffffffffffffffffffff1681565b5f5f5f60025f8573ffffffffffffffffffffffffffffffffffffffff1673ffffffffffffffffffffffffffffffffffffffff1681526020019081526020015f206040518060600160405290815f82015f9054906101000a900473ffffffffffffffffffffffffffffffffffffffff1673ffffffffffffffffffffffffffffffffffffffff1673ffffffffffffffffffffffffffffffffffffffff168152602001600182015f9054906101000a900473ffffffffffffffffffffffffffffffffffffffff1673ffffffffffffffffffffffffffffffffffffffff1673ffffffffffffffffffffffffffffffffffffffff1681526020016002820154815250509050806020015181604001519250925050915091565b60038181548110611283575f80fd5b905f5260205f2090600302015f91509050805f015f9054906101000a900473ffffffffffffffffffffffffffffffffffffffff1690806001015f9054906101000a900473ffffffffffffffffffffffffffffffffffffffff16908060020154905083565b5f600380549050905090565b60605f82846113029190611cb1565b905060038054905081111561131a5760038054905090505b5f84826113279190611ce4565b67ffffffffffffffff8111156113405761133f611d17565b5b60405190808252806020026020018201604052801561137957816020015b6113666114a9565b81526020019060019003908161135e5790505b5090505f8590505b8281101561149d576003818154811061139d5761139c611ab7565b5b905f5260205f2090600302016040518060600160405290815f82015f9054906101000a900473ffffffffffffffffffffffffffffffffffffffff1673ffffffffffffffffffffffffffffffffffffffff1673ffffffffffffffffffffffffffffffffffffffff168152602001600182015f9054906101000a900473ffffffffffffffffffffffffffffffffffffffff1673ffffffffffffffffffffffffffffffffffffffff1673ffffffffffffffffffffffffffffffffffffffff1681526020016002820154815250508287836114749190611ce4565b8151811061148557611484611ab7565b5b60200260200101819052508080600101915050611381565b50809250505092915050565b60405180606001604052805f73ffffffffffffffffffffffffffffffffffffffff1681526020015f73ffffffffffffffffffffffffffffffffffffffff1681526020015f81525090565b5f5ffd5b5f5ffd5b5f5ffd5b5f5ffd5b5f5ffd5b5f5f83601f84011261151c5761151b6114fb565b5b8235905067ffffffffffffffff811115611539576115386114ff565b5b60208301915083602082028301111561155557611554611503565b5b9250929050565b5f5f83601f840112611571576115706114fb565b5b8235905067ffffffffffffffff81111561158e5761158d6114ff565b5b6020830191508360208202830111156115aa576115a9611503565b5b9250929050565b5f5f5f5f5f5f606087890312156115cb576115ca6114f3565b5b5f87013567ffffffffffffffff8111156115e8576115e76114f7565b5b6115f489828a01611507565b9650965050602087013567ffffffffffffffff811115611617576116166114f7565b5b61162389828a01611507565b9450945050604087013567ffffffffffffffff811115611646576116456114f7565b5b61165289828a0161155c565b92509250509295509295509295565b5f73ffffffffffffffffffffffffffffffffffffffff82169050919050565b5f61168a82611661565b9050919050565b61169a81611680565b81146116a4575f5ffd5b50565b5f813590506116b581611691565b92915050565b5f819050919050565b6116cd816116bb565b81146116d7575f5ffd5b50565b5f813590506116e8816116c4565b92915050565b5f5f5f60608486031215611705576117046114f3565b5b5f611712868287016116a7565b9350506020611723868287016116a7565b9250506040611734868287016116da565b9150509250925092565b5f60208284031215611753576117526114f3565b5b5f611760848285016116a7565b91505092915050565b5f8115159050919050565b61177d81611769565b82525050565b5f6020820190506117965f830184611774565b92915050565b6117a581611680565b82525050565b6117b4816116bb565b82525050565b5f6060820190506117cd5f83018661179c565b6117da602083018561179c565b6117e760408301846117ab565b949350505050565b5f6020820190506118025f83018461179c565b92915050565b5f60408201905061181b5f83018561179c565b61182860208301846117ab565b9392505050565b5f60208284031215611844576118436114f3565b5b5f611851848285016116da565b91505092915050565b5f60208201905061186d5f8301846117ab565b92915050565b5f5f60408385031215611889576118886114f3565b5b5f611896858286016116da565b92505060206118a7858286016116da565b9150509250929050565b5f81519050919050565b5f82825260208201905092915050565b5f819050602082019050919050565b6118e381611680565b82525050565b6118f2816116bb565b82525050565b606082015f82015161190c5f8501826118da565b50602082015161191f60208501826118da565b50604082015161193260408501826118e9565b50505050565b5f61194383836118f8565b60608301905092915050565b5f602082019050919050565b5f611965826118b1565b61196f81856118bb565b935061197a836118cb565b805f5b838110156119aa5781516119918882611938565b975061199c8361194f565b92505060018101905061197d565b5085935050505092915050565b5f6020820190508181035f8301526119cf818461195b565b905092915050565b5f82825260208201905092915050565b7f4e6f7420617574686f72697a65640000000000000000000000000000000000005f82015250565b5f611a1b600e836119d7565b9150611a26826119e7565b602082019050919050565b5f6020820190508181035f830152611a4881611a0f565b9050919050565b7f4172726179206c656e67746873206d69736d61746368000000000000000000005f82015250565b5f611a836016836119d7565b9150611a8e82611a4f565b602082019050919050565b5f6020820190508181035f830152611ab081611a77565b9050919050565b7f4e487b71000000000000000000000000000000000000000000000000000000005f52603260045260245ffd5b7f496e76616c6964204e465420636f6e74726163742061646472657373000000005f82015250565b5f611b18601c836119d7565b9150611b2382611ae4565b602082019050919050565b5f6020820190508181035f830152611b4581611b0c565b9050919050565b7f496e76616c696420726563697069656e740000000000000000000000000000005f82015250565b5f611b806011836119d7565b9150611b8b82611b4c565b602082019050919050565b5f6020820190508181035f830152611bad81611b74565b9050919050565b7f416c72656164792061697264726f7070656400000000000000000000000000005f82015250565b5f611be86012836119d7565b9150611bf382611bb4565b602082019050919050565b5f6020820190508181035f830152611c1581611bdc565b9050919050565b7f5a65726f206164647265737300000000000000000000000000000000000000005f82015250565b5f611c50600c836119d7565b9150611c5b82611c1c565b602082019050919050565b5f6020820190508181035f830152611c7d81611c44565b9050919050565b7f4e487b71000000000000000000000000000000000000000000000000000000005f52601160045260245ffd5b5f611cbb826116bb565b9150611cc6836116bb565b9250828201905080821115611cde57611cdd611c84565b5b92915050565b5f611cee826116bb565b9150611cf9836116bb565b9250828203905081811115611d1157611d10611c84565b5b92915050565b7f4e487b71000000000000000000000000000000000000000000000000000000005f52604160045260245ffdfea264697066735822122072c77a4dcb4450d74d71c20e64556743f604d2a8f32ba78b8f0b6b7261291fed64736f6c634300081e0033",
					"opcodes": "PUSH1 0x80 PUSH1 0x40 MSTORE CALLVALUE DUP1 ISZERO PUSH1 0xE JUMPI PUSH0 PUSH0 REVERT JUMPDEST POP CALLER PUSH0 PUSH0 PUSH2 0x100 EXP DUP2 SLOAD DUP2 PUSH20 0xFFFFFFFFFFFFFFFFFFFFFFFFFFFFFFFFFFFFFFFF MUL NOT AND SWAP1 DUP4 PUSH20 0xFFFFFFFFFFFFFFFFFFFFFFFFFFFFFFFFFFFFFFFF AND MUL OR SWAP1 SSTORE POP PUSH2 0x1D7A DUP1 PUSH2 0x5B PUSH0 CODECOPY PUSH0 RETURN INVALID PUSH1 0x80 PUSH1 0x40 MSTORE PUSH1 0x4 CALLDATASIZE LT PUSH2 0xAA JUMPI PUSH0 CALLDATALOAD PUSH1 0xE0 SHR DUP1 PUSH4 0x880CDC31 GT PUSH2 0x63 JUMPI DUP1 PUSH4 0x880CDC31 EQ PUSH2 0x1BD JUMPI DUP1 PUSH4 0x8DA5CB5B EQ PUSH2 0x1E5 JUMPI DUP1 PUSH4 0xA5CBB928 EQ PUSH2 0x20F JUMPI DUP1 PUSH4 0xCD56BEED EQ PUSH2 0x24C JUMPI DUP1 PUSH4 0xCE678580 EQ PUSH2 0x28A JUMPI DUP1 PUSH4 0xED7F07EA EQ PUSH2 0x2B4 JUMPI PUSH2 0xB1 JUMP JUMPDEST DUP1 PUSH4 0x146DF43D EQ PUSH2 0xB5 JUMPI DUP1 PUSH4 0x1822EB70 EQ PUSH2 0xDD JUMPI DUP1 PUSH4 0x3CCFD60B EQ PUSH2 0x105 JUMPI DUP1 PUSH4 0x700805E3 EQ PUSH2 0x11B JUMPI DUP1 PUSH4 0x73B2E80E EQ PUSH2 0x143 JUMPI DUP1 PUSH4 0x78AF9931 EQ PUSH2 0x17F JUMPI PUSH2 0xB1 JUMP JUMPDEST CALLDATASIZE PUSH2 0xB1 JUMPI STOP JUMPDEST PUSH0 PUSH0 REVERT JUMPDEST CALLVALUE DUP1 ISZERO PUSH2 0xC0 JUMPI PUSH0 PUSH0 REVERT JUMPDEST POP PUSH2 0xDB PUSH1 0x4 DUP1 CALLDATASIZE SUB DUP2 ADD SWAP1 PUSH2 0xD6 SWAP2 SWAP1 PUSH2 0x15B1 JUMP JUMPDEST PUSH2 0x2F0 JUMP JUMPDEST STOP JUMPDEST CALLVALUE DUP1 ISZERO PUSH2 0xE8 JUMPI PUSH0 PUSH0 REVERT JUMPDEST POP PUSH2 0x103 PUSH1 0x4 DUP1 CALLDATASIZE SUB DUP2 ADD SWAP1 PUSH2 0xFE SWAP2 SWAP1 PUSH2 0x16EE JUMP JUMPDEST PUSH2 0x82C JUMP JUMPDEST STOP JUMPDEST CALLVALUE DUP1 ISZERO PUSH2 0x110 JUMPI PUSH0 PUSH0 REVERT JUMPDEST POP PUSH2 0x119 PUSH2 0xD12 JUMP JUMPDEST STOP JUMPDEST CALLVALUE DUP1 ISZERO PUSH2 0x126 JUMPI PUSH0 PUSH0 REVERT JUMPDEST POP PUSH2 0x141 PUSH1 0x4 DUP1 CALLDATASIZE SUB DUP2 ADD SWAP1 PUSH2 0x13C SWAP2 SWAP1 PUSH2 0x173E JUMP JUMPDEST PUSH2 0xE06 JUMP JUMPDEST STOP JUMPDEST CALLVALUE DUP1 ISZERO PUSH2 0x14E JUMPI PUSH0 PUSH0 REVERT JUMPDEST POP PUSH2 0x169 PUSH1 0x4 DUP1 CALLDATASIZE SUB DUP2 ADD SWAP1 PUSH2 0x164 SWAP2 SWAP1 PUSH2 0x173E JUMP JUMPDEST PUSH2 0xF7D JUMP JUMPDEST PUSH1 0x40 MLOAD PUSH2 0x176 SWAP2 SWAP1 PUSH2 0x1783 JUMP JUMPDEST PUSH1 0x40 MLOAD DUP1 SWAP2 SUB SWAP1 RETURN JUMPDEST CALLVALUE DUP1 ISZERO PUSH2 0x18A JUMPI PUSH0 PUSH0 REVERT JUMPDEST POP PUSH2 0x1A5 PUSH1 0x4 DUP1 CALLDATASIZE SUB DUP2 ADD SWAP1 PUSH2 0x1A0 SWAP2 SWAP1 PUSH2 0x173E JUMP JUMPDEST PUSH2 0xF9A JUMP JUMPDEST PUSH1 0x40 MLOAD PUSH2 0x1B4 SWAP4 SWAP3 SWAP2 SWAP1 PUSH2 0x17BA JUMP JUMPDEST PUSH1 0x40 MLOAD DUP1 SWAP2 SUB SWAP1 RETURN JUMPDEST CALLVALUE DUP1 ISZERO PUSH2 0x1C8 JUMPI PUSH0 PUSH0 REVERT JUMPDEST POP PUSH2 0x1E3 PUSH1 0x4 DUP1 CALLDATASIZE SUB DUP2 ADD SWAP1 PUSH2 0x1DE SWAP2 SWAP1 PUSH2 0x173E JUMP JUMPDEST PUSH2 0xFFE JUMP JUMPDEST STOP JUMPDEST CALLVALUE DUP1 ISZERO PUSH2 0x1F0 JUMPI PUSH0 PUSH0 REVERT JUMPDEST POP PUSH2 0x1F9 PUSH2 0x113C JUMP JUMPDEST PUSH1 0x40 MLOAD PUSH2 0x206 SWAP2 SWAP1 PUSH2 0x17EF JUMP JUMPDEST PUSH1 0x40 MLOAD DUP1 SWAP2 SUB SWAP1 RETURN JUMPDEST CALLVALUE DUP1 ISZERO PUSH2 0x21A JUMPI PUSH0 PUSH0 REVERT JUMPDEST POP PUSH2 0x235 PUSH1 0x4 DUP1 CALLDATASIZE SUB DUP2 ADD SWAP1 PUSH2 0x230 SWAP2 SWAP1 PUSH2 0x173E JUMP JUMPDEST PUSH2 0x1160 JUMP JUMPDEST PUSH1 0x40 MLOAD PUSH2 0x243 SWAP3 SWAP2 SWAP1 PUSH2 0x1808 JUMP JUMPDEST PUSH1 0x40 MLOAD DUP1 SWAP2 SUB SWAP1 RETURN JUMPDEST CALLVALUE DUP1 ISZERO PUSH2 0x257 JUMPI PUSH0 PUSH0 REVERT JUMPDEST POP PUSH2 0x272 PUSH1 0x4 DUP1 CALLDATASIZE SUB DUP2 ADD SWAP1 PUSH2 0x26D SWAP2 SWAP1 PUSH2 0x182F JUMP JUMPDEST PUSH2 0x1274 JUMP JUMPDEST PUSH1 0x40 MLOAD PUSH2 0x281 SWAP4 SWAP3 SWAP2 SWAP1 PUSH2 0x17BA JUMP JUMPDEST PUSH1 0x40 MLOAD DUP1 SWAP2 SUB SWAP1 RETURN JUMPDEST CALLVALUE DUP1 ISZERO PUSH2 0x295 JUMPI PUSH0 PUSH0 REVERT JUMPDEST POP PUSH2 0x29E PUSH2 0x12E7 JUMP JUMPDEST PUSH1 0x40 MLOAD PUSH2 0x2AB SWAP2 SWAP1 PUSH2 0x185A JUMP JUMPDEST PUSH1 0x40 MLOAD DUP1 SWAP2 SUB SWAP1 RETURN JUMPDEST CALLVALUE DUP1 ISZERO PUSH2 0x2BF JUMPI PUSH0 PUSH0 REVERT JUMPDEST POP PUSH2 0x2DA PUSH1 0x4 DUP1 CALLDATASIZE SUB DUP2 ADD SWAP1 PUSH2 0x2D5 SWAP2 SWAP1 PUSH2 0x1873 JUMP JUMPDEST PUSH2 0x12F3 JUMP JUMPDEST PUSH1 0x40 MLOAD PUSH2 0x2E7 SWAP2 SWAP1 PUSH2 0x19B7 JUMP JUMPDEST PUSH1 0x40 MLOAD DUP1 SWAP2 SUB SWAP1 RETURN JUMPDEST PUSH0 PUSH0 SWAP1 SLOAD SWAP1 PUSH2 0x100 EXP SWAP1 DIV PUSH20 0xFFFFFFFFFFFFFFFFFFFFFFFFFFFFFFFFFFFFFFFF AND PUSH20 0xFFFFFFFFFFFFFFFFFFFFFFFFFFFFFFFFFFFFFFFF AND CALLER PUSH20 0xFFFFFFFFFFFFFFFFFFFFFFFFFFFFFFFFFFFFFFFF AND EQ PUSH2 0x37E JUMPI PUSH1 0x40 MLOAD PUSH32 0x8C379A000000000000000000000000000000000000000000000000000000000 DUP2 MSTORE PUSH1 0x4 ADD PUSH2 0x375 SWAP1 PUSH2 0x1A31 JUMP JUMPDEST PUSH1 0x40 MLOAD DUP1 SWAP2 SUB SWAP1 REVERT JUMPDEST DUP4 DUP4 SWAP1 POP DUP7 DUP7 SWAP1 POP EQ DUP1 ISZERO PUSH2 0x398 JUMPI POP DUP2 DUP2 SWAP1 POP DUP5 DUP5 SWAP1 POP EQ JUMPDEST PUSH2 0x3D7 JUMPI PUSH1 0x40 MLOAD PUSH32 0x8C379A000000000000000000000000000000000000000000000000000000000 DUP2 MSTORE PUSH1 0x4 ADD PUSH2 0x3CE SWAP1 PUSH2 0x1A99 JUMP JUMPDEST PUSH1 0x40 MLOAD DUP1 SWAP2 SUB SWAP1 REVERT JUMPDEST PUSH0 PUSH0 SWAP1 POP JUMPDEST DUP5 DUP5 SWAP1 POP DUP2 LT ISZERO PUSH2 0x823 JUMPI PUSH0 DUP6 DUP6 DUP4 DUP2 DUP2 LT PUSH2 0x3FB JUMPI PUSH2 0x3FA PUSH2 0x1AB7 JUMP JUMPDEST JUMPDEST SWAP1 POP PUSH1 0x20 MUL ADD PUSH1 0x20 DUP2 ADD SWAP1 PUSH2 0x410 SWAP2 SWAP1 PUSH2 0x173E JUMP JUMPDEST SWAP1 POP PUSH1 0x1 PUSH0 DUP3 PUSH20 0xFFFFFFFFFFFFFFFFFFFFFFFFFFFFFFFFFFFFFFFF AND PUSH20 0xFFFFFFFFFFFFFFFFFFFFFFFFFFFFFFFFFFFFFFFF AND DUP2 MSTORE PUSH1 0x20 ADD SWAP1 DUP2 MSTORE PUSH1 0x20 ADD PUSH0 KECCAK256 PUSH0 SWAP1 SLOAD SWAP1 PUSH2 0x100 EXP SWAP1 DIV PUSH1 0xFF AND ISZERO PUSH2 0x467 JUMPI POP PUSH2 0x816 JUMP JUMPDEST PUSH1 0x1 DUP1 PUSH0 DUP4 PUSH20 0xFFFFFFFFFFFFFFFFFFFFFFFFFFFFFFFFFFFFFFFF AND PUSH20 0xFFFFFFFFFFFFFFFFFFFFFFFFFFFFFFFFFFFFFFFF AND DUP2 MSTORE PUSH1 0x20 ADD SWAP1 DUP2 MSTORE PUSH1 0x20 ADD PUSH0 KECCAK256 PUSH0 PUSH2 0x100 EXP DUP2 SLOAD DUP2 PUSH1 0xFF MUL NOT AND SWAP1 DUP4 ISZERO ISZERO MUL OR SWAP1 SSTORE POP PUSH0 PUSH1 0x40 MLOAD DUP1 PUSH1 0x60 ADD PUSH1 0x40 MSTORE DUP1 DUP4 PUSH20 0xFFFFFFFFFFFFFFFFFFFFFFFFFFFFFFFFFFFFFFFF AND DUP2 MSTORE PUSH1 0x20 ADD DUP11 DUP11 DUP7 DUP2 DUP2 LT PUSH2 0x4F6 JUMPI PUSH2 0x4F5 PUSH2 0x1AB7 JUMP JUMPDEST JUMPDEST SWAP1 POP PUSH1 0x20 MUL ADD PUSH1 0x20 DUP2 ADD SWAP1 PUSH2 0x50B SWAP2 SWAP1 PUSH2 0x173E JUMP JUMPDEST PUSH20 0xFFFFFFFFFFFFFFFFFFFFFFFFFFFFFFFFFFFFFFFF AND DUP2 MSTORE PUSH1 0x20 ADD DUP7 DUP7 DUP7 DUP2 DUP2 LT PUSH2 0x539 JUMPI PUSH2 0x538 PUSH2 0x1AB7 JUMP JUMPDEST JUMPDEST SWAP1 POP PUSH1 0x20 MUL ADD CALLDATALOAD DUP2 MSTORE POP SWAP1 POP DUP1 PUSH1 0x2 PUSH0 DUP5 PUSH20 0xFFFFFFFFFFFFFFFFFFFFFFFFFFFFFFFFFFFFFFFF AND PUSH20 0xFFFFFFFFFFFFFFFFFFFFFFFFFFFFFFFFFFFFFFFF AND DUP2 MSTORE PUSH1 0x20 ADD SWAP1 DUP2 MSTORE PUSH1 0x20 ADD PUSH0 KECCAK256 PUSH0 DUP3 ADD MLOAD DUP2 PUSH0 ADD PUSH0 PUSH2 0x100 EXP DUP2 SLOAD DUP2 PUSH20 0xFFFFFFFFFFFFFFFFFFFFFFFFFFFFFFFFFFFFFFFF MUL NOT AND SWAP1 DUP4 PUSH20 0xFFFFFFFFFFFFFFFFFFFFFFFFFFFFFFFFFFFFFFFF AND MUL OR SWAP1 SSTORE POP PUSH1 0x20 DUP3 ADD MLOAD DUP2 PUSH1 0x1 ADD PUSH0 PUSH2 0x100 EXP DUP2 SLOAD DUP2 PUSH20 0xFFFFFFFFFFFFFFFFFFFFFFFFFFFFFFFFFFFFFFFF MUL NOT AND SWAP1 DUP4 PUSH20 0xFFFFFFFFFFFFFFFFFFFFFFFFFFFFFFFFFFFFFFFF AND MUL OR SWAP1 SSTORE POP PUSH1 0x40 DUP3 ADD MLOAD DUP2 PUSH1 0x2 ADD SSTORE SWAP1 POP POP PUSH1 0x3 DUP2 SWAP1 DUP1 PUSH1 0x1 DUP2 SLOAD ADD DUP1 DUP3 SSTORE DUP1 SWAP2 POP POP PUSH1 0x1 SWAP1 SUB SWAP1 PUSH0 MSTORE PUSH1 0x20 PUSH0 KECCAK256 SWAP1 PUSH1 0x3 MUL ADD PUSH0 SWAP1 SWAP2 SWAP1 SWAP2 SWAP1 SWAP2 POP PUSH0 DUP3 ADD MLOAD DUP2 PUSH0 ADD PUSH0 PUSH2 0x100 EXP DUP2 SLOAD DUP2 PUSH20 0xFFFFFFFFFFFFFFFFFFFFFFFFFFFFFFFFFFFFFFFF MUL NOT AND SWAP1 DUP4 PUSH20 0xFFFFFFFFFFFFFFFFFFFFFFFFFFFFFFFFFFFFFFFF AND MUL OR SWAP1 SSTORE POP PUSH1 0x20 DUP3 ADD MLOAD DUP2 PUSH1 0x1 ADD PUSH0 PUSH2 0x100 EXP DUP2 SLOAD DUP2 PUSH20 0xFFFFFFFFFFFFFFFFFFFFFFFFFFFFFFFFFFFFFFFF MUL NOT AND SWAP1 DUP4 PUSH20 0xFFFFFFFFFFFFFFFFFFFFFFFFFFFFFFFFFFFFFFFF AND MUL OR SWAP1 SSTORE POP PUSH1 0x40 DUP3 ADD MLOAD DUP2 PUSH1 0x2 ADD SSTORE POP POP DUP9 DUP9 DUP5 DUP2 DUP2 LT PUSH2 0x6EC JUMPI PUSH2 0x6EB PUSH2 0x1AB7 JUMP JUMPDEST JUMPDEST SWAP1 POP PUSH1 0x20 MUL ADD PUSH1 0x20 DUP2 ADD SWAP1 PUSH2 0x701 SWAP2 SWAP1 PUSH2 0x173E JUMP JUMPDEST PUSH20 0xFFFFFFFFFFFFFFFFFFFFFFFFFFFFFFFFFFFFFFFF AND PUSH4 0x42842E0E CALLER DUP5 DUP9 DUP9 DUP9 DUP2 DUP2 LT PUSH2 0x731 JUMPI PUSH2 0x730 PUSH2 0x1AB7 JUMP JUMPDEST JUMPDEST SWAP1 POP PUSH1 0x20 MUL ADD CALLDATALOAD PUSH1 0x40 MLOAD DUP5 PUSH4 0xFFFFFFFF AND PUSH1 0xE0 SHL DUP2 MSTORE PUSH1 0x4 ADD PUSH2 0x756 SWAP4 SWAP3 SWAP2 SWAP1 PUSH2 0x17BA JUMP JUMPDEST PUSH0 PUSH1 0x40 MLOAD DUP1 DUP4 SUB DUP2 PUSH0 DUP8 DUP1 EXTCODESIZE ISZERO DUP1 ISZERO PUSH2 0x76D JUMPI PUSH0 PUSH0 REVERT JUMPDEST POP GAS CALL ISZERO DUP1 ISZERO PUSH2 0x77F JUMPI RETURNDATASIZE PUSH0 PUSH0 RETURNDATACOPY RETURNDATASIZE PUSH0 REVERT JUMPDEST POP POP POP POP DUP9 DUP9 DUP5 DUP2 DUP2 LT PUSH2 0x796 JUMPI PUSH2 0x795 PUSH2 0x1AB7 JUMP JUMPDEST JUMPDEST SWAP1 POP PUSH1 0x20 MUL ADD PUSH1 0x20 DUP2 ADD SWAP1 PUSH2 0x7AB SWAP2 SWAP1 PUSH2 0x173E JUMP JUMPDEST PUSH20 0xFFFFFFFFFFFFFFFFFFFFFFFFFFFFFFFFFFFFFFFF AND PUSH32 0x3F3E0CB0C8889648D91931EFA9D3F6D0D04ADFB07C856E6C4E09334339BEFE91 DUP4 DUP8 DUP8 DUP8 DUP2 DUP2 LT PUSH2 0x7F6 JUMPI PUSH2 0x7F5 PUSH2 0x1AB7 JUMP JUMPDEST JUMPDEST SWAP1 POP PUSH1 0x20 MUL ADD CALLDATALOAD PUSH1 0x40 MLOAD PUSH2 0x80B SWAP3 SWAP2 SWAP1 PUSH2 0x1808 JUMP JUMPDEST PUSH1 0x40 MLOAD DUP1 SWAP2 SUB SWAP1 LOG2 POP POP JUMPDEST DUP1 DUP1 PUSH1 0x1 ADD SWAP2 POP POP PUSH2 0x3DC JUMP JUMPDEST POP POP POP POP POP POP POP JUMP JUMPDEST PUSH0 PUSH0 SWAP1 SLOAD SWAP1 PUSH2 0x100 EXP SWAP1 DIV PUSH20 0xFFFFFFFFFFFFFFFFFFFFFFFFFFFFFFFFFFFFFFFF AND PUSH20 0xFFFFFFFFFFFFFFFFFFFFFFFFFFFFFFFFFFFFFFFF AND CALLER PUSH20 0xFFFFFFFFFFFFFFFFFFFFFFFFFFFFFFFFFFFFFFFF AND EQ PUSH2 0x8BA JUMPI PUSH1 0x40 MLOAD PUSH32 0x8C379A000000000000000000000000000000000000000000000000000000000 DUP2 MSTORE PUSH1 0x4 ADD PUSH2 0x8B1 SWAP1 PUSH2 0x1A31 JUMP JUMPDEST PUSH1 0x40 MLOAD DUP1 SWAP2 SUB SWAP1 REVERT JUMPDEST PUSH0 PUSH20 0xFFFFFFFFFFFFFFFFFFFFFFFFFFFFFFFFFFFFFFFF AND DUP4 PUSH20 0xFFFFFFFFFFFFFFFFFFFFFFFFFFFFFFFFFFFFFFFF AND SUB PUSH2 0x928 JUMPI PUSH1 0x40 MLOAD PUSH32 0x8C379A000000000000000000000000000000000000000000000000000000000 DUP2 MSTORE PUSH1 0x4 ADD PUSH2 0x91F SWAP1 PUSH2 0x1B2E JUMP JUMPDEST PUSH1 0x40 MLOAD DUP1 SWAP2 SUB SWAP1 REVERT JUMPDEST PUSH0 PUSH20 0xFFFFFFFFFFFFFFFFFFFFFFFFFFFFFFFFFFFFFFFF AND DUP3 PUSH20 0xFFFFFFFFFFFFFFFFFFFFFFFFFFFFFFFFFFFFFFFF AND SUB PUSH2 0x996 JUMPI PUSH1 0x40 MLOAD PUSH32 0x8C379A000000000000000000000000000000000000000000000000000000000 DUP2 MSTORE PUSH1 0x4 ADD PUSH2 0x98D SWAP1 PUSH2 0x1B96 JUMP JUMPDEST PUSH1 0x40 MLOAD DUP1 SWAP2 SUB SWAP1 REVERT JUMPDEST PUSH1 0x1 PUSH0 DUP4 PUSH20 0xFFFFFFFFFFFFFFFFFFFFFFFFFFFFFFFFFFFFFFFF AND PUSH20 0xFFFFFFFFFFFFFFFFFFFFFFFFFFFFFFFFFFFFFFFF AND DUP2 MSTORE PUSH1 0x20 ADD SWAP1 DUP2 MSTORE PUSH1 0x20 ADD PUSH0 KECCAK256 PUSH0 SWAP1 SLOAD SWAP1 PUSH2 0x100 EXP SWAP1 DIV PUSH1 0xFF AND ISZERO PUSH2 0xA20 JUMPI PUSH1 0x40 MLOAD PUSH32 0x8C379A000000000000000000000000000000000000000000000000000000000 DUP2 MSTORE PUSH1 0x4 ADD PUSH2 0xA17 SWAP1 PUSH2 0x1BFE JUMP JUMPDEST PUSH1 0x40 MLOAD DUP1 SWAP2 SUB SWAP1 REVERT JUMPDEST PUSH1 0x1 DUP1 PUSH0 DUP5 PUSH20 0xFFFFFFFFFFFFFFFFFFFFFFFFFFFFFFFFFFFFFFFF AND PUSH20 0xFFFFFFFFFFFFFFFFFFFFFFFFFFFFFFFFFFFFFFFF AND DUP2 MSTORE PUSH1 0x20 ADD SWAP1 DUP2 MSTORE PUSH1 0x20 ADD PUSH0 KECCAK256 PUSH0 PUSH2 0x100 EXP DUP2 SLOAD DUP2 PUSH1 0xFF MUL NOT AND SWAP1 DUP4 ISZERO ISZERO MUL OR SWAP1 SSTORE POP PUSH0 PUSH1 0x40 MLOAD DUP1 PUSH1 0x60 ADD PUSH1 0x40 MSTORE DUP1 DUP5 PUSH20 0xFFFFFFFFFFFFFFFFFFFFFFFFFFFFFFFFFFFFFFFF AND DUP2 MSTORE PUSH1 0x20 ADD DUP6 PUSH20 0xFFFFFFFFFFFFFFFFFFFFFFFFFFFFFFFFFFFFFFFF AND DUP2 MSTORE PUSH1 0x20 ADD DUP4 DUP2 MSTORE POP SWAP1 POP DUP1 PUSH1 0x2 PUSH0 DUP6 PUSH20 0xFFFFFFFFFFFFFFFFFFFFFFFFFFFFFFFFFFFFFFFF AND PUSH20 0xFFFFFFFFFFFFFFFFFFFFFFFFFFFFFFFFFFFFFFFF AND DUP2 MSTORE PUSH1 0x20 ADD SWAP1 DUP2 MSTORE PUSH1 0x20 ADD PUSH0 KECCAK256 PUSH0 DUP3 ADD MLOAD DUP2 PUSH0 ADD PUSH0 PUSH2 0x100 EXP DUP2 SLOAD DUP2 PUSH20 0xFFFFFFFFFFFFFFFFFFFFFFFFFFFFFFFFFFFFFFFF MUL NOT AND SWAP1 DUP4 PUSH20 0xFFFFFFFFFFFFFFFFFFFFFFFFFFFFFFFFFFFFFFFF AND MUL OR SWAP1 SSTORE POP PUSH1 0x20 DUP3 ADD MLOAD DUP2 PUSH1 0x1 ADD PUSH0 PUSH2 0x100 EXP DUP2 SLOAD DUP2 PUSH20 0xFFFFFFFFFFFFFFFFFFFFFFFFFFFFFFFFFFFFFFFF MUL NOT AND SWAP1 DUP4 PUSH20 0xFFFFFFFFFFFFFFFFFFFFFFFFFFFFFFFFFFFFFFFF AND MUL OR SWAP1 SSTORE POP PUSH1 0x40 DUP3 ADD MLOAD DUP2 PUSH1 0x2 ADD SSTORE SWAP1 POP POP PUSH1 0x3 DUP2 SWAP1 DUP1 PUSH1 0x1 DUP2 SLOAD ADD DUP1 DUP3 SSTORE DUP1 SWAP2 POP POP PUSH1 0x1 SWAP1 SUB SWAP1 PUSH0 MSTORE PUSH1 0x20 PUSH0 KECCAK256 SWAP1 PUSH1 0x3 MUL ADD PUSH0 SWAP1 SWAP2 SWAP1 SWAP2 SWAP1 SWAP2 POP PUSH0 DUP3 ADD MLOAD DUP2 PUSH0 ADD PUSH0 PUSH2 0x100 EXP DUP2 SLOAD DUP2 PUSH20 0xFFFFFFFFFFFFFFFFFFFFFFFFFFFFFFFFFFFFFFFF MUL NOT AND SWAP1 DUP4 PUSH20 0xFFFFFFFFFFFFFFFFFFFFFFFFFFFFFFFFFFFFFFFF AND MUL OR SWAP1 SSTORE POP PUSH1 0x20 DUP3 ADD MLOAD DUP2 PUSH1 0x1 ADD PUSH0 PUSH2 0x100 EXP DUP2 SLOAD DUP2 PUSH20 0xFFFFFFFFFFFFFFFFFFFFFFFFFFFFFFFFFFFFFFFF MUL NOT AND SWAP1 DUP4 PUSH20 0xFFFFFFFFFFFFFFFFFFFFFFFFFFFFFFFFFFFFFFFF AND MUL OR SWAP1 SSTORE POP PUSH1 0x40 DUP3 ADD MLOAD DUP2 PUSH1 0x2 ADD SSTORE POP POP DUP4 PUSH20 0xFFFFFFFFFFFFFFFFFFFFFFFFFFFFFFFFFFFFFFFF AND PUSH4 0x42842E0E CALLER DUP6 DUP6 PUSH1 0x40 MLOAD DUP5 PUSH4 0xFFFFFFFF AND PUSH1 0xE0 SHL DUP2 MSTORE PUSH1 0x4 ADD PUSH2 0xC8F SWAP4 SWAP3 SWAP2 SWAP1 PUSH2 0x17BA JUMP JUMPDEST PUSH0 PUSH1 0x40 MLOAD DUP1 DUP4 SUB DUP2 PUSH0 DUP8 DUP1 EXTCODESIZE ISZERO DUP1 ISZERO PUSH2 0xCA6 JUMPI PUSH0 PUSH0 REVERT JUMPDEST POP GAS CALL ISZERO DUP1 ISZERO PUSH2 0xCB8 JUMPI RETURNDATASIZE PUSH0 PUSH0 RETURNDATACOPY RETURNDATASIZE PUSH0 REVERT JUMPDEST POP POP POP POP DUP4 PUSH20 0xFFFFFFFFFFFFFFFFFFFFFFFFFFFFFFFFFFFFFFFF AND PUSH32 0x3F3E0CB0C8889648D91931EFA9D3F6D0D04ADFB07C856E6C4E09334339BEFE91 DUP5 DUP5 PUSH1 0x40 MLOAD PUSH2 0xD04 SWAP3 SWAP2 SWAP1 PUSH2 0x1808 JUMP JUMPDEST PUSH1 0x40 MLOAD DUP1 SWAP2 SUB SWAP1 LOG2 POP POP POP POP JUMP JUMPDEST PUSH0 PUSH0 SWAP1 SLOAD SWAP1 PUSH2 0x100 EXP SWAP1 DIV PUSH20 0xFFFFFFFFFFFFFFFFFFFFFFFFFFFFFFFFFFFFFFFF AND PUSH20 0xFFFFFFFFFFFFFFFFFFFFFFFFFFFFFFFFFFFFFFFF AND CALLER PUSH20 0xFFFFFFFFFFFFFFFFFFFFFFFFFFFFFFFFFFFFFFFF AND EQ PUSH2 0xDA0 JUMPI PUSH1 0x40 MLOAD PUSH32 0x8C379A000000000000000000000000000000000000000000000000000000000 DUP2 MSTORE PUSH1 0x4 ADD PUSH2 0xD97 SWAP1 PUSH2 0x1A31 JUMP JUMPDEST PUSH1 0x40 MLOAD DUP1 SWAP2 SUB SWAP1 REVERT JUMPDEST PUSH0 PUSH0 SWAP1 SLOAD SWAP1 PUSH2 0x100 EXP SWAP1 DIV PUSH20 0xFFFFFFFFFFFFFFFFFFFFFFFFFFFFFFFFFFFFFFFF AND PUSH20 0xFFFFFFFFFFFFFFFFFFFFFFFFFFFFFFFFFFFFFFFF AND PUSH2 0x8FC SELFBALANCE SWAP1 DUP2 ISZERO MUL SWAP1 PUSH1 0x40 MLOAD PUSH0 PUSH1 0x40 MLOAD DUP1 DUP4 SUB DUP2 DUP6 DUP9 DUP9 CALL SWAP4 POP POP POP POP ISZERO DUP1 ISZERO PUSH2 0xE03 JUMPI RETURNDATASIZE PUSH0 PUSH0 RETURNDATACOPY RETURNDATASIZE PUSH0 REVERT JUMPDEST POP JUMP JUMPDEST PUSH0 PUSH0 SWAP1 SLOAD SWAP1 PUSH2 0x100 EXP SWAP1 DIV PUSH20 0xFFFFFFFFFFFFFFFFFFFFFFFFFFFFFFFFFFFFFFFF AND PUSH20 0xFFFFFFFFFFFFFFFFFFFFFFFFFFFFFFFFFFFFFFFF AND CALLER PUSH20 0xFFFFFFFFFFFFFFFFFFFFFFFFFFFFFFFFFFFFFFFF AND EQ PUSH2 0xE94 JUMPI PUSH1 0x40 MLOAD PUSH32 0x8C379A000000000000000000000000000000000000000000000000000000000 DUP2 MSTORE PUSH1 0x4 ADD PUSH2 0xE8B SWAP1 PUSH2 0x1A31 JUMP JUMPDEST PUSH1 0x40 MLOAD DUP1 SWAP2 SUB SWAP1 REVERT JUMPDEST PUSH0 PUSH1 0x1 PUSH0 DUP4 PUSH20 0xFFFFFFFFFFFFFFFFFFFFFFFFFFFFFFFFFFFFFFFF AND PUSH20 0xFFFFFFFFFFFFFFFFFFFFFFFFFFFFFFFFFFFFFFFF AND DUP2 MSTORE PUSH1 0x20 ADD SWAP1 DUP2 MSTORE PUSH1 0x20 ADD PUSH0 KECCAK256 PUSH0 PUSH2 0x100 EXP DUP2 SLOAD DUP2 PUSH1 0xFF MUL NOT AND SWAP1 DUP4 ISZERO ISZERO MUL OR SWAP1 SSTORE POP PUSH1 0x2 PUSH0 DUP3 PUSH20 0xFFFFFFFFFFFFFFFFFFFFFFFFFFFFFFFFFFFFFFFF AND PUSH20 0xFFFFFFFFFFFFFFFFFFFFFFFFFFFFFFFFFFFFFFFF AND DUP2 MSTORE PUSH1 0x20 ADD SWAP1 DUP2 MSTORE PUSH1 0x20 ADD PUSH0 KECCAK256 PUSH0 PUSH0 DUP3 ADD PUSH0 PUSH2 0x100 EXP DUP2 SLOAD SWAP1 PUSH20 0xFFFFFFFFFFFFFFFFFFFFFFFFFFFFFFFFFFFFFFFF MUL NOT AND SWAP1 SSTORE PUSH1 0x1 DUP3 ADD PUSH0 PUSH2 0x100 EXP DUP2 SLOAD SWAP1 PUSH20 0xFFFFFFFFFFFFFFFFFFFFFFFFFFFFFFFFFFFFFFFF MUL NOT AND SWAP1 SSTORE PUSH1 0x2 DUP3 ADD PUSH0 SWAP1 SSTORE POP POP POP JUMP JUMPDEST PUSH1 0x1 PUSH1 0x20 MSTORE DUP1 PUSH0 MSTORE PUSH1 0x40 PUSH0 KECCAK256 PUSH0 SWAP2 POP SLOAD SWAP1 PUSH2 0x100 EXP SWAP1 DIV PUSH1 0xFF AND DUP2 JUMP JUMPDEST PUSH1 0x2 PUSH1 0x20 MSTORE DUP1 PUSH0 MSTORE PUSH1 0x40 PUSH0 KECCAK256 PUSH0 SWAP2 POP SWAP1 POP DUP1 PUSH0 ADD PUSH0 SWAP1 SLOAD SWAP1 PUSH2 0x100 EXP SWAP1 DIV PUSH20 0xFFFFFFFFFFFFFFFFFFFFFFFFFFFFFFFFFFFFFFFF AND SWAP1 DUP1 PUSH1 0x1 ADD PUSH0 SWAP1 SLOAD SWAP1 PUSH2 0x100 EXP SWAP1 DIV PUSH20 0xFFFFFFFFFFFFFFFFFFFFFFFFFFFFFFFFFFFFFFFF AND SWAP1 DUP1 PUSH1 0x2 ADD SLOAD SWAP1 POP DUP4 JUMP JUMPDEST PUSH0 PUSH0 SWAP1 SLOAD SWAP1 PUSH2 0x100 EXP SWAP1 DIV PUSH20 0xFFFFFFFFFFFFFFFFFFFFFFFFFFFFFFFFFFFFFFFF AND PUSH20 0xFFFFFFFFFFFFFFFFFFFFFFFFFFFFFFFFFFFFFFFF AND CALLER PUSH20 0xFFFFFFFFFFFFFFFFFFFFFFFFFFFFFFFFFFFFFFFF AND EQ PUSH2 0x108C JUMPI PUSH1 0x40 MLOAD PUSH32 0x8C379A000000000000000000000000000000000000000000000000000000000 DUP2 MSTORE PUSH1 0x4 ADD PUSH2 0x1083 SWAP1 PUSH2 0x1A31 JUMP JUMPDEST PUSH1 0x40 MLOAD DUP1 SWAP2 SUB SWAP1 REVERT JUMPDEST PUSH0 PUSH20 0xFFFFFFFFFFFFFFFFFFFFFFFFFFFFFFFFFFFFFFFF AND DUP2 PUSH20 0xFFFFFFFFFFFFFFFFFFFFFFFFFFFFFFFFFFFFFFFF AND SUB PUSH2 0x10FA JUMPI PUSH1 0x40 MLOAD PUSH32 0x8C379A000000000000000000000000000000000000000000000000000000000 DUP2 MSTORE PUSH1 0x4 ADD PUSH2 0x10F1 SWAP1 PUSH2 0x1C66 JUMP JUMPDEST PUSH1 0x40 MLOAD DUP1 SWAP2 SUB SWAP1 REVERT JUMPDEST DUP1 PUSH0 PUSH0 PUSH2 0x100 EXP DUP2 SLOAD DUP2 PUSH20 0xFFFFFFFFFFFFFFFFFFFFFFFFFFFFFFFFFFFFFFFF MUL NOT AND SWAP1 DUP4 PUSH20 0xFFFFFFFFFFFFFFFFFFFFFFFFFFFFFFFFFFFFFFFF AND MUL OR SWAP1 SSTORE POP POP JUMP JUMPDEST PUSH0 PUSH0 SWAP1 SLOAD SWAP1 PUSH2 0x100 EXP SWAP1 DIV PUSH20 0xFFFFFFFFFFFFFFFFFFFFFFFFFFFFFFFFFFFFFFFF AND DUP2 JUMP JUMPDEST PUSH0 PUSH0 PUSH0 PUSH1 0x2 PUSH0 DUP6 PUSH20 0xFFFFFFFFFFFFFFFFFFFFFFFFFFFFFFFFFFFFFFFF AND PUSH20 0xFFFFFFFFFFFFFFFFFFFFFFFFFFFFFFFFFFFFFFFF AND DUP2 MSTORE PUSH1 0x20 ADD SWAP1 DUP2 MSTORE PUSH1 0x20 ADD PUSH0 KECCAK256 PUSH1 0x40 MLOAD DUP1 PUSH1 0x60 ADD PUSH1 0x40 MSTORE SWAP1 DUP2 PUSH0 DUP3 ADD PUSH0 SWAP1 SLOAD SWAP1 PUSH2 0x100 EXP SWAP1 DIV PUSH20 0xFFFFFFFFFFFFFFFFFFFFFFFFFFFFFFFFFFFFFFFF AND PUSH20 0xFFFFFFFFFFFFFFFFFFFFFFFFFFFFFFFFFFFFFFFF AND PUSH20 0xFFFFFFFFFFFFFFFFFFFFFFFFFFFFFFFFFFFFFFFF AND DUP2 MSTORE PUSH1 0x20 ADD PUSH1 0x1 DUP3 ADD PUSH0 SWAP1 SLOAD SWAP1 PUSH2 0x100 EXP SWAP1 DIV PUSH20 0xFFFFFFFFFFFFFFFFFFFFFFFFFFFFFFFFFFFFFFFF AND PUSH20 0xFFFFFFFFFFFFFFFFFFFFFFFFFFFFFFFFFFFFFFFF AND PUSH20 0xFFFFFFFFFFFFFFFFFFFFFFFFFFFFFFFFFFFFFFFF AND DUP2 MSTORE PUSH1 0x20 ADD PUSH1 0x2 DUP3 ADD SLOAD DUP2 MSTORE POP POP SWAP1 POP DUP1 PUSH1 0x20 ADD MLOAD DUP2 PUSH1 0x40 ADD MLOAD SWAP3 POP SWAP3 POP POP SWAP2 POP SWAP2 JUMP JUMPDEST PUSH1 0x3 DUP2 DUP2 SLOAD DUP2 LT PUSH2 0x1283 JUMPI PUSH0 DUP1 REVERT JUMPDEST SWAP1 PUSH0 MSTORE PUSH1 0x20 PUSH0 KECCAK256 SWAP1 PUSH1 0x3 MUL ADD PUSH0 SWAP2 POP SWAP1 POP DUP1 PUSH0 ADD PUSH0 SWAP1 SLOAD SWAP1 PUSH2 0x100 EXP SWAP1 DIV PUSH20 0xFFFFFFFFFFFFFFFFFFFFFFFFFFFFFFFFFFFFFFFF AND SWAP1 DUP1 PUSH1 0x1 ADD PUSH0 SWAP1 SLOAD SWAP1 PUSH2 0x100 EXP SWAP1 DIV PUSH20 0xFFFFFFFFFFFFFFFFFFFFFFFFFFFFFFFFFFFFFFFF AND SWAP1 DUP1 PUSH1 0x2 ADD SLOAD SWAP1 POP DUP4 JUMP JUMPDEST PUSH0 PUSH1 0x3 DUP1 SLOAD SWAP1 POP SWAP1 POP SWAP1 JUMP JUMPDEST PUSH1 0x60 PUSH0 DUP3 DUP5 PUSH2 0x1302 SWAP2 SWAP1 PUSH2 0x1CB1 JUMP JUMPDEST SWAP1 POP PUSH1 0x3 DUP1 SLOAD SWAP1 POP DUP2 GT ISZERO PUSH2 0x131A JUMPI PUSH1 0x3 DUP1 SLOAD SWAP1 POP SWAP1 POP JUMPDEST PUSH0 DUP5 DUP3 PUSH2 0x1327 SWAP2 SWAP1 PUSH2 0x1CE4 JUMP JUMPDEST PUSH8 0xFFFFFFFFFFFFFFFF DUP2 GT ISZERO PUSH2 0x1340 JUMPI PUSH2 0x133F PUSH2 0x1D17 JUMP JUMPDEST JUMPDEST PUSH1 0x40 MLOAD SWAP1 DUP1 DUP3 MSTORE DUP1 PUSH1 0x20 MUL PUSH1 0x20 ADD DUP3 ADD PUSH1 0x40 MSTORE DUP1 ISZERO PUSH2 0x1379 JUMPI DUP2 PUSH1 0x20 ADD JUMPDEST PUSH2 0x1366 PUSH2 0x14A9 JUMP JUMPDEST DUP2 MSTORE PUSH1 0x20 ADD SWAP1 PUSH1 0x1 SWAP1 SUB SWAP1 DUP2 PUSH2 0x135E JUMPI SWAP1 POP JUMPDEST POP SWAP1 POP PUSH0 DUP6 SWAP1 POP JUMPDEST DUP3 DUP2 LT ISZERO PUSH2 0x149D JUMPI PUSH1 0x3 DUP2 DUP2 SLOAD DUP2 LT PUSH2 0x139D JUMPI PUSH2 0x139C PUSH2 0x1AB7 JUMP JUMPDEST JUMPDEST SWAP1 PUSH0 MSTORE PUSH1 0x20 PUSH0 KECCAK256 SWAP1 PUSH1 0x3 MUL ADD PUSH1 0x40 MLOAD DUP1 PUSH1 0x60 ADD PUSH1 0x40 MSTORE SWAP1 DUP2 PUSH0 DUP3 ADD PUSH0 SWAP1 SLOAD SWAP1 PUSH2 0x100 EXP SWAP1 DIV PUSH20 0xFFFFFFFFFFFFFFFFFFFFFFFFFFFFFFFFFFFFFFFF AND PUSH20 0xFFFFFFFFFFFFFFFFFFFFFFFFFFFFFFFFFFFFFFFF AND PUSH20 0xFFFFFFFFFFFFFFFFFFFFFFFFFFFFFFFFFFFFFFFF AND DUP2 MSTORE PUSH1 0x20 ADD PUSH1 0x1 DUP3 ADD PUSH0 SWAP1 SLOAD SWAP1 PUSH2 0x100 EXP SWAP1 DIV PUSH20 0xFFFFFFFFFFFFFFFFFFFFFFFFFFFFFFFFFFFFFFFF AND PUSH20 0xFFFFFFFFFFFFFFFFFFFFFFFFFFFFFFFFFFFFFFFF AND PUSH20 0xFFFFFFFFFFFFFFFFFFFFFFFFFFFFFFFFFFFFFFFF AND DUP2 MSTORE PUSH1 0x20 ADD PUSH1 0x2 DUP3 ADD SLOAD DUP2 MSTORE POP POP DUP3 DUP8 DUP4 PUSH2 0x1474 SWAP2 SWAP1 PUSH2 0x1CE4 JUMP JUMPDEST DUP2 MLOAD DUP2 LT PUSH2 0x1485 JUMPI PUSH2 0x1484 PUSH2 0x1AB7 JUMP JUMPDEST JUMPDEST PUSH1 0x20 MUL PUSH1 0x20 ADD ADD DUP2 SWAP1 MSTORE POP DUP1 DUP1 PUSH1 0x1 ADD SWAP2 POP POP PUSH2 0x1381 JUMP JUMPDEST POP DUP1 SWAP3 POP POP POP SWAP3 SWAP2 POP POP JUMP JUMPDEST PUSH1 0x40 MLOAD DUP1 PUSH1 0x60 ADD PUSH1 0x40 MSTORE DUP1 PUSH0 PUSH20 0xFFFFFFFFFFFFFFFFFFFFFFFFFFFFFFFFFFFFFFFF AND DUP2 MSTORE PUSH1 0x20 ADD PUSH0 PUSH20 0xFFFFFFFFFFFFFFFFFFFFFFFFFFFFFFFFFFFFFFFF AND DUP2 MSTORE PUSH1 0x20 ADD PUSH0 DUP2 MSTORE POP SWAP1 JUMP JUMPDEST PUSH0 PUSH0 REVERT JUMPDEST PUSH0 PUSH0 REVERT JUMPDEST PUSH0 PUSH0 REVERT JUMPDEST PUSH0 PUSH0 REVERT JUMPDEST PUSH0 PUSH0 REVERT JUMPDEST PUSH0 PUSH0 DUP4 PUSH1 0x1F DUP5 ADD SLT PUSH2 0x151C JUMPI PUSH2 0x151B PUSH2 0x14FB JUMP JUMPDEST JUMPDEST DUP3 CALLDATALOAD SWAP1 POP PUSH8 0xFFFFFFFFFFFFFFFF DUP2 GT ISZERO PUSH2 0x1539 JUMPI PUSH2 0x1538 PUSH2 0x14FF JUMP JUMPDEST JUMPDEST PUSH1 0x20 DUP4 ADD SWAP2 POP DUP4 PUSH1 0x20 DUP3 MUL DUP4 ADD GT ISZERO PUSH2 0x1555 JUMPI PUSH2 0x1554 PUSH2 0x1503 JUMP JUMPDEST JUMPDEST SWAP3 POP SWAP3 SWAP1 POP JUMP JUMPDEST PUSH0 PUSH0 DUP4 PUSH1 0x1F DUP5 ADD SLT PUSH2 0x1571 JUMPI PUSH2 0x1570 PUSH2 0x14FB JUMP JUMPDEST JUMPDEST DUP3 CALLDATALOAD SWAP1 POP PUSH8 0xFFFFFFFFFFFFFFFF DUP2 GT ISZERO PUSH2 0x158E JUMPI PUSH2 0x158D PUSH2 0x14FF JUMP JUMPDEST JUMPDEST PUSH1 0x20 DUP4 ADD SWAP2 POP DUP4 PUSH1 0x20 DUP3 MUL DUP4 ADD GT ISZERO PUSH2 0x15AA JUMPI PUSH2 0x15A9 PUSH2 0x1503 JUMP JUMPDEST JUMPDEST SWAP3 POP SWAP3 SWAP1 POP JUMP JUMPDEST PUSH0 PUSH0 PUSH0 PUSH0 PUSH0 PUSH0 PUSH1 0x60 DUP8 DUP10 SUB SLT ISZERO PUSH2 0x15CB JUMPI PUSH2 0x15CA PUSH2 0x14F3 JUMP JUMPDEST JUMPDEST PUSH0 DUP8 ADD CALLDATALOAD PUSH8 0xFFFFFFFFFFFFFFFF DUP2 GT ISZERO PUSH2 0x15E8 JUMPI PUSH2 0x15E7 PUSH2 0x14F7 JUMP JUMPDEST JUMPDEST PUSH2 0x15F4 DUP10 DUP3 DUP11 ADD PUSH2 0x1507 JUMP JUMPDEST SWAP7 POP SWAP7 POP POP PUSH1 0x20 DUP8 ADD CALLDATALOAD PUSH8 0xFFFFFFFFFFFFFFFF DUP2 GT ISZERO PUSH2 0x1617 JUMPI PUSH2 0x1616 PUSH2 0x14F7 JUMP JUMPDEST JUMPDEST PUSH2 0x1623 DUP10 DUP3 DUP11 ADD PUSH2 0x1507 JUMP JUMPDEST SWAP5 POP SWAP5 POP POP PUSH1 0x40 DUP8 ADD CALLDATALOAD PUSH8 0xFFFFFFFFFFFFFFFF DUP2 GT ISZERO PUSH2 0x1646 JUMPI PUSH2 0x1645 PUSH2 0x14F7 JUMP JUMPDEST JUMPDEST PUSH2 0x1652 DUP10 DUP3 DUP11 ADD PUSH2 0x155C JUMP JUMPDEST SWAP3 POP SWAP3 POP POP SWAP3 SWAP6 POP SWAP3 SWAP6 POP SWAP3 SWAP6 JUMP JUMPDEST PUSH0 PUSH20 0xFFFFFFFFFFFFFFFFFFFFFFFFFFFFFFFFFFFFFFFF DUP3 AND SWAP1 POP SWAP2 SWAP1 POP JUMP JUMPDEST PUSH0 PUSH2 0x168A DUP3 PUSH2 0x1661 JUMP JUMPDEST SWAP1 POP SWAP2 SWAP1 POP JUMP JUMPDEST PUSH2 0x169A DUP2 PUSH2 0x1680 JUMP JUMPDEST DUP2 EQ PUSH2 0x16A4 JUMPI PUSH0 PUSH0 REVERT JUMPDEST POP JUMP JUMPDEST PUSH0 DUP2 CALLDATALOAD SWAP1 POP PUSH2 0x16B5 DUP2 PUSH2 0x1691 JUMP JUMPDEST SWAP3 SWAP2 POP POP JUMP JUMPDEST PUSH0 DUP2 SWAP1 POP SWAP2 SWAP1 POP JUMP JUMPDEST PUSH2 0x16CD DUP2 PUSH2 0x16BB JUMP JUMPDEST DUP2 EQ PUSH2 0x16D7 JUMPI PUSH0 PUSH0 REVERT JUMPDEST POP JUMP JUMPDEST PUSH0 DUP2 CALLDATALOAD SWAP1 POP PUSH2 0x16E8 DUP2 PUSH2 0x16C4 JUMP JUMPDEST SWAP3 SWAP2 POP POP JUMP JUMPDEST PUSH0 PUSH0 PUSH0 PUSH1 0x60 DUP5 DUP7 SUB SLT ISZERO PUSH2 0x1705 JUMPI PUSH2 0x1704 PUSH2 0x14F3 JUMP JUMPDEST JUMPDEST PUSH0 PUSH2 0x1712 DUP7 DUP3 DUP8 ADD PUSH2 0x16A7 JUMP JUMPDEST SWAP4 POP POP PUSH1 0x20 PUSH2 0x1723 DUP7 DUP3 DUP8 ADD PUSH2 0x16A7 JUMP JUMPDEST SWAP3 POP POP PUSH1 0x40 PUSH2 0x1734 DUP7 DUP3 DUP8 ADD PUSH2 0x16DA JUMP JUMPDEST SWAP2 POP POP SWAP3 POP SWAP3 POP SWAP3 JUMP JUMPDEST PUSH0 PUSH1 0x20 DUP3 DUP5 SUB SLT ISZERO PUSH2 0x1753 JUMPI PUSH2 0x1752 PUSH2 0x14F3 JUMP JUMPDEST JUMPDEST PUSH0 PUSH2 0x1760 DUP5 DUP3 DUP6 ADD PUSH2 0x16A7 JUMP JUMPDEST SWAP2 POP POP SWAP3 SWAP2 POP POP JUMP JUMPDEST PUSH0 DUP2 ISZERO ISZERO SWAP1 POP SWAP2 SWAP1 POP JUMP JUMPDEST PUSH2 0x177D DUP2 PUSH2 0x1769 JUMP JUMPDEST DUP3 MSTORE POP POP JUMP JUMPDEST PUSH0 PUSH1 0x20 DUP3 ADD SWAP1 POP PUSH2 0x1796 PUSH0 DUP4 ADD DUP5 PUSH2 0x1774 JUMP JUMPDEST SWAP3 SWAP2 POP POP JUMP JUMPDEST PUSH2 0x17A5 DUP2 PUSH2 0x1680 JUMP JUMPDEST DUP3 MSTORE POP POP JUMP JUMPDEST PUSH2 0x17B4 DUP2 PUSH2 0x16BB JUMP JUMPDEST DUP3 MSTORE POP POP JUMP JUMPDEST PUSH0 PUSH1 0x60 DUP3 ADD SWAP1 POP PUSH2 0x17CD PUSH0 DUP4 ADD DUP7 PUSH2 0x179C JUMP JUMPDEST PUSH2 0x17DA PUSH1 0x20 DUP4 ADD DUP6 PUSH2 0x179C JUMP JUMPDEST PUSH2 0x17E7 PUSH1 0x40 DUP4 ADD DUP5 PUSH2 0x17AB JUMP JUMPDEST SWAP5 SWAP4 POP POP POP POP JUMP JUMPDEST PUSH0 PUSH1 0x20 DUP3 ADD SWAP1 POP PUSH2 0x1802 PUSH0 DUP4 ADD DUP5 PUSH2 0x179C JUMP JUMPDEST SWAP3 SWAP2 POP POP JUMP JUMPDEST PUSH0 PUSH1 0x40 DUP3 ADD SWAP1 POP PUSH2 0x181B PUSH0 DUP4 ADD DUP6 PUSH2 0x179C JUMP JUMPDEST PUSH2 0x1828 PUSH1 0x20 DUP4 ADD DUP5 PUSH2 0x17AB JUMP JUMPDEST SWAP4 SWAP3 POP POP POP JUMP JUMPDEST PUSH0 PUSH1 0x20 DUP3 DUP5 SUB SLT ISZERO PUSH2 0x1844 JUMPI PUSH2 0x1843 PUSH2 0x14F3 JUMP JUMPDEST JUMPDEST PUSH0 PUSH2 0x1851 DUP5 DUP3 DUP6 ADD PUSH2 0x16DA JUMP JUMPDEST SWAP2 POP POP SWAP3 SWAP2 POP POP JUMP JUMPDEST PUSH0 PUSH1 0x20 DUP3 ADD SWAP1 POP PUSH2 0x186D PUSH0 DUP4 ADD DUP5 PUSH2 0x17AB JUMP JUMPDEST SWAP3 SWAP2 POP POP JUMP JUMPDEST PUSH0 PUSH0 PUSH1 0x40 DUP4 DUP6 SUB SLT ISZERO PUSH2 0x1889 JUMPI PUSH2 0x1888 PUSH2 0x14F3 JUMP JUMPDEST JUMPDEST PUSH0 PUSH2 0x1896 DUP6 DUP3 DUP7 ADD PUSH2 0x16DA JUMP JUMPDEST SWAP3 POP POP PUSH1 0x20 PUSH2 0x18A7 DUP6 DUP3 DUP7 ADD PUSH2 0x16DA JUMP JUMPDEST SWAP2 POP POP SWAP3 POP SWAP3 SWAP1 POP JUMP JUMPDEST PUSH0 DUP2 MLOAD SWAP1 POP SWAP2 SWAP1 POP JUMP JUMPDEST PUSH0 DUP3 DUP3 MSTORE PUSH1 0x20 DUP3 ADD SWAP1 POP SWAP3 SWAP2 POP POP JUMP JUMPDEST PUSH0 DUP2 SWAP1 POP PUSH1 0x20 DUP3 ADD SWAP1 POP SWAP2 SWAP1 POP JUMP JUMPDEST PUSH2 0x18E3 DUP2 PUSH2 0x1680 JUMP JUMPDEST DUP3 MSTORE POP POP JUMP JUMPDEST PUSH2 0x18F2 DUP2 PUSH2 0x16BB JUMP JUMPDEST DUP3 MSTORE POP POP JUMP JUMPDEST PUSH1 0x60 DUP3 ADD PUSH0 DUP3 ADD MLOAD PUSH2 0x190C PUSH0 DUP6 ADD DUP3 PUSH2 0x18DA JUMP JUMPDEST POP PUSH1 0x20 DUP3 ADD MLOAD PUSH2 0x191F PUSH1 0x20 DUP6 ADD DUP3 PUSH2 0x18DA JUMP JUMPDEST POP PUSH1 0x40 DUP3 ADD MLOAD PUSH2 0x1932 PUSH1 0x40 DUP6 ADD DUP3 PUSH2 0x18E9 JUMP JUMPDEST POP POP POP POP JUMP JUMPDEST PUSH0 PUSH2 0x1943 DUP4 DUP4 PUSH2 0x18F8 JUMP JUMPDEST PUSH1 0x60 DUP4 ADD SWAP1 POP SWAP3 SWAP2 POP POP JUMP JUMPDEST PUSH0 PUSH1 0x20 DUP3 ADD SWAP1 POP SWAP2 SWAP1 POP JUMP JUMPDEST PUSH0 PUSH2 0x1965 DUP3 PUSH2 0x18B1 JUMP JUMPDEST PUSH2 0x196F DUP2 DUP6 PUSH2 0x18BB JUMP JUMPDEST SWAP4 POP PUSH2 0x197A DUP4 PUSH2 0x18CB JUMP JUMPDEST DUP1 PUSH0 JUMPDEST DUP4 DUP2 LT ISZERO PUSH2 0x19AA JUMPI DUP2 MLOAD PUSH2 0x1991 DUP9 DUP3 PUSH2 0x1938 JUMP JUMPDEST SWAP8 POP PUSH2 0x199C DUP4 PUSH2 0x194F JUMP JUMPDEST SWAP3 POP POP PUSH1 0x1 DUP2 ADD SWAP1 POP PUSH2 0x197D JUMP JUMPDEST POP DUP6 SWAP4 POP POP POP POP SWAP3 SWAP2 POP POP JUMP JUMPDEST PUSH0 PUSH1 0x20 DUP3 ADD SWAP1 POP DUP2 DUP2 SUB PUSH0 DUP4 ADD MSTORE PUSH2 0x19CF DUP2 DUP5 PUSH2 0x195B JUMP JUMPDEST SWAP1 POP SWAP3 SWAP2 POP POP JUMP JUMPDEST PUSH0 DUP3 DUP3 MSTORE PUSH1 0x20 DUP3 ADD SWAP1 POP SWAP3 SWAP2 POP POP JUMP JUMPDEST PUSH32 0x4E6F7420617574686F72697A6564000000000000000000000000000000000000 PUSH0 DUP3 ADD MSTORE POP JUMP JUMPDEST PUSH0 PUSH2 0x1A1B PUSH1 0xE DUP4 PUSH2 0x19D7 JUMP JUMPDEST SWAP2 POP PUSH2 0x1A26 DUP3 PUSH2 0x19E7 JUMP JUMPDEST PUSH1 0x20 DUP3 ADD SWAP1 POP SWAP2 SWAP1 POP JUMP JUMPDEST PUSH0 PUSH1 0x20 DUP3 ADD SWAP1 POP DUP2 DUP2 SUB PUSH0 DUP4 ADD MSTORE PUSH2 0x1A48 DUP2 PUSH2 0x1A0F JUMP JUMPDEST SWAP1 POP SWAP2 SWAP1 POP JUMP JUMPDEST PUSH32 0x4172726179206C656E67746873206D69736D6174636800000000000000000000 PUSH0 DUP3 ADD MSTORE POP JUMP JUMPDEST PUSH0 PUSH2 0x1A83 PUSH1 0x16 DUP4 PUSH2 0x19D7 JUMP JUMPDEST SWAP2 POP PUSH2 0x1A8E DUP3 PUSH2 0x1A4F JUMP JUMPDEST PUSH1 0x20 DUP3 ADD SWAP1 POP SWAP2 SWAP1 POP JUMP JUMPDEST PUSH0 PUSH1 0x20 DUP3 ADD SWAP1 POP DUP2 DUP2 SUB PUSH0 DUP4 ADD MSTORE PUSH2 0x1AB0 DUP2 PUSH2 0x1A77 JUMP JUMPDEST SWAP1 POP SWAP2 SWAP1 POP JUMP JUMPDEST PUSH32 0x4E487B7100000000000000000000000000000000000000000000000000000000 PUSH0 MSTORE PUSH1 0x32 PUSH1 0x4 MSTORE PUSH1 0x24 PUSH0 REVERT JUMPDEST PUSH32 0x496E76616C6964204E465420636F6E7472616374206164647265737300000000 PUSH0 DUP3 ADD MSTORE POP JUMP JUMPDEST PUSH0 PUSH2 0x1B18 PUSH1 0x1C DUP4 PUSH2 0x19D7 JUMP JUMPDEST SWAP2 POP PUSH2 0x1B23 DUP3 PUSH2 0x1AE4 JUMP JUMPDEST PUSH1 0x20 DUP3 ADD SWAP1 POP SWAP2 SWAP1 POP JUMP JUMPDEST PUSH0 PUSH1 0x20 DUP3 ADD SWAP1 POP DUP2 DUP2 SUB PUSH0 DUP4 ADD MSTORE PUSH2 0x1B45 DUP2 PUSH2 0x1B0C JUMP JUMPDEST SWAP1 POP SWAP2 SWAP1 POP JUMP JUMPDEST PUSH32 0x496E76616C696420726563697069656E74000000000000000000000000000000 PUSH0 DUP3 ADD MSTORE POP JUMP JUMPDEST PUSH0 PUSH2 0x1B80 PUSH1 0x11 DUP4 PUSH2 0x19D7 JUMP JUMPDEST SWAP2 POP PUSH2 0x1B8B DUP3 PUSH2 0x1B4C JUMP JUMPDEST PUSH1 0x20 DUP3 ADD SWAP1 POP SWAP2 SWAP1 POP JUMP JUMPDEST PUSH0 PUSH1 0x20 DUP3 ADD SWAP1 POP DUP2 DUP2 SUB PUSH0 DUP4 ADD MSTORE PUSH2 0x1BAD DUP2 PUSH2 0x1B74 JUMP JUMPDEST SWAP1 POP SWAP2 SWAP1 POP JUMP JUMPDEST PUSH32 0x416C72656164792061697264726F707065640000000000000000000000000000 PUSH0 DUP3 ADD MSTORE POP JUMP JUMPDEST PUSH0 PUSH2 0x1BE8 PUSH1 0x12 DUP4 PUSH2 0x19D7 JUMP JUMPDEST SWAP2 POP PUSH2 0x1BF3 DUP3 PUSH2 0x1BB4 JUMP JUMPDEST PUSH1 0x20 DUP3 ADD SWAP1 POP SWAP2 SWAP1 POP JUMP JUMPDEST PUSH0 PUSH1 0x20 DUP3 ADD SWAP1 POP DUP2 DUP2 SUB PUSH0 DUP4 ADD MSTORE PUSH2 0x1C15 DUP2 PUSH2 0x1BDC JUMP JUMPDEST SWAP1 POP SWAP2 SWAP1 POP JUMP JUMPDEST PUSH32 0x5A65726F20616464726573730000000000000000000000000000000000000000 PUSH0 DUP3 ADD MSTORE POP JUMP JUMPDEST PUSH0 PUSH2 0x1C50 PUSH1 0xC DUP4 PUSH2 0x19D7 JUMP JUMPDEST SWAP2 POP PUSH2 0x1C5B DUP3 PUSH2 0x1C1C JUMP JUMPDEST PUSH1 0x20 DUP3 ADD SWAP1 POP SWAP2 SWAP1 POP JUMP JUMPDEST PUSH0 PUSH1 0x20 DUP3 ADD SWAP1 POP DUP2 DUP2 SUB PUSH0 DUP4 ADD MSTORE PUSH2 0x1C7D DUP2 PUSH2 0x1C44 JUMP JUMPDEST SWAP1 POP SWAP2 SWAP1 POP JUMP JUMPDEST PUSH32 0x4E487B7100000000000000000000000000000000000000000000000000000000 PUSH0 MSTORE PUSH1 0x11 PUSH1 0x4 MSTORE PUSH1 0x24 PUSH0 REVERT JUMPDEST PUSH0 PUSH2 0x1CBB DUP3 PUSH2 0x16BB JUMP JUMPDEST SWAP2 POP PUSH2 0x1CC6 DUP4 PUSH2 0x16BB JUMP JUMPDEST SWAP3 POP DUP3 DUP3 ADD SWAP1 POP DUP1 DUP3 GT ISZERO PUSH2 0x1CDE JUMPI PUSH2 0x1CDD PUSH2 0x1C84 JUMP JUMPDEST JUMPDEST SWAP3 SWAP2 POP POP JUMP JUMPDEST PUSH0 PUSH2 0x1CEE DUP3 PUSH2 0x16BB JUMP JUMPDEST SWAP2 POP PUSH2 0x1CF9 DUP4 PUSH2 0x16BB JUMP JUMPDEST SWAP3 POP DUP3 DUP3 SUB SWAP1 POP DUP2 DUP2 GT ISZERO PUSH2 0x1D11 JUMPI PUSH2 0x1D10 PUSH2 0x1C84 JUMP JUMPDEST JUMPDEST SWAP3 SWAP2 POP POP JUMP JUMPDEST PUSH32 0x4E487B7100000000000000000000000000000000000000000000000000000000 PUSH0 MSTORE PUSH1 0x41 PUSH1 0x4 MSTORE PUSH1 0x24 PUSH0 REVERT INVALID LOG2 PUSH5 0x6970667358 0x22 SLT KECCAK256 PUSH19 0xC77A4DCB4450D74D71C20E64556743F604D2A8 RETURN 0x2B 0xA7 DUP12 DUP16 SIGNEXTEND PUSH12 0x7261291FED64736F6C634300 ADDMOD 0x1E STOP CALLER "
				},
				"gasEstimates": {
					"creation": {
						"codeDepositCost": "1509200",
						"executionCost": "25837",
						"totalCost": "1535037"
					},
					"external": {
						"airdrop(address,address,uint256)": "infinite",
						"allAirdrops(uint256)": "infinite",
						"bulkAirdrop(address[],address[],uint256[])": "infinite",
						"getAllAirdrops(uint256,uint256)": "infinite",
						"getUserAirdrop(address)": "infinite",
						"hasClaimed(address)": "2922",
						"owner()": "2529",
						"resetClaim(address)": "80641",
						"totalAirdropped()": "2528",
						"updateOwner(address)": "26916",
						"userAirdrops(address)": "infinite",
						"withdraw()": "infinite"
					}
				},
				"methodIdentifiers": {
					"airdrop(address,address,uint256)": "1822eb70",
					"allAirdrops(uint256)": "cd56beed",
					"bulkAirdrop(address[],address[],uint256[])": "146df43d",
					"getAllAirdrops(uint256,uint256)": "ed7f07ea",
					"getUserAirdrop(address)": "a5cbb928",
					"hasClaimed(address)": "73b2e80e",
					"owner()": "8da5cb5b",
					"resetClaim(address)": "700805e3",
					"totalAirdropped()": "ce678580",
					"updateOwner(address)": "880cdc31",
					"userAirdrops(address)": "78af9931",
					"withdraw()": "3ccfd60b"
				}
			},
			"storageLayout": {
				"storage": [
					{
						"astId": 13,
						"contract": "airdropnft.sol:MultiNFTAirdrop",
						"label": "owner",
						"offset": 0,
						"slot": "0",
						"type": "t_address"
					},
					{
						"astId": 24,
						"contract": "airdropnft.sol:MultiNFTAirdrop",
						"label": "hasClaimed",
						"offset": 0,
						"slot": "1",
						"type": "t_mapping(t_address,t_bool)"
					},
					{
						"astId": 29,
						"contract": "airdropnft.sol:MultiNFTAirdrop",
						"label": "userAirdrops",
						"offset": 0,
						"slot": "2",
						"type": "t_mapping(t_address,t_struct(AirdropInfo)20_storage)"
					},
					{
						"astId": 33,
						"contract": "airdropnft.sol:MultiNFTAirdrop",
						"label": "allAirdrops",
						"offset": 0,
						"slot": "3",
						"type": "t_array(t_struct(AirdropInfo)20_storage)dyn_storage"
					}
				],
				"types": {
					"t_address": {
						"encoding": "inplace",
						"label": "address",
						"numberOfBytes": "20"
					},
					"t_array(t_struct(AirdropInfo)20_storage)dyn_storage": {
						"base": "t_struct(AirdropInfo)20_storage",
						"encoding": "dynamic_array",
						"label": "struct MultiNFTAirdrop.AirdropInfo[]",
						"numberOfBytes": "32"
					},
					"t_bool": {
						"encoding": "inplace",
						"label": "bool",
						"numberOfBytes": "1"
					},
					"t_mapping(t_address,t_bool)": {
						"encoding": "mapping",
						"key": "t_address",
						"label": "mapping(address => bool)",
						"numberOfBytes": "32",
						"value": "t_bool"
					},
					"t_mapping(t_address,t_struct(AirdropInfo)20_storage)": {
						"encoding": "mapping",
						"key": "t_address",
						"label": "mapping(address => struct MultiNFTAirdrop.AirdropInfo)",
						"numberOfBytes": "32",
						"value": "t_struct(AirdropInfo)20_storage"
					},
					"t_struct(AirdropInfo)20_storage": {
						"encoding": "inplace",
						"label": "struct MultiNFTAirdrop.AirdropInfo",
						"members": [
							{
								"astId": 15,
								"contract": "airdropnft.sol:MultiNFTAirdrop",
								"label": "recipient",
								"offset": 0,
								"slot": "0",
								"type": "t_address"
							},
							{
								"astId": 17,
								"contract": "airdropnft.sol:MultiNFTAirdrop",
								"label": "nftContract",
								"offset": 0,
								"slot": "1",
								"type": "t_address"
							},
							{
								"astId": 19,
								"contract": "airdropnft.sol:MultiNFTAirdrop",
								"label": "tokenId",
								"offset": 0,
								"slot": "2",
								"type": "t_uint256"
							}
						],
						"numberOfBytes": "96"
					},
					"t_uint256": {
						"encoding": "inplace",
						"label": "uint256",
						"numberOfBytes": "32"
					}
				}
			},
			"userdoc": {
				"kind": "user",
				"methods": {},
				"version": 1
			}
		}
	}
}