{
	"swap.sol": {
		"TokenSwap": {
			"abi": [
				{
					"inputs": [],
					"stateMutability": "nonpayable",
					"type": "constructor"
				},
				{
					"inputs": [
						{
							"internalType": "address",
							"name": "owner",
							"type": "address"
						}
					],
					"name": "OwnableInvalidOwner",
					"type": "error"
				},
				{
					"inputs": [
						{
							"internalType": "address",
							"name": "account",
							"type": "address"
						}
					],
					"name": "OwnableUnauthorizedAccount",
					"type": "error"
				},
				{
					"anonymous": false,
					"inputs": [
						{
							"indexed": false,
							"internalType": "string",
							"name": "from",
							"type": "string"
						},
						{
							"indexed": false,
							"internalType": "string",
							"name": "to",
							"type": "string"
						},
						{
							"indexed": false,
							"internalType": "uint256",
							"name": "rate",
							"type": "uint256"
						}
					],
					"name": "ExchangeRateSet",
					"type": "event"
				},
				{
					"anonymous": false,
					"inputs": [
						{
							"indexed": true,
							"internalType": "address",
							"name": "previousOwner",
							"type": "address"
						},
						{
							"indexed": true,
							"internalType": "address",
							"name": "newOwner",
							"type": "address"
						}
					],
					"name": "OwnershipTransferred",
					"type": "event"
				},
				{
					"anonymous": false,
					"inputs": [
						{
							"indexed": false,
							"internalType": "string",
							"name": "symbol",
							"type": "string"
						},
						{
							"indexed": false,
							"internalType": "address",
							"name": "tokenAddress",
							"type": "address"
						}
					],
					"name": "TokenAddressSet",
					"type": "event"
				},
				{
					"anonymous": false,
					"inputs": [
						{
							"indexed": true,
							"internalType": "address",
							"name": "user",
							"type": "address"
						},
						{
							"indexed": false,
							"internalType": "string",
							"name": "fromSymbol",
							"type": "string"
						},
						{
							"indexed": false,
							"internalType": "string",
							"name": "toSymbol",
							"type": "string"
						},
						{
							"indexed": false,
							"internalType": "uint256",
							"name": "fromAmount",
							"type": "uint256"
						},
						{
							"indexed": false,
							"internalType": "uint256",
							"name": "toAmount",
							"type": "uint256"
						}
					],
					"name": "TokenSwapped",
					"type": "event"
				},
				{
					"anonymous": false,
					"inputs": [
						{
							"indexed": false,
							"internalType": "address",
							"name": "token",
							"type": "address"
						},
						{
							"indexed": false,
							"internalType": "uint256",
							"name": "amount",
							"type": "uint256"
						}
					],
					"name": "TokenWithdrawn",
					"type": "event"
				},
				{
					"inputs": [
						{
							"internalType": "bytes32",
							"name": "",
							"type": "bytes32"
						}
					],
					"name": "exchangeRates",
					"outputs": [
						{
							"internalType": "uint256",
							"name": "",
							"type": "uint256"
						}
					],
					"stateMutability": "view",
					"type": "function"
				},
				{
					"inputs": [
						{
							"internalType": "string",
							"name": "from",
							"type": "string"
						},
						{
							"internalType": "string",
							"name": "to",
							"type": "string"
						},
						{
							"internalType": "uint256",
							"name": "amount",
							"type": "uint256"
						}
					],
					"name": "getExpectedOutput",
					"outputs": [
						{
							"internalType": "uint256",
							"name": "",
							"type": "uint256"
						}
					],
					"stateMutability": "view",
					"type": "function"
				},
				{
					"inputs": [
						{
							"internalType": "string",
							"name": "from",
							"type": "string"
						},
						{
							"internalType": "string",
							"name": "to",
							"type": "string"
						}
					],
					"name": "getPairKey",
					"outputs": [
						{
							"internalType": "bytes32",
							"name": "",
							"type": "bytes32"
						}
					],
					"stateMutability": "pure",
					"type": "function"
				},
				{
					"inputs": [
						{
							"internalType": "string",
							"name": "from",
							"type": "string"
						},
						{
							"internalType": "string",
							"name": "to",
							"type": "string"
						}
					],
					"name": "getRate",
					"outputs": [
						{
							"internalType": "uint256",
							"name": "",
							"type": "uint256"
						}
					],
					"stateMutability": "view",
					"type": "function"
				},
				{
					"inputs": [],
					"name": "owner",
					"outputs": [
						{
							"internalType": "address",
							"name": "",
							"type": "address"
						}
					],
					"stateMutability": "view",
					"type": "function"
				},
				{
					"inputs": [],
					"name": "renounceOwnership",
					"outputs": [],
					"stateMutability": "nonpayable",
					"type": "function"
				},
				{
					"inputs": [
						{
							"internalType": "string",
							"name": "from",
							"type": "string"
						},
						{
							"internalType": "string",
							"name": "to",
							"type": "string"
						},
						{
							"internalType": "uint256",
							"name": "rate",
							"type": "uint256"
						}
					],
					"name": "setExchangeRate",
					"outputs": [],
					"stateMutability": "nonpayable",
					"type": "function"
				},
				{
					"inputs": [
						{
							"internalType": "string",
							"name": "symbol",
							"type": "string"
						},
						{
							"internalType": "address",
							"name": "tokenAddress",
							"type": "address"
						}
					],
					"name": "setTokenAddress",
					"outputs": [],
					"stateMutability": "nonpayable",
					"type": "function"
				},
				{
					"inputs": [
						{
							"internalType": "string",
							"name": "from",
							"type": "string"
						},
						{
							"internalType": "string",
							"name": "to",
							"type": "string"
						},
						{
							"internalType": "uint256",
							"name": "amount",
							"type": "uint256"
						}
					],
					"name": "swap",
					"outputs": [],
					"stateMutability": "nonpayable",
					"type": "function"
				},
				{
					"inputs": [
						{
							"internalType": "string",
							"name": "",
							"type": "string"
						}
					],
					"name": "tokens",
					"outputs": [
						{
							"internalType": "contract IERC20Extended",
							"name": "",
							"type": "address"
						}
					],
					"stateMutability": "view",
					"type": "function"
				},
				{
					"inputs": [
						{
							"internalType": "address",
							"name": "newOwner",
							"type": "address"
						}
					],
					"name": "transferOwnership",
					"outputs": [],
					"stateMutability": "nonpayable",
					"type": "function"
				},
				{
					"inputs": [
						{
							"internalType": "address",
							"name": "tokenAddress",
							"type": "address"
						},
						{
							"internalType": "uint256",
							"name": "amount",
							"type": "uint256"
						}
					],
					"name": "withdrawToken",
					"outputs": [],
					"stateMutability": "nonpayable",
					"type": "function"
				}
			],
			"devdoc": {
				"errors": {
					"OwnableInvalidOwner(address)": [
						{
							"details": "The owner is not a valid owner account. (eg. `address(0)`)"
						}
					],
					"OwnableUnauthorizedAccount(address)": [
						{
							"details": "The caller account is not authorized to perform an operation."
						}
					]
				},
				"kind": "dev",
				"methods": {
					"owner()": {
						"details": "Returns the address of the current owner."
					},
					"renounceOwnership()": {
						"details": "Leaves the contract without owner. It will not be possible to call `onlyOwner` functions. Can only be called by the current owner. NOTE: Renouncing ownership will leave the contract without an owner, thereby disabling any functionality that is only available to the owner."
					},
					"transferOwnership(address)": {
						"details": "Transfers ownership of the contract to a new account (`newOwner`). Can only be called by the current owner."
					}
				},
				"version": 1
			},
			"evm": {
				"assembly": "    /* \"swap.sol\":327:4889  contract TokenSwap is ReentrancyGuard, Ownable {... */\n  mstore(0x40, 0x80)\n    /* \"swap.sol\":838:877  constructor () Ownable(msg.sender) {... */\n  callvalue\n  dup1\n  iszero\n  tag_1\n  jumpi\n  revert(0x00, 0x00)\ntag_1:\n  pop\n    /* \"swap.sol\":861:871  msg.sender */\n  caller\n    /* \"@openzeppelin/contracts/security/ReentrancyGuard.sol\":1716:1717  1 */\n  0x01\n    /* \"@openzeppelin/contracts/security/ReentrancyGuard.sol\":1821:1828  _status */\n  0x00\n    /* \"@openzeppelin/contracts/security/ReentrancyGuard.sol\":1821:1843  _status = _NOT_ENTERED */\n  dup2\n  swap1\n  sstore\n  pop\n    /* \"@openzeppelin/contracts/access/Ownable.sol\":1297:1298  0 */\n  0x00\n    /* \"@openzeppelin/contracts/access/Ownable.sol\":1273:1299  initialOwner == address(0) */\n  0xffffffffffffffffffffffffffffffffffffffff\n  and\n    /* \"@openzeppelin/contracts/access/Ownable.sol\":1273:1285  initialOwner */\n  dup2\n    /* \"@openzeppelin/contracts/access/Ownable.sol\":1273:1299  initialOwner == address(0) */\n  0xffffffffffffffffffffffffffffffffffffffff\n  and\n  sub\n    /* \"@openzeppelin/contracts/access/Ownable.sol\":1269:1364  if (initialOwner == address(0)) {... */\n  tag_7\n  jumpi\n    /* \"@openzeppelin/contracts/access/Ownable.sol\":1350:1351  0 */\n  0x00\n    /* \"@openzeppelin/contracts/access/Ownable.sol\":1322:1353  OwnableInvalidOwner(address(0)) */\n  mload(0x40)\n  0x1e4fbdf700000000000000000000000000000000000000000000000000000000\n  dup2\n  mstore\n  0x04\n  add\n  tag_8\n  swap2\n  swap1\n  tag_9\n  jump\t// in\ntag_8:\n  mload(0x40)\n  dup1\n  swap2\n  sub\n  swap1\n  revert\n    /* \"@openzeppelin/contracts/access/Ownable.sol\":1269:1364  if (initialOwner == address(0)) {... */\ntag_7:\n    /* \"@openzeppelin/contracts/access/Ownable.sol\":1373:1405  _transferOwnership(initialOwner) */\n  tag_10\n    /* \"@openzeppelin/contracts/access/Ownable.sol\":1392:1404  initialOwner */\n  dup2\n    /* \"@openzeppelin/contracts/access/Ownable.sol\":1373:1391  _transferOwnership */\n  shl(0x20, tag_11)\n    /* \"@openzeppelin/contracts/access/Ownable.sol\":1373:1405  _transferOwnership(initialOwner) */\n  0x20\n  shr\n  jump\t// in\ntag_10:\n    /* \"@openzeppelin/contracts/access/Ownable.sol\":1225:1412  constructor(address initialOwner) {... */\n  pop\n    /* \"swap.sol\":327:4889  contract TokenSwap is ReentrancyGuard, Ownable {... */\n  jump(tag_13)\n    /* \"@openzeppelin/contracts/access/Ownable.sol\":2912:3099  function _transferOwnership(address newOwner) internal virtual {... */\ntag_11:\n    /* \"@openzeppelin/contracts/access/Ownable.sol\":2985:3001  address oldOwner */\n  0x00\n    /* \"@openzeppelin/contracts/access/Ownable.sol\":3004:3010  _owner */\n  0x01\n  0x00\n  swap1\n  sload\n  swap1\n  0x0100\n  exp\n  swap1\n  div\n  0xffffffffffffffffffffffffffffffffffffffff\n  and\n    /* \"@openzeppelin/contracts/access/Ownable.sol\":2985:3010  address oldOwner = _owner */\n  swap1\n  pop\n    /* \"@openzeppelin/contracts/access/Ownable.sol\":3029:3037  newOwner */\n  dup2\n    /* \"@openzeppelin/contracts/access/Ownable.sol\":3020:3026  _owner */\n  0x01\n  0x00\n    /* \"@openzeppelin/contracts/access/Ownable.sol\":3020:3037  _owner = newOwner */\n  0x0100\n  exp\n  dup2\n  sload\n  dup2\n  0xffffffffffffffffffffffffffffffffffffffff\n  mul\n  not\n  and\n  swap1\n  dup4\n  0xffffffffffffffffffffffffffffffffffffffff\n  and\n  mul\n  or\n  swap1\n  sstore\n  pop\n    /* \"@openzeppelin/contracts/access/Ownable.sol\":3083:3091  newOwner */\n  dup2\n    /* \"@openzeppelin/contracts/access/Ownable.sol\":3052:3092  OwnershipTransferred(oldOwner, newOwner) */\n  0xffffffffffffffffffffffffffffffffffffffff\n  and\n    /* \"@openzeppelin/contracts/access/Ownable.sol\":3073:3081  oldOwner */\n  dup2\n    /* \"@openzeppelin/contracts/access/Ownable.sol\":3052:3092  OwnershipTransferred(oldOwner, newOwner) */\n  0xffffffffffffffffffffffffffffffffffffffff\n  and\n  0x8be0079c531659141344cd1fd0a4f28419497f9722a3daafe3b4186f6b6457e0\n  mload(0x40)\n  mload(0x40)\n  dup1\n  swap2\n  sub\n  swap1\n  log3\n    /* \"@openzeppelin/contracts/access/Ownable.sol\":2975:3099  {... */\n  pop\n    /* \"@openzeppelin/contracts/access/Ownable.sol\":2912:3099  function _transferOwnership(address newOwner) internal virtual {... */\n  pop\n  jump\t// out\n    /* \"#utility.yul\":7:133   */\ntag_15:\n    /* \"#utility.yul\":44:51   */\n  0x00\n    /* \"#utility.yul\":84:126   */\n  0xffffffffffffffffffffffffffffffffffffffff\n    /* \"#utility.yul\":77:82   */\n  dup3\n    /* \"#utility.yul\":73:127   */\n  and\n    /* \"#utility.yul\":62:127   */\n  swap1\n  pop\n    /* \"#utility.yul\":7:133   */\n  swap2\n  swap1\n  pop\n  jump\t// out\n    /* \"#utility.yul\":139:235   */\ntag_16:\n    /* \"#utility.yul\":176:183   */\n  0x00\n    /* \"#utility.yul\":205:229   */\n  tag_21\n    /* \"#utility.yul\":223:228   */\n  dup3\n    /* \"#utility.yul\":205:229   */\n  tag_15\n  jump\t// in\ntag_21:\n    /* \"#utility.yul\":194:229   */\n  swap1\n  pop\n    /* \"#utility.yul\":139:235   */\n  swap2\n  swap1\n  pop\n  jump\t// out\n    /* \"#utility.yul\":241:359   */\ntag_17:\n    /* \"#utility.yul\":328:352   */\n  tag_23\n    /* \"#utility.yul\":346:351   */\n  dup2\n    /* \"#utility.yul\":328:352   */\n  tag_16\n  jump\t// in\ntag_23:\n    /* \"#utility.yul\":323:326   */\n  dup3\n    /* \"#utility.yul\":316:353   */\n  mstore\n    /* \"#utility.yul\":241:359   */\n  pop\n  pop\n  jump\t// out\n    /* \"#utility.yul\":365:587   */\ntag_9:\n    /* \"#utility.yul\":458:462   */\n  0x00\n    /* \"#utility.yul\":496:498   */\n  0x20\n    /* \"#utility.yul\":485:494   */\n  dup3\n    /* \"#utility.yul\":481:499   */\n  add\n    /* \"#utility.yul\":473:499   */\n  swap1\n  pop\n    /* \"#utility.yul\":509:580   */\n  tag_25\n    /* \"#utility.yul\":577:578   */\n  0x00\n    /* \"#utility.yul\":566:575   */\n  dup4\n    /* \"#utility.yul\":562:579   */\n  add\n    /* \"#utility.yul\":553:559   */\n  dup5\n    /* \"#utility.yul\":509:580   */\n  tag_17\n  jump\t// in\ntag_25:\n    /* \"#utility.yul\":365:587   */\n  swap3\n  swap2\n  pop\n  pop\n  jump\t// out\n    /* \"swap.sol\":327:4889  contract TokenSwap is ReentrancyGuard, Ownable {... */\ntag_13:\n  dataSize(sub_0)\n  dup1\n  dataOffset(sub_0)\n  0x00\n  codecopy\n  0x00\n  return\nstop\n\nsub_0: assembly {\n        /* \"swap.sol\":327:4889  contract TokenSwap is ReentrancyGuard, Ownable {... */\n      mstore(0x40, 0x80)\n      callvalue\n      dup1\n      iszero\n      tag_1\n      jumpi\n      revert(0x00, 0x00)\n    tag_1:\n      pop\n      jumpi(tag_2, lt(calldatasize, 0x04))\n      shr(0xe0, calldataload(0x00))\n      dup1\n      0x8da5cb5b\n      gt\n      tag_15\n      jumpi\n      dup1\n      0x8da5cb5b\n      eq\n      tag_9\n      jumpi\n      dup1\n      0x9e281a98\n      eq\n      tag_10\n      jumpi\n      dup1\n      0xa451f602\n      eq\n      tag_11\n      jumpi\n      dup1\n      0xe3f2804f\n      eq\n      tag_12\n      jumpi\n      dup1\n      0xed4aa7c0\n      eq\n      tag_13\n      jumpi\n      dup1\n      0xf2fde38b\n      eq\n      tag_14\n      jumpi\n      jump(tag_2)\n    tag_15:\n      dup1\n      0x049b266a\n      eq\n      tag_3\n      jumpi\n      dup1\n      0x04c2320b\n      eq\n      tag_4\n      jumpi\n      dup1\n      0x17456e56\n      eq\n      tag_5\n      jumpi\n      dup1\n      0x31dd8eb8\n      eq\n      tag_6\n      jumpi\n      dup1\n      0x577a9fc5\n      eq\n      tag_7\n      jumpi\n      dup1\n      0x715018a6\n      eq\n      tag_8\n      jumpi\n    tag_2:\n      revert(0x00, 0x00)\n        /* \"swap.sol\":1162:1793  function setExchangeRate(string memory from, string memory to, uint256 rate) external onlyOwner {... */\n    tag_3:\n      tag_16\n      0x04\n      dup1\n      calldatasize\n      sub\n      dup2\n      add\n      swap1\n      tag_17\n      swap2\n      swap1\n      tag_18\n      jump\t// in\n    tag_17:\n      tag_19\n      jump\t// in\n    tag_16:\n      stop\n        /* \"swap.sol\":380:427  mapping(string => IERC20Extended) public tokens */\n    tag_4:\n      tag_20\n      0x04\n      dup1\n      calldatasize\n      sub\n      dup2\n      add\n      swap1\n      tag_21\n      swap2\n      swap1\n      tag_22\n      jump\t// in\n    tag_21:\n      tag_23\n      jump\t// in\n    tag_20:\n      mload(0x40)\n      tag_24\n      swap2\n      swap1\n      tag_25\n      jump\t// in\n    tag_24:\n      mload(0x40)\n      dup1\n      swap2\n      sub\n      swap1\n      return\n        /* \"swap.sol\":884:1156  function setTokenAddress(string memory symbol, address tokenAddress) external onlyOwner {... */\n    tag_5:\n      tag_26\n      0x04\n      dup1\n      calldatasize\n      sub\n      dup2\n      add\n      swap1\n      tag_27\n      swap2\n      swap1\n      tag_28\n      jump\t// in\n    tag_27:\n      tag_29\n      jump\t// in\n    tag_26:\n      stop\n        /* \"swap.sol\":4569:4718  function getPairKey(string memory from, string memory to) public pure returns (bytes32) {... */\n    tag_6:\n      tag_30\n      0x04\n      dup1\n      calldatasize\n      sub\n      dup2\n      add\n      swap1\n      tag_31\n      swap2\n      swap1\n      tag_32\n      jump\t// in\n    tag_31:\n      tag_33\n      jump\t// in\n    tag_30:\n      mload(0x40)\n      tag_34\n      swap2\n      swap1\n      tag_35\n      jump\t// in\n    tag_34:\n      mload(0x40)\n      dup1\n      swap2\n      sub\n      swap1\n      return\n        /* \"swap.sol\":433:481  mapping(bytes32 => uint256) public exchangeRates */\n    tag_7:\n      tag_36\n      0x04\n      dup1\n      calldatasize\n      sub\n      dup2\n      add\n      swap1\n      tag_37\n      swap2\n      swap1\n      tag_38\n      jump\t// in\n    tag_37:\n      tag_39\n      jump\t// in\n    tag_36:\n      mload(0x40)\n      tag_40\n      swap2\n      swap1\n      tag_41\n      jump\t// in\n    tag_40:\n      mload(0x40)\n      dup1\n      swap2\n      sub\n      swap1\n      return\n        /* \"@openzeppelin/contracts/access/Ownable.sol\":2293:2394  function renounceOwnership() public virtual onlyOwner {... */\n    tag_8:\n      tag_42\n      tag_43\n      jump\t// in\n    tag_42:\n      stop\n        /* \"@openzeppelin/contracts/access/Ownable.sol\":1638:1723  function owner() public view virtual returns (address) {... */\n    tag_9:\n      tag_44\n      tag_45\n      jump\t// in\n    tag_44:\n      mload(0x40)\n      tag_46\n      swap2\n      swap1\n      tag_47\n      jump\t// in\n    tag_46:\n      mload(0x40)\n      dup1\n      swap2\n      sub\n      swap1\n      return\n        /* \"swap.sol\":4325:4563  function withdrawToken(address tokenAddress, uint256 amount) external onlyOwner nonReentrant {... */\n    tag_10:\n      tag_48\n      0x04\n      dup1\n      calldatasize\n      sub\n      dup2\n      add\n      swap1\n      tag_49\n      swap2\n      swap1\n      tag_50\n      jump\t// in\n    tag_49:\n      tag_51\n      jump\t// in\n    tag_48:\n      stop\n        /* \"swap.sol\":1799:3270  function swap(string memory from, string memory to, uint256 amount) external nonReentrant {... */\n    tag_11:\n      tag_52\n      0x04\n      dup1\n      calldatasize\n      sub\n      dup2\n      add\n      swap1\n      tag_53\n      swap2\n      swap1\n      tag_18\n      jump\t// in\n    tag_53:\n      tag_54\n      jump\t// in\n    tag_52:\n      stop\n        /* \"swap.sol\":4724:4887  function getRate(string memory from, string memory to) external view returns (uint256) {... */\n    tag_12:\n      tag_55\n      0x04\n      dup1\n      calldatasize\n      sub\n      dup2\n      add\n      swap1\n      tag_56\n      swap2\n      swap1\n      tag_32\n      jump\t// in\n    tag_56:\n      tag_57\n      jump\t// in\n    tag_55:\n      mload(0x40)\n      tag_58\n      swap2\n      swap1\n      tag_41\n      jump\t// in\n    tag_58:\n      mload(0x40)\n      dup1\n      swap2\n      sub\n      swap1\n      return\n        /* \"swap.sol\":3276:4319  function getExpectedOutput(string memory from, string memory to, uint256 amount) public view returns (uint256) {... */\n    tag_13:\n      tag_59\n      0x04\n      dup1\n      calldatasize\n      sub\n      dup2\n      add\n      swap1\n      tag_60\n      swap2\n      swap1\n      tag_18\n      jump\t// in\n    tag_60:\n      tag_61\n      jump\t// in\n    tag_59:\n      mload(0x40)\n      tag_62\n      swap2\n      swap1\n      tag_41\n      jump\t// in\n    tag_62:\n      mload(0x40)\n      dup1\n      swap2\n      sub\n      swap1\n      return\n        /* \"@openzeppelin/contracts/access/Ownable.sol\":2543:2758  function transferOwnership(address newOwner) public virtual onlyOwner {... */\n    tag_14:\n      tag_63\n      0x04\n      dup1\n      calldatasize\n      sub\n      dup2\n      add\n      swap1\n      tag_64\n      swap2\n      swap1\n      tag_65\n      jump\t// in\n    tag_64:\n      tag_66\n      jump\t// in\n    tag_63:\n      stop\n        /* \"swap.sol\":1162:1793  function setExchangeRate(string memory from, string memory to, uint256 rate) external onlyOwner {... */\n    tag_19:\n        /* \"@openzeppelin/contracts/access/Ownable.sol\":1531:1544  _checkOwner() */\n      tag_68\n        /* \"@openzeppelin/contracts/access/Ownable.sol\":1531:1542  _checkOwner */\n      tag_69\n        /* \"@openzeppelin/contracts/access/Ownable.sol\":1531:1544  _checkOwner() */\n      jump\t// in\n    tag_68:\n        /* \"swap.sol\":1309:1310  0 */\n      0x00\n        /* \"swap.sol\":1276:1311  address(tokens[from]) != address(0) */\n      0xffffffffffffffffffffffffffffffffffffffff\n      and\n        /* \"swap.sol\":1284:1290  tokens */\n      0x02\n        /* \"swap.sol\":1291:1295  from */\n      dup5\n        /* \"swap.sol\":1284:1296  tokens[from] */\n      mload(0x40)\n      tag_71\n      swap2\n      swap1\n      tag_72\n      jump\t// in\n    tag_71:\n      swap1\n      dup2\n      mstore\n      0x20\n      add\n      mload(0x40)\n      dup1\n      swap2\n      sub\n      swap1\n      keccak256\n      0x00\n      swap1\n      sload\n      swap1\n      0x0100\n      exp\n      swap1\n      div\n      0xffffffffffffffffffffffffffffffffffffffff\n      and\n        /* \"swap.sol\":1276:1311  address(tokens[from]) != address(0) */\n      0xffffffffffffffffffffffffffffffffffffffff\n      and\n      sub\n        /* \"swap.sol\":1268:1334  require(address(tokens[from]) != address(0), \"From token not set\") */\n      tag_73\n      jumpi\n      mload(0x40)\n      0x08c379a000000000000000000000000000000000000000000000000000000000\n      dup2\n      mstore\n      0x04\n      add\n      tag_74\n      swap1\n      tag_75\n      jump\t// in\n    tag_74:\n      mload(0x40)\n      dup1\n      swap2\n      sub\n      swap1\n      revert\n    tag_73:\n        /* \"swap.sol\":1383:1384  0 */\n      0x00\n        /* \"swap.sol\":1352:1385  address(tokens[to]) != address(0) */\n      0xffffffffffffffffffffffffffffffffffffffff\n      and\n        /* \"swap.sol\":1360:1366  tokens */\n      0x02\n        /* \"swap.sol\":1367:1369  to */\n      dup4\n        /* \"swap.sol\":1360:1370  tokens[to] */\n      mload(0x40)\n      tag_76\n      swap2\n      swap1\n      tag_72\n      jump\t// in\n    tag_76:\n      swap1\n      dup2\n      mstore\n      0x20\n      add\n      mload(0x40)\n      dup1\n      swap2\n      sub\n      swap1\n      keccak256\n      0x00\n      swap1\n      sload\n      swap1\n      0x0100\n      exp\n      swap1\n      div\n      0xffffffffffffffffffffffffffffffffffffffff\n      and\n        /* \"swap.sol\":1352:1385  address(tokens[to]) != address(0) */\n      0xffffffffffffffffffffffffffffffffffffffff\n      and\n      sub\n        /* \"swap.sol\":1344:1406  require(address(tokens[to]) != address(0), \"To token not set\") */\n      tag_77\n      jumpi\n      mload(0x40)\n      0x08c379a000000000000000000000000000000000000000000000000000000000\n      dup2\n      mstore\n      0x04\n      add\n      tag_78\n      swap1\n      tag_79\n      jump\t// in\n    tag_78:\n      mload(0x40)\n      dup1\n      swap2\n      sub\n      swap1\n      revert\n    tag_77:\n        /* \"swap.sol\":1431:1432  0 */\n      0x00\n        /* \"swap.sol\":1424:1428  rate */\n      dup2\n        /* \"swap.sol\":1424:1432  rate > 0 */\n      gt\n        /* \"swap.sol\":1416:1453  require(rate > 0, \"Rate must be > 0\") */\n      tag_80\n      jumpi\n      mload(0x40)\n      0x08c379a000000000000000000000000000000000000000000000000000000000\n      dup2\n      mstore\n      0x04\n      add\n      tag_81\n      swap1\n      tag_82\n      jump\t// in\n    tag_81:\n      mload(0x40)\n      dup1\n      swap2\n      sub\n      swap1\n      revert\n    tag_80:\n        /* \"swap.sol\":1464:1481  bytes32 directKey */\n      0x00\n        /* \"swap.sol\":1511:1515  from */\n      dup4\n        /* \"swap.sol\":1517:1519  to */\n      dup4\n        /* \"swap.sol\":1494:1520  abi.encodePacked(from, to) */\n      add(0x20, mload(0x40))\n      tag_83\n      swap3\n      swap2\n      swap1\n      tag_84\n      jump\t// in\n    tag_83:\n      mload(0x40)\n      0x20\n      dup2\n      dup4\n      sub\n      sub\n      dup2\n      mstore\n      swap1\n      0x40\n      mstore\n        /* \"swap.sol\":1484:1521  keccak256(abi.encodePacked(from, to)) */\n      dup1\n      mload\n      swap1\n      0x20\n      add\n      keccak256\n        /* \"swap.sol\":1464:1521  bytes32 directKey = keccak256(abi.encodePacked(from, to)) */\n      swap1\n      pop\n        /* \"swap.sol\":1531:1549  bytes32 reverseKey */\n      0x00\n        /* \"swap.sol\":1579:1581  to */\n      dup4\n        /* \"swap.sol\":1583:1587  from */\n      dup6\n        /* \"swap.sol\":1562:1588  abi.encodePacked(to, from) */\n      add(0x20, mload(0x40))\n      tag_85\n      swap3\n      swap2\n      swap1\n      tag_84\n      jump\t// in\n    tag_85:\n      mload(0x40)\n      0x20\n      dup2\n      dup4\n      sub\n      sub\n      dup2\n      mstore\n      swap1\n      0x40\n      mstore\n        /* \"swap.sol\":1552:1589  keccak256(abi.encodePacked(to, from)) */\n      dup1\n      mload\n      swap1\n      0x20\n      add\n      keccak256\n        /* \"swap.sol\":1531:1589  bytes32 reverseKey = keccak256(abi.encodePacked(to, from)) */\n      swap1\n      pop\n        /* \"swap.sol\":1627:1631  rate */\n      dup3\n        /* \"swap.sol\":1600:1613  exchangeRates */\n      0x03\n        /* \"swap.sol\":1600:1624  exchangeRates[directKey] */\n      0x00\n        /* \"swap.sol\":1614:1623  directKey */\n      dup5\n        /* \"swap.sol\":1600:1624  exchangeRates[directKey] */\n      dup2\n      mstore\n      0x20\n      add\n      swap1\n      dup2\n      mstore\n      0x20\n      add\n      0x00\n      keccak256\n        /* \"swap.sol\":1600:1631  exchangeRates[directKey] = rate */\n      dup2\n      swap1\n      sstore\n      pop\n        /* \"swap.sol\":1642:1661  uint256 reverseRate */\n      0x00\n        /* \"swap.sol\":1686:1690  rate */\n      dup4\n        /* \"swap.sol\":1665:1682  1 ether * 1 ether */\n      0xc097ce7bc90715b34b9f1000000000\n        /* \"swap.sol\":1664:1690  (1 ether * 1 ether) / rate */\n      tag_86\n      swap2\n      swap1\n      tag_87\n      jump\t// in\n    tag_86:\n        /* \"swap.sol\":1642:1690  uint256 reverseRate = (1 ether * 1 ether) / rate */\n      swap1\n      pop\n        /* \"swap.sol\":1728:1739  reverseRate */\n      dup1\n        /* \"swap.sol\":1700:1713  exchangeRates */\n      0x03\n        /* \"swap.sol\":1700:1725  exchangeRates[reverseKey] */\n      0x00\n        /* \"swap.sol\":1714:1724  reverseKey */\n      dup5\n        /* \"swap.sol\":1700:1725  exchangeRates[reverseKey] */\n      dup2\n      mstore\n      0x20\n      add\n      swap1\n      dup2\n      mstore\n      0x20\n      add\n      0x00\n      keccak256\n        /* \"swap.sol\":1700:1739  exchangeRates[reverseKey] = reverseRate */\n      dup2\n      swap1\n      sstore\n      pop\n        /* \"swap.sol\":1755:1786  ExchangeRateSet(from, to, rate) */\n      0xe48292e51fb907bcef0d684cbb93bf1474d076470529cd1b21c6343cec6ce834\n        /* \"swap.sol\":1771:1775  from */\n      dup7\n        /* \"swap.sol\":1777:1779  to */\n      dup7\n        /* \"swap.sol\":1781:1785  rate */\n      dup7\n        /* \"swap.sol\":1755:1786  ExchangeRateSet(from, to, rate) */\n      mload(0x40)\n      tag_88\n      swap4\n      swap3\n      swap2\n      swap1\n      tag_89\n      jump\t// in\n    tag_88:\n      mload(0x40)\n      dup1\n      swap2\n      sub\n      swap1\n      log1\n        /* \"swap.sol\":1258:1793  {... */\n      pop\n      pop\n      pop\n        /* \"swap.sol\":1162:1793  function setExchangeRate(string memory from, string memory to, uint256 rate) external onlyOwner {... */\n      pop\n      pop\n      pop\n      jump\t// out\n        /* \"swap.sol\":380:427  mapping(string => IERC20Extended) public tokens */\n    tag_23:\n      0x02\n      dup2\n      dup1\n      mload\n      0x20\n      dup2\n      add\n      dup3\n      add\n      dup1\n      mload\n      dup5\n      dup3\n      mstore\n      0x20\n      dup4\n      add\n      0x20\n      dup6\n      add\n      keccak256\n      dup2\n      dup4\n      mstore\n      dup1\n      swap6\n      pop\n      pop\n      pop\n      pop\n      pop\n      pop\n      0x00\n      swap2\n      pop\n      sload\n      swap1\n      0x0100\n      exp\n      swap1\n      div\n      0xffffffffffffffffffffffffffffffffffffffff\n      and\n      dup2\n      jump\t// out\n        /* \"swap.sol\":884:1156  function setTokenAddress(string memory symbol, address tokenAddress) external onlyOwner {... */\n    tag_29:\n        /* \"@openzeppelin/contracts/access/Ownable.sol\":1531:1544  _checkOwner() */\n      tag_91\n        /* \"@openzeppelin/contracts/access/Ownable.sol\":1531:1542  _checkOwner */\n      tag_69\n        /* \"@openzeppelin/contracts/access/Ownable.sol\":1531:1544  _checkOwner() */\n      jump\t// in\n    tag_91:\n        /* \"swap.sol\":1014:1015  0 */\n      0x00\n        /* \"swap.sol\":990:1016  tokenAddress != address(0) */\n      0xffffffffffffffffffffffffffffffffffffffff\n      and\n        /* \"swap.sol\":990:1002  tokenAddress */\n      dup2\n        /* \"swap.sol\":990:1016  tokenAddress != address(0) */\n      0xffffffffffffffffffffffffffffffffffffffff\n      and\n      sub\n        /* \"swap.sol\":982:1042  require(tokenAddress != address(0), \"Invalid token address\") */\n      tag_93\n      jumpi\n      mload(0x40)\n      0x08c379a000000000000000000000000000000000000000000000000000000000\n      dup2\n      mstore\n      0x04\n      add\n      tag_94\n      swap1\n      tag_95\n      jump\t// in\n    tag_94:\n      mload(0x40)\n      dup1\n      swap2\n      sub\n      swap1\n      revert\n    tag_93:\n        /* \"swap.sol\":1084:1096  tokenAddress */\n      dup1\n        /* \"swap.sol\":1052:1058  tokens */\n      0x02\n        /* \"swap.sol\":1059:1065  symbol */\n      dup4\n        /* \"swap.sol\":1052:1066  tokens[symbol] */\n      mload(0x40)\n      tag_96\n      swap2\n      swap1\n      tag_72\n      jump\t// in\n    tag_96:\n      swap1\n      dup2\n      mstore\n      0x20\n      add\n      mload(0x40)\n      dup1\n      swap2\n      sub\n      swap1\n      keccak256\n      0x00\n        /* \"swap.sol\":1052:1097  tokens[symbol] = IERC20Extended(tokenAddress) */\n      0x0100\n      exp\n      dup2\n      sload\n      dup2\n      0xffffffffffffffffffffffffffffffffffffffff\n      mul\n      not\n      and\n      swap1\n      dup4\n      0xffffffffffffffffffffffffffffffffffffffff\n      and\n      mul\n      or\n      swap1\n      sstore\n      pop\n        /* \"swap.sol\":1112:1149  TokenAddressSet(symbol, tokenAddress) */\n      0x0bd6274cd0bf2ce8ebd481e327380948c4b7cf552504560e4d0c892184ce28a5\n        /* \"swap.sol\":1128:1134  symbol */\n      dup3\n        /* \"swap.sol\":1136:1148  tokenAddress */\n      dup3\n        /* \"swap.sol\":1112:1149  TokenAddressSet(symbol, tokenAddress) */\n      mload(0x40)\n      tag_97\n      swap3\n      swap2\n      swap1\n      tag_98\n      jump\t// in\n    tag_97:\n      mload(0x40)\n      dup1\n      swap2\n      sub\n      swap1\n      log1\n        /* \"swap.sol\":884:1156  function setTokenAddress(string memory symbol, address tokenAddress) external onlyOwner {... */\n      pop\n      pop\n      jump\t// out\n        /* \"swap.sol\":4569:4718  function getPairKey(string memory from, string memory to) public pure returns (bytes32) {... */\n    tag_33:\n        /* \"swap.sol\":4648:4655  bytes32 */\n      0x00\n        /* \"swap.sol\":4701:4705  from */\n      dup3\n        /* \"swap.sol\":4707:4709  to */\n      dup3\n        /* \"swap.sol\":4684:4710  abi.encodePacked(from, to) */\n      add(0x20, mload(0x40))\n      tag_100\n      swap3\n      swap2\n      swap1\n      tag_84\n      jump\t// in\n    tag_100:\n      mload(0x40)\n      0x20\n      dup2\n      dup4\n      sub\n      sub\n      dup2\n      mstore\n      swap1\n      0x40\n      mstore\n        /* \"swap.sol\":4674:4711  keccak256(abi.encodePacked(from, to)) */\n      dup1\n      mload\n      swap1\n      0x20\n      add\n      keccak256\n        /* \"swap.sol\":4667:4711  return keccak256(abi.encodePacked(from, to)) */\n      swap1\n      pop\n        /* \"swap.sol\":4569:4718  function getPairKey(string memory from, string memory to) public pure returns (bytes32) {... */\n      swap3\n      swap2\n      pop\n      pop\n      jump\t// out\n        /* \"swap.sol\":433:481  mapping(bytes32 => uint256) public exchangeRates */\n    tag_39:\n      mstore(0x20, 0x03)\n      dup1\n      0x00\n      mstore\n      keccak256(0x00, 0x40)\n      0x00\n      swap2\n      pop\n      swap1\n      pop\n      sload\n      dup2\n      jump\t// out\n        /* \"@openzeppelin/contracts/access/Ownable.sol\":2293:2394  function renounceOwnership() public virtual onlyOwner {... */\n    tag_43:\n        /* \"@openzeppelin/contracts/access/Ownable.sol\":1531:1544  _checkOwner() */\n      tag_102\n        /* \"@openzeppelin/contracts/access/Ownable.sol\":1531:1542  _checkOwner */\n      tag_69\n        /* \"@openzeppelin/contracts/access/Ownable.sol\":1531:1544  _checkOwner() */\n      jump\t// in\n    tag_102:\n        /* \"@openzeppelin/contracts/access/Ownable.sol\":2357:2387  _transferOwnership(address(0)) */\n      tag_104\n        /* \"@openzeppelin/contracts/access/Ownable.sol\":2384:2385  0 */\n      0x00\n        /* \"@openzeppelin/contracts/access/Ownable.sol\":2357:2375  _transferOwnership */\n      tag_105\n        /* \"@openzeppelin/contracts/access/Ownable.sol\":2357:2387  _transferOwnership(address(0)) */\n      jump\t// in\n    tag_104:\n        /* \"@openzeppelin/contracts/access/Ownable.sol\":2293:2394  function renounceOwnership() public virtual onlyOwner {... */\n      jump\t// out\n        /* \"@openzeppelin/contracts/access/Ownable.sol\":1638:1723  function owner() public view virtual returns (address) {... */\n    tag_45:\n        /* \"@openzeppelin/contracts/access/Ownable.sol\":1684:1691  address */\n      0x00\n        /* \"@openzeppelin/contracts/access/Ownable.sol\":1710:1716  _owner */\n      0x01\n      0x00\n      swap1\n      sload\n      swap1\n      0x0100\n      exp\n      swap1\n      div\n      0xffffffffffffffffffffffffffffffffffffffff\n      and\n        /* \"@openzeppelin/contracts/access/Ownable.sol\":1703:1716  return _owner */\n      swap1\n      pop\n        /* \"@openzeppelin/contracts/access/Ownable.sol\":1638:1723  function owner() public view virtual returns (address) {... */\n      swap1\n      jump\t// out\n        /* \"swap.sol\":4325:4563  function withdrawToken(address tokenAddress, uint256 amount) external onlyOwner nonReentrant {... */\n    tag_51:\n        /* \"@openzeppelin/contracts/access/Ownable.sol\":1531:1544  _checkOwner() */\n      tag_108\n        /* \"@openzeppelin/contracts/access/Ownable.sol\":1531:1542  _checkOwner */\n      tag_69\n        /* \"@openzeppelin/contracts/access/Ownable.sol\":1531:1544  _checkOwner() */\n      jump\t// in\n    tag_108:\n        /* \"@openzeppelin/contracts/security/ReentrancyGuard.sol\":2261:2282  _nonReentrantBefore() */\n      tag_110\n        /* \"@openzeppelin/contracts/security/ReentrancyGuard.sol\":2261:2280  _nonReentrantBefore */\n      tag_111\n        /* \"@openzeppelin/contracts/security/ReentrancyGuard.sol\":2261:2282  _nonReentrantBefore() */\n      jump\t// in\n    tag_110:\n        /* \"swap.sol\":4443:4455  tokenAddress */\n      dup2\n        /* \"swap.sol\":4436:4465  IERC20(tokenAddress).transfer */\n      0xffffffffffffffffffffffffffffffffffffffff\n      and\n      0xa9059cbb\n        /* \"swap.sol\":4466:4476  msg.sender */\n      caller\n        /* \"swap.sol\":4478:4484  amount */\n      dup4\n        /* \"swap.sol\":4436:4485  IERC20(tokenAddress).transfer(msg.sender, amount) */\n      mload(0x40)\n      dup4\n      0xffffffff\n      and\n      0xe0\n      shl\n      dup2\n      mstore\n      0x04\n      add\n      tag_113\n      swap3\n      swap2\n      swap1\n      tag_114\n      jump\t// in\n    tag_113:\n      0x20\n      mload(0x40)\n      dup1\n      dup4\n      sub\n      dup2\n      0x00\n      dup8\n      gas\n      call\n      iszero\n      dup1\n      iszero\n      tag_116\n      jumpi\n      returndatacopy(0x00, 0x00, returndatasize)\n      revert(0x00, returndatasize)\n    tag_116:\n      pop\n      pop\n      pop\n      pop\n      mload(0x40)\n      returndatasize\n      not(0x1f)\n      0x1f\n      dup3\n      add\n      and\n      dup3\n      add\n      dup1\n      0x40\n      mstore\n      pop\n      dup2\n      add\n      swap1\n      tag_117\n      swap2\n      swap1\n      tag_118\n      jump\t// in\n    tag_117:\n        /* \"swap.sol\":4428:4505  require(IERC20(tokenAddress).transfer(msg.sender, amount), \"Withdraw failed\") */\n      tag_119\n      jumpi\n      mload(0x40)\n      0x08c379a000000000000000000000000000000000000000000000000000000000\n      dup2\n      mstore\n      0x04\n      add\n      tag_120\n      swap1\n      tag_121\n      jump\t// in\n    tag_120:\n      mload(0x40)\n      dup1\n      swap2\n      sub\n      swap1\n      revert\n    tag_119:\n        /* \"swap.sol\":4520:4556  TokenWithdrawn(tokenAddress, amount) */\n      0xa2bd9fcfcdba69f52bcd9a520846ad4bd685b187483f53efc42d035b2ddebff0\n        /* \"swap.sol\":4535:4547  tokenAddress */\n      dup3\n        /* \"swap.sol\":4549:4555  amount */\n      dup3\n        /* \"swap.sol\":4520:4556  TokenWithdrawn(tokenAddress, amount) */\n      mload(0x40)\n      tag_122\n      swap3\n      swap2\n      swap1\n      tag_114\n      jump\t// in\n    tag_122:\n      mload(0x40)\n      dup1\n      swap2\n      sub\n      swap1\n      log1\n        /* \"@openzeppelin/contracts/security/ReentrancyGuard.sol\":2303:2323  _nonReentrantAfter() */\n      tag_123\n        /* \"@openzeppelin/contracts/security/ReentrancyGuard.sol\":2303:2321  _nonReentrantAfter */\n      tag_124\n        /* \"@openzeppelin/contracts/security/ReentrancyGuard.sol\":2303:2323  _nonReentrantAfter() */\n      jump\t// in\n    tag_123:\n        /* \"swap.sol\":4325:4563  function withdrawToken(address tokenAddress, uint256 amount) external onlyOwner nonReentrant {... */\n      pop\n      pop\n      jump\t// out\n        /* \"swap.sol\":1799:3270  function swap(string memory from, string memory to, uint256 amount) external nonReentrant {... */\n    tag_54:\n        /* \"@openzeppelin/contracts/security/ReentrancyGuard.sol\":2261:2282  _nonReentrantBefore() */\n      tag_126\n        /* \"@openzeppelin/contracts/security/ReentrancyGuard.sol\":2261:2280  _nonReentrantBefore */\n      tag_111\n        /* \"@openzeppelin/contracts/security/ReentrancyGuard.sol\":2261:2282  _nonReentrantBefore() */\n      jump\t// in\n    tag_126:\n        /* \"swap.sol\":1916:1917  0 */\n      0x00\n        /* \"swap.sol\":1907:1913  amount */\n      dup2\n        /* \"swap.sol\":1907:1917  amount > 0 */\n      gt\n        /* \"swap.sol\":1899:1940  require(amount > 0, \"Amount must be > 0\") */\n      tag_128\n      jumpi\n      mload(0x40)\n      0x08c379a000000000000000000000000000000000000000000000000000000000\n      dup2\n      mstore\n      0x04\n      add\n      tag_129\n      swap1\n      tag_130\n      jump\t// in\n    tag_129:\n      mload(0x40)\n      dup1\n      swap2\n      sub\n      swap1\n      revert\n    tag_128:\n        /* \"swap.sol\":2000:2002  to */\n      dup2\n        /* \"swap.sol\":1984:2004  keccak256(bytes(to)) */\n      dup1\n      mload\n      swap1\n      0x20\n      add\n      keccak256\n        /* \"swap.sol\":1974:1978  from */\n      dup4\n        /* \"swap.sol\":1958:1980  keccak256(bytes(from)) */\n      dup1\n      mload\n      swap1\n      0x20\n      add\n      keccak256\n        /* \"swap.sol\":1958:2004  keccak256(bytes(from)) != keccak256(bytes(to)) */\n      sub\n        /* \"swap.sol\":1950:2031  require(keccak256(bytes(from)) != keccak256(bytes(to)), \"Cannot swap same token\") */\n      tag_131\n      jumpi\n      mload(0x40)\n      0x08c379a000000000000000000000000000000000000000000000000000000000\n      dup2\n      mstore\n      0x04\n      add\n      tag_132\n      swap1\n      tag_133\n      jump\t// in\n    tag_132:\n      mload(0x40)\n      dup1\n      swap2\n      sub\n      swap1\n      revert\n    tag_131:\n        /* \"swap.sol\":2042:2066  IERC20Extended fromToken */\n      0x00\n        /* \"swap.sol\":2069:2075  tokens */\n      0x02\n        /* \"swap.sol\":2076:2080  from */\n      dup5\n        /* \"swap.sol\":2069:2081  tokens[from] */\n      mload(0x40)\n      tag_134\n      swap2\n      swap1\n      tag_72\n      jump\t// in\n    tag_134:\n      swap1\n      dup2\n      mstore\n      0x20\n      add\n      mload(0x40)\n      dup1\n      swap2\n      sub\n      swap1\n      keccak256\n      0x00\n      swap1\n      sload\n      swap1\n      0x0100\n      exp\n      swap1\n      div\n      0xffffffffffffffffffffffffffffffffffffffff\n      and\n        /* \"swap.sol\":2042:2081  IERC20Extended fromToken = tokens[from] */\n      swap1\n      pop\n        /* \"swap.sol\":2091:2113  IERC20Extended toToken */\n      0x00\n        /* \"swap.sol\":2116:2122  tokens */\n      0x02\n        /* \"swap.sol\":2123:2125  to */\n      dup5\n        /* \"swap.sol\":2116:2126  tokens[to] */\n      mload(0x40)\n      tag_135\n      swap2\n      swap1\n      tag_72\n      jump\t// in\n    tag_135:\n      swap1\n      dup2\n      mstore\n      0x20\n      add\n      mload(0x40)\n      dup1\n      swap2\n      sub\n      swap1\n      keccak256\n      0x00\n      swap1\n      sload\n      swap1\n      0x0100\n      exp\n      swap1\n      div\n      0xffffffffffffffffffffffffffffffffffffffff\n      and\n        /* \"swap.sol\":2091:2126  IERC20Extended toToken = tokens[to] */\n      swap1\n      pop\n        /* \"swap.sol\":2175:2176  0 */\n      0x00\n        /* \"swap.sol\":2145:2177  address(fromToken) != address(0) */\n      0xffffffffffffffffffffffffffffffffffffffff\n      and\n        /* \"swap.sol\":2153:2162  fromToken */\n      dup3\n        /* \"swap.sol\":2145:2177  address(fromToken) != address(0) */\n      0xffffffffffffffffffffffffffffffffffffffff\n      and\n      sub\n        /* \"swap.sol\":2137:2208  require(address(fromToken) != address(0), \"From token not initialized\") */\n      tag_136\n      jumpi\n      mload(0x40)\n      0x08c379a000000000000000000000000000000000000000000000000000000000\n      dup2\n      mstore\n      0x04\n      add\n      tag_137\n      swap1\n      tag_138\n      jump\t// in\n    tag_137:\n      mload(0x40)\n      dup1\n      swap2\n      sub\n      swap1\n      revert\n    tag_136:\n        /* \"swap.sol\":2254:2255  0 */\n      0x00\n        /* \"swap.sol\":2226:2256  address(toToken) != address(0) */\n      0xffffffffffffffffffffffffffffffffffffffff\n      and\n        /* \"swap.sol\":2234:2241  toToken */\n      dup2\n        /* \"swap.sol\":2226:2256  address(toToken) != address(0) */\n      0xffffffffffffffffffffffffffffffffffffffff\n      and\n      sub\n        /* \"swap.sol\":2218:2285  require(address(toToken) != address(0), \"To token not initialized\") */\n      tag_139\n      jumpi\n      mload(0x40)\n      0x08c379a000000000000000000000000000000000000000000000000000000000\n      dup2\n      mstore\n      0x04\n      add\n      tag_140\n      swap1\n      tag_141\n      jump\t// in\n    tag_140:\n      mload(0x40)\n      dup1\n      swap2\n      sub\n      swap1\n      revert\n    tag_139:\n        /* \"swap.sol\":2296:2314  uint8 fromDecimals */\n      0x00\n        /* \"swap.sol\":2317:2326  fromToken */\n      dup3\n        /* \"swap.sol\":2317:2335  fromToken.decimals */\n      0xffffffffffffffffffffffffffffffffffffffff\n      and\n      0x313ce567\n        /* \"swap.sol\":2317:2337  fromToken.decimals() */\n      mload(0x40)\n      dup2\n      0xffffffff\n      and\n      0xe0\n      shl\n      dup2\n      mstore\n      0x04\n      add\n      0x20\n      mload(0x40)\n      dup1\n      dup4\n      sub\n      dup2\n      dup7\n      gas\n      staticcall\n      iszero\n      dup1\n      iszero\n      tag_143\n      jumpi\n      returndatacopy(0x00, 0x00, returndatasize)\n      revert(0x00, returndatasize)\n    tag_143:\n      pop\n      pop\n      pop\n      pop\n      mload(0x40)\n      returndatasize\n      not(0x1f)\n      0x1f\n      dup3\n      add\n      and\n      dup3\n      add\n      dup1\n      0x40\n      mstore\n      pop\n      dup2\n      add\n      swap1\n      tag_144\n      swap2\n      swap1\n      tag_145\n      jump\t// in\n    tag_144:\n        /* \"swap.sol\":2296:2337  uint8 fromDecimals = fromToken.decimals() */\n      swap1\n      pop\n        /* \"swap.sol\":2347:2363  uint8 toDecimals */\n      0x00\n        /* \"swap.sol\":2366:2373  toToken */\n      dup3\n        /* \"swap.sol\":2366:2382  toToken.decimals */\n      0xffffffffffffffffffffffffffffffffffffffff\n      and\n      0x313ce567\n        /* \"swap.sol\":2366:2384  toToken.decimals() */\n      mload(0x40)\n      dup2\n      0xffffffff\n      and\n      0xe0\n      shl\n      dup2\n      mstore\n      0x04\n      add\n      0x20\n      mload(0x40)\n      dup1\n      dup4\n      sub\n      dup2\n      dup7\n      gas\n      staticcall\n      iszero\n      dup1\n      iszero\n      tag_147\n      jumpi\n      returndatacopy(0x00, 0x00, returndatasize)\n      revert(0x00, returndatasize)\n    tag_147:\n      pop\n      pop\n      pop\n      pop\n      mload(0x40)\n      returndatasize\n      not(0x1f)\n      0x1f\n      dup3\n      add\n      and\n      dup3\n      add\n      dup1\n      0x40\n      mstore\n      pop\n      dup2\n      add\n      swap1\n      tag_148\n      swap2\n      swap1\n      tag_145\n      jump\t// in\n    tag_148:\n        /* \"swap.sol\":2347:2384  uint8 toDecimals = toToken.decimals() */\n      swap1\n      pop\n        /* \"swap.sol\":2395:2406  bytes32 key */\n      0x00\n        /* \"swap.sol\":2436:2440  from */\n      dup8\n        /* \"swap.sol\":2442:2444  to */\n      dup8\n        /* \"swap.sol\":2419:2445  abi.encodePacked(from, to) */\n      add(0x20, mload(0x40))\n      tag_149\n      swap3\n      swap2\n      swap1\n      tag_84\n      jump\t// in\n    tag_149:\n      mload(0x40)\n      0x20\n      dup2\n      dup4\n      sub\n      sub\n      dup2\n      mstore\n      swap1\n      0x40\n      mstore\n        /* \"swap.sol\":2409:2446  keccak256(abi.encodePacked(from, to)) */\n      dup1\n      mload\n      swap1\n      0x20\n      add\n      keccak256\n        /* \"swap.sol\":2395:2446  bytes32 key = keccak256(abi.encodePacked(from, to)) */\n      swap1\n      pop\n        /* \"swap.sol\":2456:2468  uint256 rate */\n      0x00\n        /* \"swap.sol\":2471:2484  exchangeRates */\n      0x03\n        /* \"swap.sol\":2471:2489  exchangeRates[key] */\n      0x00\n        /* \"swap.sol\":2485:2488  key */\n      dup4\n        /* \"swap.sol\":2471:2489  exchangeRates[key] */\n      dup2\n      mstore\n      0x20\n      add\n      swap1\n      dup2\n      mstore\n      0x20\n      add\n      0x00\n      keccak256\n      sload\n        /* \"swap.sol\":2456:2489  uint256 rate = exchangeRates[key] */\n      swap1\n      pop\n        /* \"swap.sol\":2514:2515  0 */\n      0x00\n        /* \"swap.sol\":2507:2511  rate */\n      dup2\n        /* \"swap.sol\":2507:2515  rate > 0 */\n      gt\n        /* \"swap.sol\":2499:2532  require(rate > 0, \"Rate not set\") */\n      tag_150\n      jumpi\n      mload(0x40)\n      0x08c379a000000000000000000000000000000000000000000000000000000000\n      dup2\n      mstore\n      0x04\n      add\n      tag_151\n      swap1\n      tag_152\n      jump\t// in\n    tag_151:\n      mload(0x40)\n      dup1\n      swap2\n      sub\n      swap1\n      revert\n    tag_150:\n        /* \"swap.sol\":2543:2567  uint256 normalizedAmount */\n      0x00\n        /* \"swap.sol\":2585:2587  18 */\n      0x12\n        /* \"swap.sol\":2570:2582  fromDecimals */\n      dup6\n        /* \"swap.sol\":2570:2587  fromDecimals < 18 */\n      0xff\n      and\n      lt\n        /* \"swap.sol\":2570:2689  fromDecimals < 18... */\n      tag_153\n      jumpi\n        /* \"swap.sol\":2685:2687  18 */\n      0x12\n        /* \"swap.sol\":2670:2682  fromDecimals */\n      dup6\n        /* \"swap.sol\":2670:2687  fromDecimals - 18 */\n      tag_154\n      swap2\n      swap1\n      tag_155\n      jump\t// in\n    tag_154:\n        /* \"swap.sol\":2663:2665  10 */\n      0x0a\n        /* \"swap.sol\":2663:2688  10 ** (fromDecimals - 18) */\n      tag_156\n      swap2\n      swap1\n      tag_157\n      jump\t// in\n    tag_156:\n        /* \"swap.sol\":2653:2659  amount */\n      dup9\n        /* \"swap.sol\":2653:2689  amount / (10 ** (fromDecimals - 18)) */\n      tag_158\n      swap2\n      swap1\n      tag_87\n      jump\t// in\n    tag_158:\n        /* \"swap.sol\":2570:2689  fromDecimals < 18... */\n      jump(tag_159)\n    tag_153:\n        /* \"swap.sol\":2624:2636  fromDecimals */\n      dup5\n        /* \"swap.sol\":2619:2621  18 */\n      0x12\n        /* \"swap.sol\":2619:2636  18 - fromDecimals */\n      tag_160\n      swap2\n      swap1\n      tag_155\n      jump\t// in\n    tag_160:\n        /* \"swap.sol\":2612:2614  10 */\n      0x0a\n        /* \"swap.sol\":2612:2637  10 ** (18 - fromDecimals) */\n      tag_161\n      swap2\n      swap1\n      tag_157\n      jump\t// in\n    tag_161:\n        /* \"swap.sol\":2602:2608  amount */\n      dup9\n        /* \"swap.sol\":2602:2638  amount * (10 ** (18 - fromDecimals)) */\n      tag_162\n      swap2\n      swap1\n      tag_163\n      jump\t// in\n    tag_162:\n        /* \"swap.sol\":2570:2689  fromDecimals < 18... */\n    tag_159:\n        /* \"swap.sol\":2543:2689  uint256 normalizedAmount = fromDecimals < 18... */\n      swap1\n      pop\n        /* \"swap.sol\":2700:2726  uint256 normalizedToAmount */\n      0x00\n        /* \"swap.sol\":2757:2764  1 ether */\n      0x0de0b6b3a7640000\n        /* \"swap.sol\":2749:2753  rate */\n      dup4\n        /* \"swap.sol\":2730:2746  normalizedAmount */\n      dup4\n        /* \"swap.sol\":2730:2753  normalizedAmount * rate */\n      tag_164\n      swap2\n      swap1\n      tag_163\n      jump\t// in\n    tag_164:\n        /* \"swap.sol\":2729:2764  (normalizedAmount * rate) / 1 ether */\n      tag_165\n      swap2\n      swap1\n      tag_87\n      jump\t// in\n    tag_165:\n        /* \"swap.sol\":2700:2764  uint256 normalizedToAmount = (normalizedAmount * rate) / 1 ether */\n      swap1\n      pop\n        /* \"swap.sol\":2775:2791  uint256 toAmount */\n      0x00\n        /* \"swap.sol\":2807:2809  18 */\n      0x12\n        /* \"swap.sol\":2794:2804  toDecimals */\n      dup7\n        /* \"swap.sol\":2794:2809  toDecimals < 18 */\n      0xff\n      and\n      lt\n        /* \"swap.sol\":2794:2931  toDecimals < 18... */\n      tag_166\n      jumpi\n        /* \"swap.sol\":2927:2929  18 */\n      0x12\n        /* \"swap.sol\":2914:2924  toDecimals */\n      dup7\n        /* \"swap.sol\":2914:2929  toDecimals - 18 */\n      tag_167\n      swap2\n      swap1\n      tag_155\n      jump\t// in\n    tag_167:\n        /* \"swap.sol\":2907:2909  10 */\n      0x0a\n        /* \"swap.sol\":2907:2930  10 ** (toDecimals - 18) */\n      tag_168\n      swap2\n      swap1\n      tag_157\n      jump\t// in\n    tag_168:\n        /* \"swap.sol\":2885:2903  normalizedToAmount */\n      dup3\n        /* \"swap.sol\":2885:2931  normalizedToAmount * (10 ** (toDecimals - 18)) */\n      tag_169\n      swap2\n      swap1\n      tag_163\n      jump\t// in\n    tag_169:\n        /* \"swap.sol\":2794:2931  toDecimals < 18... */\n      jump(tag_170)\n    tag_166:\n        /* \"swap.sol\":2858:2868  toDecimals */\n      dup6\n        /* \"swap.sol\":2853:2855  18 */\n      0x12\n        /* \"swap.sol\":2853:2868  18 - toDecimals */\n      tag_171\n      swap2\n      swap1\n      tag_155\n      jump\t// in\n    tag_171:\n        /* \"swap.sol\":2846:2848  10 */\n      0x0a\n        /* \"swap.sol\":2846:2869  10 ** (18 - toDecimals) */\n      tag_172\n      swap2\n      swap1\n      tag_157\n      jump\t// in\n    tag_172:\n        /* \"swap.sol\":2824:2842  normalizedToAmount */\n      dup3\n        /* \"swap.sol\":2824:2870  normalizedToAmount / (10 ** (18 - toDecimals)) */\n      tag_173\n      swap2\n      swap1\n      tag_87\n      jump\t// in\n    tag_173:\n        /* \"swap.sol\":2794:2931  toDecimals < 18... */\n    tag_170:\n        /* \"swap.sol\":2775:2931  uint256 toAmount = toDecimals < 18... */\n      swap1\n      pop\n        /* \"swap.sol\":2986:2994  toAmount */\n      dup1\n        /* \"swap.sol\":2950:2957  toToken */\n      dup9\n        /* \"swap.sol\":2950:2967  toToken.balanceOf */\n      0xffffffffffffffffffffffffffffffffffffffff\n      and\n      0x70a08231\n        /* \"swap.sol\":2976:2980  this */\n      address\n        /* \"swap.sol\":2950:2982  toToken.balanceOf(address(this)) */\n      mload(0x40)\n      dup3\n      0xffffffff\n      and\n      0xe0\n      shl\n      dup2\n      mstore\n      0x04\n      add\n      tag_174\n      swap2\n      swap1\n      tag_47\n      jump\t// in\n    tag_174:\n      0x20\n      mload(0x40)\n      dup1\n      dup4\n      sub\n      dup2\n      dup7\n      gas\n      staticcall\n      iszero\n      dup1\n      iszero\n      tag_176\n      jumpi\n      returndatacopy(0x00, 0x00, returndatasize)\n      revert(0x00, returndatasize)\n    tag_176:\n      pop\n      pop\n      pop\n      pop\n      mload(0x40)\n      returndatasize\n      not(0x1f)\n      0x1f\n      dup3\n      add\n      and\n      dup3\n      add\n      dup1\n      0x40\n      mstore\n      pop\n      dup2\n      add\n      swap1\n      tag_177\n      swap2\n      swap1\n      tag_178\n      jump\t// in\n    tag_177:\n        /* \"swap.sol\":2950:2994  toToken.balanceOf(address(this)) >= toAmount */\n      lt\n      iszero\n        /* \"swap.sol\":2942:3019  require(toToken.balanceOf(address(this)) >= toAmount, \"Not enough liquidity\") */\n      tag_179\n      jumpi\n      mload(0x40)\n      0x08c379a000000000000000000000000000000000000000000000000000000000\n      dup2\n      mstore\n      0x04\n      add\n      tag_180\n      swap1\n      tag_181\n      jump\t// in\n    tag_180:\n      mload(0x40)\n      dup1\n      swap2\n      sub\n      swap1\n      revert\n    tag_179:\n        /* \"swap.sol\":3038:3047  fromToken */\n      dup9\n        /* \"swap.sol\":3038:3060  fromToken.transferFrom */\n      0xffffffffffffffffffffffffffffffffffffffff\n      and\n      0x23b872dd\n        /* \"swap.sol\":3061:3071  msg.sender */\n      caller\n        /* \"swap.sol\":3081:3085  this */\n      address\n        /* \"swap.sol\":3088:3094  amount */\n      dup14\n        /* \"swap.sol\":3038:3095  fromToken.transferFrom(msg.sender, address(this), amount) */\n      mload(0x40)\n      dup5\n      0xffffffff\n      and\n      0xe0\n      shl\n      dup2\n      mstore\n      0x04\n      add\n      tag_182\n      swap4\n      swap3\n      swap2\n      swap1\n      tag_183\n      jump\t// in\n    tag_182:\n      0x20\n      mload(0x40)\n      dup1\n      dup4\n      sub\n      dup2\n      0x00\n      dup8\n      gas\n      call\n      iszero\n      dup1\n      iszero\n      tag_185\n      jumpi\n      returndatacopy(0x00, 0x00, returndatasize)\n      revert(0x00, returndatasize)\n    tag_185:\n      pop\n      pop\n      pop\n      pop\n      mload(0x40)\n      returndatasize\n      not(0x1f)\n      0x1f\n      dup3\n      add\n      and\n      dup3\n      add\n      dup1\n      0x40\n      mstore\n      pop\n      dup2\n      add\n      swap1\n      tag_186\n      swap2\n      swap1\n      tag_118\n      jump\t// in\n    tag_186:\n        /* \"swap.sol\":3030:3119  require(fromToken.transferFrom(msg.sender, address(this), amount), \"TransferFrom failed\") */\n      tag_187\n      jumpi\n      mload(0x40)\n      0x08c379a000000000000000000000000000000000000000000000000000000000\n      dup2\n      mstore\n      0x04\n      add\n      tag_188\n      swap1\n      tag_189\n      jump\t// in\n    tag_188:\n      mload(0x40)\n      dup1\n      swap2\n      sub\n      swap1\n      revert\n    tag_187:\n        /* \"swap.sol\":3137:3144  toToken */\n      dup8\n        /* \"swap.sol\":3137:3153  toToken.transfer */\n      0xffffffffffffffffffffffffffffffffffffffff\n      and\n      0xa9059cbb\n        /* \"swap.sol\":3154:3164  msg.sender */\n      caller\n        /* \"swap.sol\":3166:3174  toAmount */\n      dup4\n        /* \"swap.sol\":3137:3175  toToken.transfer(msg.sender, toAmount) */\n      mload(0x40)\n      dup4\n      0xffffffff\n      and\n      0xe0\n      shl\n      dup2\n      mstore\n      0x04\n      add\n      tag_190\n      swap3\n      swap2\n      swap1\n      tag_114\n      jump\t// in\n    tag_190:\n      0x20\n      mload(0x40)\n      dup1\n      dup4\n      sub\n      dup2\n      0x00\n      dup8\n      gas\n      call\n      iszero\n      dup1\n      iszero\n      tag_192\n      jumpi\n      returndatacopy(0x00, 0x00, returndatasize)\n      revert(0x00, returndatasize)\n    tag_192:\n      pop\n      pop\n      pop\n      pop\n      mload(0x40)\n      returndatasize\n      not(0x1f)\n      0x1f\n      dup3\n      add\n      and\n      dup3\n      add\n      dup1\n      0x40\n      mstore\n      pop\n      dup2\n      add\n      swap1\n      tag_193\n      swap2\n      swap1\n      tag_118\n      jump\t// in\n    tag_193:\n        /* \"swap.sol\":3129:3195  require(toToken.transfer(msg.sender, toAmount), \"Transfer failed\") */\n      tag_194\n      jumpi\n      mload(0x40)\n      0x08c379a000000000000000000000000000000000000000000000000000000000\n      dup2\n      mstore\n      0x04\n      add\n      tag_195\n      swap1\n      tag_196\n      jump\t// in\n    tag_195:\n      mload(0x40)\n      dup1\n      swap2\n      sub\n      swap1\n      revert\n    tag_194:\n        /* \"swap.sol\":3224:3234  msg.sender */\n      caller\n        /* \"swap.sol\":3211:3263  TokenSwapped(msg.sender, from, to, amount, toAmount) */\n      0xffffffffffffffffffffffffffffffffffffffff\n      and\n      0x75f42f47c3c6e52e062026c25f2a121abf88c6a283055eaface63720ac0a9999\n        /* \"swap.sol\":3236:3240  from */\n      dup14\n        /* \"swap.sol\":3242:3244  to */\n      dup14\n        /* \"swap.sol\":3246:3252  amount */\n      dup14\n        /* \"swap.sol\":3254:3262  toAmount */\n      dup6\n        /* \"swap.sol\":3211:3263  TokenSwapped(msg.sender, from, to, amount, toAmount) */\n      mload(0x40)\n      tag_197\n      swap5\n      swap4\n      swap3\n      swap2\n      swap1\n      tag_198\n      jump\t// in\n    tag_197:\n      mload(0x40)\n      dup1\n      swap2\n      sub\n      swap1\n      log2\n        /* \"swap.sol\":1889:3270  {... */\n      pop\n      pop\n      pop\n      pop\n      pop\n      pop\n      pop\n      pop\n      pop\n        /* \"@openzeppelin/contracts/security/ReentrancyGuard.sol\":2303:2323  _nonReentrantAfter() */\n      tag_199\n        /* \"@openzeppelin/contracts/security/ReentrancyGuard.sol\":2303:2321  _nonReentrantAfter */\n      tag_124\n        /* \"@openzeppelin/contracts/security/ReentrancyGuard.sol\":2303:2323  _nonReentrantAfter() */\n      jump\t// in\n    tag_199:\n        /* \"swap.sol\":1799:3270  function swap(string memory from, string memory to, uint256 amount) external nonReentrant {... */\n      pop\n      pop\n      pop\n      jump\t// out\n        /* \"swap.sol\":4724:4887  function getRate(string memory from, string memory to) external view returns (uint256) {... */\n    tag_57:\n        /* \"swap.sol\":4802:4809  uint256 */\n      0x00\n        /* \"swap.sol\":4828:4841  exchangeRates */\n      0x03\n        /* \"swap.sol\":4828:4880  exchangeRates[keccak256(abi.encodePacked(from, to))] */\n      0x00\n        /* \"swap.sol\":4869:4873  from */\n      dup5\n        /* \"swap.sol\":4875:4877  to */\n      dup5\n        /* \"swap.sol\":4852:4878  abi.encodePacked(from, to) */\n      add(0x20, mload(0x40))\n      tag_201\n      swap3\n      swap2\n      swap1\n      tag_84\n      jump\t// in\n    tag_201:\n      mload(0x40)\n      0x20\n      dup2\n      dup4\n      sub\n      sub\n      dup2\n      mstore\n      swap1\n      0x40\n      mstore\n        /* \"swap.sol\":4842:4879  keccak256(abi.encodePacked(from, to)) */\n      dup1\n      mload\n      swap1\n      0x20\n      add\n      keccak256\n        /* \"swap.sol\":4828:4880  exchangeRates[keccak256(abi.encodePacked(from, to))] */\n      dup2\n      mstore\n      0x20\n      add\n      swap1\n      dup2\n      mstore\n      0x20\n      add\n      0x00\n      keccak256\n      sload\n        /* \"swap.sol\":4821:4880  return exchangeRates[keccak256(abi.encodePacked(from, to))] */\n      swap1\n      pop\n        /* \"swap.sol\":4724:4887  function getRate(string memory from, string memory to) external view returns (uint256) {... */\n      swap3\n      swap2\n      pop\n      pop\n      jump\t// out\n        /* \"swap.sol\":3276:4319  function getExpectedOutput(string memory from, string memory to, uint256 amount) public view returns (uint256) {... */\n    tag_61:\n        /* \"swap.sol\":3378:3385  uint256 */\n      0x00\n        /* \"swap.sol\":3397:3421  IERC20Extended fromToken */\n      0x00\n        /* \"swap.sol\":3424:3430  tokens */\n      0x02\n        /* \"swap.sol\":3431:3435  from */\n      dup6\n        /* \"swap.sol\":3424:3436  tokens[from] */\n      mload(0x40)\n      tag_203\n      swap2\n      swap1\n      tag_72\n      jump\t// in\n    tag_203:\n      swap1\n      dup2\n      mstore\n      0x20\n      add\n      mload(0x40)\n      dup1\n      swap2\n      sub\n      swap1\n      keccak256\n      0x00\n      swap1\n      sload\n      swap1\n      0x0100\n      exp\n      swap1\n      div\n      0xffffffffffffffffffffffffffffffffffffffff\n      and\n        /* \"swap.sol\":3397:3436  IERC20Extended fromToken = tokens[from] */\n      swap1\n      pop\n        /* \"swap.sol\":3446:3468  IERC20Extended toToken */\n      0x00\n        /* \"swap.sol\":3471:3477  tokens */\n      0x02\n        /* \"swap.sol\":3478:3480  to */\n      dup6\n        /* \"swap.sol\":3471:3481  tokens[to] */\n      mload(0x40)\n      tag_204\n      swap2\n      swap1\n      tag_72\n      jump\t// in\n    tag_204:\n      swap1\n      dup2\n      mstore\n      0x20\n      add\n      mload(0x40)\n      dup1\n      swap2\n      sub\n      swap1\n      keccak256\n      0x00\n      swap1\n      sload\n      swap1\n      0x0100\n      exp\n      swap1\n      div\n      0xffffffffffffffffffffffffffffffffffffffff\n      and\n        /* \"swap.sol\":3446:3481  IERC20Extended toToken = tokens[to] */\n      swap1\n      pop\n        /* \"swap.sol\":3530:3531  0 */\n      0x00\n        /* \"swap.sol\":3500:3532  address(fromToken) != address(0) */\n      0xffffffffffffffffffffffffffffffffffffffff\n      and\n        /* \"swap.sol\":3508:3517  fromToken */\n      dup3\n        /* \"swap.sol\":3500:3532  address(fromToken) != address(0) */\n      0xffffffffffffffffffffffffffffffffffffffff\n      and\n      sub\n        /* \"swap.sol\":3492:3563  require(address(fromToken) != address(0), \"From token not initialized\") */\n      tag_205\n      jumpi\n      mload(0x40)\n      0x08c379a000000000000000000000000000000000000000000000000000000000\n      dup2\n      mstore\n      0x04\n      add\n      tag_206\n      swap1\n      tag_138\n      jump\t// in\n    tag_206:\n      mload(0x40)\n      dup1\n      swap2\n      sub\n      swap1\n      revert\n    tag_205:\n        /* \"swap.sol\":3609:3610  0 */\n      0x00\n        /* \"swap.sol\":3581:3611  address(toToken) != address(0) */\n      0xffffffffffffffffffffffffffffffffffffffff\n      and\n        /* \"swap.sol\":3589:3596  toToken */\n      dup2\n        /* \"swap.sol\":3581:3611  address(toToken) != address(0) */\n      0xffffffffffffffffffffffffffffffffffffffff\n      and\n      sub\n        /* \"swap.sol\":3573:3640  require(address(toToken) != address(0), \"To token not initialized\") */\n      tag_207\n      jumpi\n      mload(0x40)\n      0x08c379a000000000000000000000000000000000000000000000000000000000\n      dup2\n      mstore\n      0x04\n      add\n      tag_208\n      swap1\n      tag_141\n      jump\t// in\n    tag_208:\n      mload(0x40)\n      dup1\n      swap2\n      sub\n      swap1\n      revert\n    tag_207:\n        /* \"swap.sol\":3651:3669  uint8 fromDecimals */\n      0x00\n        /* \"swap.sol\":3672:3681  fromToken */\n      dup3\n        /* \"swap.sol\":3672:3690  fromToken.decimals */\n      0xffffffffffffffffffffffffffffffffffffffff\n      and\n      0x313ce567\n        /* \"swap.sol\":3672:3692  fromToken.decimals() */\n      mload(0x40)\n      dup2\n      0xffffffff\n      and\n      0xe0\n      shl\n      dup2\n      mstore\n      0x04\n      add\n      0x20\n      mload(0x40)\n      dup1\n      dup4\n      sub\n      dup2\n      dup7\n      gas\n      staticcall\n      iszero\n      dup1\n      iszero\n      tag_210\n      jumpi\n      returndatacopy(0x00, 0x00, returndatasize)\n      revert(0x00, returndatasize)\n    tag_210:\n      pop\n      pop\n      pop\n      pop\n      mload(0x40)\n      returndatasize\n      not(0x1f)\n      0x1f\n      dup3\n      add\n      and\n      dup3\n      add\n      dup1\n      0x40\n      mstore\n      pop\n      dup2\n      add\n      swap1\n      tag_211\n      swap2\n      swap1\n      tag_145\n      jump\t// in\n    tag_211:\n        /* \"swap.sol\":3651:3692  uint8 fromDecimals = fromToken.decimals() */\n      swap1\n      pop\n        /* \"swap.sol\":3702:3718  uint8 toDecimals */\n      0x00\n        /* \"swap.sol\":3721:3728  toToken */\n      dup3\n        /* \"swap.sol\":3721:3737  toToken.decimals */\n      0xffffffffffffffffffffffffffffffffffffffff\n      and\n      0x313ce567\n        /* \"swap.sol\":3721:3739  toToken.decimals() */\n      mload(0x40)\n      dup2\n      0xffffffff\n      and\n      0xe0\n      shl\n      dup2\n      mstore\n      0x04\n      add\n      0x20\n      mload(0x40)\n      dup1\n      dup4\n      sub\n      dup2\n      dup7\n      gas\n      staticcall\n      iszero\n      dup1\n      iszero\n      tag_213\n      jumpi\n      returndatacopy(0x00, 0x00, returndatasize)\n      revert(0x00, returndatasize)\n    tag_213:\n      pop\n      pop\n      pop\n      pop\n      mload(0x40)\n      returndatasize\n      not(0x1f)\n      0x1f\n      dup3\n      add\n      and\n      dup3\n      add\n      dup1\n      0x40\n      mstore\n      pop\n      dup2\n      add\n      swap1\n      tag_214\n      swap2\n      swap1\n      tag_145\n      jump\t// in\n    tag_214:\n        /* \"swap.sol\":3702:3739  uint8 toDecimals = toToken.decimals() */\n      swap1\n      pop\n        /* \"swap.sol\":3750:3761  bytes32 key */\n      0x00\n        /* \"swap.sol\":3791:3795  from */\n      dup9\n        /* \"swap.sol\":3797:3799  to */\n      dup9\n        /* \"swap.sol\":3774:3800  abi.encodePacked(from, to) */\n      add(0x20, mload(0x40))\n      tag_215\n      swap3\n      swap2\n      swap1\n      tag_84\n      jump\t// in\n    tag_215:\n      mload(0x40)\n      0x20\n      dup2\n      dup4\n      sub\n      sub\n      dup2\n      mstore\n      swap1\n      0x40\n      mstore\n        /* \"swap.sol\":3764:3801  keccak256(abi.encodePacked(from, to)) */\n      dup1\n      mload\n      swap1\n      0x20\n      add\n      keccak256\n        /* \"swap.sol\":3750:3801  bytes32 key = keccak256(abi.encodePacked(from, to)) */\n      swap1\n      pop\n        /* \"swap.sol\":3811:3823  uint256 rate */\n      0x00\n        /* \"swap.sol\":3826:3839  exchangeRates */\n      0x03\n        /* \"swap.sol\":3826:3844  exchangeRates[key] */\n      0x00\n        /* \"swap.sol\":3840:3843  key */\n      dup4\n        /* \"swap.sol\":3826:3844  exchangeRates[key] */\n      dup2\n      mstore\n      0x20\n      add\n      swap1\n      dup2\n      mstore\n      0x20\n      add\n      0x00\n      keccak256\n      sload\n        /* \"swap.sol\":3811:3844  uint256 rate = exchangeRates[key] */\n      swap1\n      pop\n        /* \"swap.sol\":3869:3870  0 */\n      0x00\n        /* \"swap.sol\":3862:3866  rate */\n      dup2\n        /* \"swap.sol\":3862:3870  rate > 0 */\n      gt\n        /* \"swap.sol\":3854:3887  require(rate > 0, \"Rate not set\") */\n      tag_216\n      jumpi\n      mload(0x40)\n      0x08c379a000000000000000000000000000000000000000000000000000000000\n      dup2\n      mstore\n      0x04\n      add\n      tag_217\n      swap1\n      tag_152\n      jump\t// in\n    tag_217:\n      mload(0x40)\n      dup1\n      swap2\n      sub\n      swap1\n      revert\n    tag_216:\n        /* \"swap.sol\":3898:3922  uint256 normalizedAmount */\n      0x00\n        /* \"swap.sol\":3940:3942  18 */\n      0x12\n        /* \"swap.sol\":3925:3937  fromDecimals */\n      dup6\n        /* \"swap.sol\":3925:3942  fromDecimals < 18 */\n      0xff\n      and\n      lt\n        /* \"swap.sol\":3925:4044  fromDecimals < 18... */\n      tag_218\n      jumpi\n        /* \"swap.sol\":4040:4042  18 */\n      0x12\n        /* \"swap.sol\":4025:4037  fromDecimals */\n      dup6\n        /* \"swap.sol\":4025:4042  fromDecimals - 18 */\n      tag_219\n      swap2\n      swap1\n      tag_155\n      jump\t// in\n    tag_219:\n        /* \"swap.sol\":4018:4020  10 */\n      0x0a\n        /* \"swap.sol\":4018:4043  10 ** (fromDecimals - 18) */\n      tag_220\n      swap2\n      swap1\n      tag_157\n      jump\t// in\n    tag_220:\n        /* \"swap.sol\":4008:4014  amount */\n      dup10\n        /* \"swap.sol\":4008:4044  amount / (10 ** (fromDecimals - 18)) */\n      tag_221\n      swap2\n      swap1\n      tag_87\n      jump\t// in\n    tag_221:\n        /* \"swap.sol\":3925:4044  fromDecimals < 18... */\n      jump(tag_222)\n    tag_218:\n        /* \"swap.sol\":3979:3991  fromDecimals */\n      dup5\n        /* \"swap.sol\":3974:3976  18 */\n      0x12\n        /* \"swap.sol\":3974:3991  18 - fromDecimals */\n      tag_223\n      swap2\n      swap1\n      tag_155\n      jump\t// in\n    tag_223:\n        /* \"swap.sol\":3967:3969  10 */\n      0x0a\n        /* \"swap.sol\":3967:3992  10 ** (18 - fromDecimals) */\n      tag_224\n      swap2\n      swap1\n      tag_157\n      jump\t// in\n    tag_224:\n        /* \"swap.sol\":3957:3963  amount */\n      dup10\n        /* \"swap.sol\":3957:3993  amount * (10 ** (18 - fromDecimals)) */\n      tag_225\n      swap2\n      swap1\n      tag_163\n      jump\t// in\n    tag_225:\n        /* \"swap.sol\":3925:4044  fromDecimals < 18... */\n    tag_222:\n        /* \"swap.sol\":3898:4044  uint256 normalizedAmount = fromDecimals < 18... */\n      swap1\n      pop\n        /* \"swap.sol\":4055:4081  uint256 normalizedToAmount */\n      0x00\n        /* \"swap.sol\":4112:4119  1 ether */\n      0x0de0b6b3a7640000\n        /* \"swap.sol\":4104:4108  rate */\n      dup4\n        /* \"swap.sol\":4085:4101  normalizedAmount */\n      dup4\n        /* \"swap.sol\":4085:4108  normalizedAmount * rate */\n      tag_226\n      swap2\n      swap1\n      tag_163\n      jump\t// in\n    tag_226:\n        /* \"swap.sol\":4084:4119  (normalizedAmount * rate) / 1 ether */\n      tag_227\n      swap2\n      swap1\n      tag_87\n      jump\t// in\n    tag_227:\n        /* \"swap.sol\":4055:4119  uint256 normalizedToAmount = (normalizedAmount * rate) / 1 ether */\n      swap1\n      pop\n        /* \"swap.sol\":4130:4146  uint256 toAmount */\n      0x00\n        /* \"swap.sol\":4162:4164  18 */\n      0x12\n        /* \"swap.sol\":4149:4159  toDecimals */\n      dup7\n        /* \"swap.sol\":4149:4164  toDecimals < 18 */\n      0xff\n      and\n      lt\n        /* \"swap.sol\":4149:4286  toDecimals < 18... */\n      tag_228\n      jumpi\n        /* \"swap.sol\":4282:4284  18 */\n      0x12\n        /* \"swap.sol\":4269:4279  toDecimals */\n      dup7\n        /* \"swap.sol\":4269:4284  toDecimals - 18 */\n      tag_229\n      swap2\n      swap1\n      tag_155\n      jump\t// in\n    tag_229:\n        /* \"swap.sol\":4262:4264  10 */\n      0x0a\n        /* \"swap.sol\":4262:4285  10 ** (toDecimals - 18) */\n      tag_230\n      swap2\n      swap1\n      tag_157\n      jump\t// in\n    tag_230:\n        /* \"swap.sol\":4240:4258  normalizedToAmount */\n      dup3\n        /* \"swap.sol\":4240:4286  normalizedToAmount * (10 ** (toDecimals - 18)) */\n      tag_231\n      swap2\n      swap1\n      tag_163\n      jump\t// in\n    tag_231:\n        /* \"swap.sol\":4149:4286  toDecimals < 18... */\n      jump(tag_232)\n    tag_228:\n        /* \"swap.sol\":4213:4223  toDecimals */\n      dup6\n        /* \"swap.sol\":4208:4210  18 */\n      0x12\n        /* \"swap.sol\":4208:4223  18 - toDecimals */\n      tag_233\n      swap2\n      swap1\n      tag_155\n      jump\t// in\n    tag_233:\n        /* \"swap.sol\":4201:4203  10 */\n      0x0a\n        /* \"swap.sol\":4201:4224  10 ** (18 - toDecimals) */\n      tag_234\n      swap2\n      swap1\n      tag_157\n      jump\t// in\n    tag_234:\n        /* \"swap.sol\":4179:4197  normalizedToAmount */\n      dup3\n        /* \"swap.sol\":4179:4225  normalizedToAmount / (10 ** (18 - toDecimals)) */\n      tag_235\n      swap2\n      swap1\n      tag_87\n      jump\t// in\n    tag_235:\n        /* \"swap.sol\":4149:4286  toDecimals < 18... */\n    tag_232:\n        /* \"swap.sol\":4130:4286  uint256 toAmount = toDecimals < 18... */\n      swap1\n      pop\n        /* \"swap.sol\":4304:4312  toAmount */\n      dup1\n        /* \"swap.sol\":4297:4312  return toAmount */\n      swap10\n      pop\n      pop\n      pop\n      pop\n      pop\n      pop\n      pop\n      pop\n      pop\n      pop\n        /* \"swap.sol\":3276:4319  function getExpectedOutput(string memory from, string memory to, uint256 amount) public view returns (uint256) {... */\n      swap4\n      swap3\n      pop\n      pop\n      pop\n      jump\t// out\n        /* \"@openzeppelin/contracts/access/Ownable.sol\":2543:2758  function transferOwnership(address newOwner) public virtual onlyOwner {... */\n    tag_66:\n        /* \"@openzeppelin/contracts/access/Ownable.sol\":1531:1544  _checkOwner() */\n      tag_237\n        /* \"@openzeppelin/contracts/access/Ownable.sol\":1531:1542  _checkOwner */\n      tag_69\n        /* \"@openzeppelin/contracts/access/Ownable.sol\":1531:1544  _checkOwner() */\n      jump\t// in\n    tag_237:\n        /* \"@openzeppelin/contracts/access/Ownable.sol\":2647:2648  0 */\n      0x00\n        /* \"@openzeppelin/contracts/access/Ownable.sol\":2627:2649  newOwner == address(0) */\n      0xffffffffffffffffffffffffffffffffffffffff\n      and\n        /* \"@openzeppelin/contracts/access/Ownable.sol\":2627:2635  newOwner */\n      dup2\n        /* \"@openzeppelin/contracts/access/Ownable.sol\":2627:2649  newOwner == address(0) */\n      0xffffffffffffffffffffffffffffffffffffffff\n      and\n      sub\n        /* \"@openzeppelin/contracts/access/Ownable.sol\":2623:2714  if (newOwner == address(0)) {... */\n      tag_239\n      jumpi\n        /* \"@openzeppelin/contracts/access/Ownable.sol\":2700:2701  0 */\n      0x00\n        /* \"@openzeppelin/contracts/access/Ownable.sol\":2672:2703  OwnableInvalidOwner(address(0)) */\n      mload(0x40)\n      0x1e4fbdf700000000000000000000000000000000000000000000000000000000\n      dup2\n      mstore\n      0x04\n      add\n      tag_240\n      swap2\n      swap1\n      tag_47\n      jump\t// in\n    tag_240:\n      mload(0x40)\n      dup1\n      swap2\n      sub\n      swap1\n      revert\n        /* \"@openzeppelin/contracts/access/Ownable.sol\":2623:2714  if (newOwner == address(0)) {... */\n    tag_239:\n        /* \"@openzeppelin/contracts/access/Ownable.sol\":2723:2751  _transferOwnership(newOwner) */\n      tag_241\n        /* \"@openzeppelin/contracts/access/Ownable.sol\":2742:2750  newOwner */\n      dup2\n        /* \"@openzeppelin/contracts/access/Ownable.sol\":2723:2741  _transferOwnership */\n      tag_105\n        /* \"@openzeppelin/contracts/access/Ownable.sol\":2723:2751  _transferOwnership(newOwner) */\n      jump\t// in\n    tag_241:\n        /* \"@openzeppelin/contracts/access/Ownable.sol\":2543:2758  function transferOwnership(address newOwner) public virtual onlyOwner {... */\n      pop\n      jump\t// out\n        /* \"@openzeppelin/contracts/access/Ownable.sol\":1796:1958  function _checkOwner() internal view virtual {... */\n    tag_69:\n        /* \"@openzeppelin/contracts/access/Ownable.sol\":1866:1878  _msgSender() */\n      tag_243\n        /* \"@openzeppelin/contracts/access/Ownable.sol\":1866:1876  _msgSender */\n      tag_244\n        /* \"@openzeppelin/contracts/access/Ownable.sol\":1866:1878  _msgSender() */\n      jump\t// in\n    tag_243:\n        /* \"@openzeppelin/contracts/access/Ownable.sol\":1855:1878  owner() != _msgSender() */\n      0xffffffffffffffffffffffffffffffffffffffff\n      and\n        /* \"@openzeppelin/contracts/access/Ownable.sol\":1855:1862  owner() */\n      tag_245\n        /* \"@openzeppelin/contracts/access/Ownable.sol\":1855:1860  owner */\n      tag_45\n        /* \"@openzeppelin/contracts/access/Ownable.sol\":1855:1862  owner() */\n      jump\t// in\n    tag_245:\n        /* \"@openzeppelin/contracts/access/Ownable.sol\":1855:1878  owner() != _msgSender() */\n      0xffffffffffffffffffffffffffffffffffffffff\n      and\n      eq\n        /* \"@openzeppelin/contracts/access/Ownable.sol\":1851:1952  if (owner() != _msgSender()) {... */\n      tag_246\n      jumpi\n        /* \"@openzeppelin/contracts/access/Ownable.sol\":1928:1940  _msgSender() */\n      tag_247\n        /* \"@openzeppelin/contracts/access/Ownable.sol\":1928:1938  _msgSender */\n      tag_244\n        /* \"@openzeppelin/contracts/access/Ownable.sol\":1928:1940  _msgSender() */\n      jump\t// in\n    tag_247:\n        /* \"@openzeppelin/contracts/access/Ownable.sol\":1901:1941  OwnableUnauthorizedAccount(_msgSender()) */\n      mload(0x40)\n      0x118cdaa700000000000000000000000000000000000000000000000000000000\n      dup2\n      mstore\n      0x04\n      add\n      tag_248\n      swap2\n      swap1\n      tag_47\n      jump\t// in\n    tag_248:\n      mload(0x40)\n      dup1\n      swap2\n      sub\n      swap1\n      revert\n        /* \"@openzeppelin/contracts/access/Ownable.sol\":1851:1952  if (owner() != _msgSender()) {... */\n    tag_246:\n        /* \"@openzeppelin/contracts/access/Ownable.sol\":1796:1958  function _checkOwner() internal view virtual {... */\n      jump\t// out\n        /* \"@openzeppelin/contracts/access/Ownable.sol\":2912:3099  function _transferOwnership(address newOwner) internal virtual {... */\n    tag_105:\n        /* \"@openzeppelin/contracts/access/Ownable.sol\":2985:3001  address oldOwner */\n      0x00\n        /* \"@openzeppelin/contracts/access/Ownable.sol\":3004:3010  _owner */\n      0x01\n      0x00\n      swap1\n      sload\n      swap1\n      0x0100\n      exp\n      swap1\n      div\n      0xffffffffffffffffffffffffffffffffffffffff\n      and\n        /* \"@openzeppelin/contracts/access/Ownable.sol\":2985:3010  address oldOwner = _owner */\n      swap1\n      pop\n        /* \"@openzeppelin/contracts/access/Ownable.sol\":3029:3037  newOwner */\n      dup2\n        /* \"@openzeppelin/contracts/access/Ownable.sol\":3020:3026  _owner */\n      0x01\n      0x00\n        /* \"@openzeppelin/contracts/access/Ownable.sol\":3020:3037  _owner = newOwner */\n      0x0100\n      exp\n      dup2\n      sload\n      dup2\n      0xffffffffffffffffffffffffffffffffffffffff\n      mul\n      not\n      and\n      swap1\n      dup4\n      0xffffffffffffffffffffffffffffffffffffffff\n      and\n      mul\n      or\n      swap1\n      sstore\n      pop\n        /* \"@openzeppelin/contracts/access/Ownable.sol\":3083:3091  newOwner */\n      dup2\n        /* \"@openzeppelin/contracts/access/Ownable.sol\":3052:3092  OwnershipTransferred(oldOwner, newOwner) */\n      0xffffffffffffffffffffffffffffffffffffffff\n      and\n        /* \"@openzeppelin/contracts/access/Ownable.sol\":3073:3081  oldOwner */\n      dup2\n        /* \"@openzeppelin/contracts/access/Ownable.sol\":3052:3092  OwnershipTransferred(oldOwner, newOwner) */\n      0xffffffffffffffffffffffffffffffffffffffff\n      and\n      0x8be0079c531659141344cd1fd0a4f28419497f9722a3daafe3b4186f6b6457e0\n      mload(0x40)\n      mload(0x40)\n      dup1\n      swap2\n      sub\n      swap1\n      log3\n        /* \"@openzeppelin/contracts/access/Ownable.sol\":2975:3099  {... */\n      pop\n        /* \"@openzeppelin/contracts/access/Ownable.sol\":2912:3099  function _transferOwnership(address newOwner) internal virtual {... */\n      pop\n      jump\t// out\n        /* \"@openzeppelin/contracts/security/ReentrancyGuard.sol\":2336:2623  function _nonReentrantBefore() private {... */\n    tag_111:\n        /* \"@openzeppelin/contracts/security/ReentrancyGuard.sol\":1759:1760  2 */\n      0x02\n        /* \"@openzeppelin/contracts/security/ReentrancyGuard.sol\":2468:2475  _status */\n      sload(0x00)\n        /* \"@openzeppelin/contracts/security/ReentrancyGuard.sol\":2468:2487  _status != _ENTERED */\n      sub\n        /* \"@openzeppelin/contracts/security/ReentrancyGuard.sol\":2460:2523  require(_status != _ENTERED, \"ReentrancyGuard: reentrant call\") */\n      tag_251\n      jumpi\n      mload(0x40)\n      0x08c379a000000000000000000000000000000000000000000000000000000000\n      dup2\n      mstore\n      0x04\n      add\n      tag_252\n      swap1\n      tag_253\n      jump\t// in\n    tag_252:\n      mload(0x40)\n      dup1\n      swap2\n      sub\n      swap1\n      revert\n    tag_251:\n        /* \"@openzeppelin/contracts/security/ReentrancyGuard.sol\":1759:1760  2 */\n      0x02\n        /* \"@openzeppelin/contracts/security/ReentrancyGuard.sol\":2598:2605  _status */\n      0x00\n        /* \"@openzeppelin/contracts/security/ReentrancyGuard.sol\":2598:2616  _status = _ENTERED */\n      dup2\n      swap1\n      sstore\n      pop\n        /* \"@openzeppelin/contracts/security/ReentrancyGuard.sol\":2336:2623  function _nonReentrantBefore() private {... */\n      jump\t// out\n        /* \"@openzeppelin/contracts/security/ReentrancyGuard.sol\":2629:2838  function _nonReentrantAfter() private {... */\n    tag_124:\n        /* \"@openzeppelin/contracts/security/ReentrancyGuard.sol\":1716:1717  1 */\n      0x01\n        /* \"@openzeppelin/contracts/security/ReentrancyGuard.sol\":2809:2816  _status */\n      0x00\n        /* \"@openzeppelin/contracts/security/ReentrancyGuard.sol\":2809:2831  _status = _NOT_ENTERED */\n      dup2\n      swap1\n      sstore\n      pop\n        /* \"@openzeppelin/contracts/security/ReentrancyGuard.sol\":2629:2838  function _nonReentrantAfter() private {... */\n      jump\t// out\n        /* \"@openzeppelin/contracts/utils/Context.sol\":656:752  function _msgSender() internal view virtual returns (address) {... */\n    tag_244:\n        /* \"@openzeppelin/contracts/utils/Context.sol\":709:716  address */\n      0x00\n        /* \"@openzeppelin/contracts/utils/Context.sol\":735:745  msg.sender */\n      caller\n        /* \"@openzeppelin/contracts/utils/Context.sol\":728:745  return msg.sender */\n      swap1\n      pop\n        /* \"@openzeppelin/contracts/utils/Context.sol\":656:752  function _msgSender() internal view virtual returns (address) {... */\n      swap1\n      jump\t// out\n        /* \"#utility.yul\":7:82   */\n    tag_256:\n        /* \"#utility.yul\":40:46   */\n      0x00\n        /* \"#utility.yul\":73:75   */\n      0x40\n        /* \"#utility.yul\":67:76   */\n      mload\n        /* \"#utility.yul\":57:76   */\n      swap1\n      pop\n        /* \"#utility.yul\":7:82   */\n      swap1\n      jump\t// out\n        /* \"#utility.yul\":88:205   */\n    tag_257:\n        /* \"#utility.yul\":197:198   */\n      0x00\n        /* \"#utility.yul\":194:195   */\n      0x00\n        /* \"#utility.yul\":187:199   */\n      revert\n        /* \"#utility.yul\":211:328   */\n    tag_258:\n        /* \"#utility.yul\":320:321   */\n      0x00\n        /* \"#utility.yul\":317:318   */\n      0x00\n        /* \"#utility.yul\":310:322   */\n      revert\n        /* \"#utility.yul\":334:451   */\n    tag_259:\n        /* \"#utility.yul\":443:444   */\n      0x00\n        /* \"#utility.yul\":440:441   */\n      0x00\n        /* \"#utility.yul\":433:445   */\n      revert\n        /* \"#utility.yul\":457:574   */\n    tag_260:\n        /* \"#utility.yul\":566:567   */\n      0x00\n        /* \"#utility.yul\":563:564   */\n      0x00\n        /* \"#utility.yul\":556:568   */\n      revert\n        /* \"#utility.yul\":580:682   */\n    tag_261:\n        /* \"#utility.yul\":621:627   */\n      0x00\n        /* \"#utility.yul\":672:674   */\n      0x1f\n        /* \"#utility.yul\":668:675   */\n      not\n        /* \"#utility.yul\":663:665   */\n      0x1f\n        /* \"#utility.yul\":656:661   */\n      dup4\n        /* \"#utility.yul\":652:666   */\n      add\n        /* \"#utility.yul\":648:676   */\n      and\n        /* \"#utility.yul\":638:676   */\n      swap1\n      pop\n        /* \"#utility.yul\":580:682   */\n      swap2\n      swap1\n      pop\n      jump\t// out\n        /* \"#utility.yul\":688:868   */\n    tag_262:\n        /* \"#utility.yul\":736:813   */\n      0x4e487b7100000000000000000000000000000000000000000000000000000000\n        /* \"#utility.yul\":733:734   */\n      0x00\n        /* \"#utility.yul\":726:814   */\n      mstore\n        /* \"#utility.yul\":833:837   */\n      0x41\n        /* \"#utility.yul\":830:831   */\n      0x04\n        /* \"#utility.yul\":823:838   */\n      mstore\n        /* \"#utility.yul\":857:861   */\n      0x24\n        /* \"#utility.yul\":854:855   */\n      0x00\n        /* \"#utility.yul\":847:862   */\n      revert\n        /* \"#utility.yul\":874:1155   */\n    tag_263:\n        /* \"#utility.yul\":957:984   */\n      tag_342\n        /* \"#utility.yul\":979:983   */\n      dup3\n        /* \"#utility.yul\":957:984   */\n      tag_261\n      jump\t// in\n    tag_342:\n        /* \"#utility.yul\":949:955   */\n      dup2\n        /* \"#utility.yul\":945:985   */\n      add\n        /* \"#utility.yul\":1087:1093   */\n      dup2\n        /* \"#utility.yul\":1075:1085   */\n      dup2\n        /* \"#utility.yul\":1072:1094   */\n      lt\n        /* \"#utility.yul\":1051:1069   */\n      0xffffffffffffffff\n        /* \"#utility.yul\":1039:1049   */\n      dup3\n        /* \"#utility.yul\":1036:1070   */\n      gt\n        /* \"#utility.yul\":1033:1095   */\n      or\n        /* \"#utility.yul\":1030:1118   */\n      iszero\n      tag_343\n      jumpi\n        /* \"#utility.yul\":1098:1116   */\n      tag_344\n      tag_262\n      jump\t// in\n    tag_344:\n        /* \"#utility.yul\":1030:1118   */\n    tag_343:\n        /* \"#utility.yul\":1138:1148   */\n      dup1\n        /* \"#utility.yul\":1134:1136   */\n      0x40\n        /* \"#utility.yul\":1127:1149   */\n      mstore\n        /* \"#utility.yul\":917:1155   */\n      pop\n        /* \"#utility.yul\":874:1155   */\n      pop\n      pop\n      jump\t// out\n        /* \"#utility.yul\":1161:1290   */\n    tag_264:\n        /* \"#utility.yul\":1195:1201   */\n      0x00\n        /* \"#utility.yul\":1222:1242   */\n      tag_346\n      tag_256\n      jump\t// in\n    tag_346:\n        /* \"#utility.yul\":1212:1242   */\n      swap1\n      pop\n        /* \"#utility.yul\":1251:1284   */\n      tag_347\n        /* \"#utility.yul\":1279:1283   */\n      dup3\n        /* \"#utility.yul\":1271:1277   */\n      dup3\n        /* \"#utility.yul\":1251:1284   */\n      tag_263\n      jump\t// in\n    tag_347:\n        /* \"#utility.yul\":1161:1290   */\n      swap2\n      swap1\n      pop\n      jump\t// out\n        /* \"#utility.yul\":1296:1604   */\n    tag_265:\n        /* \"#utility.yul\":1358:1362   */\n      0x00\n        /* \"#utility.yul\":1448:1466   */\n      0xffffffffffffffff\n        /* \"#utility.yul\":1440:1446   */\n      dup3\n        /* \"#utility.yul\":1437:1467   */\n      gt\n        /* \"#utility.yul\":1434:1490   */\n      iszero\n      tag_349\n      jumpi\n        /* \"#utility.yul\":1470:1488   */\n      tag_350\n      tag_262\n      jump\t// in\n    tag_350:\n        /* \"#utility.yul\":1434:1490   */\n    tag_349:\n        /* \"#utility.yul\":1508:1537   */\n      tag_351\n        /* \"#utility.yul\":1530:1536   */\n      dup3\n        /* \"#utility.yul\":1508:1537   */\n      tag_261\n      jump\t// in\n    tag_351:\n        /* \"#utility.yul\":1500:1537   */\n      swap1\n      pop\n        /* \"#utility.yul\":1592:1596   */\n      0x20\n        /* \"#utility.yul\":1586:1590   */\n      dup2\n        /* \"#utility.yul\":1582:1597   */\n      add\n        /* \"#utility.yul\":1574:1597   */\n      swap1\n      pop\n        /* \"#utility.yul\":1296:1604   */\n      swap2\n      swap1\n      pop\n      jump\t// out\n        /* \"#utility.yul\":1610:1758   */\n    tag_266:\n        /* \"#utility.yul\":1708:1714   */\n      dup3\n        /* \"#utility.yul\":1703:1706   */\n      dup2\n        /* \"#utility.yul\":1698:1701   */\n      dup4\n        /* \"#utility.yul\":1685:1715   */\n      calldatacopy\n        /* \"#utility.yul\":1749:1750   */\n      0x00\n        /* \"#utility.yul\":1740:1746   */\n      dup4\n        /* \"#utility.yul\":1735:1738   */\n      dup4\n        /* \"#utility.yul\":1731:1747   */\n      add\n        /* \"#utility.yul\":1724:1751   */\n      mstore\n        /* \"#utility.yul\":1610:1758   */\n      pop\n      pop\n      pop\n      jump\t// out\n        /* \"#utility.yul\":1764:2189   */\n    tag_267:\n        /* \"#utility.yul\":1842:1847   */\n      0x00\n        /* \"#utility.yul\":1867:1933   */\n      tag_354\n        /* \"#utility.yul\":1883:1932   */\n      tag_355\n        /* \"#utility.yul\":1925:1931   */\n      dup5\n        /* \"#utility.yul\":1883:1932   */\n      tag_265\n      jump\t// in\n    tag_355:\n        /* \"#utility.yul\":1867:1933   */\n      tag_264\n      jump\t// in\n    tag_354:\n        /* \"#utility.yul\":1858:1933   */\n      swap1\n      pop\n        /* \"#utility.yul\":1956:1962   */\n      dup3\n        /* \"#utility.yul\":1949:1954   */\n      dup2\n        /* \"#utility.yul\":1942:1963   */\n      mstore\n        /* \"#utility.yul\":1994:1998   */\n      0x20\n        /* \"#utility.yul\":1987:1992   */\n      dup2\n        /* \"#utility.yul\":1983:1999   */\n      add\n        /* \"#utility.yul\":2032:2035   */\n      dup5\n        /* \"#utility.yul\":2023:2029   */\n      dup5\n        /* \"#utility.yul\":2018:2021   */\n      dup5\n        /* \"#utility.yul\":2014:2030   */\n      add\n        /* \"#utility.yul\":2011:2036   */\n      gt\n        /* \"#utility.yul\":2008:2120   */\n      iszero\n      tag_356\n      jumpi\n        /* \"#utility.yul\":2039:2118   */\n      tag_357\n      tag_260\n      jump\t// in\n    tag_357:\n        /* \"#utility.yul\":2008:2120   */\n    tag_356:\n        /* \"#utility.yul\":2129:2183   */\n      tag_358\n        /* \"#utility.yul\":2176:2182   */\n      dup5\n        /* \"#utility.yul\":2171:2174   */\n      dup3\n        /* \"#utility.yul\":2166:2169   */\n      dup6\n        /* \"#utility.yul\":2129:2183   */\n      tag_266\n      jump\t// in\n    tag_358:\n        /* \"#utility.yul\":1848:2189   */\n      pop\n        /* \"#utility.yul\":1764:2189   */\n      swap4\n      swap3\n      pop\n      pop\n      pop\n      jump\t// out\n        /* \"#utility.yul\":2209:2549   */\n    tag_268:\n        /* \"#utility.yul\":2265:2270   */\n      0x00\n        /* \"#utility.yul\":2314:2317   */\n      dup3\n        /* \"#utility.yul\":2307:2311   */\n      0x1f\n        /* \"#utility.yul\":2299:2305   */\n      dup4\n        /* \"#utility.yul\":2295:2312   */\n      add\n        /* \"#utility.yul\":2291:2318   */\n      slt\n        /* \"#utility.yul\":2281:2403   */\n      tag_360\n      jumpi\n        /* \"#utility.yul\":2322:2401   */\n      tag_361\n      tag_259\n      jump\t// in\n    tag_361:\n        /* \"#utility.yul\":2281:2403   */\n    tag_360:\n        /* \"#utility.yul\":2439:2445   */\n      dup2\n        /* \"#utility.yul\":2426:2446   */\n      calldataload\n        /* \"#utility.yul\":2464:2543   */\n      tag_362\n        /* \"#utility.yul\":2539:2542   */\n      dup5\n        /* \"#utility.yul\":2531:2537   */\n      dup3\n        /* \"#utility.yul\":2524:2528   */\n      0x20\n        /* \"#utility.yul\":2516:2522   */\n      dup7\n        /* \"#utility.yul\":2512:2529   */\n      add\n        /* \"#utility.yul\":2464:2543   */\n      tag_267\n      jump\t// in\n    tag_362:\n        /* \"#utility.yul\":2455:2543   */\n      swap2\n      pop\n        /* \"#utility.yul\":2271:2549   */\n      pop\n        /* \"#utility.yul\":2209:2549   */\n      swap3\n      swap2\n      pop\n      pop\n      jump\t// out\n        /* \"#utility.yul\":2555:2632   */\n    tag_269:\n        /* \"#utility.yul\":2592:2599   */\n      0x00\n        /* \"#utility.yul\":2621:2626   */\n      dup2\n        /* \"#utility.yul\":2610:2626   */\n      swap1\n      pop\n        /* \"#utility.yul\":2555:2632   */\n      swap2\n      swap1\n      pop\n      jump\t// out\n        /* \"#utility.yul\":2638:2760   */\n    tag_270:\n        /* \"#utility.yul\":2711:2735   */\n      tag_365\n        /* \"#utility.yul\":2729:2734   */\n      dup2\n        /* \"#utility.yul\":2711:2735   */\n      tag_269\n      jump\t// in\n    tag_365:\n        /* \"#utility.yul\":2704:2709   */\n      dup2\n        /* \"#utility.yul\":2701:2736   */\n      eq\n        /* \"#utility.yul\":2691:2754   */\n      tag_366\n      jumpi\n        /* \"#utility.yul\":2750:2751   */\n      0x00\n        /* \"#utility.yul\":2747:2748   */\n      0x00\n        /* \"#utility.yul\":2740:2752   */\n      revert\n        /* \"#utility.yul\":2691:2754   */\n    tag_366:\n        /* \"#utility.yul\":2638:2760   */\n      pop\n      jump\t// out\n        /* \"#utility.yul\":2766:2905   */\n    tag_271:\n        /* \"#utility.yul\":2812:2817   */\n      0x00\n        /* \"#utility.yul\":2850:2856   */\n      dup2\n        /* \"#utility.yul\":2837:2857   */\n      calldataload\n        /* \"#utility.yul\":2828:2857   */\n      swap1\n      pop\n        /* \"#utility.yul\":2866:2899   */\n      tag_368\n        /* \"#utility.yul\":2893:2898   */\n      dup2\n        /* \"#utility.yul\":2866:2899   */\n      tag_270\n      jump\t// in\n    tag_368:\n        /* \"#utility.yul\":2766:2905   */\n      swap3\n      swap2\n      pop\n      pop\n      jump\t// out\n        /* \"#utility.yul\":2911:3890   */\n    tag_18:\n        /* \"#utility.yul\":3008:3014   */\n      0x00\n        /* \"#utility.yul\":3016:3022   */\n      0x00\n        /* \"#utility.yul\":3024:3030   */\n      0x00\n        /* \"#utility.yul\":3073:3075   */\n      0x60\n        /* \"#utility.yul\":3061:3070   */\n      dup5\n        /* \"#utility.yul\":3052:3059   */\n      dup7\n        /* \"#utility.yul\":3048:3071   */\n      sub\n        /* \"#utility.yul\":3044:3076   */\n      slt\n        /* \"#utility.yul\":3041:3160   */\n      iszero\n      tag_370\n      jumpi\n        /* \"#utility.yul\":3079:3158   */\n      tag_371\n      tag_257\n      jump\t// in\n    tag_371:\n        /* \"#utility.yul\":3041:3160   */\n    tag_370:\n        /* \"#utility.yul\":3227:3228   */\n      0x00\n        /* \"#utility.yul\":3216:3225   */\n      dup5\n        /* \"#utility.yul\":3212:3229   */\n      add\n        /* \"#utility.yul\":3199:3230   */\n      calldataload\n        /* \"#utility.yul\":3257:3275   */\n      0xffffffffffffffff\n        /* \"#utility.yul\":3249:3255   */\n      dup2\n        /* \"#utility.yul\":3246:3276   */\n      gt\n        /* \"#utility.yul\":3243:3360   */\n      iszero\n      tag_372\n      jumpi\n        /* \"#utility.yul\":3279:3358   */\n      tag_373\n      tag_258\n      jump\t// in\n    tag_373:\n        /* \"#utility.yul\":3243:3360   */\n    tag_372:\n        /* \"#utility.yul\":3384:3447   */\n      tag_374\n        /* \"#utility.yul\":3439:3446   */\n      dup7\n        /* \"#utility.yul\":3430:3436   */\n      dup3\n        /* \"#utility.yul\":3419:3428   */\n      dup8\n        /* \"#utility.yul\":3415:3437   */\n      add\n        /* \"#utility.yul\":3384:3447   */\n      tag_268\n      jump\t// in\n    tag_374:\n        /* \"#utility.yul\":3374:3447   */\n      swap4\n      pop\n        /* \"#utility.yul\":3170:3457   */\n      pop\n        /* \"#utility.yul\":3524:3526   */\n      0x20\n        /* \"#utility.yul\":3513:3522   */\n      dup5\n        /* \"#utility.yul\":3509:3527   */\n      add\n        /* \"#utility.yul\":3496:3528   */\n      calldataload\n        /* \"#utility.yul\":3555:3573   */\n      0xffffffffffffffff\n        /* \"#utility.yul\":3547:3553   */\n      dup2\n        /* \"#utility.yul\":3544:3574   */\n      gt\n        /* \"#utility.yul\":3541:3658   */\n      iszero\n      tag_375\n      jumpi\n        /* \"#utility.yul\":3577:3656   */\n      tag_376\n      tag_258\n      jump\t// in\n    tag_376:\n        /* \"#utility.yul\":3541:3658   */\n    tag_375:\n        /* \"#utility.yul\":3682:3745   */\n      tag_377\n        /* \"#utility.yul\":3737:3744   */\n      dup7\n        /* \"#utility.yul\":3728:3734   */\n      dup3\n        /* \"#utility.yul\":3717:3726   */\n      dup8\n        /* \"#utility.yul\":3713:3735   */\n      add\n        /* \"#utility.yul\":3682:3745   */\n      tag_268\n      jump\t// in\n    tag_377:\n        /* \"#utility.yul\":3672:3745   */\n      swap3\n      pop\n        /* \"#utility.yul\":3467:3755   */\n      pop\n        /* \"#utility.yul\":3794:3796   */\n      0x40\n        /* \"#utility.yul\":3820:3873   */\n      tag_378\n        /* \"#utility.yul\":3865:3872   */\n      dup7\n        /* \"#utility.yul\":3856:3862   */\n      dup3\n        /* \"#utility.yul\":3845:3854   */\n      dup8\n        /* \"#utility.yul\":3841:3863   */\n      add\n        /* \"#utility.yul\":3820:3873   */\n      tag_271\n      jump\t// in\n    tag_378:\n        /* \"#utility.yul\":3810:3873   */\n      swap2\n      pop\n        /* \"#utility.yul\":3765:3883   */\n      pop\n        /* \"#utility.yul\":2911:3890   */\n      swap3\n      pop\n      swap3\n      pop\n      swap3\n      jump\t// out\n        /* \"#utility.yul\":3896:4405   */\n    tag_22:\n        /* \"#utility.yul\":3965:3971   */\n      0x00\n        /* \"#utility.yul\":4014:4016   */\n      0x20\n        /* \"#utility.yul\":4002:4011   */\n      dup3\n        /* \"#utility.yul\":3993:4000   */\n      dup5\n        /* \"#utility.yul\":3989:4012   */\n      sub\n        /* \"#utility.yul\":3985:4017   */\n      slt\n        /* \"#utility.yul\":3982:4101   */\n      iszero\n      tag_380\n      jumpi\n        /* \"#utility.yul\":4020:4099   */\n      tag_381\n      tag_257\n      jump\t// in\n    tag_381:\n        /* \"#utility.yul\":3982:4101   */\n    tag_380:\n        /* \"#utility.yul\":4168:4169   */\n      0x00\n        /* \"#utility.yul\":4157:4166   */\n      dup3\n        /* \"#utility.yul\":4153:4170   */\n      add\n        /* \"#utility.yul\":4140:4171   */\n      calldataload\n        /* \"#utility.yul\":4198:4216   */\n      0xffffffffffffffff\n        /* \"#utility.yul\":4190:4196   */\n      dup2\n        /* \"#utility.yul\":4187:4217   */\n      gt\n        /* \"#utility.yul\":4184:4301   */\n      iszero\n      tag_382\n      jumpi\n        /* \"#utility.yul\":4220:4299   */\n      tag_383\n      tag_258\n      jump\t// in\n    tag_383:\n        /* \"#utility.yul\":4184:4301   */\n    tag_382:\n        /* \"#utility.yul\":4325:4388   */\n      tag_384\n        /* \"#utility.yul\":4380:4387   */\n      dup5\n        /* \"#utility.yul\":4371:4377   */\n      dup3\n        /* \"#utility.yul\":4360:4369   */\n      dup6\n        /* \"#utility.yul\":4356:4378   */\n      add\n        /* \"#utility.yul\":4325:4388   */\n      tag_268\n      jump\t// in\n    tag_384:\n        /* \"#utility.yul\":4315:4388   */\n      swap2\n      pop\n        /* \"#utility.yul\":4111:4398   */\n      pop\n        /* \"#utility.yul\":3896:4405   */\n      swap3\n      swap2\n      pop\n      pop\n      jump\t// out\n        /* \"#utility.yul\":4411:4537   */\n    tag_272:\n        /* \"#utility.yul\":4448:4455   */\n      0x00\n        /* \"#utility.yul\":4488:4530   */\n      0xffffffffffffffffffffffffffffffffffffffff\n        /* \"#utility.yul\":4481:4486   */\n      dup3\n        /* \"#utility.yul\":4477:4531   */\n      and\n        /* \"#utility.yul\":4466:4531   */\n      swap1\n      pop\n        /* \"#utility.yul\":4411:4537   */\n      swap2\n      swap1\n      pop\n      jump\t// out\n        /* \"#utility.yul\":4543:4603   */\n    tag_273:\n        /* \"#utility.yul\":4571:4574   */\n      0x00\n        /* \"#utility.yul\":4592:4597   */\n      dup2\n        /* \"#utility.yul\":4585:4597   */\n      swap1\n      pop\n        /* \"#utility.yul\":4543:4603   */\n      swap2\n      swap1\n      pop\n      jump\t// out\n        /* \"#utility.yul\":4609:4751   */\n    tag_274:\n        /* \"#utility.yul\":4659:4668   */\n      0x00\n        /* \"#utility.yul\":4692:4745   */\n      tag_388\n        /* \"#utility.yul\":4710:4744   */\n      tag_389\n        /* \"#utility.yul\":4719:4743   */\n      tag_390\n        /* \"#utility.yul\":4737:4742   */\n      dup5\n        /* \"#utility.yul\":4719:4743   */\n      tag_272\n      jump\t// in\n    tag_390:\n        /* \"#utility.yul\":4710:4744   */\n      tag_273\n      jump\t// in\n    tag_389:\n        /* \"#utility.yul\":4692:4745   */\n      tag_272\n      jump\t// in\n    tag_388:\n        /* \"#utility.yul\":4679:4745   */\n      swap1\n      pop\n        /* \"#utility.yul\":4609:4751   */\n      swap2\n      swap1\n      pop\n      jump\t// out\n        /* \"#utility.yul\":4757:4883   */\n    tag_275:\n        /* \"#utility.yul\":4807:4816   */\n      0x00\n        /* \"#utility.yul\":4840:4877   */\n      tag_392\n        /* \"#utility.yul\":4871:4876   */\n      dup3\n        /* \"#utility.yul\":4840:4877   */\n      tag_274\n      jump\t// in\n    tag_392:\n        /* \"#utility.yul\":4827:4877   */\n      swap1\n      pop\n        /* \"#utility.yul\":4757:4883   */\n      swap2\n      swap1\n      pop\n      jump\t// out\n        /* \"#utility.yul\":4889:5037   */\n    tag_276:\n        /* \"#utility.yul\":4961:4970   */\n      0x00\n        /* \"#utility.yul\":4994:5031   */\n      tag_394\n        /* \"#utility.yul\":5025:5030   */\n      dup3\n        /* \"#utility.yul\":4994:5031   */\n      tag_275\n      jump\t// in\n    tag_394:\n        /* \"#utility.yul\":4981:5031   */\n      swap1\n      pop\n        /* \"#utility.yul\":4889:5037   */\n      swap2\n      swap1\n      pop\n      jump\t// out\n        /* \"#utility.yul\":5043:5218   */\n    tag_277:\n        /* \"#utility.yul\":5152:5211   */\n      tag_396\n        /* \"#utility.yul\":5205:5210   */\n      dup2\n        /* \"#utility.yul\":5152:5211   */\n      tag_276\n      jump\t// in\n    tag_396:\n        /* \"#utility.yul\":5147:5150   */\n      dup3\n        /* \"#utility.yul\":5140:5212   */\n      mstore\n        /* \"#utility.yul\":5043:5218   */\n      pop\n      pop\n      jump\t// out\n        /* \"#utility.yul\":5224:5490   */\n    tag_25:\n        /* \"#utility.yul\":5339:5343   */\n      0x00\n        /* \"#utility.yul\":5377:5379   */\n      0x20\n        /* \"#utility.yul\":5366:5375   */\n      dup3\n        /* \"#utility.yul\":5362:5380   */\n      add\n        /* \"#utility.yul\":5354:5380   */\n      swap1\n      pop\n        /* \"#utility.yul\":5390:5483   */\n      tag_398\n        /* \"#utility.yul\":5480:5481   */\n      0x00\n        /* \"#utility.yul\":5469:5478   */\n      dup4\n        /* \"#utility.yul\":5465:5482   */\n      add\n        /* \"#utility.yul\":5456:5462   */\n      dup5\n        /* \"#utility.yul\":5390:5483   */\n      tag_277\n      jump\t// in\n    tag_398:\n        /* \"#utility.yul\":5224:5490   */\n      swap3\n      swap2\n      pop\n      pop\n      jump\t// out\n        /* \"#utility.yul\":5496:5592   */\n    tag_278:\n        /* \"#utility.yul\":5533:5540   */\n      0x00\n        /* \"#utility.yul\":5562:5586   */\n      tag_400\n        /* \"#utility.yul\":5580:5585   */\n      dup3\n        /* \"#utility.yul\":5562:5586   */\n      tag_272\n      jump\t// in\n    tag_400:\n        /* \"#utility.yul\":5551:5586   */\n      swap1\n      pop\n        /* \"#utility.yul\":5496:5592   */\n      swap2\n      swap1\n      pop\n      jump\t// out\n        /* \"#utility.yul\":5598:5720   */\n    tag_279:\n        /* \"#utility.yul\":5671:5695   */\n      tag_402\n        /* \"#utility.yul\":5689:5694   */\n      dup2\n        /* \"#utility.yul\":5671:5695   */\n      tag_278\n      jump\t// in\n    tag_402:\n        /* \"#utility.yul\":5664:5669   */\n      dup2\n        /* \"#utility.yul\":5661:5696   */\n      eq\n        /* \"#utility.yul\":5651:5714   */\n      tag_403\n      jumpi\n        /* \"#utility.yul\":5710:5711   */\n      0x00\n        /* \"#utility.yul\":5707:5708   */\n      0x00\n        /* \"#utility.yul\":5700:5712   */\n      revert\n        /* \"#utility.yul\":5651:5714   */\n    tag_403:\n        /* \"#utility.yul\":5598:5720   */\n      pop\n      jump\t// out\n        /* \"#utility.yul\":5726:5865   */\n    tag_280:\n        /* \"#utility.yul\":5772:5777   */\n      0x00\n        /* \"#utility.yul\":5810:5816   */\n      dup2\n        /* \"#utility.yul\":5797:5817   */\n      calldataload\n        /* \"#utility.yul\":5788:5817   */\n      swap1\n      pop\n        /* \"#utility.yul\":5826:5859   */\n      tag_405\n        /* \"#utility.yul\":5853:5858   */\n      dup2\n        /* \"#utility.yul\":5826:5859   */\n      tag_279\n      jump\t// in\n    tag_405:\n        /* \"#utility.yul\":5726:5865   */\n      swap3\n      swap2\n      pop\n      pop\n      jump\t// out\n        /* \"#utility.yul\":5871:6525   */\n    tag_28:\n        /* \"#utility.yul\":5949:5955   */\n      0x00\n        /* \"#utility.yul\":5957:5963   */\n      0x00\n        /* \"#utility.yul\":6006:6008   */\n      0x40\n        /* \"#utility.yul\":5994:6003   */\n      dup4\n        /* \"#utility.yul\":5985:5992   */\n      dup6\n        /* \"#utility.yul\":5981:6004   */\n      sub\n        /* \"#utility.yul\":5977:6009   */\n      slt\n        /* \"#utility.yul\":5974:6093   */\n      iszero\n      tag_407\n      jumpi\n        /* \"#utility.yul\":6012:6091   */\n      tag_408\n      tag_257\n      jump\t// in\n    tag_408:\n        /* \"#utility.yul\":5974:6093   */\n    tag_407:\n        /* \"#utility.yul\":6160:6161   */\n      0x00\n        /* \"#utility.yul\":6149:6158   */\n      dup4\n        /* \"#utility.yul\":6145:6162   */\n      add\n        /* \"#utility.yul\":6132:6163   */\n      calldataload\n        /* \"#utility.yul\":6190:6208   */\n      0xffffffffffffffff\n        /* \"#utility.yul\":6182:6188   */\n      dup2\n        /* \"#utility.yul\":6179:6209   */\n      gt\n        /* \"#utility.yul\":6176:6293   */\n      iszero\n      tag_409\n      jumpi\n        /* \"#utility.yul\":6212:6291   */\n      tag_410\n      tag_258\n      jump\t// in\n    tag_410:\n        /* \"#utility.yul\":6176:6293   */\n    tag_409:\n        /* \"#utility.yul\":6317:6380   */\n      tag_411\n        /* \"#utility.yul\":6372:6379   */\n      dup6\n        /* \"#utility.yul\":6363:6369   */\n      dup3\n        /* \"#utility.yul\":6352:6361   */\n      dup7\n        /* \"#utility.yul\":6348:6370   */\n      add\n        /* \"#utility.yul\":6317:6380   */\n      tag_268\n      jump\t// in\n    tag_411:\n        /* \"#utility.yul\":6307:6380   */\n      swap3\n      pop\n        /* \"#utility.yul\":6103:6390   */\n      pop\n        /* \"#utility.yul\":6429:6431   */\n      0x20\n        /* \"#utility.yul\":6455:6508   */\n      tag_412\n        /* \"#utility.yul\":6500:6507   */\n      dup6\n        /* \"#utility.yul\":6491:6497   */\n      dup3\n        /* \"#utility.yul\":6480:6489   */\n      dup7\n        /* \"#utility.yul\":6476:6498   */\n      add\n        /* \"#utility.yul\":6455:6508   */\n      tag_280\n      jump\t// in\n    tag_412:\n        /* \"#utility.yul\":6445:6508   */\n      swap2\n      pop\n        /* \"#utility.yul\":6400:6518   */\n      pop\n        /* \"#utility.yul\":5871:6525   */\n      swap3\n      pop\n      swap3\n      swap1\n      pop\n      jump\t// out\n        /* \"#utility.yul\":6531:7365   */\n    tag_32:\n        /* \"#utility.yul\":6619:6625   */\n      0x00\n        /* \"#utility.yul\":6627:6633   */\n      0x00\n        /* \"#utility.yul\":6676:6678   */\n      0x40\n        /* \"#utility.yul\":6664:6673   */\n      dup4\n        /* \"#utility.yul\":6655:6662   */\n      dup6\n        /* \"#utility.yul\":6651:6674   */\n      sub\n        /* \"#utility.yul\":6647:6679   */\n      slt\n        /* \"#utility.yul\":6644:6763   */\n      iszero\n      tag_414\n      jumpi\n        /* \"#utility.yul\":6682:6761   */\n      tag_415\n      tag_257\n      jump\t// in\n    tag_415:\n        /* \"#utility.yul\":6644:6763   */\n    tag_414:\n        /* \"#utility.yul\":6830:6831   */\n      0x00\n        /* \"#utility.yul\":6819:6828   */\n      dup4\n        /* \"#utility.yul\":6815:6832   */\n      add\n        /* \"#utility.yul\":6802:6833   */\n      calldataload\n        /* \"#utility.yul\":6860:6878   */\n      0xffffffffffffffff\n        /* \"#utility.yul\":6852:6858   */\n      dup2\n        /* \"#utility.yul\":6849:6879   */\n      gt\n        /* \"#utility.yul\":6846:6963   */\n      iszero\n      tag_416\n      jumpi\n        /* \"#utility.yul\":6882:6961   */\n      tag_417\n      tag_258\n      jump\t// in\n    tag_417:\n        /* \"#utility.yul\":6846:6963   */\n    tag_416:\n        /* \"#utility.yul\":6987:7050   */\n      tag_418\n        /* \"#utility.yul\":7042:7049   */\n      dup6\n        /* \"#utility.yul\":7033:7039   */\n      dup3\n        /* \"#utility.yul\":7022:7031   */\n      dup7\n        /* \"#utility.yul\":7018:7040   */\n      add\n        /* \"#utility.yul\":6987:7050   */\n      tag_268\n      jump\t// in\n    tag_418:\n        /* \"#utility.yul\":6977:7050   */\n      swap3\n      pop\n        /* \"#utility.yul\":6773:7060   */\n      pop\n        /* \"#utility.yul\":7127:7129   */\n      0x20\n        /* \"#utility.yul\":7116:7125   */\n      dup4\n        /* \"#utility.yul\":7112:7130   */\n      add\n        /* \"#utility.yul\":7099:7131   */\n      calldataload\n        /* \"#utility.yul\":7158:7176   */\n      0xffffffffffffffff\n        /* \"#utility.yul\":7150:7156   */\n      dup2\n        /* \"#utility.yul\":7147:7177   */\n      gt\n        /* \"#utility.yul\":7144:7261   */\n      iszero\n      tag_419\n      jumpi\n        /* \"#utility.yul\":7180:7259   */\n      tag_420\n      tag_258\n      jump\t// in\n    tag_420:\n        /* \"#utility.yul\":7144:7261   */\n    tag_419:\n        /* \"#utility.yul\":7285:7348   */\n      tag_421\n        /* \"#utility.yul\":7340:7347   */\n      dup6\n        /* \"#utility.yul\":7331:7337   */\n      dup3\n        /* \"#utility.yul\":7320:7329   */\n      dup7\n        /* \"#utility.yul\":7316:7338   */\n      add\n        /* \"#utility.yul\":7285:7348   */\n      tag_268\n      jump\t// in\n    tag_421:\n        /* \"#utility.yul\":7275:7348   */\n      swap2\n      pop\n        /* \"#utility.yul\":7070:7358   */\n      pop\n        /* \"#utility.yul\":6531:7365   */\n      swap3\n      pop\n      swap3\n      swap1\n      pop\n      jump\t// out\n        /* \"#utility.yul\":7371:7448   */\n    tag_281:\n        /* \"#utility.yul\":7408:7415   */\n      0x00\n        /* \"#utility.yul\":7437:7442   */\n      dup2\n        /* \"#utility.yul\":7426:7442   */\n      swap1\n      pop\n        /* \"#utility.yul\":7371:7448   */\n      swap2\n      swap1\n      pop\n      jump\t// out\n        /* \"#utility.yul\":7454:7572   */\n    tag_282:\n        /* \"#utility.yul\":7541:7565   */\n      tag_424\n        /* \"#utility.yul\":7559:7564   */\n      dup2\n        /* \"#utility.yul\":7541:7565   */\n      tag_281\n      jump\t// in\n    tag_424:\n        /* \"#utility.yul\":7536:7539   */\n      dup3\n        /* \"#utility.yul\":7529:7566   */\n      mstore\n        /* \"#utility.yul\":7454:7572   */\n      pop\n      pop\n      jump\t// out\n        /* \"#utility.yul\":7578:7800   */\n    tag_35:\n        /* \"#utility.yul\":7671:7675   */\n      0x00\n        /* \"#utility.yul\":7709:7711   */\n      0x20\n        /* \"#utility.yul\":7698:7707   */\n      dup3\n        /* \"#utility.yul\":7694:7712   */\n      add\n        /* \"#utility.yul\":7686:7712   */\n      swap1\n      pop\n        /* \"#utility.yul\":7722:7793   */\n      tag_426\n        /* \"#utility.yul\":7790:7791   */\n      0x00\n        /* \"#utility.yul\":7779:7788   */\n      dup4\n        /* \"#utility.yul\":7775:7792   */\n      add\n        /* \"#utility.yul\":7766:7772   */\n      dup5\n        /* \"#utility.yul\":7722:7793   */\n      tag_282\n      jump\t// in\n    tag_426:\n        /* \"#utility.yul\":7578:7800   */\n      swap3\n      swap2\n      pop\n      pop\n      jump\t// out\n        /* \"#utility.yul\":7806:7928   */\n    tag_283:\n        /* \"#utility.yul\":7879:7903   */\n      tag_428\n        /* \"#utility.yul\":7897:7902   */\n      dup2\n        /* \"#utility.yul\":7879:7903   */\n      tag_281\n      jump\t// in\n    tag_428:\n        /* \"#utility.yul\":7872:7877   */\n      dup2\n        /* \"#utility.yul\":7869:7904   */\n      eq\n        /* \"#utility.yul\":7859:7922   */\n      tag_429\n      jumpi\n        /* \"#utility.yul\":7918:7919   */\n      0x00\n        /* \"#utility.yul\":7915:7916   */\n      0x00\n        /* \"#utility.yul\":7908:7920   */\n      revert\n        /* \"#utility.yul\":7859:7922   */\n    tag_429:\n        /* \"#utility.yul\":7806:7928   */\n      pop\n      jump\t// out\n        /* \"#utility.yul\":7934:8073   */\n    tag_284:\n        /* \"#utility.yul\":7980:7985   */\n      0x00\n        /* \"#utility.yul\":8018:8024   */\n      dup2\n        /* \"#utility.yul\":8005:8025   */\n      calldataload\n        /* \"#utility.yul\":7996:8025   */\n      swap1\n      pop\n        /* \"#utility.yul\":8034:8067   */\n      tag_431\n        /* \"#utility.yul\":8061:8066   */\n      dup2\n        /* \"#utility.yul\":8034:8067   */\n      tag_283\n      jump\t// in\n    tag_431:\n        /* \"#utility.yul\":7934:8073   */\n      swap3\n      swap2\n      pop\n      pop\n      jump\t// out\n        /* \"#utility.yul\":8079:8408   */\n    tag_38:\n        /* \"#utility.yul\":8138:8144   */\n      0x00\n        /* \"#utility.yul\":8187:8189   */\n      0x20\n        /* \"#utility.yul\":8175:8184   */\n      dup3\n        /* \"#utility.yul\":8166:8173   */\n      dup5\n        /* \"#utility.yul\":8162:8185   */\n      sub\n        /* \"#utility.yul\":8158:8190   */\n      slt\n        /* \"#utility.yul\":8155:8274   */\n      iszero\n      tag_433\n      jumpi\n        /* \"#utility.yul\":8193:8272   */\n      tag_434\n      tag_257\n      jump\t// in\n    tag_434:\n        /* \"#utility.yul\":8155:8274   */\n    tag_433:\n        /* \"#utility.yul\":8313:8314   */\n      0x00\n        /* \"#utility.yul\":8338:8391   */\n      tag_435\n        /* \"#utility.yul\":8383:8390   */\n      dup5\n        /* \"#utility.yul\":8374:8380   */\n      dup3\n        /* \"#utility.yul\":8363:8372   */\n      dup6\n        /* \"#utility.yul\":8359:8381   */\n      add\n        /* \"#utility.yul\":8338:8391   */\n      tag_284\n      jump\t// in\n    tag_435:\n        /* \"#utility.yul\":8328:8391   */\n      swap2\n      pop\n        /* \"#utility.yul\":8284:8401   */\n      pop\n        /* \"#utility.yul\":8079:8408   */\n      swap3\n      swap2\n      pop\n      pop\n      jump\t// out\n        /* \"#utility.yul\":8414:8532   */\n    tag_285:\n        /* \"#utility.yul\":8501:8525   */\n      tag_437\n        /* \"#utility.yul\":8519:8524   */\n      dup2\n        /* \"#utility.yul\":8501:8525   */\n      tag_269\n      jump\t// in\n    tag_437:\n        /* \"#utility.yul\":8496:8499   */\n      dup3\n        /* \"#utility.yul\":8489:8526   */\n      mstore\n        /* \"#utility.yul\":8414:8532   */\n      pop\n      pop\n      jump\t// out\n        /* \"#utility.yul\":8538:8760   */\n    tag_41:\n        /* \"#utility.yul\":8631:8635   */\n      0x00\n        /* \"#utility.yul\":8669:8671   */\n      0x20\n        /* \"#utility.yul\":8658:8667   */\n      dup3\n        /* \"#utility.yul\":8654:8672   */\n      add\n        /* \"#utility.yul\":8646:8672   */\n      swap1\n      pop\n        /* \"#utility.yul\":8682:8753   */\n      tag_439\n        /* \"#utility.yul\":8750:8751   */\n      0x00\n        /* \"#utility.yul\":8739:8748   */\n      dup4\n        /* \"#utility.yul\":8735:8752   */\n      add\n        /* \"#utility.yul\":8726:8732   */\n      dup5\n        /* \"#utility.yul\":8682:8753   */\n      tag_285\n      jump\t// in\n    tag_439:\n        /* \"#utility.yul\":8538:8760   */\n      swap3\n      swap2\n      pop\n      pop\n      jump\t// out\n        /* \"#utility.yul\":8766:8884   */\n    tag_286:\n        /* \"#utility.yul\":8853:8877   */\n      tag_441\n        /* \"#utility.yul\":8871:8876   */\n      dup2\n        /* \"#utility.yul\":8853:8877   */\n      tag_278\n      jump\t// in\n    tag_441:\n        /* \"#utility.yul\":8848:8851   */\n      dup3\n        /* \"#utility.yul\":8841:8878   */\n      mstore\n        /* \"#utility.yul\":8766:8884   */\n      pop\n      pop\n      jump\t// out\n        /* \"#utility.yul\":8890:9112   */\n    tag_47:\n        /* \"#utility.yul\":8983:8987   */\n      0x00\n        /* \"#utility.yul\":9021:9023   */\n      0x20\n        /* \"#utility.yul\":9010:9019   */\n      dup3\n        /* \"#utility.yul\":9006:9024   */\n      add\n        /* \"#utility.yul\":8998:9024   */\n      swap1\n      pop\n        /* \"#utility.yul\":9034:9105   */\n      tag_443\n        /* \"#utility.yul\":9102:9103   */\n      0x00\n        /* \"#utility.yul\":9091:9100   */\n      dup4\n        /* \"#utility.yul\":9087:9104   */\n      add\n        /* \"#utility.yul\":9078:9084   */\n      dup5\n        /* \"#utility.yul\":9034:9105   */\n      tag_286\n      jump\t// in\n    tag_443:\n        /* \"#utility.yul\":8890:9112   */\n      swap3\n      swap2\n      pop\n      pop\n      jump\t// out\n        /* \"#utility.yul\":9118:9592   */\n    tag_50:\n        /* \"#utility.yul\":9186:9192   */\n      0x00\n        /* \"#utility.yul\":9194:9200   */\n      0x00\n        /* \"#utility.yul\":9243:9245   */\n      0x40\n        /* \"#utility.yul\":9231:9240   */\n      dup4\n        /* \"#utility.yul\":9222:9229   */\n      dup6\n        /* \"#utility.yul\":9218:9241   */\n      sub\n        /* \"#utility.yul\":9214:9246   */\n      slt\n        /* \"#utility.yul\":9211:9330   */\n      iszero\n      tag_445\n      jumpi\n        /* \"#utility.yul\":9249:9328   */\n      tag_446\n      tag_257\n      jump\t// in\n    tag_446:\n        /* \"#utility.yul\":9211:9330   */\n    tag_445:\n        /* \"#utility.yul\":9369:9370   */\n      0x00\n        /* \"#utility.yul\":9394:9447   */\n      tag_447\n        /* \"#utility.yul\":9439:9446   */\n      dup6\n        /* \"#utility.yul\":9430:9436   */\n      dup3\n        /* \"#utility.yul\":9419:9428   */\n      dup7\n        /* \"#utility.yul\":9415:9437   */\n      add\n        /* \"#utility.yul\":9394:9447   */\n      tag_280\n      jump\t// in\n    tag_447:\n        /* \"#utility.yul\":9384:9447   */\n      swap3\n      pop\n        /* \"#utility.yul\":9340:9457   */\n      pop\n        /* \"#utility.yul\":9496:9498   */\n      0x20\n        /* \"#utility.yul\":9522:9575   */\n      tag_448\n        /* \"#utility.yul\":9567:9574   */\n      dup6\n        /* \"#utility.yul\":9558:9564   */\n      dup3\n        /* \"#utility.yul\":9547:9556   */\n      dup7\n        /* \"#utility.yul\":9543:9565   */\n      add\n        /* \"#utility.yul\":9522:9575   */\n      tag_271\n      jump\t// in\n    tag_448:\n        /* \"#utility.yul\":9512:9575   */\n      swap2\n      pop\n        /* \"#utility.yul\":9467:9585   */\n      pop\n        /* \"#utility.yul\":9118:9592   */\n      swap3\n      pop\n      swap3\n      swap1\n      pop\n      jump\t// out\n        /* \"#utility.yul\":9598:9927   */\n    tag_65:\n        /* \"#utility.yul\":9657:9663   */\n      0x00\n        /* \"#utility.yul\":9706:9708   */\n      0x20\n        /* \"#utility.yul\":9694:9703   */\n      dup3\n        /* \"#utility.yul\":9685:9692   */\n      dup5\n        /* \"#utility.yul\":9681:9704   */\n      sub\n        /* \"#utility.yul\":9677:9709   */\n      slt\n        /* \"#utility.yul\":9674:9793   */\n      iszero\n      tag_450\n      jumpi\n        /* \"#utility.yul\":9712:9791   */\n      tag_451\n      tag_257\n      jump\t// in\n    tag_451:\n        /* \"#utility.yul\":9674:9793   */\n    tag_450:\n        /* \"#utility.yul\":9832:9833   */\n      0x00\n        /* \"#utility.yul\":9857:9910   */\n      tag_452\n        /* \"#utility.yul\":9902:9909   */\n      dup5\n        /* \"#utility.yul\":9893:9899   */\n      dup3\n        /* \"#utility.yul\":9882:9891   */\n      dup6\n        /* \"#utility.yul\":9878:9900   */\n      add\n        /* \"#utility.yul\":9857:9910   */\n      tag_280\n      jump\t// in\n    tag_452:\n        /* \"#utility.yul\":9847:9910   */\n      swap2\n      pop\n        /* \"#utility.yul\":9803:9920   */\n      pop\n        /* \"#utility.yul\":9598:9927   */\n      swap3\n      swap2\n      pop\n      pop\n      jump\t// out\n        /* \"#utility.yul\":9933:10032   */\n    tag_287:\n        /* \"#utility.yul\":9985:9991   */\n      0x00\n        /* \"#utility.yul\":10019:10024   */\n      dup2\n        /* \"#utility.yul\":10013:10025   */\n      mload\n        /* \"#utility.yul\":10003:10025   */\n      swap1\n      pop\n        /* \"#utility.yul\":9933:10032   */\n      swap2\n      swap1\n      pop\n      jump\t// out\n        /* \"#utility.yul\":10038:10186   */\n    tag_288:\n        /* \"#utility.yul\":10140:10151   */\n      0x00\n        /* \"#utility.yul\":10177:10180   */\n      dup2\n        /* \"#utility.yul\":10162:10180   */\n      swap1\n      pop\n        /* \"#utility.yul\":10038:10186   */\n      swap3\n      swap2\n      pop\n      pop\n      jump\t// out\n        /* \"#utility.yul\":10192:10331   */\n    tag_289:\n        /* \"#utility.yul\":10281:10287   */\n      dup3\n        /* \"#utility.yul\":10276:10279   */\n      dup2\n        /* \"#utility.yul\":10271:10274   */\n      dup4\n        /* \"#utility.yul\":10265:10288   */\n      mcopy\n        /* \"#utility.yul\":10322:10323   */\n      0x00\n        /* \"#utility.yul\":10313:10319   */\n      dup4\n        /* \"#utility.yul\":10308:10311   */\n      dup4\n        /* \"#utility.yul\":10304:10320   */\n      add\n        /* \"#utility.yul\":10297:10324   */\n      mstore\n        /* \"#utility.yul\":10192:10331   */\n      pop\n      pop\n      pop\n      jump\t// out\n        /* \"#utility.yul\":10337:10727   */\n    tag_290:\n        /* \"#utility.yul\":10443:10446   */\n      0x00\n        /* \"#utility.yul\":10471:10510   */\n      tag_457\n        /* \"#utility.yul\":10504:10509   */\n      dup3\n        /* \"#utility.yul\":10471:10510   */\n      tag_287\n      jump\t// in\n    tag_457:\n        /* \"#utility.yul\":10526:10615   */\n      tag_458\n        /* \"#utility.yul\":10608:10614   */\n      dup2\n        /* \"#utility.yul\":10603:10606   */\n      dup6\n        /* \"#utility.yul\":10526:10615   */\n      tag_288\n      jump\t// in\n    tag_458:\n        /* \"#utility.yul\":10519:10615   */\n      swap4\n      pop\n        /* \"#utility.yul\":10624:10689   */\n      tag_459\n        /* \"#utility.yul\":10682:10688   */\n      dup2\n        /* \"#utility.yul\":10677:10680   */\n      dup6\n        /* \"#utility.yul\":10670:10674   */\n      0x20\n        /* \"#utility.yul\":10663:10668   */\n      dup7\n        /* \"#utility.yul\":10659:10675   */\n      add\n        /* \"#utility.yul\":10624:10689   */\n      tag_289\n      jump\t// in\n    tag_459:\n        /* \"#utility.yul\":10714:10720   */\n      dup1\n        /* \"#utility.yul\":10709:10712   */\n      dup5\n        /* \"#utility.yul\":10705:10721   */\n      add\n        /* \"#utility.yul\":10698:10721   */\n      swap2\n      pop\n        /* \"#utility.yul\":10447:10727   */\n      pop\n        /* \"#utility.yul\":10337:10727   */\n      swap3\n      swap2\n      pop\n      pop\n      jump\t// out\n        /* \"#utility.yul\":10733:11008   */\n    tag_72:\n        /* \"#utility.yul\":10865:10868   */\n      0x00\n        /* \"#utility.yul\":10887:10982   */\n      tag_461\n        /* \"#utility.yul\":10978:10981   */\n      dup3\n        /* \"#utility.yul\":10969:10975   */\n      dup5\n        /* \"#utility.yul\":10887:10982   */\n      tag_290\n      jump\t// in\n    tag_461:\n        /* \"#utility.yul\":10880:10982   */\n      swap2\n      pop\n        /* \"#utility.yul\":10999:11002   */\n      dup2\n        /* \"#utility.yul\":10992:11002   */\n      swap1\n      pop\n        /* \"#utility.yul\":10733:11008   */\n      swap3\n      swap2\n      pop\n      pop\n      jump\t// out\n        /* \"#utility.yul\":11014:11183   */\n    tag_291:\n        /* \"#utility.yul\":11098:11109   */\n      0x00\n        /* \"#utility.yul\":11132:11138   */\n      dup3\n        /* \"#utility.yul\":11127:11130   */\n      dup3\n        /* \"#utility.yul\":11120:11139   */\n      mstore\n        /* \"#utility.yul\":11172:11176   */\n      0x20\n        /* \"#utility.yul\":11167:11170   */\n      dup3\n        /* \"#utility.yul\":11163:11177   */\n      add\n        /* \"#utility.yul\":11148:11177   */\n      swap1\n      pop\n        /* \"#utility.yul\":11014:11183   */\n      swap3\n      swap2\n      pop\n      pop\n      jump\t// out\n        /* \"#utility.yul\":11189:11357   */\n    tag_292:\n        /* \"#utility.yul\":11329:11349   */\n      0x46726f6d20746f6b656e206e6f74207365740000000000000000000000000000\n        /* \"#utility.yul\":11325:11326   */\n      0x00\n        /* \"#utility.yul\":11317:11323   */\n      dup3\n        /* \"#utility.yul\":11313:11327   */\n      add\n        /* \"#utility.yul\":11306:11350   */\n      mstore\n        /* \"#utility.yul\":11189:11357   */\n      pop\n      jump\t// out\n        /* \"#utility.yul\":11363:11729   */\n    tag_293:\n        /* \"#utility.yul\":11505:11508   */\n      0x00\n        /* \"#utility.yul\":11526:11593   */\n      tag_465\n        /* \"#utility.yul\":11590:11592   */\n      0x12\n        /* \"#utility.yul\":11585:11588   */\n      dup4\n        /* \"#utility.yul\":11526:11593   */\n      tag_291\n      jump\t// in\n    tag_465:\n        /* \"#utility.yul\":11519:11593   */\n      swap2\n      pop\n        /* \"#utility.yul\":11602:11695   */\n      tag_466\n        /* \"#utility.yul\":11691:11694   */\n      dup3\n        /* \"#utility.yul\":11602:11695   */\n      tag_292\n      jump\t// in\n    tag_466:\n        /* \"#utility.yul\":11720:11722   */\n      0x20\n        /* \"#utility.yul\":11715:11718   */\n      dup3\n        /* \"#utility.yul\":11711:11723   */\n      add\n        /* \"#utility.yul\":11704:11723   */\n      swap1\n      pop\n        /* \"#utility.yul\":11363:11729   */\n      swap2\n      swap1\n      pop\n      jump\t// out\n        /* \"#utility.yul\":11735:12154   */\n    tag_75:\n        /* \"#utility.yul\":11901:11905   */\n      0x00\n        /* \"#utility.yul\":11939:11941   */\n      0x20\n        /* \"#utility.yul\":11928:11937   */\n      dup3\n        /* \"#utility.yul\":11924:11942   */\n      add\n        /* \"#utility.yul\":11916:11942   */\n      swap1\n      pop\n        /* \"#utility.yul\":11988:11997   */\n      dup2\n        /* \"#utility.yul\":11982:11986   */\n      dup2\n        /* \"#utility.yul\":11978:11998   */\n      sub\n        /* \"#utility.yul\":11974:11975   */\n      0x00\n        /* \"#utility.yul\":11963:11972   */\n      dup4\n        /* \"#utility.yul\":11959:11976   */\n      add\n        /* \"#utility.yul\":11952:11999   */\n      mstore\n        /* \"#utility.yul\":12016:12147   */\n      tag_468\n        /* \"#utility.yul\":12142:12146   */\n      dup2\n        /* \"#utility.yul\":12016:12147   */\n      tag_293\n      jump\t// in\n    tag_468:\n        /* \"#utility.yul\":12008:12147   */\n      swap1\n      pop\n        /* \"#utility.yul\":11735:12154   */\n      swap2\n      swap1\n      pop\n      jump\t// out\n        /* \"#utility.yul\":12160:12326   */\n    tag_294:\n        /* \"#utility.yul\":12300:12318   */\n      0x546f20746f6b656e206e6f742073657400000000000000000000000000000000\n        /* \"#utility.yul\":12296:12297   */\n      0x00\n        /* \"#utility.yul\":12288:12294   */\n      dup3\n        /* \"#utility.yul\":12284:12298   */\n      add\n        /* \"#utility.yul\":12277:12319   */\n      mstore\n        /* \"#utility.yul\":12160:12326   */\n      pop\n      jump\t// out\n        /* \"#utility.yul\":12332:12698   */\n    tag_295:\n        /* \"#utility.yul\":12474:12477   */\n      0x00\n        /* \"#utility.yul\":12495:12562   */\n      tag_471\n        /* \"#utility.yul\":12559:12561   */\n      0x10\n        /* \"#utility.yul\":12554:12557   */\n      dup4\n        /* \"#utility.yul\":12495:12562   */\n      tag_291\n      jump\t// in\n    tag_471:\n        /* \"#utility.yul\":12488:12562   */\n      swap2\n      pop\n        /* \"#utility.yul\":12571:12664   */\n      tag_472\n        /* \"#utility.yul\":12660:12663   */\n      dup3\n        /* \"#utility.yul\":12571:12664   */\n      tag_294\n      jump\t// in\n    tag_472:\n        /* \"#utility.yul\":12689:12691   */\n      0x20\n        /* \"#utility.yul\":12684:12687   */\n      dup3\n        /* \"#utility.yul\":12680:12692   */\n      add\n        /* \"#utility.yul\":12673:12692   */\n      swap1\n      pop\n        /* \"#utility.yul\":12332:12698   */\n      swap2\n      swap1\n      pop\n      jump\t// out\n        /* \"#utility.yul\":12704:13123   */\n    tag_79:\n        /* \"#utility.yul\":12870:12874   */\n      0x00\n        /* \"#utility.yul\":12908:12910   */\n      0x20\n        /* \"#utility.yul\":12897:12906   */\n      dup3\n        /* \"#utility.yul\":12893:12911   */\n      add\n        /* \"#utility.yul\":12885:12911   */\n      swap1\n      pop\n        /* \"#utility.yul\":12957:12966   */\n      dup2\n        /* \"#utility.yul\":12951:12955   */\n      dup2\n        /* \"#utility.yul\":12947:12967   */\n      sub\n        /* \"#utility.yul\":12943:12944   */\n      0x00\n        /* \"#utility.yul\":12932:12941   */\n      dup4\n        /* \"#utility.yul\":12928:12945   */\n      add\n        /* \"#utility.yul\":12921:12968   */\n      mstore\n        /* \"#utility.yul\":12985:13116   */\n      tag_474\n        /* \"#utility.yul\":13111:13115   */\n      dup2\n        /* \"#utility.yul\":12985:13116   */\n      tag_295\n      jump\t// in\n    tag_474:\n        /* \"#utility.yul\":12977:13116   */\n      swap1\n      pop\n        /* \"#utility.yul\":12704:13123   */\n      swap2\n      swap1\n      pop\n      jump\t// out\n        /* \"#utility.yul\":13129:13295   */\n    tag_296:\n        /* \"#utility.yul\":13269:13287   */\n      0x52617465206d757374206265203e203000000000000000000000000000000000\n        /* \"#utility.yul\":13265:13266   */\n      0x00\n        /* \"#utility.yul\":13257:13263   */\n      dup3\n        /* \"#utility.yul\":13253:13267   */\n      add\n        /* \"#utility.yul\":13246:13288   */\n      mstore\n        /* \"#utility.yul\":13129:13295   */\n      pop\n      jump\t// out\n        /* \"#utility.yul\":13301:13667   */\n    tag_297:\n        /* \"#utility.yul\":13443:13446   */\n      0x00\n        /* \"#utility.yul\":13464:13531   */\n      tag_477\n        /* \"#utility.yul\":13528:13530   */\n      0x10\n        /* \"#utility.yul\":13523:13526   */\n      dup4\n        /* \"#utility.yul\":13464:13531   */\n      tag_291\n      jump\t// in\n    tag_477:\n        /* \"#utility.yul\":13457:13531   */\n      swap2\n      pop\n        /* \"#utility.yul\":13540:13633   */\n      tag_478\n        /* \"#utility.yul\":13629:13632   */\n      dup3\n        /* \"#utility.yul\":13540:13633   */\n      tag_296\n      jump\t// in\n    tag_478:\n        /* \"#utility.yul\":13658:13660   */\n      0x20\n        /* \"#utility.yul\":13653:13656   */\n      dup3\n        /* \"#utility.yul\":13649:13661   */\n      add\n        /* \"#utility.yul\":13642:13661   */\n      swap1\n      pop\n        /* \"#utility.yul\":13301:13667   */\n      swap2\n      swap1\n      pop\n      jump\t// out\n        /* \"#utility.yul\":13673:14092   */\n    tag_82:\n        /* \"#utility.yul\":13839:13843   */\n      0x00\n        /* \"#utility.yul\":13877:13879   */\n      0x20\n        /* \"#utility.yul\":13866:13875   */\n      dup3\n        /* \"#utility.yul\":13862:13880   */\n      add\n        /* \"#utility.yul\":13854:13880   */\n      swap1\n      pop\n        /* \"#utility.yul\":13926:13935   */\n      dup2\n        /* \"#utility.yul\":13920:13924   */\n      dup2\n        /* \"#utility.yul\":13916:13936   */\n      sub\n        /* \"#utility.yul\":13912:13913   */\n      0x00\n        /* \"#utility.yul\":13901:13910   */\n      dup4\n        /* \"#utility.yul\":13897:13914   */\n      add\n        /* \"#utility.yul\":13890:13937   */\n      mstore\n        /* \"#utility.yul\":13954:14085   */\n      tag_480\n        /* \"#utility.yul\":14080:14084   */\n      dup2\n        /* \"#utility.yul\":13954:14085   */\n      tag_297\n      jump\t// in\n    tag_480:\n        /* \"#utility.yul\":13946:14085   */\n      swap1\n      pop\n        /* \"#utility.yul\":13673:14092   */\n      swap2\n      swap1\n      pop\n      jump\t// out\n        /* \"#utility.yul\":14098:14533   */\n    tag_84:\n        /* \"#utility.yul\":14278:14281   */\n      0x00\n        /* \"#utility.yul\":14300:14395   */\n      tag_482\n        /* \"#utility.yul\":14391:14394   */\n      dup3\n        /* \"#utility.yul\":14382:14388   */\n      dup6\n        /* \"#utility.yul\":14300:14395   */\n      tag_290\n      jump\t// in\n    tag_482:\n        /* \"#utility.yul\":14293:14395   */\n      swap2\n      pop\n        /* \"#utility.yul\":14412:14507   */\n      tag_483\n        /* \"#utility.yul\":14503:14506   */\n      dup3\n        /* \"#utility.yul\":14494:14500   */\n      dup5\n        /* \"#utility.yul\":14412:14507   */\n      tag_290\n      jump\t// in\n    tag_483:\n        /* \"#utility.yul\":14405:14507   */\n      swap2\n      pop\n        /* \"#utility.yul\":14524:14527   */\n      dup2\n        /* \"#utility.yul\":14517:14527   */\n      swap1\n      pop\n        /* \"#utility.yul\":14098:14533   */\n      swap4\n      swap3\n      pop\n      pop\n      pop\n      jump\t// out\n        /* \"#utility.yul\":14539:14719   */\n    tag_298:\n        /* \"#utility.yul\":14587:14664   */\n      0x4e487b7100000000000000000000000000000000000000000000000000000000\n        /* \"#utility.yul\":14584:14585   */\n      0x00\n        /* \"#utility.yul\":14577:14665   */\n      mstore\n        /* \"#utility.yul\":14684:14688   */\n      0x12\n        /* \"#utility.yul\":14681:14682   */\n      0x04\n        /* \"#utility.yul\":14674:14689   */\n      mstore\n        /* \"#utility.yul\":14708:14712   */\n      0x24\n        /* \"#utility.yul\":14705:14706   */\n      0x00\n        /* \"#utility.yul\":14698:14713   */\n      revert\n        /* \"#utility.yul\":14725:14905   */\n    tag_299:\n        /* \"#utility.yul\":14773:14850   */\n      0x4e487b7100000000000000000000000000000000000000000000000000000000\n        /* \"#utility.yul\":14770:14771   */\n      0x00\n        /* \"#utility.yul\":14763:14851   */\n      mstore\n        /* \"#utility.yul\":14870:14874   */\n      0x11\n        /* \"#utility.yul\":14867:14868   */\n      0x04\n        /* \"#utility.yul\":14860:14875   */\n      mstore\n        /* \"#utility.yul\":14894:14898   */\n      0x24\n        /* \"#utility.yul\":14891:14892   */\n      0x00\n        /* \"#utility.yul\":14884:14899   */\n      revert\n        /* \"#utility.yul\":14911:15096   */\n    tag_87:\n        /* \"#utility.yul\":14951:14952   */\n      0x00\n        /* \"#utility.yul\":14968:14988   */\n      tag_487\n        /* \"#utility.yul\":14986:14987   */\n      dup3\n        /* \"#utility.yul\":14968:14988   */\n      tag_269\n      jump\t// in\n    tag_487:\n        /* \"#utility.yul\":14963:14988   */\n      swap2\n      pop\n        /* \"#utility.yul\":15002:15022   */\n      tag_488\n        /* \"#utility.yul\":15020:15021   */\n      dup4\n        /* \"#utility.yul\":15002:15022   */\n      tag_269\n      jump\t// in\n    tag_488:\n        /* \"#utility.yul\":14997:15022   */\n      swap3\n      pop\n        /* \"#utility.yul\":15041:15042   */\n      dup3\n        /* \"#utility.yul\":15031:15066   */\n      tag_489\n      jumpi\n        /* \"#utility.yul\":15046:15064   */\n      tag_490\n      tag_298\n      jump\t// in\n    tag_490:\n        /* \"#utility.yul\":15031:15066   */\n    tag_489:\n        /* \"#utility.yul\":15088:15089   */\n      dup3\n        /* \"#utility.yul\":15085:15086   */\n      dup3\n        /* \"#utility.yul\":15081:15090   */\n      div\n        /* \"#utility.yul\":15076:15090   */\n      swap1\n      pop\n        /* \"#utility.yul\":14911:15096   */\n      swap3\n      swap2\n      pop\n      pop\n      jump\t// out\n        /* \"#utility.yul\":15102:15479   */\n    tag_300:\n        /* \"#utility.yul\":15190:15193   */\n      0x00\n        /* \"#utility.yul\":15218:15257   */\n      tag_492\n        /* \"#utility.yul\":15251:15256   */\n      dup3\n        /* \"#utility.yul\":15218:15257   */\n      tag_287\n      jump\t// in\n    tag_492:\n        /* \"#utility.yul\":15273:15344   */\n      tag_493\n        /* \"#utility.yul\":15337:15343   */\n      dup2\n        /* \"#utility.yul\":15332:15335   */\n      dup6\n        /* \"#utility.yul\":15273:15344   */\n      tag_291\n      jump\t// in\n    tag_493:\n        /* \"#utility.yul\":15266:15344   */\n      swap4\n      pop\n        /* \"#utility.yul\":15353:15418   */\n      tag_494\n        /* \"#utility.yul\":15411:15417   */\n      dup2\n        /* \"#utility.yul\":15406:15409   */\n      dup6\n        /* \"#utility.yul\":15399:15403   */\n      0x20\n        /* \"#utility.yul\":15392:15397   */\n      dup7\n        /* \"#utility.yul\":15388:15404   */\n      add\n        /* \"#utility.yul\":15353:15418   */\n      tag_289\n      jump\t// in\n    tag_494:\n        /* \"#utility.yul\":15443:15472   */\n      tag_495\n        /* \"#utility.yul\":15465:15471   */\n      dup2\n        /* \"#utility.yul\":15443:15472   */\n      tag_261\n      jump\t// in\n    tag_495:\n        /* \"#utility.yul\":15438:15441   */\n      dup5\n        /* \"#utility.yul\":15434:15473   */\n      add\n        /* \"#utility.yul\":15427:15473   */\n      swap2\n      pop\n        /* \"#utility.yul\":15194:15479   */\n      pop\n        /* \"#utility.yul\":15102:15479   */\n      swap3\n      swap2\n      pop\n      pop\n      jump\t// out\n        /* \"#utility.yul\":15485:16109   */\n    tag_89:\n        /* \"#utility.yul\":15674:15678   */\n      0x00\n        /* \"#utility.yul\":15712:15714   */\n      0x60\n        /* \"#utility.yul\":15701:15710   */\n      dup3\n        /* \"#utility.yul\":15697:15715   */\n      add\n        /* \"#utility.yul\":15689:15715   */\n      swap1\n      pop\n        /* \"#utility.yul\":15761:15770   */\n      dup2\n        /* \"#utility.yul\":15755:15759   */\n      dup2\n        /* \"#utility.yul\":15751:15771   */\n      sub\n        /* \"#utility.yul\":15747:15748   */\n      0x00\n        /* \"#utility.yul\":15736:15745   */\n      dup4\n        /* \"#utility.yul\":15732:15749   */\n      add\n        /* \"#utility.yul\":15725:15772   */\n      mstore\n        /* \"#utility.yul\":15789:15867   */\n      tag_497\n        /* \"#utility.yul\":15862:15866   */\n      dup2\n        /* \"#utility.yul\":15853:15859   */\n      dup7\n        /* \"#utility.yul\":15789:15867   */\n      tag_300\n      jump\t// in\n    tag_497:\n        /* \"#utility.yul\":15781:15867   */\n      swap1\n      pop\n        /* \"#utility.yul\":15914:15923   */\n      dup2\n        /* \"#utility.yul\":15908:15912   */\n      dup2\n        /* \"#utility.yul\":15904:15924   */\n      sub\n        /* \"#utility.yul\":15899:15901   */\n      0x20\n        /* \"#utility.yul\":15888:15897   */\n      dup4\n        /* \"#utility.yul\":15884:15902   */\n      add\n        /* \"#utility.yul\":15877:15925   */\n      mstore\n        /* \"#utility.yul\":15942:16020   */\n      tag_498\n        /* \"#utility.yul\":16015:16019   */\n      dup2\n        /* \"#utility.yul\":16006:16012   */\n      dup6\n        /* \"#utility.yul\":15942:16020   */\n      tag_300\n      jump\t// in\n    tag_498:\n        /* \"#utility.yul\":15934:16020   */\n      swap1\n      pop\n        /* \"#utility.yul\":16030:16102   */\n      tag_499\n        /* \"#utility.yul\":16098:16100   */\n      0x40\n        /* \"#utility.yul\":16087:16096   */\n      dup4\n        /* \"#utility.yul\":16083:16101   */\n      add\n        /* \"#utility.yul\":16074:16080   */\n      dup5\n        /* \"#utility.yul\":16030:16102   */\n      tag_285\n      jump\t// in\n    tag_499:\n        /* \"#utility.yul\":15485:16109   */\n      swap5\n      swap4\n      pop\n      pop\n      pop\n      pop\n      jump\t// out\n        /* \"#utility.yul\":16115:16286   */\n    tag_301:\n        /* \"#utility.yul\":16255:16278   */\n      0x496e76616c696420746f6b656e20616464726573730000000000000000000000\n        /* \"#utility.yul\":16251:16252   */\n      0x00\n        /* \"#utility.yul\":16243:16249   */\n      dup3\n        /* \"#utility.yul\":16239:16253   */\n      add\n        /* \"#utility.yul\":16232:16279   */\n      mstore\n        /* \"#utility.yul\":16115:16286   */\n      pop\n      jump\t// out\n        /* \"#utility.yul\":16292:16658   */\n    tag_302:\n        /* \"#utility.yul\":16434:16437   */\n      0x00\n        /* \"#utility.yul\":16455:16522   */\n      tag_502\n        /* \"#utility.yul\":16519:16521   */\n      0x15\n        /* \"#utility.yul\":16514:16517   */\n      dup4\n        /* \"#utility.yul\":16455:16522   */\n      tag_291\n      jump\t// in\n    tag_502:\n        /* \"#utility.yul\":16448:16522   */\n      swap2\n      pop\n        /* \"#utility.yul\":16531:16624   */\n      tag_503\n        /* \"#utility.yul\":16620:16623   */\n      dup3\n        /* \"#utility.yul\":16531:16624   */\n      tag_301\n      jump\t// in\n    tag_503:\n        /* \"#utility.yul\":16649:16651   */\n      0x20\n        /* \"#utility.yul\":16644:16647   */\n      dup3\n        /* \"#utility.yul\":16640:16652   */\n      add\n        /* \"#utility.yul\":16633:16652   */\n      swap1\n      pop\n        /* \"#utility.yul\":16292:16658   */\n      swap2\n      swap1\n      pop\n      jump\t// out\n        /* \"#utility.yul\":16664:17083   */\n    tag_95:\n        /* \"#utility.yul\":16830:16834   */\n      0x00\n        /* \"#utility.yul\":16868:16870   */\n      0x20\n        /* \"#utility.yul\":16857:16866   */\n      dup3\n        /* \"#utility.yul\":16853:16871   */\n      add\n        /* \"#utility.yul\":16845:16871   */\n      swap1\n      pop\n        /* \"#utility.yul\":16917:16926   */\n      dup2\n        /* \"#utility.yul\":16911:16915   */\n      dup2\n        /* \"#utility.yul\":16907:16927   */\n      sub\n        /* \"#utility.yul\":16903:16904   */\n      0x00\n        /* \"#utility.yul\":16892:16901   */\n      dup4\n        /* \"#utility.yul\":16888:16905   */\n      add\n        /* \"#utility.yul\":16881:16928   */\n      mstore\n        /* \"#utility.yul\":16945:17076   */\n      tag_505\n        /* \"#utility.yul\":17071:17075   */\n      dup2\n        /* \"#utility.yul\":16945:17076   */\n      tag_302\n      jump\t// in\n    tag_505:\n        /* \"#utility.yul\":16937:17076   */\n      swap1\n      pop\n        /* \"#utility.yul\":16664:17083   */\n      swap2\n      swap1\n      pop\n      jump\t// out\n        /* \"#utility.yul\":17089:17512   */\n    tag_98:\n        /* \"#utility.yul\":17230:17234   */\n      0x00\n        /* \"#utility.yul\":17268:17270   */\n      0x40\n        /* \"#utility.yul\":17257:17266   */\n      dup3\n        /* \"#utility.yul\":17253:17271   */\n      add\n        /* \"#utility.yul\":17245:17271   */\n      swap1\n      pop\n        /* \"#utility.yul\":17317:17326   */\n      dup2\n        /* \"#utility.yul\":17311:17315   */\n      dup2\n        /* \"#utility.yul\":17307:17327   */\n      sub\n        /* \"#utility.yul\":17303:17304   */\n      0x00\n        /* \"#utility.yul\":17292:17301   */\n      dup4\n        /* \"#utility.yul\":17288:17305   */\n      add\n        /* \"#utility.yul\":17281:17328   */\n      mstore\n        /* \"#utility.yul\":17345:17423   */\n      tag_507\n        /* \"#utility.yul\":17418:17422   */\n      dup2\n        /* \"#utility.yul\":17409:17415   */\n      dup6\n        /* \"#utility.yul\":17345:17423   */\n      tag_300\n      jump\t// in\n    tag_507:\n        /* \"#utility.yul\":17337:17423   */\n      swap1\n      pop\n        /* \"#utility.yul\":17433:17505   */\n      tag_508\n        /* \"#utility.yul\":17501:17503   */\n      0x20\n        /* \"#utility.yul\":17490:17499   */\n      dup4\n        /* \"#utility.yul\":17486:17504   */\n      add\n        /* \"#utility.yul\":17477:17483   */\n      dup5\n        /* \"#utility.yul\":17433:17505   */\n      tag_286\n      jump\t// in\n    tag_508:\n        /* \"#utility.yul\":17089:17512   */\n      swap4\n      swap3\n      pop\n      pop\n      pop\n      jump\t// out\n        /* \"#utility.yul\":17518:17850   */\n    tag_114:\n        /* \"#utility.yul\":17639:17643   */\n      0x00\n        /* \"#utility.yul\":17677:17679   */\n      0x40\n        /* \"#utility.yul\":17666:17675   */\n      dup3\n        /* \"#utility.yul\":17662:17680   */\n      add\n        /* \"#utility.yul\":17654:17680   */\n      swap1\n      pop\n        /* \"#utility.yul\":17690:17761   */\n      tag_510\n        /* \"#utility.yul\":17758:17759   */\n      0x00\n        /* \"#utility.yul\":17747:17756   */\n      dup4\n        /* \"#utility.yul\":17743:17760   */\n      add\n        /* \"#utility.yul\":17734:17740   */\n      dup6\n        /* \"#utility.yul\":17690:17761   */\n      tag_286\n      jump\t// in\n    tag_510:\n        /* \"#utility.yul\":17771:17843   */\n      tag_511\n        /* \"#utility.yul\":17839:17841   */\n      0x20\n        /* \"#utility.yul\":17828:17837   */\n      dup4\n        /* \"#utility.yul\":17824:17842   */\n      add\n        /* \"#utility.yul\":17815:17821   */\n      dup5\n        /* \"#utility.yul\":17771:17843   */\n      tag_285\n      jump\t// in\n    tag_511:\n        /* \"#utility.yul\":17518:17850   */\n      swap4\n      swap3\n      pop\n      pop\n      pop\n      jump\t// out\n        /* \"#utility.yul\":17856:17946   */\n    tag_303:\n        /* \"#utility.yul\":17890:17897   */\n      0x00\n        /* \"#utility.yul\":17933:17938   */\n      dup2\n        /* \"#utility.yul\":17926:17939   */\n      iszero\n        /* \"#utility.yul\":17919:17940   */\n      iszero\n        /* \"#utility.yul\":17908:17940   */\n      swap1\n      pop\n        /* \"#utility.yul\":17856:17946   */\n      swap2\n      swap1\n      pop\n      jump\t// out\n        /* \"#utility.yul\":17952:18068   */\n    tag_304:\n        /* \"#utility.yul\":18022:18043   */\n      tag_514\n        /* \"#utility.yul\":18037:18042   */\n      dup2\n        /* \"#utility.yul\":18022:18043   */\n      tag_303\n      jump\t// in\n    tag_514:\n        /* \"#utility.yul\":18015:18020   */\n      dup2\n        /* \"#utility.yul\":18012:18044   */\n      eq\n        /* \"#utility.yul\":18002:18062   */\n      tag_515\n      jumpi\n        /* \"#utility.yul\":18058:18059   */\n      0x00\n        /* \"#utility.yul\":18055:18056   */\n      0x00\n        /* \"#utility.yul\":18048:18060   */\n      revert\n        /* \"#utility.yul\":18002:18062   */\n    tag_515:\n        /* \"#utility.yul\":17952:18068   */\n      pop\n      jump\t// out\n        /* \"#utility.yul\":18074:18211   */\n    tag_305:\n        /* \"#utility.yul\":18128:18133   */\n      0x00\n        /* \"#utility.yul\":18159:18165   */\n      dup2\n        /* \"#utility.yul\":18153:18166   */\n      mload\n        /* \"#utility.yul\":18144:18166   */\n      swap1\n      pop\n        /* \"#utility.yul\":18175:18205   */\n      tag_517\n        /* \"#utility.yul\":18199:18204   */\n      dup2\n        /* \"#utility.yul\":18175:18205   */\n      tag_304\n      jump\t// in\n    tag_517:\n        /* \"#utility.yul\":18074:18211   */\n      swap3\n      swap2\n      pop\n      pop\n      jump\t// out\n        /* \"#utility.yul\":18217:18562   */\n    tag_118:\n        /* \"#utility.yul\":18284:18290   */\n      0x00\n        /* \"#utility.yul\":18333:18335   */\n      0x20\n        /* \"#utility.yul\":18321:18330   */\n      dup3\n        /* \"#utility.yul\":18312:18319   */\n      dup5\n        /* \"#utility.yul\":18308:18331   */\n      sub\n        /* \"#utility.yul\":18304:18336   */\n      slt\n        /* \"#utility.yul\":18301:18420   */\n      iszero\n      tag_519\n      jumpi\n        /* \"#utility.yul\":18339:18418   */\n      tag_520\n      tag_257\n      jump\t// in\n    tag_520:\n        /* \"#utility.yul\":18301:18420   */\n    tag_519:\n        /* \"#utility.yul\":18459:18460   */\n      0x00\n        /* \"#utility.yul\":18484:18545   */\n      tag_521\n        /* \"#utility.yul\":18537:18544   */\n      dup5\n        /* \"#utility.yul\":18528:18534   */\n      dup3\n        /* \"#utility.yul\":18517:18526   */\n      dup6\n        /* \"#utility.yul\":18513:18535   */\n      add\n        /* \"#utility.yul\":18484:18545   */\n      tag_305\n      jump\t// in\n    tag_521:\n        /* \"#utility.yul\":18474:18545   */\n      swap2\n      pop\n        /* \"#utility.yul\":18430:18555   */\n      pop\n        /* \"#utility.yul\":18217:18562   */\n      swap3\n      swap2\n      pop\n      pop\n      jump\t// out\n        /* \"#utility.yul\":18568:18733   */\n    tag_306:\n        /* \"#utility.yul\":18708:18725   */\n      0x5769746864726177206661696c65640000000000000000000000000000000000\n        /* \"#utility.yul\":18704:18705   */\n      0x00\n        /* \"#utility.yul\":18696:18702   */\n      dup3\n        /* \"#utility.yul\":18692:18706   */\n      add\n        /* \"#utility.yul\":18685:18726   */\n      mstore\n        /* \"#utility.yul\":18568:18733   */\n      pop\n      jump\t// out\n        /* \"#utility.yul\":18739:19105   */\n    tag_307:\n        /* \"#utility.yul\":18881:18884   */\n      0x00\n        /* \"#utility.yul\":18902:18969   */\n      tag_524\n        /* \"#utility.yul\":18966:18968   */\n      0x0f\n        /* \"#utility.yul\":18961:18964   */\n      dup4\n        /* \"#utility.yul\":18902:18969   */\n      tag_291\n      jump\t// in\n    tag_524:\n        /* \"#utility.yul\":18895:18969   */\n      swap2\n      pop\n        /* \"#utility.yul\":18978:19071   */\n      tag_525\n        /* \"#utility.yul\":19067:19070   */\n      dup3\n        /* \"#utility.yul\":18978:19071   */\n      tag_306\n      jump\t// in\n    tag_525:\n        /* \"#utility.yul\":19096:19098   */\n      0x20\n        /* \"#utility.yul\":19091:19094   */\n      dup3\n        /* \"#utility.yul\":19087:19099   */\n      add\n        /* \"#utility.yul\":19080:19099   */\n      swap1\n      pop\n        /* \"#utility.yul\":18739:19105   */\n      swap2\n      swap1\n      pop\n      jump\t// out\n        /* \"#utility.yul\":19111:19530   */\n    tag_121:\n        /* \"#utility.yul\":19277:19281   */\n      0x00\n        /* \"#utility.yul\":19315:19317   */\n      0x20\n        /* \"#utility.yul\":19304:19313   */\n      dup3\n        /* \"#utility.yul\":19300:19318   */\n      add\n        /* \"#utility.yul\":19292:19318   */\n      swap1\n      pop\n        /* \"#utility.yul\":19364:19373   */\n      dup2\n        /* \"#utility.yul\":19358:19362   */\n      dup2\n        /* \"#utility.yul\":19354:19374   */\n      sub\n        /* \"#utility.yul\":19350:19351   */\n      0x00\n        /* \"#utility.yul\":19339:19348   */\n      dup4\n        /* \"#utility.yul\":19335:19352   */\n      add\n        /* \"#utility.yul\":19328:19375   */\n      mstore\n        /* \"#utility.yul\":19392:19523   */\n      tag_527\n        /* \"#utility.yul\":19518:19522   */\n      dup2\n        /* \"#utility.yul\":19392:19523   */\n      tag_307\n      jump\t// in\n    tag_527:\n        /* \"#utility.yul\":19384:19523   */\n      swap1\n      pop\n        /* \"#utility.yul\":19111:19530   */\n      swap2\n      swap1\n      pop\n      jump\t// out\n        /* \"#utility.yul\":19536:19704   */\n    tag_308:\n        /* \"#utility.yul\":19676:19696   */\n      0x416d6f756e74206d757374206265203e20300000000000000000000000000000\n        /* \"#utility.yul\":19672:19673   */\n      0x00\n        /* \"#utility.yul\":19664:19670   */\n      dup3\n        /* \"#utility.yul\":19660:19674   */\n      add\n        /* \"#utility.yul\":19653:19697   */\n      mstore\n        /* \"#utility.yul\":19536:19704   */\n      pop\n      jump\t// out\n        /* \"#utility.yul\":19710:20076   */\n    tag_309:\n        /* \"#utility.yul\":19852:19855   */\n      0x00\n        /* \"#utility.yul\":19873:19940   */\n      tag_530\n        /* \"#utility.yul\":19937:19939   */\n      0x12\n        /* \"#utility.yul\":19932:19935   */\n      dup4\n        /* \"#utility.yul\":19873:19940   */\n      tag_291\n      jump\t// in\n    tag_530:\n        /* \"#utility.yul\":19866:19940   */\n      swap2\n      pop\n        /* \"#utility.yul\":19949:20042   */\n      tag_531\n        /* \"#utility.yul\":20038:20041   */\n      dup3\n        /* \"#utility.yul\":19949:20042   */\n      tag_308\n      jump\t// in\n    tag_531:\n        /* \"#utility.yul\":20067:20069   */\n      0x20\n        /* \"#utility.yul\":20062:20065   */\n      dup3\n        /* \"#utility.yul\":20058:20070   */\n      add\n        /* \"#utility.yul\":20051:20070   */\n      swap1\n      pop\n        /* \"#utility.yul\":19710:20076   */\n      swap2\n      swap1\n      pop\n      jump\t// out\n        /* \"#utility.yul\":20082:20501   */\n    tag_130:\n        /* \"#utility.yul\":20248:20252   */\n      0x00\n        /* \"#utility.yul\":20286:20288   */\n      0x20\n        /* \"#utility.yul\":20275:20284   */\n      dup3\n        /* \"#utility.yul\":20271:20289   */\n      add\n        /* \"#utility.yul\":20263:20289   */\n      swap1\n      pop\n        /* \"#utility.yul\":20335:20344   */\n      dup2\n        /* \"#utility.yul\":20329:20333   */\n      dup2\n        /* \"#utility.yul\":20325:20345   */\n      sub\n        /* \"#utility.yul\":20321:20322   */\n      0x00\n        /* \"#utility.yul\":20310:20319   */\n      dup4\n        /* \"#utility.yul\":20306:20323   */\n      add\n        /* \"#utility.yul\":20299:20346   */\n      mstore\n        /* \"#utility.yul\":20363:20494   */\n      tag_533\n        /* \"#utility.yul\":20489:20493   */\n      dup2\n        /* \"#utility.yul\":20363:20494   */\n      tag_309\n      jump\t// in\n    tag_533:\n        /* \"#utility.yul\":20355:20494   */\n      swap1\n      pop\n        /* \"#utility.yul\":20082:20501   */\n      swap2\n      swap1\n      pop\n      jump\t// out\n        /* \"#utility.yul\":20507:20679   */\n    tag_310:\n        /* \"#utility.yul\":20647:20671   */\n      0x43616e6e6f7420737761702073616d6520746f6b656e00000000000000000000\n        /* \"#utility.yul\":20643:20644   */\n      0x00\n        /* \"#utility.yul\":20635:20641   */\n      dup3\n        /* \"#utility.yul\":20631:20645   */\n      add\n        /* \"#utility.yul\":20624:20672   */\n      mstore\n        /* \"#utility.yul\":20507:20679   */\n      pop\n      jump\t// out\n        /* \"#utility.yul\":20685:21051   */\n    tag_311:\n        /* \"#utility.yul\":20827:20830   */\n      0x00\n        /* \"#utility.yul\":20848:20915   */\n      tag_536\n        /* \"#utility.yul\":20912:20914   */\n      0x16\n        /* \"#utility.yul\":20907:20910   */\n      dup4\n        /* \"#utility.yul\":20848:20915   */\n      tag_291\n      jump\t// in\n    tag_536:\n        /* \"#utility.yul\":20841:20915   */\n      swap2\n      pop\n        /* \"#utility.yul\":20924:21017   */\n      tag_537\n        /* \"#utility.yul\":21013:21016   */\n      dup3\n        /* \"#utility.yul\":20924:21017   */\n      tag_310\n      jump\t// in\n    tag_537:\n        /* \"#utility.yul\":21042:21044   */\n      0x20\n        /* \"#utility.yul\":21037:21040   */\n      dup3\n        /* \"#utility.yul\":21033:21045   */\n      add\n        /* \"#utility.yul\":21026:21045   */\n      swap1\n      pop\n        /* \"#utility.yul\":20685:21051   */\n      swap2\n      swap1\n      pop\n      jump\t// out\n        /* \"#utility.yul\":21057:21476   */\n    tag_133:\n        /* \"#utility.yul\":21223:21227   */\n      0x00\n        /* \"#utility.yul\":21261:21263   */\n      0x20\n        /* \"#utility.yul\":21250:21259   */\n      dup3\n        /* \"#utility.yul\":21246:21264   */\n      add\n        /* \"#utility.yul\":21238:21264   */\n      swap1\n      pop\n        /* \"#utility.yul\":21310:21319   */\n      dup2\n        /* \"#utility.yul\":21304:21308   */\n      dup2\n        /* \"#utility.yul\":21300:21320   */\n      sub\n        /* \"#utility.yul\":21296:21297   */\n      0x00\n        /* \"#utility.yul\":21285:21294   */\n      dup4\n        /* \"#utility.yul\":21281:21298   */\n      add\n        /* \"#utility.yul\":21274:21321   */\n      mstore\n        /* \"#utility.yul\":21338:21469   */\n      tag_539\n        /* \"#utility.yul\":21464:21468   */\n      dup2\n        /* \"#utility.yul\":21338:21469   */\n      tag_311\n      jump\t// in\n    tag_539:\n        /* \"#utility.yul\":21330:21469   */\n      swap1\n      pop\n        /* \"#utility.yul\":21057:21476   */\n      swap2\n      swap1\n      pop\n      jump\t// out\n        /* \"#utility.yul\":21482:21658   */\n    tag_312:\n        /* \"#utility.yul\":21622:21650   */\n      0x46726f6d20746f6b656e206e6f7420696e697469616c697a6564000000000000\n        /* \"#utility.yul\":21618:21619   */\n      0x00\n        /* \"#utility.yul\":21610:21616   */\n      dup3\n        /* \"#utility.yul\":21606:21620   */\n      add\n        /* \"#utility.yul\":21599:21651   */\n      mstore\n        /* \"#utility.yul\":21482:21658   */\n      pop\n      jump\t// out\n        /* \"#utility.yul\":21664:22030   */\n    tag_313:\n        /* \"#utility.yul\":21806:21809   */\n      0x00\n        /* \"#utility.yul\":21827:21894   */\n      tag_542\n        /* \"#utility.yul\":21891:21893   */\n      0x1a\n        /* \"#utility.yul\":21886:21889   */\n      dup4\n        /* \"#utility.yul\":21827:21894   */\n      tag_291\n      jump\t// in\n    tag_542:\n        /* \"#utility.yul\":21820:21894   */\n      swap2\n      pop\n        /* \"#utility.yul\":21903:21996   */\n      tag_543\n        /* \"#utility.yul\":21992:21995   */\n      dup3\n        /* \"#utility.yul\":21903:21996   */\n      tag_312\n      jump\t// in\n    tag_543:\n        /* \"#utility.yul\":22021:22023   */\n      0x20\n        /* \"#utility.yul\":22016:22019   */\n      dup3\n        /* \"#utility.yul\":22012:22024   */\n      add\n        /* \"#utility.yul\":22005:22024   */\n      swap1\n      pop\n        /* \"#utility.yul\":21664:22030   */\n      swap2\n      swap1\n      pop\n      jump\t// out\n        /* \"#utility.yul\":22036:22455   */\n    tag_138:\n        /* \"#utility.yul\":22202:22206   */\n      0x00\n        /* \"#utility.yul\":22240:22242   */\n      0x20\n        /* \"#utility.yul\":22229:22238   */\n      dup3\n        /* \"#utility.yul\":22225:22243   */\n      add\n        /* \"#utility.yul\":22217:22243   */\n      swap1\n      pop\n        /* \"#utility.yul\":22289:22298   */\n      dup2\n        /* \"#utility.yul\":22283:22287   */\n      dup2\n        /* \"#utility.yul\":22279:22299   */\n      sub\n        /* \"#utility.yul\":22275:22276   */\n      0x00\n        /* \"#utility.yul\":22264:22273   */\n      dup4\n        /* \"#utility.yul\":22260:22277   */\n      add\n        /* \"#utility.yul\":22253:22300   */\n      mstore\n        /* \"#utility.yul\":22317:22448   */\n      tag_545\n        /* \"#utility.yul\":22443:22447   */\n      dup2\n        /* \"#utility.yul\":22317:22448   */\n      tag_313\n      jump\t// in\n    tag_545:\n        /* \"#utility.yul\":22309:22448   */\n      swap1\n      pop\n        /* \"#utility.yul\":22036:22455   */\n      swap2\n      swap1\n      pop\n      jump\t// out\n        /* \"#utility.yul\":22461:22635   */\n    tag_314:\n        /* \"#utility.yul\":22601:22627   */\n      0x546f20746f6b656e206e6f7420696e697469616c697a65640000000000000000\n        /* \"#utility.yul\":22597:22598   */\n      0x00\n        /* \"#utility.yul\":22589:22595   */\n      dup3\n        /* \"#utility.yul\":22585:22599   */\n      add\n        /* \"#utility.yul\":22578:22628   */\n      mstore\n        /* \"#utility.yul\":22461:22635   */\n      pop\n      jump\t// out\n        /* \"#utility.yul\":22641:23007   */\n    tag_315:\n        /* \"#utility.yul\":22783:22786   */\n      0x00\n        /* \"#utility.yul\":22804:22871   */\n      tag_548\n        /* \"#utility.yul\":22868:22870   */\n      0x18\n        /* \"#utility.yul\":22863:22866   */\n      dup4\n        /* \"#utility.yul\":22804:22871   */\n      tag_291\n      jump\t// in\n    tag_548:\n        /* \"#utility.yul\":22797:22871   */\n      swap2\n      pop\n        /* \"#utility.yul\":22880:22973   */\n      tag_549\n        /* \"#utility.yul\":22969:22972   */\n      dup3\n        /* \"#utility.yul\":22880:22973   */\n      tag_314\n      jump\t// in\n    tag_549:\n        /* \"#utility.yul\":22998:23000   */\n      0x20\n        /* \"#utility.yul\":22993:22996   */\n      dup3\n        /* \"#utility.yul\":22989:23001   */\n      add\n        /* \"#utility.yul\":22982:23001   */\n      swap1\n      pop\n        /* \"#utility.yul\":22641:23007   */\n      swap2\n      swap1\n      pop\n      jump\t// out\n        /* \"#utility.yul\":23013:23432   */\n    tag_141:\n        /* \"#utility.yul\":23179:23183   */\n      0x00\n        /* \"#utility.yul\":23217:23219   */\n      0x20\n        /* \"#utility.yul\":23206:23215   */\n      dup3\n        /* \"#utility.yul\":23202:23220   */\n      add\n        /* \"#utility.yul\":23194:23220   */\n      swap1\n      pop\n        /* \"#utility.yul\":23266:23275   */\n      dup2\n        /* \"#utility.yul\":23260:23264   */\n      dup2\n        /* \"#utility.yul\":23256:23276   */\n      sub\n        /* \"#utility.yul\":23252:23253   */\n      0x00\n        /* \"#utility.yul\":23241:23250   */\n      dup4\n        /* \"#utility.yul\":23237:23254   */\n      add\n        /* \"#utility.yul\":23230:23277   */\n      mstore\n        /* \"#utility.yul\":23294:23425   */\n      tag_551\n        /* \"#utility.yul\":23420:23424   */\n      dup2\n        /* \"#utility.yul\":23294:23425   */\n      tag_315\n      jump\t// in\n    tag_551:\n        /* \"#utility.yul\":23286:23425   */\n      swap1\n      pop\n        /* \"#utility.yul\":23013:23432   */\n      swap2\n      swap1\n      pop\n      jump\t// out\n        /* \"#utility.yul\":23438:23524   */\n    tag_316:\n        /* \"#utility.yul\":23473:23480   */\n      0x00\n        /* \"#utility.yul\":23513:23517   */\n      0xff\n        /* \"#utility.yul\":23506:23511   */\n      dup3\n        /* \"#utility.yul\":23502:23518   */\n      and\n        /* \"#utility.yul\":23491:23518   */\n      swap1\n      pop\n        /* \"#utility.yul\":23438:23524   */\n      swap2\n      swap1\n      pop\n      jump\t// out\n        /* \"#utility.yul\":23530:23648   */\n    tag_317:\n        /* \"#utility.yul\":23601:23623   */\n      tag_554\n        /* \"#utility.yul\":23617:23622   */\n      dup2\n        /* \"#utility.yul\":23601:23623   */\n      tag_316\n      jump\t// in\n    tag_554:\n        /* \"#utility.yul\":23594:23599   */\n      dup2\n        /* \"#utility.yul\":23591:23624   */\n      eq\n        /* \"#utility.yul\":23581:23642   */\n      tag_555\n      jumpi\n        /* \"#utility.yul\":23638:23639   */\n      0x00\n        /* \"#utility.yul\":23635:23636   */\n      0x00\n        /* \"#utility.yul\":23628:23640   */\n      revert\n        /* \"#utility.yul\":23581:23642   */\n    tag_555:\n        /* \"#utility.yul\":23530:23648   */\n      pop\n      jump\t// out\n        /* \"#utility.yul\":23654:23793   */\n    tag_318:\n        /* \"#utility.yul\":23709:23714   */\n      0x00\n        /* \"#utility.yul\":23740:23746   */\n      dup2\n        /* \"#utility.yul\":23734:23747   */\n      mload\n        /* \"#utility.yul\":23725:23747   */\n      swap1\n      pop\n        /* \"#utility.yul\":23756:23787   */\n      tag_557\n        /* \"#utility.yul\":23781:23786   */\n      dup2\n        /* \"#utility.yul\":23756:23787   */\n      tag_317\n      jump\t// in\n    tag_557:\n        /* \"#utility.yul\":23654:23793   */\n      swap3\n      swap2\n      pop\n      pop\n      jump\t// out\n        /* \"#utility.yul\":23799:24146   */\n    tag_145:\n        /* \"#utility.yul\":23867:23873   */\n      0x00\n        /* \"#utility.yul\":23916:23918   */\n      0x20\n        /* \"#utility.yul\":23904:23913   */\n      dup3\n        /* \"#utility.yul\":23895:23902   */\n      dup5\n        /* \"#utility.yul\":23891:23914   */\n      sub\n        /* \"#utility.yul\":23887:23919   */\n      slt\n        /* \"#utility.yul\":23884:24003   */\n      iszero\n      tag_559\n      jumpi\n        /* \"#utility.yul\":23922:24001   */\n      tag_560\n      tag_257\n      jump\t// in\n    tag_560:\n        /* \"#utility.yul\":23884:24003   */\n    tag_559:\n        /* \"#utility.yul\":24042:24043   */\n      0x00\n        /* \"#utility.yul\":24067:24129   */\n      tag_561\n        /* \"#utility.yul\":24121:24128   */\n      dup5\n        /* \"#utility.yul\":24112:24118   */\n      dup3\n        /* \"#utility.yul\":24101:24110   */\n      dup6\n        /* \"#utility.yul\":24097:24119   */\n      add\n        /* \"#utility.yul\":24067:24129   */\n      tag_318\n      jump\t// in\n    tag_561:\n        /* \"#utility.yul\":24057:24129   */\n      swap2\n      pop\n        /* \"#utility.yul\":24013:24139   */\n      pop\n        /* \"#utility.yul\":23799:24146   */\n      swap3\n      swap2\n      pop\n      pop\n      jump\t// out\n        /* \"#utility.yul\":24152:24314   */\n    tag_319:\n        /* \"#utility.yul\":24292:24306   */\n      0x52617465206e6f74207365740000000000000000000000000000000000000000\n        /* \"#utility.yul\":24288:24289   */\n      0x00\n        /* \"#utility.yul\":24280:24286   */\n      dup3\n        /* \"#utility.yul\":24276:24290   */\n      add\n        /* \"#utility.yul\":24269:24307   */\n      mstore\n        /* \"#utility.yul\":24152:24314   */\n      pop\n      jump\t// out\n        /* \"#utility.yul\":24320:24686   */\n    tag_320:\n        /* \"#utility.yul\":24462:24465   */\n      0x00\n        /* \"#utility.yul\":24483:24550   */\n      tag_564\n        /* \"#utility.yul\":24547:24549   */\n      0x0c\n        /* \"#utility.yul\":24542:24545   */\n      dup4\n        /* \"#utility.yul\":24483:24550   */\n      tag_291\n      jump\t// in\n    tag_564:\n        /* \"#utility.yul\":24476:24550   */\n      swap2\n      pop\n        /* \"#utility.yul\":24559:24652   */\n      tag_565\n        /* \"#utility.yul\":24648:24651   */\n      dup3\n        /* \"#utility.yul\":24559:24652   */\n      tag_319\n      jump\t// in\n    tag_565:\n        /* \"#utility.yul\":24677:24679   */\n      0x20\n        /* \"#utility.yul\":24672:24675   */\n      dup3\n        /* \"#utility.yul\":24668:24680   */\n      add\n        /* \"#utility.yul\":24661:24680   */\n      swap1\n      pop\n        /* \"#utility.yul\":24320:24686   */\n      swap2\n      swap1\n      pop\n      jump\t// out\n        /* \"#utility.yul\":24692:25111   */\n    tag_152:\n        /* \"#utility.yul\":24858:24862   */\n      0x00\n        /* \"#utility.yul\":24896:24898   */\n      0x20\n        /* \"#utility.yul\":24885:24894   */\n      dup3\n        /* \"#utility.yul\":24881:24899   */\n      add\n        /* \"#utility.yul\":24873:24899   */\n      swap1\n      pop\n        /* \"#utility.yul\":24945:24954   */\n      dup2\n        /* \"#utility.yul\":24939:24943   */\n      dup2\n        /* \"#utility.yul\":24935:24955   */\n      sub\n        /* \"#utility.yul\":24931:24932   */\n      0x00\n        /* \"#utility.yul\":24920:24929   */\n      dup4\n        /* \"#utility.yul\":24916:24933   */\n      add\n        /* \"#utility.yul\":24909:24956   */\n      mstore\n        /* \"#utility.yul\":24973:25104   */\n      tag_567\n        /* \"#utility.yul\":25099:25103   */\n      dup2\n        /* \"#utility.yul\":24973:25104   */\n      tag_320\n      jump\t// in\n    tag_567:\n        /* \"#utility.yul\":24965:25104   */\n      swap1\n      pop\n        /* \"#utility.yul\":24692:25111   */\n      swap2\n      swap1\n      pop\n      jump\t// out\n        /* \"#utility.yul\":25117:25308   */\n    tag_155:\n        /* \"#utility.yul\":25155:25159   */\n      0x00\n        /* \"#utility.yul\":25175:25193   */\n      tag_569\n        /* \"#utility.yul\":25191:25192   */\n      dup3\n        /* \"#utility.yul\":25175:25193   */\n      tag_316\n      jump\t// in\n    tag_569:\n        /* \"#utility.yul\":25170:25193   */\n      swap2\n      pop\n        /* \"#utility.yul\":25207:25225   */\n      tag_570\n        /* \"#utility.yul\":25223:25224   */\n      dup4\n        /* \"#utility.yul\":25207:25225   */\n      tag_316\n      jump\t// in\n    tag_570:\n        /* \"#utility.yul\":25202:25225   */\n      swap3\n      pop\n        /* \"#utility.yul\":25249:25250   */\n      dup3\n        /* \"#utility.yul\":25246:25247   */\n      dup3\n        /* \"#utility.yul\":25242:25251   */\n      sub\n        /* \"#utility.yul\":25234:25251   */\n      swap1\n      pop\n        /* \"#utility.yul\":25273:25277   */\n      0xff\n        /* \"#utility.yul\":25267:25271   */\n      dup2\n        /* \"#utility.yul\":25264:25278   */\n      gt\n        /* \"#utility.yul\":25261:25301   */\n      iszero\n      tag_571\n      jumpi\n        /* \"#utility.yul\":25281:25299   */\n      tag_572\n      tag_299\n      jump\t// in\n    tag_572:\n        /* \"#utility.yul\":25261:25301   */\n    tag_571:\n        /* \"#utility.yul\":25117:25308   */\n      swap3\n      swap2\n      pop\n      pop\n      jump\t// out\n        /* \"#utility.yul\":25314:25416   */\n    tag_321:\n        /* \"#utility.yul\":25356:25364   */\n      0x00\n        /* \"#utility.yul\":25403:25408   */\n      dup2\n        /* \"#utility.yul\":25400:25401   */\n      0x01\n        /* \"#utility.yul\":25396:25409   */\n      shr\n        /* \"#utility.yul\":25375:25409   */\n      swap1\n      pop\n        /* \"#utility.yul\":25314:25416   */\n      swap2\n      swap1\n      pop\n      jump\t// out\n        /* \"#utility.yul\":25422:26270   */\n    tag_322:\n        /* \"#utility.yul\":25483:25488   */\n      0x00\n        /* \"#utility.yul\":25490:25494   */\n      0x00\n        /* \"#utility.yul\":25514:25520   */\n      dup3\n        /* \"#utility.yul\":25505:25520   */\n      swap2\n      pop\n        /* \"#utility.yul\":25538:25543   */\n      dup4\n        /* \"#utility.yul\":25529:25543   */\n      swap1\n      pop\n        /* \"#utility.yul\":25552:26264   */\n    tag_575:\n        /* \"#utility.yul\":25573:25574   */\n      0x01\n        /* \"#utility.yul\":25563:25571   */\n      dup6\n        /* \"#utility.yul\":25560:25575   */\n      gt\n        /* \"#utility.yul\":25552:26264   */\n      iszero\n      tag_577\n      jumpi\n        /* \"#utility.yul\":25668:25672   */\n      dup1\n        /* \"#utility.yul\":25663:25666   */\n      dup7\n        /* \"#utility.yul\":25659:25673   */\n      div\n        /* \"#utility.yul\":25653:25657   */\n      dup2\n        /* \"#utility.yul\":25650:25674   */\n      gt\n        /* \"#utility.yul\":25647:25697   */\n      iszero\n      tag_578\n      jumpi\n        /* \"#utility.yul\":25677:25695   */\n      tag_579\n      tag_299\n      jump\t// in\n    tag_579:\n        /* \"#utility.yul\":25647:25697   */\n    tag_578:\n        /* \"#utility.yul\":25727:25728   */\n      0x01\n        /* \"#utility.yul\":25717:25725   */\n      dup6\n        /* \"#utility.yul\":25713:25729   */\n      and\n        /* \"#utility.yul\":25710:26161   */\n      iszero\n      tag_580\n      jumpi\n        /* \"#utility.yul\":26142:26146   */\n      dup1\n        /* \"#utility.yul\":26135:26140   */\n      dup3\n        /* \"#utility.yul\":26131:26147   */\n      mul\n        /* \"#utility.yul\":26122:26147   */\n      swap2\n      pop\n        /* \"#utility.yul\":25710:26161   */\n    tag_580:\n        /* \"#utility.yul\":26192:26196   */\n      dup1\n        /* \"#utility.yul\":26186:26190   */\n      dup2\n        /* \"#utility.yul\":26182:26197   */\n      mul\n        /* \"#utility.yul\":26174:26197   */\n      swap1\n      pop\n        /* \"#utility.yul\":26222:26254   */\n      tag_581\n        /* \"#utility.yul\":26245:26253   */\n      dup6\n        /* \"#utility.yul\":26222:26254   */\n      tag_321\n      jump\t// in\n    tag_581:\n        /* \"#utility.yul\":26210:26254   */\n      swap5\n      pop\n        /* \"#utility.yul\":25552:26264   */\n      jump(tag_575)\n    tag_577:\n        /* \"#utility.yul\":25422:26270   */\n      swap5\n      pop\n      swap5\n      swap3\n      pop\n      pop\n      pop\n      jump\t// out\n        /* \"#utility.yul\":26276:27349   */\n    tag_323:\n        /* \"#utility.yul\":26330:26335   */\n      0x00\n        /* \"#utility.yul\":26521:26529   */\n      dup3\n        /* \"#utility.yul\":26511:26551   */\n      tag_583\n      jumpi\n        /* \"#utility.yul\":26542:26543   */\n      0x01\n        /* \"#utility.yul\":26533:26543   */\n      swap1\n      pop\n        /* \"#utility.yul\":26544:26549   */\n      jump(tag_582)\n        /* \"#utility.yul\":26511:26551   */\n    tag_583:\n        /* \"#utility.yul\":26570:26574   */\n      dup2\n        /* \"#utility.yul\":26560:26596   */\n      tag_584\n      jumpi\n        /* \"#utility.yul\":26587:26588   */\n      0x00\n        /* \"#utility.yul\":26578:26588   */\n      swap1\n      pop\n        /* \"#utility.yul\":26589:26594   */\n      jump(tag_582)\n        /* \"#utility.yul\":26560:26596   */\n    tag_584:\n        /* \"#utility.yul\":26656:26660   */\n      dup2\n        /* \"#utility.yul\":26704:26705   */\n      0x01\n        /* \"#utility.yul\":26699:26726   */\n      dup2\n      eq\n      tag_586\n      jumpi\n        /* \"#utility.yul\":26740:26741   */\n      0x02\n        /* \"#utility.yul\":26735:26926   */\n      dup2\n      eq\n      tag_587\n      jumpi\n        /* \"#utility.yul\":26649:26926   */\n      jump(tag_585)\n        /* \"#utility.yul\":26699:26726   */\n    tag_586:\n        /* \"#utility.yul\":26717:26718   */\n      0x01\n        /* \"#utility.yul\":26708:26718   */\n      swap2\n      pop\n        /* \"#utility.yul\":26719:26724   */\n      pop\n      jump(tag_582)\n        /* \"#utility.yul\":26735:26926   */\n    tag_587:\n        /* \"#utility.yul\":26780:26783   */\n      0xff\n        /* \"#utility.yul\":26770:26778   */\n      dup5\n        /* \"#utility.yul\":26767:26784   */\n      gt\n        /* \"#utility.yul\":26764:26807   */\n      iszero\n      tag_588\n      jumpi\n        /* \"#utility.yul\":26787:26805   */\n      tag_589\n      tag_299\n      jump\t// in\n    tag_589:\n        /* \"#utility.yul\":26764:26807   */\n    tag_588:\n        /* \"#utility.yul\":26836:26844   */\n      dup4\n        /* \"#utility.yul\":26833:26834   */\n      0x02\n        /* \"#utility.yul\":26829:26845   */\n      exp\n        /* \"#utility.yul\":26820:26845   */\n      swap2\n      pop\n        /* \"#utility.yul\":26871:26874   */\n      dup5\n        /* \"#utility.yul\":26864:26869   */\n      dup3\n        /* \"#utility.yul\":26861:26875   */\n      gt\n        /* \"#utility.yul\":26858:26898   */\n      iszero\n      tag_590\n      jumpi\n        /* \"#utility.yul\":26878:26896   */\n      tag_591\n      tag_299\n      jump\t// in\n    tag_591:\n        /* \"#utility.yul\":26858:26898   */\n    tag_590:\n        /* \"#utility.yul\":26911:26916   */\n      pop\n      jump(tag_582)\n        /* \"#utility.yul\":26649:26926   */\n    tag_585:\n      pop\n        /* \"#utility.yul\":27035:27037   */\n      0x20\n        /* \"#utility.yul\":27025:27033   */\n      dup4\n        /* \"#utility.yul\":27022:27038   */\n      lt\n        /* \"#utility.yul\":27016:27019   */\n      0x0133\n        /* \"#utility.yul\":27010:27014   */\n      dup4\n        /* \"#utility.yul\":27007:27020   */\n      lt\n        /* \"#utility.yul\":27003:27039   */\n      and\n        /* \"#utility.yul\":26985:26987   */\n      0x4e\n        /* \"#utility.yul\":26975:26983   */\n      dup5\n        /* \"#utility.yul\":26972:26988   */\n      lt\n        /* \"#utility.yul\":26967:26969   */\n      0x0b\n        /* \"#utility.yul\":26961:26965   */\n      dup5\n        /* \"#utility.yul\":26958:26970   */\n      lt\n        /* \"#utility.yul\":26954:26989   */\n      and\n        /* \"#utility.yul\":26938:27049   */\n      or\n        /* \"#utility.yul\":26935:27181   */\n      iszero\n      tag_592\n      jumpi\n        /* \"#utility.yul\":27091:27099   */\n      dup3\n        /* \"#utility.yul\":27085:27089   */\n      dup3\n        /* \"#utility.yul\":27081:27100   */\n      exp\n        /* \"#utility.yul\":27072:27100   */\n      swap1\n      pop\n        /* \"#utility.yul\":27126:27129   */\n      dup4\n        /* \"#utility.yul\":27119:27124   */\n      dup2\n        /* \"#utility.yul\":27116:27130   */\n      gt\n        /* \"#utility.yul\":27113:27153   */\n      iszero\n      tag_593\n      jumpi\n        /* \"#utility.yul\":27133:27151   */\n      tag_594\n      tag_299\n      jump\t// in\n    tag_594:\n        /* \"#utility.yul\":27113:27153   */\n    tag_593:\n        /* \"#utility.yul\":27166:27171   */\n      jump(tag_582)\n        /* \"#utility.yul\":26935:27181   */\n    tag_592:\n        /* \"#utility.yul\":27206:27248   */\n      tag_595\n        /* \"#utility.yul\":27244:27247   */\n      dup5\n        /* \"#utility.yul\":27234:27242   */\n      dup5\n        /* \"#utility.yul\":27228:27232   */\n      dup5\n        /* \"#utility.yul\":27225:27226   */\n      0x01\n        /* \"#utility.yul\":27206:27248   */\n      tag_322\n      jump\t// in\n    tag_595:\n        /* \"#utility.yul\":27191:27248   */\n      swap3\n      pop\n      swap1\n      pop\n        /* \"#utility.yul\":27280:27284   */\n      dup2\n        /* \"#utility.yul\":27275:27278   */\n      dup5\n        /* \"#utility.yul\":27271:27285   */\n      div\n        /* \"#utility.yul\":27264:27269   */\n      dup2\n        /* \"#utility.yul\":27261:27286   */\n      gt\n        /* \"#utility.yul\":27258:27309   */\n      iszero\n      tag_596\n      jumpi\n        /* \"#utility.yul\":27289:27307   */\n      tag_597\n      tag_299\n      jump\t// in\n    tag_597:\n        /* \"#utility.yul\":27258:27309   */\n    tag_596:\n        /* \"#utility.yul\":27338:27342   */\n      dup2\n        /* \"#utility.yul\":27331:27336   */\n      dup2\n        /* \"#utility.yul\":27327:27343   */\n      mul\n        /* \"#utility.yul\":27318:27343   */\n      swap1\n      pop\n        /* \"#utility.yul\":26276:27349   */\n    tag_582:\n      swap4\n      swap3\n      pop\n      pop\n      pop\n      jump\t// out\n        /* \"#utility.yul\":27355:27636   */\n    tag_157:\n        /* \"#utility.yul\":27413:27418   */\n      0x00\n        /* \"#utility.yul\":27437:27460   */\n      tag_599\n        /* \"#utility.yul\":27455:27459   */\n      dup3\n        /* \"#utility.yul\":27437:27460   */\n      tag_269\n      jump\t// in\n    tag_599:\n        /* \"#utility.yul\":27429:27460   */\n      swap2\n      pop\n        /* \"#utility.yul\":27481:27506   */\n      tag_600\n        /* \"#utility.yul\":27497:27505   */\n      dup4\n        /* \"#utility.yul\":27481:27506   */\n      tag_316\n      jump\t// in\n    tag_600:\n        /* \"#utility.yul\":27469:27506   */\n      swap3\n      pop\n        /* \"#utility.yul\":27525:27629   */\n      tag_601\n        /* \"#utility.yul\":27562:27628   */\n      0xffffffffffffffffffffffffffffffffffffffffffffffffffffffffffffffff\n        /* \"#utility.yul\":27552:27560   */\n      dup5\n        /* \"#utility.yul\":27546:27550   */\n      dup5\n        /* \"#utility.yul\":27525:27629   */\n      tag_323\n      jump\t// in\n    tag_601:\n        /* \"#utility.yul\":27516:27629   */\n      swap1\n      pop\n        /* \"#utility.yul\":27355:27636   */\n      swap3\n      swap2\n      pop\n      pop\n      jump\t// out\n        /* \"#utility.yul\":27642:28052   */\n    tag_163:\n        /* \"#utility.yul\":27682:27689   */\n      0x00\n        /* \"#utility.yul\":27705:27725   */\n      tag_603\n        /* \"#utility.yul\":27723:27724   */\n      dup3\n        /* \"#utility.yul\":27705:27725   */\n      tag_269\n      jump\t// in\n    tag_603:\n        /* \"#utility.yul\":27700:27725   */\n      swap2\n      pop\n        /* \"#utility.yul\":27739:27759   */\n      tag_604\n        /* \"#utility.yul\":27757:27758   */\n      dup4\n        /* \"#utility.yul\":27739:27759   */\n      tag_269\n      jump\t// in\n    tag_604:\n        /* \"#utility.yul\":27734:27759   */\n      swap3\n      pop\n        /* \"#utility.yul\":27794:27795   */\n      dup3\n        /* \"#utility.yul\":27791:27792   */\n      dup3\n        /* \"#utility.yul\":27787:27796   */\n      mul\n        /* \"#utility.yul\":27816:27846   */\n      tag_605\n        /* \"#utility.yul\":27834:27845   */\n      dup2\n        /* \"#utility.yul\":27816:27846   */\n      tag_269\n      jump\t// in\n    tag_605:\n        /* \"#utility.yul\":27805:27846   */\n      swap2\n      pop\n        /* \"#utility.yul\":27995:27996   */\n      dup3\n        /* \"#utility.yul\":27986:27993   */\n      dup3\n        /* \"#utility.yul\":27982:27997   */\n      div\n        /* \"#utility.yul\":27979:27980   */\n      dup5\n        /* \"#utility.yul\":27976:27998   */\n      eq\n        /* \"#utility.yul\":27956:27957   */\n      dup4\n        /* \"#utility.yul\":27949:27958   */\n      iszero\n        /* \"#utility.yul\":27929:28012   */\n      or\n        /* \"#utility.yul\":27906:28045   */\n      tag_606\n      jumpi\n        /* \"#utility.yul\":28025:28043   */\n      tag_607\n      tag_299\n      jump\t// in\n    tag_607:\n        /* \"#utility.yul\":27906:28045   */\n    tag_606:\n        /* \"#utility.yul\":27690:28052   */\n      pop\n        /* \"#utility.yul\":27642:28052   */\n      swap3\n      swap2\n      pop\n      pop\n      jump\t// out\n        /* \"#utility.yul\":28058:28201   */\n    tag_324:\n        /* \"#utility.yul\":28115:28120   */\n      0x00\n        /* \"#utility.yul\":28146:28152   */\n      dup2\n        /* \"#utility.yul\":28140:28153   */\n      mload\n        /* \"#utility.yul\":28131:28153   */\n      swap1\n      pop\n        /* \"#utility.yul\":28162:28195   */\n      tag_609\n        /* \"#utility.yul\":28189:28194   */\n      dup2\n        /* \"#utility.yul\":28162:28195   */\n      tag_270\n      jump\t// in\n    tag_609:\n        /* \"#utility.yul\":28058:28201   */\n      swap3\n      swap2\n      pop\n      pop\n      jump\t// out\n        /* \"#utility.yul\":28207:28558   */\n    tag_178:\n        /* \"#utility.yul\":28277:28283   */\n      0x00\n        /* \"#utility.yul\":28326:28328   */\n      0x20\n        /* \"#utility.yul\":28314:28323   */\n      dup3\n        /* \"#utility.yul\":28305:28312   */\n      dup5\n        /* \"#utility.yul\":28301:28324   */\n      sub\n        /* \"#utility.yul\":28297:28329   */\n      slt\n        /* \"#utility.yul\":28294:28413   */\n      iszero\n      tag_611\n      jumpi\n        /* \"#utility.yul\":28332:28411   */\n      tag_612\n      tag_257\n      jump\t// in\n    tag_612:\n        /* \"#utility.yul\":28294:28413   */\n    tag_611:\n        /* \"#utility.yul\":28452:28453   */\n      0x00\n        /* \"#utility.yul\":28477:28541   */\n      tag_613\n        /* \"#utility.yul\":28533:28540   */\n      dup5\n        /* \"#utility.yul\":28524:28530   */\n      dup3\n        /* \"#utility.yul\":28513:28522   */\n      dup6\n        /* \"#utility.yul\":28509:28531   */\n      add\n        /* \"#utility.yul\":28477:28541   */\n      tag_324\n      jump\t// in\n    tag_613:\n        /* \"#utility.yul\":28467:28541   */\n      swap2\n      pop\n        /* \"#utility.yul\":28423:28551   */\n      pop\n        /* \"#utility.yul\":28207:28558   */\n      swap3\n      swap2\n      pop\n      pop\n      jump\t// out\n        /* \"#utility.yul\":28564:28734   */\n    tag_325:\n        /* \"#utility.yul\":28704:28726   */\n      0x4e6f7420656e6f756768206c6971756964697479000000000000000000000000\n        /* \"#utility.yul\":28700:28701   */\n      0x00\n        /* \"#utility.yul\":28692:28698   */\n      dup3\n        /* \"#utility.yul\":28688:28702   */\n      add\n        /* \"#utility.yul\":28681:28727   */\n      mstore\n        /* \"#utility.yul\":28564:28734   */\n      pop\n      jump\t// out\n        /* \"#utility.yul\":28740:29106   */\n    tag_326:\n        /* \"#utility.yul\":28882:28885   */\n      0x00\n        /* \"#utility.yul\":28903:28970   */\n      tag_616\n        /* \"#utility.yul\":28967:28969   */\n      0x14\n        /* \"#utility.yul\":28962:28965   */\n      dup4\n        /* \"#utility.yul\":28903:28970   */\n      tag_291\n      jump\t// in\n    tag_616:\n        /* \"#utility.yul\":28896:28970   */\n      swap2\n      pop\n        /* \"#utility.yul\":28979:29072   */\n      tag_617\n        /* \"#utility.yul\":29068:29071   */\n      dup3\n        /* \"#utility.yul\":28979:29072   */\n      tag_325\n      jump\t// in\n    tag_617:\n        /* \"#utility.yul\":29097:29099   */\n      0x20\n        /* \"#utility.yul\":29092:29095   */\n      dup3\n        /* \"#utility.yul\":29088:29100   */\n      add\n        /* \"#utility.yul\":29081:29100   */\n      swap1\n      pop\n        /* \"#utility.yul\":28740:29106   */\n      swap2\n      swap1\n      pop\n      jump\t// out\n        /* \"#utility.yul\":29112:29531   */\n    tag_181:\n        /* \"#utility.yul\":29278:29282   */\n      0x00\n        /* \"#utility.yul\":29316:29318   */\n      0x20\n        /* \"#utility.yul\":29305:29314   */\n      dup3\n        /* \"#utility.yul\":29301:29319   */\n      add\n        /* \"#utility.yul\":29293:29319   */\n      swap1\n      pop\n        /* \"#utility.yul\":29365:29374   */\n      dup2\n        /* \"#utility.yul\":29359:29363   */\n      dup2\n        /* \"#utility.yul\":29355:29375   */\n      sub\n        /* \"#utility.yul\":29351:29352   */\n      0x00\n        /* \"#utility.yul\":29340:29349   */\n      dup4\n        /* \"#utility.yul\":29336:29353   */\n      add\n        /* \"#utility.yul\":29329:29376   */\n      mstore\n        /* \"#utility.yul\":29393:29524   */\n      tag_619\n        /* \"#utility.yul\":29519:29523   */\n      dup2\n        /* \"#utility.yul\":29393:29524   */\n      tag_326\n      jump\t// in\n    tag_619:\n        /* \"#utility.yul\":29385:29524   */\n      swap1\n      pop\n        /* \"#utility.yul\":29112:29531   */\n      swap2\n      swap1\n      pop\n      jump\t// out\n        /* \"#utility.yul\":29537:29979   */\n    tag_183:\n        /* \"#utility.yul\":29686:29690   */\n      0x00\n        /* \"#utility.yul\":29724:29726   */\n      0x60\n        /* \"#utility.yul\":29713:29722   */\n      dup3\n        /* \"#utility.yul\":29709:29727   */\n      add\n        /* \"#utility.yul\":29701:29727   */\n      swap1\n      pop\n        /* \"#utility.yul\":29737:29808   */\n      tag_621\n        /* \"#utility.yul\":29805:29806   */\n      0x00\n        /* \"#utility.yul\":29794:29803   */\n      dup4\n        /* \"#utility.yul\":29790:29807   */\n      add\n        /* \"#utility.yul\":29781:29787   */\n      dup7\n        /* \"#utility.yul\":29737:29808   */\n      tag_286\n      jump\t// in\n    tag_621:\n        /* \"#utility.yul\":29818:29890   */\n      tag_622\n        /* \"#utility.yul\":29886:29888   */\n      0x20\n        /* \"#utility.yul\":29875:29884   */\n      dup4\n        /* \"#utility.yul\":29871:29889   */\n      add\n        /* \"#utility.yul\":29862:29868   */\n      dup6\n        /* \"#utility.yul\":29818:29890   */\n      tag_286\n      jump\t// in\n    tag_622:\n        /* \"#utility.yul\":29900:29972   */\n      tag_623\n        /* \"#utility.yul\":29968:29970   */\n      0x40\n        /* \"#utility.yul\":29957:29966   */\n      dup4\n        /* \"#utility.yul\":29953:29971   */\n      add\n        /* \"#utility.yul\":29944:29950   */\n      dup5\n        /* \"#utility.yul\":29900:29972   */\n      tag_285\n      jump\t// in\n    tag_623:\n        /* \"#utility.yul\":29537:29979   */\n      swap5\n      swap4\n      pop\n      pop\n      pop\n      pop\n      jump\t// out\n        /* \"#utility.yul\":29985:30154   */\n    tag_327:\n        /* \"#utility.yul\":30125:30146   */\n      0x5472616e7366657246726f6d206661696c656400000000000000000000000000\n        /* \"#utility.yul\":30121:30122   */\n      0x00\n        /* \"#utility.yul\":30113:30119   */\n      dup3\n        /* \"#utility.yul\":30109:30123   */\n      add\n        /* \"#utility.yul\":30102:30147   */\n      mstore\n        /* \"#utility.yul\":29985:30154   */\n      pop\n      jump\t// out\n        /* \"#utility.yul\":30160:30526   */\n    tag_328:\n        /* \"#utility.yul\":30302:30305   */\n      0x00\n        /* \"#utility.yul\":30323:30390   */\n      tag_626\n        /* \"#utility.yul\":30387:30389   */\n      0x13\n        /* \"#utility.yul\":30382:30385   */\n      dup4\n        /* \"#utility.yul\":30323:30390   */\n      tag_291\n      jump\t// in\n    tag_626:\n        /* \"#utility.yul\":30316:30390   */\n      swap2\n      pop\n        /* \"#utility.yul\":30399:30492   */\n      tag_627\n        /* \"#utility.yul\":30488:30491   */\n      dup3\n        /* \"#utility.yul\":30399:30492   */\n      tag_327\n      jump\t// in\n    tag_627:\n        /* \"#utility.yul\":30517:30519   */\n      0x20\n        /* \"#utility.yul\":30512:30515   */\n      dup3\n        /* \"#utility.yul\":30508:30520   */\n      add\n        /* \"#utility.yul\":30501:30520   */\n      swap1\n      pop\n        /* \"#utility.yul\":30160:30526   */\n      swap2\n      swap1\n      pop\n      jump\t// out\n        /* \"#utility.yul\":30532:30951   */\n    tag_189:\n        /* \"#utility.yul\":30698:30702   */\n      0x00\n        /* \"#utility.yul\":30736:30738   */\n      0x20\n        /* \"#utility.yul\":30725:30734   */\n      dup3\n        /* \"#utility.yul\":30721:30739   */\n      add\n        /* \"#utility.yul\":30713:30739   */\n      swap1\n      pop\n        /* \"#utility.yul\":30785:30794   */\n      dup2\n        /* \"#utility.yul\":30779:30783   */\n      dup2\n        /* \"#utility.yul\":30775:30795   */\n      sub\n        /* \"#utility.yul\":30771:30772   */\n      0x00\n        /* \"#utility.yul\":30760:30769   */\n      dup4\n        /* \"#utility.yul\":30756:30773   */\n      add\n        /* \"#utility.yul\":30749:30796   */\n      mstore\n        /* \"#utility.yul\":30813:30944   */\n      tag_629\n        /* \"#utility.yul\":30939:30943   */\n      dup2\n        /* \"#utility.yul\":30813:30944   */\n      tag_328\n      jump\t// in\n    tag_629:\n        /* \"#utility.yul\":30805:30944   */\n      swap1\n      pop\n        /* \"#utility.yul\":30532:30951   */\n      swap2\n      swap1\n      pop\n      jump\t// out\n        /* \"#utility.yul\":30957:31122   */\n    tag_329:\n        /* \"#utility.yul\":31097:31114   */\n      0x5472616e73666572206661696c65640000000000000000000000000000000000\n        /* \"#utility.yul\":31093:31094   */\n      0x00\n        /* \"#utility.yul\":31085:31091   */\n      dup3\n        /* \"#utility.yul\":31081:31095   */\n      add\n        /* \"#utility.yul\":31074:31115   */\n      mstore\n        /* \"#utility.yul\":30957:31122   */\n      pop\n      jump\t// out\n        /* \"#utility.yul\":31128:31494   */\n    tag_330:\n        /* \"#utility.yul\":31270:31273   */\n      0x00\n        /* \"#utility.yul\":31291:31358   */\n      tag_632\n        /* \"#utility.yul\":31355:31357   */\n      0x0f\n        /* \"#utility.yul\":31350:31353   */\n      dup4\n        /* \"#utility.yul\":31291:31358   */\n      tag_291\n      jump\t// in\n    tag_632:\n        /* \"#utility.yul\":31284:31358   */\n      swap2\n      pop\n        /* \"#utility.yul\":31367:31460   */\n      tag_633\n        /* \"#utility.yul\":31456:31459   */\n      dup3\n        /* \"#utility.yul\":31367:31460   */\n      tag_329\n      jump\t// in\n    tag_633:\n        /* \"#utility.yul\":31485:31487   */\n      0x20\n        /* \"#utility.yul\":31480:31483   */\n      dup3\n        /* \"#utility.yul\":31476:31488   */\n      add\n        /* \"#utility.yul\":31469:31488   */\n      swap1\n      pop\n        /* \"#utility.yul\":31128:31494   */\n      swap2\n      swap1\n      pop\n      jump\t// out\n        /* \"#utility.yul\":31500:31919   */\n    tag_196:\n        /* \"#utility.yul\":31666:31670   */\n      0x00\n        /* \"#utility.yul\":31704:31706   */\n      0x20\n        /* \"#utility.yul\":31693:31702   */\n      dup3\n        /* \"#utility.yul\":31689:31707   */\n      add\n        /* \"#utility.yul\":31681:31707   */\n      swap1\n      pop\n        /* \"#utility.yul\":31753:31762   */\n      dup2\n        /* \"#utility.yul\":31747:31751   */\n      dup2\n        /* \"#utility.yul\":31743:31763   */\n      sub\n        /* \"#utility.yul\":31739:31740   */\n      0x00\n        /* \"#utility.yul\":31728:31737   */\n      dup4\n        /* \"#utility.yul\":31724:31741   */\n      add\n        /* \"#utility.yul\":31717:31764   */\n      mstore\n        /* \"#utility.yul\":31781:31912   */\n      tag_635\n        /* \"#utility.yul\":31907:31911   */\n      dup2\n        /* \"#utility.yul\":31781:31912   */\n      tag_330\n      jump\t// in\n    tag_635:\n        /* \"#utility.yul\":31773:31912   */\n      swap1\n      pop\n        /* \"#utility.yul\":31500:31919   */\n      swap2\n      swap1\n      pop\n      jump\t// out\n        /* \"#utility.yul\":31925:32660   */\n    tag_198:\n        /* \"#utility.yul\":32142:32146   */\n      0x00\n        /* \"#utility.yul\":32180:32183   */\n      0x80\n        /* \"#utility.yul\":32169:32178   */\n      dup3\n        /* \"#utility.yul\":32165:32184   */\n      add\n        /* \"#utility.yul\":32157:32184   */\n      swap1\n      pop\n        /* \"#utility.yul\":32230:32239   */\n      dup2\n        /* \"#utility.yul\":32224:32228   */\n      dup2\n        /* \"#utility.yul\":32220:32240   */\n      sub\n        /* \"#utility.yul\":32216:32217   */\n      0x00\n        /* \"#utility.yul\":32205:32214   */\n      dup4\n        /* \"#utility.yul\":32201:32218   */\n      add\n        /* \"#utility.yul\":32194:32241   */\n      mstore\n        /* \"#utility.yul\":32258:32336   */\n      tag_637\n        /* \"#utility.yul\":32331:32335   */\n      dup2\n        /* \"#utility.yul\":32322:32328   */\n      dup8\n        /* \"#utility.yul\":32258:32336   */\n      tag_300\n      jump\t// in\n    tag_637:\n        /* \"#utility.yul\":32250:32336   */\n      swap1\n      pop\n        /* \"#utility.yul\":32383:32392   */\n      dup2\n        /* \"#utility.yul\":32377:32381   */\n      dup2\n        /* \"#utility.yul\":32373:32393   */\n      sub\n        /* \"#utility.yul\":32368:32370   */\n      0x20\n        /* \"#utility.yul\":32357:32366   */\n      dup4\n        /* \"#utility.yul\":32353:32371   */\n      add\n        /* \"#utility.yul\":32346:32394   */\n      mstore\n        /* \"#utility.yul\":32411:32489   */\n      tag_638\n        /* \"#utility.yul\":32484:32488   */\n      dup2\n        /* \"#utility.yul\":32475:32481   */\n      dup7\n        /* \"#utility.yul\":32411:32489   */\n      tag_300\n      jump\t// in\n    tag_638:\n        /* \"#utility.yul\":32403:32489   */\n      swap1\n      pop\n        /* \"#utility.yul\":32499:32571   */\n      tag_639\n        /* \"#utility.yul\":32567:32569   */\n      0x40\n        /* \"#utility.yul\":32556:32565   */\n      dup4\n        /* \"#utility.yul\":32552:32570   */\n      add\n        /* \"#utility.yul\":32543:32549   */\n      dup6\n        /* \"#utility.yul\":32499:32571   */\n      tag_285\n      jump\t// in\n    tag_639:\n        /* \"#utility.yul\":32581:32653   */\n      tag_640\n        /* \"#utility.yul\":32649:32651   */\n      0x60\n        /* \"#utility.yul\":32638:32647   */\n      dup4\n        /* \"#utility.yul\":32634:32652   */\n      add\n        /* \"#utility.yul\":32625:32631   */\n      dup5\n        /* \"#utility.yul\":32581:32653   */\n      tag_285\n      jump\t// in\n    tag_640:\n        /* \"#utility.yul\":31925:32660   */\n      swap6\n      swap5\n      pop\n      pop\n      pop\n      pop\n      pop\n      jump\t// out\n        /* \"#utility.yul\":32666:32847   */\n    tag_331:\n        /* \"#utility.yul\":32806:32839   */\n      0x5265656e7472616e637947756172643a207265656e7472616e742063616c6c00\n        /* \"#utility.yul\":32802:32803   */\n      0x00\n        /* \"#utility.yul\":32794:32800   */\n      dup3\n        /* \"#utility.yul\":32790:32804   */\n      add\n        /* \"#utility.yul\":32783:32840   */\n      mstore\n        /* \"#utility.yul\":32666:32847   */\n      pop\n      jump\t// out\n        /* \"#utility.yul\":32853:33219   */\n    tag_332:\n        /* \"#utility.yul\":32995:32998   */\n      0x00\n        /* \"#utility.yul\":33016:33083   */\n      tag_643\n        /* \"#utility.yul\":33080:33082   */\n      0x1f\n        /* \"#utility.yul\":33075:33078   */\n      dup4\n        /* \"#utility.yul\":33016:33083   */\n      tag_291\n      jump\t// in\n    tag_643:\n        /* \"#utility.yul\":33009:33083   */\n      swap2\n      pop\n        /* \"#utility.yul\":33092:33185   */\n      tag_644\n        /* \"#utility.yul\":33181:33184   */\n      dup3\n        /* \"#utility.yul\":33092:33185   */\n      tag_331\n      jump\t// in\n    tag_644:\n        /* \"#utility.yul\":33210:33212   */\n      0x20\n        /* \"#utility.yul\":33205:33208   */\n      dup3\n        /* \"#utility.yul\":33201:33213   */\n      add\n        /* \"#utility.yul\":33194:33213   */\n      swap1\n      pop\n        /* \"#utility.yul\":32853:33219   */\n      swap2\n      swap1\n      pop\n      jump\t// out\n        /* \"#utility.yul\":33225:33644   */\n    tag_253:\n        /* \"#utility.yul\":33391:33395   */\n      0x00\n        /* \"#utility.yul\":33429:33431   */\n      0x20\n        /* \"#utility.yul\":33418:33427   */\n      dup3\n        /* \"#utility.yul\":33414:33432   */\n      add\n        /* \"#utility.yul\":33406:33432   */\n      swap1\n      pop\n        /* \"#utility.yul\":33478:33487   */\n      dup2\n        /* \"#utility.yul\":33472:33476   */\n      dup2\n        /* \"#utility.yul\":33468:33488   */\n      sub\n        /* \"#utility.yul\":33464:33465   */\n      0x00\n        /* \"#utility.yul\":33453:33462   */\n      dup4\n        /* \"#utility.yul\":33449:33466   */\n      add\n        /* \"#utility.yul\":33442:33489   */\n      mstore\n        /* \"#utility.yul\":33506:33637   */\n      tag_646\n        /* \"#utility.yul\":33632:33636   */\n      dup2\n        /* \"#utility.yul\":33506:33637   */\n      tag_332\n      jump\t// in\n    tag_646:\n        /* \"#utility.yul\":33498:33637   */\n      swap1\n      pop\n        /* \"#utility.yul\":33225:33644   */\n      swap2\n      swap1\n      pop\n      jump\t// out\n\n    auxdata: 0xa2646970667358221220be49c596777fda0c2fbefe139282cfb397172c1f19f9ae213252231e9b5fe78c64736f6c634300081e0033\n}\n",
				"bytecode": {
					"linkReferences": {},
					"object": "608060405234801561000f575f5ffd5b503360015f819055505f73ffffffffffffffffffffffffffffffffffffffff168173ffffffffffffffffffffffffffffffffffffffff1603610088575f6040517f1e4fbdf700000000000000000000000000000000000000000000000000000000815260040161007f919061019f565b60405180910390fd5b6100978161009d60201b60201c565b506101b8565b5f60015f9054906101000a900473ffffffffffffffffffffffffffffffffffffffff1690508160015f6101000a81548173ffffffffffffffffffffffffffffffffffffffff021916908373ffffffffffffffffffffffffffffffffffffffff1602179055508173ffffffffffffffffffffffffffffffffffffffff168173ffffffffffffffffffffffffffffffffffffffff167f8be0079c531659141344cd1fd0a4f28419497f9722a3daafe3b4186f6b6457e060405160405180910390a35050565b5f73ffffffffffffffffffffffffffffffffffffffff82169050919050565b5f61018982610160565b9050919050565b6101998161017f565b82525050565b5f6020820190506101b25f830184610190565b92915050565b61252e806101c55f395ff3fe608060405234801561000f575f5ffd5b50600436106100b2575f3560e01c80638da5cb5b1161006f5780638da5cb5b146101885780639e281a98146101a6578063a451f602146101c2578063e3f2804f146101de578063ed4aa7c01461020e578063f2fde38b1461023e576100b2565b8063049b266a146100b657806304c2320b146100d257806317456e561461010257806331dd8eb81461011e578063577a9fc51461014e578063715018a61461017e575b5f5ffd5b6100d060048036038101906100cb9190611633565b61025a565b005b6100ec60048036038101906100e791906116bb565b6104df565b6040516100f9919061177c565b60405180910390f35b61011c600480360381019061011791906117d0565b610527565b005b6101386004803603810190610133919061182a565b610636565b60405161014591906118b8565b60405180910390f35b610168600480360381019061016391906118fb565b610668565b6040516101759190611935565b60405180910390f35b61018661067d565b005b610190610690565b60405161019d919061195d565b60405180910390f35b6101c060048036038101906101bb9190611976565b6106b8565b005b6101dc60048036038101906101d79190611633565b6107c7565b005b6101f860048036038101906101f3919061182a565b610e96565b6040516102059190611935565b60405180910390f35b61022860048036038101906102239190611633565b610ed9565b6040516102359190611935565b60405180910390f35b610258600480360381019061025391906119b4565b611288565b005b61026261130c565b5f73ffffffffffffffffffffffffffffffffffffffff166002846040516102899190611a31565b90815260200160405180910390205f9054906101000a900473ffffffffffffffffffffffffffffffffffffffff1673ffffffffffffffffffffffffffffffffffffffff160361030d576040517f08c379a000000000000000000000000000000000000000000000000000000000815260040161030490611aa1565b60405180910390fd5b5f73ffffffffffffffffffffffffffffffffffffffff166002836040516103349190611a31565b90815260200160405180910390205f9054906101000a900473ffffffffffffffffffffffffffffffffffffffff1673ffffffffffffffffffffffffffffffffffffffff16036103b8576040517f08c379a00000000000000000000000000000000000000000000000000000000081526004016103af90611b09565b60405180910390fd5b5f81116103fa576040517f08c379a00000000000000000000000000000000000000000000000000000000081526004016103f190611b71565b60405180910390fd5b5f838360405160200161040e929190611b8f565b6040516020818303038152906040528051906020012090505f838560405160200161043a929190611b8f565b6040516020818303038152906040528051906020012090508260035f8481526020019081526020015f20819055505f836ec097ce7bc90715b34b9f10000000006104849190611c0c565b90508060035f8481526020019081526020015f20819055507fe48292e51fb907bcef0d684cbb93bf1474d076470529cd1b21c6343cec6ce8348686866040516104cf93929190611c74565b60405180910390a1505050505050565b6002818051602081018201805184825260208301602085012081835280955050505050505f915054906101000a900473ffffffffffffffffffffffffffffffffffffffff1681565b61052f61130c565b5f73ffffffffffffffffffffffffffffffffffffffff168173ffffffffffffffffffffffffffffffffffffffff160361059d576040517f08c379a000000000000000000000000000000000000000000000000000000000815260040161059490611d01565b60405180910390fd5b806002836040516105ae9190611a31565b90815260200160405180910390205f6101000a81548173ffffffffffffffffffffffffffffffffffffffff021916908373ffffffffffffffffffffffffffffffffffffffff1602179055507f0bd6274cd0bf2ce8ebd481e327380948c4b7cf552504560e4d0c892184ce28a5828260405161062a929190611d1f565b60405180910390a15050565b5f828260405160200161064a929190611b8f565b60405160208183030381529060405280519060200120905092915050565b6003602052805f5260405f205f915090505481565b61068561130c565b61068e5f611393565b565b5f60015f9054906101000a900473ffffffffffffffffffffffffffffffffffffffff16905090565b6106c061130c565b6106c8611456565b8173ffffffffffffffffffffffffffffffffffffffff1663a9059cbb33836040518363ffffffff1660e01b8152600401610703929190611d4d565b6020604051808303815f875af115801561071f573d5f5f3e3d5ffd5b505050506040513d601f19601f820116820180604052508101906107439190611da9565b610782576040517f08c379a000000000000000000000000000000000000000000000000000000000815260040161077990611e1e565b60405180910390fd5b7fa2bd9fcfcdba69f52bcd9a520846ad4bd685b187483f53efc42d035b2ddebff082826040516107b3929190611d4d565b60405180910390a16107c36114a3565b5050565b6107cf611456565b5f8111610811576040517f08c379a000000000000000000000000000000000000000000000000000000000815260040161080890611e86565b60405180910390fd5b8180519060200120838051906020012003610861576040517f08c379a000000000000000000000000000000000000000000000000000000000815260040161085890611eee565b60405180910390fd5b5f6002846040516108729190611a31565b90815260200160405180910390205f9054906101000a900473ffffffffffffffffffffffffffffffffffffffff1690505f6002846040516108b39190611a31565b90815260200160405180910390205f9054906101000a900473ffffffffffffffffffffffffffffffffffffffff1690505f73ffffffffffffffffffffffffffffffffffffffff168273ffffffffffffffffffffffffffffffffffffffff1603610951576040517f08c379a000000000000000000000000000000000000000000000000000000000815260040161094890611f56565b60405180910390fd5b5f73ffffffffffffffffffffffffffffffffffffffff168173ffffffffffffffffffffffffffffffffffffffff16036109bf576040517f08c379a00000000000000000000000000000000000000000000000000000000081526004016109b690611fbe565b60405180910390fd5b5f8273ffffffffffffffffffffffffffffffffffffffff1663313ce5676040518163ffffffff1660e01b8152600401602060405180830381865afa158015610a09573d5f5f3e3d5ffd5b505050506040513d601f19601f82011682018060405250810190610a2d9190612012565b90505f8273ffffffffffffffffffffffffffffffffffffffff1663313ce5676040518163ffffffff1660e01b8152600401602060405180830381865afa158015610a79573d5f5f3e3d5ffd5b505050506040513d601f19601f82011682018060405250810190610a9d9190612012565b90505f8787604051602001610ab3929190611b8f565b6040516020818303038152906040528051906020012090505f60035f8381526020019081526020015f205490505f8111610b22576040517f08c379a0000000000000000000000000000000000000000000000000000000008152600401610b1990612087565b60405180910390fd5b5f60128560ff1610610b5757601285610b3b91906120a5565b600a610b479190612208565b88610b529190611c0c565b610b7c565b846012610b6491906120a5565b600a610b709190612208565b88610b7b9190612252565b5b90505f670de0b6b3a76400008383610b949190612252565b610b9e9190611c0c565b90505f60128660ff1610610bd557601286610bb991906120a5565b600a610bc59190612208565b82610bd09190612252565b610bfa565b856012610be291906120a5565b600a610bee9190612208565b82610bf99190611c0c565b5b9050808873ffffffffffffffffffffffffffffffffffffffff166370a08231306040518263ffffffff1660e01b8152600401610c36919061195d565b602060405180830381865afa158015610c51573d5f5f3e3d5ffd5b505050506040513d601f19601f82011682018060405250810190610c7591906122a7565b1015610cb6576040517f08c379a0000000000000000000000000000000000000000000000000000000008152600401610cad9061231c565b60405180910390fd5b8873ffffffffffffffffffffffffffffffffffffffff166323b872dd33308d6040518463ffffffff1660e01b8152600401610cf39392919061233a565b6020604051808303815f875af1158015610d0f573d5f5f3e3d5ffd5b505050506040513d601f19601f82011682018060405250810190610d339190611da9565b610d72576040517f08c379a0000000000000000000000000000000000000000000000000000000008152600401610d69906123b9565b60405180910390fd5b8773ffffffffffffffffffffffffffffffffffffffff1663a9059cbb33836040518363ffffffff1660e01b8152600401610dad929190611d4d565b6020604051808303815f875af1158015610dc9573d5f5f3e3d5ffd5b505050506040513d601f19601f82011682018060405250810190610ded9190611da9565b610e2c576040517f08c379a0000000000000000000000000000000000000000000000000000000008152600401610e2390612421565b60405180910390fd5b3373ffffffffffffffffffffffffffffffffffffffff167f75f42f47c3c6e52e062026c25f2a121abf88c6a283055eaface63720ac0a99998d8d8d85604051610e78949392919061243f565b60405180910390a2505050505050505050610e916114a3565b505050565b5f60035f8484604051602001610ead929190611b8f565b6040516020818303038152906040528051906020012081526020019081526020015f2054905092915050565b5f5f600285604051610eeb9190611a31565b90815260200160405180910390205f9054906101000a900473ffffffffffffffffffffffffffffffffffffffff1690505f600285604051610f2c9190611a31565b90815260200160405180910390205f9054906101000a900473ffffffffffffffffffffffffffffffffffffffff1690505f73ffffffffffffffffffffffffffffffffffffffff168273ffffffffffffffffffffffffffffffffffffffff1603610fca576040517f08c379a0000000000000000000000000000000000000000000000000000000008152600401610fc190611f56565b60405180910390fd5b5f73ffffffffffffffffffffffffffffffffffffffff168173ffffffffffffffffffffffffffffffffffffffff1603611038576040517f08c379a000000000000000000000000000000000000000000000000000000000815260040161102f90611fbe565b60405180910390fd5b5f8273ffffffffffffffffffffffffffffffffffffffff1663313ce5676040518163ffffffff1660e01b8152600401602060405180830381865afa158015611082573d5f5f3e3d5ffd5b505050506040513d601f19601f820116820180604052508101906110a69190612012565b90505f8273ffffffffffffffffffffffffffffffffffffffff1663313ce5676040518163ffffffff1660e01b8152600401602060405180830381865afa1580156110f2573d5f5f3e3d5ffd5b505050506040513d601f19601f820116820180604052508101906111169190612012565b90505f888860405160200161112c929190611b8f565b6040516020818303038152906040528051906020012090505f60035f8381526020019081526020015f205490505f811161119b576040517f08c379a000000000000000000000000000000000000000000000000000000000815260040161119290612087565b60405180910390fd5b5f60128560ff16106111d0576012856111b491906120a5565b600a6111c09190612208565b896111cb9190611c0c565b6111f5565b8460126111dd91906120a5565b600a6111e99190612208565b896111f49190612252565b5b90505f670de0b6b3a7640000838361120d9190612252565b6112179190611c0c565b90505f60128660ff161061124e5760128661123291906120a5565b600a61123e9190612208565b826112499190612252565b611273565b85601261125b91906120a5565b600a6112679190612208565b826112729190611c0c565b5b90508099505050505050505050509392505050565b61129061130c565b5f73ffffffffffffffffffffffffffffffffffffffff168173ffffffffffffffffffffffffffffffffffffffff1603611300575f6040517f1e4fbdf70000000000000000000000000000000000000000000000000000000081526004016112f7919061195d565b60405180910390fd5b61130981611393565b50565b6113146114ac565b73ffffffffffffffffffffffffffffffffffffffff16611332610690565b73ffffffffffffffffffffffffffffffffffffffff1614611391576113556114ac565b6040517f118cdaa7000000000000000000000000000000000000000000000000000000008152600401611388919061195d565b60405180910390fd5b565b5f60015f9054906101000a900473ffffffffffffffffffffffffffffffffffffffff1690508160015f6101000a81548173ffffffffffffffffffffffffffffffffffffffff021916908373ffffffffffffffffffffffffffffffffffffffff1602179055508173ffffffffffffffffffffffffffffffffffffffff168173ffffffffffffffffffffffffffffffffffffffff167f8be0079c531659141344cd1fd0a4f28419497f9722a3daafe3b4186f6b6457e060405160405180910390a35050565b60025f540361149a576040517f08c379a0000000000000000000000000000000000000000000000000000000008152600401611491906124da565b60405180910390fd5b60025f81905550565b60015f81905550565b5f33905090565b5f604051905090565b5f5ffd5b5f5ffd5b5f5ffd5b5f5ffd5b5f601f19601f8301169050919050565b7f4e487b71000000000000000000000000000000000000000000000000000000005f52604160045260245ffd5b611512826114cc565b810181811067ffffffffffffffff82111715611531576115306114dc565b5b80604052505050565b5f6115436114b3565b905061154f8282611509565b919050565b5f67ffffffffffffffff82111561156e5761156d6114dc565b5b611577826114cc565b9050602081019050919050565b828183375f83830152505050565b5f6115a461159f84611554565b61153a565b9050828152602081018484840111156115c0576115bf6114c8565b5b6115cb848285611584565b509392505050565b5f82601f8301126115e7576115e66114c4565b5b81356115f7848260208601611592565b91505092915050565b5f819050919050565b61161281611600565b811461161c575f5ffd5b50565b5f8135905061162d81611609565b92915050565b5f5f5f6060848603121561164a576116496114bc565b5b5f84013567ffffffffffffffff811115611667576116666114c0565b5b611673868287016115d3565b935050602084013567ffffffffffffffff811115611694576116936114c0565b5b6116a0868287016115d3565b92505060406116b18682870161161f565b9150509250925092565b5f602082840312156116d0576116cf6114bc565b5b5f82013567ffffffffffffffff8111156116ed576116ec6114c0565b5b6116f9848285016115d3565b91505092915050565b5f73ffffffffffffffffffffffffffffffffffffffff82169050919050565b5f819050919050565b5f61174461173f61173a84611702565b611721565b611702565b9050919050565b5f6117558261172a565b9050919050565b5f6117668261174b565b9050919050565b6117768161175c565b82525050565b5f60208201905061178f5f83018461176d565b92915050565b5f61179f82611702565b9050919050565b6117af81611795565b81146117b9575f5ffd5b50565b5f813590506117ca816117a6565b92915050565b5f5f604083850312156117e6576117e56114bc565b5b5f83013567ffffffffffffffff811115611803576118026114c0565b5b61180f858286016115d3565b9250506020611820858286016117bc565b9150509250929050565b5f5f604083850312156118405761183f6114bc565b5b5f83013567ffffffffffffffff81111561185d5761185c6114c0565b5b611869858286016115d3565b925050602083013567ffffffffffffffff81111561188a576118896114c0565b5b611896858286016115d3565b9150509250929050565b5f819050919050565b6118b2816118a0565b82525050565b5f6020820190506118cb5f8301846118a9565b92915050565b6118da816118a0565b81146118e4575f5ffd5b50565b5f813590506118f5816118d1565b92915050565b5f602082840312156119105761190f6114bc565b5b5f61191d848285016118e7565b91505092915050565b61192f81611600565b82525050565b5f6020820190506119485f830184611926565b92915050565b61195781611795565b82525050565b5f6020820190506119705f83018461194e565b92915050565b5f5f6040838503121561198c5761198b6114bc565b5b5f611999858286016117bc565b92505060206119aa8582860161161f565b9150509250929050565b5f602082840312156119c9576119c86114bc565b5b5f6119d6848285016117bc565b91505092915050565b5f81519050919050565b5f81905092915050565b8281835e5f83830152505050565b5f611a0b826119df565b611a1581856119e9565b9350611a258185602086016119f3565b80840191505092915050565b5f611a3c8284611a01565b915081905092915050565b5f82825260208201905092915050565b7f46726f6d20746f6b656e206e6f742073657400000000000000000000000000005f82015250565b5f611a8b601283611a47565b9150611a9682611a57565b602082019050919050565b5f6020820190508181035f830152611ab881611a7f565b9050919050565b7f546f20746f6b656e206e6f7420736574000000000000000000000000000000005f82015250565b5f611af3601083611a47565b9150611afe82611abf565b602082019050919050565b5f6020820190508181035f830152611b2081611ae7565b9050919050565b7f52617465206d757374206265203e2030000000000000000000000000000000005f82015250565b5f611b5b601083611a47565b9150611b6682611b27565b602082019050919050565b5f6020820190508181035f830152611b8881611b4f565b9050919050565b5f611b9a8285611a01565b9150611ba68284611a01565b91508190509392505050565b7f4e487b71000000000000000000000000000000000000000000000000000000005f52601260045260245ffd5b7f4e487b71000000000000000000000000000000000000000000000000000000005f52601160045260245ffd5b5f611c1682611600565b9150611c2183611600565b925082611c3157611c30611bb2565b5b828204905092915050565b5f611c46826119df565b611c508185611a47565b9350611c608185602086016119f3565b611c69816114cc565b840191505092915050565b5f6060820190508181035f830152611c8c8186611c3c565b90508181036020830152611ca08185611c3c565b9050611caf6040830184611926565b949350505050565b7f496e76616c696420746f6b656e206164647265737300000000000000000000005f82015250565b5f611ceb601583611a47565b9150611cf682611cb7565b602082019050919050565b5f6020820190508181035f830152611d1881611cdf565b9050919050565b5f6040820190508181035f830152611d378185611c3c565b9050611d46602083018461194e565b9392505050565b5f604082019050611d605f83018561194e565b611d6d6020830184611926565b9392505050565b5f8115159050919050565b611d8881611d74565b8114611d92575f5ffd5b50565b5f81519050611da381611d7f565b92915050565b5f60208284031215611dbe57611dbd6114bc565b5b5f611dcb84828501611d95565b91505092915050565b7f5769746864726177206661696c656400000000000000000000000000000000005f82015250565b5f611e08600f83611a47565b9150611e1382611dd4565b602082019050919050565b5f6020820190508181035f830152611e3581611dfc565b9050919050565b7f416d6f756e74206d757374206265203e203000000000000000000000000000005f82015250565b5f611e70601283611a47565b9150611e7b82611e3c565b602082019050919050565b5f6020820190508181035f830152611e9d81611e64565b9050919050565b7f43616e6e6f7420737761702073616d6520746f6b656e000000000000000000005f82015250565b5f611ed8601683611a47565b9150611ee382611ea4565b602082019050919050565b5f6020820190508181035f830152611f0581611ecc565b9050919050565b7f46726f6d20746f6b656e206e6f7420696e697469616c697a65640000000000005f82015250565b5f611f40601a83611a47565b9150611f4b82611f0c565b602082019050919050565b5f6020820190508181035f830152611f6d81611f34565b9050919050565b7f546f20746f6b656e206e6f7420696e697469616c697a656400000000000000005f82015250565b5f611fa8601883611a47565b9150611fb382611f74565b602082019050919050565b5f6020820190508181035f830152611fd581611f9c565b9050919050565b5f60ff82169050919050565b611ff181611fdc565b8114611ffb575f5ffd5b50565b5f8151905061200c81611fe8565b92915050565b5f60208284031215612027576120266114bc565b5b5f61203484828501611ffe565b91505092915050565b7f52617465206e6f742073657400000000000000000000000000000000000000005f82015250565b5f612071600c83611a47565b915061207c8261203d565b602082019050919050565b5f6020820190508181035f83015261209e81612065565b9050919050565b5f6120af82611fdc565b91506120ba83611fdc565b9250828203905060ff8111156120d3576120d2611bdf565b5b92915050565b5f8160011c9050919050565b5f5f8291508390505b600185111561212e5780860481111561210a57612109611bdf565b5b60018516156121195780820291505b8081029050612127856120d9565b94506120ee565b94509492505050565b5f826121465760019050612201565b81612153575f9050612201565b81600181146121695760028114612173576121a2565b6001915050612201565b60ff84111561218557612184611bdf565b5b8360020a91508482111561219c5761219b611bdf565b5b50612201565b5060208310610133831016604e8410600b84101617156121d75782820a9050838111156121d2576121d1611bdf565b5b612201565b6121e484848460016120e5565b925090508184048111156121fb576121fa611bdf565b5b81810290505b9392505050565b5f61221282611600565b915061221d83611fdc565b925061224a7fffffffffffffffffffffffffffffffffffffffffffffffffffffffffffffffff8484612137565b905092915050565b5f61225c82611600565b915061226783611600565b925082820261227581611600565b9150828204841483151761228c5761228b611bdf565b5b5092915050565b5f815190506122a181611609565b92915050565b5f602082840312156122bc576122bb6114bc565b5b5f6122c984828501612293565b91505092915050565b7f4e6f7420656e6f756768206c69717569646974790000000000000000000000005f82015250565b5f612306601483611a47565b9150612311826122d2565b602082019050919050565b5f6020820190508181035f830152612333816122fa565b9050919050565b5f60608201905061234d5f83018661194e565b61235a602083018561194e565b6123676040830184611926565b949350505050565b7f5472616e7366657246726f6d206661696c6564000000000000000000000000005f82015250565b5f6123a3601383611a47565b91506123ae8261236f565b602082019050919050565b5f6020820190508181035f8301526123d081612397565b9050919050565b7f5472616e73666572206661696c656400000000000000000000000000000000005f82015250565b5f61240b600f83611a47565b9150612416826123d7565b602082019050919050565b5f6020820190508181035f830152612438816123ff565b9050919050565b5f6080820190508181035f8301526124578187611c3c565b9050818103602083015261246b8186611c3c565b905061247a6040830185611926565b6124876060830184611926565b95945050505050565b7f5265656e7472616e637947756172643a207265656e7472616e742063616c6c005f82015250565b5f6124c4601f83611a47565b91506124cf82612490565b602082019050919050565b5f6020820190508181035f8301526124f1816124b8565b905091905056fea2646970667358221220be49c596777fda0c2fbefe139282cfb397172c1f19f9ae213252231e9b5fe78c64736f6c634300081e0033",
					"opcodes": "PUSH1 0x80 PUSH1 0x40 MSTORE CALLVALUE DUP1 ISZERO PUSH2 0xF JUMPI PUSH0 PUSH0 REVERT JUMPDEST POP CALLER PUSH1 0x1 PUSH0 DUP2 SWAP1 SSTORE POP PUSH0 PUSH20 0xFFFFFFFFFFFFFFFFFFFFFFFFFFFFFFFFFFFFFFFF AND DUP2 PUSH20 0xFFFFFFFFFFFFFFFFFFFFFFFFFFFFFFFFFFFFFFFF AND SUB PUSH2 0x88 JUMPI PUSH0 PUSH1 0x40 MLOAD PUSH32 0x1E4FBDF700000000000000000000000000000000000000000000000000000000 DUP2 MSTORE PUSH1 0x4 ADD PUSH2 0x7F SWAP2 SWAP1 PUSH2 0x19F JUMP JUMPDEST PUSH1 0x40 MLOAD DUP1 SWAP2 SUB SWAP1 REVERT JUMPDEST PUSH2 0x97 DUP2 PUSH2 0x9D PUSH1 0x20 SHL PUSH1 0x20 SHR JUMP JUMPDEST POP PUSH2 0x1B8 JUMP JUMPDEST PUSH0 PUSH1 0x1 PUSH0 SWAP1 SLOAD SWAP1 PUSH2 0x100 EXP SWAP1 DIV PUSH20 0xFFFFFFFFFFFFFFFFFFFFFFFFFFFFFFFFFFFFFFFF AND SWAP1 POP DUP2 PUSH1 0x1 PUSH0 PUSH2 0x100 EXP DUP2 SLOAD DUP2 PUSH20 0xFFFFFFFFFFFFFFFFFFFFFFFFFFFFFFFFFFFFFFFF MUL NOT AND SWAP1 DUP4 PUSH20 0xFFFFFFFFFFFFFFFFFFFFFFFFFFFFFFFFFFFFFFFF AND MUL OR SWAP1 SSTORE POP DUP2 PUSH20 0xFFFFFFFFFFFFFFFFFFFFFFFFFFFFFFFFFFFFFFFF AND DUP2 PUSH20 0xFFFFFFFFFFFFFFFFFFFFFFFFFFFFFFFFFFFFFFFF AND PUSH32 0x8BE0079C531659141344CD1FD0A4F28419497F9722A3DAAFE3B4186F6B6457E0 PUSH1 0x40 MLOAD PUSH1 0x40 MLOAD DUP1 SWAP2 SUB SWAP1 LOG3 POP POP JUMP JUMPDEST PUSH0 PUSH20 0xFFFFFFFFFFFFFFFFFFFFFFFFFFFFFFFFFFFFFFFF DUP3 AND SWAP1 POP SWAP2 SWAP1 POP JUMP JUMPDEST PUSH0 PUSH2 0x189 DUP3 PUSH2 0x160 JUMP JUMPDEST SWAP1 POP SWAP2 SWAP1 POP JUMP JUMPDEST PUSH2 0x199 DUP2 PUSH2 0x17F JUMP JUMPDEST DUP3 MSTORE POP POP JUMP JUMPDEST PUSH0 PUSH1 0x20 DUP3 ADD SWAP1 POP PUSH2 0x1B2 PUSH0 DUP4 ADD DUP5 PUSH2 0x190 JUMP JUMPDEST SWAP3 SWAP2 POP POP JUMP JUMPDEST PUSH2 0x252E DUP1 PUSH2 0x1C5 PUSH0 CODECOPY PUSH0 RETURN INVALID PUSH1 0x80 PUSH1 0x40 MSTORE CALLVALUE DUP1 ISZERO PUSH2 0xF JUMPI PUSH0 PUSH0 REVERT JUMPDEST POP PUSH1 0x4 CALLDATASIZE LT PUSH2 0xB2 JUMPI PUSH0 CALLDATALOAD PUSH1 0xE0 SHR DUP1 PUSH4 0x8DA5CB5B GT PUSH2 0x6F JUMPI DUP1 PUSH4 0x8DA5CB5B EQ PUSH2 0x188 JUMPI DUP1 PUSH4 0x9E281A98 EQ PUSH2 0x1A6 JUMPI DUP1 PUSH4 0xA451F602 EQ PUSH2 0x1C2 JUMPI DUP1 PUSH4 0xE3F2804F EQ PUSH2 0x1DE JUMPI DUP1 PUSH4 0xED4AA7C0 EQ PUSH2 0x20E JUMPI DUP1 PUSH4 0xF2FDE38B EQ PUSH2 0x23E JUMPI PUSH2 0xB2 JUMP JUMPDEST DUP1 PUSH4 0x49B266A EQ PUSH2 0xB6 JUMPI DUP1 PUSH4 0x4C2320B EQ PUSH2 0xD2 JUMPI DUP1 PUSH4 0x17456E56 EQ PUSH2 0x102 JUMPI DUP1 PUSH4 0x31DD8EB8 EQ PUSH2 0x11E JUMPI DUP1 PUSH4 0x577A9FC5 EQ PUSH2 0x14E JUMPI DUP1 PUSH4 0x715018A6 EQ PUSH2 0x17E JUMPI JUMPDEST PUSH0 PUSH0 REVERT JUMPDEST PUSH2 0xD0 PUSH1 0x4 DUP1 CALLDATASIZE SUB DUP2 ADD SWAP1 PUSH2 0xCB SWAP2 SWAP1 PUSH2 0x1633 JUMP JUMPDEST PUSH2 0x25A JUMP JUMPDEST STOP JUMPDEST PUSH2 0xEC PUSH1 0x4 DUP1 CALLDATASIZE SUB DUP2 ADD SWAP1 PUSH2 0xE7 SWAP2 SWAP1 PUSH2 0x16BB JUMP JUMPDEST PUSH2 0x4DF JUMP JUMPDEST PUSH1 0x40 MLOAD PUSH2 0xF9 SWAP2 SWAP1 PUSH2 0x177C JUMP JUMPDEST PUSH1 0x40 MLOAD DUP1 SWAP2 SUB SWAP1 RETURN JUMPDEST PUSH2 0x11C PUSH1 0x4 DUP1 CALLDATASIZE SUB DUP2 ADD SWAP1 PUSH2 0x117 SWAP2 SWAP1 PUSH2 0x17D0 JUMP JUMPDEST PUSH2 0x527 JUMP JUMPDEST STOP JUMPDEST PUSH2 0x138 PUSH1 0x4 DUP1 CALLDATASIZE SUB DUP2 ADD SWAP1 PUSH2 0x133 SWAP2 SWAP1 PUSH2 0x182A JUMP JUMPDEST PUSH2 0x636 JUMP JUMPDEST PUSH1 0x40 MLOAD PUSH2 0x145 SWAP2 SWAP1 PUSH2 0x18B8 JUMP JUMPDEST PUSH1 0x40 MLOAD DUP1 SWAP2 SUB SWAP1 RETURN JUMPDEST PUSH2 0x168 PUSH1 0x4 DUP1 CALLDATASIZE SUB DUP2 ADD SWAP1 PUSH2 0x163 SWAP2 SWAP1 PUSH2 0x18FB JUMP JUMPDEST PUSH2 0x668 JUMP JUMPDEST PUSH1 0x40 MLOAD PUSH2 0x175 SWAP2 SWAP1 PUSH2 0x1935 JUMP JUMPDEST PUSH1 0x40 MLOAD DUP1 SWAP2 SUB SWAP1 RETURN JUMPDEST PUSH2 0x186 PUSH2 0x67D JUMP JUMPDEST STOP JUMPDEST PUSH2 0x190 PUSH2 0x690 JUMP JUMPDEST PUSH1 0x40 MLOAD PUSH2 0x19D SWAP2 SWAP1 PUSH2 0x195D JUMP JUMPDEST PUSH1 0x40 MLOAD DUP1 SWAP2 SUB SWAP1 RETURN JUMPDEST PUSH2 0x1C0 PUSH1 0x4 DUP1 CALLDATASIZE SUB DUP2 ADD SWAP1 PUSH2 0x1BB SWAP2 SWAP1 PUSH2 0x1976 JUMP JUMPDEST PUSH2 0x6B8 JUMP JUMPDEST STOP JUMPDEST PUSH2 0x1DC PUSH1 0x4 DUP1 CALLDATASIZE SUB DUP2 ADD SWAP1 PUSH2 0x1D7 SWAP2 SWAP1 PUSH2 0x1633 JUMP JUMPDEST PUSH2 0x7C7 JUMP JUMPDEST STOP JUMPDEST PUSH2 0x1F8 PUSH1 0x4 DUP1 CALLDATASIZE SUB DUP2 ADD SWAP1 PUSH2 0x1F3 SWAP2 SWAP1 PUSH2 0x182A JUMP JUMPDEST PUSH2 0xE96 JUMP JUMPDEST PUSH1 0x40 MLOAD PUSH2 0x205 SWAP2 SWAP1 PUSH2 0x1935 JUMP JUMPDEST PUSH1 0x40 MLOAD DUP1 SWAP2 SUB SWAP1 RETURN JUMPDEST PUSH2 0x228 PUSH1 0x4 DUP1 CALLDATASIZE SUB DUP2 ADD SWAP1 PUSH2 0x223 SWAP2 SWAP1 PUSH2 0x1633 JUMP JUMPDEST PUSH2 0xED9 JUMP JUMPDEST PUSH1 0x40 MLOAD PUSH2 0x235 SWAP2 SWAP1 PUSH2 0x1935 JUMP JUMPDEST PUSH1 0x40 MLOAD DUP1 SWAP2 SUB SWAP1 RETURN JUMPDEST PUSH2 0x258 PUSH1 0x4 DUP1 CALLDATASIZE SUB DUP2 ADD SWAP1 PUSH2 0x253 SWAP2 SWAP1 PUSH2 0x19B4 JUMP JUMPDEST PUSH2 0x1288 JUMP JUMPDEST STOP JUMPDEST PUSH2 0x262 PUSH2 0x130C JUMP JUMPDEST PUSH0 PUSH20 0xFFFFFFFFFFFFFFFFFFFFFFFFFFFFFFFFFFFFFFFF AND PUSH1 0x2 DUP5 PUSH1 0x40 MLOAD PUSH2 0x289 SWAP2 SWAP1 PUSH2 0x1A31 JUMP JUMPDEST SWAP1 DUP2 MSTORE PUSH1 0x20 ADD PUSH1 0x40 MLOAD DUP1 SWAP2 SUB SWAP1 KECCAK256 PUSH0 SWAP1 SLOAD SWAP1 PUSH2 0x100 EXP SWAP1 DIV PUSH20 0xFFFFFFFFFFFFFFFFFFFFFFFFFFFFFFFFFFFFFFFF AND PUSH20 0xFFFFFFFFFFFFFFFFFFFFFFFFFFFFFFFFFFFFFFFF AND SUB PUSH2 0x30D JUMPI PUSH1 0x40 MLOAD PUSH32 0x8C379A000000000000000000000000000000000000000000000000000000000 DUP2 MSTORE PUSH1 0x4 ADD PUSH2 0x304 SWAP1 PUSH2 0x1AA1 JUMP JUMPDEST PUSH1 0x40 MLOAD DUP1 SWAP2 SUB SWAP1 REVERT JUMPDEST PUSH0 PUSH20 0xFFFFFFFFFFFFFFFFFFFFFFFFFFFFFFFFFFFFFFFF AND PUSH1 0x2 DUP4 PUSH1 0x40 MLOAD PUSH2 0x334 SWAP2 SWAP1 PUSH2 0x1A31 JUMP JUMPDEST SWAP1 DUP2 MSTORE PUSH1 0x20 ADD PUSH1 0x40 MLOAD DUP1 SWAP2 SUB SWAP1 KECCAK256 PUSH0 SWAP1 SLOAD SWAP1 PUSH2 0x100 EXP SWAP1 DIV PUSH20 0xFFFFFFFFFFFFFFFFFFFFFFFFFFFFFFFFFFFFFFFF AND PUSH20 0xFFFFFFFFFFFFFFFFFFFFFFFFFFFFFFFFFFFFFFFF AND SUB PUSH2 0x3B8 JUMPI PUSH1 0x40 MLOAD PUSH32 0x8C379A000000000000000000000000000000000000000000000000000000000 DUP2 MSTORE PUSH1 0x4 ADD PUSH2 0x3AF SWAP1 PUSH2 0x1B09 JUMP JUMPDEST PUSH1 0x40 MLOAD DUP1 SWAP2 SUB SWAP1 REVERT JUMPDEST PUSH0 DUP2 GT PUSH2 0x3FA JUMPI PUSH1 0x40 MLOAD PUSH32 0x8C379A000000000000000000000000000000000000000000000000000000000 DUP2 MSTORE PUSH1 0x4 ADD PUSH2 0x3F1 SWAP1 PUSH2 0x1B71 JUMP JUMPDEST PUSH1 0x40 MLOAD DUP1 SWAP2 SUB SWAP1 REVERT JUMPDEST PUSH0 DUP4 DUP4 PUSH1 0x40 MLOAD PUSH1 0x20 ADD PUSH2 0x40E SWAP3 SWAP2 SWAP1 PUSH2 0x1B8F JUMP JUMPDEST PUSH1 0x40 MLOAD PUSH1 0x20 DUP2 DUP4 SUB SUB DUP2 MSTORE SWAP1 PUSH1 0x40 MSTORE DUP1 MLOAD SWAP1 PUSH1 0x20 ADD KECCAK256 SWAP1 POP PUSH0 DUP4 DUP6 PUSH1 0x40 MLOAD PUSH1 0x20 ADD PUSH2 0x43A SWAP3 SWAP2 SWAP1 PUSH2 0x1B8F JUMP JUMPDEST PUSH1 0x40 MLOAD PUSH1 0x20 DUP2 DUP4 SUB SUB DUP2 MSTORE SWAP1 PUSH1 0x40 MSTORE DUP1 MLOAD SWAP1 PUSH1 0x20 ADD KECCAK256 SWAP1 POP DUP3 PUSH1 0x3 PUSH0 DUP5 DUP2 MSTORE PUSH1 0x20 ADD SWAP1 DUP2 MSTORE PUSH1 0x20 ADD PUSH0 KECCAK256 DUP2 SWAP1 SSTORE POP PUSH0 DUP4 PUSH15 0xC097CE7BC90715B34B9F1000000000 PUSH2 0x484 SWAP2 SWAP1 PUSH2 0x1C0C JUMP JUMPDEST SWAP1 POP DUP1 PUSH1 0x3 PUSH0 DUP5 DUP2 MSTORE PUSH1 0x20 ADD SWAP1 DUP2 MSTORE PUSH1 0x20 ADD PUSH0 KECCAK256 DUP2 SWAP1 SSTORE POP PUSH32 0xE48292E51FB907BCEF0D684CBB93BF1474D076470529CD1B21C6343CEC6CE834 DUP7 DUP7 DUP7 PUSH1 0x40 MLOAD PUSH2 0x4CF SWAP4 SWAP3 SWAP2 SWAP1 PUSH2 0x1C74 JUMP JUMPDEST PUSH1 0x40 MLOAD DUP1 SWAP2 SUB SWAP1 LOG1 POP POP POP POP POP POP JUMP JUMPDEST PUSH1 0x2 DUP2 DUP1 MLOAD PUSH1 0x20 DUP2 ADD DUP3 ADD DUP1 MLOAD DUP5 DUP3 MSTORE PUSH1 0x20 DUP4 ADD PUSH1 0x20 DUP6 ADD KECCAK256 DUP2 DUP4 MSTORE DUP1 SWAP6 POP POP POP POP POP POP PUSH0 SWAP2 POP SLOAD SWAP1 PUSH2 0x100 EXP SWAP1 DIV PUSH20 0xFFFFFFFFFFFFFFFFFFFFFFFFFFFFFFFFFFFFFFFF AND DUP2 JUMP JUMPDEST PUSH2 0x52F PUSH2 0x130C JUMP JUMPDEST PUSH0 PUSH20 0xFFFFFFFFFFFFFFFFFFFFFFFFFFFFFFFFFFFFFFFF AND DUP2 PUSH20 0xFFFFFFFFFFFFFFFFFFFFFFFFFFFFFFFFFFFFFFFF AND SUB PUSH2 0x59D JUMPI PUSH1 0x40 MLOAD PUSH32 0x8C379A000000000000000000000000000000000000000000000000000000000 DUP2 MSTORE PUSH1 0x4 ADD PUSH2 0x594 SWAP1 PUSH2 0x1D01 JUMP JUMPDEST PUSH1 0x40 MLOAD DUP1 SWAP2 SUB SWAP1 REVERT JUMPDEST DUP1 PUSH1 0x2 DUP4 PUSH1 0x40 MLOAD PUSH2 0x5AE SWAP2 SWAP1 PUSH2 0x1A31 JUMP JUMPDEST SWAP1 DUP2 MSTORE PUSH1 0x20 ADD PUSH1 0x40 MLOAD DUP1 SWAP2 SUB SWAP1 KECCAK256 PUSH0 PUSH2 0x100 EXP DUP2 SLOAD DUP2 PUSH20 0xFFFFFFFFFFFFFFFFFFFFFFFFFFFFFFFFFFFFFFFF MUL NOT AND SWAP1 DUP4 PUSH20 0xFFFFFFFFFFFFFFFFFFFFFFFFFFFFFFFFFFFFFFFF AND MUL OR SWAP1 SSTORE POP PUSH32 0xBD6274CD0BF2CE8EBD481E327380948C4B7CF552504560E4D0C892184CE28A5 DUP3 DUP3 PUSH1 0x40 MLOAD PUSH2 0x62A SWAP3 SWAP2 SWAP1 PUSH2 0x1D1F JUMP JUMPDEST PUSH1 0x40 MLOAD DUP1 SWAP2 SUB SWAP1 LOG1 POP POP JUMP JUMPDEST PUSH0 DUP3 DUP3 PUSH1 0x40 MLOAD PUSH1 0x20 ADD PUSH2 0x64A SWAP3 SWAP2 SWAP1 PUSH2 0x1B8F JUMP JUMPDEST PUSH1 0x40 MLOAD PUSH1 0x20 DUP2 DUP4 SUB SUB DUP2 MSTORE SWAP1 PUSH1 0x40 MSTORE DUP1 MLOAD SWAP1 PUSH1 0x20 ADD KECCAK256 SWAP1 POP SWAP3 SWAP2 POP POP JUMP JUMPDEST PUSH1 0x3 PUSH1 0x20 MSTORE DUP1 PUSH0 MSTORE PUSH1 0x40 PUSH0 KECCAK256 PUSH0 SWAP2 POP SWAP1 POP SLOAD DUP2 JUMP JUMPDEST PUSH2 0x685 PUSH2 0x130C JUMP JUMPDEST PUSH2 0x68E PUSH0 PUSH2 0x1393 JUMP JUMPDEST JUMP JUMPDEST PUSH0 PUSH1 0x1 PUSH0 SWAP1 SLOAD SWAP1 PUSH2 0x100 EXP SWAP1 DIV PUSH20 0xFFFFFFFFFFFFFFFFFFFFFFFFFFFFFFFFFFFFFFFF AND SWAP1 POP SWAP1 JUMP JUMPDEST PUSH2 0x6C0 PUSH2 0x130C JUMP JUMPDEST PUSH2 0x6C8 PUSH2 0x1456 JUMP JUMPDEST DUP2 PUSH20 0xFFFFFFFFFFFFFFFFFFFFFFFFFFFFFFFFFFFFFFFF AND PUSH4 0xA9059CBB CALLER DUP4 PUSH1 0x40 MLOAD DUP4 PUSH4 0xFFFFFFFF AND PUSH1 0xE0 SHL DUP2 MSTORE PUSH1 0x4 ADD PUSH2 0x703 SWAP3 SWAP2 SWAP1 PUSH2 0x1D4D JUMP JUMPDEST PUSH1 0x20 PUSH1 0x40 MLOAD DUP1 DUP4 SUB DUP2 PUSH0 DUP8 GAS CALL ISZERO DUP1 ISZERO PUSH2 0x71F JUMPI RETURNDATASIZE PUSH0 PUSH0 RETURNDATACOPY RETURNDATASIZE PUSH0 REVERT JUMPDEST POP POP POP POP PUSH1 0x40 MLOAD RETURNDATASIZE PUSH1 0x1F NOT PUSH1 0x1F DUP3 ADD AND DUP3 ADD DUP1 PUSH1 0x40 MSTORE POP DUP2 ADD SWAP1 PUSH2 0x743 SWAP2 SWAP1 PUSH2 0x1DA9 JUMP JUMPDEST PUSH2 0x782 JUMPI PUSH1 0x40 MLOAD PUSH32 0x8C379A000000000000000000000000000000000000000000000000000000000 DUP2 MSTORE PUSH1 0x4 ADD PUSH2 0x779 SWAP1 PUSH2 0x1E1E JUMP JUMPDEST PUSH1 0x40 MLOAD DUP1 SWAP2 SUB SWAP1 REVERT JUMPDEST PUSH32 0xA2BD9FCFCDBA69F52BCD9A520846AD4BD685B187483F53EFC42D035B2DDEBFF0 DUP3 DUP3 PUSH1 0x40 MLOAD PUSH2 0x7B3 SWAP3 SWAP2 SWAP1 PUSH2 0x1D4D JUMP JUMPDEST PUSH1 0x40 MLOAD DUP1 SWAP2 SUB SWAP1 LOG1 PUSH2 0x7C3 PUSH2 0x14A3 JUMP JUMPDEST POP POP JUMP JUMPDEST PUSH2 0x7CF PUSH2 0x1456 JUMP JUMPDEST PUSH0 DUP2 GT PUSH2 0x811 JUMPI PUSH1 0x40 MLOAD PUSH32 0x8C379A000000000000000000000000000000000000000000000000000000000 DUP2 MSTORE PUSH1 0x4 ADD PUSH2 0x808 SWAP1 PUSH2 0x1E86 JUMP JUMPDEST PUSH1 0x40 MLOAD DUP1 SWAP2 SUB SWAP1 REVERT JUMPDEST DUP2 DUP1 MLOAD SWAP1 PUSH1 0x20 ADD KECCAK256 DUP4 DUP1 MLOAD SWAP1 PUSH1 0x20 ADD KECCAK256 SUB PUSH2 0x861 JUMPI PUSH1 0x40 MLOAD PUSH32 0x8C379A000000000000000000000000000000000000000000000000000000000 DUP2 MSTORE PUSH1 0x4 ADD PUSH2 0x858 SWAP1 PUSH2 0x1EEE JUMP JUMPDEST PUSH1 0x40 MLOAD DUP1 SWAP2 SUB SWAP1 REVERT JUMPDEST PUSH0 PUSH1 0x2 DUP5 PUSH1 0x40 MLOAD PUSH2 0x872 SWAP2 SWAP1 PUSH2 0x1A31 JUMP JUMPDEST SWAP1 DUP2 MSTORE PUSH1 0x20 ADD PUSH1 0x40 MLOAD DUP1 SWAP2 SUB SWAP1 KECCAK256 PUSH0 SWAP1 SLOAD SWAP1 PUSH2 0x100 EXP SWAP1 DIV PUSH20 0xFFFFFFFFFFFFFFFFFFFFFFFFFFFFFFFFFFFFFFFF AND SWAP1 POP PUSH0 PUSH1 0x2 DUP5 PUSH1 0x40 MLOAD PUSH2 0x8B3 SWAP2 SWAP1 PUSH2 0x1A31 JUMP JUMPDEST SWAP1 DUP2 MSTORE PUSH1 0x20 ADD PUSH1 0x40 MLOAD DUP1 SWAP2 SUB SWAP1 KECCAK256 PUSH0 SWAP1 SLOAD SWAP1 PUSH2 0x100 EXP SWAP1 DIV PUSH20 0xFFFFFFFFFFFFFFFFFFFFFFFFFFFFFFFFFFFFFFFF AND SWAP1 POP PUSH0 PUSH20 0xFFFFFFFFFFFFFFFFFFFFFFFFFFFFFFFFFFFFFFFF AND DUP3 PUSH20 0xFFFFFFFFFFFFFFFFFFFFFFFFFFFFFFFFFFFFFFFF AND SUB PUSH2 0x951 JUMPI PUSH1 0x40 MLOAD PUSH32 0x8C379A000000000000000000000000000000000000000000000000000000000 DUP2 MSTORE PUSH1 0x4 ADD PUSH2 0x948 SWAP1 PUSH2 0x1F56 JUMP JUMPDEST PUSH1 0x40 MLOAD DUP1 SWAP2 SUB SWAP1 REVERT JUMPDEST PUSH0 PUSH20 0xFFFFFFFFFFFFFFFFFFFFFFFFFFFFFFFFFFFFFFFF AND DUP2 PUSH20 0xFFFFFFFFFFFFFFFFFFFFFFFFFFFFFFFFFFFFFFFF AND SUB PUSH2 0x9BF JUMPI PUSH1 0x40 MLOAD PUSH32 0x8C379A000000000000000000000000000000000000000000000000000000000 DUP2 MSTORE PUSH1 0x4 ADD PUSH2 0x9B6 SWAP1 PUSH2 0x1FBE JUMP JUMPDEST PUSH1 0x40 MLOAD DUP1 SWAP2 SUB SWAP1 REVERT JUMPDEST PUSH0 DUP3 PUSH20 0xFFFFFFFFFFFFFFFFFFFFFFFFFFFFFFFFFFFFFFFF AND PUSH4 0x313CE567 PUSH1 0x40 MLOAD DUP2 PUSH4 0xFFFFFFFF AND PUSH1 0xE0 SHL DUP2 MSTORE PUSH1 0x4 ADD PUSH1 0x20 PUSH1 0x40 MLOAD DUP1 DUP4 SUB DUP2 DUP7 GAS STATICCALL ISZERO DUP1 ISZERO PUSH2 0xA09 JUMPI RETURNDATASIZE PUSH0 PUSH0 RETURNDATACOPY RETURNDATASIZE PUSH0 REVERT JUMPDEST POP POP POP POP PUSH1 0x40 MLOAD RETURNDATASIZE PUSH1 0x1F NOT PUSH1 0x1F DUP3 ADD AND DUP3 ADD DUP1 PUSH1 0x40 MSTORE POP DUP2 ADD SWAP1 PUSH2 0xA2D SWAP2 SWAP1 PUSH2 0x2012 JUMP JUMPDEST SWAP1 POP PUSH0 DUP3 PUSH20 0xFFFFFFFFFFFFFFFFFFFFFFFFFFFFFFFFFFFFFFFF AND PUSH4 0x313CE567 PUSH1 0x40 MLOAD DUP2 PUSH4 0xFFFFFFFF AND PUSH1 0xE0 SHL DUP2 MSTORE PUSH1 0x4 ADD PUSH1 0x20 PUSH1 0x40 MLOAD DUP1 DUP4 SUB DUP2 DUP7 GAS STATICCALL ISZERO DUP1 ISZERO PUSH2 0xA79 JUMPI RETURNDATASIZE PUSH0 PUSH0 RETURNDATACOPY RETURNDATASIZE PUSH0 REVERT JUMPDEST POP POP POP POP PUSH1 0x40 MLOAD RETURNDATASIZE PUSH1 0x1F NOT PUSH1 0x1F DUP3 ADD AND DUP3 ADD DUP1 PUSH1 0x40 MSTORE POP DUP2 ADD SWAP1 PUSH2 0xA9D SWAP2 SWAP1 PUSH2 0x2012 JUMP JUMPDEST SWAP1 POP PUSH0 DUP8 DUP8 PUSH1 0x40 MLOAD PUSH1 0x20 ADD PUSH2 0xAB3 SWAP3 SWAP2 SWAP1 PUSH2 0x1B8F JUMP JUMPDEST PUSH1 0x40 MLOAD PUSH1 0x20 DUP2 DUP4 SUB SUB DUP2 MSTORE SWAP1 PUSH1 0x40 MSTORE DUP1 MLOAD SWAP1 PUSH1 0x20 ADD KECCAK256 SWAP1 POP PUSH0 PUSH1 0x3 PUSH0 DUP4 DUP2 MSTORE PUSH1 0x20 ADD SWAP1 DUP2 MSTORE PUSH1 0x20 ADD PUSH0 KECCAK256 SLOAD SWAP1 POP PUSH0 DUP2 GT PUSH2 0xB22 JUMPI PUSH1 0x40 MLOAD PUSH32 0x8C379A000000000000000000000000000000000000000000000000000000000 DUP2 MSTORE PUSH1 0x4 ADD PUSH2 0xB19 SWAP1 PUSH2 0x2087 JUMP JUMPDEST PUSH1 0x40 MLOAD DUP1 SWAP2 SUB SWAP1 REVERT JUMPDEST PUSH0 PUSH1 0x12 DUP6 PUSH1 0xFF AND LT PUSH2 0xB57 JUMPI PUSH1 0x12 DUP6 PUSH2 0xB3B SWAP2 SWAP1 PUSH2 0x20A5 JUMP JUMPDEST PUSH1 0xA PUSH2 0xB47 SWAP2 SWAP1 PUSH2 0x2208 JUMP JUMPDEST DUP9 PUSH2 0xB52 SWAP2 SWAP1 PUSH2 0x1C0C JUMP JUMPDEST PUSH2 0xB7C JUMP JUMPDEST DUP5 PUSH1 0x12 PUSH2 0xB64 SWAP2 SWAP1 PUSH2 0x20A5 JUMP JUMPDEST PUSH1 0xA PUSH2 0xB70 SWAP2 SWAP1 PUSH2 0x2208 JUMP JUMPDEST DUP9 PUSH2 0xB7B SWAP2 SWAP1 PUSH2 0x2252 JUMP JUMPDEST JUMPDEST SWAP1 POP PUSH0 PUSH8 0xDE0B6B3A7640000 DUP4 DUP4 PUSH2 0xB94 SWAP2 SWAP1 PUSH2 0x2252 JUMP JUMPDEST PUSH2 0xB9E SWAP2 SWAP1 PUSH2 0x1C0C JUMP JUMPDEST SWAP1 POP PUSH0 PUSH1 0x12 DUP7 PUSH1 0xFF AND LT PUSH2 0xBD5 JUMPI PUSH1 0x12 DUP7 PUSH2 0xBB9 SWAP2 SWAP1 PUSH2 0x20A5 JUMP JUMPDEST PUSH1 0xA PUSH2 0xBC5 SWAP2 SWAP1 PUSH2 0x2208 JUMP JUMPDEST DUP3 PUSH2 0xBD0 SWAP2 SWAP1 PUSH2 0x2252 JUMP JUMPDEST PUSH2 0xBFA JUMP JUMPDEST DUP6 PUSH1 0x12 PUSH2 0xBE2 SWAP2 SWAP1 PUSH2 0x20A5 JUMP JUMPDEST PUSH1 0xA PUSH2 0xBEE SWAP2 SWAP1 PUSH2 0x2208 JUMP JUMPDEST DUP3 PUSH2 0xBF9 SWAP2 SWAP1 PUSH2 0x1C0C JUMP JUMPDEST JUMPDEST SWAP1 POP DUP1 DUP9 PUSH20 0xFFFFFFFFFFFFFFFFFFFFFFFFFFFFFFFFFFFFFFFF AND PUSH4 0x70A08231 ADDRESS PUSH1 0x40 MLOAD DUP3 PUSH4 0xFFFFFFFF AND PUSH1 0xE0 SHL DUP2 MSTORE PUSH1 0x4 ADD PUSH2 0xC36 SWAP2 SWAP1 PUSH2 0x195D JUMP JUMPDEST PUSH1 0x20 PUSH1 0x40 MLOAD DUP1 DUP4 SUB DUP2 DUP7 GAS STATICCALL ISZERO DUP1 ISZERO PUSH2 0xC51 JUMPI RETURNDATASIZE PUSH0 PUSH0 RETURNDATACOPY RETURNDATASIZE PUSH0 REVERT JUMPDEST POP POP POP POP PUSH1 0x40 MLOAD RETURNDATASIZE PUSH1 0x1F NOT PUSH1 0x1F DUP3 ADD AND DUP3 ADD DUP1 PUSH1 0x40 MSTORE POP DUP2 ADD SWAP1 PUSH2 0xC75 SWAP2 SWAP1 PUSH2 0x22A7 JUMP JUMPDEST LT ISZERO PUSH2 0xCB6 JUMPI PUSH1 0x40 MLOAD PUSH32 0x8C379A000000000000000000000000000000000000000000000000000000000 DUP2 MSTORE PUSH1 0x4 ADD PUSH2 0xCAD SWAP1 PUSH2 0x231C JUMP JUMPDEST PUSH1 0x40 MLOAD DUP1 SWAP2 SUB SWAP1 REVERT JUMPDEST DUP9 PUSH20 0xFFFFFFFFFFFFFFFFFFFFFFFFFFFFFFFFFFFFFFFF AND PUSH4 0x23B872DD CALLER ADDRESS DUP14 PUSH1 0x40 MLOAD DUP5 PUSH4 0xFFFFFFFF AND PUSH1 0xE0 SHL DUP2 MSTORE PUSH1 0x4 ADD PUSH2 0xCF3 SWAP4 SWAP3 SWAP2 SWAP1 PUSH2 0x233A JUMP JUMPDEST PUSH1 0x20 PUSH1 0x40 MLOAD DUP1 DUP4 SUB DUP2 PUSH0 DUP8 GAS CALL ISZERO DUP1 ISZERO PUSH2 0xD0F JUMPI RETURNDATASIZE PUSH0 PUSH0 RETURNDATACOPY RETURNDATASIZE PUSH0 REVERT JUMPDEST POP POP POP POP PUSH1 0x40 MLOAD RETURNDATASIZE PUSH1 0x1F NOT PUSH1 0x1F DUP3 ADD AND DUP3 ADD DUP1 PUSH1 0x40 MSTORE POP DUP2 ADD SWAP1 PUSH2 0xD33 SWAP2 SWAP1 PUSH2 0x1DA9 JUMP JUMPDEST PUSH2 0xD72 JUMPI PUSH1 0x40 MLOAD PUSH32 0x8C379A000000000000000000000000000000000000000000000000000000000 DUP2 MSTORE PUSH1 0x4 ADD PUSH2 0xD69 SWAP1 PUSH2 0x23B9 JUMP JUMPDEST PUSH1 0x40 MLOAD DUP1 SWAP2 SUB SWAP1 REVERT JUMPDEST DUP8 PUSH20 0xFFFFFFFFFFFFFFFFFFFFFFFFFFFFFFFFFFFFFFFF AND PUSH4 0xA9059CBB CALLER DUP4 PUSH1 0x40 MLOAD DUP4 PUSH4 0xFFFFFFFF AND PUSH1 0xE0 SHL DUP2 MSTORE PUSH1 0x4 ADD PUSH2 0xDAD SWAP3 SWAP2 SWAP1 PUSH2 0x1D4D JUMP JUMPDEST PUSH1 0x20 PUSH1 0x40 MLOAD DUP1 DUP4 SUB DUP2 PUSH0 DUP8 GAS CALL ISZERO DUP1 ISZERO PUSH2 0xDC9 JUMPI RETURNDATASIZE PUSH0 PUSH0 RETURNDATACOPY RETURNDATASIZE PUSH0 REVERT JUMPDEST POP POP POP POP PUSH1 0x40 MLOAD RETURNDATASIZE PUSH1 0x1F NOT PUSH1 0x1F DUP3 ADD AND DUP3 ADD DUP1 PUSH1 0x40 MSTORE POP DUP2 ADD SWAP1 PUSH2 0xDED SWAP2 SWAP1 PUSH2 0x1DA9 JUMP JUMPDEST PUSH2 0xE2C JUMPI PUSH1 0x40 MLOAD PUSH32 0x8C379A000000000000000000000000000000000000000000000000000000000 DUP2 MSTORE PUSH1 0x4 ADD PUSH2 0xE23 SWAP1 PUSH2 0x2421 JUMP JUMPDEST PUSH1 0x40 MLOAD DUP1 SWAP2 SUB SWAP1 REVERT JUMPDEST CALLER PUSH20 0xFFFFFFFFFFFFFFFFFFFFFFFFFFFFFFFFFFFFFFFF AND PUSH32 0x75F42F47C3C6E52E062026C25F2A121ABF88C6A283055EAFACE63720AC0A9999 DUP14 DUP14 DUP14 DUP6 PUSH1 0x40 MLOAD PUSH2 0xE78 SWAP5 SWAP4 SWAP3 SWAP2 SWAP1 PUSH2 0x243F JUMP JUMPDEST PUSH1 0x40 MLOAD DUP1 SWAP2 SUB SWAP1 LOG2 POP POP POP POP POP POP POP POP POP PUSH2 0xE91 PUSH2 0x14A3 JUMP JUMPDEST POP POP POP JUMP JUMPDEST PUSH0 PUSH1 0x3 PUSH0 DUP5 DUP5 PUSH1 0x40 MLOAD PUSH1 0x20 ADD PUSH2 0xEAD SWAP3 SWAP2 SWAP1 PUSH2 0x1B8F JUMP JUMPDEST PUSH1 0x40 MLOAD PUSH1 0x20 DUP2 DUP4 SUB SUB DUP2 MSTORE SWAP1 PUSH1 0x40 MSTORE DUP1 MLOAD SWAP1 PUSH1 0x20 ADD KECCAK256 DUP2 MSTORE PUSH1 0x20 ADD SWAP1 DUP2 MSTORE PUSH1 0x20 ADD PUSH0 KECCAK256 SLOAD SWAP1 POP SWAP3 SWAP2 POP POP JUMP JUMPDEST PUSH0 PUSH0 PUSH1 0x2 DUP6 PUSH1 0x40 MLOAD PUSH2 0xEEB SWAP2 SWAP1 PUSH2 0x1A31 JUMP JUMPDEST SWAP1 DUP2 MSTORE PUSH1 0x20 ADD PUSH1 0x40 MLOAD DUP1 SWAP2 SUB SWAP1 KECCAK256 PUSH0 SWAP1 SLOAD SWAP1 PUSH2 0x100 EXP SWAP1 DIV PUSH20 0xFFFFFFFFFFFFFFFFFFFFFFFFFFFFFFFFFFFFFFFF AND SWAP1 POP PUSH0 PUSH1 0x2 DUP6 PUSH1 0x40 MLOAD PUSH2 0xF2C SWAP2 SWAP1 PUSH2 0x1A31 JUMP JUMPDEST SWAP1 DUP2 MSTORE PUSH1 0x20 ADD PUSH1 0x40 MLOAD DUP1 SWAP2 SUB SWAP1 KECCAK256 PUSH0 SWAP1 SLOAD SWAP1 PUSH2 0x100 EXP SWAP1 DIV PUSH20 0xFFFFFFFFFFFFFFFFFFFFFFFFFFFFFFFFFFFFFFFF AND SWAP1 POP PUSH0 PUSH20 0xFFFFFFFFFFFFFFFFFFFFFFFFFFFFFFFFFFFFFFFF AND DUP3 PUSH20 0xFFFFFFFFFFFFFFFFFFFFFFFFFFFFFFFFFFFFFFFF AND SUB PUSH2 0xFCA JUMPI PUSH1 0x40 MLOAD PUSH32 0x8C379A000000000000000000000000000000000000000000000000000000000 DUP2 MSTORE PUSH1 0x4 ADD PUSH2 0xFC1 SWAP1 PUSH2 0x1F56 JUMP JUMPDEST PUSH1 0x40 MLOAD DUP1 SWAP2 SUB SWAP1 REVERT JUMPDEST PUSH0 PUSH20 0xFFFFFFFFFFFFFFFFFFFFFFFFFFFFFFFFFFFFFFFF AND DUP2 PUSH20 0xFFFFFFFFFFFFFFFFFFFFFFFFFFFFFFFFFFFFFFFF AND SUB PUSH2 0x1038 JUMPI PUSH1 0x40 MLOAD PUSH32 0x8C379A000000000000000000000000000000000000000000000000000000000 DUP2 MSTORE PUSH1 0x4 ADD PUSH2 0x102F SWAP1 PUSH2 0x1FBE JUMP JUMPDEST PUSH1 0x40 MLOAD DUP1 SWAP2 SUB SWAP1 REVERT JUMPDEST PUSH0 DUP3 PUSH20 0xFFFFFFFFFFFFFFFFFFFFFFFFFFFFFFFFFFFFFFFF AND PUSH4 0x313CE567 PUSH1 0x40 MLOAD DUP2 PUSH4 0xFFFFFFFF AND PUSH1 0xE0 SHL DUP2 MSTORE PUSH1 0x4 ADD PUSH1 0x20 PUSH1 0x40 MLOAD DUP1 DUP4 SUB DUP2 DUP7 GAS STATICCALL ISZERO DUP1 ISZERO PUSH2 0x1082 JUMPI RETURNDATASIZE PUSH0 PUSH0 RETURNDATACOPY RETURNDATASIZE PUSH0 REVERT JUMPDEST POP POP POP POP PUSH1 0x40 MLOAD RETURNDATASIZE PUSH1 0x1F NOT PUSH1 0x1F DUP3 ADD AND DUP3 ADD DUP1 PUSH1 0x40 MSTORE POP DUP2 ADD SWAP1 PUSH2 0x10A6 SWAP2 SWAP1 PUSH2 0x2012 JUMP JUMPDEST SWAP1 POP PUSH0 DUP3 PUSH20 0xFFFFFFFFFFFFFFFFFFFFFFFFFFFFFFFFFFFFFFFF AND PUSH4 0x313CE567 PUSH1 0x40 MLOAD DUP2 PUSH4 0xFFFFFFFF AND PUSH1 0xE0 SHL DUP2 MSTORE PUSH1 0x4 ADD PUSH1 0x20 PUSH1 0x40 MLOAD DUP1 DUP4 SUB DUP2 DUP7 GAS STATICCALL ISZERO DUP1 ISZERO PUSH2 0x10F2 JUMPI RETURNDATASIZE PUSH0 PUSH0 RETURNDATACOPY RETURNDATASIZE PUSH0 REVERT JUMPDEST POP POP POP POP PUSH1 0x40 MLOAD RETURNDATASIZE PUSH1 0x1F NOT PUSH1 0x1F DUP3 ADD AND DUP3 ADD DUP1 PUSH1 0x40 MSTORE POP DUP2 ADD SWAP1 PUSH2 0x1116 SWAP2 SWAP1 PUSH2 0x2012 JUMP JUMPDEST SWAP1 POP PUSH0 DUP9 DUP9 PUSH1 0x40 MLOAD PUSH1 0x20 ADD PUSH2 0x112C SWAP3 SWAP2 SWAP1 PUSH2 0x1B8F JUMP JUMPDEST PUSH1 0x40 MLOAD PUSH1 0x20 DUP2 DUP4 SUB SUB DUP2 MSTORE SWAP1 PUSH1 0x40 MSTORE DUP1 MLOAD SWAP1 PUSH1 0x20 ADD KECCAK256 SWAP1 POP PUSH0 PUSH1 0x3 PUSH0 DUP4 DUP2 MSTORE PUSH1 0x20 ADD SWAP1 DUP2 MSTORE PUSH1 0x20 ADD PUSH0 KECCAK256 SLOAD SWAP1 POP PUSH0 DUP2 GT PUSH2 0x119B JUMPI PUSH1 0x40 MLOAD PUSH32 0x8C379A000000000000000000000000000000000000000000000000000000000 DUP2 MSTORE PUSH1 0x4 ADD PUSH2 0x1192 SWAP1 PUSH2 0x2087 JUMP JUMPDEST PUSH1 0x40 MLOAD DUP1 SWAP2 SUB SWAP1 REVERT JUMPDEST PUSH0 PUSH1 0x12 DUP6 PUSH1 0xFF AND LT PUSH2 0x11D0 JUMPI PUSH1 0x12 DUP6 PUSH2 0x11B4 SWAP2 SWAP1 PUSH2 0x20A5 JUMP JUMPDEST PUSH1 0xA PUSH2 0x11C0 SWAP2 SWAP1 PUSH2 0x2208 JUMP JUMPDEST DUP10 PUSH2 0x11CB SWAP2 SWAP1 PUSH2 0x1C0C JUMP JUMPDEST PUSH2 0x11F5 JUMP JUMPDEST DUP5 PUSH1 0x12 PUSH2 0x11DD SWAP2 SWAP1 PUSH2 0x20A5 JUMP JUMPDEST PUSH1 0xA PUSH2 0x11E9 SWAP2 SWAP1 PUSH2 0x2208 JUMP JUMPDEST DUP10 PUSH2 0x11F4 SWAP2 SWAP1 PUSH2 0x2252 JUMP JUMPDEST JUMPDEST SWAP1 POP PUSH0 PUSH8 0xDE0B6B3A7640000 DUP4 DUP4 PUSH2 0x120D SWAP2 SWAP1 PUSH2 0x2252 JUMP JUMPDEST PUSH2 0x1217 SWAP2 SWAP1 PUSH2 0x1C0C JUMP JUMPDEST SWAP1 POP PUSH0 PUSH1 0x12 DUP7 PUSH1 0xFF AND LT PUSH2 0x124E JUMPI PUSH1 0x12 DUP7 PUSH2 0x1232 SWAP2 SWAP1 PUSH2 0x20A5 JUMP JUMPDEST PUSH1 0xA PUSH2 0x123E SWAP2 SWAP1 PUSH2 0x2208 JUMP JUMPDEST DUP3 PUSH2 0x1249 SWAP2 SWAP1 PUSH2 0x2252 JUMP JUMPDEST PUSH2 0x1273 JUMP JUMPDEST DUP6 PUSH1 0x12 PUSH2 0x125B SWAP2 SWAP1 PUSH2 0x20A5 JUMP JUMPDEST PUSH1 0xA PUSH2 0x1267 SWAP2 SWAP1 PUSH2 0x2208 JUMP JUMPDEST DUP3 PUSH2 0x1272 SWAP2 SWAP1 PUSH2 0x1C0C JUMP JUMPDEST JUMPDEST SWAP1 POP DUP1 SWAP10 POP POP POP POP POP POP POP POP POP POP SWAP4 SWAP3 POP POP POP JUMP JUMPDEST PUSH2 0x1290 PUSH2 0x130C JUMP JUMPDEST PUSH0 PUSH20 0xFFFFFFFFFFFFFFFFFFFFFFFFFFFFFFFFFFFFFFFF AND DUP2 PUSH20 0xFFFFFFFFFFFFFFFFFFFFFFFFFFFFFFFFFFFFFFFF AND SUB PUSH2 0x1300 JUMPI PUSH0 PUSH1 0x40 MLOAD PUSH32 0x1E4FBDF700000000000000000000000000000000000000000000000000000000 DUP2 MSTORE PUSH1 0x4 ADD PUSH2 0x12F7 SWAP2 SWAP1 PUSH2 0x195D JUMP JUMPDEST PUSH1 0x40 MLOAD DUP1 SWAP2 SUB SWAP1 REVERT JUMPDEST PUSH2 0x1309 DUP2 PUSH2 0x1393 JUMP JUMPDEST POP JUMP JUMPDEST PUSH2 0x1314 PUSH2 0x14AC JUMP JUMPDEST PUSH20 0xFFFFFFFFFFFFFFFFFFFFFFFFFFFFFFFFFFFFFFFF AND PUSH2 0x1332 PUSH2 0x690 JUMP JUMPDEST PUSH20 0xFFFFFFFFFFFFFFFFFFFFFFFFFFFFFFFFFFFFFFFF AND EQ PUSH2 0x1391 JUMPI PUSH2 0x1355 PUSH2 0x14AC JUMP JUMPDEST PUSH1 0x40 MLOAD PUSH32 0x118CDAA700000000000000000000000000000000000000000000000000000000 DUP2 MSTORE PUSH1 0x4 ADD PUSH2 0x1388 SWAP2 SWAP1 PUSH2 0x195D JUMP JUMPDEST PUSH1 0x40 MLOAD DUP1 SWAP2 SUB SWAP1 REVERT JUMPDEST JUMP JUMPDEST PUSH0 PUSH1 0x1 PUSH0 SWAP1 SLOAD SWAP1 PUSH2 0x100 EXP SWAP1 DIV PUSH20 0xFFFFFFFFFFFFFFFFFFFFFFFFFFFFFFFFFFFFFFFF AND SWAP1 POP DUP2 PUSH1 0x1 PUSH0 PUSH2 0x100 EXP DUP2 SLOAD DUP2 PUSH20 0xFFFFFFFFFFFFFFFFFFFFFFFFFFFFFFFFFFFFFFFF MUL NOT AND SWAP1 DUP4 PUSH20 0xFFFFFFFFFFFFFFFFFFFFFFFFFFFFFFFFFFFFFFFF AND MUL OR SWAP1 SSTORE POP DUP2 PUSH20 0xFFFFFFFFFFFFFFFFFFFFFFFFFFFFFFFFFFFFFFFF AND DUP2 PUSH20 0xFFFFFFFFFFFFFFFFFFFFFFFFFFFFFFFFFFFFFFFF AND PUSH32 0x8BE0079C531659141344CD1FD0A4F28419497F9722A3DAAFE3B4186F6B6457E0 PUSH1 0x40 MLOAD PUSH1 0x40 MLOAD DUP1 SWAP2 SUB SWAP1 LOG3 POP POP JUMP JUMPDEST PUSH1 0x2 PUSH0 SLOAD SUB PUSH2 0x149A JUMPI PUSH1 0x40 MLOAD PUSH32 0x8C379A000000000000000000000000000000000000000000000000000000000 DUP2 MSTORE PUSH1 0x4 ADD PUSH2 0x1491 SWAP1 PUSH2 0x24DA JUMP JUMPDEST PUSH1 0x40 MLOAD DUP1 SWAP2 SUB SWAP1 REVERT JUMPDEST PUSH1 0x2 PUSH0 DUP2 SWAP1 SSTORE POP JUMP JUMPDEST PUSH1 0x1 PUSH0 DUP2 SWAP1 SSTORE POP JUMP JUMPDEST PUSH0 CALLER SWAP1 POP SWAP1 JUMP JUMPDEST PUSH0 PUSH1 0x40 MLOAD SWAP1 POP SWAP1 JUMP JUMPDEST PUSH0 PUSH0 REVERT JUMPDEST PUSH0 PUSH0 REVERT JUMPDEST PUSH0 PUSH0 REVERT JUMPDEST PUSH0 PUSH0 REVERT JUMPDEST PUSH0 PUSH1 0x1F NOT PUSH1 0x1F DUP4 ADD AND SWAP1 POP SWAP2 SWAP1 POP JUMP JUMPDEST PUSH32 0x4E487B7100000000000000000000000000000000000000000000000000000000 PUSH0 MSTORE PUSH1 0x41 PUSH1 0x4 MSTORE PUSH1 0x24 PUSH0 REVERT JUMPDEST PUSH2 0x1512 DUP3 PUSH2 0x14CC JUMP JUMPDEST DUP2 ADD DUP2 DUP2 LT PUSH8 0xFFFFFFFFFFFFFFFF DUP3 GT OR ISZERO PUSH2 0x1531 JUMPI PUSH2 0x1530 PUSH2 0x14DC JUMP JUMPDEST JUMPDEST DUP1 PUSH1 0x40 MSTORE POP POP POP JUMP JUMPDEST PUSH0 PUSH2 0x1543 PUSH2 0x14B3 JUMP JUMPDEST SWAP1 POP PUSH2 0x154F DUP3 DUP3 PUSH2 0x1509 JUMP JUMPDEST SWAP2 SWAP1 POP JUMP JUMPDEST PUSH0 PUSH8 0xFFFFFFFFFFFFFFFF DUP3 GT ISZERO PUSH2 0x156E JUMPI PUSH2 0x156D PUSH2 0x14DC JUMP JUMPDEST JUMPDEST PUSH2 0x1577 DUP3 PUSH2 0x14CC JUMP JUMPDEST SWAP1 POP PUSH1 0x20 DUP2 ADD SWAP1 POP SWAP2 SWAP1 POP JUMP JUMPDEST DUP3 DUP2 DUP4 CALLDATACOPY PUSH0 DUP4 DUP4 ADD MSTORE POP POP POP JUMP JUMPDEST PUSH0 PUSH2 0x15A4 PUSH2 0x159F DUP5 PUSH2 0x1554 JUMP JUMPDEST PUSH2 0x153A JUMP JUMPDEST SWAP1 POP DUP3 DUP2 MSTORE PUSH1 0x20 DUP2 ADD DUP5 DUP5 DUP5 ADD GT ISZERO PUSH2 0x15C0 JUMPI PUSH2 0x15BF PUSH2 0x14C8 JUMP JUMPDEST JUMPDEST PUSH2 0x15CB DUP5 DUP3 DUP6 PUSH2 0x1584 JUMP JUMPDEST POP SWAP4 SWAP3 POP POP POP JUMP JUMPDEST PUSH0 DUP3 PUSH1 0x1F DUP4 ADD SLT PUSH2 0x15E7 JUMPI PUSH2 0x15E6 PUSH2 0x14C4 JUMP JUMPDEST JUMPDEST DUP2 CALLDATALOAD PUSH2 0x15F7 DUP5 DUP3 PUSH1 0x20 DUP7 ADD PUSH2 0x1592 JUMP JUMPDEST SWAP2 POP POP SWAP3 SWAP2 POP POP JUMP JUMPDEST PUSH0 DUP2 SWAP1 POP SWAP2 SWAP1 POP JUMP JUMPDEST PUSH2 0x1612 DUP2 PUSH2 0x1600 JUMP JUMPDEST DUP2 EQ PUSH2 0x161C JUMPI PUSH0 PUSH0 REVERT JUMPDEST POP JUMP JUMPDEST PUSH0 DUP2 CALLDATALOAD SWAP1 POP PUSH2 0x162D DUP2 PUSH2 0x1609 JUMP JUMPDEST SWAP3 SWAP2 POP POP JUMP JUMPDEST PUSH0 PUSH0 PUSH0 PUSH1 0x60 DUP5 DUP7 SUB SLT ISZERO PUSH2 0x164A JUMPI PUSH2 0x1649 PUSH2 0x14BC JUMP JUMPDEST JUMPDEST PUSH0 DUP5 ADD CALLDATALOAD PUSH8 0xFFFFFFFFFFFFFFFF DUP2 GT ISZERO PUSH2 0x1667 JUMPI PUSH2 0x1666 PUSH2 0x14C0 JUMP JUMPDEST JUMPDEST PUSH2 0x1673 DUP7 DUP3 DUP8 ADD PUSH2 0x15D3 JUMP JUMPDEST SWAP4 POP POP PUSH1 0x20 DUP5 ADD CALLDATALOAD PUSH8 0xFFFFFFFFFFFFFFFF DUP2 GT ISZERO PUSH2 0x1694 JUMPI PUSH2 0x1693 PUSH2 0x14C0 JUMP JUMPDEST JUMPDEST PUSH2 0x16A0 DUP7 DUP3 DUP8 ADD PUSH2 0x15D3 JUMP JUMPDEST SWAP3 POP POP PUSH1 0x40 PUSH2 0x16B1 DUP7 DUP3 DUP8 ADD PUSH2 0x161F JUMP JUMPDEST SWAP2 POP POP SWAP3 POP SWAP3 POP SWAP3 JUMP JUMPDEST PUSH0 PUSH1 0x20 DUP3 DUP5 SUB SLT ISZERO PUSH2 0x16D0 JUMPI PUSH2 0x16CF PUSH2 0x14BC JUMP JUMPDEST JUMPDEST PUSH0 DUP3 ADD CALLDATALOAD PUSH8 0xFFFFFFFFFFFFFFFF DUP2 GT ISZERO PUSH2 0x16ED JUMPI PUSH2 0x16EC PUSH2 0x14C0 JUMP JUMPDEST JUMPDEST PUSH2 0x16F9 DUP5 DUP3 DUP6 ADD PUSH2 0x15D3 JUMP JUMPDEST SWAP2 POP POP SWAP3 SWAP2 POP POP JUMP JUMPDEST PUSH0 PUSH20 0xFFFFFFFFFFFFFFFFFFFFFFFFFFFFFFFFFFFFFFFF DUP3 AND SWAP1 POP SWAP2 SWAP1 POP JUMP JUMPDEST PUSH0 DUP2 SWAP1 POP SWAP2 SWAP1 POP JUMP JUMPDEST PUSH0 PUSH2 0x1744 PUSH2 0x173F PUSH2 0x173A DUP5 PUSH2 0x1702 JUMP JUMPDEST PUSH2 0x1721 JUMP JUMPDEST PUSH2 0x1702 JUMP JUMPDEST SWAP1 POP SWAP2 SWAP1 POP JUMP JUMPDEST PUSH0 PUSH2 0x1755 DUP3 PUSH2 0x172A JUMP JUMPDEST SWAP1 POP SWAP2 SWAP1 POP JUMP JUMPDEST PUSH0 PUSH2 0x1766 DUP3 PUSH2 0x174B JUMP JUMPDEST SWAP1 POP SWAP2 SWAP1 POP JUMP JUMPDEST PUSH2 0x1776 DUP2 PUSH2 0x175C JUMP JUMPDEST DUP3 MSTORE POP POP JUMP JUMPDEST PUSH0 PUSH1 0x20 DUP3 ADD SWAP1 POP PUSH2 0x178F PUSH0 DUP4 ADD DUP5 PUSH2 0x176D JUMP JUMPDEST SWAP3 SWAP2 POP POP JUMP JUMPDEST PUSH0 PUSH2 0x179F DUP3 PUSH2 0x1702 JUMP JUMPDEST SWAP1 POP SWAP2 SWAP1 POP JUMP JUMPDEST PUSH2 0x17AF DUP2 PUSH2 0x1795 JUMP JUMPDEST DUP2 EQ PUSH2 0x17B9 JUMPI PUSH0 PUSH0 REVERT JUMPDEST POP JUMP JUMPDEST PUSH0 DUP2 CALLDATALOAD SWAP1 POP PUSH2 0x17CA DUP2 PUSH2 0x17A6 JUMP JUMPDEST SWAP3 SWAP2 POP POP JUMP JUMPDEST PUSH0 PUSH0 PUSH1 0x40 DUP4 DUP6 SUB SLT ISZERO PUSH2 0x17E6 JUMPI PUSH2 0x17E5 PUSH2 0x14BC JUMP JUMPDEST JUMPDEST PUSH0 DUP4 ADD CALLDATALOAD PUSH8 0xFFFFFFFFFFFFFFFF DUP2 GT ISZERO PUSH2 0x1803 JUMPI PUSH2 0x1802 PUSH2 0x14C0 JUMP JUMPDEST JUMPDEST PUSH2 0x180F DUP6 DUP3 DUP7 ADD PUSH2 0x15D3 JUMP JUMPDEST SWAP3 POP POP PUSH1 0x20 PUSH2 0x1820 DUP6 DUP3 DUP7 ADD PUSH2 0x17BC JUMP JUMPDEST SWAP2 POP POP SWAP3 POP SWAP3 SWAP1 POP JUMP JUMPDEST PUSH0 PUSH0 PUSH1 0x40 DUP4 DUP6 SUB SLT ISZERO PUSH2 0x1840 JUMPI PUSH2 0x183F PUSH2 0x14BC JUMP JUMPDEST JUMPDEST PUSH0 DUP4 ADD CALLDATALOAD PUSH8 0xFFFFFFFFFFFFFFFF DUP2 GT ISZERO PUSH2 0x185D JUMPI PUSH2 0x185C PUSH2 0x14C0 JUMP JUMPDEST JUMPDEST PUSH2 0x1869 DUP6 DUP3 DUP7 ADD PUSH2 0x15D3 JUMP JUMPDEST SWAP3 POP POP PUSH1 0x20 DUP4 ADD CALLDATALOAD PUSH8 0xFFFFFFFFFFFFFFFF DUP2 GT ISZERO PUSH2 0x188A JUMPI PUSH2 0x1889 PUSH2 0x14C0 JUMP JUMPDEST JUMPDEST PUSH2 0x1896 DUP6 DUP3 DUP7 ADD PUSH2 0x15D3 JUMP JUMPDEST SWAP2 POP POP SWAP3 POP SWAP3 SWAP1 POP JUMP JUMPDEST PUSH0 DUP2 SWAP1 POP SWAP2 SWAP1 POP JUMP JUMPDEST PUSH2 0x18B2 DUP2 PUSH2 0x18A0 JUMP JUMPDEST DUP3 MSTORE POP POP JUMP JUMPDEST PUSH0 PUSH1 0x20 DUP3 ADD SWAP1 POP PUSH2 0x18CB PUSH0 DUP4 ADD DUP5 PUSH2 0x18A9 JUMP JUMPDEST SWAP3 SWAP2 POP POP JUMP JUMPDEST PUSH2 0x18DA DUP2 PUSH2 0x18A0 JUMP JUMPDEST DUP2 EQ PUSH2 0x18E4 JUMPI PUSH0 PUSH0 REVERT JUMPDEST POP JUMP JUMPDEST PUSH0 DUP2 CALLDATALOAD SWAP1 POP PUSH2 0x18F5 DUP2 PUSH2 0x18D1 JUMP JUMPDEST SWAP3 SWAP2 POP POP JUMP JUMPDEST PUSH0 PUSH1 0x20 DUP3 DUP5 SUB SLT ISZERO PUSH2 0x1910 JUMPI PUSH2 0x190F PUSH2 0x14BC JUMP JUMPDEST JUMPDEST PUSH0 PUSH2 0x191D DUP5 DUP3 DUP6 ADD PUSH2 0x18E7 JUMP JUMPDEST SWAP2 POP POP SWAP3 SWAP2 POP POP JUMP JUMPDEST PUSH2 0x192F DUP2 PUSH2 0x1600 JUMP JUMPDEST DUP3 MSTORE POP POP JUMP JUMPDEST PUSH0 PUSH1 0x20 DUP3 ADD SWAP1 POP PUSH2 0x1948 PUSH0 DUP4 ADD DUP5 PUSH2 0x1926 JUMP JUMPDEST SWAP3 SWAP2 POP POP JUMP JUMPDEST PUSH2 0x1957 DUP2 PUSH2 0x1795 JUMP JUMPDEST DUP3 MSTORE POP POP JUMP JUMPDEST PUSH0 PUSH1 0x20 DUP3 ADD SWAP1 POP PUSH2 0x1970 PUSH0 DUP4 ADD DUP5 PUSH2 0x194E JUMP JUMPDEST SWAP3 SWAP2 POP POP JUMP JUMPDEST PUSH0 PUSH0 PUSH1 0x40 DUP4 DUP6 SUB SLT ISZERO PUSH2 0x198C JUMPI PUSH2 0x198B PUSH2 0x14BC JUMP JUMPDEST JUMPDEST PUSH0 PUSH2 0x1999 DUP6 DUP3 DUP7 ADD PUSH2 0x17BC JUMP JUMPDEST SWAP3 POP POP PUSH1 0x20 PUSH2 0x19AA DUP6 DUP3 DUP7 ADD PUSH2 0x161F JUMP JUMPDEST SWAP2 POP POP SWAP3 POP SWAP3 SWAP1 POP JUMP JUMPDEST PUSH0 PUSH1 0x20 DUP3 DUP5 SUB SLT ISZERO PUSH2 0x19C9 JUMPI PUSH2 0x19C8 PUSH2 0x14BC JUMP JUMPDEST JUMPDEST PUSH0 PUSH2 0x19D6 DUP5 DUP3 DUP6 ADD PUSH2 0x17BC JUMP JUMPDEST SWAP2 POP POP SWAP3 SWAP2 POP POP JUMP JUMPDEST PUSH0 DUP2 MLOAD SWAP1 POP SWAP2 SWAP1 POP JUMP JUMPDEST PUSH0 DUP2 SWAP1 POP SWAP3 SWAP2 POP POP JUMP JUMPDEST DUP3 DUP2 DUP4 MCOPY PUSH0 DUP4 DUP4 ADD MSTORE POP POP POP JUMP JUMPDEST PUSH0 PUSH2 0x1A0B DUP3 PUSH2 0x19DF JUMP JUMPDEST PUSH2 0x1A15 DUP2 DUP6 PUSH2 0x19E9 JUMP JUMPDEST SWAP4 POP PUSH2 0x1A25 DUP2 DUP6 PUSH1 0x20 DUP7 ADD PUSH2 0x19F3 JUMP JUMPDEST DUP1 DUP5 ADD SWAP2 POP POP SWAP3 SWAP2 POP POP JUMP JUMPDEST PUSH0 PUSH2 0x1A3C DUP3 DUP5 PUSH2 0x1A01 JUMP JUMPDEST SWAP2 POP DUP2 SWAP1 POP SWAP3 SWAP2 POP POP JUMP JUMPDEST PUSH0 DUP3 DUP3 MSTORE PUSH1 0x20 DUP3 ADD SWAP1 POP SWAP3 SWAP2 POP POP JUMP JUMPDEST PUSH32 0x46726F6D20746F6B656E206E6F74207365740000000000000000000000000000 PUSH0 DUP3 ADD MSTORE POP JUMP JUMPDEST PUSH0 PUSH2 0x1A8B PUSH1 0x12 DUP4 PUSH2 0x1A47 JUMP JUMPDEST SWAP2 POP PUSH2 0x1A96 DUP3 PUSH2 0x1A57 JUMP JUMPDEST PUSH1 0x20 DUP3 ADD SWAP1 POP SWAP2 SWAP1 POP JUMP JUMPDEST PUSH0 PUSH1 0x20 DUP3 ADD SWAP1 POP DUP2 DUP2 SUB PUSH0 DUP4 ADD MSTORE PUSH2 0x1AB8 DUP2 PUSH2 0x1A7F JUMP JUMPDEST SWAP1 POP SWAP2 SWAP1 POP JUMP JUMPDEST PUSH32 0x546F20746F6B656E206E6F742073657400000000000000000000000000000000 PUSH0 DUP3 ADD MSTORE POP JUMP JUMPDEST PUSH0 PUSH2 0x1AF3 PUSH1 0x10 DUP4 PUSH2 0x1A47 JUMP JUMPDEST SWAP2 POP PUSH2 0x1AFE DUP3 PUSH2 0x1ABF JUMP JUMPDEST PUSH1 0x20 DUP3 ADD SWAP1 POP SWAP2 SWAP1 POP JUMP JUMPDEST PUSH0 PUSH1 0x20 DUP3 ADD SWAP1 POP DUP2 DUP2 SUB PUSH0 DUP4 ADD MSTORE PUSH2 0x1B20 DUP2 PUSH2 0x1AE7 JUMP JUMPDEST SWAP1 POP SWAP2 SWAP1 POP JUMP JUMPDEST PUSH32 0x52617465206D757374206265203E203000000000000000000000000000000000 PUSH0 DUP3 ADD MSTORE POP JUMP JUMPDEST PUSH0 PUSH2 0x1B5B PUSH1 0x10 DUP4 PUSH2 0x1A47 JUMP JUMPDEST SWAP2 POP PUSH2 0x1B66 DUP3 PUSH2 0x1B27 JUMP JUMPDEST PUSH1 0x20 DUP3 ADD SWAP1 POP SWAP2 SWAP1 POP JUMP JUMPDEST PUSH0 PUSH1 0x20 DUP3 ADD SWAP1 POP DUP2 DUP2 SUB PUSH0 DUP4 ADD MSTORE PUSH2 0x1B88 DUP2 PUSH2 0x1B4F JUMP JUMPDEST SWAP1 POP SWAP2 SWAP1 POP JUMP JUMPDEST PUSH0 PUSH2 0x1B9A DUP3 DUP6 PUSH2 0x1A01 JUMP JUMPDEST SWAP2 POP PUSH2 0x1BA6 DUP3 DUP5 PUSH2 0x1A01 JUMP JUMPDEST SWAP2 POP DUP2 SWAP1 POP SWAP4 SWAP3 POP POP POP JUMP JUMPDEST PUSH32 0x4E487B7100000000000000000000000000000000000000000000000000000000 PUSH0 MSTORE PUSH1 0x12 PUSH1 0x4 MSTORE PUSH1 0x24 PUSH0 REVERT JUMPDEST PUSH32 0x4E487B7100000000000000000000000000000000000000000000000000000000 PUSH0 MSTORE PUSH1 0x11 PUSH1 0x4 MSTORE PUSH1 0x24 PUSH0 REVERT JUMPDEST PUSH0 PUSH2 0x1C16 DUP3 PUSH2 0x1600 JUMP JUMPDEST SWAP2 POP PUSH2 0x1C21 DUP4 PUSH2 0x1600 JUMP JUMPDEST SWAP3 POP DUP3 PUSH2 0x1C31 JUMPI PUSH2 0x1C30 PUSH2 0x1BB2 JUMP JUMPDEST JUMPDEST DUP3 DUP3 DIV SWAP1 POP SWAP3 SWAP2 POP POP JUMP JUMPDEST PUSH0 PUSH2 0x1C46 DUP3 PUSH2 0x19DF JUMP JUMPDEST PUSH2 0x1C50 DUP2 DUP6 PUSH2 0x1A47 JUMP JUMPDEST SWAP4 POP PUSH2 0x1C60 DUP2 DUP6 PUSH1 0x20 DUP7 ADD PUSH2 0x19F3 JUMP JUMPDEST PUSH2 0x1C69 DUP2 PUSH2 0x14CC JUMP JUMPDEST DUP5 ADD SWAP2 POP POP SWAP3 SWAP2 POP POP JUMP JUMPDEST PUSH0 PUSH1 0x60 DUP3 ADD SWAP1 POP DUP2 DUP2 SUB PUSH0 DUP4 ADD MSTORE PUSH2 0x1C8C DUP2 DUP7 PUSH2 0x1C3C JUMP JUMPDEST SWAP1 POP DUP2 DUP2 SUB PUSH1 0x20 DUP4 ADD MSTORE PUSH2 0x1CA0 DUP2 DUP6 PUSH2 0x1C3C JUMP JUMPDEST SWAP1 POP PUSH2 0x1CAF PUSH1 0x40 DUP4 ADD DUP5 PUSH2 0x1926 JUMP JUMPDEST SWAP5 SWAP4 POP POP POP POP JUMP JUMPDEST PUSH32 0x496E76616C696420746F6B656E20616464726573730000000000000000000000 PUSH0 DUP3 ADD MSTORE POP JUMP JUMPDEST PUSH0 PUSH2 0x1CEB PUSH1 0x15 DUP4 PUSH2 0x1A47 JUMP JUMPDEST SWAP2 POP PUSH2 0x1CF6 DUP3 PUSH2 0x1CB7 JUMP JUMPDEST PUSH1 0x20 DUP3 ADD SWAP1 POP SWAP2 SWAP1 POP JUMP JUMPDEST PUSH0 PUSH1 0x20 DUP3 ADD SWAP1 POP DUP2 DUP2 SUB PUSH0 DUP4 ADD MSTORE PUSH2 0x1D18 DUP2 PUSH2 0x1CDF JUMP JUMPDEST SWAP1 POP SWAP2 SWAP1 POP JUMP JUMPDEST PUSH0 PUSH1 0x40 DUP3 ADD SWAP1 POP DUP2 DUP2 SUB PUSH0 DUP4 ADD MSTORE PUSH2 0x1D37 DUP2 DUP6 PUSH2 0x1C3C JUMP JUMPDEST SWAP1 POP PUSH2 0x1D46 PUSH1 0x20 DUP4 ADD DUP5 PUSH2 0x194E JUMP JUMPDEST SWAP4 SWAP3 POP POP POP JUMP JUMPDEST PUSH0 PUSH1 0x40 DUP3 ADD SWAP1 POP PUSH2 0x1D60 PUSH0 DUP4 ADD DUP6 PUSH2 0x194E JUMP JUMPDEST PUSH2 0x1D6D PUSH1 0x20 DUP4 ADD DUP5 PUSH2 0x1926 JUMP JUMPDEST SWAP4 SWAP3 POP POP POP JUMP JUMPDEST PUSH0 DUP2 ISZERO ISZERO SWAP1 POP SWAP2 SWAP1 POP JUMP JUMPDEST PUSH2 0x1D88 DUP2 PUSH2 0x1D74 JUMP JUMPDEST DUP2 EQ PUSH2 0x1D92 JUMPI PUSH0 PUSH0 REVERT JUMPDEST POP JUMP JUMPDEST PUSH0 DUP2 MLOAD SWAP1 POP PUSH2 0x1DA3 DUP2 PUSH2 0x1D7F JUMP JUMPDEST SWAP3 SWAP2 POP POP JUMP JUMPDEST PUSH0 PUSH1 0x20 DUP3 DUP5 SUB SLT ISZERO PUSH2 0x1DBE JUMPI PUSH2 0x1DBD PUSH2 0x14BC JUMP JUMPDEST JUMPDEST PUSH0 PUSH2 0x1DCB DUP5 DUP3 DUP6 ADD PUSH2 0x1D95 JUMP JUMPDEST SWAP2 POP POP SWAP3 SWAP2 POP POP JUMP JUMPDEST PUSH32 0x5769746864726177206661696C65640000000000000000000000000000000000 PUSH0 DUP3 ADD MSTORE POP JUMP JUMPDEST PUSH0 PUSH2 0x1E08 PUSH1 0xF DUP4 PUSH2 0x1A47 JUMP JUMPDEST SWAP2 POP PUSH2 0x1E13 DUP3 PUSH2 0x1DD4 JUMP JUMPDEST PUSH1 0x20 DUP3 ADD SWAP1 POP SWAP2 SWAP1 POP JUMP JUMPDEST PUSH0 PUSH1 0x20 DUP3 ADD SWAP1 POP DUP2 DUP2 SUB PUSH0 DUP4 ADD MSTORE PUSH2 0x1E35 DUP2 PUSH2 0x1DFC JUMP JUMPDEST SWAP1 POP SWAP2 SWAP1 POP JUMP JUMPDEST PUSH32 0x416D6F756E74206D757374206265203E20300000000000000000000000000000 PUSH0 DUP3 ADD MSTORE POP JUMP JUMPDEST PUSH0 PUSH2 0x1E70 PUSH1 0x12 DUP4 PUSH2 0x1A47 JUMP JUMPDEST SWAP2 POP PUSH2 0x1E7B DUP3 PUSH2 0x1E3C JUMP JUMPDEST PUSH1 0x20 DUP3 ADD SWAP1 POP SWAP2 SWAP1 POP JUMP JUMPDEST PUSH0 PUSH1 0x20 DUP3 ADD SWAP1 POP DUP2 DUP2 SUB PUSH0 DUP4 ADD MSTORE PUSH2 0x1E9D DUP2 PUSH2 0x1E64 JUMP JUMPDEST SWAP1 POP SWAP2 SWAP1 POP JUMP JUMPDEST PUSH32 0x43616E6E6F7420737761702073616D6520746F6B656E00000000000000000000 PUSH0 DUP3 ADD MSTORE POP JUMP JUMPDEST PUSH0 PUSH2 0x1ED8 PUSH1 0x16 DUP4 PUSH2 0x1A47 JUMP JUMPDEST SWAP2 POP PUSH2 0x1EE3 DUP3 PUSH2 0x1EA4 JUMP JUMPDEST PUSH1 0x20 DUP3 ADD SWAP1 POP SWAP2 SWAP1 POP JUMP JUMPDEST PUSH0 PUSH1 0x20 DUP3 ADD SWAP1 POP DUP2 DUP2 SUB PUSH0 DUP4 ADD MSTORE PUSH2 0x1F05 DUP2 PUSH2 0x1ECC JUMP JUMPDEST SWAP1 POP SWAP2 SWAP1 POP JUMP JUMPDEST PUSH32 0x46726F6D20746F6B656E206E6F7420696E697469616C697A6564000000000000 PUSH0 DUP3 ADD MSTORE POP JUMP JUMPDEST PUSH0 PUSH2 0x1F40 PUSH1 0x1A DUP4 PUSH2 0x1A47 JUMP JUMPDEST SWAP2 POP PUSH2 0x1F4B DUP3 PUSH2 0x1F0C JUMP JUMPDEST PUSH1 0x20 DUP3 ADD SWAP1 POP SWAP2 SWAP1 POP JUMP JUMPDEST PUSH0 PUSH1 0x20 DUP3 ADD SWAP1 POP DUP2 DUP2 SUB PUSH0 DUP4 ADD MSTORE PUSH2 0x1F6D DUP2 PUSH2 0x1F34 JUMP JUMPDEST SWAP1 POP SWAP2 SWAP1 POP JUMP JUMPDEST PUSH32 0x546F20746F6B656E206E6F7420696E697469616C697A65640000000000000000 PUSH0 DUP3 ADD MSTORE POP JUMP JUMPDEST PUSH0 PUSH2 0x1FA8 PUSH1 0x18 DUP4 PUSH2 0x1A47 JUMP JUMPDEST SWAP2 POP PUSH2 0x1FB3 DUP3 PUSH2 0x1F74 JUMP JUMPDEST PUSH1 0x20 DUP3 ADD SWAP1 POP SWAP2 SWAP1 POP JUMP JUMPDEST PUSH0 PUSH1 0x20 DUP3 ADD SWAP1 POP DUP2 DUP2 SUB PUSH0 DUP4 ADD MSTORE PUSH2 0x1FD5 DUP2 PUSH2 0x1F9C JUMP JUMPDEST SWAP1 POP SWAP2 SWAP1 POP JUMP JUMPDEST PUSH0 PUSH1 0xFF DUP3 AND SWAP1 POP SWAP2 SWAP1 POP JUMP JUMPDEST PUSH2 0x1FF1 DUP2 PUSH2 0x1FDC JUMP JUMPDEST DUP2 EQ PUSH2 0x1FFB JUMPI PUSH0 PUSH0 REVERT JUMPDEST POP JUMP JUMPDEST PUSH0 DUP2 MLOAD SWAP1 POP PUSH2 0x200C DUP2 PUSH2 0x1FE8 JUMP JUMPDEST SWAP3 SWAP2 POP POP JUMP JUMPDEST PUSH0 PUSH1 0x20 DUP3 DUP5 SUB SLT ISZERO PUSH2 0x2027 JUMPI PUSH2 0x2026 PUSH2 0x14BC JUMP JUMPDEST JUMPDEST PUSH0 PUSH2 0x2034 DUP5 DUP3 DUP6 ADD PUSH2 0x1FFE JUMP JUMPDEST SWAP2 POP POP SWAP3 SWAP2 POP POP JUMP JUMPDEST PUSH32 0x52617465206E6F74207365740000000000000000000000000000000000000000 PUSH0 DUP3 ADD MSTORE POP JUMP JUMPDEST PUSH0 PUSH2 0x2071 PUSH1 0xC DUP4 PUSH2 0x1A47 JUMP JUMPDEST SWAP2 POP PUSH2 0x207C DUP3 PUSH2 0x203D JUMP JUMPDEST PUSH1 0x20 DUP3 ADD SWAP1 POP SWAP2 SWAP1 POP JUMP JUMPDEST PUSH0 PUSH1 0x20 DUP3 ADD SWAP1 POP DUP2 DUP2 SUB PUSH0 DUP4 ADD MSTORE PUSH2 0x209E DUP2 PUSH2 0x2065 JUMP JUMPDEST SWAP1 POP SWAP2 SWAP1 POP JUMP JUMPDEST PUSH0 PUSH2 0x20AF DUP3 PUSH2 0x1FDC JUMP JUMPDEST SWAP2 POP PUSH2 0x20BA DUP4 PUSH2 0x1FDC JUMP JUMPDEST SWAP3 POP DUP3 DUP3 SUB SWAP1 POP PUSH1 0xFF DUP2 GT ISZERO PUSH2 0x20D3 JUMPI PUSH2 0x20D2 PUSH2 0x1BDF JUMP JUMPDEST JUMPDEST SWAP3 SWAP2 POP POP JUMP JUMPDEST PUSH0 DUP2 PUSH1 0x1 SHR SWAP1 POP SWAP2 SWAP1 POP JUMP JUMPDEST PUSH0 PUSH0 DUP3 SWAP2 POP DUP4 SWAP1 POP JUMPDEST PUSH1 0x1 DUP6 GT ISZERO PUSH2 0x212E JUMPI DUP1 DUP7 DIV DUP2 GT ISZERO PUSH2 0x210A JUMPI PUSH2 0x2109 PUSH2 0x1BDF JUMP JUMPDEST JUMPDEST PUSH1 0x1 DUP6 AND ISZERO PUSH2 0x2119 JUMPI DUP1 DUP3 MUL SWAP2 POP JUMPDEST DUP1 DUP2 MUL SWAP1 POP PUSH2 0x2127 DUP6 PUSH2 0x20D9 JUMP JUMPDEST SWAP5 POP PUSH2 0x20EE JUMP JUMPDEST SWAP5 POP SWAP5 SWAP3 POP POP POP JUMP JUMPDEST PUSH0 DUP3 PUSH2 0x2146 JUMPI PUSH1 0x1 SWAP1 POP PUSH2 0x2201 JUMP JUMPDEST DUP2 PUSH2 0x2153 JUMPI PUSH0 SWAP1 POP PUSH2 0x2201 JUMP JUMPDEST DUP2 PUSH1 0x1 DUP2 EQ PUSH2 0x2169 JUMPI PUSH1 0x2 DUP2 EQ PUSH2 0x2173 JUMPI PUSH2 0x21A2 JUMP JUMPDEST PUSH1 0x1 SWAP2 POP POP PUSH2 0x2201 JUMP JUMPDEST PUSH1 0xFF DUP5 GT ISZERO PUSH2 0x2185 JUMPI PUSH2 0x2184 PUSH2 0x1BDF JUMP JUMPDEST JUMPDEST DUP4 PUSH1 0x2 EXP SWAP2 POP DUP5 DUP3 GT ISZERO PUSH2 0x219C JUMPI PUSH2 0x219B PUSH2 0x1BDF JUMP JUMPDEST JUMPDEST POP PUSH2 0x2201 JUMP JUMPDEST POP PUSH1 0x20 DUP4 LT PUSH2 0x133 DUP4 LT AND PUSH1 0x4E DUP5 LT PUSH1 0xB DUP5 LT AND OR ISZERO PUSH2 0x21D7 JUMPI DUP3 DUP3 EXP SWAP1 POP DUP4 DUP2 GT ISZERO PUSH2 0x21D2 JUMPI PUSH2 0x21D1 PUSH2 0x1BDF JUMP JUMPDEST JUMPDEST PUSH2 0x2201 JUMP JUMPDEST PUSH2 0x21E4 DUP5 DUP5 DUP5 PUSH1 0x1 PUSH2 0x20E5 JUMP JUMPDEST SWAP3 POP SWAP1 POP DUP2 DUP5 DIV DUP2 GT ISZERO PUSH2 0x21FB JUMPI PUSH2 0x21FA PUSH2 0x1BDF JUMP JUMPDEST JUMPDEST DUP2 DUP2 MUL SWAP1 POP JUMPDEST SWAP4 SWAP3 POP POP POP JUMP JUMPDEST PUSH0 PUSH2 0x2212 DUP3 PUSH2 0x1600 JUMP JUMPDEST SWAP2 POP PUSH2 0x221D DUP4 PUSH2 0x1FDC JUMP JUMPDEST SWAP3 POP PUSH2 0x224A PUSH32 0xFFFFFFFFFFFFFFFFFFFFFFFFFFFFFFFFFFFFFFFFFFFFFFFFFFFFFFFFFFFFFFFF DUP5 DUP5 PUSH2 0x2137 JUMP JUMPDEST SWAP1 POP SWAP3 SWAP2 POP POP JUMP JUMPDEST PUSH0 PUSH2 0x225C DUP3 PUSH2 0x1600 JUMP JUMPDEST SWAP2 POP PUSH2 0x2267 DUP4 PUSH2 0x1600 JUMP JUMPDEST SWAP3 POP DUP3 DUP3 MUL PUSH2 0x2275 DUP2 PUSH2 0x1600 JUMP JUMPDEST SWAP2 POP DUP3 DUP3 DIV DUP5 EQ DUP4 ISZERO OR PUSH2 0x228C JUMPI PUSH2 0x228B PUSH2 0x1BDF JUMP JUMPDEST JUMPDEST POP SWAP3 SWAP2 POP POP JUMP JUMPDEST PUSH0 DUP2 MLOAD SWAP1 POP PUSH2 0x22A1 DUP2 PUSH2 0x1609 JUMP JUMPDEST SWAP3 SWAP2 POP POP JUMP JUMPDEST PUSH0 PUSH1 0x20 DUP3 DUP5 SUB SLT ISZERO PUSH2 0x22BC JUMPI PUSH2 0x22BB PUSH2 0x14BC JUMP JUMPDEST JUMPDEST PUSH0 PUSH2 0x22C9 DUP5 DUP3 DUP6 ADD PUSH2 0x2293 JUMP JUMPDEST SWAP2 POP POP SWAP3 SWAP2 POP POP JUMP JUMPDEST PUSH32 0x4E6F7420656E6F756768206C6971756964697479000000000000000000000000 PUSH0 DUP3 ADD MSTORE POP JUMP JUMPDEST PUSH0 PUSH2 0x2306 PUSH1 0x14 DUP4 PUSH2 0x1A47 JUMP JUMPDEST SWAP2 POP PUSH2 0x2311 DUP3 PUSH2 0x22D2 JUMP JUMPDEST PUSH1 0x20 DUP3 ADD SWAP1 POP SWAP2 SWAP1 POP JUMP JUMPDEST PUSH0 PUSH1 0x20 DUP3 ADD SWAP1 POP DUP2 DUP2 SUB PUSH0 DUP4 ADD MSTORE PUSH2 0x2333 DUP2 PUSH2 0x22FA JUMP JUMPDEST SWAP1 POP SWAP2 SWAP1 POP JUMP JUMPDEST PUSH0 PUSH1 0x60 DUP3 ADD SWAP1 POP PUSH2 0x234D PUSH0 DUP4 ADD DUP7 PUSH2 0x194E JUMP JUMPDEST PUSH2 0x235A PUSH1 0x20 DUP4 ADD DUP6 PUSH2 0x194E JUMP JUMPDEST PUSH2 0x2367 PUSH1 0x40 DUP4 ADD DUP5 PUSH2 0x1926 JUMP JUMPDEST SWAP5 SWAP4 POP POP POP POP JUMP JUMPDEST PUSH32 0x5472616E7366657246726F6D206661696C656400000000000000000000000000 PUSH0 DUP3 ADD MSTORE POP JUMP JUMPDEST PUSH0 PUSH2 0x23A3 PUSH1 0x13 DUP4 PUSH2 0x1A47 JUMP JUMPDEST SWAP2 POP PUSH2 0x23AE DUP3 PUSH2 0x236F JUMP JUMPDEST PUSH1 0x20 DUP3 ADD SWAP1 POP SWAP2 SWAP1 POP JUMP JUMPDEST PUSH0 PUSH1 0x20 DUP3 ADD SWAP1 POP DUP2 DUP2 SUB PUSH0 DUP4 ADD MSTORE PUSH2 0x23D0 DUP2 PUSH2 0x2397 JUMP JUMPDEST SWAP1 POP SWAP2 SWAP1 POP JUMP JUMPDEST PUSH32 0x5472616E73666572206661696C65640000000000000000000000000000000000 PUSH0 DUP3 ADD MSTORE POP JUMP JUMPDEST PUSH0 PUSH2 0x240B PUSH1 0xF DUP4 PUSH2 0x1A47 JUMP JUMPDEST SWAP2 POP PUSH2 0x2416 DUP3 PUSH2 0x23D7 JUMP JUMPDEST PUSH1 0x20 DUP3 ADD SWAP1 POP SWAP2 SWAP1 POP JUMP JUMPDEST PUSH0 PUSH1 0x20 DUP3 ADD SWAP1 POP DUP2 DUP2 SUB PUSH0 DUP4 ADD MSTORE PUSH2 0x2438 DUP2 PUSH2 0x23FF JUMP JUMPDEST SWAP1 POP SWAP2 SWAP1 POP JUMP JUMPDEST PUSH0 PUSH1 0x80 DUP3 ADD SWAP1 POP DUP2 DUP2 SUB PUSH0 DUP4 ADD MSTORE PUSH2 0x2457 DUP2 DUP8 PUSH2 0x1C3C JUMP JUMPDEST SWAP1 POP DUP2 DUP2 SUB PUSH1 0x20 DUP4 ADD MSTORE PUSH2 0x246B DUP2 DUP7 PUSH2 0x1C3C JUMP JUMPDEST SWAP1 POP PUSH2 0x247A PUSH1 0x40 DUP4 ADD DUP6 PUSH2 0x1926 JUMP JUMPDEST PUSH2 0x2487 PUSH1 0x60 DUP4 ADD DUP5 PUSH2 0x1926 JUMP JUMPDEST SWAP6 SWAP5 POP POP POP POP POP JUMP JUMPDEST PUSH32 0x5265656E7472616E637947756172643A207265656E7472616E742063616C6C00 PUSH0 DUP3 ADD MSTORE POP JUMP JUMPDEST PUSH0 PUSH2 0x24C4 PUSH1 0x1F DUP4 PUSH2 0x1A47 JUMP JUMPDEST SWAP2 POP PUSH2 0x24CF DUP3 PUSH2 0x2490 JUMP JUMPDEST PUSH1 0x20 DUP3 ADD SWAP1 POP SWAP2 SWAP1 POP JUMP JUMPDEST PUSH0 PUSH1 0x20 DUP3 ADD SWAP1 POP DUP2 DUP2 SUB PUSH0 DUP4 ADD MSTORE PUSH2 0x24F1 DUP2 PUSH2 0x24B8 JUMP JUMPDEST SWAP1 POP SWAP2 SWAP1 POP JUMP INVALID LOG2 PUSH5 0x6970667358 0x22 SLT KECCAK256 0xBE BLOBHASH 0xC5 SWAP7 PUSH24 0x7FDA0C2FBEFE139282CFB397172C1F19F9AE213252231E9B PUSH0 SWAPN 0x8C PUSH5 0x736F6C6343 STOP ADDMOD 0x1E STOP CALLER "
				},
				"gasEstimates": {
					"creation": {
						"codeDepositCost": "1903600",
						"executionCost": "infinite",
						"totalCost": "infinite"
					},
					"external": {
						"exchangeRates(bytes32)": "2843",
						"getExpectedOutput(string,string,uint256)": "infinite",
						"getPairKey(string,string)": "infinite",
						"getRate(string,string)": "infinite",
						"owner()": "2515",
						"renounceOwnership()": "infinite",
						"setExchangeRate(string,string,uint256)": "infinite",
						"setTokenAddress(string,address)": "infinite",
						"swap(string,string,uint256)": "infinite",
						"tokens(string)": "infinite",
						"transferOwnership(address)": "infinite",
						"withdrawToken(address,uint256)": "infinite"
					}
				},
				"methodIdentifiers": {
					"exchangeRates(bytes32)": "577a9fc5",
					"getExpectedOutput(string,string,uint256)": "ed4aa7c0",
					"getPairKey(string,string)": "31dd8eb8",
					"getRate(string,string)": "e3f2804f",
					"owner()": "8da5cb5b",
					"renounceOwnership()": "715018a6",
					"setExchangeRate(string,string,uint256)": "049b266a",
					"setTokenAddress(string,address)": "17456e56",
					"swap(string,string,uint256)": "a451f602",
					"tokens(string)": "04c2320b",
					"transferOwnership(address)": "f2fde38b",
					"withdrawToken(address,uint256)": "9e281a98"
				}
			},
			"storageLayout": {
				"storage": [
					{
						"astId": 158,
						"contract": "swap.sol:TokenSwap",
						"label": "_status",
						"offset": 0,
						"slot": "0",
						"type": "t_uint256"
					},
					{
						"astId": 8,
						"contract": "swap.sol:TokenSwap",
						"label": "_owner",
						"offset": 0,
						"slot": "1",
						"type": "t_address"
					},
					{
						"astId": 342,
						"contract": "swap.sol:TokenSwap",
						"label": "tokens",
						"offset": 0,
						"slot": "2",
						"type": "t_mapping(t_string_memory_ptr,t_contract(IERC20Extended)333)"
					},
					{
						"astId": 346,
						"contract": "swap.sol:TokenSwap",
						"label": "exchangeRates",
						"offset": 0,
						"slot": "3",
						"type": "t_mapping(t_bytes32,t_uint256)"
					}
				],
				"types": {
					"t_address": {
						"encoding": "inplace",
						"label": "address",
						"numberOfBytes": "20"
					},
					"t_bytes32": {
						"encoding": "inplace",
						"label": "bytes32",
						"numberOfBytes": "32"
					},
					"t_contract(IERC20Extended)333": {
						"encoding": "inplace",
						"label": "contract IERC20Extended",
						"numberOfBytes": "20"
					},
					"t_mapping(t_bytes32,t_uint256)": {
						"encoding": "mapping",
						"key": "t_bytes32",
						"label": "mapping(bytes32 => uint256)",
						"numberOfBytes": "32",
						"value": "t_uint256"
					},
					"t_mapping(t_string_memory_ptr,t_contract(IERC20Extended)333)": {
						"encoding": "mapping",
						"key": "t_string_memory_ptr",
						"label": "mapping(string => contract IERC20Extended)",
						"numberOfBytes": "32",
						"value": "t_contract(IERC20Extended)333"
					},
					"t_string_memory_ptr": {
						"encoding": "bytes",
						"label": "string",
						"numberOfBytes": "32"
					},
					"t_uint256": {
						"encoding": "inplace",
						"label": "uint256",
						"numberOfBytes": "32"
					}
				}
			},
			"userdoc": {
				"kind": "user",
				"methods": {},
				"version": 1
			}
		}
	}
}