{
	"OrgContract.sol": {
		"OrgContract": {
			"abi": [
				{
					"inputs": [
						{
							"internalType": "address",
							"name": "_admin",
							"type": "address"
						},
						{
							"internalType": "string",
							"name": "_name",
							"type": "string"
						}
					],
					"stateMutability": "nonpayable",
					"type": "constructor"
				},
				{
					"anonymous": false,
					"inputs": [
						{
							"indexed": false,
							"internalType": "uint256",
							"name": "docId",
							"type": "uint256"
						},
						{
							"indexed": true,
							"internalType": "address",
							"name": "user",
							"type": "address"
						},
						{
							"indexed": false,
							"internalType": "string",
							"name": "cid",
							"type": "string"
						},
						{
							"indexed": false,
							"internalType": "string",
							"name": "docType",
							"type": "string"
						}
					],
					"name": "DocumentUploaded",
					"type": "event"
				},
				{
					"anonymous": false,
					"inputs": [
						{
							"indexed": false,
							"internalType": "uint256",
							"name": "docId",
							"type": "uint256"
						},
						{
							"indexed": false,
							"internalType": "enum OrgContract.Status",
							"name": "status",
							"type": "uint8"
						}
					],
					"name": "DocumentVerified",
					"type": "event"
				},
				{
					"inputs": [],
					"name": "docCount",
					"outputs": [
						{
							"internalType": "uint256",
							"name": "",
							"type": "uint256"
						}
					],
					"stateMutability": "view",
					"type": "function"
				},
				{
					"inputs": [
						{
							"internalType": "uint256",
							"name": "",
							"type": "uint256"
						}
					],
					"name": "documents",
					"outputs": [
						{
							"internalType": "string",
							"name": "cid",
							"type": "string"
						},
						{
							"internalType": "string",
							"name": "docType",
							"type": "string"
						},
						{
							"internalType": "address",
							"name": "uploadedBy",
							"type": "address"
						},
						{
							"internalType": "enum OrgContract.Status",
							"name": "status",
							"type": "uint8"
						},
						{
							"internalType": "uint256",
							"name": "uploadedAt",
							"type": "uint256"
						}
					],
					"stateMutability": "view",
					"type": "function"
				},
				{
					"inputs": [
						{
							"internalType": "uint256",
							"name": "_docId",
							"type": "uint256"
						}
					],
					"name": "getDocument",
					"outputs": [
						{
							"components": [
								{
									"internalType": "string",
									"name": "cid",
									"type": "string"
								},
								{
									"internalType": "string",
									"name": "docType",
									"type": "string"
								},
								{
									"internalType": "address",
									"name": "uploadedBy",
									"type": "address"
								},
								{
									"internalType": "enum OrgContract.Status",
									"name": "status",
									"type": "uint8"
								},
								{
									"internalType": "uint256",
									"name": "uploadedAt",
									"type": "uint256"
								}
							],
							"internalType": "struct OrgContract.Document",
							"name": "",
							"type": "tuple"
						}
					],
					"stateMutability": "view",
					"type": "function"
				},
				{
					"inputs": [
						{
							"internalType": "uint256",
							"name": "_docId",
							"type": "uint256"
						}
					],
					"name": "getDocumentCID",
					"outputs": [
						{
							"internalType": "string",
							"name": "",
							"type": "string"
						}
					],
					"stateMutability": "view",
					"type": "function"
				},
				{
					"inputs": [],
					"name": "orgAdmin",
					"outputs": [
						{
							"internalType": "address",
							"name": "",
							"type": "address"
						}
					],
					"stateMutability": "view",
					"type": "function"
				},
				{
					"inputs": [],
					"name": "orgName",
					"outputs": [
						{
							"internalType": "string",
							"name": "",
							"type": "string"
						}
					],
					"stateMutability": "view",
					"type": "function"
				},
				{
					"inputs": [
						{
							"internalType": "string",
							"name": "_cid",
							"type": "string"
						},
						{
							"internalType": "string",
							"name": "_docType",
							"type": "string"
						}
					],
					"name": "uploadDocument",
					"outputs": [],
					"stateMutability": "nonpayable",
					"type": "function"
				},
				{
					"inputs": [
						{
							"internalType": "uint256",
							"name": "_docId",
							"type": "uint256"
						},
						{
							"internalType": "bool",
							"name": "approve",
							"type": "bool"
						}
					],
					"name": "verifyDocument",
					"outputs": [],
					"stateMutability": "nonpayable",
					"type": "function"
				}
			],
			"devdoc": {
				"kind": "dev",
				"methods": {},
				"version": 1
			},
			"evm": {
				"assembly": "    /* \"OrgContract.sol\":57:1810  contract OrgContract {... */\n  mstore(0x40, 0x80)\n    /* \"OrgContract.sol\":682:790  constructor(address _admin, string memory _name) {... */\n  callvalue\n  dup1\n  iszero\n  tag_1\n  jumpi\n  revert(0x00, 0x00)\ntag_1:\n  pop\n  mload(0x40)\n  sub(codesize, bytecodeSize)\n  dup1\n  bytecodeSize\n  dup4\n  codecopy\n  dup2\n  dup2\n  add\n  0x40\n  mstore\n  dup2\n  add\n  swap1\n  tag_2\n  swap2\n  swap1\n  tag_3\n  jump\t// in\ntag_2:\n    /* \"OrgContract.sol\":752:758  _admin */\n  dup2\n    /* \"OrgContract.sol\":741:749  orgAdmin */\n  0x00\n  0x00\n    /* \"OrgContract.sol\":741:758  orgAdmin = _admin */\n  0x0100\n  exp\n  dup2\n  sload\n  dup2\n  0xffffffffffffffffffffffffffffffffffffffff\n  mul\n  not\n  and\n  swap1\n  dup4\n  0xffffffffffffffffffffffffffffffffffffffff\n  and\n  mul\n  or\n  swap1\n  sstore\n  pop\n    /* \"OrgContract.sol\":778:783  _name */\n  dup1\n    /* \"OrgContract.sol\":768:775  orgName */\n  0x01\n    /* \"OrgContract.sol\":768:783  orgName = _name */\n  swap1\n  dup2\n  tag_6\n  swap2\n  swap1\n  tag_7\n  jump\t// in\ntag_6:\n  pop\n    /* \"OrgContract.sol\":682:790  constructor(address _admin, string memory _name) {... */\n  pop\n  pop\n    /* \"OrgContract.sol\":57:1810  contract OrgContract {... */\n  jump(tag_8)\n    /* \"#utility.yul\":7:82   */\ntag_9:\n    /* \"#utility.yul\":40:46   */\n  0x00\n    /* \"#utility.yul\":73:75   */\n  0x40\n    /* \"#utility.yul\":67:76   */\n  mload\n    /* \"#utility.yul\":57:76   */\n  swap1\n  pop\n    /* \"#utility.yul\":7:82   */\n  swap1\n  jump\t// out\n    /* \"#utility.yul\":88:205   */\ntag_10:\n    /* \"#utility.yul\":197:198   */\n  0x00\n    /* \"#utility.yul\":194:195   */\n  0x00\n    /* \"#utility.yul\":187:199   */\n  revert\n    /* \"#utility.yul\":211:328   */\ntag_11:\n    /* \"#utility.yul\":320:321   */\n  0x00\n    /* \"#utility.yul\":317:318   */\n  0x00\n    /* \"#utility.yul\":310:322   */\n  revert\n    /* \"#utility.yul\":334:460   */\ntag_12:\n    /* \"#utility.yul\":371:378   */\n  0x00\n    /* \"#utility.yul\":411:453   */\n  0xffffffffffffffffffffffffffffffffffffffff\n    /* \"#utility.yul\":404:409   */\n  dup3\n    /* \"#utility.yul\":400:454   */\n  and\n    /* \"#utility.yul\":389:454   */\n  swap1\n  pop\n    /* \"#utility.yul\":334:460   */\n  swap2\n  swap1\n  pop\n  jump\t// out\n    /* \"#utility.yul\":466:562   */\ntag_13:\n    /* \"#utility.yul\":503:510   */\n  0x00\n    /* \"#utility.yul\":532:556   */\n  tag_51\n    /* \"#utility.yul\":550:555   */\n  dup3\n    /* \"#utility.yul\":532:556   */\n  tag_12\n  jump\t// in\ntag_51:\n    /* \"#utility.yul\":521:556   */\n  swap1\n  pop\n    /* \"#utility.yul\":466:562   */\n  swap2\n  swap1\n  pop\n  jump\t// out\n    /* \"#utility.yul\":568:690   */\ntag_14:\n    /* \"#utility.yul\":641:665   */\n  tag_53\n    /* \"#utility.yul\":659:664   */\n  dup2\n    /* \"#utility.yul\":641:665   */\n  tag_13\n  jump\t// in\ntag_53:\n    /* \"#utility.yul\":634:639   */\n  dup2\n    /* \"#utility.yul\":631:666   */\n  eq\n    /* \"#utility.yul\":621:684   */\n  tag_54\n  jumpi\n    /* \"#utility.yul\":680:681   */\n  0x00\n    /* \"#utility.yul\":677:678   */\n  0x00\n    /* \"#utility.yul\":670:682   */\n  revert\n    /* \"#utility.yul\":621:684   */\ntag_54:\n    /* \"#utility.yul\":568:690   */\n  pop\n  jump\t// out\n    /* \"#utility.yul\":696:839   */\ntag_15:\n    /* \"#utility.yul\":753:758   */\n  0x00\n    /* \"#utility.yul\":784:790   */\n  dup2\n    /* \"#utility.yul\":778:791   */\n  mload\n    /* \"#utility.yul\":769:791   */\n  swap1\n  pop\n    /* \"#utility.yul\":800:833   */\n  tag_56\n    /* \"#utility.yul\":827:832   */\n  dup2\n    /* \"#utility.yul\":800:833   */\n  tag_14\n  jump\t// in\ntag_56:\n    /* \"#utility.yul\":696:839   */\n  swap3\n  swap2\n  pop\n  pop\n  jump\t// out\n    /* \"#utility.yul\":845:962   */\ntag_16:\n    /* \"#utility.yul\":954:955   */\n  0x00\n    /* \"#utility.yul\":951:952   */\n  0x00\n    /* \"#utility.yul\":944:956   */\n  revert\n    /* \"#utility.yul\":968:1085   */\ntag_17:\n    /* \"#utility.yul\":1077:1078   */\n  0x00\n    /* \"#utility.yul\":1074:1075   */\n  0x00\n    /* \"#utility.yul\":1067:1079   */\n  revert\n    /* \"#utility.yul\":1091:1193   */\ntag_18:\n    /* \"#utility.yul\":1132:1138   */\n  0x00\n    /* \"#utility.yul\":1183:1185   */\n  0x1f\n    /* \"#utility.yul\":1179:1186   */\n  not\n    /* \"#utility.yul\":1174:1176   */\n  0x1f\n    /* \"#utility.yul\":1167:1172   */\n  dup4\n    /* \"#utility.yul\":1163:1177   */\n  add\n    /* \"#utility.yul\":1159:1187   */\n  and\n    /* \"#utility.yul\":1149:1187   */\n  swap1\n  pop\n    /* \"#utility.yul\":1091:1193   */\n  swap2\n  swap1\n  pop\n  jump\t// out\n    /* \"#utility.yul\":1199:1379   */\ntag_19:\n    /* \"#utility.yul\":1247:1324   */\n  0x4e487b7100000000000000000000000000000000000000000000000000000000\n    /* \"#utility.yul\":1244:1245   */\n  0x00\n    /* \"#utility.yul\":1237:1325   */\n  mstore\n    /* \"#utility.yul\":1344:1348   */\n  0x41\n    /* \"#utility.yul\":1341:1342   */\n  0x04\n    /* \"#utility.yul\":1334:1349   */\n  mstore\n    /* \"#utility.yul\":1368:1372   */\n  0x24\n    /* \"#utility.yul\":1365:1366   */\n  0x00\n    /* \"#utility.yul\":1358:1373   */\n  revert\n    /* \"#utility.yul\":1385:1666   */\ntag_20:\n    /* \"#utility.yul\":1468:1495   */\n  tag_62\n    /* \"#utility.yul\":1490:1494   */\n  dup3\n    /* \"#utility.yul\":1468:1495   */\n  tag_18\n  jump\t// in\ntag_62:\n    /* \"#utility.yul\":1460:1466   */\n  dup2\n    /* \"#utility.yul\":1456:1496   */\n  add\n    /* \"#utility.yul\":1598:1604   */\n  dup2\n    /* \"#utility.yul\":1586:1596   */\n  dup2\n    /* \"#utility.yul\":1583:1605   */\n  lt\n    /* \"#utility.yul\":1562:1580   */\n  0xffffffffffffffff\n    /* \"#utility.yul\":1550:1560   */\n  dup3\n    /* \"#utility.yul\":1547:1581   */\n  gt\n    /* \"#utility.yul\":1544:1606   */\n  or\n    /* \"#utility.yul\":1541:1629   */\n  iszero\n  tag_63\n  jumpi\n    /* \"#utility.yul\":1609:1627   */\n  tag_64\n  tag_19\n  jump\t// in\ntag_64:\n    /* \"#utility.yul\":1541:1629   */\ntag_63:\n    /* \"#utility.yul\":1649:1659   */\n  dup1\n    /* \"#utility.yul\":1645:1647   */\n  0x40\n    /* \"#utility.yul\":1638:1660   */\n  mstore\n    /* \"#utility.yul\":1428:1666   */\n  pop\n    /* \"#utility.yul\":1385:1666   */\n  pop\n  pop\n  jump\t// out\n    /* \"#utility.yul\":1672:1801   */\ntag_21:\n    /* \"#utility.yul\":1706:1712   */\n  0x00\n    /* \"#utility.yul\":1733:1753   */\n  tag_66\n  tag_9\n  jump\t// in\ntag_66:\n    /* \"#utility.yul\":1723:1753   */\n  swap1\n  pop\n    /* \"#utility.yul\":1762:1795   */\n  tag_67\n    /* \"#utility.yul\":1790:1794   */\n  dup3\n    /* \"#utility.yul\":1782:1788   */\n  dup3\n    /* \"#utility.yul\":1762:1795   */\n  tag_20\n  jump\t// in\ntag_67:\n    /* \"#utility.yul\":1672:1801   */\n  swap2\n  swap1\n  pop\n  jump\t// out\n    /* \"#utility.yul\":1807:2115   */\ntag_22:\n    /* \"#utility.yul\":1869:1873   */\n  0x00\n    /* \"#utility.yul\":1959:1977   */\n  0xffffffffffffffff\n    /* \"#utility.yul\":1951:1957   */\n  dup3\n    /* \"#utility.yul\":1948:1978   */\n  gt\n    /* \"#utility.yul\":1945:2001   */\n  iszero\n  tag_69\n  jumpi\n    /* \"#utility.yul\":1981:1999   */\n  tag_70\n  tag_19\n  jump\t// in\ntag_70:\n    /* \"#utility.yul\":1945:2001   */\ntag_69:\n    /* \"#utility.yul\":2019:2048   */\n  tag_71\n    /* \"#utility.yul\":2041:2047   */\n  dup3\n    /* \"#utility.yul\":2019:2048   */\n  tag_18\n  jump\t// in\ntag_71:\n    /* \"#utility.yul\":2011:2048   */\n  swap1\n  pop\n    /* \"#utility.yul\":2103:2107   */\n  0x20\n    /* \"#utility.yul\":2097:2101   */\n  dup2\n    /* \"#utility.yul\":2093:2108   */\n  add\n    /* \"#utility.yul\":2085:2108   */\n  swap1\n  pop\n    /* \"#utility.yul\":1807:2115   */\n  swap2\n  swap1\n  pop\n  jump\t// out\n    /* \"#utility.yul\":2121:2260   */\ntag_23:\n    /* \"#utility.yul\":2210:2216   */\n  dup3\n    /* \"#utility.yul\":2205:2208   */\n  dup2\n    /* \"#utility.yul\":2200:2203   */\n  dup4\n    /* \"#utility.yul\":2194:2217   */\n  mcopy\n    /* \"#utility.yul\":2251:2252   */\n  0x00\n    /* \"#utility.yul\":2242:2248   */\n  dup4\n    /* \"#utility.yul\":2237:2240   */\n  dup4\n    /* \"#utility.yul\":2233:2249   */\n  add\n    /* \"#utility.yul\":2226:2253   */\n  mstore\n    /* \"#utility.yul\":2121:2260   */\n  pop\n  pop\n  pop\n  jump\t// out\n    /* \"#utility.yul\":2266:2700   */\ntag_24:\n    /* \"#utility.yul\":2355:2360   */\n  0x00\n    /* \"#utility.yul\":2380:2446   */\n  tag_74\n    /* \"#utility.yul\":2396:2445   */\n  tag_75\n    /* \"#utility.yul\":2438:2444   */\n  dup5\n    /* \"#utility.yul\":2396:2445   */\n  tag_22\n  jump\t// in\ntag_75:\n    /* \"#utility.yul\":2380:2446   */\n  tag_21\n  jump\t// in\ntag_74:\n    /* \"#utility.yul\":2371:2446   */\n  swap1\n  pop\n    /* \"#utility.yul\":2469:2475   */\n  dup3\n    /* \"#utility.yul\":2462:2467   */\n  dup2\n    /* \"#utility.yul\":2455:2476   */\n  mstore\n    /* \"#utility.yul\":2507:2511   */\n  0x20\n    /* \"#utility.yul\":2500:2505   */\n  dup2\n    /* \"#utility.yul\":2496:2512   */\n  add\n    /* \"#utility.yul\":2545:2548   */\n  dup5\n    /* \"#utility.yul\":2536:2542   */\n  dup5\n    /* \"#utility.yul\":2531:2534   */\n  dup5\n    /* \"#utility.yul\":2527:2543   */\n  add\n    /* \"#utility.yul\":2524:2549   */\n  gt\n    /* \"#utility.yul\":2521:2633   */\n  iszero\n  tag_76\n  jumpi\n    /* \"#utility.yul\":2552:2631   */\n  tag_77\n  tag_17\n  jump\t// in\ntag_77:\n    /* \"#utility.yul\":2521:2633   */\ntag_76:\n    /* \"#utility.yul\":2642:2694   */\n  tag_78\n    /* \"#utility.yul\":2687:2693   */\n  dup5\n    /* \"#utility.yul\":2682:2685   */\n  dup3\n    /* \"#utility.yul\":2677:2680   */\n  dup6\n    /* \"#utility.yul\":2642:2694   */\n  tag_23\n  jump\t// in\ntag_78:\n    /* \"#utility.yul\":2361:2700   */\n  pop\n    /* \"#utility.yul\":2266:2700   */\n  swap4\n  swap3\n  pop\n  pop\n  pop\n  jump\t// out\n    /* \"#utility.yul\":2720:3075   */\ntag_25:\n    /* \"#utility.yul\":2787:2792   */\n  0x00\n    /* \"#utility.yul\":2836:2839   */\n  dup3\n    /* \"#utility.yul\":2829:2833   */\n  0x1f\n    /* \"#utility.yul\":2821:2827   */\n  dup4\n    /* \"#utility.yul\":2817:2834   */\n  add\n    /* \"#utility.yul\":2813:2840   */\n  slt\n    /* \"#utility.yul\":2803:2925   */\n  tag_80\n  jumpi\n    /* \"#utility.yul\":2844:2923   */\n  tag_81\n  tag_16\n  jump\t// in\ntag_81:\n    /* \"#utility.yul\":2803:2925   */\ntag_80:\n    /* \"#utility.yul\":2954:2960   */\n  dup2\n    /* \"#utility.yul\":2948:2961   */\n  mload\n    /* \"#utility.yul\":2979:3069   */\n  tag_82\n    /* \"#utility.yul\":3065:3068   */\n  dup5\n    /* \"#utility.yul\":3057:3063   */\n  dup3\n    /* \"#utility.yul\":3050:3054   */\n  0x20\n    /* \"#utility.yul\":3042:3048   */\n  dup7\n    /* \"#utility.yul\":3038:3055   */\n  add\n    /* \"#utility.yul\":2979:3069   */\n  tag_24\n  jump\t// in\ntag_82:\n    /* \"#utility.yul\":2970:3069   */\n  swap2\n  pop\n    /* \"#utility.yul\":2793:3075   */\n  pop\n    /* \"#utility.yul\":2720:3075   */\n  swap3\n  swap2\n  pop\n  pop\n  jump\t// out\n    /* \"#utility.yul\":3081:3761   */\ntag_3:\n    /* \"#utility.yul\":3170:3176   */\n  0x00\n    /* \"#utility.yul\":3178:3184   */\n  0x00\n    /* \"#utility.yul\":3227:3229   */\n  0x40\n    /* \"#utility.yul\":3215:3224   */\n  dup4\n    /* \"#utility.yul\":3206:3213   */\n  dup6\n    /* \"#utility.yul\":3202:3225   */\n  sub\n    /* \"#utility.yul\":3198:3230   */\n  slt\n    /* \"#utility.yul\":3195:3314   */\n  iszero\n  tag_84\n  jumpi\n    /* \"#utility.yul\":3233:3312   */\n  tag_85\n  tag_10\n  jump\t// in\ntag_85:\n    /* \"#utility.yul\":3195:3314   */\ntag_84:\n    /* \"#utility.yul\":3353:3354   */\n  0x00\n    /* \"#utility.yul\":3378:3442   */\n  tag_86\n    /* \"#utility.yul\":3434:3441   */\n  dup6\n    /* \"#utility.yul\":3425:3431   */\n  dup3\n    /* \"#utility.yul\":3414:3423   */\n  dup7\n    /* \"#utility.yul\":3410:3432   */\n  add\n    /* \"#utility.yul\":3378:3442   */\n  tag_15\n  jump\t// in\ntag_86:\n    /* \"#utility.yul\":3368:3442   */\n  swap3\n  pop\n    /* \"#utility.yul\":3324:3452   */\n  pop\n    /* \"#utility.yul\":3512:3514   */\n  0x20\n    /* \"#utility.yul\":3501:3510   */\n  dup4\n    /* \"#utility.yul\":3497:3515   */\n  add\n    /* \"#utility.yul\":3491:3516   */\n  mload\n    /* \"#utility.yul\":3543:3561   */\n  0xffffffffffffffff\n    /* \"#utility.yul\":3535:3541   */\n  dup2\n    /* \"#utility.yul\":3532:3562   */\n  gt\n    /* \"#utility.yul\":3529:3646   */\n  iszero\n  tag_87\n  jumpi\n    /* \"#utility.yul\":3565:3644   */\n  tag_88\n  tag_11\n  jump\t// in\ntag_88:\n    /* \"#utility.yul\":3529:3646   */\ntag_87:\n    /* \"#utility.yul\":3670:3744   */\n  tag_89\n    /* \"#utility.yul\":3736:3743   */\n  dup6\n    /* \"#utility.yul\":3727:3733   */\n  dup3\n    /* \"#utility.yul\":3716:3725   */\n  dup7\n    /* \"#utility.yul\":3712:3734   */\n  add\n    /* \"#utility.yul\":3670:3744   */\n  tag_25\n  jump\t// in\ntag_89:\n    /* \"#utility.yul\":3660:3744   */\n  swap2\n  pop\n    /* \"#utility.yul\":3462:3754   */\n  pop\n    /* \"#utility.yul\":3081:3761   */\n  swap3\n  pop\n  swap3\n  swap1\n  pop\n  jump\t// out\n    /* \"#utility.yul\":3767:3866   */\ntag_26:\n    /* \"#utility.yul\":3819:3825   */\n  0x00\n    /* \"#utility.yul\":3853:3858   */\n  dup2\n    /* \"#utility.yul\":3847:3859   */\n  mload\n    /* \"#utility.yul\":3837:3859   */\n  swap1\n  pop\n    /* \"#utility.yul\":3767:3866   */\n  swap2\n  swap1\n  pop\n  jump\t// out\n    /* \"#utility.yul\":3872:4052   */\ntag_27:\n    /* \"#utility.yul\":3920:3997   */\n  0x4e487b7100000000000000000000000000000000000000000000000000000000\n    /* \"#utility.yul\":3917:3918   */\n  0x00\n    /* \"#utility.yul\":3910:3998   */\n  mstore\n    /* \"#utility.yul\":4017:4021   */\n  0x22\n    /* \"#utility.yul\":4014:4015   */\n  0x04\n    /* \"#utility.yul\":4007:4022   */\n  mstore\n    /* \"#utility.yul\":4041:4045   */\n  0x24\n    /* \"#utility.yul\":4038:4039   */\n  0x00\n    /* \"#utility.yul\":4031:4046   */\n  revert\n    /* \"#utility.yul\":4058:4378   */\ntag_28:\n    /* \"#utility.yul\":4102:4108   */\n  0x00\n    /* \"#utility.yul\":4139:4140   */\n  0x02\n    /* \"#utility.yul\":4133:4137   */\n  dup3\n    /* \"#utility.yul\":4129:4141   */\n  div\n    /* \"#utility.yul\":4119:4141   */\n  swap1\n  pop\n    /* \"#utility.yul\":4186:4187   */\n  0x01\n    /* \"#utility.yul\":4180:4184   */\n  dup3\n    /* \"#utility.yul\":4176:4188   */\n  and\n    /* \"#utility.yul\":4207:4225   */\n  dup1\n    /* \"#utility.yul\":4197:4278   */\n  tag_93\n  jumpi\n    /* \"#utility.yul\":4263:4267   */\n  0x7f\n    /* \"#utility.yul\":4255:4261   */\n  dup3\n    /* \"#utility.yul\":4251:4268   */\n  and\n    /* \"#utility.yul\":4241:4268   */\n  swap2\n  pop\n    /* \"#utility.yul\":4197:4278   */\ntag_93:\n    /* \"#utility.yul\":4325:4327   */\n  0x20\n    /* \"#utility.yul\":4317:4323   */\n  dup3\n    /* \"#utility.yul\":4314:4328   */\n  lt\n    /* \"#utility.yul\":4294:4312   */\n  dup2\n    /* \"#utility.yul\":4291:4329   */\n  sub\n    /* \"#utility.yul\":4288:4372   */\n  tag_94\n  jumpi\n    /* \"#utility.yul\":4344:4362   */\n  tag_95\n  tag_27\n  jump\t// in\ntag_95:\n    /* \"#utility.yul\":4288:4372   */\ntag_94:\n    /* \"#utility.yul\":4109:4378   */\n  pop\n    /* \"#utility.yul\":4058:4378   */\n  swap2\n  swap1\n  pop\n  jump\t// out\n    /* \"#utility.yul\":4384:4525   */\ntag_29:\n    /* \"#utility.yul\":4433:4437   */\n  0x00\n    /* \"#utility.yul\":4456:4459   */\n  dup2\n    /* \"#utility.yul\":4448:4459   */\n  swap1\n  pop\n    /* \"#utility.yul\":4479:4482   */\n  dup2\n    /* \"#utility.yul\":4476:4477   */\n  0x00\n    /* \"#utility.yul\":4469:4483   */\n  mstore\n    /* \"#utility.yul\":4513:4517   */\n  0x20\n    /* \"#utility.yul\":4510:4511   */\n  0x00\n    /* \"#utility.yul\":4500:4518   */\n  keccak256\n    /* \"#utility.yul\":4492:4518   */\n  swap1\n  pop\n    /* \"#utility.yul\":4384:4525   */\n  swap2\n  swap1\n  pop\n  jump\t// out\n    /* \"#utility.yul\":4531:4624   */\ntag_30:\n    /* \"#utility.yul\":4568:4574   */\n  0x00\n    /* \"#utility.yul\":4615:4617   */\n  0x20\n    /* \"#utility.yul\":4610:4612   */\n  0x1f\n    /* \"#utility.yul\":4603:4608   */\n  dup4\n    /* \"#utility.yul\":4599:4613   */\n  add\n    /* \"#utility.yul\":4595:4618   */\n  div\n    /* \"#utility.yul\":4585:4618   */\n  swap1\n  pop\n    /* \"#utility.yul\":4531:4624   */\n  swap2\n  swap1\n  pop\n  jump\t// out\n    /* \"#utility.yul\":4630:4737   */\ntag_31:\n    /* \"#utility.yul\":4674:4682   */\n  0x00\n    /* \"#utility.yul\":4724:4729   */\n  dup3\n    /* \"#utility.yul\":4718:4722   */\n  dup3\n    /* \"#utility.yul\":4714:4730   */\n  shl\n    /* \"#utility.yul\":4693:4730   */\n  swap1\n  pop\n    /* \"#utility.yul\":4630:4737   */\n  swap3\n  swap2\n  pop\n  pop\n  jump\t// out\n    /* \"#utility.yul\":4743:5136   */\ntag_32:\n    /* \"#utility.yul\":4812:4818   */\n  0x00\n    /* \"#utility.yul\":4862:4863   */\n  0x08\n    /* \"#utility.yul\":4850:4860   */\n  dup4\n    /* \"#utility.yul\":4846:4864   */\n  mul\n    /* \"#utility.yul\":4885:4982   */\n  tag_100\n    /* \"#utility.yul\":4915:4981   */\n  0xffffffffffffffffffffffffffffffffffffffffffffffffffffffffffffffff\n    /* \"#utility.yul\":4904:4913   */\n  dup3\n    /* \"#utility.yul\":4885:4982   */\n  tag_31\n  jump\t// in\ntag_100:\n    /* \"#utility.yul\":5003:5042   */\n  tag_101\n    /* \"#utility.yul\":5033:5041   */\n  dup7\n    /* \"#utility.yul\":5022:5031   */\n  dup4\n    /* \"#utility.yul\":5003:5042   */\n  tag_31\n  jump\t// in\ntag_101:\n    /* \"#utility.yul\":4991:5042   */\n  swap6\n  pop\n    /* \"#utility.yul\":5075:5079   */\n  dup1\n    /* \"#utility.yul\":5071:5080   */\n  not\n    /* \"#utility.yul\":5064:5069   */\n  dup5\n    /* \"#utility.yul\":5060:5081   */\n  and\n    /* \"#utility.yul\":5051:5081   */\n  swap4\n  pop\n    /* \"#utility.yul\":5124:5128   */\n  dup1\n    /* \"#utility.yul\":5114:5122   */\n  dup7\n    /* \"#utility.yul\":5110:5129   */\n  and\n    /* \"#utility.yul\":5103:5108   */\n  dup5\n    /* \"#utility.yul\":5100:5130   */\n  or\n    /* \"#utility.yul\":5090:5130   */\n  swap3\n  pop\n    /* \"#utility.yul\":4819:5136   */\n  pop\n  pop\n    /* \"#utility.yul\":4743:5136   */\n  swap4\n  swap3\n  pop\n  pop\n  pop\n  jump\t// out\n    /* \"#utility.yul\":5142:5219   */\ntag_33:\n    /* \"#utility.yul\":5179:5186   */\n  0x00\n    /* \"#utility.yul\":5208:5213   */\n  dup2\n    /* \"#utility.yul\":5197:5213   */\n  swap1\n  pop\n    /* \"#utility.yul\":5142:5219   */\n  swap2\n  swap1\n  pop\n  jump\t// out\n    /* \"#utility.yul\":5225:5285   */\ntag_34:\n    /* \"#utility.yul\":5253:5256   */\n  0x00\n    /* \"#utility.yul\":5274:5279   */\n  dup2\n    /* \"#utility.yul\":5267:5279   */\n  swap1\n  pop\n    /* \"#utility.yul\":5225:5285   */\n  swap2\n  swap1\n  pop\n  jump\t// out\n    /* \"#utility.yul\":5291:5433   */\ntag_35:\n    /* \"#utility.yul\":5341:5350   */\n  0x00\n    /* \"#utility.yul\":5374:5427   */\n  tag_105\n    /* \"#utility.yul\":5392:5426   */\n  tag_106\n    /* \"#utility.yul\":5401:5425   */\n  tag_107\n    /* \"#utility.yul\":5419:5424   */\n  dup5\n    /* \"#utility.yul\":5401:5425   */\n  tag_33\n  jump\t// in\ntag_107:\n    /* \"#utility.yul\":5392:5426   */\n  tag_34\n  jump\t// in\ntag_106:\n    /* \"#utility.yul\":5374:5427   */\n  tag_33\n  jump\t// in\ntag_105:\n    /* \"#utility.yul\":5361:5427   */\n  swap1\n  pop\n    /* \"#utility.yul\":5291:5433   */\n  swap2\n  swap1\n  pop\n  jump\t// out\n    /* \"#utility.yul\":5439:5514   */\ntag_36:\n    /* \"#utility.yul\":5482:5485   */\n  0x00\n    /* \"#utility.yul\":5503:5508   */\n  dup2\n    /* \"#utility.yul\":5496:5508   */\n  swap1\n  pop\n    /* \"#utility.yul\":5439:5514   */\n  swap2\n  swap1\n  pop\n  jump\t// out\n    /* \"#utility.yul\":5520:5789   */\ntag_37:\n    /* \"#utility.yul\":5630:5669   */\n  tag_110\n    /* \"#utility.yul\":5661:5668   */\n  dup4\n    /* \"#utility.yul\":5630:5669   */\n  tag_35\n  jump\t// in\ntag_110:\n    /* \"#utility.yul\":5691:5782   */\n  tag_111\n    /* \"#utility.yul\":5740:5781   */\n  tag_112\n    /* \"#utility.yul\":5764:5780   */\n  dup3\n    /* \"#utility.yul\":5740:5781   */\n  tag_36\n  jump\t// in\ntag_112:\n    /* \"#utility.yul\":5732:5738   */\n  dup5\n    /* \"#utility.yul\":5725:5729   */\n  dup5\n    /* \"#utility.yul\":5719:5730   */\n  sload\n    /* \"#utility.yul\":5691:5782   */\n  tag_32\n  jump\t// in\ntag_111:\n    /* \"#utility.yul\":5685:5689   */\n  dup3\n    /* \"#utility.yul\":5678:5783   */\n  sstore\n    /* \"#utility.yul\":5596:5789   */\n  pop\n    /* \"#utility.yul\":5520:5789   */\n  pop\n  pop\n  pop\n  jump\t// out\n    /* \"#utility.yul\":5795:5868   */\ntag_38:\n    /* \"#utility.yul\":5840:5843   */\n  0x00\n    /* \"#utility.yul\":5861:5862   */\n  0x00\n    /* \"#utility.yul\":5854:5862   */\n  swap1\n  pop\n    /* \"#utility.yul\":5795:5868   */\n  swap1\n  jump\t// out\n    /* \"#utility.yul\":5874:6063   */\ntag_39:\n    /* \"#utility.yul\":5951:5983   */\n  tag_115\n  tag_38\n  jump\t// in\ntag_115:\n    /* \"#utility.yul\":5992:6057   */\n  tag_116\n    /* \"#utility.yul\":6050:6056   */\n  dup2\n    /* \"#utility.yul\":6042:6048   */\n  dup5\n    /* \"#utility.yul\":6036:6040   */\n  dup5\n    /* \"#utility.yul\":5992:6057   */\n  tag_37\n  jump\t// in\ntag_116:\n    /* \"#utility.yul\":5927:6063   */\n  pop\n    /* \"#utility.yul\":5874:6063   */\n  pop\n  pop\n  jump\t// out\n    /* \"#utility.yul\":6069:6255   */\ntag_40:\n    /* \"#utility.yul\":6129:6249   */\ntag_118:\n    /* \"#utility.yul\":6146:6149   */\n  dup2\n    /* \"#utility.yul\":6139:6144   */\n  dup2\n    /* \"#utility.yul\":6136:6150   */\n  lt\n    /* \"#utility.yul\":6129:6249   */\n  iszero\n  tag_120\n  jumpi\n    /* \"#utility.yul\":6200:6239   */\n  tag_121\n    /* \"#utility.yul\":6237:6238   */\n  0x00\n    /* \"#utility.yul\":6230:6235   */\n  dup3\n    /* \"#utility.yul\":6200:6239   */\n  tag_39\n  jump\t// in\ntag_121:\n    /* \"#utility.yul\":6173:6174   */\n  0x01\n    /* \"#utility.yul\":6166:6171   */\n  dup2\n    /* \"#utility.yul\":6162:6175   */\n  add\n    /* \"#utility.yul\":6153:6175   */\n  swap1\n  pop\n    /* \"#utility.yul\":6129:6249   */\n  jump(tag_118)\ntag_120:\n    /* \"#utility.yul\":6069:6255   */\n  pop\n  pop\n  jump\t// out\n    /* \"#utility.yul\":6261:6804   */\ntag_41:\n    /* \"#utility.yul\":6362:6364   */\n  0x1f\n    /* \"#utility.yul\":6357:6360   */\n  dup3\n    /* \"#utility.yul\":6354:6365   */\n  gt\n    /* \"#utility.yul\":6351:6797   */\n  iszero\n  tag_123\n  jumpi\n    /* \"#utility.yul\":6396:6434   */\n  tag_124\n    /* \"#utility.yul\":6428:6433   */\n  dup2\n    /* \"#utility.yul\":6396:6434   */\n  tag_29\n  jump\t// in\ntag_124:\n    /* \"#utility.yul\":6480:6509   */\n  tag_125\n    /* \"#utility.yul\":6498:6508   */\n  dup5\n    /* \"#utility.yul\":6480:6509   */\n  tag_30\n  jump\t// in\ntag_125:\n    /* \"#utility.yul\":6470:6478   */\n  dup2\n    /* \"#utility.yul\":6466:6510   */\n  add\n    /* \"#utility.yul\":6663:6665   */\n  0x20\n    /* \"#utility.yul\":6651:6661   */\n  dup6\n    /* \"#utility.yul\":6648:6666   */\n  lt\n    /* \"#utility.yul\":6645:6694   */\n  iszero\n  tag_126\n  jumpi\n    /* \"#utility.yul\":6684:6692   */\n  dup2\n    /* \"#utility.yul\":6669:6692   */\n  swap1\n  pop\n    /* \"#utility.yul\":6645:6694   */\ntag_126:\n    /* \"#utility.yul\":6707:6787   */\n  tag_127\n    /* \"#utility.yul\":6763:6785   */\n  tag_128\n    /* \"#utility.yul\":6781:6784   */\n  dup6\n    /* \"#utility.yul\":6763:6785   */\n  tag_30\n  jump\t// in\ntag_128:\n    /* \"#utility.yul\":6753:6761   */\n  dup4\n    /* \"#utility.yul\":6749:6786   */\n  add\n    /* \"#utility.yul\":6736:6747   */\n  dup3\n    /* \"#utility.yul\":6707:6787   */\n  tag_40\n  jump\t// in\ntag_127:\n    /* \"#utility.yul\":6366:6797   */\n  pop\n  pop\n    /* \"#utility.yul\":6351:6797   */\ntag_123:\n    /* \"#utility.yul\":6261:6804   */\n  pop\n  pop\n  pop\n  jump\t// out\n    /* \"#utility.yul\":6810:6927   */\ntag_42:\n    /* \"#utility.yul\":6864:6872   */\n  0x00\n    /* \"#utility.yul\":6914:6919   */\n  dup3\n    /* \"#utility.yul\":6908:6912   */\n  dup3\n    /* \"#utility.yul\":6904:6920   */\n  shr\n    /* \"#utility.yul\":6883:6920   */\n  swap1\n  pop\n    /* \"#utility.yul\":6810:6927   */\n  swap3\n  swap2\n  pop\n  pop\n  jump\t// out\n    /* \"#utility.yul\":6933:7102   */\ntag_43:\n    /* \"#utility.yul\":6977:6983   */\n  0x00\n    /* \"#utility.yul\":7010:7061   */\n  tag_131\n    /* \"#utility.yul\":7058:7059   */\n  0x00\n    /* \"#utility.yul\":7054:7060   */\n  not\n    /* \"#utility.yul\":7046:7051   */\n  dup5\n    /* \"#utility.yul\":7043:7044   */\n  0x08\n    /* \"#utility.yul\":7039:7052   */\n  mul\n    /* \"#utility.yul\":7010:7061   */\n  tag_42\n  jump\t// in\ntag_131:\n    /* \"#utility.yul\":7006:7062   */\n  not\n    /* \"#utility.yul\":7091:7095   */\n  dup1\n    /* \"#utility.yul\":7085:7089   */\n  dup4\n    /* \"#utility.yul\":7081:7096   */\n  and\n    /* \"#utility.yul\":7071:7096   */\n  swap2\n  pop\n    /* \"#utility.yul\":6984:7102   */\n  pop\n    /* \"#utility.yul\":6933:7102   */\n  swap3\n  swap2\n  pop\n  pop\n  jump\t// out\n    /* \"#utility.yul\":7107:7402   */\ntag_44:\n    /* \"#utility.yul\":7183:7187   */\n  0x00\n    /* \"#utility.yul\":7329:7358   */\n  tag_133\n    /* \"#utility.yul\":7354:7357   */\n  dup4\n    /* \"#utility.yul\":7348:7352   */\n  dup4\n    /* \"#utility.yul\":7329:7358   */\n  tag_43\n  jump\t// in\ntag_133:\n    /* \"#utility.yul\":7321:7358   */\n  swap2\n  pop\n    /* \"#utility.yul\":7391:7394   */\n  dup3\n    /* \"#utility.yul\":7388:7389   */\n  0x02\n    /* \"#utility.yul\":7384:7395   */\n  mul\n    /* \"#utility.yul\":7378:7382   */\n  dup3\n    /* \"#utility.yul\":7375:7396   */\n  or\n    /* \"#utility.yul\":7367:7396   */\n  swap1\n  pop\n    /* \"#utility.yul\":7107:7402   */\n  swap3\n  swap2\n  pop\n  pop\n  jump\t// out\n    /* \"#utility.yul\":7407:8802   */\ntag_7:\n    /* \"#utility.yul\":7524:7561   */\n  tag_135\n    /* \"#utility.yul\":7557:7560   */\n  dup3\n    /* \"#utility.yul\":7524:7561   */\n  tag_26\n  jump\t// in\ntag_135:\n    /* \"#utility.yul\":7626:7644   */\n  0xffffffffffffffff\n    /* \"#utility.yul\":7618:7624   */\n  dup2\n    /* \"#utility.yul\":7615:7645   */\n  gt\n    /* \"#utility.yul\":7612:7668   */\n  iszero\n  tag_136\n  jumpi\n    /* \"#utility.yul\":7648:7666   */\n  tag_137\n  tag_19\n  jump\t// in\ntag_137:\n    /* \"#utility.yul\":7612:7668   */\ntag_136:\n    /* \"#utility.yul\":7692:7730   */\n  tag_138\n    /* \"#utility.yul\":7724:7728   */\n  dup3\n    /* \"#utility.yul\":7718:7729   */\n  sload\n    /* \"#utility.yul\":7692:7730   */\n  tag_28\n  jump\t// in\ntag_138:\n    /* \"#utility.yul\":7777:7844   */\n  tag_139\n    /* \"#utility.yul\":7837:7843   */\n  dup3\n    /* \"#utility.yul\":7829:7835   */\n  dup3\n    /* \"#utility.yul\":7823:7827   */\n  dup6\n    /* \"#utility.yul\":7777:7844   */\n  tag_41\n  jump\t// in\ntag_139:\n    /* \"#utility.yul\":7871:7872   */\n  0x00\n    /* \"#utility.yul\":7895:7899   */\n  0x20\n    /* \"#utility.yul\":7882:7899   */\n  swap1\n  pop\n    /* \"#utility.yul\":7927:7929   */\n  0x1f\n    /* \"#utility.yul\":7919:7925   */\n  dup4\n    /* \"#utility.yul\":7916:7930   */\n  gt\n    /* \"#utility.yul\":7944:7945   */\n  0x01\n    /* \"#utility.yul\":7939:8557   */\n  dup2\n  eq\n  tag_141\n  jumpi\n    /* \"#utility.yul\":8601:8602   */\n  0x00\n    /* \"#utility.yul\":8618:8624   */\n  dup5\n    /* \"#utility.yul\":8615:8692   */\n  iszero\n  tag_142\n  jumpi\n    /* \"#utility.yul\":8667:8676   */\n  dup3\n    /* \"#utility.yul\":8662:8665   */\n  dup8\n    /* \"#utility.yul\":8658:8677   */\n  add\n    /* \"#utility.yul\":8652:8678   */\n  mload\n    /* \"#utility.yul\":8643:8678   */\n  swap1\n  pop\n    /* \"#utility.yul\":8615:8692   */\ntag_142:\n    /* \"#utility.yul\":8718:8785   */\n  tag_143\n    /* \"#utility.yul\":8778:8784   */\n  dup6\n    /* \"#utility.yul\":8771:8776   */\n  dup3\n    /* \"#utility.yul\":8718:8785   */\n  tag_44\n  jump\t// in\ntag_143:\n    /* \"#utility.yul\":8712:8716   */\n  dup7\n    /* \"#utility.yul\":8705:8786   */\n  sstore\n    /* \"#utility.yul\":8574:8796   */\n  pop\n    /* \"#utility.yul\":7909:8796   */\n  jump(tag_140)\n    /* \"#utility.yul\":7939:8557   */\ntag_141:\n    /* \"#utility.yul\":7991:7995   */\n  0x1f\n    /* \"#utility.yul\":7987:7996   */\n  not\n    /* \"#utility.yul\":7979:7985   */\n  dup5\n    /* \"#utility.yul\":7975:7997   */\n  and\n    /* \"#utility.yul\":8025:8062   */\n  tag_144\n    /* \"#utility.yul\":8057:8061   */\n  dup7\n    /* \"#utility.yul\":8025:8062   */\n  tag_29\n  jump\t// in\ntag_144:\n    /* \"#utility.yul\":8084:8085   */\n  0x00\n    /* \"#utility.yul\":8098:8306   */\ntag_145:\n    /* \"#utility.yul\":8112:8119   */\n  dup3\n    /* \"#utility.yul\":8109:8110   */\n  dup2\n    /* \"#utility.yul\":8106:8120   */\n  lt\n    /* \"#utility.yul\":8098:8306   */\n  iszero\n  tag_147\n  jumpi\n    /* \"#utility.yul\":8191:8200   */\n  dup5\n    /* \"#utility.yul\":8186:8189   */\n  dup10\n    /* \"#utility.yul\":8182:8201   */\n  add\n    /* \"#utility.yul\":8176:8202   */\n  mload\n    /* \"#utility.yul\":8168:8174   */\n  dup3\n    /* \"#utility.yul\":8161:8203   */\n  sstore\n    /* \"#utility.yul\":8242:8243   */\n  0x01\n    /* \"#utility.yul\":8234:8240   */\n  dup3\n    /* \"#utility.yul\":8230:8244   */\n  add\n    /* \"#utility.yul\":8220:8244   */\n  swap2\n  pop\n    /* \"#utility.yul\":8289:8291   */\n  0x20\n    /* \"#utility.yul\":8278:8287   */\n  dup6\n    /* \"#utility.yul\":8274:8292   */\n  add\n    /* \"#utility.yul\":8261:8292   */\n  swap5\n  pop\n    /* \"#utility.yul\":8135:8139   */\n  0x20\n    /* \"#utility.yul\":8132:8133   */\n  dup2\n    /* \"#utility.yul\":8128:8140   */\n  add\n    /* \"#utility.yul\":8123:8140   */\n  swap1\n  pop\n    /* \"#utility.yul\":8098:8306   */\n  jump(tag_145)\ntag_147:\n    /* \"#utility.yul\":8334:8340   */\n  dup7\n    /* \"#utility.yul\":8325:8332   */\n  dup4\n    /* \"#utility.yul\":8322:8341   */\n  lt\n    /* \"#utility.yul\":8319:8498   */\n  iszero\n  tag_148\n  jumpi\n    /* \"#utility.yul\":8392:8401   */\n  dup5\n    /* \"#utility.yul\":8387:8390   */\n  dup10\n    /* \"#utility.yul\":8383:8402   */\n  add\n    /* \"#utility.yul\":8377:8403   */\n  mload\n    /* \"#utility.yul\":8435:8483   */\n  tag_149\n    /* \"#utility.yul\":8477:8481   */\n  0x1f\n    /* \"#utility.yul\":8469:8475   */\n  dup10\n    /* \"#utility.yul\":8465:8482   */\n  and\n    /* \"#utility.yul\":8454:8463   */\n  dup3\n    /* \"#utility.yul\":8435:8483   */\n  tag_43\n  jump\t// in\ntag_149:\n    /* \"#utility.yul\":8427:8433   */\n  dup4\n    /* \"#utility.yul\":8420:8484   */\n  sstore\n    /* \"#utility.yul\":8342:8498   */\n  pop\n    /* \"#utility.yul\":8319:8498   */\ntag_148:\n    /* \"#utility.yul\":8544:8545   */\n  0x01\n    /* \"#utility.yul\":8540:8541   */\n  0x02\n    /* \"#utility.yul\":8532:8538   */\n  dup9\n    /* \"#utility.yul\":8528:8542   */\n  mul\n    /* \"#utility.yul\":8524:8546   */\n  add\n    /* \"#utility.yul\":8518:8522   */\n  dup9\n    /* \"#utility.yul\":8511:8547   */\n  sstore\n    /* \"#utility.yul\":7946:8557   */\n  pop\n  pop\n  pop\n    /* \"#utility.yul\":7909:8796   */\ntag_140:\n  pop\n    /* \"#utility.yul\":7499:8802   */\n  pop\n  pop\n  pop\n    /* \"#utility.yul\":7407:8802   */\n  pop\n  pop\n  jump\t// out\n    /* \"OrgContract.sol\":57:1810  contract OrgContract {... */\ntag_8:\n  dataSize(sub_0)\n  dup1\n  dataOffset(sub_0)\n  0x00\n  codecopy\n  0x00\n  return\nstop\n\nsub_0: assembly {\n        /* \"OrgContract.sol\":57:1810  contract OrgContract {... */\n      mstore(0x40, 0x80)\n      callvalue\n      dup1\n      iszero\n      tag_1\n      jumpi\n      revert(0x00, 0x00)\n    tag_1:\n      pop\n      jumpi(tag_2, lt(calldatasize, 0x04))\n      shr(0xe0, calldataload(0x00))\n      dup1\n      0x4c4dc6e0\n      gt\n      tag_11\n      jumpi\n      dup1\n      0x4c4dc6e0\n      eq\n      tag_7\n      jumpi\n      dup1\n      0x59543973\n      eq\n      tag_8\n      jumpi\n      dup1\n      0x69e354a7\n      eq\n      tag_9\n      jumpi\n      dup1\n      0xc2ed2b05\n      eq\n      tag_10\n      jumpi\n      jump(tag_2)\n    tag_11:\n      dup1\n      0x1386dc2d\n      eq\n      tag_3\n      jumpi\n      dup1\n      0x24e96df6\n      eq\n      tag_4\n      jumpi\n      dup1\n      0x3f9b250a\n      eq\n      tag_5\n      jumpi\n      dup1\n      0x4464fe33\n      eq\n      tag_6\n      jumpi\n    tag_2:\n      revert(0x00, 0x00)\n        /* \"OrgContract.sol\":113:134  string public orgName */\n    tag_3:\n      tag_12\n      tag_13\n      jump\t// in\n    tag_12:\n      mload(0x40)\n      tag_14\n      swap2\n      swap1\n      tag_15\n      jump\t// in\n    tag_14:\n      mload(0x40)\n      dup1\n      swap2\n      sub\n      swap1\n      return\n        /* \"OrgContract.sol\":1195:1477  function verifyDocument(uint256 _docId, bool approve) external onlyOrgAdmin {... */\n    tag_4:\n      tag_16\n      0x04\n      dup1\n      calldatasize\n      sub\n      dup2\n      add\n      swap1\n      tag_17\n      swap2\n      swap1\n      tag_18\n      jump\t// in\n    tag_17:\n      tag_19\n      jump\t// in\n    tag_16:\n      stop\n        /* \"OrgContract.sol\":1483:1601  function getDocument(uint256 _docId) external view returns (Document memory) {... */\n    tag_5:\n      tag_20\n      0x04\n      dup1\n      calldatasize\n      sub\n      dup2\n      add\n      swap1\n      tag_21\n      swap2\n      swap1\n      tag_22\n      jump\t// in\n    tag_21:\n      tag_23\n      jump\t// in\n    tag_20:\n      mload(0x40)\n      tag_24\n      swap2\n      swap1\n      tag_25\n      jump\t// in\n    tag_24:\n      mload(0x40)\n      dup1\n      swap2\n      sub\n      swap1\n      return\n        /* \"OrgContract.sol\":796:1189  function uploadDocument(string memory _cid, string memory _docType) external {... */\n    tag_6:\n      tag_26\n      0x04\n      dup1\n      calldatasize\n      sub\n      dup2\n      add\n      swap1\n      tag_27\n      swap2\n      swap1\n      tag_28\n      jump\t// in\n    tag_27:\n      tag_29\n      jump\t// in\n    tag_26:\n      stop\n        /* \"OrgContract.sol\":393:416  uint256 public docCount */\n    tag_7:\n      tag_30\n      tag_31\n      jump\t// in\n    tag_30:\n      mload(0x40)\n      tag_32\n      swap2\n      swap1\n      tag_33\n      jump\t// in\n    tag_32:\n      mload(0x40)\n      dup1\n      swap2\n      sub\n      swap1\n      return\n        /* \"OrgContract.sol\":84:107  address public orgAdmin */\n    tag_8:\n      tag_34\n      tag_35\n      jump\t// in\n    tag_34:\n      mload(0x40)\n      tag_36\n      swap2\n      swap1\n      tag_37\n      jump\t// in\n    tag_36:\n      mload(0x40)\n      dup1\n      swap2\n      sub\n      swap1\n      return\n        /* \"OrgContract.sol\":1607:1808  function getDocumentCID(uint256 _docId) external view returns (string memory) {... */\n    tag_9:\n      tag_38\n      0x04\n      dup1\n      calldatasize\n      sub\n      dup2\n      add\n      swap1\n      tag_39\n      swap2\n      swap1\n      tag_22\n      jump\t// in\n    tag_39:\n      tag_40\n      jump\t// in\n    tag_38:\n      mload(0x40)\n      tag_41\n      swap2\n      swap1\n      tag_15\n      jump\t// in\n    tag_41:\n      mload(0x40)\n      dup1\n      swap2\n      sub\n      swap1\n      return\n        /* \"OrgContract.sol\":342:387  mapping(uint256 => Document) public documents */\n    tag_10:\n      tag_42\n      0x04\n      dup1\n      calldatasize\n      sub\n      dup2\n      add\n      swap1\n      tag_43\n      swap2\n      swap1\n      tag_22\n      jump\t// in\n    tag_43:\n      tag_44\n      jump\t// in\n    tag_42:\n      mload(0x40)\n      tag_45\n      swap6\n      swap5\n      swap4\n      swap3\n      swap2\n      swap1\n      tag_46\n      jump\t// in\n    tag_45:\n      mload(0x40)\n      dup1\n      swap2\n      sub\n      swap1\n      return\n        /* \"OrgContract.sol\":113:134  string public orgName */\n    tag_13:\n      0x01\n      dup1\n      sload\n      tag_47\n      swap1\n      tag_48\n      jump\t// in\n    tag_47:\n      dup1\n      0x1f\n      add\n      0x20\n      dup1\n      swap2\n      div\n      mul\n      0x20\n      add\n      mload(0x40)\n      swap1\n      dup2\n      add\n      0x40\n      mstore\n      dup1\n      swap3\n      swap2\n      swap1\n      dup2\n      dup2\n      mstore\n      0x20\n      add\n      dup3\n      dup1\n      sload\n      tag_49\n      swap1\n      tag_48\n      jump\t// in\n    tag_49:\n      dup1\n      iszero\n      tag_50\n      jumpi\n      dup1\n      0x1f\n      lt\n      tag_51\n      jumpi\n      0x0100\n      dup1\n      dup4\n      sload\n      div\n      mul\n      dup4\n      mstore\n      swap2\n      0x20\n      add\n      swap2\n      jump(tag_50)\n    tag_51:\n      dup3\n      add\n      swap2\n      swap1\n      0x00\n      mstore\n      keccak256(0x00, 0x20)\n      swap1\n    tag_52:\n      dup2\n      sload\n      dup2\n      mstore\n      swap1\n      0x01\n      add\n      swap1\n      0x20\n      add\n      dup1\n      dup4\n      gt\n      tag_52\n      jumpi\n      dup3\n      swap1\n      sub\n      0x1f\n      and\n      dup3\n      add\n      swap2\n    tag_50:\n      pop\n      pop\n      pop\n      pop\n      pop\n      dup2\n      jump\t// out\n        /* \"OrgContract.sol\":1195:1477  function verifyDocument(uint256 _docId, bool approve) external onlyOrgAdmin {... */\n    tag_19:\n        /* \"OrgContract.sol\":631:639  orgAdmin */\n      0x00\n      0x00\n      swap1\n      sload\n      swap1\n      0x0100\n      exp\n      swap1\n      div\n      0xffffffffffffffffffffffffffffffffffffffff\n      and\n        /* \"OrgContract.sol\":617:639  msg.sender == orgAdmin */\n      0xffffffffffffffffffffffffffffffffffffffff\n      and\n        /* \"OrgContract.sol\":617:627  msg.sender */\n      caller\n        /* \"OrgContract.sol\":617:639  msg.sender == orgAdmin */\n      0xffffffffffffffffffffffffffffffffffffffff\n      and\n      eq\n        /* \"OrgContract.sol\":609:658  require(msg.sender == orgAdmin, \"Only Org Admin\") */\n      tag_54\n      jumpi\n      mload(0x40)\n      0x08c379a000000000000000000000000000000000000000000000000000000000\n      dup2\n      mstore\n      0x04\n      add\n      tag_55\n      swap1\n      tag_56\n      jump\t// in\n    tag_55:\n      mload(0x40)\n      dup1\n      swap2\n      sub\n      swap1\n      revert\n    tag_54:\n        /* \"OrgContract.sol\":1298:1306  docCount */\n      sload(0x03)\n        /* \"OrgContract.sol\":1289:1295  _docId */\n      dup3\n        /* \"OrgContract.sol\":1289:1306  _docId < docCount */\n      lt\n        /* \"OrgContract.sol\":1281:1325  require(_docId < docCount, \"Invalid Doc ID\") */\n      tag_58\n      jumpi\n      mload(0x40)\n      0x08c379a000000000000000000000000000000000000000000000000000000000\n      dup2\n      mstore\n      0x04\n      add\n      tag_59\n      swap1\n      tag_60\n      jump\t// in\n    tag_59:\n      mload(0x40)\n      dup1\n      swap2\n      sub\n      swap1\n      revert\n    tag_58:\n        /* \"OrgContract.sol\":1362:1369  approve */\n      dup1\n        /* \"OrgContract.sol\":1362:1405  approve ? Status.Approved : Status.Rejected */\n      tag_61\n      jumpi\n        /* \"OrgContract.sol\":1390:1405  Status.Rejected */\n      0x02\n        /* \"OrgContract.sol\":1362:1405  approve ? Status.Approved : Status.Rejected */\n      jump(tag_62)\n    tag_61:\n        /* \"OrgContract.sol\":1372:1387  Status.Approved */\n      0x01\n        /* \"OrgContract.sol\":1362:1405  approve ? Status.Approved : Status.Rejected */\n    tag_62:\n        /* \"OrgContract.sol\":1335:1344  documents */\n      0x02\n        /* \"OrgContract.sol\":1335:1352  documents[_docId] */\n      0x00\n        /* \"OrgContract.sol\":1345:1351  _docId */\n      dup5\n        /* \"OrgContract.sol\":1335:1352  documents[_docId] */\n      dup2\n      mstore\n      0x20\n      add\n      swap1\n      dup2\n      mstore\n      0x20\n      add\n      0x00\n      keccak256\n        /* \"OrgContract.sol\":1335:1359  documents[_docId].status */\n      0x02\n      add\n      0x14\n        /* \"OrgContract.sol\":1335:1405  documents[_docId].status = approve ? Status.Approved : Status.Rejected */\n      0x0100\n      exp\n      dup2\n      sload\n      dup2\n      0xff\n      mul\n      not\n      and\n      swap1\n      dup4\n      0x02\n      dup2\n      gt\n      iszero\n      tag_63\n      jumpi\n      tag_64\n      tag_65\n      jump\t// in\n    tag_64:\n    tag_63:\n      mul\n      or\n      swap1\n      sstore\n      pop\n        /* \"OrgContract.sol\":1420:1470  DocumentVerified(_docId, documents[_docId].status) */\n      0xeff1a80370380c097589f0264e193d46222591e1290548b7cf90b0a1a17ece81\n        /* \"OrgContract.sol\":1437:1443  _docId */\n      dup3\n        /* \"OrgContract.sol\":1445:1454  documents */\n      0x02\n        /* \"OrgContract.sol\":1445:1462  documents[_docId] */\n      0x00\n        /* \"OrgContract.sol\":1455:1461  _docId */\n      dup6\n        /* \"OrgContract.sol\":1445:1462  documents[_docId] */\n      dup2\n      mstore\n      0x20\n      add\n      swap1\n      dup2\n      mstore\n      0x20\n      add\n      0x00\n      keccak256\n        /* \"OrgContract.sol\":1445:1469  documents[_docId].status */\n      0x02\n      add\n      0x14\n      swap1\n      sload\n      swap1\n      0x0100\n      exp\n      swap1\n      div\n      0xff\n      and\n        /* \"OrgContract.sol\":1420:1470  DocumentVerified(_docId, documents[_docId].status) */\n      mload(0x40)\n      tag_66\n      swap3\n      swap2\n      swap1\n      tag_67\n      jump\t// in\n    tag_66:\n      mload(0x40)\n      dup1\n      swap2\n      sub\n      swap1\n      log1\n        /* \"OrgContract.sol\":1195:1477  function verifyDocument(uint256 _docId, bool approve) external onlyOrgAdmin {... */\n      pop\n      pop\n      jump\t// out\n        /* \"OrgContract.sol\":1483:1601  function getDocument(uint256 _docId) external view returns (Document memory) {... */\n    tag_23:\n        /* \"OrgContract.sol\":1543:1558  Document memory */\n      tag_68\n      tag_69\n      jump\t// in\n    tag_68:\n        /* \"OrgContract.sol\":1577:1586  documents */\n      0x02\n        /* \"OrgContract.sol\":1577:1594  documents[_docId] */\n      0x00\n        /* \"OrgContract.sol\":1587:1593  _docId */\n      dup4\n        /* \"OrgContract.sol\":1577:1594  documents[_docId] */\n      dup2\n      mstore\n      0x20\n      add\n      swap1\n      dup2\n      mstore\n      0x20\n      add\n      0x00\n      keccak256\n        /* \"OrgContract.sol\":1570:1594  return documents[_docId] */\n      mload(0x40)\n      dup1\n      0xa0\n      add\n      0x40\n      mstore\n      swap1\n      dup2\n      0x00\n      dup3\n      add\n      dup1\n      sload\n      tag_71\n      swap1\n      tag_48\n      jump\t// in\n    tag_71:\n      dup1\n      0x1f\n      add\n      0x20\n      dup1\n      swap2\n      div\n      mul\n      0x20\n      add\n      mload(0x40)\n      swap1\n      dup2\n      add\n      0x40\n      mstore\n      dup1\n      swap3\n      swap2\n      swap1\n      dup2\n      dup2\n      mstore\n      0x20\n      add\n      dup3\n      dup1\n      sload\n      tag_72\n      swap1\n      tag_48\n      jump\t// in\n    tag_72:\n      dup1\n      iszero\n      tag_73\n      jumpi\n      dup1\n      0x1f\n      lt\n      tag_74\n      jumpi\n      0x0100\n      dup1\n      dup4\n      sload\n      div\n      mul\n      dup4\n      mstore\n      swap2\n      0x20\n      add\n      swap2\n      jump(tag_73)\n    tag_74:\n      dup3\n      add\n      swap2\n      swap1\n      0x00\n      mstore\n      keccak256(0x00, 0x20)\n      swap1\n    tag_75:\n      dup2\n      sload\n      dup2\n      mstore\n      swap1\n      0x01\n      add\n      swap1\n      0x20\n      add\n      dup1\n      dup4\n      gt\n      tag_75\n      jumpi\n      dup3\n      swap1\n      sub\n      0x1f\n      and\n      dup3\n      add\n      swap2\n    tag_73:\n      pop\n      pop\n      pop\n      pop\n      pop\n      dup2\n      mstore\n      0x20\n      add\n      0x01\n      dup3\n      add\n      dup1\n      sload\n      tag_76\n      swap1\n      tag_48\n      jump\t// in\n    tag_76:\n      dup1\n      0x1f\n      add\n      0x20\n      dup1\n      swap2\n      div\n      mul\n      0x20\n      add\n      mload(0x40)\n      swap1\n      dup2\n      add\n      0x40\n      mstore\n      dup1\n      swap3\n      swap2\n      swap1\n      dup2\n      dup2\n      mstore\n      0x20\n      add\n      dup3\n      dup1\n      sload\n      tag_77\n      swap1\n      tag_48\n      jump\t// in\n    tag_77:\n      dup1\n      iszero\n      tag_78\n      jumpi\n      dup1\n      0x1f\n      lt\n      tag_79\n      jumpi\n      0x0100\n      dup1\n      dup4\n      sload\n      div\n      mul\n      dup4\n      mstore\n      swap2\n      0x20\n      add\n      swap2\n      jump(tag_78)\n    tag_79:\n      dup3\n      add\n      swap2\n      swap1\n      0x00\n      mstore\n      keccak256(0x00, 0x20)\n      swap1\n    tag_80:\n      dup2\n      sload\n      dup2\n      mstore\n      swap1\n      0x01\n      add\n      swap1\n      0x20\n      add\n      dup1\n      dup4\n      gt\n      tag_80\n      jumpi\n      dup3\n      swap1\n      sub\n      0x1f\n      and\n      dup3\n      add\n      swap2\n    tag_78:\n      pop\n      pop\n      pop\n      pop\n      pop\n      dup2\n      mstore\n      0x20\n      add\n      0x02\n      dup3\n      add\n      0x00\n      swap1\n      sload\n      swap1\n      0x0100\n      exp\n      swap1\n      div\n      0xffffffffffffffffffffffffffffffffffffffff\n      and\n      0xffffffffffffffffffffffffffffffffffffffff\n      and\n      0xffffffffffffffffffffffffffffffffffffffff\n      and\n      dup2\n      mstore\n      0x20\n      add\n      0x02\n      dup3\n      add\n      0x14\n      swap1\n      sload\n      swap1\n      0x0100\n      exp\n      swap1\n      div\n      0xff\n      and\n      0x02\n      dup2\n      gt\n      iszero\n      tag_81\n      jumpi\n      tag_82\n      tag_65\n      jump\t// in\n    tag_82:\n    tag_81:\n      0x02\n      dup2\n      gt\n      iszero\n      tag_83\n      jumpi\n      tag_84\n      tag_65\n      jump\t// in\n    tag_84:\n    tag_83:\n      dup2\n      mstore\n      0x20\n      add\n      0x03\n      dup3\n      add\n      sload\n      dup2\n      mstore\n      pop\n      pop\n      swap1\n      pop\n        /* \"OrgContract.sol\":1483:1601  function getDocument(uint256 _docId) external view returns (Document memory) {... */\n      swap2\n      swap1\n      pop\n      jump\t// out\n        /* \"OrgContract.sol\":796:1189  function uploadDocument(string memory _cid, string memory _docType) external {... */\n    tag_29:\n        /* \"OrgContract.sol\":905:1092  Document({... */\n      mload(0x40)\n      dup1\n      0xa0\n      add\n      0x40\n      mstore\n      dup1\n        /* \"OrgContract.sol\":933:937  _cid */\n      dup4\n        /* \"OrgContract.sol\":905:1092  Document({... */\n      dup2\n      mstore\n      0x20\n      add\n        /* \"OrgContract.sol\":960:968  _docType */\n      dup3\n        /* \"OrgContract.sol\":905:1092  Document({... */\n      dup2\n      mstore\n      0x20\n      add\n        /* \"OrgContract.sol\":994:1004  msg.sender */\n      caller\n        /* \"OrgContract.sol\":905:1092  Document({... */\n      0xffffffffffffffffffffffffffffffffffffffff\n      and\n      dup2\n      mstore\n      0x20\n      add\n        /* \"OrgContract.sol\":1026:1040  Status.Pending */\n      0x00\n        /* \"OrgContract.sol\":905:1092  Document({... */\n      0x02\n      dup2\n      gt\n      iszero\n      tag_86\n      jumpi\n      tag_87\n      tag_65\n      jump\t// in\n    tag_87:\n    tag_86:\n      dup2\n      mstore\n      0x20\n      add\n        /* \"OrgContract.sol\":1066:1081  block.timestamp */\n      timestamp\n        /* \"OrgContract.sol\":905:1092  Document({... */\n      dup2\n      mstore\n      pop\n        /* \"OrgContract.sol\":883:892  documents */\n      0x02\n        /* \"OrgContract.sol\":883:902  documents[docCount] */\n      0x00\n        /* \"OrgContract.sol\":893:901  docCount */\n      sload(0x03)\n        /* \"OrgContract.sol\":883:902  documents[docCount] */\n      dup2\n      mstore\n      0x20\n      add\n      swap1\n      dup2\n      mstore\n      0x20\n      add\n      0x00\n      keccak256\n        /* \"OrgContract.sol\":883:1092  documents[docCount] = Document({... */\n      0x00\n      dup3\n      add\n      mload\n      dup2\n      0x00\n      add\n      swap1\n      dup2\n      tag_88\n      swap2\n      swap1\n      tag_89\n      jump\t// in\n    tag_88:\n      pop\n      0x20\n      dup3\n      add\n      mload\n      dup2\n      0x01\n      add\n      swap1\n      dup2\n      tag_90\n      swap2\n      swap1\n      tag_89\n      jump\t// in\n    tag_90:\n      pop\n      0x40\n      dup3\n      add\n      mload\n      dup2\n      0x02\n      add\n      exp(0x0100, 0x00)\n      dup2\n      sload\n      dup2\n      0xffffffffffffffffffffffffffffffffffffffff\n      mul\n      not\n      and\n      swap1\n      dup4\n      0xffffffffffffffffffffffffffffffffffffffff\n      and\n      mul\n      or\n      swap1\n      sstore\n      pop\n      0x60\n      dup3\n      add\n      mload\n      dup2\n      0x02\n      add\n      exp(0x0100, 0x14)\n      dup2\n      sload\n      dup2\n      0xff\n      mul\n      not\n      and\n      swap1\n      dup4\n      0x02\n      dup2\n      gt\n      iszero\n      tag_91\n      jumpi\n      tag_92\n      tag_65\n      jump\t// in\n    tag_92:\n    tag_91:\n      mul\n      or\n      swap1\n      sstore\n      pop\n      0x80\n      dup3\n      add\n      mload\n      dup2\n      0x03\n      add\n      sstore\n      swap1\n      pop\n      pop\n        /* \"OrgContract.sol\":1135:1145  msg.sender */\n      caller\n        /* \"OrgContract.sol\":1108:1162  DocumentUploaded(docCount, msg.sender, _cid, _docType) */\n      0xffffffffffffffffffffffffffffffffffffffff\n      and\n      0xbc1a1ccf8342004af7abc5b367be5beb32916a886fa6a400ae874b3e5ebbc272\n        /* \"OrgContract.sol\":1125:1133  docCount */\n      sload(0x03)\n        /* \"OrgContract.sol\":1147:1151  _cid */\n      dup5\n        /* \"OrgContract.sol\":1153:1161  _docType */\n      dup5\n        /* \"OrgContract.sol\":1108:1162  DocumentUploaded(docCount, msg.sender, _cid, _docType) */\n      mload(0x40)\n      tag_93\n      swap4\n      swap3\n      swap2\n      swap1\n      tag_94\n      jump\t// in\n    tag_93:\n      mload(0x40)\n      dup1\n      swap2\n      sub\n      swap1\n      log2\n        /* \"OrgContract.sol\":1172:1180  docCount */\n      0x03\n      0x00\n        /* \"OrgContract.sol\":1172:1182  docCount++ */\n      dup2\n      sload\n      dup1\n      swap3\n      swap2\n      swap1\n      tag_95\n      swap1\n      tag_96\n      jump\t// in\n    tag_95:\n      swap2\n      swap1\n      pop\n      sstore\n      pop\n        /* \"OrgContract.sol\":796:1189  function uploadDocument(string memory _cid, string memory _docType) external {... */\n      pop\n      pop\n      jump\t// out\n        /* \"OrgContract.sol\":393:416  uint256 public docCount */\n    tag_31:\n      sload(0x03)\n      dup2\n      jump\t// out\n        /* \"OrgContract.sol\":84:107  address public orgAdmin */\n    tag_35:\n      0x00\n      0x00\n      swap1\n      sload\n      swap1\n      0x0100\n      exp\n      swap1\n      div\n      0xffffffffffffffffffffffffffffffffffffffff\n      and\n      dup2\n      jump\t// out\n        /* \"OrgContract.sol\":1607:1808  function getDocumentCID(uint256 _docId) external view returns (string memory) {... */\n    tag_40:\n        /* \"OrgContract.sol\":1670:1683  string memory */\n      0x60\n        /* \"OrgContract.sol\":1731:1746  Status.Approved */\n      0x01\n        /* \"OrgContract.sol\":1703:1746  documents[_docId].status == Status.Approved */\n      0x02\n      dup2\n      gt\n      iszero\n      tag_98\n      jumpi\n      tag_99\n      tag_65\n      jump\t// in\n    tag_99:\n    tag_98:\n        /* \"OrgContract.sol\":1703:1712  documents */\n      0x02\n        /* \"OrgContract.sol\":1703:1720  documents[_docId] */\n      0x00\n        /* \"OrgContract.sol\":1713:1719  _docId */\n      dup5\n        /* \"OrgContract.sol\":1703:1720  documents[_docId] */\n      dup2\n      mstore\n      0x20\n      add\n      swap1\n      dup2\n      mstore\n      0x20\n      add\n      0x00\n      keccak256\n        /* \"OrgContract.sol\":1703:1727  documents[_docId].status */\n      0x02\n      add\n      0x14\n      swap1\n      sload\n      swap1\n      0x0100\n      exp\n      swap1\n      div\n      0xff\n      and\n        /* \"OrgContract.sol\":1703:1746  documents[_docId].status == Status.Approved */\n      0x02\n      dup2\n      gt\n      iszero\n      tag_100\n      jumpi\n      tag_101\n      tag_65\n      jump\t// in\n    tag_101:\n    tag_100:\n      eq\n        /* \"OrgContract.sol\":1695:1763  require(documents[_docId].status == Status.Approved, \"Not verified\") */\n      tag_102\n      jumpi\n      mload(0x40)\n      0x08c379a000000000000000000000000000000000000000000000000000000000\n      dup2\n      mstore\n      0x04\n      add\n      tag_103\n      swap1\n      tag_104\n      jump\t// in\n    tag_103:\n      mload(0x40)\n      dup1\n      swap2\n      sub\n      swap1\n      revert\n    tag_102:\n        /* \"OrgContract.sol\":1780:1789  documents */\n      0x02\n        /* \"OrgContract.sol\":1780:1797  documents[_docId] */\n      0x00\n        /* \"OrgContract.sol\":1790:1796  _docId */\n      dup4\n        /* \"OrgContract.sol\":1780:1797  documents[_docId] */\n      dup2\n      mstore\n      0x20\n      add\n      swap1\n      dup2\n      mstore\n      0x20\n      add\n      0x00\n      keccak256\n        /* \"OrgContract.sol\":1780:1801  documents[_docId].cid */\n      0x00\n      add\n        /* \"OrgContract.sol\":1773:1801  return documents[_docId].cid */\n      dup1\n      sload\n      tag_105\n      swap1\n      tag_48\n      jump\t// in\n    tag_105:\n      dup1\n      0x1f\n      add\n      0x20\n      dup1\n      swap2\n      div\n      mul\n      0x20\n      add\n      mload(0x40)\n      swap1\n      dup2\n      add\n      0x40\n      mstore\n      dup1\n      swap3\n      swap2\n      swap1\n      dup2\n      dup2\n      mstore\n      0x20\n      add\n      dup3\n      dup1\n      sload\n      tag_106\n      swap1\n      tag_48\n      jump\t// in\n    tag_106:\n      dup1\n      iszero\n      tag_107\n      jumpi\n      dup1\n      0x1f\n      lt\n      tag_108\n      jumpi\n      0x0100\n      dup1\n      dup4\n      sload\n      div\n      mul\n      dup4\n      mstore\n      swap2\n      0x20\n      add\n      swap2\n      jump(tag_107)\n    tag_108:\n      dup3\n      add\n      swap2\n      swap1\n      0x00\n      mstore\n      keccak256(0x00, 0x20)\n      swap1\n    tag_109:\n      dup2\n      sload\n      dup2\n      mstore\n      swap1\n      0x01\n      add\n      swap1\n      0x20\n      add\n      dup1\n      dup4\n      gt\n      tag_109\n      jumpi\n      dup3\n      swap1\n      sub\n      0x1f\n      and\n      dup3\n      add\n      swap2\n    tag_107:\n      pop\n      pop\n      pop\n      pop\n      pop\n      swap1\n      pop\n        /* \"OrgContract.sol\":1607:1808  function getDocumentCID(uint256 _docId) external view returns (string memory) {... */\n      swap2\n      swap1\n      pop\n      jump\t// out\n        /* \"OrgContract.sol\":342:387  mapping(uint256 => Document) public documents */\n    tag_44:\n      mstore(0x20, 0x02)\n      dup1\n      0x00\n      mstore\n      keccak256(0x00, 0x40)\n      0x00\n      swap2\n      pop\n      swap1\n      pop\n      dup1\n      0x00\n      add\n      dup1\n      sload\n      tag_110\n      swap1\n      tag_48\n      jump\t// in\n    tag_110:\n      dup1\n      0x1f\n      add\n      0x20\n      dup1\n      swap2\n      div\n      mul\n      0x20\n      add\n      mload(0x40)\n      swap1\n      dup2\n      add\n      0x40\n      mstore\n      dup1\n      swap3\n      swap2\n      swap1\n      dup2\n      dup2\n      mstore\n      0x20\n      add\n      dup3\n      dup1\n      sload\n      tag_111\n      swap1\n      tag_48\n      jump\t// in\n    tag_111:\n      dup1\n      iszero\n      tag_112\n      jumpi\n      dup1\n      0x1f\n      lt\n      tag_113\n      jumpi\n      0x0100\n      dup1\n      dup4\n      sload\n      div\n      mul\n      dup4\n      mstore\n      swap2\n      0x20\n      add\n      swap2\n      jump(tag_112)\n    tag_113:\n      dup3\n      add\n      swap2\n      swap1\n      0x00\n      mstore\n      keccak256(0x00, 0x20)\n      swap1\n    tag_114:\n      dup2\n      sload\n      dup2\n      mstore\n      swap1\n      0x01\n      add\n      swap1\n      0x20\n      add\n      dup1\n      dup4\n      gt\n      tag_114\n      jumpi\n      dup3\n      swap1\n      sub\n      0x1f\n      and\n      dup3\n      add\n      swap2\n    tag_112:\n      pop\n      pop\n      pop\n      pop\n      pop\n      swap1\n      dup1\n      0x01\n      add\n      dup1\n      sload\n      tag_115\n      swap1\n      tag_48\n      jump\t// in\n    tag_115:\n      dup1\n      0x1f\n      add\n      0x20\n      dup1\n      swap2\n      div\n      mul\n      0x20\n      add\n      mload(0x40)\n      swap1\n      dup2\n      add\n      0x40\n      mstore\n      dup1\n      swap3\n      swap2\n      swap1\n      dup2\n      dup2\n      mstore\n      0x20\n      add\n      dup3\n      dup1\n      sload\n      tag_116\n      swap1\n      tag_48\n      jump\t// in\n    tag_116:\n      dup1\n      iszero\n      tag_117\n      jumpi\n      dup1\n      0x1f\n      lt\n      tag_118\n      jumpi\n      0x0100\n      dup1\n      dup4\n      sload\n      div\n      mul\n      dup4\n      mstore\n      swap2\n      0x20\n      add\n      swap2\n      jump(tag_117)\n    tag_118:\n      dup3\n      add\n      swap2\n      swap1\n      0x00\n      mstore\n      keccak256(0x00, 0x20)\n      swap1\n    tag_119:\n      dup2\n      sload\n      dup2\n      mstore\n      swap1\n      0x01\n      add\n      swap1\n      0x20\n      add\n      dup1\n      dup4\n      gt\n      tag_119\n      jumpi\n      dup3\n      swap1\n      sub\n      0x1f\n      and\n      dup3\n      add\n      swap2\n    tag_117:\n      pop\n      pop\n      pop\n      pop\n      pop\n      swap1\n      dup1\n      0x02\n      add\n      0x00\n      swap1\n      sload\n      swap1\n      0x0100\n      exp\n      swap1\n      div\n      0xffffffffffffffffffffffffffffffffffffffff\n      and\n      swap1\n      dup1\n      0x02\n      add\n      0x14\n      swap1\n      sload\n      swap1\n      0x0100\n      exp\n      swap1\n      div\n      0xff\n      and\n      swap1\n      dup1\n      0x03\n      add\n      sload\n      swap1\n      pop\n      dup6\n      jump\t// out\n    tag_69:\n      mload(0x40)\n      dup1\n      0xa0\n      add\n      0x40\n      mstore\n      dup1\n      0x60\n      dup2\n      mstore\n      0x20\n      add\n      0x60\n      dup2\n      mstore\n      0x20\n      add\n      and(0xffffffffffffffffffffffffffffffffffffffff, 0x00)\n      dup2\n      mstore\n      0x20\n      add\n      0x00\n      0x02\n      dup2\n      gt\n      iszero\n      tag_120\n      jumpi\n      tag_121\n      tag_65\n      jump\t// in\n    tag_121:\n    tag_120:\n      dup2\n      mstore\n      0x20\n      add\n      0x00\n      dup2\n      mstore\n      pop\n      swap1\n      jump\t// out\n        /* \"#utility.yul\":7:106   */\n    tag_122:\n        /* \"#utility.yul\":59:65   */\n      0x00\n        /* \"#utility.yul\":93:98   */\n      dup2\n        /* \"#utility.yul\":87:99   */\n      mload\n        /* \"#utility.yul\":77:99   */\n      swap1\n      pop\n        /* \"#utility.yul\":7:106   */\n      swap2\n      swap1\n      pop\n      jump\t// out\n        /* \"#utility.yul\":112:281   */\n    tag_123:\n        /* \"#utility.yul\":196:207   */\n      0x00\n        /* \"#utility.yul\":230:236   */\n      dup3\n        /* \"#utility.yul\":225:228   */\n      dup3\n        /* \"#utility.yul\":218:237   */\n      mstore\n        /* \"#utility.yul\":270:274   */\n      0x20\n        /* \"#utility.yul\":265:268   */\n      dup3\n        /* \"#utility.yul\":261:275   */\n      add\n        /* \"#utility.yul\":246:275   */\n      swap1\n      pop\n        /* \"#utility.yul\":112:281   */\n      swap3\n      swap2\n      pop\n      pop\n      jump\t// out\n        /* \"#utility.yul\":287:426   */\n    tag_124:\n        /* \"#utility.yul\":376:382   */\n      dup3\n        /* \"#utility.yul\":371:374   */\n      dup2\n        /* \"#utility.yul\":366:369   */\n      dup4\n        /* \"#utility.yul\":360:383   */\n      mcopy\n        /* \"#utility.yul\":417:418   */\n      0x00\n        /* \"#utility.yul\":408:414   */\n      dup4\n        /* \"#utility.yul\":403:406   */\n      dup4\n        /* \"#utility.yul\":399:415   */\n      add\n        /* \"#utility.yul\":392:419   */\n      mstore\n        /* \"#utility.yul\":287:426   */\n      pop\n      pop\n      pop\n      jump\t// out\n        /* \"#utility.yul\":432:534   */\n    tag_125:\n        /* \"#utility.yul\":473:479   */\n      0x00\n        /* \"#utility.yul\":524:526   */\n      0x1f\n        /* \"#utility.yul\":520:527   */\n      not\n        /* \"#utility.yul\":515:517   */\n      0x1f\n        /* \"#utility.yul\":508:513   */\n      dup4\n        /* \"#utility.yul\":504:518   */\n      add\n        /* \"#utility.yul\":500:528   */\n      and\n        /* \"#utility.yul\":490:528   */\n      swap1\n      pop\n        /* \"#utility.yul\":432:534   */\n      swap2\n      swap1\n      pop\n      jump\t// out\n        /* \"#utility.yul\":540:917   */\n    tag_126:\n        /* \"#utility.yul\":628:631   */\n      0x00\n        /* \"#utility.yul\":656:695   */\n      tag_188\n        /* \"#utility.yul\":689:694   */\n      dup3\n        /* \"#utility.yul\":656:695   */\n      tag_122\n      jump\t// in\n    tag_188:\n        /* \"#utility.yul\":711:782   */\n      tag_189\n        /* \"#utility.yul\":775:781   */\n      dup2\n        /* \"#utility.yul\":770:773   */\n      dup6\n        /* \"#utility.yul\":711:782   */\n      tag_123\n      jump\t// in\n    tag_189:\n        /* \"#utility.yul\":704:782   */\n      swap4\n      pop\n        /* \"#utility.yul\":791:856   */\n      tag_190\n        /* \"#utility.yul\":849:855   */\n      dup2\n        /* \"#utility.yul\":844:847   */\n      dup6\n        /* \"#utility.yul\":837:841   */\n      0x20\n        /* \"#utility.yul\":830:835   */\n      dup7\n        /* \"#utility.yul\":826:842   */\n      add\n        /* \"#utility.yul\":791:856   */\n      tag_124\n      jump\t// in\n    tag_190:\n        /* \"#utility.yul\":881:910   */\n      tag_191\n        /* \"#utility.yul\":903:909   */\n      dup2\n        /* \"#utility.yul\":881:910   */\n      tag_125\n      jump\t// in\n    tag_191:\n        /* \"#utility.yul\":876:879   */\n      dup5\n        /* \"#utility.yul\":872:911   */\n      add\n        /* \"#utility.yul\":865:911   */\n      swap2\n      pop\n        /* \"#utility.yul\":632:917   */\n      pop\n        /* \"#utility.yul\":540:917   */\n      swap3\n      swap2\n      pop\n      pop\n      jump\t// out\n        /* \"#utility.yul\":923:1236   */\n    tag_15:\n        /* \"#utility.yul\":1036:1040   */\n      0x00\n        /* \"#utility.yul\":1074:1076   */\n      0x20\n        /* \"#utility.yul\":1063:1072   */\n      dup3\n        /* \"#utility.yul\":1059:1077   */\n      add\n        /* \"#utility.yul\":1051:1077   */\n      swap1\n      pop\n        /* \"#utility.yul\":1123:1132   */\n      dup2\n        /* \"#utility.yul\":1117:1121   */\n      dup2\n        /* \"#utility.yul\":1113:1133   */\n      sub\n        /* \"#utility.yul\":1109:1110   */\n      0x00\n        /* \"#utility.yul\":1098:1107   */\n      dup4\n        /* \"#utility.yul\":1094:1111   */\n      add\n        /* \"#utility.yul\":1087:1134   */\n      mstore\n        /* \"#utility.yul\":1151:1229   */\n      tag_193\n        /* \"#utility.yul\":1224:1228   */\n      dup2\n        /* \"#utility.yul\":1215:1221   */\n      dup5\n        /* \"#utility.yul\":1151:1229   */\n      tag_126\n      jump\t// in\n    tag_193:\n        /* \"#utility.yul\":1143:1229   */\n      swap1\n      pop\n        /* \"#utility.yul\":923:1236   */\n      swap3\n      swap2\n      pop\n      pop\n      jump\t// out\n        /* \"#utility.yul\":1242:1317   */\n    tag_127:\n        /* \"#utility.yul\":1275:1281   */\n      0x00\n        /* \"#utility.yul\":1308:1310   */\n      0x40\n        /* \"#utility.yul\":1302:1311   */\n      mload\n        /* \"#utility.yul\":1292:1311   */\n      swap1\n      pop\n        /* \"#utility.yul\":1242:1317   */\n      swap1\n      jump\t// out\n        /* \"#utility.yul\":1323:1440   */\n    tag_128:\n        /* \"#utility.yul\":1432:1433   */\n      0x00\n        /* \"#utility.yul\":1429:1430   */\n      0x00\n        /* \"#utility.yul\":1422:1434   */\n      revert\n        /* \"#utility.yul\":1446:1563   */\n    tag_129:\n        /* \"#utility.yul\":1555:1556   */\n      0x00\n        /* \"#utility.yul\":1552:1553   */\n      0x00\n        /* \"#utility.yul\":1545:1557   */\n      revert\n        /* \"#utility.yul\":1569:1646   */\n    tag_130:\n        /* \"#utility.yul\":1606:1613   */\n      0x00\n        /* \"#utility.yul\":1635:1640   */\n      dup2\n        /* \"#utility.yul\":1624:1640   */\n      swap1\n      pop\n        /* \"#utility.yul\":1569:1646   */\n      swap2\n      swap1\n      pop\n      jump\t// out\n        /* \"#utility.yul\":1652:1774   */\n    tag_131:\n        /* \"#utility.yul\":1725:1749   */\n      tag_199\n        /* \"#utility.yul\":1743:1748   */\n      dup2\n        /* \"#utility.yul\":1725:1749   */\n      tag_130\n      jump\t// in\n    tag_199:\n        /* \"#utility.yul\":1718:1723   */\n      dup2\n        /* \"#utility.yul\":1715:1750   */\n      eq\n        /* \"#utility.yul\":1705:1768   */\n      tag_200\n      jumpi\n        /* \"#utility.yul\":1764:1765   */\n      0x00\n        /* \"#utility.yul\":1761:1762   */\n      0x00\n        /* \"#utility.yul\":1754:1766   */\n      revert\n        /* \"#utility.yul\":1705:1768   */\n    tag_200:\n        /* \"#utility.yul\":1652:1774   */\n      pop\n      jump\t// out\n        /* \"#utility.yul\":1780:1919   */\n    tag_132:\n        /* \"#utility.yul\":1826:1831   */\n      0x00\n        /* \"#utility.yul\":1864:1870   */\n      dup2\n        /* \"#utility.yul\":1851:1871   */\n      calldataload\n        /* \"#utility.yul\":1842:1871   */\n      swap1\n      pop\n        /* \"#utility.yul\":1880:1913   */\n      tag_202\n        /* \"#utility.yul\":1907:1912   */\n      dup2\n        /* \"#utility.yul\":1880:1913   */\n      tag_131\n      jump\t// in\n    tag_202:\n        /* \"#utility.yul\":1780:1919   */\n      swap3\n      swap2\n      pop\n      pop\n      jump\t// out\n        /* \"#utility.yul\":1925:2015   */\n    tag_133:\n        /* \"#utility.yul\":1959:1966   */\n      0x00\n        /* \"#utility.yul\":2002:2007   */\n      dup2\n        /* \"#utility.yul\":1995:2008   */\n      iszero\n        /* \"#utility.yul\":1988:2009   */\n      iszero\n        /* \"#utility.yul\":1977:2009   */\n      swap1\n      pop\n        /* \"#utility.yul\":1925:2015   */\n      swap2\n      swap1\n      pop\n      jump\t// out\n        /* \"#utility.yul\":2021:2137   */\n    tag_134:\n        /* \"#utility.yul\":2091:2112   */\n      tag_205\n        /* \"#utility.yul\":2106:2111   */\n      dup2\n        /* \"#utility.yul\":2091:2112   */\n      tag_133\n      jump\t// in\n    tag_205:\n        /* \"#utility.yul\":2084:2089   */\n      dup2\n        /* \"#utility.yul\":2081:2113   */\n      eq\n        /* \"#utility.yul\":2071:2131   */\n      tag_206\n      jumpi\n        /* \"#utility.yul\":2127:2128   */\n      0x00\n        /* \"#utility.yul\":2124:2125   */\n      0x00\n        /* \"#utility.yul\":2117:2129   */\n      revert\n        /* \"#utility.yul\":2071:2131   */\n    tag_206:\n        /* \"#utility.yul\":2021:2137   */\n      pop\n      jump\t// out\n        /* \"#utility.yul\":2143:2276   */\n    tag_135:\n        /* \"#utility.yul\":2186:2191   */\n      0x00\n        /* \"#utility.yul\":2224:2230   */\n      dup2\n        /* \"#utility.yul\":2211:2231   */\n      calldataload\n        /* \"#utility.yul\":2202:2231   */\n      swap1\n      pop\n        /* \"#utility.yul\":2240:2270   */\n      tag_208\n        /* \"#utility.yul\":2264:2269   */\n      dup2\n        /* \"#utility.yul\":2240:2270   */\n      tag_134\n      jump\t// in\n    tag_208:\n        /* \"#utility.yul\":2143:2276   */\n      swap3\n      swap2\n      pop\n      pop\n      jump\t// out\n        /* \"#utility.yul\":2282:2750   */\n    tag_18:\n        /* \"#utility.yul\":2347:2353   */\n      0x00\n        /* \"#utility.yul\":2355:2361   */\n      0x00\n        /* \"#utility.yul\":2404:2406   */\n      0x40\n        /* \"#utility.yul\":2392:2401   */\n      dup4\n        /* \"#utility.yul\":2383:2390   */\n      dup6\n        /* \"#utility.yul\":2379:2402   */\n      sub\n        /* \"#utility.yul\":2375:2407   */\n      slt\n        /* \"#utility.yul\":2372:2491   */\n      iszero\n      tag_210\n      jumpi\n        /* \"#utility.yul\":2410:2489   */\n      tag_211\n      tag_128\n      jump\t// in\n    tag_211:\n        /* \"#utility.yul\":2372:2491   */\n    tag_210:\n        /* \"#utility.yul\":2530:2531   */\n      0x00\n        /* \"#utility.yul\":2555:2608   */\n      tag_212\n        /* \"#utility.yul\":2600:2607   */\n      dup6\n        /* \"#utility.yul\":2591:2597   */\n      dup3\n        /* \"#utility.yul\":2580:2589   */\n      dup7\n        /* \"#utility.yul\":2576:2598   */\n      add\n        /* \"#utility.yul\":2555:2608   */\n      tag_132\n      jump\t// in\n    tag_212:\n        /* \"#utility.yul\":2545:2608   */\n      swap3\n      pop\n        /* \"#utility.yul\":2501:2618   */\n      pop\n        /* \"#utility.yul\":2657:2659   */\n      0x20\n        /* \"#utility.yul\":2683:2733   */\n      tag_213\n        /* \"#utility.yul\":2725:2732   */\n      dup6\n        /* \"#utility.yul\":2716:2722   */\n      dup3\n        /* \"#utility.yul\":2705:2714   */\n      dup7\n        /* \"#utility.yul\":2701:2723   */\n      add\n        /* \"#utility.yul\":2683:2733   */\n      tag_135\n      jump\t// in\n    tag_213:\n        /* \"#utility.yul\":2673:2733   */\n      swap2\n      pop\n        /* \"#utility.yul\":2628:2743   */\n      pop\n        /* \"#utility.yul\":2282:2750   */\n      swap3\n      pop\n      swap3\n      swap1\n      pop\n      jump\t// out\n        /* \"#utility.yul\":2756:3085   */\n    tag_22:\n        /* \"#utility.yul\":2815:2821   */\n      0x00\n        /* \"#utility.yul\":2864:2866   */\n      0x20\n        /* \"#utility.yul\":2852:2861   */\n      dup3\n        /* \"#utility.yul\":2843:2850   */\n      dup5\n        /* \"#utility.yul\":2839:2862   */\n      sub\n        /* \"#utility.yul\":2835:2867   */\n      slt\n        /* \"#utility.yul\":2832:2951   */\n      iszero\n      tag_215\n      jumpi\n        /* \"#utility.yul\":2870:2949   */\n      tag_216\n      tag_128\n      jump\t// in\n    tag_216:\n        /* \"#utility.yul\":2832:2951   */\n    tag_215:\n        /* \"#utility.yul\":2990:2991   */\n      0x00\n        /* \"#utility.yul\":3015:3068   */\n      tag_217\n        /* \"#utility.yul\":3060:3067   */\n      dup5\n        /* \"#utility.yul\":3051:3057   */\n      dup3\n        /* \"#utility.yul\":3040:3049   */\n      dup6\n        /* \"#utility.yul\":3036:3058   */\n      add\n        /* \"#utility.yul\":3015:3068   */\n      tag_132\n      jump\t// in\n    tag_217:\n        /* \"#utility.yul\":3005:3068   */\n      swap2\n      pop\n        /* \"#utility.yul\":2961:3078   */\n      pop\n        /* \"#utility.yul\":2756:3085   */\n      swap3\n      swap2\n      pop\n      pop\n      jump\t// out\n        /* \"#utility.yul\":3091:3250   */\n    tag_136:\n        /* \"#utility.yul\":3165:3176   */\n      0x00\n        /* \"#utility.yul\":3199:3205   */\n      dup3\n        /* \"#utility.yul\":3194:3197   */\n      dup3\n        /* \"#utility.yul\":3187:3206   */\n      mstore\n        /* \"#utility.yul\":3239:3243   */\n      0x20\n        /* \"#utility.yul\":3234:3237   */\n      dup3\n        /* \"#utility.yul\":3230:3244   */\n      add\n        /* \"#utility.yul\":3215:3244   */\n      swap1\n      pop\n        /* \"#utility.yul\":3091:3250   */\n      swap3\n      swap2\n      pop\n      pop\n      jump\t// out\n        /* \"#utility.yul\":3256:3613   */\n    tag_137:\n        /* \"#utility.yul\":3334:3337   */\n      0x00\n        /* \"#utility.yul\":3362:3401   */\n      tag_220\n        /* \"#utility.yul\":3395:3400   */\n      dup3\n        /* \"#utility.yul\":3362:3401   */\n      tag_122\n      jump\t// in\n    tag_220:\n        /* \"#utility.yul\":3417:3478   */\n      tag_221\n        /* \"#utility.yul\":3471:3477   */\n      dup2\n        /* \"#utility.yul\":3466:3469   */\n      dup6\n        /* \"#utility.yul\":3417:3478   */\n      tag_136\n      jump\t// in\n    tag_221:\n        /* \"#utility.yul\":3410:3478   */\n      swap4\n      pop\n        /* \"#utility.yul\":3487:3552   */\n      tag_222\n        /* \"#utility.yul\":3545:3551   */\n      dup2\n        /* \"#utility.yul\":3540:3543   */\n      dup6\n        /* \"#utility.yul\":3533:3537   */\n      0x20\n        /* \"#utility.yul\":3526:3531   */\n      dup7\n        /* \"#utility.yul\":3522:3538   */\n      add\n        /* \"#utility.yul\":3487:3552   */\n      tag_124\n      jump\t// in\n    tag_222:\n        /* \"#utility.yul\":3577:3606   */\n      tag_223\n        /* \"#utility.yul\":3599:3605   */\n      dup2\n        /* \"#utility.yul\":3577:3606   */\n      tag_125\n      jump\t// in\n    tag_223:\n        /* \"#utility.yul\":3572:3575   */\n      dup5\n        /* \"#utility.yul\":3568:3607   */\n      add\n        /* \"#utility.yul\":3561:3607   */\n      swap2\n      pop\n        /* \"#utility.yul\":3338:3613   */\n      pop\n        /* \"#utility.yul\":3256:3613   */\n      swap3\n      swap2\n      pop\n      pop\n      jump\t// out\n        /* \"#utility.yul\":3619:3745   */\n    tag_138:\n        /* \"#utility.yul\":3656:3663   */\n      0x00\n        /* \"#utility.yul\":3696:3738   */\n      0xffffffffffffffffffffffffffffffffffffffff\n        /* \"#utility.yul\":3689:3694   */\n      dup3\n        /* \"#utility.yul\":3685:3739   */\n      and\n        /* \"#utility.yul\":3674:3739   */\n      swap1\n      pop\n        /* \"#utility.yul\":3619:3745   */\n      swap2\n      swap1\n      pop\n      jump\t// out\n        /* \"#utility.yul\":3751:3847   */\n    tag_139:\n        /* \"#utility.yul\":3788:3795   */\n      0x00\n        /* \"#utility.yul\":3817:3841   */\n      tag_226\n        /* \"#utility.yul\":3835:3840   */\n      dup3\n        /* \"#utility.yul\":3817:3841   */\n      tag_138\n      jump\t// in\n    tag_226:\n        /* \"#utility.yul\":3806:3841   */\n      swap1\n      pop\n        /* \"#utility.yul\":3751:3847   */\n      swap2\n      swap1\n      pop\n      jump\t// out\n        /* \"#utility.yul\":3853:3961   */\n    tag_140:\n        /* \"#utility.yul\":3930:3954   */\n      tag_228\n        /* \"#utility.yul\":3948:3953   */\n      dup2\n        /* \"#utility.yul\":3930:3954   */\n      tag_139\n      jump\t// in\n    tag_228:\n        /* \"#utility.yul\":3925:3928   */\n      dup3\n        /* \"#utility.yul\":3918:3955   */\n      mstore\n        /* \"#utility.yul\":3853:3961   */\n      pop\n      pop\n      jump\t// out\n        /* \"#utility.yul\":3967:4147   */\n    tag_65:\n        /* \"#utility.yul\":4015:4092   */\n      0x4e487b7100000000000000000000000000000000000000000000000000000000\n        /* \"#utility.yul\":4012:4013   */\n      0x00\n        /* \"#utility.yul\":4005:4093   */\n      mstore\n        /* \"#utility.yul\":4112:4116   */\n      0x21\n        /* \"#utility.yul\":4109:4110   */\n      0x04\n        /* \"#utility.yul\":4102:4117   */\n      mstore\n        /* \"#utility.yul\":4136:4140   */\n      0x24\n        /* \"#utility.yul\":4133:4134   */\n      0x00\n        /* \"#utility.yul\":4126:4141   */\n      revert\n        /* \"#utility.yul\":4153:4266   */\n    tag_141:\n        /* \"#utility.yul\":4234:4235   */\n      0x03\n        /* \"#utility.yul\":4227:4232   */\n      dup2\n        /* \"#utility.yul\":4224:4236   */\n      lt\n        /* \"#utility.yul\":4214:4260   */\n      tag_231\n      jumpi\n        /* \"#utility.yul\":4240:4258   */\n      tag_232\n      tag_65\n      jump\t// in\n    tag_232:\n        /* \"#utility.yul\":4214:4260   */\n    tag_231:\n        /* \"#utility.yul\":4153:4266   */\n      pop\n      jump\t// out\n        /* \"#utility.yul\":4272:4399   */\n    tag_142:\n        /* \"#utility.yul\":4317:4324   */\n      0x00\n        /* \"#utility.yul\":4346:4351   */\n      dup2\n        /* \"#utility.yul\":4335:4351   */\n      swap1\n      pop\n        /* \"#utility.yul\":4352:4393   */\n      tag_234\n        /* \"#utility.yul\":4387:4392   */\n      dup3\n        /* \"#utility.yul\":4352:4393   */\n      tag_141\n      jump\t// in\n    tag_234:\n        /* \"#utility.yul\":4272:4399   */\n      swap2\n      swap1\n      pop\n      jump\t// out\n        /* \"#utility.yul\":4405:4532   */\n    tag_143:\n        /* \"#utility.yul\":4461:4470   */\n      0x00\n        /* \"#utility.yul\":4494:4526   */\n      tag_236\n        /* \"#utility.yul\":4520:4525   */\n      dup3\n        /* \"#utility.yul\":4494:4526   */\n      tag_142\n      jump\t// in\n    tag_236:\n        /* \"#utility.yul\":4481:4526   */\n      swap1\n      pop\n        /* \"#utility.yul\":4405:4532   */\n      swap2\n      swap1\n      pop\n      jump\t// out\n        /* \"#utility.yul\":4538:4671   */\n    tag_144:\n        /* \"#utility.yul\":4621:4664   */\n      tag_238\n        /* \"#utility.yul\":4658:4663   */\n      dup2\n        /* \"#utility.yul\":4621:4664   */\n      tag_143\n      jump\t// in\n    tag_238:\n        /* \"#utility.yul\":4616:4619   */\n      dup3\n        /* \"#utility.yul\":4609:4665   */\n      mstore\n        /* \"#utility.yul\":4538:4671   */\n      pop\n      pop\n      jump\t// out\n        /* \"#utility.yul\":4677:4785   */\n    tag_145:\n        /* \"#utility.yul\":4754:4778   */\n      tag_240\n        /* \"#utility.yul\":4772:4777   */\n      dup2\n        /* \"#utility.yul\":4754:4778   */\n      tag_130\n      jump\t// in\n    tag_240:\n        /* \"#utility.yul\":4749:4752   */\n      dup3\n        /* \"#utility.yul\":4742:4779   */\n      mstore\n        /* \"#utility.yul\":4677:4785   */\n      pop\n      pop\n      jump\t// out\n        /* \"#utility.yul\":4857:6076   */\n    tag_146:\n        /* \"#utility.yul\":4974:4977   */\n      0x00\n        /* \"#utility.yul\":5010:5014   */\n      0xa0\n        /* \"#utility.yul\":5005:5008   */\n      dup4\n        /* \"#utility.yul\":5001:5015   */\n      add\n        /* \"#utility.yul\":5096:5100   */\n      0x00\n        /* \"#utility.yul\":5089:5094   */\n      dup4\n        /* \"#utility.yul\":5085:5101   */\n      add\n        /* \"#utility.yul\":5079:5102   */\n      mload\n        /* \"#utility.yul\":5149:5152   */\n      dup5\n        /* \"#utility.yul\":5143:5147   */\n      dup3\n        /* \"#utility.yul\":5139:5153   */\n      sub\n        /* \"#utility.yul\":5132:5136   */\n      0x00\n        /* \"#utility.yul\":5127:5130   */\n      dup7\n        /* \"#utility.yul\":5123:5137   */\n      add\n        /* \"#utility.yul\":5116:5154   */\n      mstore\n        /* \"#utility.yul\":5175:5248   */\n      tag_242\n        /* \"#utility.yul\":5243:5247   */\n      dup3\n        /* \"#utility.yul\":5229:5241   */\n      dup3\n        /* \"#utility.yul\":5175:5248   */\n      tag_137\n      jump\t// in\n    tag_242:\n        /* \"#utility.yul\":5167:5248   */\n      swap2\n      pop\n        /* \"#utility.yul\":5025:5259   */\n      pop\n        /* \"#utility.yul\":5344:5348   */\n      0x20\n        /* \"#utility.yul\":5337:5342   */\n      dup4\n        /* \"#utility.yul\":5333:5349   */\n      add\n        /* \"#utility.yul\":5327:5350   */\n      mload\n        /* \"#utility.yul\":5397:5400   */\n      dup5\n        /* \"#utility.yul\":5391:5395   */\n      dup3\n        /* \"#utility.yul\":5387:5401   */\n      sub\n        /* \"#utility.yul\":5380:5384   */\n      0x20\n        /* \"#utility.yul\":5375:5378   */\n      dup7\n        /* \"#utility.yul\":5371:5385   */\n      add\n        /* \"#utility.yul\":5364:5402   */\n      mstore\n        /* \"#utility.yul\":5423:5496   */\n      tag_243\n        /* \"#utility.yul\":5491:5495   */\n      dup3\n        /* \"#utility.yul\":5477:5489   */\n      dup3\n        /* \"#utility.yul\":5423:5496   */\n      tag_137\n      jump\t// in\n    tag_243:\n        /* \"#utility.yul\":5415:5496   */\n      swap2\n      pop\n        /* \"#utility.yul\":5269:5507   */\n      pop\n        /* \"#utility.yul\":5595:5599   */\n      0x40\n        /* \"#utility.yul\":5588:5593   */\n      dup4\n        /* \"#utility.yul\":5584:5600   */\n      add\n        /* \"#utility.yul\":5578:5601   */\n      mload\n        /* \"#utility.yul\":5614:5677   */\n      tag_244\n        /* \"#utility.yul\":5671:5675   */\n      0x40\n        /* \"#utility.yul\":5666:5669   */\n      dup7\n        /* \"#utility.yul\":5662:5676   */\n      add\n        /* \"#utility.yul\":5648:5660   */\n      dup3\n        /* \"#utility.yul\":5614:5677   */\n      tag_140\n      jump\t// in\n    tag_244:\n        /* \"#utility.yul\":5517:5687   */\n      pop\n        /* \"#utility.yul\":5771:5775   */\n      0x60\n        /* \"#utility.yul\":5764:5769   */\n      dup4\n        /* \"#utility.yul\":5760:5776   */\n      add\n        /* \"#utility.yul\":5754:5777   */\n      mload\n        /* \"#utility.yul\":5790:5859   */\n      tag_245\n        /* \"#utility.yul\":5853:5857   */\n      0x60\n        /* \"#utility.yul\":5848:5851   */\n      dup7\n        /* \"#utility.yul\":5844:5858   */\n      add\n        /* \"#utility.yul\":5830:5842   */\n      dup3\n        /* \"#utility.yul\":5790:5859   */\n      tag_144\n      jump\t// in\n    tag_245:\n        /* \"#utility.yul\":5697:5869   */\n      pop\n        /* \"#utility.yul\":5957:5961   */\n      0x80\n        /* \"#utility.yul\":5950:5955   */\n      dup4\n        /* \"#utility.yul\":5946:5962   */\n      add\n        /* \"#utility.yul\":5940:5963   */\n      mload\n        /* \"#utility.yul\":5976:6039   */\n      tag_246\n        /* \"#utility.yul\":6033:6037   */\n      0x80\n        /* \"#utility.yul\":6028:6031   */\n      dup7\n        /* \"#utility.yul\":6024:6038   */\n      add\n        /* \"#utility.yul\":6010:6022   */\n      dup3\n        /* \"#utility.yul\":5976:6039   */\n      tag_145\n      jump\t// in\n    tag_246:\n        /* \"#utility.yul\":5879:6049   */\n      pop\n        /* \"#utility.yul\":6066:6070   */\n      dup1\n        /* \"#utility.yul\":6059:6070   */\n      swap2\n      pop\n        /* \"#utility.yul\":4979:6076   */\n      pop\n        /* \"#utility.yul\":4857:6076   */\n      swap3\n      swap2\n      pop\n      pop\n      jump\t// out\n        /* \"#utility.yul\":6082:6451   */\n    tag_25:\n        /* \"#utility.yul\":6223:6227   */\n      0x00\n        /* \"#utility.yul\":6261:6263   */\n      0x20\n        /* \"#utility.yul\":6250:6259   */\n      dup3\n        /* \"#utility.yul\":6246:6264   */\n      add\n        /* \"#utility.yul\":6238:6264   */\n      swap1\n      pop\n        /* \"#utility.yul\":6310:6319   */\n      dup2\n        /* \"#utility.yul\":6304:6308   */\n      dup2\n        /* \"#utility.yul\":6300:6320   */\n      sub\n        /* \"#utility.yul\":6296:6297   */\n      0x00\n        /* \"#utility.yul\":6285:6294   */\n      dup4\n        /* \"#utility.yul\":6281:6298   */\n      add\n        /* \"#utility.yul\":6274:6321   */\n      mstore\n        /* \"#utility.yul\":6338:6444   */\n      tag_248\n        /* \"#utility.yul\":6439:6443   */\n      dup2\n        /* \"#utility.yul\":6430:6436   */\n      dup5\n        /* \"#utility.yul\":6338:6444   */\n      tag_146\n      jump\t// in\n    tag_248:\n        /* \"#utility.yul\":6330:6444   */\n      swap1\n      pop\n        /* \"#utility.yul\":6082:6451   */\n      swap3\n      swap2\n      pop\n      pop\n      jump\t// out\n        /* \"#utility.yul\":6457:6574   */\n    tag_147:\n        /* \"#utility.yul\":6566:6567   */\n      0x00\n        /* \"#utility.yul\":6563:6564   */\n      0x00\n        /* \"#utility.yul\":6556:6568   */\n      revert\n        /* \"#utility.yul\":6580:6697   */\n    tag_148:\n        /* \"#utility.yul\":6689:6690   */\n      0x00\n        /* \"#utility.yul\":6686:6687   */\n      0x00\n        /* \"#utility.yul\":6679:6691   */\n      revert\n        /* \"#utility.yul\":6703:6883   */\n    tag_149:\n        /* \"#utility.yul\":6751:6828   */\n      0x4e487b7100000000000000000000000000000000000000000000000000000000\n        /* \"#utility.yul\":6748:6749   */\n      0x00\n        /* \"#utility.yul\":6741:6829   */\n      mstore\n        /* \"#utility.yul\":6848:6852   */\n      0x41\n        /* \"#utility.yul\":6845:6846   */\n      0x04\n        /* \"#utility.yul\":6838:6853   */\n      mstore\n        /* \"#utility.yul\":6872:6876   */\n      0x24\n        /* \"#utility.yul\":6869:6870   */\n      0x00\n        /* \"#utility.yul\":6862:6877   */\n      revert\n        /* \"#utility.yul\":6889:7170   */\n    tag_150:\n        /* \"#utility.yul\":6972:6999   */\n      tag_253\n        /* \"#utility.yul\":6994:6998   */\n      dup3\n        /* \"#utility.yul\":6972:6999   */\n      tag_125\n      jump\t// in\n    tag_253:\n        /* \"#utility.yul\":6964:6970   */\n      dup2\n        /* \"#utility.yul\":6960:7000   */\n      add\n        /* \"#utility.yul\":7102:7108   */\n      dup2\n        /* \"#utility.yul\":7090:7100   */\n      dup2\n        /* \"#utility.yul\":7087:7109   */\n      lt\n        /* \"#utility.yul\":7066:7084   */\n      0xffffffffffffffff\n        /* \"#utility.yul\":7054:7064   */\n      dup3\n        /* \"#utility.yul\":7051:7085   */\n      gt\n        /* \"#utility.yul\":7048:7110   */\n      or\n        /* \"#utility.yul\":7045:7133   */\n      iszero\n      tag_254\n      jumpi\n        /* \"#utility.yul\":7113:7131   */\n      tag_255\n      tag_149\n      jump\t// in\n    tag_255:\n        /* \"#utility.yul\":7045:7133   */\n    tag_254:\n        /* \"#utility.yul\":7153:7163   */\n      dup1\n        /* \"#utility.yul\":7149:7151   */\n      0x40\n        /* \"#utility.yul\":7142:7164   */\n      mstore\n        /* \"#utility.yul\":6932:7170   */\n      pop\n        /* \"#utility.yul\":6889:7170   */\n      pop\n      pop\n      jump\t// out\n        /* \"#utility.yul\":7176:7305   */\n    tag_151:\n        /* \"#utility.yul\":7210:7216   */\n      0x00\n        /* \"#utility.yul\":7237:7257   */\n      tag_257\n      tag_127\n      jump\t// in\n    tag_257:\n        /* \"#utility.yul\":7227:7257   */\n      swap1\n      pop\n        /* \"#utility.yul\":7266:7299   */\n      tag_258\n        /* \"#utility.yul\":7294:7298   */\n      dup3\n        /* \"#utility.yul\":7286:7292   */\n      dup3\n        /* \"#utility.yul\":7266:7299   */\n      tag_150\n      jump\t// in\n    tag_258:\n        /* \"#utility.yul\":7176:7305   */\n      swap2\n      swap1\n      pop\n      jump\t// out\n        /* \"#utility.yul\":7311:7619   */\n    tag_152:\n        /* \"#utility.yul\":7373:7377   */\n      0x00\n        /* \"#utility.yul\":7463:7481   */\n      0xffffffffffffffff\n        /* \"#utility.yul\":7455:7461   */\n      dup3\n        /* \"#utility.yul\":7452:7482   */\n      gt\n        /* \"#utility.yul\":7449:7505   */\n      iszero\n      tag_260\n      jumpi\n        /* \"#utility.yul\":7485:7503   */\n      tag_261\n      tag_149\n      jump\t// in\n    tag_261:\n        /* \"#utility.yul\":7449:7505   */\n    tag_260:\n        /* \"#utility.yul\":7523:7552   */\n      tag_262\n        /* \"#utility.yul\":7545:7551   */\n      dup3\n        /* \"#utility.yul\":7523:7552   */\n      tag_125\n      jump\t// in\n    tag_262:\n        /* \"#utility.yul\":7515:7552   */\n      swap1\n      pop\n        /* \"#utility.yul\":7607:7611   */\n      0x20\n        /* \"#utility.yul\":7601:7605   */\n      dup2\n        /* \"#utility.yul\":7597:7612   */\n      add\n        /* \"#utility.yul\":7589:7612   */\n      swap1\n      pop\n        /* \"#utility.yul\":7311:7619   */\n      swap2\n      swap1\n      pop\n      jump\t// out\n        /* \"#utility.yul\":7625:7773   */\n    tag_153:\n        /* \"#utility.yul\":7723:7729   */\n      dup3\n        /* \"#utility.yul\":7718:7721   */\n      dup2\n        /* \"#utility.yul\":7713:7716   */\n      dup4\n        /* \"#utility.yul\":7700:7730   */\n      calldatacopy\n        /* \"#utility.yul\":7764:7765   */\n      0x00\n        /* \"#utility.yul\":7755:7761   */\n      dup4\n        /* \"#utility.yul\":7750:7753   */\n      dup4\n        /* \"#utility.yul\":7746:7762   */\n      add\n        /* \"#utility.yul\":7739:7766   */\n      mstore\n        /* \"#utility.yul\":7625:7773   */\n      pop\n      pop\n      pop\n      jump\t// out\n        /* \"#utility.yul\":7779:8204   */\n    tag_154:\n        /* \"#utility.yul\":7857:7862   */\n      0x00\n        /* \"#utility.yul\":7882:7948   */\n      tag_265\n        /* \"#utility.yul\":7898:7947   */\n      tag_266\n        /* \"#utility.yul\":7940:7946   */\n      dup5\n        /* \"#utility.yul\":7898:7947   */\n      tag_152\n      jump\t// in\n    tag_266:\n        /* \"#utility.yul\":7882:7948   */\n      tag_151\n      jump\t// in\n    tag_265:\n        /* \"#utility.yul\":7873:7948   */\n      swap1\n      pop\n        /* \"#utility.yul\":7971:7977   */\n      dup3\n        /* \"#utility.yul\":7964:7969   */\n      dup2\n        /* \"#utility.yul\":7957:7978   */\n      mstore\n        /* \"#utility.yul\":8009:8013   */\n      0x20\n        /* \"#utility.yul\":8002:8007   */\n      dup2\n        /* \"#utility.yul\":7998:8014   */\n      add\n        /* \"#utility.yul\":8047:8050   */\n      dup5\n        /* \"#utility.yul\":8038:8044   */\n      dup5\n        /* \"#utility.yul\":8033:8036   */\n      dup5\n        /* \"#utility.yul\":8029:8045   */\n      add\n        /* \"#utility.yul\":8026:8051   */\n      gt\n        /* \"#utility.yul\":8023:8135   */\n      iszero\n      tag_267\n      jumpi\n        /* \"#utility.yul\":8054:8133   */\n      tag_268\n      tag_148\n      jump\t// in\n    tag_268:\n        /* \"#utility.yul\":8023:8135   */\n    tag_267:\n        /* \"#utility.yul\":8144:8198   */\n      tag_269\n        /* \"#utility.yul\":8191:8197   */\n      dup5\n        /* \"#utility.yul\":8186:8189   */\n      dup3\n        /* \"#utility.yul\":8181:8184   */\n      dup6\n        /* \"#utility.yul\":8144:8198   */\n      tag_153\n      jump\t// in\n    tag_269:\n        /* \"#utility.yul\":7863:8204   */\n      pop\n        /* \"#utility.yul\":7779:8204   */\n      swap4\n      swap3\n      pop\n      pop\n      pop\n      jump\t// out\n        /* \"#utility.yul\":8224:8564   */\n    tag_155:\n        /* \"#utility.yul\":8280:8285   */\n      0x00\n        /* \"#utility.yul\":8329:8332   */\n      dup3\n        /* \"#utility.yul\":8322:8326   */\n      0x1f\n        /* \"#utility.yul\":8314:8320   */\n      dup4\n        /* \"#utility.yul\":8310:8327   */\n      add\n        /* \"#utility.yul\":8306:8333   */\n      slt\n        /* \"#utility.yul\":8296:8418   */\n      tag_271\n      jumpi\n        /* \"#utility.yul\":8337:8416   */\n      tag_272\n      tag_147\n      jump\t// in\n    tag_272:\n        /* \"#utility.yul\":8296:8418   */\n    tag_271:\n        /* \"#utility.yul\":8454:8460   */\n      dup2\n        /* \"#utility.yul\":8441:8461   */\n      calldataload\n        /* \"#utility.yul\":8479:8558   */\n      tag_273\n        /* \"#utility.yul\":8554:8557   */\n      dup5\n        /* \"#utility.yul\":8546:8552   */\n      dup3\n        /* \"#utility.yul\":8539:8543   */\n      0x20\n        /* \"#utility.yul\":8531:8537   */\n      dup7\n        /* \"#utility.yul\":8527:8544   */\n      add\n        /* \"#utility.yul\":8479:8558   */\n      tag_154\n      jump\t// in\n    tag_273:\n        /* \"#utility.yul\":8470:8558   */\n      swap2\n      pop\n        /* \"#utility.yul\":8286:8564   */\n      pop\n        /* \"#utility.yul\":8224:8564   */\n      swap3\n      swap2\n      pop\n      pop\n      jump\t// out\n        /* \"#utility.yul\":8570:9404   */\n    tag_28:\n        /* \"#utility.yul\":8658:8664   */\n      0x00\n        /* \"#utility.yul\":8666:8672   */\n      0x00\n        /* \"#utility.yul\":8715:8717   */\n      0x40\n        /* \"#utility.yul\":8703:8712   */\n      dup4\n        /* \"#utility.yul\":8694:8701   */\n      dup6\n        /* \"#utility.yul\":8690:8713   */\n      sub\n        /* \"#utility.yul\":8686:8718   */\n      slt\n        /* \"#utility.yul\":8683:8802   */\n      iszero\n      tag_275\n      jumpi\n        /* \"#utility.yul\":8721:8800   */\n      tag_276\n      tag_128\n      jump\t// in\n    tag_276:\n        /* \"#utility.yul\":8683:8802   */\n    tag_275:\n        /* \"#utility.yul\":8869:8870   */\n      0x00\n        /* \"#utility.yul\":8858:8867   */\n      dup4\n        /* \"#utility.yul\":8854:8871   */\n      add\n        /* \"#utility.yul\":8841:8872   */\n      calldataload\n        /* \"#utility.yul\":8899:8917   */\n      0xffffffffffffffff\n        /* \"#utility.yul\":8891:8897   */\n      dup2\n        /* \"#utility.yul\":8888:8918   */\n      gt\n        /* \"#utility.yul\":8885:9002   */\n      iszero\n      tag_277\n      jumpi\n        /* \"#utility.yul\":8921:9000   */\n      tag_278\n      tag_129\n      jump\t// in\n    tag_278:\n        /* \"#utility.yul\":8885:9002   */\n    tag_277:\n        /* \"#utility.yul\":9026:9089   */\n      tag_279\n        /* \"#utility.yul\":9081:9088   */\n      dup6\n        /* \"#utility.yul\":9072:9078   */\n      dup3\n        /* \"#utility.yul\":9061:9070   */\n      dup7\n        /* \"#utility.yul\":9057:9079   */\n      add\n        /* \"#utility.yul\":9026:9089   */\n      tag_155\n      jump\t// in\n    tag_279:\n        /* \"#utility.yul\":9016:9089   */\n      swap3\n      pop\n        /* \"#utility.yul\":8812:9099   */\n      pop\n        /* \"#utility.yul\":9166:9168   */\n      0x20\n        /* \"#utility.yul\":9155:9164   */\n      dup4\n        /* \"#utility.yul\":9151:9169   */\n      add\n        /* \"#utility.yul\":9138:9170   */\n      calldataload\n        /* \"#utility.yul\":9197:9215   */\n      0xffffffffffffffff\n        /* \"#utility.yul\":9189:9195   */\n      dup2\n        /* \"#utility.yul\":9186:9216   */\n      gt\n        /* \"#utility.yul\":9183:9300   */\n      iszero\n      tag_280\n      jumpi\n        /* \"#utility.yul\":9219:9298   */\n      tag_281\n      tag_129\n      jump\t// in\n    tag_281:\n        /* \"#utility.yul\":9183:9300   */\n    tag_280:\n        /* \"#utility.yul\":9324:9387   */\n      tag_282\n        /* \"#utility.yul\":9379:9386   */\n      dup6\n        /* \"#utility.yul\":9370:9376   */\n      dup3\n        /* \"#utility.yul\":9359:9368   */\n      dup7\n        /* \"#utility.yul\":9355:9377   */\n      add\n        /* \"#utility.yul\":9324:9387   */\n      tag_155\n      jump\t// in\n    tag_282:\n        /* \"#utility.yul\":9314:9387   */\n      swap2\n      pop\n        /* \"#utility.yul\":9109:9397   */\n      pop\n        /* \"#utility.yul\":8570:9404   */\n      swap3\n      pop\n      swap3\n      swap1\n      pop\n      jump\t// out\n        /* \"#utility.yul\":9410:9528   */\n    tag_156:\n        /* \"#utility.yul\":9497:9521   */\n      tag_284\n        /* \"#utility.yul\":9515:9520   */\n      dup2\n        /* \"#utility.yul\":9497:9521   */\n      tag_130\n      jump\t// in\n    tag_284:\n        /* \"#utility.yul\":9492:9495   */\n      dup3\n        /* \"#utility.yul\":9485:9522   */\n      mstore\n        /* \"#utility.yul\":9410:9528   */\n      pop\n      pop\n      jump\t// out\n        /* \"#utility.yul\":9534:9756   */\n    tag_33:\n        /* \"#utility.yul\":9627:9631   */\n      0x00\n        /* \"#utility.yul\":9665:9667   */\n      0x20\n        /* \"#utility.yul\":9654:9663   */\n      dup3\n        /* \"#utility.yul\":9650:9668   */\n      add\n        /* \"#utility.yul\":9642:9668   */\n      swap1\n      pop\n        /* \"#utility.yul\":9678:9749   */\n      tag_286\n        /* \"#utility.yul\":9746:9747   */\n      0x00\n        /* \"#utility.yul\":9735:9744   */\n      dup4\n        /* \"#utility.yul\":9731:9748   */\n      add\n        /* \"#utility.yul\":9722:9728   */\n      dup5\n        /* \"#utility.yul\":9678:9749   */\n      tag_156\n      jump\t// in\n    tag_286:\n        /* \"#utility.yul\":9534:9756   */\n      swap3\n      swap2\n      pop\n      pop\n      jump\t// out\n        /* \"#utility.yul\":9762:9880   */\n    tag_157:\n        /* \"#utility.yul\":9849:9873   */\n      tag_288\n        /* \"#utility.yul\":9867:9872   */\n      dup2\n        /* \"#utility.yul\":9849:9873   */\n      tag_139\n      jump\t// in\n    tag_288:\n        /* \"#utility.yul\":9844:9847   */\n      dup3\n        /* \"#utility.yul\":9837:9874   */\n      mstore\n        /* \"#utility.yul\":9762:9880   */\n      pop\n      pop\n      jump\t// out\n        /* \"#utility.yul\":9886:10108   */\n    tag_37:\n        /* \"#utility.yul\":9979:9983   */\n      0x00\n        /* \"#utility.yul\":10017:10019   */\n      0x20\n        /* \"#utility.yul\":10006:10015   */\n      dup3\n        /* \"#utility.yul\":10002:10020   */\n      add\n        /* \"#utility.yul\":9994:10020   */\n      swap1\n      pop\n        /* \"#utility.yul\":10030:10101   */\n      tag_290\n        /* \"#utility.yul\":10098:10099   */\n      0x00\n        /* \"#utility.yul\":10087:10096   */\n      dup4\n        /* \"#utility.yul\":10083:10100   */\n      add\n        /* \"#utility.yul\":10074:10080   */\n      dup5\n        /* \"#utility.yul\":10030:10101   */\n      tag_157\n      jump\t// in\n    tag_290:\n        /* \"#utility.yul\":9886:10108   */\n      swap3\n      swap2\n      pop\n      pop\n      jump\t// out\n        /* \"#utility.yul\":10114:10257   */\n    tag_158:\n        /* \"#utility.yul\":10207:10250   */\n      tag_292\n        /* \"#utility.yul\":10244:10249   */\n      dup2\n        /* \"#utility.yul\":10207:10250   */\n      tag_143\n      jump\t// in\n    tag_292:\n        /* \"#utility.yul\":10202:10205   */\n      dup3\n        /* \"#utility.yul\":10195:10251   */\n      mstore\n        /* \"#utility.yul\":10114:10257   */\n      pop\n      pop\n      jump\t// out\n        /* \"#utility.yul\":10263:11121   */\n    tag_46:\n        /* \"#utility.yul\":10514:10518   */\n      0x00\n        /* \"#utility.yul\":10552:10555   */\n      0xa0\n        /* \"#utility.yul\":10541:10550   */\n      dup3\n        /* \"#utility.yul\":10537:10556   */\n      add\n        /* \"#utility.yul\":10529:10556   */\n      swap1\n      pop\n        /* \"#utility.yul\":10602:10611   */\n      dup2\n        /* \"#utility.yul\":10596:10600   */\n      dup2\n        /* \"#utility.yul\":10592:10612   */\n      sub\n        /* \"#utility.yul\":10588:10589   */\n      0x00\n        /* \"#utility.yul\":10577:10586   */\n      dup4\n        /* \"#utility.yul\":10573:10590   */\n      add\n        /* \"#utility.yul\":10566:10613   */\n      mstore\n        /* \"#utility.yul\":10630:10708   */\n      tag_294\n        /* \"#utility.yul\":10703:10707   */\n      dup2\n        /* \"#utility.yul\":10694:10700   */\n      dup9\n        /* \"#utility.yul\":10630:10708   */\n      tag_126\n      jump\t// in\n    tag_294:\n        /* \"#utility.yul\":10622:10708   */\n      swap1\n      pop\n        /* \"#utility.yul\":10755:10764   */\n      dup2\n        /* \"#utility.yul\":10749:10753   */\n      dup2\n        /* \"#utility.yul\":10745:10765   */\n      sub\n        /* \"#utility.yul\":10740:10742   */\n      0x20\n        /* \"#utility.yul\":10729:10738   */\n      dup4\n        /* \"#utility.yul\":10725:10743   */\n      add\n        /* \"#utility.yul\":10718:10766   */\n      mstore\n        /* \"#utility.yul\":10783:10861   */\n      tag_295\n        /* \"#utility.yul\":10856:10860   */\n      dup2\n        /* \"#utility.yul\":10847:10853   */\n      dup8\n        /* \"#utility.yul\":10783:10861   */\n      tag_126\n      jump\t// in\n    tag_295:\n        /* \"#utility.yul\":10775:10861   */\n      swap1\n      pop\n        /* \"#utility.yul\":10871:10943   */\n      tag_296\n        /* \"#utility.yul\":10939:10941   */\n      0x40\n        /* \"#utility.yul\":10928:10937   */\n      dup4\n        /* \"#utility.yul\":10924:10942   */\n      add\n        /* \"#utility.yul\":10915:10921   */\n      dup7\n        /* \"#utility.yul\":10871:10943   */\n      tag_157\n      jump\t// in\n    tag_296:\n        /* \"#utility.yul\":10953:11031   */\n      tag_297\n        /* \"#utility.yul\":11027:11029   */\n      0x60\n        /* \"#utility.yul\":11016:11025   */\n      dup4\n        /* \"#utility.yul\":11012:11030   */\n      add\n        /* \"#utility.yul\":11003:11009   */\n      dup6\n        /* \"#utility.yul\":10953:11031   */\n      tag_158\n      jump\t// in\n    tag_297:\n        /* \"#utility.yul\":11041:11114   */\n      tag_298\n        /* \"#utility.yul\":11109:11112   */\n      0x80\n        /* \"#utility.yul\":11098:11107   */\n      dup4\n        /* \"#utility.yul\":11094:11113   */\n      add\n        /* \"#utility.yul\":11085:11091   */\n      dup5\n        /* \"#utility.yul\":11041:11114   */\n      tag_156\n      jump\t// in\n    tag_298:\n        /* \"#utility.yul\":10263:11121   */\n      swap7\n      swap6\n      pop\n      pop\n      pop\n      pop\n      pop\n      pop\n      jump\t// out\n        /* \"#utility.yul\":11127:11307   */\n    tag_159:\n        /* \"#utility.yul\":11175:11252   */\n      0x4e487b7100000000000000000000000000000000000000000000000000000000\n        /* \"#utility.yul\":11172:11173   */\n      0x00\n        /* \"#utility.yul\":11165:11253   */\n      mstore\n        /* \"#utility.yul\":11272:11276   */\n      0x22\n        /* \"#utility.yul\":11269:11270   */\n      0x04\n        /* \"#utility.yul\":11262:11277   */\n      mstore\n        /* \"#utility.yul\":11296:11300   */\n      0x24\n        /* \"#utility.yul\":11293:11294   */\n      0x00\n        /* \"#utility.yul\":11286:11301   */\n      revert\n        /* \"#utility.yul\":11313:11633   */\n    tag_48:\n        /* \"#utility.yul\":11357:11363   */\n      0x00\n        /* \"#utility.yul\":11394:11395   */\n      0x02\n        /* \"#utility.yul\":11388:11392   */\n      dup3\n        /* \"#utility.yul\":11384:11396   */\n      div\n        /* \"#utility.yul\":11374:11396   */\n      swap1\n      pop\n        /* \"#utility.yul\":11441:11442   */\n      0x01\n        /* \"#utility.yul\":11435:11439   */\n      dup3\n        /* \"#utility.yul\":11431:11443   */\n      and\n        /* \"#utility.yul\":11462:11480   */\n      dup1\n        /* \"#utility.yul\":11452:11533   */\n      tag_301\n      jumpi\n        /* \"#utility.yul\":11518:11522   */\n      0x7f\n        /* \"#utility.yul\":11510:11516   */\n      dup3\n        /* \"#utility.yul\":11506:11523   */\n      and\n        /* \"#utility.yul\":11496:11523   */\n      swap2\n      pop\n        /* \"#utility.yul\":11452:11533   */\n    tag_301:\n        /* \"#utility.yul\":11580:11582   */\n      0x20\n        /* \"#utility.yul\":11572:11578   */\n      dup3\n        /* \"#utility.yul\":11569:11583   */\n      lt\n        /* \"#utility.yul\":11549:11567   */\n      dup2\n        /* \"#utility.yul\":11546:11584   */\n      sub\n        /* \"#utility.yul\":11543:11627   */\n      tag_302\n      jumpi\n        /* \"#utility.yul\":11599:11617   */\n      tag_303\n      tag_159\n      jump\t// in\n    tag_303:\n        /* \"#utility.yul\":11543:11627   */\n    tag_302:\n        /* \"#utility.yul\":11364:11633   */\n      pop\n        /* \"#utility.yul\":11313:11633   */\n      swap2\n      swap1\n      pop\n      jump\t// out\n        /* \"#utility.yul\":11639:11803   */\n    tag_160:\n        /* \"#utility.yul\":11779:11795   */\n      0x4f6e6c79204f72672041646d696e000000000000000000000000000000000000\n        /* \"#utility.yul\":11775:11776   */\n      0x00\n        /* \"#utility.yul\":11767:11773   */\n      dup3\n        /* \"#utility.yul\":11763:11777   */\n      add\n        /* \"#utility.yul\":11756:11796   */\n      mstore\n        /* \"#utility.yul\":11639:11803   */\n      pop\n      jump\t// out\n        /* \"#utility.yul\":11809:12175   */\n    tag_161:\n        /* \"#utility.yul\":11951:11954   */\n      0x00\n        /* \"#utility.yul\":11972:12039   */\n      tag_306\n        /* \"#utility.yul\":12036:12038   */\n      0x0e\n        /* \"#utility.yul\":12031:12034   */\n      dup4\n        /* \"#utility.yul\":11972:12039   */\n      tag_123\n      jump\t// in\n    tag_306:\n        /* \"#utility.yul\":11965:12039   */\n      swap2\n      pop\n        /* \"#utility.yul\":12048:12141   */\n      tag_307\n        /* \"#utility.yul\":12137:12140   */\n      dup3\n        /* \"#utility.yul\":12048:12141   */\n      tag_160\n      jump\t// in\n    tag_307:\n        /* \"#utility.yul\":12166:12168   */\n      0x20\n        /* \"#utility.yul\":12161:12164   */\n      dup3\n        /* \"#utility.yul\":12157:12169   */\n      add\n        /* \"#utility.yul\":12150:12169   */\n      swap1\n      pop\n        /* \"#utility.yul\":11809:12175   */\n      swap2\n      swap1\n      pop\n      jump\t// out\n        /* \"#utility.yul\":12181:12600   */\n    tag_56:\n        /* \"#utility.yul\":12347:12351   */\n      0x00\n        /* \"#utility.yul\":12385:12387   */\n      0x20\n        /* \"#utility.yul\":12374:12383   */\n      dup3\n        /* \"#utility.yul\":12370:12388   */\n      add\n        /* \"#utility.yul\":12362:12388   */\n      swap1\n      pop\n        /* \"#utility.yul\":12434:12443   */\n      dup2\n        /* \"#utility.yul\":12428:12432   */\n      dup2\n        /* \"#utility.yul\":12424:12444   */\n      sub\n        /* \"#utility.yul\":12420:12421   */\n      0x00\n        /* \"#utility.yul\":12409:12418   */\n      dup4\n        /* \"#utility.yul\":12405:12422   */\n      add\n        /* \"#utility.yul\":12398:12445   */\n      mstore\n        /* \"#utility.yul\":12462:12593   */\n      tag_309\n        /* \"#utility.yul\":12588:12592   */\n      dup2\n        /* \"#utility.yul\":12462:12593   */\n      tag_161\n      jump\t// in\n    tag_309:\n        /* \"#utility.yul\":12454:12593   */\n      swap1\n      pop\n        /* \"#utility.yul\":12181:12600   */\n      swap2\n      swap1\n      pop\n      jump\t// out\n        /* \"#utility.yul\":12606:12770   */\n    tag_162:\n        /* \"#utility.yul\":12746:12762   */\n      0x496e76616c696420446f63204944000000000000000000000000000000000000\n        /* \"#utility.yul\":12742:12743   */\n      0x00\n        /* \"#utility.yul\":12734:12740   */\n      dup3\n        /* \"#utility.yul\":12730:12744   */\n      add\n        /* \"#utility.yul\":12723:12763   */\n      mstore\n        /* \"#utility.yul\":12606:12770   */\n      pop\n      jump\t// out\n        /* \"#utility.yul\":12776:13142   */\n    tag_163:\n        /* \"#utility.yul\":12918:12921   */\n      0x00\n        /* \"#utility.yul\":12939:13006   */\n      tag_312\n        /* \"#utility.yul\":13003:13005   */\n      0x0e\n        /* \"#utility.yul\":12998:13001   */\n      dup4\n        /* \"#utility.yul\":12939:13006   */\n      tag_123\n      jump\t// in\n    tag_312:\n        /* \"#utility.yul\":12932:13006   */\n      swap2\n      pop\n        /* \"#utility.yul\":13015:13108   */\n      tag_313\n        /* \"#utility.yul\":13104:13107   */\n      dup3\n        /* \"#utility.yul\":13015:13108   */\n      tag_162\n      jump\t// in\n    tag_313:\n        /* \"#utility.yul\":13133:13135   */\n      0x20\n        /* \"#utility.yul\":13128:13131   */\n      dup3\n        /* \"#utility.yul\":13124:13136   */\n      add\n        /* \"#utility.yul\":13117:13136   */\n      swap1\n      pop\n        /* \"#utility.yul\":12776:13142   */\n      swap2\n      swap1\n      pop\n      jump\t// out\n        /* \"#utility.yul\":13148:13567   */\n    tag_60:\n        /* \"#utility.yul\":13314:13318   */\n      0x00\n        /* \"#utility.yul\":13352:13354   */\n      0x20\n        /* \"#utility.yul\":13341:13350   */\n      dup3\n        /* \"#utility.yul\":13337:13355   */\n      add\n        /* \"#utility.yul\":13329:13355   */\n      swap1\n      pop\n        /* \"#utility.yul\":13401:13410   */\n      dup2\n        /* \"#utility.yul\":13395:13399   */\n      dup2\n        /* \"#utility.yul\":13391:13411   */\n      sub\n        /* \"#utility.yul\":13387:13388   */\n      0x00\n        /* \"#utility.yul\":13376:13385   */\n      dup4\n        /* \"#utility.yul\":13372:13389   */\n      add\n        /* \"#utility.yul\":13365:13412   */\n      mstore\n        /* \"#utility.yul\":13429:13560   */\n      tag_315\n        /* \"#utility.yul\":13555:13559   */\n      dup2\n        /* \"#utility.yul\":13429:13560   */\n      tag_163\n      jump\t// in\n    tag_315:\n        /* \"#utility.yul\":13421:13560   */\n      swap1\n      pop\n        /* \"#utility.yul\":13148:13567   */\n      swap2\n      swap1\n      pop\n      jump\t// out\n        /* \"#utility.yul\":13573:13917   */\n    tag_67:\n        /* \"#utility.yul\":13700:13704   */\n      0x00\n        /* \"#utility.yul\":13738:13740   */\n      0x40\n        /* \"#utility.yul\":13727:13736   */\n      dup3\n        /* \"#utility.yul\":13723:13741   */\n      add\n        /* \"#utility.yul\":13715:13741   */\n      swap1\n      pop\n        /* \"#utility.yul\":13751:13822   */\n      tag_317\n        /* \"#utility.yul\":13819:13820   */\n      0x00\n        /* \"#utility.yul\":13808:13817   */\n      dup4\n        /* \"#utility.yul\":13804:13821   */\n      add\n        /* \"#utility.yul\":13795:13801   */\n      dup6\n        /* \"#utility.yul\":13751:13822   */\n      tag_156\n      jump\t// in\n    tag_317:\n        /* \"#utility.yul\":13832:13910   */\n      tag_318\n        /* \"#utility.yul\":13906:13908   */\n      0x20\n        /* \"#utility.yul\":13895:13904   */\n      dup4\n        /* \"#utility.yul\":13891:13909   */\n      add\n        /* \"#utility.yul\":13882:13888   */\n      dup5\n        /* \"#utility.yul\":13832:13910   */\n      tag_158\n      jump\t// in\n    tag_318:\n        /* \"#utility.yul\":13573:13917   */\n      swap4\n      swap3\n      pop\n      pop\n      pop\n      jump\t// out\n        /* \"#utility.yul\":13923:14064   */\n    tag_164:\n        /* \"#utility.yul\":13972:13976   */\n      0x00\n        /* \"#utility.yul\":13995:13998   */\n      dup2\n        /* \"#utility.yul\":13987:13998   */\n      swap1\n      pop\n        /* \"#utility.yul\":14018:14021   */\n      dup2\n        /* \"#utility.yul\":14015:14016   */\n      0x00\n        /* \"#utility.yul\":14008:14022   */\n      mstore\n        /* \"#utility.yul\":14052:14056   */\n      0x20\n        /* \"#utility.yul\":14049:14050   */\n      0x00\n        /* \"#utility.yul\":14039:14057   */\n      keccak256\n        /* \"#utility.yul\":14031:14057   */\n      swap1\n      pop\n        /* \"#utility.yul\":13923:14064   */\n      swap2\n      swap1\n      pop\n      jump\t// out\n        /* \"#utility.yul\":14070:14163   */\n    tag_165:\n        /* \"#utility.yul\":14107:14113   */\n      0x00\n        /* \"#utility.yul\":14154:14156   */\n      0x20\n        /* \"#utility.yul\":14149:14151   */\n      0x1f\n        /* \"#utility.yul\":14142:14147   */\n      dup4\n        /* \"#utility.yul\":14138:14152   */\n      add\n        /* \"#utility.yul\":14134:14157   */\n      div\n        /* \"#utility.yul\":14124:14157   */\n      swap1\n      pop\n        /* \"#utility.yul\":14070:14163   */\n      swap2\n      swap1\n      pop\n      jump\t// out\n        /* \"#utility.yul\":14169:14276   */\n    tag_166:\n        /* \"#utility.yul\":14213:14221   */\n      0x00\n        /* \"#utility.yul\":14263:14268   */\n      dup3\n        /* \"#utility.yul\":14257:14261   */\n      dup3\n        /* \"#utility.yul\":14253:14269   */\n      shl\n        /* \"#utility.yul\":14232:14269   */\n      swap1\n      pop\n        /* \"#utility.yul\":14169:14276   */\n      swap3\n      swap2\n      pop\n      pop\n      jump\t// out\n        /* \"#utility.yul\":14282:14675   */\n    tag_167:\n        /* \"#utility.yul\":14351:14357   */\n      0x00\n        /* \"#utility.yul\":14401:14402   */\n      0x08\n        /* \"#utility.yul\":14389:14399   */\n      dup4\n        /* \"#utility.yul\":14385:14403   */\n      mul\n        /* \"#utility.yul\":14424:14521   */\n      tag_323\n        /* \"#utility.yul\":14454:14520   */\n      0xffffffffffffffffffffffffffffffffffffffffffffffffffffffffffffffff\n        /* \"#utility.yul\":14443:14452   */\n      dup3\n        /* \"#utility.yul\":14424:14521   */\n      tag_166\n      jump\t// in\n    tag_323:\n        /* \"#utility.yul\":14542:14581   */\n      tag_324\n        /* \"#utility.yul\":14572:14580   */\n      dup7\n        /* \"#utility.yul\":14561:14570   */\n      dup4\n        /* \"#utility.yul\":14542:14581   */\n      tag_166\n      jump\t// in\n    tag_324:\n        /* \"#utility.yul\":14530:14581   */\n      swap6\n      pop\n        /* \"#utility.yul\":14614:14618   */\n      dup1\n        /* \"#utility.yul\":14610:14619   */\n      not\n        /* \"#utility.yul\":14603:14608   */\n      dup5\n        /* \"#utility.yul\":14599:14620   */\n      and\n        /* \"#utility.yul\":14590:14620   */\n      swap4\n      pop\n        /* \"#utility.yul\":14663:14667   */\n      dup1\n        /* \"#utility.yul\":14653:14661   */\n      dup7\n        /* \"#utility.yul\":14649:14668   */\n      and\n        /* \"#utility.yul\":14642:14647   */\n      dup5\n        /* \"#utility.yul\":14639:14669   */\n      or\n        /* \"#utility.yul\":14629:14669   */\n      swap3\n      pop\n        /* \"#utility.yul\":14358:14675   */\n      pop\n      pop\n        /* \"#utility.yul\":14282:14675   */\n      swap4\n      swap3\n      pop\n      pop\n      pop\n      jump\t// out\n        /* \"#utility.yul\":14681:14741   */\n    tag_168:\n        /* \"#utility.yul\":14709:14712   */\n      0x00\n        /* \"#utility.yul\":14730:14735   */\n      dup2\n        /* \"#utility.yul\":14723:14735   */\n      swap1\n      pop\n        /* \"#utility.yul\":14681:14741   */\n      swap2\n      swap1\n      pop\n      jump\t// out\n        /* \"#utility.yul\":14747:14889   */\n    tag_169:\n        /* \"#utility.yul\":14797:14806   */\n      0x00\n        /* \"#utility.yul\":14830:14883   */\n      tag_327\n        /* \"#utility.yul\":14848:14882   */\n      tag_328\n        /* \"#utility.yul\":14857:14881   */\n      tag_329\n        /* \"#utility.yul\":14875:14880   */\n      dup5\n        /* \"#utility.yul\":14857:14881   */\n      tag_130\n      jump\t// in\n    tag_329:\n        /* \"#utility.yul\":14848:14882   */\n      tag_168\n      jump\t// in\n    tag_328:\n        /* \"#utility.yul\":14830:14883   */\n      tag_130\n      jump\t// in\n    tag_327:\n        /* \"#utility.yul\":14817:14883   */\n      swap1\n      pop\n        /* \"#utility.yul\":14747:14889   */\n      swap2\n      swap1\n      pop\n      jump\t// out\n        /* \"#utility.yul\":14895:14970   */\n    tag_170:\n        /* \"#utility.yul\":14938:14941   */\n      0x00\n        /* \"#utility.yul\":14959:14964   */\n      dup2\n        /* \"#utility.yul\":14952:14964   */\n      swap1\n      pop\n        /* \"#utility.yul\":14895:14970   */\n      swap2\n      swap1\n      pop\n      jump\t// out\n        /* \"#utility.yul\":14976:15245   */\n    tag_171:\n        /* \"#utility.yul\":15086:15125   */\n      tag_332\n        /* \"#utility.yul\":15117:15124   */\n      dup4\n        /* \"#utility.yul\":15086:15125   */\n      tag_169\n      jump\t// in\n    tag_332:\n        /* \"#utility.yul\":15147:15238   */\n      tag_333\n        /* \"#utility.yul\":15196:15237   */\n      tag_334\n        /* \"#utility.yul\":15220:15236   */\n      dup3\n        /* \"#utility.yul\":15196:15237   */\n      tag_170\n      jump\t// in\n    tag_334:\n        /* \"#utility.yul\":15188:15194   */\n      dup5\n        /* \"#utility.yul\":15181:15185   */\n      dup5\n        /* \"#utility.yul\":15175:15186   */\n      sload\n        /* \"#utility.yul\":15147:15238   */\n      tag_167\n      jump\t// in\n    tag_333:\n        /* \"#utility.yul\":15141:15145   */\n      dup3\n        /* \"#utility.yul\":15134:15239   */\n      sstore\n        /* \"#utility.yul\":15052:15245   */\n      pop\n        /* \"#utility.yul\":14976:15245   */\n      pop\n      pop\n      pop\n      jump\t// out\n        /* \"#utility.yul\":15251:15324   */\n    tag_172:\n        /* \"#utility.yul\":15296:15299   */\n      0x00\n        /* \"#utility.yul\":15317:15318   */\n      0x00\n        /* \"#utility.yul\":15310:15318   */\n      swap1\n      pop\n        /* \"#utility.yul\":15251:15324   */\n      swap1\n      jump\t// out\n        /* \"#utility.yul\":15330:15519   */\n    tag_173:\n        /* \"#utility.yul\":15407:15439   */\n      tag_337\n      tag_172\n      jump\t// in\n    tag_337:\n        /* \"#utility.yul\":15448:15513   */\n      tag_338\n        /* \"#utility.yul\":15506:15512   */\n      dup2\n        /* \"#utility.yul\":15498:15504   */\n      dup5\n        /* \"#utility.yul\":15492:15496   */\n      dup5\n        /* \"#utility.yul\":15448:15513   */\n      tag_171\n      jump\t// in\n    tag_338:\n        /* \"#utility.yul\":15383:15519   */\n      pop\n        /* \"#utility.yul\":15330:15519   */\n      pop\n      pop\n      jump\t// out\n        /* \"#utility.yul\":15525:15711   */\n    tag_174:\n        /* \"#utility.yul\":15585:15705   */\n    tag_340:\n        /* \"#utility.yul\":15602:15605   */\n      dup2\n        /* \"#utility.yul\":15595:15600   */\n      dup2\n        /* \"#utility.yul\":15592:15606   */\n      lt\n        /* \"#utility.yul\":15585:15705   */\n      iszero\n      tag_342\n      jumpi\n        /* \"#utility.yul\":15656:15695   */\n      tag_343\n        /* \"#utility.yul\":15693:15694   */\n      0x00\n        /* \"#utility.yul\":15686:15691   */\n      dup3\n        /* \"#utility.yul\":15656:15695   */\n      tag_173\n      jump\t// in\n    tag_343:\n        /* \"#utility.yul\":15629:15630   */\n      0x01\n        /* \"#utility.yul\":15622:15627   */\n      dup2\n        /* \"#utility.yul\":15618:15631   */\n      add\n        /* \"#utility.yul\":15609:15631   */\n      swap1\n      pop\n        /* \"#utility.yul\":15585:15705   */\n      jump(tag_340)\n    tag_342:\n        /* \"#utility.yul\":15525:15711   */\n      pop\n      pop\n      jump\t// out\n        /* \"#utility.yul\":15717:16260   */\n    tag_175:\n        /* \"#utility.yul\":15818:15820   */\n      0x1f\n        /* \"#utility.yul\":15813:15816   */\n      dup3\n        /* \"#utility.yul\":15810:15821   */\n      gt\n        /* \"#utility.yul\":15807:16253   */\n      iszero\n      tag_345\n      jumpi\n        /* \"#utility.yul\":15852:15890   */\n      tag_346\n        /* \"#utility.yul\":15884:15889   */\n      dup2\n        /* \"#utility.yul\":15852:15890   */\n      tag_164\n      jump\t// in\n    tag_346:\n        /* \"#utility.yul\":15936:15965   */\n      tag_347\n        /* \"#utility.yul\":15954:15964   */\n      dup5\n        /* \"#utility.yul\":15936:15965   */\n      tag_165\n      jump\t// in\n    tag_347:\n        /* \"#utility.yul\":15926:15934   */\n      dup2\n        /* \"#utility.yul\":15922:15966   */\n      add\n        /* \"#utility.yul\":16119:16121   */\n      0x20\n        /* \"#utility.yul\":16107:16117   */\n      dup6\n        /* \"#utility.yul\":16104:16122   */\n      lt\n        /* \"#utility.yul\":16101:16150   */\n      iszero\n      tag_348\n      jumpi\n        /* \"#utility.yul\":16140:16148   */\n      dup2\n        /* \"#utility.yul\":16125:16148   */\n      swap1\n      pop\n        /* \"#utility.yul\":16101:16150   */\n    tag_348:\n        /* \"#utility.yul\":16163:16243   */\n      tag_349\n        /* \"#utility.yul\":16219:16241   */\n      tag_350\n        /* \"#utility.yul\":16237:16240   */\n      dup6\n        /* \"#utility.yul\":16219:16241   */\n      tag_165\n      jump\t// in\n    tag_350:\n        /* \"#utility.yul\":16209:16217   */\n      dup4\n        /* \"#utility.yul\":16205:16242   */\n      add\n        /* \"#utility.yul\":16192:16203   */\n      dup3\n        /* \"#utility.yul\":16163:16243   */\n      tag_174\n      jump\t// in\n    tag_349:\n        /* \"#utility.yul\":15822:16253   */\n      pop\n      pop\n        /* \"#utility.yul\":15807:16253   */\n    tag_345:\n        /* \"#utility.yul\":15717:16260   */\n      pop\n      pop\n      pop\n      jump\t// out\n        /* \"#utility.yul\":16266:16383   */\n    tag_176:\n        /* \"#utility.yul\":16320:16328   */\n      0x00\n        /* \"#utility.yul\":16370:16375   */\n      dup3\n        /* \"#utility.yul\":16364:16368   */\n      dup3\n        /* \"#utility.yul\":16360:16376   */\n      shr\n        /* \"#utility.yul\":16339:16376   */\n      swap1\n      pop\n        /* \"#utility.yul\":16266:16383   */\n      swap3\n      swap2\n      pop\n      pop\n      jump\t// out\n        /* \"#utility.yul\":16389:16558   */\n    tag_177:\n        /* \"#utility.yul\":16433:16439   */\n      0x00\n        /* \"#utility.yul\":16466:16517   */\n      tag_353\n        /* \"#utility.yul\":16514:16515   */\n      0x00\n        /* \"#utility.yul\":16510:16516   */\n      not\n        /* \"#utility.yul\":16502:16507   */\n      dup5\n        /* \"#utility.yul\":16499:16500   */\n      0x08\n        /* \"#utility.yul\":16495:16508   */\n      mul\n        /* \"#utility.yul\":16466:16517   */\n      tag_176\n      jump\t// in\n    tag_353:\n        /* \"#utility.yul\":16462:16518   */\n      not\n        /* \"#utility.yul\":16547:16551   */\n      dup1\n        /* \"#utility.yul\":16541:16545   */\n      dup4\n        /* \"#utility.yul\":16537:16552   */\n      and\n        /* \"#utility.yul\":16527:16552   */\n      swap2\n      pop\n        /* \"#utility.yul\":16440:16558   */\n      pop\n        /* \"#utility.yul\":16389:16558   */\n      swap3\n      swap2\n      pop\n      pop\n      jump\t// out\n        /* \"#utility.yul\":16563:16858   */\n    tag_178:\n        /* \"#utility.yul\":16639:16643   */\n      0x00\n        /* \"#utility.yul\":16785:16814   */\n      tag_355\n        /* \"#utility.yul\":16810:16813   */\n      dup4\n        /* \"#utility.yul\":16804:16808   */\n      dup4\n        /* \"#utility.yul\":16785:16814   */\n      tag_177\n      jump\t// in\n    tag_355:\n        /* \"#utility.yul\":16777:16814   */\n      swap2\n      pop\n        /* \"#utility.yul\":16847:16850   */\n      dup3\n        /* \"#utility.yul\":16844:16845   */\n      0x02\n        /* \"#utility.yul\":16840:16851   */\n      mul\n        /* \"#utility.yul\":16834:16838   */\n      dup3\n        /* \"#utility.yul\":16831:16852   */\n      or\n        /* \"#utility.yul\":16823:16852   */\n      swap1\n      pop\n        /* \"#utility.yul\":16563:16858   */\n      swap3\n      swap2\n      pop\n      pop\n      jump\t// out\n        /* \"#utility.yul\":16863:18258   */\n    tag_89:\n        /* \"#utility.yul\":16980:17017   */\n      tag_357\n        /* \"#utility.yul\":17013:17016   */\n      dup3\n        /* \"#utility.yul\":16980:17017   */\n      tag_122\n      jump\t// in\n    tag_357:\n        /* \"#utility.yul\":17082:17100   */\n      0xffffffffffffffff\n        /* \"#utility.yul\":17074:17080   */\n      dup2\n        /* \"#utility.yul\":17071:17101   */\n      gt\n        /* \"#utility.yul\":17068:17124   */\n      iszero\n      tag_358\n      jumpi\n        /* \"#utility.yul\":17104:17122   */\n      tag_359\n      tag_149\n      jump\t// in\n    tag_359:\n        /* \"#utility.yul\":17068:17124   */\n    tag_358:\n        /* \"#utility.yul\":17148:17186   */\n      tag_360\n        /* \"#utility.yul\":17180:17184   */\n      dup3\n        /* \"#utility.yul\":17174:17185   */\n      sload\n        /* \"#utility.yul\":17148:17186   */\n      tag_48\n      jump\t// in\n    tag_360:\n        /* \"#utility.yul\":17233:17300   */\n      tag_361\n        /* \"#utility.yul\":17293:17299   */\n      dup3\n        /* \"#utility.yul\":17285:17291   */\n      dup3\n        /* \"#utility.yul\":17279:17283   */\n      dup6\n        /* \"#utility.yul\":17233:17300   */\n      tag_175\n      jump\t// in\n    tag_361:\n        /* \"#utility.yul\":17327:17328   */\n      0x00\n        /* \"#utility.yul\":17351:17355   */\n      0x20\n        /* \"#utility.yul\":17338:17355   */\n      swap1\n      pop\n        /* \"#utility.yul\":17383:17385   */\n      0x1f\n        /* \"#utility.yul\":17375:17381   */\n      dup4\n        /* \"#utility.yul\":17372:17386   */\n      gt\n        /* \"#utility.yul\":17400:17401   */\n      0x01\n        /* \"#utility.yul\":17395:18013   */\n      dup2\n      eq\n      tag_363\n      jumpi\n        /* \"#utility.yul\":18057:18058   */\n      0x00\n        /* \"#utility.yul\":18074:18080   */\n      dup5\n        /* \"#utility.yul\":18071:18148   */\n      iszero\n      tag_364\n      jumpi\n        /* \"#utility.yul\":18123:18132   */\n      dup3\n        /* \"#utility.yul\":18118:18121   */\n      dup8\n        /* \"#utility.yul\":18114:18133   */\n      add\n        /* \"#utility.yul\":18108:18134   */\n      mload\n        /* \"#utility.yul\":18099:18134   */\n      swap1\n      pop\n        /* \"#utility.yul\":18071:18148   */\n    tag_364:\n        /* \"#utility.yul\":18174:18241   */\n      tag_365\n        /* \"#utility.yul\":18234:18240   */\n      dup6\n        /* \"#utility.yul\":18227:18232   */\n      dup3\n        /* \"#utility.yul\":18174:18241   */\n      tag_178\n      jump\t// in\n    tag_365:\n        /* \"#utility.yul\":18168:18172   */\n      dup7\n        /* \"#utility.yul\":18161:18242   */\n      sstore\n        /* \"#utility.yul\":18030:18252   */\n      pop\n        /* \"#utility.yul\":17365:18252   */\n      jump(tag_362)\n        /* \"#utility.yul\":17395:18013   */\n    tag_363:\n        /* \"#utility.yul\":17447:17451   */\n      0x1f\n        /* \"#utility.yul\":17443:17452   */\n      not\n        /* \"#utility.yul\":17435:17441   */\n      dup5\n        /* \"#utility.yul\":17431:17453   */\n      and\n        /* \"#utility.yul\":17481:17518   */\n      tag_366\n        /* \"#utility.yul\":17513:17517   */\n      dup7\n        /* \"#utility.yul\":17481:17518   */\n      tag_164\n      jump\t// in\n    tag_366:\n        /* \"#utility.yul\":17540:17541   */\n      0x00\n        /* \"#utility.yul\":17554:17762   */\n    tag_367:\n        /* \"#utility.yul\":17568:17575   */\n      dup3\n        /* \"#utility.yul\":17565:17566   */\n      dup2\n        /* \"#utility.yul\":17562:17576   */\n      lt\n        /* \"#utility.yul\":17554:17762   */\n      iszero\n      tag_369\n      jumpi\n        /* \"#utility.yul\":17647:17656   */\n      dup5\n        /* \"#utility.yul\":17642:17645   */\n      dup10\n        /* \"#utility.yul\":17638:17657   */\n      add\n        /* \"#utility.yul\":17632:17658   */\n      mload\n        /* \"#utility.yul\":17624:17630   */\n      dup3\n        /* \"#utility.yul\":17617:17659   */\n      sstore\n        /* \"#utility.yul\":17698:17699   */\n      0x01\n        /* \"#utility.yul\":17690:17696   */\n      dup3\n        /* \"#utility.yul\":17686:17700   */\n      add\n        /* \"#utility.yul\":17676:17700   */\n      swap2\n      pop\n        /* \"#utility.yul\":17745:17747   */\n      0x20\n        /* \"#utility.yul\":17734:17743   */\n      dup6\n        /* \"#utility.yul\":17730:17748   */\n      add\n        /* \"#utility.yul\":17717:17748   */\n      swap5\n      pop\n        /* \"#utility.yul\":17591:17595   */\n      0x20\n        /* \"#utility.yul\":17588:17589   */\n      dup2\n        /* \"#utility.yul\":17584:17596   */\n      add\n        /* \"#utility.yul\":17579:17596   */\n      swap1\n      pop\n        /* \"#utility.yul\":17554:17762   */\n      jump(tag_367)\n    tag_369:\n        /* \"#utility.yul\":17790:17796   */\n      dup7\n        /* \"#utility.yul\":17781:17788   */\n      dup4\n        /* \"#utility.yul\":17778:17797   */\n      lt\n        /* \"#utility.yul\":17775:17954   */\n      iszero\n      tag_370\n      jumpi\n        /* \"#utility.yul\":17848:17857   */\n      dup5\n        /* \"#utility.yul\":17843:17846   */\n      dup10\n        /* \"#utility.yul\":17839:17858   */\n      add\n        /* \"#utility.yul\":17833:17859   */\n      mload\n        /* \"#utility.yul\":17891:17939   */\n      tag_371\n        /* \"#utility.yul\":17933:17937   */\n      0x1f\n        /* \"#utility.yul\":17925:17931   */\n      dup10\n        /* \"#utility.yul\":17921:17938   */\n      and\n        /* \"#utility.yul\":17910:17919   */\n      dup3\n        /* \"#utility.yul\":17891:17939   */\n      tag_177\n      jump\t// in\n    tag_371:\n        /* \"#utility.yul\":17883:17889   */\n      dup4\n        /* \"#utility.yul\":17876:17940   */\n      sstore\n        /* \"#utility.yul\":17798:17954   */\n      pop\n        /* \"#utility.yul\":17775:17954   */\n    tag_370:\n        /* \"#utility.yul\":18000:18001   */\n      0x01\n        /* \"#utility.yul\":17996:17997   */\n      0x02\n        /* \"#utility.yul\":17988:17994   */\n      dup9\n        /* \"#utility.yul\":17984:17998   */\n      mul\n        /* \"#utility.yul\":17980:18002   */\n      add\n        /* \"#utility.yul\":17974:17978   */\n      dup9\n        /* \"#utility.yul\":17967:18003   */\n      sstore\n        /* \"#utility.yul\":17402:18013   */\n      pop\n      pop\n      pop\n        /* \"#utility.yul\":17365:18252   */\n    tag_362:\n      pop\n        /* \"#utility.yul\":16955:18258   */\n      pop\n      pop\n      pop\n        /* \"#utility.yul\":16863:18258   */\n      pop\n      pop\n      jump\t// out\n        /* \"#utility.yul\":18264:18888   */\n    tag_94:\n        /* \"#utility.yul\":18453:18457   */\n      0x00\n        /* \"#utility.yul\":18491:18493   */\n      0x60\n        /* \"#utility.yul\":18480:18489   */\n      dup3\n        /* \"#utility.yul\":18476:18494   */\n      add\n        /* \"#utility.yul\":18468:18494   */\n      swap1\n      pop\n        /* \"#utility.yul\":18504:18575   */\n      tag_373\n        /* \"#utility.yul\":18572:18573   */\n      0x00\n        /* \"#utility.yul\":18561:18570   */\n      dup4\n        /* \"#utility.yul\":18557:18574   */\n      add\n        /* \"#utility.yul\":18548:18554   */\n      dup7\n        /* \"#utility.yul\":18504:18575   */\n      tag_156\n      jump\t// in\n    tag_373:\n        /* \"#utility.yul\":18622:18631   */\n      dup2\n        /* \"#utility.yul\":18616:18620   */\n      dup2\n        /* \"#utility.yul\":18612:18632   */\n      sub\n        /* \"#utility.yul\":18607:18609   */\n      0x20\n        /* \"#utility.yul\":18596:18605   */\n      dup4\n        /* \"#utility.yul\":18592:18610   */\n      add\n        /* \"#utility.yul\":18585:18633   */\n      mstore\n        /* \"#utility.yul\":18650:18728   */\n      tag_374\n        /* \"#utility.yul\":18723:18727   */\n      dup2\n        /* \"#utility.yul\":18714:18720   */\n      dup6\n        /* \"#utility.yul\":18650:18728   */\n      tag_126\n      jump\t// in\n    tag_374:\n        /* \"#utility.yul\":18642:18728   */\n      swap1\n      pop\n        /* \"#utility.yul\":18775:18784   */\n      dup2\n        /* \"#utility.yul\":18769:18773   */\n      dup2\n        /* \"#utility.yul\":18765:18785   */\n      sub\n        /* \"#utility.yul\":18760:18762   */\n      0x40\n        /* \"#utility.yul\":18749:18758   */\n      dup4\n        /* \"#utility.yul\":18745:18763   */\n      add\n        /* \"#utility.yul\":18738:18786   */\n      mstore\n        /* \"#utility.yul\":18803:18881   */\n      tag_375\n        /* \"#utility.yul\":18876:18880   */\n      dup2\n        /* \"#utility.yul\":18867:18873   */\n      dup5\n        /* \"#utility.yul\":18803:18881   */\n      tag_126\n      jump\t// in\n    tag_375:\n        /* \"#utility.yul\":18795:18881   */\n      swap1\n      pop\n        /* \"#utility.yul\":18264:18888   */\n      swap5\n      swap4\n      pop\n      pop\n      pop\n      pop\n      jump\t// out\n        /* \"#utility.yul\":18894:19074   */\n    tag_179:\n        /* \"#utility.yul\":18942:19019   */\n      0x4e487b7100000000000000000000000000000000000000000000000000000000\n        /* \"#utility.yul\":18939:18940   */\n      0x00\n        /* \"#utility.yul\":18932:19020   */\n      mstore\n        /* \"#utility.yul\":19039:19043   */\n      0x11\n        /* \"#utility.yul\":19036:19037   */\n      0x04\n        /* \"#utility.yul\":19029:19044   */\n      mstore\n        /* \"#utility.yul\":19063:19067   */\n      0x24\n        /* \"#utility.yul\":19060:19061   */\n      0x00\n        /* \"#utility.yul\":19053:19068   */\n      revert\n        /* \"#utility.yul\":19080:19313   */\n    tag_96:\n        /* \"#utility.yul\":19119:19122   */\n      0x00\n        /* \"#utility.yul\":19142:19166   */\n      tag_378\n        /* \"#utility.yul\":19160:19165   */\n      dup3\n        /* \"#utility.yul\":19142:19166   */\n      tag_130\n      jump\t// in\n    tag_378:\n        /* \"#utility.yul\":19133:19166   */\n      swap2\n      pop\n        /* \"#utility.yul\":19188:19254   */\n      0xffffffffffffffffffffffffffffffffffffffffffffffffffffffffffffffff\n        /* \"#utility.yul\":19181:19186   */\n      dup3\n        /* \"#utility.yul\":19178:19255   */\n      sub\n        /* \"#utility.yul\":19175:19278   */\n      tag_379\n      jumpi\n        /* \"#utility.yul\":19258:19276   */\n      tag_380\n      tag_179\n      jump\t// in\n    tag_380:\n        /* \"#utility.yul\":19175:19278   */\n    tag_379:\n        /* \"#utility.yul\":19305:19306   */\n      0x01\n        /* \"#utility.yul\":19298:19303   */\n      dup3\n        /* \"#utility.yul\":19294:19307   */\n      add\n        /* \"#utility.yul\":19287:19307   */\n      swap1\n      pop\n        /* \"#utility.yul\":19080:19313   */\n      swap2\n      swap1\n      pop\n      jump\t// out\n        /* \"#utility.yul\":19319:19481   */\n    tag_180:\n        /* \"#utility.yul\":19459:19473   */\n      0x4e6f742076657269666965640000000000000000000000000000000000000000\n        /* \"#utility.yul\":19455:19456   */\n      0x00\n        /* \"#utility.yul\":19447:19453   */\n      dup3\n        /* \"#utility.yul\":19443:19457   */\n      add\n        /* \"#utility.yul\":19436:19474   */\n      mstore\n        /* \"#utility.yul\":19319:19481   */\n      pop\n      jump\t// out\n        /* \"#utility.yul\":19487:19853   */\n    tag_181:\n        /* \"#utility.yul\":19629:19632   */\n      0x00\n        /* \"#utility.yul\":19650:19717   */\n      tag_383\n        /* \"#utility.yul\":19714:19716   */\n      0x0c\n        /* \"#utility.yul\":19709:19712   */\n      dup4\n        /* \"#utility.yul\":19650:19717   */\n      tag_123\n      jump\t// in\n    tag_383:\n        /* \"#utility.yul\":19643:19717   */\n      swap2\n      pop\n        /* \"#utility.yul\":19726:19819   */\n      tag_384\n        /* \"#utility.yul\":19815:19818   */\n      dup3\n        /* \"#utility.yul\":19726:19819   */\n      tag_180\n      jump\t// in\n    tag_384:\n        /* \"#utility.yul\":19844:19846   */\n      0x20\n        /* \"#utility.yul\":19839:19842   */\n      dup3\n        /* \"#utility.yul\":19835:19847   */\n      add\n        /* \"#utility.yul\":19828:19847   */\n      swap1\n      pop\n        /* \"#utility.yul\":19487:19853   */\n      swap2\n      swap1\n      pop\n      jump\t// out\n        /* \"#utility.yul\":19859:20278   */\n    tag_104:\n        /* \"#utility.yul\":20025:20029   */\n      0x00\n        /* \"#utility.yul\":20063:20065   */\n      0x20\n        /* \"#utility.yul\":20052:20061   */\n      dup3\n        /* \"#utility.yul\":20048:20066   */\n      add\n        /* \"#utility.yul\":20040:20066   */\n      swap1\n      pop\n        /* \"#utility.yul\":20112:20121   */\n      dup2\n        /* \"#utility.yul\":20106:20110   */\n      dup2\n        /* \"#utility.yul\":20102:20122   */\n      sub\n        /* \"#utility.yul\":20098:20099   */\n      0x00\n        /* \"#utility.yul\":20087:20096   */\n      dup4\n        /* \"#utility.yul\":20083:20100   */\n      add\n        /* \"#utility.yul\":20076:20123   */\n      mstore\n        /* \"#utility.yul\":20140:20271   */\n      tag_386\n        /* \"#utility.yul\":20266:20270   */\n      dup2\n        /* \"#utility.yul\":20140:20271   */\n      tag_181\n      jump\t// in\n    tag_386:\n        /* \"#utility.yul\":20132:20271   */\n      swap1\n      pop\n        /* \"#utility.yul\":19859:20278   */\n      swap2\n      swap1\n      pop\n      jump\t// out\n\n    auxdata: 0xa2646970667358221220eeb337d90efa5b6746361c382635671ff482f5277c7c059afc4955371de2b2a064736f6c634300081e0033\n}\n",
				"bytecode": {
					"linkReferences": {},
					"object": "608060405234801561000f575f5ffd5b50604051611a2c380380611a2c8339818101604052810190610031919061022e565b815f5f6101000a81548173ffffffffffffffffffffffffffffffffffffffff021916908373ffffffffffffffffffffffffffffffffffffffff160217905550806001908161007f9190610498565b505050610567565b5f604051905090565b5f5ffd5b5f5ffd5b5f73ffffffffffffffffffffffffffffffffffffffff82169050919050565b5f6100c182610098565b9050919050565b6100d1816100b7565b81146100db575f5ffd5b50565b5f815190506100ec816100c8565b92915050565b5f5ffd5b5f5ffd5b5f601f19601f8301169050919050565b7f4e487b71000000000000000000000000000000000000000000000000000000005f52604160045260245ffd5b610140826100fa565b810181811067ffffffffffffffff8211171561015f5761015e61010a565b5b80604052505050565b5f610171610087565b905061017d8282610137565b919050565b5f67ffffffffffffffff82111561019c5761019b61010a565b5b6101a5826100fa565b9050602081019050919050565b8281835e5f83830152505050565b5f6101d26101cd84610182565b610168565b9050828152602081018484840111156101ee576101ed6100f6565b5b6101f98482856101b2565b509392505050565b5f82601f830112610215576102146100f2565b5b81516102258482602086016101c0565b91505092915050565b5f5f6040838503121561024457610243610090565b5b5f610251858286016100de565b925050602083015167ffffffffffffffff81111561027257610271610094565b5b61027e85828601610201565b9150509250929050565b5f81519050919050565b7f4e487b71000000000000000000000000000000000000000000000000000000005f52602260045260245ffd5b5f60028204905060018216806102d657607f821691505b6020821081036102e9576102e8610292565b5b50919050565b5f819050815f5260205f209050919050565b5f6020601f8301049050919050565b5f82821b905092915050565b5f6008830261034b7fffffffffffffffffffffffffffffffffffffffffffffffffffffffffffffffff82610310565b6103558683610310565b95508019841693508086168417925050509392505050565b5f819050919050565b5f819050919050565b5f61039961039461038f8461036d565b610376565b61036d565b9050919050565b5f819050919050565b6103b28361037f565b6103c66103be826103a0565b84845461031c565b825550505050565b5f5f905090565b6103dd6103ce565b6103e88184846103a9565b505050565b5b8181101561040b576104005f826103d5565b6001810190506103ee565b5050565b601f82111561045057610421816102ef565b61042a84610301565b81016020851015610439578190505b61044d61044585610301565b8301826103ed565b50505b505050565b5f82821c905092915050565b5f6104705f1984600802610455565b1980831691505092915050565b5f6104888383610461565b9150826002028217905092915050565b6104a182610288565b67ffffffffffffffff8111156104ba576104b961010a565b5b6104c482546102bf565b6104cf82828561040f565b5f60209050601f831160018114610500575f84156104ee578287015190505b6104f8858261047d565b86555061055f565b601f19841661050e866102ef565b5f5b8281101561053557848901518255600182019150602085019450602081019050610510565b86831015610552578489015161054e601f891682610461565b8355505b6001600288020188555050505b505050505050565b6114b8806105745f395ff3fe608060405234801561000f575f5ffd5b5060043610610086575f3560e01c80634c4dc6e0116100595780634c4dc6e014610110578063595439731461012e57806369e354a71461014c578063c2ed2b051461017c57610086565b80631386dc2d1461008a57806324e96df6146100a85780633f9b250a146100c45780634464fe33146100f4575b5f5ffd5b6100926101b0565b60405161009f9190610a9b565b60405180910390f35b6100c260048036038101906100bd9190610b34565b61023c565b005b6100de60048036038101906100d99190610b72565b6103b6565b6040516100eb9190610d20565b60405180910390f35b61010e60048036038101906101099190610e6c565b61059a565b005b610118610718565b6040516101259190610ef1565b60405180910390f35b61013661071e565b6040516101439190610f19565b60405180910390f35b61016660048036038101906101619190610b72565b610742565b6040516101739190610a9b565b60405180910390f35b61019660048036038101906101919190610b72565b61086d565b6040516101a7959493929190610f41565b60405180910390f35b600180546101bd90610fcd565b80601f01602080910402602001604051908101604052809291908181526020018280546101e990610fcd565b80156102345780601f1061020b57610100808354040283529160200191610234565b820191905f5260205f20905b81548152906001019060200180831161021757829003601f168201915b505050505081565b5f5f9054906101000a900473ffffffffffffffffffffffffffffffffffffffff1673ffffffffffffffffffffffffffffffffffffffff163373ffffffffffffffffffffffffffffffffffffffff16146102ca576040517f08c379a00000000000000000000000000000000000000000000000000000000081526004016102c190611047565b60405180910390fd5b600354821061030e576040517f08c379a0000000000000000000000000000000000000000000000000000000008152600401610305906110af565b60405180910390fd5b8061031a57600261031d565b60015b60025f8481526020019081526020015f2060020160146101000a81548160ff0219169083600281111561035357610352610c24565b5b02179055507feff1a80370380c097589f0264e193d46222591e1290548b7cf90b0a1a17ece818260025f8581526020019081526020015f2060020160149054906101000a900460ff166040516103aa9291906110cd565b60405180910390a15050565b6103be6109d7565b60025f8381526020019081526020015f206040518060a00160405290815f820180546103e990610fcd565b80601f016020809104026020016040519081016040528092919081815260200182805461041590610fcd565b80156104605780601f1061043757610100808354040283529160200191610460565b820191905f5260205f20905b81548152906001019060200180831161044357829003601f168201915b5050505050815260200160018201805461047990610fcd565b80601f01602080910402602001604051908101604052809291908181526020018280546104a590610fcd565b80156104f05780601f106104c7576101008083540402835291602001916104f0565b820191905f5260205f20905b8154815290600101906020018083116104d357829003601f168201915b50505050508152602001600282015f9054906101000a900473ffffffffffffffffffffffffffffffffffffffff1673ffffffffffffffffffffffffffffffffffffffff1673ffffffffffffffffffffffffffffffffffffffff1681526020016002820160149054906101000a900460ff16600281111561057357610572610c24565b5b600281111561058557610584610c24565b5b81526020016003820154815250509050919050565b6040518060a001604052808381526020018281526020013373ffffffffffffffffffffffffffffffffffffffff1681526020015f60028111156105e0576105df610c24565b5b81526020014281525060025f60035481526020019081526020015f205f820151815f01908161060f9190611294565b5060208201518160010190816106259190611294565b506040820151816002015f6101000a81548173ffffffffffffffffffffffffffffffffffffffff021916908373ffffffffffffffffffffffffffffffffffffffff16021790555060608201518160020160146101000a81548160ff0219169083600281111561069757610696610c24565b5b0217905550608082015181600301559050503373ffffffffffffffffffffffffffffffffffffffff167fbc1a1ccf8342004af7abc5b367be5beb32916a886fa6a400ae874b3e5ebbc27260035484846040516106f593929190611363565b60405180910390a260035f81548092919061070f906113d3565b91905055505050565b60035481565b5f5f9054906101000a900473ffffffffffffffffffffffffffffffffffffffff1681565b60606001600281111561075857610757610c24565b5b60025f8481526020019081526020015f2060020160149054906101000a900460ff16600281111561078c5761078b610c24565b5b146107cc576040517f08c379a00000000000000000000000000000000000000000000000000000000081526004016107c390611464565b60405180910390fd5b60025f8381526020019081526020015f205f0180546107ea90610fcd565b80601f016020809104026020016040519081016040528092919081815260200182805461081690610fcd565b80156108615780601f1061083857610100808354040283529160200191610861565b820191905f5260205f20905b81548152906001019060200180831161084457829003601f168201915b50505050509050919050565b6002602052805f5260405f205f91509050805f01805461088c90610fcd565b80601f01602080910402602001604051908101604052809291908181526020018280546108b890610fcd565b80156109035780601f106108da57610100808354040283529160200191610903565b820191905f5260205f20905b8154815290600101906020018083116108e657829003601f168201915b50505050509080600101805461091890610fcd565b80601f016020809104026020016040519081016040528092919081815260200182805461094490610fcd565b801561098f5780601f106109665761010080835404028352916020019161098f565b820191905f5260205f20905b81548152906001019060200180831161097257829003601f168201915b505050505090806002015f9054906101000a900473ffffffffffffffffffffffffffffffffffffffff16908060020160149054906101000a900460ff16908060030154905085565b6040518060a0016040528060608152602001606081526020015f73ffffffffffffffffffffffffffffffffffffffff1681526020015f6002811115610a1f57610a1e610c24565b5b81526020015f81525090565b5f81519050919050565b5f82825260208201905092915050565b8281835e5f83830152505050565b5f601f19601f8301169050919050565b5f610a6d82610a2b565b610a778185610a35565b9350610a87818560208601610a45565b610a9081610a53565b840191505092915050565b5f6020820190508181035f830152610ab38184610a63565b905092915050565b5f604051905090565b5f5ffd5b5f5ffd5b5f819050919050565b610ade81610acc565b8114610ae8575f5ffd5b50565b5f81359050610af981610ad5565b92915050565b5f8115159050919050565b610b1381610aff565b8114610b1d575f5ffd5b50565b5f81359050610b2e81610b0a565b92915050565b5f5f60408385031215610b4a57610b49610ac4565b5b5f610b5785828601610aeb565b9250506020610b6885828601610b20565b9150509250929050565b5f60208284031215610b8757610b86610ac4565b5b5f610b9484828501610aeb565b91505092915050565b5f82825260208201905092915050565b5f610bb782610a2b565b610bc18185610b9d565b9350610bd1818560208601610a45565b610bda81610a53565b840191505092915050565b5f73ffffffffffffffffffffffffffffffffffffffff82169050919050565b5f610c0e82610be5565b9050919050565b610c1e81610c04565b82525050565b7f4e487b71000000000000000000000000000000000000000000000000000000005f52602160045260245ffd5b60038110610c6257610c61610c24565b5b50565b5f819050610c7282610c51565b919050565b5f610c8182610c65565b9050919050565b610c9181610c77565b82525050565b610ca081610acc565b82525050565b5f60a083015f8301518482035f860152610cc08282610bad565b91505060208301518482036020860152610cda8282610bad565b9150506040830151610cef6040860182610c15565b506060830151610d026060860182610c88565b506080830151610d156080860182610c97565b508091505092915050565b5f6020820190508181035f830152610d388184610ca6565b905092915050565b5f5ffd5b5f5ffd5b7f4e487b71000000000000000000000000000000000000000000000000000000005f52604160045260245ffd5b610d7e82610a53565b810181811067ffffffffffffffff82111715610d9d57610d9c610d48565b5b80604052505050565b5f610daf610abb565b9050610dbb8282610d75565b919050565b5f67ffffffffffffffff821115610dda57610dd9610d48565b5b610de382610a53565b9050602081019050919050565b828183375f83830152505050565b5f610e10610e0b84610dc0565b610da6565b905082815260208101848484011115610e2c57610e2b610d44565b5b610e37848285610df0565b509392505050565b5f82601f830112610e5357610e52610d40565b5b8135610e63848260208601610dfe565b91505092915050565b5f5f60408385031215610e8257610e81610ac4565b5b5f83013567ffffffffffffffff811115610e9f57610e9e610ac8565b5b610eab85828601610e3f565b925050602083013567ffffffffffffffff811115610ecc57610ecb610ac8565b5b610ed885828601610e3f565b9150509250929050565b610eeb81610acc565b82525050565b5f602082019050610f045f830184610ee2565b92915050565b610f1381610c04565b82525050565b5f602082019050610f2c5f830184610f0a565b92915050565b610f3b81610c77565b82525050565b5f60a0820190508181035f830152610f598188610a63565b90508181036020830152610f6d8187610a63565b9050610f7c6040830186610f0a565b610f896060830185610f32565b610f966080830184610ee2565b9695505050505050565b7f4e487b71000000000000000000000000000000000000000000000000000000005f52602260045260245ffd5b5f6002820490506001821680610fe457607f821691505b602082108103610ff757610ff6610fa0565b5b50919050565b7f4f6e6c79204f72672041646d696e0000000000000000000000000000000000005f82015250565b5f611031600e83610a35565b915061103c82610ffd565b602082019050919050565b5f6020820190508181035f83015261105e81611025565b9050919050565b7f496e76616c696420446f632049440000000000000000000000000000000000005f82015250565b5f611099600e83610a35565b91506110a482611065565b602082019050919050565b5f6020820190508181035f8301526110c68161108d565b9050919050565b5f6040820190506110e05f830185610ee2565b6110ed6020830184610f32565b9392505050565b5f819050815f5260205f209050919050565b5f6020601f8301049050919050565b5f82821b905092915050565b5f600883026111507fffffffffffffffffffffffffffffffffffffffffffffffffffffffffffffffff82611115565b61115a8683611115565b95508019841693508086168417925050509392505050565b5f819050919050565b5f61119561119061118b84610acc565b611172565b610acc565b9050919050565b5f819050919050565b6111ae8361117b565b6111c26111ba8261119c565b848454611121565b825550505050565b5f5f905090565b6111d96111ca565b6111e48184846111a5565b505050565b5b81811015611207576111fc5f826111d1565b6001810190506111ea565b5050565b601f82111561124c5761121d816110f4565b61122684611106565b81016020851015611235578190505b61124961124185611106565b8301826111e9565b50505b505050565b5f82821c905092915050565b5f61126c5f1984600802611251565b1980831691505092915050565b5f611284838361125d565b9150826002028217905092915050565b61129d82610a2b565b67ffffffffffffffff8111156112b6576112b5610d48565b5b6112c08254610fcd565b6112cb82828561120b565b5f60209050601f8311600181146112fc575f84156112ea578287015190505b6112f48582611279565b86555061135b565b601f19841661130a866110f4565b5f5b828110156113315784890151825560018201915060208501945060208101905061130c565b8683101561134e578489015161134a601f89168261125d565b8355505b6001600288020188555050505b505050505050565b5f6060820190506113765f830186610ee2565b81810360208301526113888185610a63565b9050818103604083015261139c8184610a63565b9050949350505050565b7f4e487b71000000000000000000000000000000000000000000000000000000005f52601160045260245ffd5b5f6113dd82610acc565b91507fffffffffffffffffffffffffffffffffffffffffffffffffffffffffffffffff820361140f5761140e6113a6565b5b600182019050919050565b7f4e6f7420766572696669656400000000000000000000000000000000000000005f82015250565b5f61144e600c83610a35565b91506114598261141a565b602082019050919050565b5f6020820190508181035f83015261147b81611442565b905091905056fea2646970667358221220eeb337d90efa5b6746361c382635671ff482f5277c7c059afc4955371de2b2a064736f6c634300081e0033",
					"opcodes": "PUSH1 0x80 PUSH1 0x40 MSTORE CALLVALUE DUP1 ISZERO PUSH2 0xF JUMPI PUSH0 PUSH0 REVERT JUMPDEST POP PUSH1 0x40 MLOAD PUSH2 0x1A2C CODESIZE SUB DUP1 PUSH2 0x1A2C DUP4 CODECOPY DUP2 DUP2 ADD PUSH1 0x40 MSTORE DUP2 ADD SWAP1 PUSH2 0x31 SWAP2 SWAP1 PUSH2 0x22E JUMP JUMPDEST DUP2 PUSH0 PUSH0 PUSH2 0x100 EXP DUP2 SLOAD DUP2 PUSH20 0xFFFFFFFFFFFFFFFFFFFFFFFFFFFFFFFFFFFFFFFF MUL NOT AND SWAP1 DUP4 PUSH20 0xFFFFFFFFFFFFFFFFFFFFFFFFFFFFFFFFFFFFFFFF AND MUL OR SWAP1 SSTORE POP DUP1 PUSH1 0x1 SWAP1 DUP2 PUSH2 0x7F SWAP2 SWAP1 PUSH2 0x498 JUMP JUMPDEST POP POP POP PUSH2 0x567 JUMP JUMPDEST PUSH0 PUSH1 0x40 MLOAD SWAP1 POP SWAP1 JUMP JUMPDEST PUSH0 PUSH0 REVERT JUMPDEST PUSH0 PUSH0 REVERT JUMPDEST PUSH0 PUSH20 0xFFFFFFFFFFFFFFFFFFFFFFFFFFFFFFFFFFFFFFFF DUP3 AND SWAP1 POP SWAP2 SWAP1 POP JUMP JUMPDEST PUSH0 PUSH2 0xC1 DUP3 PUSH2 0x98 JUMP JUMPDEST SWAP1 POP SWAP2 SWAP1 POP JUMP JUMPDEST PUSH2 0xD1 DUP2 PUSH2 0xB7 JUMP JUMPDEST DUP2 EQ PUSH2 0xDB JUMPI PUSH0 PUSH0 REVERT JUMPDEST POP JUMP JUMPDEST PUSH0 DUP2 MLOAD SWAP1 POP PUSH2 0xEC DUP2 PUSH2 0xC8 JUMP JUMPDEST SWAP3 SWAP2 POP POP JUMP JUMPDEST PUSH0 PUSH0 REVERT JUMPDEST PUSH0 PUSH0 REVERT JUMPDEST PUSH0 PUSH1 0x1F NOT PUSH1 0x1F DUP4 ADD AND SWAP1 POP SWAP2 SWAP1 POP JUMP JUMPDEST PUSH32 0x4E487B7100000000000000000000000000000000000000000000000000000000 PUSH0 MSTORE PUSH1 0x41 PUSH1 0x4 MSTORE PUSH1 0x24 PUSH0 REVERT JUMPDEST PUSH2 0x140 DUP3 PUSH2 0xFA JUMP JUMPDEST DUP2 ADD DUP2 DUP2 LT PUSH8 0xFFFFFFFFFFFFFFFF DUP3 GT OR ISZERO PUSH2 0x15F JUMPI PUSH2 0x15E PUSH2 0x10A JUMP JUMPDEST JUMPDEST DUP1 PUSH1 0x40 MSTORE POP POP POP JUMP JUMPDEST PUSH0 PUSH2 0x171 PUSH2 0x87 JUMP JUMPDEST SWAP1 POP PUSH2 0x17D DUP3 DUP3 PUSH2 0x137 JUMP JUMPDEST SWAP2 SWAP1 POP JUMP JUMPDEST PUSH0 PUSH8 0xFFFFFFFFFFFFFFFF DUP3 GT ISZERO PUSH2 0x19C JUMPI PUSH2 0x19B PUSH2 0x10A JUMP JUMPDEST JUMPDEST PUSH2 0x1A5 DUP3 PUSH2 0xFA JUMP JUMPDEST SWAP1 POP PUSH1 0x20 DUP2 ADD SWAP1 POP SWAP2 SWAP1 POP JUMP JUMPDEST DUP3 DUP2 DUP4 MCOPY PUSH0 DUP4 DUP4 ADD MSTORE POP POP POP JUMP JUMPDEST PUSH0 PUSH2 0x1D2 PUSH2 0x1CD DUP5 PUSH2 0x182 JUMP JUMPDEST PUSH2 0x168 JUMP JUMPDEST SWAP1 POP DUP3 DUP2 MSTORE PUSH1 0x20 DUP2 ADD DUP5 DUP5 DUP5 ADD GT ISZERO PUSH2 0x1EE JUMPI PUSH2 0x1ED PUSH2 0xF6 JUMP JUMPDEST JUMPDEST PUSH2 0x1F9 DUP5 DUP3 DUP6 PUSH2 0x1B2 JUMP JUMPDEST POP SWAP4 SWAP3 POP POP POP JUMP JUMPDEST PUSH0 DUP3 PUSH1 0x1F DUP4 ADD SLT PUSH2 0x215 JUMPI PUSH2 0x214 PUSH2 0xF2 JUMP JUMPDEST JUMPDEST DUP2 MLOAD PUSH2 0x225 DUP5 DUP3 PUSH1 0x20 DUP7 ADD PUSH2 0x1C0 JUMP JUMPDEST SWAP2 POP POP SWAP3 SWAP2 POP POP JUMP JUMPDEST PUSH0 PUSH0 PUSH1 0x40 DUP4 DUP6 SUB SLT ISZERO PUSH2 0x244 JUMPI PUSH2 0x243 PUSH2 0x90 JUMP JUMPDEST JUMPDEST PUSH0 PUSH2 0x251 DUP6 DUP3 DUP7 ADD PUSH2 0xDE JUMP JUMPDEST SWAP3 POP POP PUSH1 0x20 DUP4 ADD MLOAD PUSH8 0xFFFFFFFFFFFFFFFF DUP2 GT ISZERO PUSH2 0x272 JUMPI PUSH2 0x271 PUSH2 0x94 JUMP JUMPDEST JUMPDEST PUSH2 0x27E DUP6 DUP3 DUP7 ADD PUSH2 0x201 JUMP JUMPDEST SWAP2 POP POP SWAP3 POP SWAP3 SWAP1 POP JUMP JUMPDEST PUSH0 DUP2 MLOAD SWAP1 POP SWAP2 SWAP1 POP JUMP JUMPDEST PUSH32 0x4E487B7100000000000000000000000000000000000000000000000000000000 PUSH0 MSTORE PUSH1 0x22 PUSH1 0x4 MSTORE PUSH1 0x24 PUSH0 REVERT JUMPDEST PUSH0 PUSH1 0x2 DUP3 DIV SWAP1 POP PUSH1 0x1 DUP3 AND DUP1 PUSH2 0x2D6 JUMPI PUSH1 0x7F DUP3 AND SWAP2 POP JUMPDEST PUSH1 0x20 DUP3 LT DUP2 SUB PUSH2 0x2E9 JUMPI PUSH2 0x2E8 PUSH2 0x292 JUMP JUMPDEST JUMPDEST POP SWAP2 SWAP1 POP JUMP JUMPDEST PUSH0 DUP2 SWAP1 POP DUP2 PUSH0 MSTORE PUSH1 0x20 PUSH0 KECCAK256 SWAP1 POP SWAP2 SWAP1 POP JUMP JUMPDEST PUSH0 PUSH1 0x20 PUSH1 0x1F DUP4 ADD DIV SWAP1 POP SWAP2 SWAP1 POP JUMP JUMPDEST PUSH0 DUP3 DUP3 SHL SWAP1 POP SWAP3 SWAP2 POP POP JUMP JUMPDEST PUSH0 PUSH1 0x8 DUP4 MUL PUSH2 0x34B PUSH32 0xFFFFFFFFFFFFFFFFFFFFFFFFFFFFFFFFFFFFFFFFFFFFFFFFFFFFFFFFFFFFFFFF DUP3 PUSH2 0x310 JUMP JUMPDEST PUSH2 0x355 DUP7 DUP4 PUSH2 0x310 JUMP JUMPDEST SWAP6 POP DUP1 NOT DUP5 AND SWAP4 POP DUP1 DUP7 AND DUP5 OR SWAP3 POP POP POP SWAP4 SWAP3 POP POP POP JUMP JUMPDEST PUSH0 DUP2 SWAP1 POP SWAP2 SWAP1 POP JUMP JUMPDEST PUSH0 DUP2 SWAP1 POP SWAP2 SWAP1 POP JUMP JUMPDEST PUSH0 PUSH2 0x399 PUSH2 0x394 PUSH2 0x38F DUP5 PUSH2 0x36D JUMP JUMPDEST PUSH2 0x376 JUMP JUMPDEST PUSH2 0x36D JUMP JUMPDEST SWAP1 POP SWAP2 SWAP1 POP JUMP JUMPDEST PUSH0 DUP2 SWAP1 POP SWAP2 SWAP1 POP JUMP JUMPDEST PUSH2 0x3B2 DUP4 PUSH2 0x37F JUMP JUMPDEST PUSH2 0x3C6 PUSH2 0x3BE DUP3 PUSH2 0x3A0 JUMP JUMPDEST DUP5 DUP5 SLOAD PUSH2 0x31C JUMP JUMPDEST DUP3 SSTORE POP POP POP POP JUMP JUMPDEST PUSH0 PUSH0 SWAP1 POP SWAP1 JUMP JUMPDEST PUSH2 0x3DD PUSH2 0x3CE JUMP JUMPDEST PUSH2 0x3E8 DUP2 DUP5 DUP5 PUSH2 0x3A9 JUMP JUMPDEST POP POP POP JUMP JUMPDEST JUMPDEST DUP2 DUP2 LT ISZERO PUSH2 0x40B JUMPI PUSH2 0x400 PUSH0 DUP3 PUSH2 0x3D5 JUMP JUMPDEST PUSH1 0x1 DUP2 ADD SWAP1 POP PUSH2 0x3EE JUMP JUMPDEST POP POP JUMP JUMPDEST PUSH1 0x1F DUP3 GT ISZERO PUSH2 0x450 JUMPI PUSH2 0x421 DUP2 PUSH2 0x2EF JUMP JUMPDEST PUSH2 0x42A DUP5 PUSH2 0x301 JUMP JUMPDEST DUP2 ADD PUSH1 0x20 DUP6 LT ISZERO PUSH2 0x439 JUMPI DUP2 SWAP1 POP JUMPDEST PUSH2 0x44D PUSH2 0x445 DUP6 PUSH2 0x301 JUMP JUMPDEST DUP4 ADD DUP3 PUSH2 0x3ED JUMP JUMPDEST POP POP JUMPDEST POP POP POP JUMP JUMPDEST PUSH0 DUP3 DUP3 SHR SWAP1 POP SWAP3 SWAP2 POP POP JUMP JUMPDEST PUSH0 PUSH2 0x470 PUSH0 NOT DUP5 PUSH1 0x8 MUL PUSH2 0x455 JUMP JUMPDEST NOT DUP1 DUP4 AND SWAP2 POP POP SWAP3 SWAP2 POP POP JUMP JUMPDEST PUSH0 PUSH2 0x488 DUP4 DUP4 PUSH2 0x461 JUMP JUMPDEST SWAP2 POP DUP3 PUSH1 0x2 MUL DUP3 OR SWAP1 POP SWAP3 SWAP2 POP POP JUMP JUMPDEST PUSH2 0x4A1 DUP3 PUSH2 0x288 JUMP JUMPDEST PUSH8 0xFFFFFFFFFFFFFFFF DUP2 GT ISZERO PUSH2 0x4BA JUMPI PUSH2 0x4B9 PUSH2 0x10A JUMP JUMPDEST JUMPDEST PUSH2 0x4C4 DUP3 SLOAD PUSH2 0x2BF JUMP JUMPDEST PUSH2 0x4CF DUP3 DUP3 DUP6 PUSH2 0x40F JUMP JUMPDEST PUSH0 PUSH1 0x20 SWAP1 POP PUSH1 0x1F DUP4 GT PUSH1 0x1 DUP2 EQ PUSH2 0x500 JUMPI PUSH0 DUP5 ISZERO PUSH2 0x4EE JUMPI DUP3 DUP8 ADD MLOAD SWAP1 POP JUMPDEST PUSH2 0x4F8 DUP6 DUP3 PUSH2 0x47D JUMP JUMPDEST DUP7 SSTORE POP PUSH2 0x55F JUMP JUMPDEST PUSH1 0x1F NOT DUP5 AND PUSH2 0x50E DUP7 PUSH2 0x2EF JUMP JUMPDEST PUSH0 JUMPDEST DUP3 DUP2 LT ISZERO PUSH2 0x535 JUMPI DUP5 DUP10 ADD MLOAD DUP3 SSTORE PUSH1 0x1 DUP3 ADD SWAP2 POP PUSH1 0x20 DUP6 ADD SWAP5 POP PUSH1 0x20 DUP2 ADD SWAP1 POP PUSH2 0x510 JUMP JUMPDEST DUP7 DUP4 LT ISZERO PUSH2 0x552 JUMPI DUP5 DUP10 ADD MLOAD PUSH2 0x54E PUSH1 0x1F DUP10 AND DUP3 PUSH2 0x461 JUMP JUMPDEST DUP4 SSTORE POP JUMPDEST PUSH1 0x1 PUSH1 0x2 DUP9 MUL ADD DUP9 SSTORE POP POP POP JUMPDEST POP POP POP POP POP POP JUMP JUMPDEST PUSH2 0x14B8 DUP1 PUSH2 0x574 PUSH0 CODECOPY PUSH0 RETURN INVALID PUSH1 0x80 PUSH1 0x40 MSTORE CALLVALUE DUP1 ISZERO PUSH2 0xF JUMPI PUSH0 PUSH0 REVERT JUMPDEST POP PUSH1 0x4 CALLDATASIZE LT PUSH2 0x86 JUMPI PUSH0 CALLDATALOAD PUSH1 0xE0 SHR DUP1 PUSH4 0x4C4DC6E0 GT PUSH2 0x59 JUMPI DUP1 PUSH4 0x4C4DC6E0 EQ PUSH2 0x110 JUMPI DUP1 PUSH4 0x59543973 EQ PUSH2 0x12E JUMPI DUP1 PUSH4 0x69E354A7 EQ PUSH2 0x14C JUMPI DUP1 PUSH4 0xC2ED2B05 EQ PUSH2 0x17C JUMPI PUSH2 0x86 JUMP JUMPDEST DUP1 PUSH4 0x1386DC2D EQ PUSH2 0x8A JUMPI DUP1 PUSH4 0x24E96DF6 EQ PUSH2 0xA8 JUMPI DUP1 PUSH4 0x3F9B250A EQ PUSH2 0xC4 JUMPI DUP1 PUSH4 0x4464FE33 EQ PUSH2 0xF4 JUMPI JUMPDEST PUSH0 PUSH0 REVERT JUMPDEST PUSH2 0x92 PUSH2 0x1B0 JUMP JUMPDEST PUSH1 0x40 MLOAD PUSH2 0x9F SWAP2 SWAP1 PUSH2 0xA9B JUMP JUMPDEST PUSH1 0x40 MLOAD DUP1 SWAP2 SUB SWAP1 RETURN JUMPDEST PUSH2 0xC2 PUSH1 0x4 DUP1 CALLDATASIZE SUB DUP2 ADD SWAP1 PUSH2 0xBD SWAP2 SWAP1 PUSH2 0xB34 JUMP JUMPDEST PUSH2 0x23C JUMP JUMPDEST STOP JUMPDEST PUSH2 0xDE PUSH1 0x4 DUP1 CALLDATASIZE SUB DUP2 ADD SWAP1 PUSH2 0xD9 SWAP2 SWAP1 PUSH2 0xB72 JUMP JUMPDEST PUSH2 0x3B6 JUMP JUMPDEST PUSH1 0x40 MLOAD PUSH2 0xEB SWAP2 SWAP1 PUSH2 0xD20 JUMP JUMPDEST PUSH1 0x40 MLOAD DUP1 SWAP2 SUB SWAP1 RETURN JUMPDEST PUSH2 0x10E PUSH1 0x4 DUP1 CALLDATASIZE SUB DUP2 ADD SWAP1 PUSH2 0x109 SWAP2 SWAP1 PUSH2 0xE6C JUMP JUMPDEST PUSH2 0x59A JUMP JUMPDEST STOP JUMPDEST PUSH2 0x118 PUSH2 0x718 JUMP JUMPDEST PUSH1 0x40 MLOAD PUSH2 0x125 SWAP2 SWAP1 PUSH2 0xEF1 JUMP JUMPDEST PUSH1 0x40 MLOAD DUP1 SWAP2 SUB SWAP1 RETURN JUMPDEST PUSH2 0x136 PUSH2 0x71E JUMP JUMPDEST PUSH1 0x40 MLOAD PUSH2 0x143 SWAP2 SWAP1 PUSH2 0xF19 JUMP JUMPDEST PUSH1 0x40 MLOAD DUP1 SWAP2 SUB SWAP1 RETURN JUMPDEST PUSH2 0x166 PUSH1 0x4 DUP1 CALLDATASIZE SUB DUP2 ADD SWAP1 PUSH2 0x161 SWAP2 SWAP1 PUSH2 0xB72 JUMP JUMPDEST PUSH2 0x742 JUMP JUMPDEST PUSH1 0x40 MLOAD PUSH2 0x173 SWAP2 SWAP1 PUSH2 0xA9B JUMP JUMPDEST PUSH1 0x40 MLOAD DUP1 SWAP2 SUB SWAP1 RETURN JUMPDEST PUSH2 0x196 PUSH1 0x4 DUP1 CALLDATASIZE SUB DUP2 ADD SWAP1 PUSH2 0x191 SWAP2 SWAP1 PUSH2 0xB72 JUMP JUMPDEST PUSH2 0x86D JUMP JUMPDEST PUSH1 0x40 MLOAD PUSH2 0x1A7 SWAP6 SWAP5 SWAP4 SWAP3 SWAP2 SWAP1 PUSH2 0xF41 JUMP JUMPDEST PUSH1 0x40 MLOAD DUP1 SWAP2 SUB SWAP1 RETURN JUMPDEST PUSH1 0x1 DUP1 SLOAD PUSH2 0x1BD SWAP1 PUSH2 0xFCD JUMP JUMPDEST DUP1 PUSH1 0x1F ADD PUSH1 0x20 DUP1 SWAP2 DIV MUL PUSH1 0x20 ADD PUSH1 0x40 MLOAD SWAP1 DUP2 ADD PUSH1 0x40 MSTORE DUP1 SWAP3 SWAP2 SWAP1 DUP2 DUP2 MSTORE PUSH1 0x20 ADD DUP3 DUP1 SLOAD PUSH2 0x1E9 SWAP1 PUSH2 0xFCD JUMP JUMPDEST DUP1 ISZERO PUSH2 0x234 JUMPI DUP1 PUSH1 0x1F LT PUSH2 0x20B JUMPI PUSH2 0x100 DUP1 DUP4 SLOAD DIV MUL DUP4 MSTORE SWAP2 PUSH1 0x20 ADD SWAP2 PUSH2 0x234 JUMP JUMPDEST DUP3 ADD SWAP2 SWAP1 PUSH0 MSTORE PUSH1 0x20 PUSH0 KECCAK256 SWAP1 JUMPDEST DUP2 SLOAD DUP2 MSTORE SWAP1 PUSH1 0x1 ADD SWAP1 PUSH1 0x20 ADD DUP1 DUP4 GT PUSH2 0x217 JUMPI DUP3 SWAP1 SUB PUSH1 0x1F AND DUP3 ADD SWAP2 JUMPDEST POP POP POP POP POP DUP2 JUMP JUMPDEST PUSH0 PUSH0 SWAP1 SLOAD SWAP1 PUSH2 0x100 EXP SWAP1 DIV PUSH20 0xFFFFFFFFFFFFFFFFFFFFFFFFFFFFFFFFFFFFFFFF AND PUSH20 0xFFFFFFFFFFFFFFFFFFFFFFFFFFFFFFFFFFFFFFFF AND CALLER PUSH20 0xFFFFFFFFFFFFFFFFFFFFFFFFFFFFFFFFFFFFFFFF AND EQ PUSH2 0x2CA JUMPI PUSH1 0x40 MLOAD PUSH32 0x8C379A000000000000000000000000000000000000000000000000000000000 DUP2 MSTORE PUSH1 0x4 ADD PUSH2 0x2C1 SWAP1 PUSH2 0x1047 JUMP JUMPDEST PUSH1 0x40 MLOAD DUP1 SWAP2 SUB SWAP1 REVERT JUMPDEST PUSH1 0x3 SLOAD DUP3 LT PUSH2 0x30E JUMPI PUSH1 0x40 MLOAD PUSH32 0x8C379A000000000000000000000000000000000000000000000000000000000 DUP2 MSTORE PUSH1 0x4 ADD PUSH2 0x305 SWAP1 PUSH2 0x10AF JUMP JUMPDEST PUSH1 0x40 MLOAD DUP1 SWAP2 SUB SWAP1 REVERT JUMPDEST DUP1 PUSH2 0x31A JUMPI PUSH1 0x2 PUSH2 0x31D JUMP JUMPDEST PUSH1 0x1 JUMPDEST PUSH1 0x2 PUSH0 DUP5 DUP2 MSTORE PUSH1 0x20 ADD SWAP1 DUP2 MSTORE PUSH1 0x20 ADD PUSH0 KECCAK256 PUSH1 0x2 ADD PUSH1 0x14 PUSH2 0x100 EXP DUP2 SLOAD DUP2 PUSH1 0xFF MUL NOT AND SWAP1 DUP4 PUSH1 0x2 DUP2 GT ISZERO PUSH2 0x353 JUMPI PUSH2 0x352 PUSH2 0xC24 JUMP JUMPDEST JUMPDEST MUL OR SWAP1 SSTORE POP PUSH32 0xEFF1A80370380C097589F0264E193D46222591E1290548B7CF90B0A1A17ECE81 DUP3 PUSH1 0x2 PUSH0 DUP6 DUP2 MSTORE PUSH1 0x20 ADD SWAP1 DUP2 MSTORE PUSH1 0x20 ADD PUSH0 KECCAK256 PUSH1 0x2 ADD PUSH1 0x14 SWAP1 SLOAD SWAP1 PUSH2 0x100 EXP SWAP1 DIV PUSH1 0xFF AND PUSH1 0x40 MLOAD PUSH2 0x3AA SWAP3 SWAP2 SWAP1 PUSH2 0x10CD JUMP JUMPDEST PUSH1 0x40 MLOAD DUP1 SWAP2 SUB SWAP1 LOG1 POP POP JUMP JUMPDEST PUSH2 0x3BE PUSH2 0x9D7 JUMP JUMPDEST PUSH1 0x2 PUSH0 DUP4 DUP2 MSTORE PUSH1 0x20 ADD SWAP1 DUP2 MSTORE PUSH1 0x20 ADD PUSH0 KECCAK256 PUSH1 0x40 MLOAD DUP1 PUSH1 0xA0 ADD PUSH1 0x40 MSTORE SWAP1 DUP2 PUSH0 DUP3 ADD DUP1 SLOAD PUSH2 0x3E9 SWAP1 PUSH2 0xFCD JUMP JUMPDEST DUP1 PUSH1 0x1F ADD PUSH1 0x20 DUP1 SWAP2 DIV MUL PUSH1 0x20 ADD PUSH1 0x40 MLOAD SWAP1 DUP2 ADD PUSH1 0x40 MSTORE DUP1 SWAP3 SWAP2 SWAP1 DUP2 DUP2 MSTORE PUSH1 0x20 ADD DUP3 DUP1 SLOAD PUSH2 0x415 SWAP1 PUSH2 0xFCD JUMP JUMPDEST DUP1 ISZERO PUSH2 0x460 JUMPI DUP1 PUSH1 0x1F LT PUSH2 0x437 JUMPI PUSH2 0x100 DUP1 DUP4 SLOAD DIV MUL DUP4 MSTORE SWAP2 PUSH1 0x20 ADD SWAP2 PUSH2 0x460 JUMP JUMPDEST DUP3 ADD SWAP2 SWAP1 PUSH0 MSTORE PUSH1 0x20 PUSH0 KECCAK256 SWAP1 JUMPDEST DUP2 SLOAD DUP2 MSTORE SWAP1 PUSH1 0x1 ADD SWAP1 PUSH1 0x20 ADD DUP1 DUP4 GT PUSH2 0x443 JUMPI DUP3 SWAP1 SUB PUSH1 0x1F AND DUP3 ADD SWAP2 JUMPDEST POP POP POP POP POP DUP2 MSTORE PUSH1 0x20 ADD PUSH1 0x1 DUP3 ADD DUP1 SLOAD PUSH2 0x479 SWAP1 PUSH2 0xFCD JUMP JUMPDEST DUP1 PUSH1 0x1F ADD PUSH1 0x20 DUP1 SWAP2 DIV MUL PUSH1 0x20 ADD PUSH1 0x40 MLOAD SWAP1 DUP2 ADD PUSH1 0x40 MSTORE DUP1 SWAP3 SWAP2 SWAP1 DUP2 DUP2 MSTORE PUSH1 0x20 ADD DUP3 DUP1 SLOAD PUSH2 0x4A5 SWAP1 PUSH2 0xFCD JUMP JUMPDEST DUP1 ISZERO PUSH2 0x4F0 JUMPI DUP1 PUSH1 0x1F LT PUSH2 0x4C7 JUMPI PUSH2 0x100 DUP1 DUP4 SLOAD DIV MUL DUP4 MSTORE SWAP2 PUSH1 0x20 ADD SWAP2 PUSH2 0x4F0 JUMP JUMPDEST DUP3 ADD SWAP2 SWAP1 PUSH0 MSTORE PUSH1 0x20 PUSH0 KECCAK256 SWAP1 JUMPDEST DUP2 SLOAD DUP2 MSTORE SWAP1 PUSH1 0x1 ADD SWAP1 PUSH1 0x20 ADD DUP1 DUP4 GT PUSH2 0x4D3 JUMPI DUP3 SWAP1 SUB PUSH1 0x1F AND DUP3 ADD SWAP2 JUMPDEST POP POP POP POP POP DUP2 MSTORE PUSH1 0x20 ADD PUSH1 0x2 DUP3 ADD PUSH0 SWAP1 SLOAD SWAP1 PUSH2 0x100 EXP SWAP1 DIV PUSH20 0xFFFFFFFFFFFFFFFFFFFFFFFFFFFFFFFFFFFFFFFF AND PUSH20 0xFFFFFFFFFFFFFFFFFFFFFFFFFFFFFFFFFFFFFFFF AND PUSH20 0xFFFFFFFFFFFFFFFFFFFFFFFFFFFFFFFFFFFFFFFF AND DUP2 MSTORE PUSH1 0x20 ADD PUSH1 0x2 DUP3 ADD PUSH1 0x14 SWAP1 SLOAD SWAP1 PUSH2 0x100 EXP SWAP1 DIV PUSH1 0xFF AND PUSH1 0x2 DUP2 GT ISZERO PUSH2 0x573 JUMPI PUSH2 0x572 PUSH2 0xC24 JUMP JUMPDEST JUMPDEST PUSH1 0x2 DUP2 GT ISZERO PUSH2 0x585 JUMPI PUSH2 0x584 PUSH2 0xC24 JUMP JUMPDEST JUMPDEST DUP2 MSTORE PUSH1 0x20 ADD PUSH1 0x3 DUP3 ADD SLOAD DUP2 MSTORE POP POP SWAP1 POP SWAP2 SWAP1 POP JUMP JUMPDEST PUSH1 0x40 MLOAD DUP1 PUSH1 0xA0 ADD PUSH1 0x40 MSTORE DUP1 DUP4 DUP2 MSTORE PUSH1 0x20 ADD DUP3 DUP2 MSTORE PUSH1 0x20 ADD CALLER PUSH20 0xFFFFFFFFFFFFFFFFFFFFFFFFFFFFFFFFFFFFFFFF AND DUP2 MSTORE PUSH1 0x20 ADD PUSH0 PUSH1 0x2 DUP2 GT ISZERO PUSH2 0x5E0 JUMPI PUSH2 0x5DF PUSH2 0xC24 JUMP JUMPDEST JUMPDEST DUP2 MSTORE PUSH1 0x20 ADD TIMESTAMP DUP2 MSTORE POP PUSH1 0x2 PUSH0 PUSH1 0x3 SLOAD DUP2 MSTORE PUSH1 0x20 ADD SWAP1 DUP2 MSTORE PUSH1 0x20 ADD PUSH0 KECCAK256 PUSH0 DUP3 ADD MLOAD DUP2 PUSH0 ADD SWAP1 DUP2 PUSH2 0x60F SWAP2 SWAP1 PUSH2 0x1294 JUMP JUMPDEST POP PUSH1 0x20 DUP3 ADD MLOAD DUP2 PUSH1 0x1 ADD SWAP1 DUP2 PUSH2 0x625 SWAP2 SWAP1 PUSH2 0x1294 JUMP JUMPDEST POP PUSH1 0x40 DUP3 ADD MLOAD DUP2 PUSH1 0x2 ADD PUSH0 PUSH2 0x100 EXP DUP2 SLOAD DUP2 PUSH20 0xFFFFFFFFFFFFFFFFFFFFFFFFFFFFFFFFFFFFFFFF MUL NOT AND SWAP1 DUP4 PUSH20 0xFFFFFFFFFFFFFFFFFFFFFFFFFFFFFFFFFFFFFFFF AND MUL OR SWAP1 SSTORE POP PUSH1 0x60 DUP3 ADD MLOAD DUP2 PUSH1 0x2 ADD PUSH1 0x14 PUSH2 0x100 EXP DUP2 SLOAD DUP2 PUSH1 0xFF MUL NOT AND SWAP1 DUP4 PUSH1 0x2 DUP2 GT ISZERO PUSH2 0x697 JUMPI PUSH2 0x696 PUSH2 0xC24 JUMP JUMPDEST JUMPDEST MUL OR SWAP1 SSTORE POP PUSH1 0x80 DUP3 ADD MLOAD DUP2 PUSH1 0x3 ADD SSTORE SWAP1 POP POP CALLER PUSH20 0xFFFFFFFFFFFFFFFFFFFFFFFFFFFFFFFFFFFFFFFF AND PUSH32 0xBC1A1CCF8342004AF7ABC5B367BE5BEB32916A886FA6A400AE874B3E5EBBC272 PUSH1 0x3 SLOAD DUP5 DUP5 PUSH1 0x40 MLOAD PUSH2 0x6F5 SWAP4 SWAP3 SWAP2 SWAP1 PUSH2 0x1363 JUMP JUMPDEST PUSH1 0x40 MLOAD DUP1 SWAP2 SUB SWAP1 LOG2 PUSH1 0x3 PUSH0 DUP2 SLOAD DUP1 SWAP3 SWAP2 SWAP1 PUSH2 0x70F SWAP1 PUSH2 0x13D3 JUMP JUMPDEST SWAP2 SWAP1 POP SSTORE POP POP POP JUMP JUMPDEST PUSH1 0x3 SLOAD DUP2 JUMP JUMPDEST PUSH0 PUSH0 SWAP1 SLOAD SWAP1 PUSH2 0x100 EXP SWAP1 DIV PUSH20 0xFFFFFFFFFFFFFFFFFFFFFFFFFFFFFFFFFFFFFFFF AND DUP2 JUMP JUMPDEST PUSH1 0x60 PUSH1 0x1 PUSH1 0x2 DUP2 GT ISZERO PUSH2 0x758 JUMPI PUSH2 0x757 PUSH2 0xC24 JUMP JUMPDEST JUMPDEST PUSH1 0x2 PUSH0 DUP5 DUP2 MSTORE PUSH1 0x20 ADD SWAP1 DUP2 MSTORE PUSH1 0x20 ADD PUSH0 KECCAK256 PUSH1 0x2 ADD PUSH1 0x14 SWAP1 SLOAD SWAP1 PUSH2 0x100 EXP SWAP1 DIV PUSH1 0xFF AND PUSH1 0x2 DUP2 GT ISZERO PUSH2 0x78C JUMPI PUSH2 0x78B PUSH2 0xC24 JUMP JUMPDEST JUMPDEST EQ PUSH2 0x7CC JUMPI PUSH1 0x40 MLOAD PUSH32 0x8C379A000000000000000000000000000000000000000000000000000000000 DUP2 MSTORE PUSH1 0x4 ADD PUSH2 0x7C3 SWAP1 PUSH2 0x1464 JUMP JUMPDEST PUSH1 0x40 MLOAD DUP1 SWAP2 SUB SWAP1 REVERT JUMPDEST PUSH1 0x2 PUSH0 DUP4 DUP2 MSTORE PUSH1 0x20 ADD SWAP1 DUP2 MSTORE PUSH1 0x20 ADD PUSH0 KECCAK256 PUSH0 ADD DUP1 SLOAD PUSH2 0x7EA SWAP1 PUSH2 0xFCD JUMP JUMPDEST DUP1 PUSH1 0x1F ADD PUSH1 0x20 DUP1 SWAP2 DIV MUL PUSH1 0x20 ADD PUSH1 0x40 MLOAD SWAP1 DUP2 ADD PUSH1 0x40 MSTORE DUP1 SWAP3 SWAP2 SWAP1 DUP2 DUP2 MSTORE PUSH1 0x20 ADD DUP3 DUP1 SLOAD PUSH2 0x816 SWAP1 PUSH2 0xFCD JUMP JUMPDEST DUP1 ISZERO PUSH2 0x861 JUMPI DUP1 PUSH1 0x1F LT PUSH2 0x838 JUMPI PUSH2 0x100 DUP1 DUP4 SLOAD DIV MUL DUP4 MSTORE SWAP2 PUSH1 0x20 ADD SWAP2 PUSH2 0x861 JUMP JUMPDEST DUP3 ADD SWAP2 SWAP1 PUSH0 MSTORE PUSH1 0x20 PUSH0 KECCAK256 SWAP1 JUMPDEST DUP2 SLOAD DUP2 MSTORE SWAP1 PUSH1 0x1 ADD SWAP1 PUSH1 0x20 ADD DUP1 DUP4 GT PUSH2 0x844 JUMPI DUP3 SWAP1 SUB PUSH1 0x1F AND DUP3 ADD SWAP2 JUMPDEST POP POP POP POP POP SWAP1 POP SWAP2 SWAP1 POP JUMP JUMPDEST PUSH1 0x2 PUSH1 0x20 MSTORE DUP1 PUSH0 MSTORE PUSH1 0x40 PUSH0 KECCAK256 PUSH0 SWAP2 POP SWAP1 POP DUP1 PUSH0 ADD DUP1 SLOAD PUSH2 0x88C SWAP1 PUSH2 0xFCD JUMP JUMPDEST DUP1 PUSH1 0x1F ADD PUSH1 0x20 DUP1 SWAP2 DIV MUL PUSH1 0x20 ADD PUSH1 0x40 MLOAD SWAP1 DUP2 ADD PUSH1 0x40 MSTORE DUP1 SWAP3 SWAP2 SWAP1 DUP2 DUP2 MSTORE PUSH1 0x20 ADD DUP3 DUP1 SLOAD PUSH2 0x8B8 SWAP1 PUSH2 0xFCD JUMP JUMPDEST DUP1 ISZERO PUSH2 0x903 JUMPI DUP1 PUSH1 0x1F LT PUSH2 0x8DA JUMPI PUSH2 0x100 DUP1 DUP4 SLOAD DIV MUL DUP4 MSTORE SWAP2 PUSH1 0x20 ADD SWAP2 PUSH2 0x903 JUMP JUMPDEST DUP3 ADD SWAP2 SWAP1 PUSH0 MSTORE PUSH1 0x20 PUSH0 KECCAK256 SWAP1 JUMPDEST DUP2 SLOAD DUP2 MSTORE SWAP1 PUSH1 0x1 ADD SWAP1 PUSH1 0x20 ADD DUP1 DUP4 GT PUSH2 0x8E6 JUMPI DUP3 SWAP1 SUB PUSH1 0x1F AND DUP3 ADD SWAP2 JUMPDEST POP POP POP POP POP SWAP1 DUP1 PUSH1 0x1 ADD DUP1 SLOAD PUSH2 0x918 SWAP1 PUSH2 0xFCD JUMP JUMPDEST DUP1 PUSH1 0x1F ADD PUSH1 0x20 DUP1 SWAP2 DIV MUL PUSH1 0x20 ADD PUSH1 0x40 MLOAD SWAP1 DUP2 ADD PUSH1 0x40 MSTORE DUP1 SWAP3 SWAP2 SWAP1 DUP2 DUP2 MSTORE PUSH1 0x20 ADD DUP3 DUP1 SLOAD PUSH2 0x944 SWAP1 PUSH2 0xFCD JUMP JUMPDEST DUP1 ISZERO PUSH2 0x98F JUMPI DUP1 PUSH1 0x1F LT PUSH2 0x966 JUMPI PUSH2 0x100 DUP1 DUP4 SLOAD DIV MUL DUP4 MSTORE SWAP2 PUSH1 0x20 ADD SWAP2 PUSH2 0x98F JUMP JUMPDEST DUP3 ADD SWAP2 SWAP1 PUSH0 MSTORE PUSH1 0x20 PUSH0 KECCAK256 SWAP1 JUMPDEST DUP2 SLOAD DUP2 MSTORE SWAP1 PUSH1 0x1 ADD SWAP1 PUSH1 0x20 ADD DUP1 DUP4 GT PUSH2 0x972 JUMPI DUP3 SWAP1 SUB PUSH1 0x1F AND DUP3 ADD SWAP2 JUMPDEST POP POP POP POP POP SWAP1 DUP1 PUSH1 0x2 ADD PUSH0 SWAP1 SLOAD SWAP1 PUSH2 0x100 EXP SWAP1 DIV PUSH20 0xFFFFFFFFFFFFFFFFFFFFFFFFFFFFFFFFFFFFFFFF AND SWAP1 DUP1 PUSH1 0x2 ADD PUSH1 0x14 SWAP1 SLOAD SWAP1 PUSH2 0x100 EXP SWAP1 DIV PUSH1 0xFF AND SWAP1 DUP1 PUSH1 0x3 ADD SLOAD SWAP1 POP DUP6 JUMP JUMPDEST PUSH1 0x40 MLOAD DUP1 PUSH1 0xA0 ADD PUSH1 0x40 MSTORE DUP1 PUSH1 0x60 DUP2 MSTORE PUSH1 0x20 ADD PUSH1 0x60 DUP2 MSTORE PUSH1 0x20 ADD PUSH0 PUSH20 0xFFFFFFFFFFFFFFFFFFFFFFFFFFFFFFFFFFFFFFFF AND DUP2 MSTORE PUSH1 0x20 ADD PUSH0 PUSH1 0x2 DUP2 GT ISZERO PUSH2 0xA1F JUMPI PUSH2 0xA1E PUSH2 0xC24 JUMP JUMPDEST JUMPDEST DUP2 MSTORE PUSH1 0x20 ADD PUSH0 DUP2 MSTORE POP SWAP1 JUMP JUMPDEST PUSH0 DUP2 MLOAD SWAP1 POP SWAP2 SWAP1 POP JUMP JUMPDEST PUSH0 DUP3 DUP3 MSTORE PUSH1 0x20 DUP3 ADD SWAP1 POP SWAP3 SWAP2 POP POP JUMP JUMPDEST DUP3 DUP2 DUP4 MCOPY PUSH0 DUP4 DUP4 ADD MSTORE POP POP POP JUMP JUMPDEST PUSH0 PUSH1 0x1F NOT PUSH1 0x1F DUP4 ADD AND SWAP1 POP SWAP2 SWAP1 POP JUMP JUMPDEST PUSH0 PUSH2 0xA6D DUP3 PUSH2 0xA2B JUMP JUMPDEST PUSH2 0xA77 DUP2 DUP6 PUSH2 0xA35 JUMP JUMPDEST SWAP4 POP PUSH2 0xA87 DUP2 DUP6 PUSH1 0x20 DUP7 ADD PUSH2 0xA45 JUMP JUMPDEST PUSH2 0xA90 DUP2 PUSH2 0xA53 JUMP JUMPDEST DUP5 ADD SWAP2 POP POP SWAP3 SWAP2 POP POP JUMP JUMPDEST PUSH0 PUSH1 0x20 DUP3 ADD SWAP1 POP DUP2 DUP2 SUB PUSH0 DUP4 ADD MSTORE PUSH2 0xAB3 DUP2 DUP5 PUSH2 0xA63 JUMP JUMPDEST SWAP1 POP SWAP3 SWAP2 POP POP JUMP JUMPDEST PUSH0 PUSH1 0x40 MLOAD SWAP1 POP SWAP1 JUMP JUMPDEST PUSH0 PUSH0 REVERT JUMPDEST PUSH0 PUSH0 REVERT JUMPDEST PUSH0 DUP2 SWAP1 POP SWAP2 SWAP1 POP JUMP JUMPDEST PUSH2 0xADE DUP2 PUSH2 0xACC JUMP JUMPDEST DUP2 EQ PUSH2 0xAE8 JUMPI PUSH0 PUSH0 REVERT JUMPDEST POP JUMP JUMPDEST PUSH0 DUP2 CALLDATALOAD SWAP1 POP PUSH2 0xAF9 DUP2 PUSH2 0xAD5 JUMP JUMPDEST SWAP3 SWAP2 POP POP JUMP JUMPDEST PUSH0 DUP2 ISZERO ISZERO SWAP1 POP SWAP2 SWAP1 POP JUMP JUMPDEST PUSH2 0xB13 DUP2 PUSH2 0xAFF JUMP JUMPDEST DUP2 EQ PUSH2 0xB1D JUMPI PUSH0 PUSH0 REVERT JUMPDEST POP JUMP JUMPDEST PUSH0 DUP2 CALLDATALOAD SWAP1 POP PUSH2 0xB2E DUP2 PUSH2 0xB0A JUMP JUMPDEST SWAP3 SWAP2 POP POP JUMP JUMPDEST PUSH0 PUSH0 PUSH1 0x40 DUP4 DUP6 SUB SLT ISZERO PUSH2 0xB4A JUMPI PUSH2 0xB49 PUSH2 0xAC4 JUMP JUMPDEST JUMPDEST PUSH0 PUSH2 0xB57 DUP6 DUP3 DUP7 ADD PUSH2 0xAEB JUMP JUMPDEST SWAP3 POP POP PUSH1 0x20 PUSH2 0xB68 DUP6 DUP3 DUP7 ADD PUSH2 0xB20 JUMP JUMPDEST SWAP2 POP POP SWAP3 POP SWAP3 SWAP1 POP JUMP JUMPDEST PUSH0 PUSH1 0x20 DUP3 DUP5 SUB SLT ISZERO PUSH2 0xB87 JUMPI PUSH2 0xB86 PUSH2 0xAC4 JUMP JUMPDEST JUMPDEST PUSH0 PUSH2 0xB94 DUP5 DUP3 DUP6 ADD PUSH2 0xAEB JUMP JUMPDEST SWAP2 POP POP SWAP3 SWAP2 POP POP JUMP JUMPDEST PUSH0 DUP3 DUP3 MSTORE PUSH1 0x20 DUP3 ADD SWAP1 POP SWAP3 SWAP2 POP POP JUMP JUMPDEST PUSH0 PUSH2 0xBB7 DUP3 PUSH2 0xA2B JUMP JUMPDEST PUSH2 0xBC1 DUP2 DUP6 PUSH2 0xB9D JUMP JUMPDEST SWAP4 POP PUSH2 0xBD1 DUP2 DUP6 PUSH1 0x20 DUP7 ADD PUSH2 0xA45 JUMP JUMPDEST PUSH2 0xBDA DUP2 PUSH2 0xA53 JUMP JUMPDEST DUP5 ADD SWAP2 POP POP SWAP3 SWAP2 POP POP JUMP JUMPDEST PUSH0 PUSH20 0xFFFFFFFFFFFFFFFFFFFFFFFFFFFFFFFFFFFFFFFF DUP3 AND SWAP1 POP SWAP2 SWAP1 POP JUMP JUMPDEST PUSH0 PUSH2 0xC0E DUP3 PUSH2 0xBE5 JUMP JUMPDEST SWAP1 POP SWAP2 SWAP1 POP JUMP JUMPDEST PUSH2 0xC1E DUP2 PUSH2 0xC04 JUMP JUMPDEST DUP3 MSTORE POP POP JUMP JUMPDEST PUSH32 0x4E487B7100000000000000000000000000000000000000000000000000000000 PUSH0 MSTORE PUSH1 0x21 PUSH1 0x4 MSTORE PUSH1 0x24 PUSH0 REVERT JUMPDEST PUSH1 0x3 DUP2 LT PUSH2 0xC62 JUMPI PUSH2 0xC61 PUSH2 0xC24 JUMP JUMPDEST JUMPDEST POP JUMP JUMPDEST PUSH0 DUP2 SWAP1 POP PUSH2 0xC72 DUP3 PUSH2 0xC51 JUMP JUMPDEST SWAP2 SWAP1 POP JUMP JUMPDEST PUSH0 PUSH2 0xC81 DUP3 PUSH2 0xC65 JUMP JUMPDEST SWAP1 POP SWAP2 SWAP1 POP JUMP JUMPDEST PUSH2 0xC91 DUP2 PUSH2 0xC77 JUMP JUMPDEST DUP3 MSTORE POP POP JUMP JUMPDEST PUSH2 0xCA0 DUP2 PUSH2 0xACC JUMP JUMPDEST DUP3 MSTORE POP POP JUMP JUMPDEST PUSH0 PUSH1 0xA0 DUP4 ADD PUSH0 DUP4 ADD MLOAD DUP5 DUP3 SUB PUSH0 DUP7 ADD MSTORE PUSH2 0xCC0 DUP3 DUP3 PUSH2 0xBAD JUMP JUMPDEST SWAP2 POP POP PUSH1 0x20 DUP4 ADD MLOAD DUP5 DUP3 SUB PUSH1 0x20 DUP7 ADD MSTORE PUSH2 0xCDA DUP3 DUP3 PUSH2 0xBAD JUMP JUMPDEST SWAP2 POP POP PUSH1 0x40 DUP4 ADD MLOAD PUSH2 0xCEF PUSH1 0x40 DUP7 ADD DUP3 PUSH2 0xC15 JUMP JUMPDEST POP PUSH1 0x60 DUP4 ADD MLOAD PUSH2 0xD02 PUSH1 0x60 DUP7 ADD DUP3 PUSH2 0xC88 JUMP JUMPDEST POP PUSH1 0x80 DUP4 ADD MLOAD PUSH2 0xD15 PUSH1 0x80 DUP7 ADD DUP3 PUSH2 0xC97 JUMP JUMPDEST POP DUP1 SWAP2 POP POP SWAP3 SWAP2 POP POP JUMP JUMPDEST PUSH0 PUSH1 0x20 DUP3 ADD SWAP1 POP DUP2 DUP2 SUB PUSH0 DUP4 ADD MSTORE PUSH2 0xD38 DUP2 DUP5 PUSH2 0xCA6 JUMP JUMPDEST SWAP1 POP SWAP3 SWAP2 POP POP JUMP JUMPDEST PUSH0 PUSH0 REVERT JUMPDEST PUSH0 PUSH0 REVERT JUMPDEST PUSH32 0x4E487B7100000000000000000000000000000000000000000000000000000000 PUSH0 MSTORE PUSH1 0x41 PUSH1 0x4 MSTORE PUSH1 0x24 PUSH0 REVERT JUMPDEST PUSH2 0xD7E DUP3 PUSH2 0xA53 JUMP JUMPDEST DUP2 ADD DUP2 DUP2 LT PUSH8 0xFFFFFFFFFFFFFFFF DUP3 GT OR ISZERO PUSH2 0xD9D JUMPI PUSH2 0xD9C PUSH2 0xD48 JUMP JUMPDEST JUMPDEST DUP1 PUSH1 0x40 MSTORE POP POP POP JUMP JUMPDEST PUSH0 PUSH2 0xDAF PUSH2 0xABB JUMP JUMPDEST SWAP1 POP PUSH2 0xDBB DUP3 DUP3 PUSH2 0xD75 JUMP JUMPDEST SWAP2 SWAP1 POP JUMP JUMPDEST PUSH0 PUSH8 0xFFFFFFFFFFFFFFFF DUP3 GT ISZERO PUSH2 0xDDA JUMPI PUSH2 0xDD9 PUSH2 0xD48 JUMP JUMPDEST JUMPDEST PUSH2 0xDE3 DUP3 PUSH2 0xA53 JUMP JUMPDEST SWAP1 POP PUSH1 0x20 DUP2 ADD SWAP1 POP SWAP2 SWAP1 POP JUMP JUMPDEST DUP3 DUP2 DUP4 CALLDATACOPY PUSH0 DUP4 DUP4 ADD MSTORE POP POP POP JUMP JUMPDEST PUSH0 PUSH2 0xE10 PUSH2 0xE0B DUP5 PUSH2 0xDC0 JUMP JUMPDEST PUSH2 0xDA6 JUMP JUMPDEST SWAP1 POP DUP3 DUP2 MSTORE PUSH1 0x20 DUP2 ADD DUP5 DUP5 DUP5 ADD GT ISZERO PUSH2 0xE2C JUMPI PUSH2 0xE2B PUSH2 0xD44 JUMP JUMPDEST JUMPDEST PUSH2 0xE37 DUP5 DUP3 DUP6 PUSH2 0xDF0 JUMP JUMPDEST POP SWAP4 SWAP3 POP POP POP JUMP JUMPDEST PUSH0 DUP3 PUSH1 0x1F DUP4 ADD SLT PUSH2 0xE53 JUMPI PUSH2 0xE52 PUSH2 0xD40 JUMP JUMPDEST JUMPDEST DUP2 CALLDATALOAD PUSH2 0xE63 DUP5 DUP3 PUSH1 0x20 DUP7 ADD PUSH2 0xDFE JUMP JUMPDEST SWAP2 POP POP SWAP3 SWAP2 POP POP JUMP JUMPDEST PUSH0 PUSH0 PUSH1 0x40 DUP4 DUP6 SUB SLT ISZERO PUSH2 0xE82 JUMPI PUSH2 0xE81 PUSH2 0xAC4 JUMP JUMPDEST JUMPDEST PUSH0 DUP4 ADD CALLDATALOAD PUSH8 0xFFFFFFFFFFFFFFFF DUP2 GT ISZERO PUSH2 0xE9F JUMPI PUSH2 0xE9E PUSH2 0xAC8 JUMP JUMPDEST JUMPDEST PUSH2 0xEAB DUP6 DUP3 DUP7 ADD PUSH2 0xE3F JUMP JUMPDEST SWAP3 POP POP PUSH1 0x20 DUP4 ADD CALLDATALOAD PUSH8 0xFFFFFFFFFFFFFFFF DUP2 GT ISZERO PUSH2 0xECC JUMPI PUSH2 0xECB PUSH2 0xAC8 JUMP JUMPDEST JUMPDEST PUSH2 0xED8 DUP6 DUP3 DUP7 ADD PUSH2 0xE3F JUMP JUMPDEST SWAP2 POP POP SWAP3 POP SWAP3 SWAP1 POP JUMP JUMPDEST PUSH2 0xEEB DUP2 PUSH2 0xACC JUMP JUMPDEST DUP3 MSTORE POP POP JUMP JUMPDEST PUSH0 PUSH1 0x20 DUP3 ADD SWAP1 POP PUSH2 0xF04 PUSH0 DUP4 ADD DUP5 PUSH2 0xEE2 JUMP JUMPDEST SWAP3 SWAP2 POP POP JUMP JUMPDEST PUSH2 0xF13 DUP2 PUSH2 0xC04 JUMP JUMPDEST DUP3 MSTORE POP POP JUMP JUMPDEST PUSH0 PUSH1 0x20 DUP3 ADD SWAP1 POP PUSH2 0xF2C PUSH0 DUP4 ADD DUP5 PUSH2 0xF0A JUMP JUMPDEST SWAP3 SWAP2 POP POP JUMP JUMPDEST PUSH2 0xF3B DUP2 PUSH2 0xC77 JUMP JUMPDEST DUP3 MSTORE POP POP JUMP JUMPDEST PUSH0 PUSH1 0xA0 DUP3 ADD SWAP1 POP DUP2 DUP2 SUB PUSH0 DUP4 ADD MSTORE PUSH2 0xF59 DUP2 DUP9 PUSH2 0xA63 JUMP JUMPDEST SWAP1 POP DUP2 DUP2 SUB PUSH1 0x20 DUP4 ADD MSTORE PUSH2 0xF6D DUP2 DUP8 PUSH2 0xA63 JUMP JUMPDEST SWAP1 POP PUSH2 0xF7C PUSH1 0x40 DUP4 ADD DUP7 PUSH2 0xF0A JUMP JUMPDEST PUSH2 0xF89 PUSH1 0x60 DUP4 ADD DUP6 PUSH2 0xF32 JUMP JUMPDEST PUSH2 0xF96 PUSH1 0x80 DUP4 ADD DUP5 PUSH2 0xEE2 JUMP JUMPDEST SWAP7 SWAP6 POP POP POP POP POP POP JUMP JUMPDEST PUSH32 0x4E487B7100000000000000000000000000000000000000000000000000000000 PUSH0 MSTORE PUSH1 0x22 PUSH1 0x4 MSTORE PUSH1 0x24 PUSH0 REVERT JUMPDEST PUSH0 PUSH1 0x2 DUP3 DIV SWAP1 POP PUSH1 0x1 DUP3 AND DUP1 PUSH2 0xFE4 JUMPI PUSH1 0x7F DUP3 AND SWAP2 POP JUMPDEST PUSH1 0x20 DUP3 LT DUP2 SUB PUSH2 0xFF7 JUMPI PUSH2 0xFF6 PUSH2 0xFA0 JUMP JUMPDEST JUMPDEST POP SWAP2 SWAP1 POP JUMP JUMPDEST PUSH32 0x4F6E6C79204F72672041646D696E000000000000000000000000000000000000 PUSH0 DUP3 ADD MSTORE POP JUMP JUMPDEST PUSH0 PUSH2 0x1031 PUSH1 0xE DUP4 PUSH2 0xA35 JUMP JUMPDEST SWAP2 POP PUSH2 0x103C DUP3 PUSH2 0xFFD JUMP JUMPDEST PUSH1 0x20 DUP3 ADD SWAP1 POP SWAP2 SWAP1 POP JUMP JUMPDEST PUSH0 PUSH1 0x20 DUP3 ADD SWAP1 POP DUP2 DUP2 SUB PUSH0 DUP4 ADD MSTORE PUSH2 0x105E DUP2 PUSH2 0x1025 JUMP JUMPDEST SWAP1 POP SWAP2 SWAP1 POP JUMP JUMPDEST PUSH32 0x496E76616C696420446F63204944000000000000000000000000000000000000 PUSH0 DUP3 ADD MSTORE POP JUMP JUMPDEST PUSH0 PUSH2 0x1099 PUSH1 0xE DUP4 PUSH2 0xA35 JUMP JUMPDEST SWAP2 POP PUSH2 0x10A4 DUP3 PUSH2 0x1065 JUMP JUMPDEST PUSH1 0x20 DUP3 ADD SWAP1 POP SWAP2 SWAP1 POP JUMP JUMPDEST PUSH0 PUSH1 0x20 DUP3 ADD SWAP1 POP DUP2 DUP2 SUB PUSH0 DUP4 ADD MSTORE PUSH2 0x10C6 DUP2 PUSH2 0x108D JUMP JUMPDEST SWAP1 POP SWAP2 SWAP1 POP JUMP JUMPDEST PUSH0 PUSH1 0x40 DUP3 ADD SWAP1 POP PUSH2 0x10E0 PUSH0 DUP4 ADD DUP6 PUSH2 0xEE2 JUMP JUMPDEST PUSH2 0x10ED PUSH1 0x20 DUP4 ADD DUP5 PUSH2 0xF32 JUMP JUMPDEST SWAP4 SWAP3 POP POP POP JUMP JUMPDEST PUSH0 DUP2 SWAP1 POP DUP2 PUSH0 MSTORE PUSH1 0x20 PUSH0 KECCAK256 SWAP1 POP SWAP2 SWAP1 POP JUMP JUMPDEST PUSH0 PUSH1 0x20 PUSH1 0x1F DUP4 ADD DIV SWAP1 POP SWAP2 SWAP1 POP JUMP JUMPDEST PUSH0 DUP3 DUP3 SHL SWAP1 POP SWAP3 SWAP2 POP POP JUMP JUMPDEST PUSH0 PUSH1 0x8 DUP4 MUL PUSH2 0x1150 PUSH32 0xFFFFFFFFFFFFFFFFFFFFFFFFFFFFFFFFFFFFFFFFFFFFFFFFFFFFFFFFFFFFFFFF DUP3 PUSH2 0x1115 JUMP JUMPDEST PUSH2 0x115A DUP7 DUP4 PUSH2 0x1115 JUMP JUMPDEST SWAP6 POP DUP1 NOT DUP5 AND SWAP4 POP DUP1 DUP7 AND DUP5 OR SWAP3 POP POP POP SWAP4 SWAP3 POP POP POP JUMP JUMPDEST PUSH0 DUP2 SWAP1 POP SWAP2 SWAP1 POP JUMP JUMPDEST PUSH0 PUSH2 0x1195 PUSH2 0x1190 PUSH2 0x118B DUP5 PUSH2 0xACC JUMP JUMPDEST PUSH2 0x1172 JUMP JUMPDEST PUSH2 0xACC JUMP JUMPDEST SWAP1 POP SWAP2 SWAP1 POP JUMP JUMPDEST PUSH0 DUP2 SWAP1 POP SWAP2 SWAP1 POP JUMP JUMPDEST PUSH2 0x11AE DUP4 PUSH2 0x117B JUMP JUMPDEST PUSH2 0x11C2 PUSH2 0x11BA DUP3 PUSH2 0x119C JUMP JUMPDEST DUP5 DUP5 SLOAD PUSH2 0x1121 JUMP JUMPDEST DUP3 SSTORE POP POP POP POP JUMP JUMPDEST PUSH0 PUSH0 SWAP1 POP SWAP1 JUMP JUMPDEST PUSH2 0x11D9 PUSH2 0x11CA JUMP JUMPDEST PUSH2 0x11E4 DUP2 DUP5 DUP5 PUSH2 0x11A5 JUMP JUMPDEST POP POP POP JUMP JUMPDEST JUMPDEST DUP2 DUP2 LT ISZERO PUSH2 0x1207 JUMPI PUSH2 0x11FC PUSH0 DUP3 PUSH2 0x11D1 JUMP JUMPDEST PUSH1 0x1 DUP2 ADD SWAP1 POP PUSH2 0x11EA JUMP JUMPDEST POP POP JUMP JUMPDEST PUSH1 0x1F DUP3 GT ISZERO PUSH2 0x124C JUMPI PUSH2 0x121D DUP2 PUSH2 0x10F4 JUMP JUMPDEST PUSH2 0x1226 DUP5 PUSH2 0x1106 JUMP JUMPDEST DUP2 ADD PUSH1 0x20 DUP6 LT ISZERO PUSH2 0x1235 JUMPI DUP2 SWAP1 POP JUMPDEST PUSH2 0x1249 PUSH2 0x1241 DUP6 PUSH2 0x1106 JUMP JUMPDEST DUP4 ADD DUP3 PUSH2 0x11E9 JUMP JUMPDEST POP POP JUMPDEST POP POP POP JUMP JUMPDEST PUSH0 DUP3 DUP3 SHR SWAP1 POP SWAP3 SWAP2 POP POP JUMP JUMPDEST PUSH0 PUSH2 0x126C PUSH0 NOT DUP5 PUSH1 0x8 MUL PUSH2 0x1251 JUMP JUMPDEST NOT DUP1 DUP4 AND SWAP2 POP POP SWAP3 SWAP2 POP POP JUMP JUMPDEST PUSH0 PUSH2 0x1284 DUP4 DUP4 PUSH2 0x125D JUMP JUMPDEST SWAP2 POP DUP3 PUSH1 0x2 MUL DUP3 OR SWAP1 POP SWAP3 SWAP2 POP POP JUMP JUMPDEST PUSH2 0x129D DUP3 PUSH2 0xA2B JUMP JUMPDEST PUSH8 0xFFFFFFFFFFFFFFFF DUP2 GT ISZERO PUSH2 0x12B6 JUMPI PUSH2 0x12B5 PUSH2 0xD48 JUMP JUMPDEST JUMPDEST PUSH2 0x12C0 DUP3 SLOAD PUSH2 0xFCD JUMP JUMPDEST PUSH2 0x12CB DUP3 DUP3 DUP6 PUSH2 0x120B JUMP JUMPDEST PUSH0 PUSH1 0x20 SWAP1 POP PUSH1 0x1F DUP4 GT PUSH1 0x1 DUP2 EQ PUSH2 0x12FC JUMPI PUSH0 DUP5 ISZERO PUSH2 0x12EA JUMPI DUP3 DUP8 ADD MLOAD SWAP1 POP JUMPDEST PUSH2 0x12F4 DUP6 DUP3 PUSH2 0x1279 JUMP JUMPDEST DUP7 SSTORE POP PUSH2 0x135B JUMP JUMPDEST PUSH1 0x1F NOT DUP5 AND PUSH2 0x130A DUP7 PUSH2 0x10F4 JUMP JUMPDEST PUSH0 JUMPDEST DUP3 DUP2 LT ISZERO PUSH2 0x1331 JUMPI DUP5 DUP10 ADD MLOAD DUP3 SSTORE PUSH1 0x1 DUP3 ADD SWAP2 POP PUSH1 0x20 DUP6 ADD SWAP5 POP PUSH1 0x20 DUP2 ADD SWAP1 POP PUSH2 0x130C JUMP JUMPDEST DUP7 DUP4 LT ISZERO PUSH2 0x134E JUMPI DUP5 DUP10 ADD MLOAD PUSH2 0x134A PUSH1 0x1F DUP10 AND DUP3 PUSH2 0x125D JUMP JUMPDEST DUP4 SSTORE POP JUMPDEST PUSH1 0x1 PUSH1 0x2 DUP9 MUL ADD DUP9 SSTORE POP POP POP JUMPDEST POP POP POP POP POP POP JUMP JUMPDEST PUSH0 PUSH1 0x60 DUP3 ADD SWAP1 POP PUSH2 0x1376 PUSH0 DUP4 ADD DUP7 PUSH2 0xEE2 JUMP JUMPDEST DUP2 DUP2 SUB PUSH1 0x20 DUP4 ADD MSTORE PUSH2 0x1388 DUP2 DUP6 PUSH2 0xA63 JUMP JUMPDEST SWAP1 POP DUP2 DUP2 SUB PUSH1 0x40 DUP4 ADD MSTORE PUSH2 0x139C DUP2 DUP5 PUSH2 0xA63 JUMP JUMPDEST SWAP1 POP SWAP5 SWAP4 POP POP POP POP JUMP JUMPDEST PUSH32 0x4E487B7100000000000000000000000000000000000000000000000000000000 PUSH0 MSTORE PUSH1 0x11 PUSH1 0x4 MSTORE PUSH1 0x24 PUSH0 REVERT JUMPDEST PUSH0 PUSH2 0x13DD DUP3 PUSH2 0xACC JUMP JUMPDEST SWAP2 POP PUSH32 0xFFFFFFFFFFFFFFFFFFFFFFFFFFFFFFFFFFFFFFFFFFFFFFFFFFFFFFFFFFFFFFFF DUP3 SUB PUSH2 0x140F JUMPI PUSH2 0x140E PUSH2 0x13A6 JUMP JUMPDEST JUMPDEST PUSH1 0x1 DUP3 ADD SWAP1 POP SWAP2 SWAP1 POP JUMP JUMPDEST PUSH32 0x4E6F742076657269666965640000000000000000000000000000000000000000 PUSH0 DUP3 ADD MSTORE POP JUMP JUMPDEST PUSH0 PUSH2 0x144E PUSH1 0xC DUP4 PUSH2 0xA35 JUMP JUMPDEST SWAP2 POP PUSH2 0x1459 DUP3 PUSH2 0x141A JUMP JUMPDEST PUSH1 0x20 DUP3 ADD SWAP1 POP SWAP2 SWAP1 POP JUMP JUMPDEST PUSH0 PUSH1 0x20 DUP3 ADD SWAP1 POP DUP2 DUP2 SUB PUSH0 DUP4 ADD MSTORE PUSH2 0x147B DUP2 PUSH2 0x1442 JUMP JUMPDEST SWAP1 POP SWAP2 SWAP1 POP JUMP INVALID LOG2 PUSH5 0x6970667358 0x22 SLT KECCAK256 RETURNCONTRACT 0xB3 CALLDATACOPY 0xD9 0xE STATICCALL JUMPDEST PUSH8 0x46361C382635671F DELEGATECALL DUP3 CREATE2 0x27 PUSH29 0x7C059AFC4955371DE2B2A064736F6C634300081E003300000000000000 "
				},
				"gasEstimates": {
					"creation": {
						"codeDepositCost": "1060800",
						"executionCost": "infinite",
						"totalCost": "infinite"
					},
					"external": {
						"docCount()": "2425",
						"documents(uint256)": "infinite",
						"getDocument(uint256)": "infinite",
						"getDocumentCID(uint256)": "infinite",
						"orgAdmin()": "2529",
						"orgName()": "infinite",
						"uploadDocument(string,string)": "infinite",
						"verifyDocument(uint256,bool)": "infinite"
					}
				},
				"methodIdentifiers": {
					"docCount()": "4c4dc6e0",
					"documents(uint256)": "c2ed2b05",
					"getDocument(uint256)": "3f9b250a",
					"getDocumentCID(uint256)": "69e354a7",
					"orgAdmin()": "59543973",
					"orgName()": "1386dc2d",
					"uploadDocument(string,string)": "4464fe33",
					"verifyDocument(uint256,bool)": "24e96df6"
				}
			},
			"storageLayout": {
				"storage": [
					{
						"astId": 3,
						"contract": "OrgContract.sol:OrgContract",
						"label": "orgAdmin",
						"offset": 0,
						"slot": "0",
						"type": "t_address"
					},
					{
						"astId": 5,
						"contract": "OrgContract.sol:OrgContract",
						"label": "orgName",
						"offset": 0,
						"slot": "1",
						"type": "t_string_storage"
					},
					{
						"astId": 26,
						"contract": "OrgContract.sol:OrgContract",
						"label": "documents",
						"offset": 0,
						"slot": "2",
						"type": "t_mapping(t_uint256,t_struct(Document)21_storage)"
					},
					{
						"astId": 28,
						"contract": "OrgContract.sol:OrgContract",
						"label": "docCount",
						"offset": 0,
						"slot": "3",
						"type": "t_uint256"
					}
				],
				"types": {
					"t_address": {
						"encoding": "inplace",
						"label": "address",
						"numberOfBytes": "20"
					},
					"t_enum(Status)9": {
						"encoding": "inplace",
						"label": "enum OrgContract.Status",
						"numberOfBytes": "1"
					},
					"t_mapping(t_uint256,t_struct(Document)21_storage)": {
						"encoding": "mapping",
						"key": "t_uint256",
						"label": "mapping(uint256 => struct OrgContract.Document)",
						"numberOfBytes": "32",
						"value": "t_struct(Document)21_storage"
					},
					"t_string_storage": {
						"encoding": "bytes",
						"label": "string",
						"numberOfBytes": "32"
					},
					"t_struct(Document)21_storage": {
						"encoding": "inplace",
						"label": "struct OrgContract.Document",
						"members": [
							{
								"astId": 11,
								"contract": "OrgContract.sol:OrgContract",
								"label": "cid",
								"offset": 0,
								"slot": "0",
								"type": "t_string_storage"
							},
							{
								"astId": 13,
								"contract": "OrgContract.sol:OrgContract",
								"label": "docType",
								"offset": 0,
								"slot": "1",
								"type": "t_string_storage"
							},
							{
								"astId": 15,
								"contract": "OrgContract.sol:OrgContract",
								"label": "uploadedBy",
								"offset": 0,
								"slot": "2",
								"type": "t_address"
							},
							{
								"astId": 18,
								"contract": "OrgContract.sol:OrgContract",
								"label": "status",
								"offset": 20,
								"slot": "2",
								"type": "t_enum(Status)9"
							},
							{
								"astId": 20,
								"contract": "OrgContract.sol:OrgContract",
								"label": "uploadedAt",
								"offset": 0,
								"slot": "3",
								"type": "t_uint256"
							}
						],
						"numberOfBytes": "128"
					},
					"t_uint256": {
						"encoding": "inplace",
						"label": "uint256",
						"numberOfBytes": "32"
					}
				}
			},
			"userdoc": {
				"kind": "user",
				"methods": {},
				"version": 1
			}
		}
	}
}