{
	"data": {
		"bytecode": {
			"linkReferences": {},
			"object": "608060405234801561000f575f5ffd5b503360015f819055505f73ffffffffffffffffffffffffffffffffffffffff168173ffffffffffffffffffffffffffffffffffffffff1603610088575f6040517f1e4fbdf700000000000000000000000000000000000000000000000000000000815260040161007f919061019f565b60405180910390fd5b6100978161009d60201b60201c565b506101b8565b5f60015f9054906101000a900473ffffffffffffffffffffffffffffffffffffffff1690508160015f6101000a81548173ffffffffffffffffffffffffffffffffffffffff021916908373ffffffffffffffffffffffffffffffffffffffff1602179055508173ffffffffffffffffffffffffffffffffffffffff168173ffffffffffffffffffffffffffffffffffffffff167f8be0079c531659141344cd1fd0a4f28419497f9722a3daafe3b4186f6b6457e060405160405180910390a35050565b5f73ffffffffffffffffffffffffffffffffffffffff82169050919050565b5f61018982610160565b9050919050565b6101998161017f565b82525050565b5f6020820190506101b25f830184610190565b92915050565b61252e806101c55f395ff3fe608060405234801561000f575f5ffd5b50600436106100b2575f3560e01c80638da5cb5b1161006f5780638da5cb5b146101885780639e281a98146101a6578063a451f602146101c2578063e3f2804f146101de578063ed4aa7c01461020e578063f2fde38b1461023e576100b2565b8063049b266a146100b657806304c2320b146100d257806317456e561461010257806331dd8eb81461011e578063577a9fc51461014e578063715018a61461017e575b5f5ffd5b6100d060048036038101906100cb9190611633565b61025a565b005b6100ec60048036038101906100e791906116bb565b6104df565b6040516100f9919061177c565b60405180910390f35b61011c600480360381019061011791906117d0565b610527565b005b6101386004803603810190610133919061182a565b610636565b60405161014591906118b8565b60405180910390f35b610168600480360381019061016391906118fb565b610668565b6040516101759190611935565b60405180910390f35b61018661067d565b005b610190610690565b60405161019d919061195d565b60405180910390f35b6101c060048036038101906101bb9190611976565b6106b8565b005b6101dc60048036038101906101d79190611633565b6107c7565b005b6101f860048036038101906101f3919061182a565b610e96565b6040516102059190611935565b60405180910390f35b61022860048036038101906102239190611633565b610ed9565b6040516102359190611935565b60405180910390f35b610258600480360381019061025391906119b4565b611288565b005b61026261130c565b5f73ffffffffffffffffffffffffffffffffffffffff166002846040516102899190611a31565b90815260200160405180910390205f9054906101000a900473ffffffffffffffffffffffffffffffffffffffff1673ffffffffffffffffffffffffffffffffffffffff160361030d576040517f08c379a000000000000000000000000000000000000000000000000000000000815260040161030490611aa1565b60405180910390fd5b5f73ffffffffffffffffffffffffffffffffffffffff166002836040516103349190611a31565b90815260200160405180910390205f9054906101000a900473ffffffffffffffffffffffffffffffffffffffff1673ffffffffffffffffffffffffffffffffffffffff16036103b8576040517f08c379a00000000000000000000000000000000000000000000000000000000081526004016103af90611b09565b60405180910390fd5b5f81116103fa576040517f08c379a00000000000000000000000000000000000000000000000000000000081526004016103f190611b71565b60405180910390fd5b5f838360405160200161040e929190611b8f565b6040516020818303038152906040528051906020012090505f838560405160200161043a929190611b8f565b6040516020818303038152906040528051906020012090508260035f8481526020019081526020015f20819055505f836ec097ce7bc90715b34b9f10000000006104849190611c0c565b90508060035f8481526020019081526020015f20819055507fe48292e51fb907bcef0d684cbb93bf1474d076470529cd1b21c6343cec6ce8348686866040516104cf93929190611c74565b60405180910390a1505050505050565b6002818051602081018201805184825260208301602085012081835280955050505050505f915054906101000a900473ffffffffffffffffffffffffffffffffffffffff1681565b61052f61130c565b5f73ffffffffffffffffffffffffffffffffffffffff168173ffffffffffffffffffffffffffffffffffffffff160361059d576040517f08c379a000000000000000000000000000000000000000000000000000000000815260040161059490611d01565b60405180910390fd5b806002836040516105ae9190611a31565b90815260200160405180910390205f6101000a81548173ffffffffffffffffffffffffffffffffffffffff021916908373ffffffffffffffffffffffffffffffffffffffff1602179055507f0bd6274cd0bf2ce8ebd481e327380948c4b7cf552504560e4d0c892184ce28a5828260405161062a929190611d1f565b60405180910390a15050565b5f828260405160200161064a929190611b8f565b60405160208183030381529060405280519060200120905092915050565b6003602052805f5260405f205f915090505481565b61068561130c565b61068e5f611393565b565b5f60015f9054906101000a900473ffffffffffffffffffffffffffffffffffffffff16905090565b6106c061130c565b6106c8611456565b8173ffffffffffffffffffffffffffffffffffffffff1663a9059cbb33836040518363ffffffff1660e01b8152600401610703929190611d4d565b6020604051808303815f875af115801561071f573d5f5f3e3d5ffd5b505050506040513d601f19601f820116820180604052508101906107439190611da9565b610782576040517f08c379a000000000000000000000000000000000000000000000000000000000815260040161077990611e1e565b60405180910390fd5b7fa2bd9fcfcdba69f52bcd9a520846ad4bd685b187483f53efc42d035b2ddebff082826040516107b3929190611d4d565b60405180910390a16107c36114a3565b5050565b6107cf611456565b5f8111610811576040517f08c379a000000000000000000000000000000000000000000000000000000000815260040161080890611e86565b60405180910390fd5b8180519060200120838051906020012003610861576040517f08c379a000000000000000000000000000000000000000000000000000000000815260040161085890611eee565b60405180910390fd5b5f6002846040516108729190611a31565b90815260200160405180910390205f9054906101000a900473ffffffffffffffffffffffffffffffffffffffff1690505f6002846040516108b39190611a31565b90815260200160405180910390205f9054906101000a900473ffffffffffffffffffffffffffffffffffffffff1690505f73ffffffffffffffffffffffffffffffffffffffff168273ffffffffffffffffffffffffffffffffffffffff1603610951576040517f08c379a000000000000000000000000000000000000000000000000000000000815260040161094890611f56565b60405180910390fd5b5f73ffffffffffffffffffffffffffffffffffffffff168173ffffffffffffffffffffffffffffffffffffffff16036109bf576040517f08c379a00000000000000000000000000000000000000000000000000000000081526004016109b690611fbe565b60405180910390fd5b5f8273ffffffffffffffffffffffffffffffffffffffff1663313ce5676040518163ffffffff1660e01b8152600401602060405180830381865afa158015610a09573d5f5f3e3d5ffd5b505050506040513d601f19601f82011682018060405250810190610a2d9190612012565b90505f8273ffffffffffffffffffffffffffffffffffffffff1663313ce5676040518163ffffffff1660e01b8152600401602060405180830381865afa158015610a79573d5f5f3e3d5ffd5b505050506040513d601f19601f82011682018060405250810190610a9d9190612012565b90505f8787604051602001610ab3929190611b8f565b6040516020818303038152906040528051906020012090505f60035f8381526020019081526020015f205490505f8111610b22576040517f08c379a0000000000000000000000000000000000000000000000000000000008152600401610b1990612087565b60405180910390fd5b5f60128560ff1610610b5757601285610b3b91906120a5565b600a610b479190612208565b88610b529190611c0c565b610b7c565b846012610b6491906120a5565b600a610b709190612208565b88610b7b9190612252565b5b90505f670de0b6b3a76400008383610b949190612252565b610b9e9190611c0c565b90505f60128660ff1610610bd557601286610bb991906120a5565b600a610bc59190612208565b82610bd09190612252565b610bfa565b856012610be291906120a5565b600a610bee9190612208565b82610bf99190611c0c565b5b9050808873ffffffffffffffffffffffffffffffffffffffff166370a08231306040518263ffffffff1660e01b8152600401610c36919061195d565b602060405180830381865afa158015610c51573d5f5f3e3d5ffd5b505050506040513d601f19601f82011682018060405250810190610c7591906122a7565b1015610cb6576040517f08c379a0000000000000000000000000000000000000000000000000000000008152600401610cad9061231c565b60405180910390fd5b8873ffffffffffffffffffffffffffffffffffffffff166323b872dd33308d6040518463ffffffff1660e01b8152600401610cf39392919061233a565b6020604051808303815f875af1158015610d0f573d5f5f3e3d5ffd5b505050506040513d601f19601f82011682018060405250810190610d339190611da9565b610d72576040517f08c379a0000000000000000000000000000000000000000000000000000000008152600401610d69906123b9565b60405180910390fd5b8773ffffffffffffffffffffffffffffffffffffffff1663a9059cbb33836040518363ffffffff1660e01b8152600401610dad929190611d4d565b6020604051808303815f875af1158015610dc9573d5f5f3e3d5ffd5b505050506040513d601f19601f82011682018060405250810190610ded9190611da9565b610e2c576040517f08c379a0000000000000000000000000000000000000000000000000000000008152600401610e2390612421565b60405180910390fd5b3373ffffffffffffffffffffffffffffffffffffffff167f75f42f47c3c6e52e062026c25f2a121abf88c6a283055eaface63720ac0a99998d8d8d85604051610e78949392919061243f565b60405180910390a2505050505050505050610e916114a3565b505050565b5f60035f8484604051602001610ead929190611b8f565b6040516020818303038152906040528051906020012081526020019081526020015f2054905092915050565b5f5f600285604051610eeb9190611a31565b90815260200160405180910390205f9054906101000a900473ffffffffffffffffffffffffffffffffffffffff1690505f600285604051610f2c9190611a31565b90815260200160405180910390205f9054906101000a900473ffffffffffffffffffffffffffffffffffffffff1690505f73ffffffffffffffffffffffffffffffffffffffff168273ffffffffffffffffffffffffffffffffffffffff1603610fca576040517f08c379a0000000000000000000000000000000000000000000000000000000008152600401610fc190611f56565b60405180910390fd5b5f73ffffffffffffffffffffffffffffffffffffffff168173ffffffffffffffffffffffffffffffffffffffff1603611038576040517f08c379a000000000000000000000000000000000000000000000000000000000815260040161102f90611fbe565b60405180910390fd5b5f8273ffffffffffffffffffffffffffffffffffffffff1663313ce5676040518163ffffffff1660e01b8152600401602060405180830381865afa158015611082573d5f5f3e3d5ffd5b505050506040513d601f19601f820116820180604052508101906110a69190612012565b90505f8273ffffffffffffffffffffffffffffffffffffffff1663313ce5676040518163ffffffff1660e01b8152600401602060405180830381865afa1580156110f2573d5f5f3e3d5ffd5b505050506040513d601f19601f820116820180604052508101906111169190612012565b90505f888860405160200161112c929190611b8f565b6040516020818303038152906040528051906020012090505f60035f8381526020019081526020015f205490505f811161119b576040517f08c379a000000000000000000000000000000000000000000000000000000000815260040161119290612087565b60405180910390fd5b5f60128560ff16106111d0576012856111b491906120a5565b600a6111c09190612208565b896111cb9190611c0c565b6111f5565b8460126111dd91906120a5565b600a6111e99190612208565b896111f49190612252565b5b90505f670de0b6b3a7640000838361120d9190612252565b6112179190611c0c565b90505f60128660ff161061124e5760128661123291906120a5565b600a61123e9190612208565b826112499190612252565b611273565b85601261125b91906120a5565b600a6112679190612208565b826112729190611c0c565b5b90508099505050505050505050509392505050565b61129061130c565b5f73ffffffffffffffffffffffffffffffffffffffff168173ffffffffffffffffffffffffffffffffffffffff1603611300575f6040517f1e4fbdf70000000000000000000000000000000000000000000000000000000081526004016112f7919061195d565b60405180910390fd5b61130981611393565b50565b6113146114ac565b73ffffffffffffffffffffffffffffffffffffffff16611332610690565b73ffffffffffffffffffffffffffffffffffffffff1614611391576113556114ac565b6040517f118cdaa7000000000000000000000000000000000000000000000000000000008152600401611388919061195d565b60405180910390fd5b565b5f60015f9054906101000a900473ffffffffffffffffffffffffffffffffffffffff1690508160015f6101000a81548173ffffffffffffffffffffffffffffffffffffffff021916908373ffffffffffffffffffffffffffffffffffffffff1602179055508173ffffffffffffffffffffffffffffffffffffffff168173ffffffffffffffffffffffffffffffffffffffff167f8be0079c531659141344cd1fd0a4f28419497f9722a3daafe3b4186f6b6457e060405160405180910390a35050565b60025f540361149a576040517f08c379a0000000000000000000000000000000000000000000000000000000008152600401611491906124da565b60405180910390fd5b60025f81905550565b60015f81905550565b5f33905090565b5f604051905090565b5f5ffd5b5f5ffd5b5f5ffd5b5f5ffd5b5f601f19601f8301169050919050565b7f4e487b71000000000000000000000000000000000000000000000000000000005f52604160045260245ffd5b611512826114cc565b810181811067ffffffffffffffff82111715611531576115306114dc565b5b80604052505050565b5f6115436114b3565b905061154f8282611509565b919050565b5f67ffffffffffffffff82111561156e5761156d6114dc565b5b611577826114cc565b9050602081019050919050565b828183375f83830152505050565b5f6115a461159f84611554565b61153a565b9050828152602081018484840111156115c0576115bf6114c8565b5b6115cb848285611584565b509392505050565b5f82601f8301126115e7576115e66114c4565b5b81356115f7848260208601611592565b91505092915050565b5f819050919050565b61161281611600565b811461161c575f5ffd5b50565b5f8135905061162d81611609565b92915050565b5f5f5f6060848603121561164a576116496114bc565b5b5f84013567ffffffffffffffff811115611667576116666114c0565b5b611673868287016115d3565b935050602084013567ffffffffffffffff811115611694576116936114c0565b5b6116a0868287016115d3565b92505060406116b18682870161161f565b9150509250925092565b5f602082840312156116d0576116cf6114bc565b5b5f82013567ffffffffffffffff8111156116ed576116ec6114c0565b5b6116f9848285016115d3565b91505092915050565b5f73ffffffffffffffffffffffffffffffffffffffff82169050919050565b5f819050919050565b5f61174461173f61173a84611702565b611721565b611702565b9050919050565b5f6117558261172a565b9050919050565b5f6117668261174b565b9050919050565b6117768161175c565b82525050565b5f60208201905061178f5f83018461176d565b92915050565b5f61179f82611702565b9050919050565b6117af81611795565b81146117b9575f5ffd5b50565b5f813590506117ca816117a6565b92915050565b5f5f604083850312156117e6576117e56114bc565b5b5f83013567ffffffffffffffff811115611803576118026114c0565b5b61180f858286016115d3565b9250506020611820858286016117bc565b9150509250929050565b5f5f604083850312156118405761183f6114bc565b5b5f83013567ffffffffffffffff81111561185d5761185c6114c0565b5b611869858286016115d3565b925050602083013567ffffffffffffffff81111561188a576118896114c0565b5b611896858286016115d3565b9150509250929050565b5f819050919050565b6118b2816118a0565b82525050565b5f6020820190506118cb5f8301846118a9565b92915050565b6118da816118a0565b81146118e4575f5ffd5b50565b5f813590506118f5816118d1565b92915050565b5f602082840312156119105761190f6114bc565b5b5f61191d848285016118e7565b91505092915050565b61192f81611600565b82525050565b5f6020820190506119485f830184611926565b92915050565b61195781611795565b82525050565b5f6020820190506119705f83018461194e565b92915050565b5f5f6040838503121561198c5761198b6114bc565b5b5f611999858286016117bc565b92505060206119aa8582860161161f565b9150509250929050565b5f602082840312156119c9576119c86114bc565b5b5f6119d6848285016117bc565b91505092915050565b5f81519050919050565b5f81905092915050565b8281835e5f83830152505050565b5f611a0b826119df565b611a1581856119e9565b9350611a258185602086016119f3565b80840191505092915050565b5f611a3c8284611a01565b915081905092915050565b5f82825260208201905092915050565b7f46726f6d20746f6b656e206e6f742073657400000000000000000000000000005f82015250565b5f611a8b601283611a47565b9150611a9682611a57565b602082019050919050565b5f6020820190508181035f830152611ab881611a7f565b9050919050565b7f546f20746f6b656e206e6f7420736574000000000000000000000000000000005f82015250565b5f611af3601083611a47565b9150611afe82611abf565b602082019050919050565b5f6020820190508181035f830152611b2081611ae7565b9050919050565b7f52617465206d757374206265203e2030000000000000000000000000000000005f82015250565b5f611b5b601083611a47565b9150611b6682611b27565b602082019050919050565b5f6020820190508181035f830152611b8881611b4f565b9050919050565b5f611b9a8285611a01565b9150611ba68284611a01565b91508190509392505050565b7f4e487b71000000000000000000000000000000000000000000000000000000005f52601260045260245ffd5b7f4e487b71000000000000000000000000000000000000000000000000000000005f52601160045260245ffd5b5f611c1682611600565b9150611c2183611600565b925082611c3157611c30611bb2565b5b828204905092915050565b5f611c46826119df565b611c508185611a47565b9350611c608185602086016119f3565b611c69816114cc565b840191505092915050565b5f6060820190508181035f830152611c8c8186611c3c565b90508181036020830152611ca08185611c3c565b9050611caf6040830184611926565b949350505050565b7f496e76616c696420746f6b656e206164647265737300000000000000000000005f82015250565b5f611ceb601583611a47565b9150611cf682611cb7565b602082019050919050565b5f6020820190508181035f830152611d1881611cdf565b9050919050565b5f6040820190508181035f830152611d378185611c3c565b9050611d46602083018461194e565b9392505050565b5f604082019050611d605f83018561194e565b611d6d6020830184611926565b9392505050565b5f8115159050919050565b611d8881611d74565b8114611d92575f5ffd5b50565b5f81519050611da381611d7f565b92915050565b5f60208284031215611dbe57611dbd6114bc565b5b5f611dcb84828501611d95565b91505092915050565b7f5769746864726177206661696c656400000000000000000000000000000000005f82015250565b5f611e08600f83611a47565b9150611e1382611dd4565b602082019050919050565b5f6020820190508181035f830152611e3581611dfc565b9050919050565b7f416d6f756e74206d757374206265203e203000000000000000000000000000005f82015250565b5f611e70601283611a47565b9150611e7b82611e3c565b602082019050919050565b5f6020820190508181035f830152611e9d81611e64565b9050919050565b7f43616e6e6f7420737761702073616d6520746f6b656e000000000000000000005f82015250565b5f611ed8601683611a47565b9150611ee382611ea4565b602082019050919050565b5f6020820190508181035f830152611f0581611ecc565b9050919050565b7f46726f6d20746f6b656e206e6f7420696e697469616c697a65640000000000005f82015250565b5f611f40601a83611a47565b9150611f4b82611f0c565b602082019050919050565b5f6020820190508181035f830152611f6d81611f34565b9050919050565b7f546f20746f6b656e206e6f7420696e697469616c697a656400000000000000005f82015250565b5f611fa8601883611a47565b9150611fb382611f74565b602082019050919050565b5f6020820190508181035f830152611fd581611f9c565b9050919050565b5f60ff82169050919050565b611ff181611fdc565b8114611ffb575f5ffd5b50565b5f8151905061200c81611fe8565b92915050565b5f60208284031215612027576120266114bc565b5b5f61203484828501611ffe565b91505092915050565b7f52617465206e6f742073657400000000000000000000000000000000000000005f82015250565b5f612071600c83611a47565b915061207c8261203d565b602082019050919050565b5f6020820190508181035f83015261209e81612065565b9050919050565b5f6120af82611fdc565b91506120ba83611fdc565b9250828203905060ff8111156120d3576120d2611bdf565b5b92915050565b5f8160011c9050919050565b5f5f8291508390505b600185111561212e5780860481111561210a57612109611bdf565b5b60018516156121195780820291505b8081029050612127856120d9565b94506120ee565b94509492505050565b5f826121465760019050612201565b81612153575f9050612201565b81600181146121695760028114612173576121a2565b6001915050612201565b60ff84111561218557612184611bdf565b5b8360020a91508482111561219c5761219b611bdf565b5b50612201565b5060208310610133831016604e8410600b84101617156121d75782820a9050838111156121d2576121d1611bdf565b5b612201565b6121e484848460016120e5565b925090508184048111156121fb576121fa611bdf565b5b81810290505b9392505050565b5f61221282611600565b915061221d83611fdc565b925061224a7fffffffffffffffffffffffffffffffffffffffffffffffffffffffffffffffff8484612137565b905092915050565b5f61225c82611600565b915061226783611600565b925082820261227581611600565b9150828204841483151761228c5761228b611bdf565b5b5092915050565b5f815190506122a181611609565b92915050565b5f602082840312156122bc576122bb6114bc565b5b5f6122c984828501612293565b91505092915050565b7f4e6f7420656e6f756768206c69717569646974790000000000000000000000005f82015250565b5f612306601483611a47565b9150612311826122d2565b602082019050919050565b5f6020820190508181035f830152612333816122fa565b9050919050565b5f60608201905061234d5f83018661194e565b61235a602083018561194e565b6123676040830184611926565b949350505050565b7f5472616e7366657246726f6d206661696c6564000000000000000000000000005f82015250565b5f6123a3601383611a47565b91506123ae8261236f565b602082019050919050565b5f6020820190508181035f8301526123d081612397565b9050919050565b7f5472616e73666572206661696c656400000000000000000000000000000000005f82015250565b5f61240b600f83611a47565b9150612416826123d7565b602082019050919050565b5f6020820190508181035f830152612438816123ff565b9050919050565b5f6080820190508181035f8301526124578187611c3c565b9050818103602083015261246b8186611c3c565b905061247a6040830185611926565b6124876060830184611926565b95945050505050565b7f5265656e7472616e637947756172643a207265656e7472616e742063616c6c005f82015250565b5f6124c4601f83611a47565b91506124cf82612490565b602082019050919050565b5f6020820190508181035f8301526124f1816124b8565b905091905056fea2646970667358221220be49c596777fda0c2fbefe139282cfb397172c1f19f9ae213252231e9b5fe78c64736f6c634300081e0033",
			"opcodes": "PUSH1 0x80 PUSH1 0x40 MSTORE CALLVALUE DUP1 ISZERO PUSH2 0xF JUMPI PUSH0 PUSH0 REVERT JUMPDEST POP CALLER PUSH1 0x1 PUSH0 DUP2 SWAP1 SSTORE POP PUSH0 PUSH20 0xFFFFFFFFFFFFFFFFFFFFFFFFFFFFFFFFFFFFFFFF AND DUP2 PUSH20 0xFFFFFFFFFFFFFFFFFFFFFFFFFFFFFFFFFFFFFFFF AND SUB PUSH2 0x88 JUMPI PUSH0 PUSH1 0x40 MLOAD PUSH32 0x1E4FBDF700000000000000000000000000000000000000000000000000000000 DUP2 MSTORE PUSH1 0x4 ADD PUSH2 0x7F SWAP2 SWAP1 PUSH2 0x19F JUMP JUMPDEST PUSH1 0x40 MLOAD DUP1 SWAP2 SUB SWAP1 REVERT JUMPDEST PUSH2 0x97 DUP2 PUSH2 0x9D PUSH1 0x20 SHL PUSH1 0x20 SHR JUMP JUMPDEST POP PUSH2 0x1B8 JUMP JUMPDEST PUSH0 PUSH1 0x1 PUSH0 SWAP1 SLOAD SWAP1 PUSH2 0x100 EXP SWAP1 DIV PUSH20 0xFFFFFFFFFFFFFFFFFFFFFFFFFFFFFFFFFFFFFFFF AND SWAP1 POP DUP2 PUSH1 0x1 PUSH0 PUSH2 0x100 EXP DUP2 SLOAD DUP2 PUSH20 0xFFFFFFFFFFFFFFFFFFFFFFFFFFFFFFFFFFFFFFFF MUL NOT AND SWAP1 DUP4 PUSH20 0xFFFFFFFFFFFFFFFFFFFFFFFFFFFFFFFFFFFFFFFF AND MUL OR SWAP1 SSTORE POP DUP2 PUSH20 0xFFFFFFFFFFFFFFFFFFFFFFFFFFFFFFFFFFFFFFFF AND DUP2 PUSH20 0xFFFFFFFFFFFFFFFFFFFFFFFFFFFFFFFFFFFFFFFF AND PUSH32 0x8BE0079C531659141344CD1FD0A4F28419497F9722A3DAAFE3B4186F6B6457E0 PUSH1 0x40 MLOAD PUSH1 0x40 MLOAD DUP1 SWAP2 SUB SWAP1 LOG3 POP POP JUMP JUMPDEST PUSH0 PUSH20 0xFFFFFFFFFFFFFFFFFFFFFFFFFFFFFFFFFFFFFFFF DUP3 AND SWAP1 POP SWAP2 SWAP1 POP JUMP JUMPDEST PUSH0 PUSH2 0x189 DUP3 PUSH2 0x160 JUMP JUMPDEST SWAP1 POP SWAP2 SWAP1 POP JUMP JUMPDEST PUSH2 0x199 DUP2 PUSH2 0x17F JUMP JUMPDEST DUP3 MSTORE POP POP JUMP JUMPDEST PUSH0 PUSH1 0x20 DUP3 ADD SWAP1 POP PUSH2 0x1B2 PUSH0 DUP4 ADD DUP5 PUSH2 0x190 JUMP JUMPDEST SWAP3 SWAP2 POP POP JUMP JUMPDEST PUSH2 0x252E DUP1 PUSH2 0x1C5 PUSH0 CODECOPY PUSH0 RETURN INVALID PUSH1 0x80 PUSH1 0x40 MSTORE CALLVALUE DUP1 ISZERO PUSH2 0xF JUMPI PUSH0 PUSH0 REVERT JUMPDEST POP PUSH1 0x4 CALLDATASIZE LT PUSH2 0xB2 JUMPI PUSH0 CALLDATALOAD PUSH1 0xE0 SHR DUP1 PUSH4 0x8DA5CB5B GT PUSH2 0x6F JUMPI DUP1 PUSH4 0x8DA5CB5B EQ PUSH2 0x188 JUMPI DUP1 PUSH4 0x9E281A98 EQ PUSH2 0x1A6 JUMPI DUP1 PUSH4 0xA451F602 EQ PUSH2 0x1C2 JUMPI DUP1 PUSH4 0xE3F2804F EQ PUSH2 0x1DE JUMPI DUP1 PUSH4 0xED4AA7C0 EQ PUSH2 0x20E JUMPI DUP1 PUSH4 0xF2FDE38B EQ PUSH2 0x23E JUMPI PUSH2 0xB2 JUMP JUMPDEST DUP1 PUSH4 0x49B266A EQ PUSH2 0xB6 JUMPI DUP1 PUSH4 0x4C2320B EQ PUSH2 0xD2 JUMPI DUP1 PUSH4 0x17456E56 EQ PUSH2 0x102 JUMPI DUP1 PUSH4 0x31DD8EB8 EQ PUSH2 0x11E JUMPI DUP1 PUSH4 0x577A9FC5 EQ PUSH2 0x14E JUMPI DUP1 PUSH4 0x715018A6 EQ PUSH2 0x17E JUMPI JUMPDEST PUSH0 PUSH0 REVERT JUMPDEST PUSH2 0xD0 PUSH1 0x4 DUP1 CALLDATASIZE SUB DUP2 ADD SWAP1 PUSH2 0xCB SWAP2 SWAP1 PUSH2 0x1633 JUMP JUMPDEST PUSH2 0x25A JUMP JUMPDEST STOP JUMPDEST PUSH2 0xEC PUSH1 0x4 DUP1 CALLDATASIZE SUB DUP2 ADD SWAP1 PUSH2 0xE7 SWAP2 SWAP1 PUSH2 0x16BB JUMP JUMPDEST PUSH2 0x4DF JUMP JUMPDEST PUSH1 0x40 MLOAD PUSH2 0xF9 SWAP2 SWAP1 PUSH2 0x177C JUMP JUMPDEST PUSH1 0x40 MLOAD DUP1 SWAP2 SUB SWAP1 RETURN JUMPDEST PUSH2 0x11C PUSH1 0x4 DUP1 CALLDATASIZE SUB DUP2 ADD SWAP1 PUSH2 0x117 SWAP2 SWAP1 PUSH2 0x17D0 JUMP JUMPDEST PUSH2 0x527 JUMP JUMPDEST STOP JUMPDEST PUSH2 0x138 PUSH1 0x4 DUP1 CALLDATASIZE SUB DUP2 ADD SWAP1 PUSH2 0x133 SWAP2 SWAP1 PUSH2 0x182A JUMP JUMPDEST PUSH2 0x636 JUMP JUMPDEST PUSH1 0x40 MLOAD PUSH2 0x145 SWAP2 SWAP1 PUSH2 0x18B8 JUMP JUMPDEST PUSH1 0x40 MLOAD DUP1 SWAP2 SUB SWAP1 RETURN JUMPDEST PUSH2 0x168 PUSH1 0x4 DUP1 CALLDATASIZE SUB DUP2 ADD SWAP1 PUSH2 0x163 SWAP2 SWAP1 PUSH2 0x18FB JUMP JUMPDEST PUSH2 0x668 JUMP JUMPDEST PUSH1 0x40 MLOAD PUSH2 0x175 SWAP2 SWAP1 PUSH2 0x1935 JUMP JUMPDEST PUSH1 0x40 MLOAD DUP1 SWAP2 SUB SWAP1 RETURN JUMPDEST PUSH2 0x186 PUSH2 0x67D JUMP JUMPDEST STOP JUMPDEST PUSH2 0x190 PUSH2 0x690 JUMP JUMPDEST PUSH1 0x40 MLOAD PUSH2 0x19D SWAP2 SWAP1 PUSH2 0x195D JUMP JUMPDEST PUSH1 0x40 MLOAD DUP1 SWAP2 SUB SWAP1 RETURN JUMPDEST PUSH2 0x1C0 PUSH1 0x4 DUP1 CALLDATASIZE SUB DUP2 ADD SWAP1 PUSH2 0x1BB SWAP2 SWAP1 PUSH2 0x1976 JUMP JUMPDEST PUSH2 0x6B8 JUMP JUMPDEST STOP JUMPDEST PUSH2 0x1DC PUSH1 0x4 DUP1 CALLDATASIZE SUB DUP2 ADD SWAP1 PUSH2 0x1D7 SWAP2 SWAP1 PUSH2 0x1633 JUMP JUMPDEST PUSH2 0x7C7 JUMP JUMPDEST STOP JUMPDEST PUSH2 0x1F8 PUSH1 0x4 DUP1 CALLDATASIZE SUB DUP2 ADD SWAP1 PUSH2 0x1F3 SWAP2 SWAP1 PUSH2 0x182A JUMP JUMPDEST PUSH2 0xE96 JUMP JUMPDEST PUSH1 0x40 MLOAD PUSH2 0x205 SWAP2 SWAP1 PUSH2 0x1935 JUMP JUMPDEST PUSH1 0x40 MLOAD DUP1 SWAP2 SUB SWAP1 RETURN JUMPDEST PUSH2 0x228 PUSH1 0x4 DUP1 CALLDATASIZE SUB DUP2 ADD SWAP1 PUSH2 0x223 SWAP2 SWAP1 PUSH2 0x1633 JUMP JUMPDEST PUSH2 0xED9 JUMP JUMPDEST PUSH1 0x40 MLOAD PUSH2 0x235 SWAP2 SWAP1 PUSH2 0x1935 JUMP JUMPDEST PUSH1 0x40 MLOAD DUP1 SWAP2 SUB SWAP1 RETURN JUMPDEST PUSH2 0x258 PUSH1 0x4 DUP1 CALLDATASIZE SUB DUP2 ADD SWAP1 PUSH2 0x253 SWAP2 SWAP1 PUSH2 0x19B4 JUMP JUMPDEST PUSH2 0x1288 JUMP JUMPDEST STOP JUMPDEST PUSH2 0x262 PUSH2 0x130C JUMP JUMPDEST PUSH0 PUSH20 0xFFFFFFFFFFFFFFFFFFFFFFFFFFFFFFFFFFFFFFFF AND PUSH1 0x2 DUP5 PUSH1 0x40 MLOAD PUSH2 0x289 SWAP2 SWAP1 PUSH2 0x1A31 JUMP JUMPDEST SWAP1 DUP2 MSTORE PUSH1 0x20 ADD PUSH1 0x40 MLOAD DUP1 SWAP2 SUB SWAP1 KECCAK256 PUSH0 SWAP1 SLOAD SWAP1 PUSH2 0x100 EXP SWAP1 DIV PUSH20 0xFFFFFFFFFFFFFFFFFFFFFFFFFFFFFFFFFFFFFFFF AND PUSH20 0xFFFFFFFFFFFFFFFFFFFFFFFFFFFFFFFFFFFFFFFF AND SUB PUSH2 0x30D JUMPI PUSH1 0x40 MLOAD PUSH32 0x8C379A000000000000000000000000000000000000000000000000000000000 DUP2 MSTORE PUSH1 0x4 ADD PUSH2 0x304 SWAP1 PUSH2 0x1AA1 JUMP JUMPDEST PUSH1 0x40 MLOAD DUP1 SWAP2 SUB SWAP1 REVERT JUMPDEST PUSH0 PUSH20 0xFFFFFFFFFFFFFFFFFFFFFFFFFFFFFFFFFFFFFFFF AND PUSH1 0x2 DUP4 PUSH1 0x40 MLOAD PUSH2 0x334 SWAP2 SWAP1 PUSH2 0x1A31 JUMP JUMPDEST SWAP1 DUP2 MSTORE PUSH1 0x20 ADD PUSH1 0x40 MLOAD DUP1 SWAP2 SUB SWAP1 KECCAK256 PUSH0 SWAP1 SLOAD SWAP1 PUSH2 0x100 EXP SWAP1 DIV PUSH20 0xFFFFFFFFFFFFFFFFFFFFFFFFFFFFFFFFFFFFFFFF AND PUSH20 0xFFFFFFFFFFFFFFFFFFFFFFFFFFFFFFFFFFFFFFFF AND SUB PUSH2 0x3B8 JUMPI PUSH1 0x40 MLOAD PUSH32 0x8C379A000000000000000000000000000000000000000000000000000000000 DUP2 MSTORE PUSH1 0x4 ADD PUSH2 0x3AF SWAP1 PUSH2 0x1B09 JUMP JUMPDEST PUSH1 0x40 MLOAD DUP1 SWAP2 SUB SWAP1 REVERT JUMPDEST PUSH0 DUP2 GT PUSH2 0x3FA JUMPI PUSH1 0x40 MLOAD PUSH32 0x8C379A000000000000000000000000000000000000000000000000000000000 DUP2 MSTORE PUSH1 0x4 ADD PUSH2 0x3F1 SWAP1 PUSH2 0x1B71 JUMP JUMPDEST PUSH1 0x40 MLOAD DUP1 SWAP2 SUB SWAP1 REVERT JUMPDEST PUSH0 DUP4 DUP4 PUSH1 0x40 MLOAD PUSH1 0x20 ADD PUSH2 0x40E SWAP3 SWAP2 SWAP1 PUSH2 0x1B8F JUMP JUMPDEST PUSH1 0x40 MLOAD PUSH1 0x20 DUP2 DUP4 SUB SUB DUP2 MSTORE SWAP1 PUSH1 0x40 MSTORE DUP1 MLOAD SWAP1 PUSH1 0x20 ADD KECCAK256 SWAP1 POP PUSH0 DUP4 DUP6 PUSH1 0x40 MLOAD PUSH1 0x20 ADD PUSH2 0x43A SWAP3 SWAP2 SWAP1 PUSH2 0x1B8F JUMP JUMPDEST PUSH1 0x40 MLOAD PUSH1 0x20 DUP2 DUP4 SUB SUB DUP2 MSTORE SWAP1 PUSH1 0x40 MSTORE DUP1 MLOAD SWAP1 PUSH1 0x20 ADD KECCAK256 SWAP1 POP DUP3 PUSH1 0x3 PUSH0 DUP5 DUP2 MSTORE PUSH1 0x20 ADD SWAP1 DUP2 MSTORE PUSH1 0x20 ADD PUSH0 KECCAK256 DUP2 SWAP1 SSTORE POP PUSH0 DUP4 PUSH15 0xC097CE7BC90715B34B9F1000000000 PUSH2 0x484 SWAP2 SWAP1 PUSH2 0x1C0C JUMP JUMPDEST SWAP1 POP DUP1 PUSH1 0x3 PUSH0 DUP5 DUP2 MSTORE PUSH1 0x20 ADD SWAP1 DUP2 MSTORE PUSH1 0x20 ADD PUSH0 KECCAK256 DUP2 SWAP1 SSTORE POP PUSH32 0xE48292E51FB907BCEF0D684CBB93BF1474D076470529CD1B21C6343CEC6CE834 DUP7 DUP7 DUP7 PUSH1 0x40 MLOAD PUSH2 0x4CF SWAP4 SWAP3 SWAP2 SWAP1 PUSH2 0x1C74 JUMP JUMPDEST PUSH1 0x40 MLOAD DUP1 SWAP2 SUB SWAP1 LOG1 POP POP POP POP POP POP JUMP JUMPDEST PUSH1 0x2 DUP2 DUP1 MLOAD PUSH1 0x20 DUP2 ADD DUP3 ADD DUP1 MLOAD DUP5 DUP3 MSTORE PUSH1 0x20 DUP4 ADD PUSH1 0x20 DUP6 ADD KECCAK256 DUP2 DUP4 MSTORE DUP1 SWAP6 POP POP POP POP POP POP PUSH0 SWAP2 POP SLOAD SWAP1 PUSH2 0x100 EXP SWAP1 DIV PUSH20 0xFFFFFFFFFFFFFFFFFFFFFFFFFFFFFFFFFFFFFFFF AND DUP2 JUMP JUMPDEST PUSH2 0x52F PUSH2 0x130C JUMP JUMPDEST PUSH0 PUSH20 0xFFFFFFFFFFFFFFFFFFFFFFFFFFFFFFFFFFFFFFFF AND DUP2 PUSH20 0xFFFFFFFFFFFFFFFFFFFFFFFFFFFFFFFFFFFFFFFF AND SUB PUSH2 0x59D JUMPI PUSH1 0x40 MLOAD PUSH32 0x8C379A000000000000000000000000000000000000000000000000000000000 DUP2 MSTORE PUSH1 0x4 ADD PUSH2 0x594 SWAP1 PUSH2 0x1D01 JUMP JUMPDEST PUSH1 0x40 MLOAD DUP1 SWAP2 SUB SWAP1 REVERT JUMPDEST DUP1 PUSH1 0x2 DUP4 PUSH1 0x40 MLOAD PUSH2 0x5AE SWAP2 SWAP1 PUSH2 0x1A31 JUMP JUMPDEST SWAP1 DUP2 MSTORE PUSH1 0x20 ADD PUSH1 0x40 MLOAD DUP1 SWAP2 SUB SWAP1 KECCAK256 PUSH0 PUSH2 0x100 EXP DUP2 SLOAD DUP2 PUSH20 0xFFFFFFFFFFFFFFFFFFFFFFFFFFFFFFFFFFFFFFFF MUL NOT AND SWAP1 DUP4 PUSH20 0xFFFFFFFFFFFFFFFFFFFFFFFFFFFFFFFFFFFFFFFF AND MUL OR SWAP1 SSTORE POP PUSH32 0xBD6274CD0BF2CE8EBD481E327380948C4B7CF552504560E4D0C892184CE28A5 DUP3 DUP3 PUSH1 0x40 MLOAD PUSH2 0x62A SWAP3 SWAP2 SWAP1 PUSH2 0x1D1F JUMP JUMPDEST PUSH1 0x40 MLOAD DUP1 SWAP2 SUB SWAP1 LOG1 POP POP JUMP JUMPDEST PUSH0 DUP3 DUP3 PUSH1 0x40 MLOAD PUSH1 0x20 ADD PUSH2 0x64A SWAP3 SWAP2 SWAP1 PUSH2 0x1B8F JUMP JUMPDEST PUSH1 0x40 MLOAD PUSH1 0x20 DUP2 DUP4 SUB SUB DUP2 MSTORE SWAP1 PUSH1 0x40 MSTORE DUP1 MLOAD SWAP1 PUSH1 0x20 ADD KECCAK256 SWAP1 POP SWAP3 SWAP2 POP POP JUMP JUMPDEST PUSH1 0x3 PUSH1 0x20 MSTORE DUP1 PUSH0 MSTORE PUSH1 0x40 PUSH0 KECCAK256 PUSH0 SWAP2 POP SWAP1 POP SLOAD DUP2 JUMP JUMPDEST PUSH2 0x685 PUSH2 0x130C JUMP JUMPDEST PUSH2 0x68E PUSH0 PUSH2 0x1393 JUMP JUMPDEST JUMP JUMPDEST PUSH0 PUSH1 0x1 PUSH0 SWAP1 SLOAD SWAP1 PUSH2 0x100 EXP SWAP1 DIV PUSH20 0xFFFFFFFFFFFFFFFFFFFFFFFFFFFFFFFFFFFFFFFF AND SWAP1 POP SWAP1 JUMP JUMPDEST PUSH2 0x6C0 PUSH2 0x130C JUMP JUMPDEST PUSH2 0x6C8 PUSH2 0x1456 JUMP JUMPDEST DUP2 PUSH20 0xFFFFFFFFFFFFFFFFFFFFFFFFFFFFFFFFFFFFFFFF AND PUSH4 0xA9059CBB CALLER DUP4 PUSH1 0x40 MLOAD DUP4 PUSH4 0xFFFFFFFF AND PUSH1 0xE0 SHL DUP2 MSTORE PUSH1 0x4 ADD PUSH2 0x703 SWAP3 SWAP2 SWAP1 PUSH2 0x1D4D JUMP JUMPDEST PUSH1 0x20 PUSH1 0x40 MLOAD DUP1 DUP4 SUB DUP2 PUSH0 DUP8 GAS CALL ISZERO DUP1 ISZERO PUSH2 0x71F JUMPI RETURNDATASIZE PUSH0 PUSH0 RETURNDATACOPY RETURNDATASIZE PUSH0 REVERT JUMPDEST POP POP POP POP PUSH1 0x40 MLOAD RETURNDATASIZE PUSH1 0x1F NOT PUSH1 0x1F DUP3 ADD AND DUP3 ADD DUP1 PUSH1 0x40 MSTORE POP DUP2 ADD SWAP1 PUSH2 0x743 SWAP2 SWAP1 PUSH2 0x1DA9 JUMP JUMPDEST PUSH2 0x782 JUMPI PUSH1 0x40 MLOAD PUSH32 0x8C379A000000000000000000000000000000000000000000000000000000000 DUP2 MSTORE PUSH1 0x4 ADD PUSH2 0x779 SWAP1 PUSH2 0x1E1E JUMP JUMPDEST PUSH1 0x40 MLOAD DUP1 SWAP2 SUB SWAP1 REVERT JUMPDEST PUSH32 0xA2BD9FCFCDBA69F52BCD9A520846AD4BD685B187483F53EFC42D035B2DDEBFF0 DUP3 DUP3 PUSH1 0x40 MLOAD PUSH2 0x7B3 SWAP3 SWAP2 SWAP1 PUSH2 0x1D4D JUMP JUMPDEST PUSH1 0x40 MLOAD DUP1 SWAP2 SUB SWAP1 LOG1 PUSH2 0x7C3 PUSH2 0x14A3 JUMP JUMPDEST POP POP JUMP JUMPDEST PUSH2 0x7CF PUSH2 0x1456 JUMP JUMPDEST PUSH0 DUP2 GT PUSH2 0x811 JUMPI PUSH1 0x40 MLOAD PUSH32 0x8C379A000000000000000000000000000000000000000000000000000000000 DUP2 MSTORE PUSH1 0x4 ADD PUSH2 0x808 SWAP1 PUSH2 0x1E86 JUMP JUMPDEST PUSH1 0x40 MLOAD DUP1 SWAP2 SUB SWAP1 REVERT JUMPDEST DUP2 DUP1 MLOAD SWAP1 PUSH1 0x20 ADD KECCAK256 DUP4 DUP1 MLOAD SWAP1 PUSH1 0x20 ADD KECCAK256 SUB PUSH2 0x861 JUMPI PUSH1 0x40 MLOAD PUSH32 0x8C379A000000000000000000000000000000000000000000000000000000000 DUP2 MSTORE PUSH1 0x4 ADD PUSH2 0x858 SWAP1 PUSH2 0x1EEE JUMP JUMPDEST PUSH1 0x40 MLOAD DUP1 SWAP2 SUB SWAP1 REVERT JUMPDEST PUSH0 PUSH1 0x2 DUP5 PUSH1 0x40 MLOAD PUSH2 0x872 SWAP2 SWAP1 PUSH2 0x1A31 JUMP JUMPDEST SWAP1 DUP2 MSTORE PUSH1 0x20 ADD PUSH1 0x40 MLOAD DUP1 SWAP2 SUB SWAP1 KECCAK256 PUSH0 SWAP1 SLOAD SWAP1 PUSH2 0x100 EXP SWAP1 DIV PUSH20 0xFFFFFFFFFFFFFFFFFFFFFFFFFFFFFFFFFFFFFFFF AND SWAP1 POP PUSH0 PUSH1 0x2 DUP5 PUSH1 0x40 MLOAD PUSH2 0x8B3 SWAP2 SWAP1 PUSH2 0x1A31 JUMP JUMPDEST SWAP1 DUP2 MSTORE PUSH1 0x20 ADD PUSH1 0x40 MLOAD DUP1 SWAP2 SUB SWAP1 KECCAK256 PUSH0 SWAP1 SLOAD SWAP1 PUSH2 0x100 EXP SWAP1 DIV PUSH20 0xFFFFFFFFFFFFFFFFFFFFFFFFFFFFFFFFFFFFFFFF AND SWAP1 POP PUSH0 PUSH20 0xFFFFFFFFFFFFFFFFFFFFFFFFFFFFFFFFFFFFFFFF AND DUP3 PUSH20 0xFFFFFFFFFFFFFFFFFFFFFFFFFFFFFFFFFFFFFFFF AND SUB PUSH2 0x951 JUMPI PUSH1 0x40 MLOAD PUSH32 0x8C379A000000000000000000000000000000000000000000000000000000000 DUP2 MSTORE PUSH1 0x4 ADD PUSH2 0x948 SWAP1 PUSH2 0x1F56 JUMP JUMPDEST PUSH1 0x40 MLOAD DUP1 SWAP2 SUB SWAP1 REVERT JUMPDEST PUSH0 PUSH20 0xFFFFFFFFFFFFFFFFFFFFFFFFFFFFFFFFFFFFFFFF AND DUP2 PUSH20 0xFFFFFFFFFFFFFFFFFFFFFFFFFFFFFFFFFFFFFFFF AND SUB PUSH2 0x9BF JUMPI PUSH1 0x40 MLOAD PUSH32 0x8C379A000000000000000000000000000000000000000000000000000000000 DUP2 MSTORE PUSH1 0x4 ADD PUSH2 0x9B6 SWAP1 PUSH2 0x1FBE JUMP JUMPDEST PUSH1 0x40 MLOAD DUP1 SWAP2 SUB SWAP1 REVERT JUMPDEST PUSH0 DUP3 PUSH20 0xFFFFFFFFFFFFFFFFFFFFFFFFFFFFFFFFFFFFFFFF AND PUSH4 0x313CE567 PUSH1 0x40 MLOAD DUP2 PUSH4 0xFFFFFFFF AND PUSH1 0xE0 SHL DUP2 MSTORE PUSH1 0x4 ADD PUSH1 0x20 PUSH1 0x40 MLOAD DUP1 DUP4 SUB DUP2 DUP7 GAS STATICCALL ISZERO DUP1 ISZERO PUSH2 0xA09 JUMPI RETURNDATASIZE PUSH0 PUSH0 RETURNDATACOPY RETURNDATASIZE PUSH0 REVERT JUMPDEST POP POP POP POP PUSH1 0x40 MLOAD RETURNDATASIZE PUSH1 0x1F NOT PUSH1 0x1F DUP3 ADD AND DUP3 ADD DUP1 PUSH1 0x40 MSTORE POP DUP2 ADD SWAP1 PUSH2 0xA2D SWAP2 SWAP1 PUSH2 0x2012 JUMP JUMPDEST SWAP1 POP PUSH0 DUP3 PUSH20 0xFFFFFFFFFFFFFFFFFFFFFFFFFFFFFFFFFFFFFFFF AND PUSH4 0x313CE567 PUSH1 0x40 MLOAD DUP2 PUSH4 0xFFFFFFFF AND PUSH1 0xE0 SHL DUP2 MSTORE PUSH1 0x4 ADD PUSH1 0x20 PUSH1 0x40 MLOAD DUP1 DUP4 SUB DUP2 DUP7 GAS STATICCALL ISZERO DUP1 ISZERO PUSH2 0xA79 JUMPI RETURNDATASIZE PUSH0 PUSH0 RETURNDATACOPY RETURNDATASIZE PUSH0 REVERT JUMPDEST POP POP POP POP PUSH1 0x40 MLOAD RETURNDATASIZE PUSH1 0x1F NOT PUSH1 0x1F DUP3 ADD AND DUP3 ADD DUP1 PUSH1 0x40 MSTORE POP DUP2 ADD SWAP1 PUSH2 0xA9D SWAP2 SWAP1 PUSH2 0x2012 JUMP JUMPDEST SWAP1 POP PUSH0 DUP8 DUP8 PUSH1 0x40 MLOAD PUSH1 0x20 ADD PUSH2 0xAB3 SWAP3 SWAP2 SWAP1 PUSH2 0x1B8F JUMP JUMPDEST PUSH1 0x40 MLOAD PUSH1 0x20 DUP2 DUP4 SUB SUB DUP2 MSTORE SWAP1 PUSH1 0x40 MSTORE DUP1 MLOAD SWAP1 PUSH1 0x20 ADD KECCAK256 SWAP1 POP PUSH0 PUSH1 0x3 PUSH0 DUP4 DUP2 MSTORE PUSH1 0x20 ADD SWAP1 DUP2 MSTORE PUSH1 0x20 ADD PUSH0 KECCAK256 SLOAD SWAP1 POP PUSH0 DUP2 GT PUSH2 0xB22 JUMPI PUSH1 0x40 MLOAD PUSH32 0x8C379A000000000000000000000000000000000000000000000000000000000 DUP2 MSTORE PUSH1 0x4 ADD PUSH2 0xB19 SWAP1 PUSH2 0x2087 JUMP JUMPDEST PUSH1 0x40 MLOAD DUP1 SWAP2 SUB SWAP1 REVERT JUMPDEST PUSH0 PUSH1 0x12 DUP6 PUSH1 0xFF AND LT PUSH2 0xB57 JUMPI PUSH1 0x12 DUP6 PUSH2 0xB3B SWAP2 SWAP1 PUSH2 0x20A5 JUMP JUMPDEST PUSH1 0xA PUSH2 0xB47 SWAP2 SWAP1 PUSH2 0x2208 JUMP JUMPDEST DUP9 PUSH2 0xB52 SWAP2 SWAP1 PUSH2 0x1C0C JUMP JUMPDEST PUSH2 0xB7C JUMP JUMPDEST DUP5 PUSH1 0x12 PUSH2 0xB64 SWAP2 SWAP1 PUSH2 0x20A5 JUMP JUMPDEST PUSH1 0xA PUSH2 0xB70 SWAP2 SWAP1 PUSH2 0x2208 JUMP JUMPDEST DUP9 PUSH2 0xB7B SWAP2 SWAP1 PUSH2 0x2252 JUMP JUMPDEST JUMPDEST SWAP1 POP PUSH0 PUSH8 0xDE0B6B3A7640000 DUP4 DUP4 PUSH2 0xB94 SWAP2 SWAP1 PUSH2 0x2252 JUMP JUMPDEST PUSH2 0xB9E SWAP2 SWAP1 PUSH2 0x1C0C JUMP JUMPDEST SWAP1 POP PUSH0 PUSH1 0x12 DUP7 PUSH1 0xFF AND LT PUSH2 0xBD5 JUMPI PUSH1 0x12 DUP7 PUSH2 0xBB9 SWAP2 SWAP1 PUSH2 0x20A5 JUMP JUMPDEST PUSH1 0xA PUSH2 0xBC5 SWAP2 SWAP1 PUSH2 0x2208 JUMP JUMPDEST DUP3 PUSH2 0xBD0 SWAP2 SWAP1 PUSH2 0x2252 JUMP JUMPDEST PUSH2 0xBFA JUMP JUMPDEST DUP6 PUSH1 0x12 PUSH2 0xBE2 SWAP2 SWAP1 PUSH2 0x20A5 JUMP JUMPDEST PUSH1 0xA PUSH2 0xBEE SWAP2 SWAP1 PUSH2 0x2208 JUMP JUMPDEST DUP3 PUSH2 0xBF9 SWAP2 SWAP1 PUSH2 0x1C0C JUMP JUMPDEST JUMPDEST SWAP1 POP DUP1 DUP9 PUSH20 0xFFFFFFFFFFFFFFFFFFFFFFFFFFFFFFFFFFFFFFFF AND PUSH4 0x70A08231 ADDRESS PUSH1 0x40 MLOAD DUP3 PUSH4 0xFFFFFFFF AND PUSH1 0xE0 SHL DUP2 MSTORE PUSH1 0x4 ADD PUSH2 0xC36 SWAP2 SWAP1 PUSH2 0x195D JUMP JUMPDEST PUSH1 0x20 PUSH1 0x40 MLOAD DUP1 DUP4 SUB DUP2 DUP7 GAS STATICCALL ISZERO DUP1 ISZERO PUSH2 0xC51 JUMPI RETURNDATASIZE PUSH0 PUSH0 RETURNDATACOPY RETURNDATASIZE PUSH0 REVERT JUMPDEST POP POP POP POP PUSH1 0x40 MLOAD RETURNDATASIZE PUSH1 0x1F NOT PUSH1 0x1F DUP3 ADD AND DUP3 ADD DUP1 PUSH1 0x40 MSTORE POP DUP2 ADD SWAP1 PUSH2 0xC75 SWAP2 SWAP1 PUSH2 0x22A7 JUMP JUMPDEST LT ISZERO PUSH2 0xCB6 JUMPI PUSH1 0x40 MLOAD PUSH32 0x8C379A000000000000000000000000000000000000000000000000000000000 DUP2 MSTORE PUSH1 0x4 ADD PUSH2 0xCAD SWAP1 PUSH2 0x231C JUMP JUMPDEST PUSH1 0x40 MLOAD DUP1 SWAP2 SUB SWAP1 REVERT JUMPDEST DUP9 PUSH20 0xFFFFFFFFFFFFFFFFFFFFFFFFFFFFFFFFFFFFFFFF AND PUSH4 0x23B872DD CALLER ADDRESS DUP14 PUSH1 0x40 MLOAD DUP5 PUSH4 0xFFFFFFFF AND PUSH1 0xE0 SHL DUP2 MSTORE PUSH1 0x4 ADD PUSH2 0xCF3 SWAP4 SWAP3 SWAP2 SWAP1 PUSH2 0x233A JUMP JUMPDEST PUSH1 0x20 PUSH1 0x40 MLOAD DUP1 DUP4 SUB DUP2 PUSH0 DUP8 GAS CALL ISZERO DUP1 ISZERO PUSH2 0xD0F JUMPI RETURNDATASIZE PUSH0 PUSH0 RETURNDATACOPY RETURNDATASIZE PUSH0 REVERT JUMPDEST POP POP POP POP PUSH1 0x40 MLOAD RETURNDATASIZE PUSH1 0x1F NOT PUSH1 0x1F DUP3 ADD AND DUP3 ADD DUP1 PUSH1 0x40 MSTORE POP DUP2 ADD SWAP1 PUSH2 0xD33 SWAP2 SWAP1 PUSH2 0x1DA9 JUMP JUMPDEST PUSH2 0xD72 JUMPI PUSH1 0x40 MLOAD PUSH32 0x8C379A000000000000000000000000000000000000000000000000000000000 DUP2 MSTORE PUSH1 0x4 ADD PUSH2 0xD69 SWAP1 PUSH2 0x23B9 JUMP JUMPDEST PUSH1 0x40 MLOAD DUP1 SWAP2 SUB SWAP1 REVERT JUMPDEST DUP8 PUSH20 0xFFFFFFFFFFFFFFFFFFFFFFFFFFFFFFFFFFFFFFFF AND PUSH4 0xA9059CBB CALLER DUP4 PUSH1 0x40 MLOAD DUP4 PUSH4 0xFFFFFFFF AND PUSH1 0xE0 SHL DUP2 MSTORE PUSH1 0x4 ADD PUSH2 0xDAD SWAP3 SWAP2 SWAP1 PUSH2 0x1D4D JUMP JUMPDEST PUSH1 0x20 PUSH1 0x40 MLOAD DUP1 DUP4 SUB DUP2 PUSH0 DUP8 GAS CALL ISZERO DUP1 ISZERO PUSH2 0xDC9 JUMPI RETURNDATASIZE PUSH0 PUSH0 RETURNDATACOPY RETURNDATASIZE PUSH0 REVERT JUMPDEST POP POP POP POP PUSH1 0x40 MLOAD RETURNDATASIZE PUSH1 0x1F NOT PUSH1 0x1F DUP3 ADD AND DUP3 ADD DUP1 PUSH1 0x40 MSTORE POP DUP2 ADD SWAP1 PUSH2 0xDED SWAP2 SWAP1 PUSH2 0x1DA9 JUMP JUMPDEST PUSH2 0xE2C JUMPI PUSH1 0x40 MLOAD PUSH32 0x8C379A000000000000000000000000000000000000000000000000000000000 DUP2 MSTORE PUSH1 0x4 ADD PUSH2 0xE23 SWAP1 PUSH2 0x2421 JUMP JUMPDEST PUSH1 0x40 MLOAD DUP1 SWAP2 SUB SWAP1 REVERT JUMPDEST CALLER PUSH20 0xFFFFFFFFFFFFFFFFFFFFFFFFFFFFFFFFFFFFFFFF AND PUSH32 0x75F42F47C3C6E52E062026C25F2A121ABF88C6A283055EAFACE63720AC0A9999 DUP14 DUP14 DUP14 DUP6 PUSH1 0x40 MLOAD PUSH2 0xE78 SWAP5 SWAP4 SWAP3 SWAP2 SWAP1 PUSH2 0x243F JUMP JUMPDEST PUSH1 0x40 MLOAD DUP1 SWAP2 SUB SWAP1 LOG2 POP POP POP POP POP POP POP POP POP PUSH2 0xE91 PUSH2 0x14A3 JUMP JUMPDEST POP POP POP JUMP JUMPDEST PUSH0 PUSH1 0x3 PUSH0 DUP5 DUP5 PUSH1 0x40 MLOAD PUSH1 0x20 ADD PUSH2 0xEAD SWAP3 SWAP2 SWAP1 PUSH2 0x1B8F JUMP JUMPDEST PUSH1 0x40 MLOAD PUSH1 0x20 DUP2 DUP4 SUB SUB DUP2 MSTORE SWAP1 PUSH1 0x40 MSTORE DUP1 MLOAD SWAP1 PUSH1 0x20 ADD KECCAK256 DUP2 MSTORE PUSH1 0x20 ADD SWAP1 DUP2 MSTORE PUSH1 0x20 ADD PUSH0 KECCAK256 SLOAD SWAP1 POP SWAP3 SWAP2 POP POP JUMP JUMPDEST PUSH0 PUSH0 PUSH1 0x2 DUP6 PUSH1 0x40 MLOAD PUSH2 0xEEB SWAP2 SWAP1 PUSH2 0x1A31 JUMP JUMPDEST SWAP1 DUP2 MSTORE PUSH1 0x20 ADD PUSH1 0x40 MLOAD DUP1 SWAP2 SUB SWAP1 KECCAK256 PUSH0 SWAP1 SLOAD SWAP1 PUSH2 0x100 EXP SWAP1 DIV PUSH20 0xFFFFFFFFFFFFFFFFFFFFFFFFFFFFFFFFFFFFFFFF AND SWAP1 POP PUSH0 PUSH1 0x2 DUP6 PUSH1 0x40 MLOAD PUSH2 0xF2C SWAP2 SWAP1 PUSH2 0x1A31 JUMP JUMPDEST SWAP1 DUP2 MSTORE PUSH1 0x20 ADD PUSH1 0x40 MLOAD DUP1 SWAP2 SUB SWAP1 KECCAK256 PUSH0 SWAP1 SLOAD SWAP1 PUSH2 0x100 EXP SWAP1 DIV PUSH20 0xFFFFFFFFFFFFFFFFFFFFFFFFFFFFFFFFFFFFFFFF AND SWAP1 POP PUSH0 PUSH20 0xFFFFFFFFFFFFFFFFFFFFFFFFFFFFFFFFFFFFFFFF AND DUP3 PUSH20 0xFFFFFFFFFFFFFFFFFFFFFFFFFFFFFFFFFFFFFFFF AND SUB PUSH2 0xFCA JUMPI PUSH1 0x40 MLOAD PUSH32 0x8C379A000000000000000000000000000000000000000000000000000000000 DUP2 MSTORE PUSH1 0x4 ADD PUSH2 0xFC1 SWAP1 PUSH2 0x1F56 JUMP JUMPDEST PUSH1 0x40 MLOAD DUP1 SWAP2 SUB SWAP1 REVERT JUMPDEST PUSH0 PUSH20 0xFFFFFFFFFFFFFFFFFFFFFFFFFFFFFFFFFFFFFFFF AND DUP2 PUSH20 0xFFFFFFFFFFFFFFFFFFFFFFFFFFFFFFFFFFFFFFFF AND SUB PUSH2 0x1038 JUMPI PUSH1 0x40 MLOAD PUSH32 0x8C379A000000000000000000000000000000000000000000000000000000000 DUP2 MSTORE PUSH1 0x4 ADD PUSH2 0x102F SWAP1 PUSH2 0x1FBE JUMP JUMPDEST PUSH1 0x40 MLOAD DUP1 SWAP2 SUB SWAP1 REVERT JUMPDEST PUSH0 DUP3 PUSH20 0xFFFFFFFFFFFFFFFFFFFFFFFFFFFFFFFFFFFFFFFF AND PUSH4 0x313CE567 PUSH1 0x40 MLOAD DUP2 PUSH4 0xFFFFFFFF AND PUSH1 0xE0 SHL DUP2 MSTORE PUSH1 0x4 ADD PUSH1 0x20 PUSH1 0x40 MLOAD DUP1 DUP4 SUB DUP2 DUP7 GAS STATICCALL ISZERO DUP1 ISZERO PUSH2 0x1082 JUMPI RETURNDATASIZE PUSH0 PUSH0 RETURNDATACOPY RETURNDATASIZE PUSH0 REVERT JUMPDEST POP POP POP POP PUSH1 0x40 MLOAD RETURNDATASIZE PUSH1 0x1F NOT PUSH1 0x1F DUP3 ADD AND DUP3 ADD DUP1 PUSH1 0x40 MSTORE POP DUP2 ADD SWAP1 PUSH2 0x10A6 SWAP2 SWAP1 PUSH2 0x2012 JUMP JUMPDEST SWAP1 POP PUSH0 DUP3 PUSH20 0xFFFFFFFFFFFFFFFFFFFFFFFFFFFFFFFFFFFFFFFF AND PUSH4 0x313CE567 PUSH1 0x40 MLOAD DUP2 PUSH4 0xFFFFFFFF AND PUSH1 0xE0 SHL DUP2 MSTORE PUSH1 0x4 ADD PUSH1 0x20 PUSH1 0x40 MLOAD DUP1 DUP4 SUB DUP2 DUP7 GAS STATICCALL ISZERO DUP1 ISZERO PUSH2 0x10F2 JUMPI RETURNDATASIZE PUSH0 PUSH0 RETURNDATACOPY RETURNDATASIZE PUSH0 REVERT JUMPDEST POP POP POP POP PUSH1 0x40 MLOAD RETURNDATASIZE PUSH1 0x1F NOT PUSH1 0x1F DUP3 ADD AND DUP3 ADD DUP1 PUSH1 0x40 MSTORE POP DUP2 ADD SWAP1 PUSH2 0x1116 SWAP2 SWAP1 PUSH2 0x2012 JUMP JUMPDEST SWAP1 POP PUSH0 DUP9 DUP9 PUSH1 0x40 MLOAD PUSH1 0x20 ADD PUSH2 0x112C SWAP3 SWAP2 SWAP1 PUSH2 0x1B8F JUMP JUMPDEST PUSH1 0x40 MLOAD PUSH1 0x20 DUP2 DUP4 SUB SUB DUP2 MSTORE SWAP1 PUSH1 0x40 MSTORE DUP1 MLOAD SWAP1 PUSH1 0x20 ADD KECCAK256 SWAP1 POP PUSH0 PUSH1 0x3 PUSH0 DUP4 DUP2 MSTORE PUSH1 0x20 ADD SWAP1 DUP2 MSTORE PUSH1 0x20 ADD PUSH0 KECCAK256 SLOAD SWAP1 POP PUSH0 DUP2 GT PUSH2 0x119B JUMPI PUSH1 0x40 MLOAD PUSH32 0x8C379A000000000000000000000000000000000000000000000000000000000 DUP2 MSTORE PUSH1 0x4 ADD PUSH2 0x1192 SWAP1 PUSH2 0x2087 JUMP JUMPDEST PUSH1 0x40 MLOAD DUP1 SWAP2 SUB SWAP1 REVERT JUMPDEST PUSH0 PUSH1 0x12 DUP6 PUSH1 0xFF AND LT PUSH2 0x11D0 JUMPI PUSH1 0x12 DUP6 PUSH2 0x11B4 SWAP2 SWAP1 PUSH2 0x20A5 JUMP JUMPDEST PUSH1 0xA PUSH2 0x11C0 SWAP2 SWAP1 PUSH2 0x2208 JUMP JUMPDEST DUP10 PUSH2 0x11CB SWAP2 SWAP1 PUSH2 0x1C0C JUMP JUMPDEST PUSH2 0x11F5 JUMP JUMPDEST DUP5 PUSH1 0x12 PUSH2 0x11DD SWAP2 SWAP1 PUSH2 0x20A5 JUMP JUMPDEST PUSH1 0xA PUSH2 0x11E9 SWAP2 SWAP1 PUSH2 0x2208 JUMP JUMPDEST DUP10 PUSH2 0x11F4 SWAP2 SWAP1 PUSH2 0x2252 JUMP JUMPDEST JUMPDEST SWAP1 POP PUSH0 PUSH8 0xDE0B6B3A7640000 DUP4 DUP4 PUSH2 0x120D SWAP2 SWAP1 PUSH2 0x2252 JUMP JUMPDEST PUSH2 0x1217 SWAP2 SWAP1 PUSH2 0x1C0C JUMP JUMPDEST SWAP1 POP PUSH0 PUSH1 0x12 DUP7 PUSH1 0xFF AND LT PUSH2 0x124E JUMPI PUSH1 0x12 DUP7 PUSH2 0x1232 SWAP2 SWAP1 PUSH2 0x20A5 JUMP JUMPDEST PUSH1 0xA PUSH2 0x123E SWAP2 SWAP1 PUSH2 0x2208 JUMP JUMPDEST DUP3 PUSH2 0x1249 SWAP2 SWAP1 PUSH2 0x2252 JUMP JUMPDEST PUSH2 0x1273 JUMP JUMPDEST DUP6 PUSH1 0x12 PUSH2 0x125B SWAP2 SWAP1 PUSH2 0x20A5 JUMP JUMPDEST PUSH1 0xA PUSH2 0x1267 SWAP2 SWAP1 PUSH2 0x2208 JUMP JUMPDEST DUP3 PUSH2 0x1272 SWAP2 SWAP1 PUSH2 0x1C0C JUMP JUMPDEST JUMPDEST SWAP1 POP DUP1 SWAP10 POP POP POP POP POP POP POP POP POP POP SWAP4 SWAP3 POP POP POP JUMP JUMPDEST PUSH2 0x1290 PUSH2 0x130C JUMP JUMPDEST PUSH0 PUSH20 0xFFFFFFFFFFFFFFFFFFFFFFFFFFFFFFFFFFFFFFFF AND DUP2 PUSH20 0xFFFFFFFFFFFFFFFFFFFFFFFFFFFFFFFFFFFFFFFF AND SUB PUSH2 0x1300 JUMPI PUSH0 PUSH1 0x40 MLOAD PUSH32 0x1E4FBDF700000000000000000000000000000000000000000000000000000000 DUP2 MSTORE PUSH1 0x4 ADD PUSH2 0x12F7 SWAP2 SWAP1 PUSH2 0x195D JUMP JUMPDEST PUSH1 0x40 MLOAD DUP1 SWAP2 SUB SWAP1 REVERT JUMPDEST PUSH2 0x1309 DUP2 PUSH2 0x1393 JUMP JUMPDEST POP JUMP JUMPDEST PUSH2 0x1314 PUSH2 0x14AC JUMP JUMPDEST PUSH20 0xFFFFFFFFFFFFFFFFFFFFFFFFFFFFFFFFFFFFFFFF AND PUSH2 0x1332 PUSH2 0x690 JUMP JUMPDEST PUSH20 0xFFFFFFFFFFFFFFFFFFFFFFFFFFFFFFFFFFFFFFFF AND EQ PUSH2 0x1391 JUMPI PUSH2 0x1355 PUSH2 0x14AC JUMP JUMPDEST PUSH1 0x40 MLOAD PUSH32 0x118CDAA700000000000000000000000000000000000000000000000000000000 DUP2 MSTORE PUSH1 0x4 ADD PUSH2 0x1388 SWAP2 SWAP1 PUSH2 0x195D JUMP JUMPDEST PUSH1 0x40 MLOAD DUP1 SWAP2 SUB SWAP1 REVERT JUMPDEST JUMP JUMPDEST PUSH0 PUSH1 0x1 PUSH0 SWAP1 SLOAD SWAP1 PUSH2 0x100 EXP SWAP1 DIV PUSH20 0xFFFFFFFFFFFFFFFFFFFFFFFFFFFFFFFFFFFFFFFF AND SWAP1 POP DUP2 PUSH1 0x1 PUSH0 PUSH2 0x100 EXP DUP2 SLOAD DUP2 PUSH20 0xFFFFFFFFFFFFFFFFFFFFFFFFFFFFFFFFFFFFFFFF MUL NOT AND SWAP1 DUP4 PUSH20 0xFFFFFFFFFFFFFFFFFFFFFFFFFFFFFFFFFFFFFFFF AND MUL OR SWAP1 SSTORE POP DUP2 PUSH20 0xFFFFFFFFFFFFFFFFFFFFFFFFFFFFFFFFFFFFFFFF AND DUP2 PUSH20 0xFFFFFFFFFFFFFFFFFFFFFFFFFFFFFFFFFFFFFFFF AND PUSH32 0x8BE0079C531659141344CD1FD0A4F28419497F9722A3DAAFE3B4186F6B6457E0 PUSH1 0x40 MLOAD PUSH1 0x40 MLOAD DUP1 SWAP2 SUB SWAP1 LOG3 POP POP JUMP JUMPDEST PUSH1 0x2 PUSH0 SLOAD SUB PUSH2 0x149A JUMPI PUSH1 0x40 MLOAD PUSH32 0x8C379A000000000000000000000000000000000000000000000000000000000 DUP2 MSTORE PUSH1 0x4 ADD PUSH2 0x1491 SWAP1 PUSH2 0x24DA JUMP JUMPDEST PUSH1 0x40 MLOAD DUP1 SWAP2 SUB SWAP1 REVERT JUMPDEST PUSH1 0x2 PUSH0 DUP2 SWAP1 SSTORE POP JUMP JUMPDEST PUSH1 0x1 PUSH0 DUP2 SWAP1 SSTORE POP JUMP JUMPDEST PUSH0 CALLER SWAP1 POP SWAP1 JUMP JUMPDEST PUSH0 PUSH1 0x40 MLOAD SWAP1 POP SWAP1 JUMP JUMPDEST PUSH0 PUSH0 REVERT JUMPDEST PUSH0 PUSH0 REVERT JUMPDEST PUSH0 PUSH0 REVERT JUMPDEST PUSH0 PUSH0 REVERT JUMPDEST PUSH0 PUSH1 0x1F NOT PUSH1 0x1F DUP4 ADD AND SWAP1 POP SWAP2 SWAP1 POP JUMP JUMPDEST PUSH32 0x4E487B7100000000000000000000000000000000000000000000000000000000 PUSH0 MSTORE PUSH1 0x41 PUSH1 0x4 MSTORE PUSH1 0x24 PUSH0 REVERT JUMPDEST PUSH2 0x1512 DUP3 PUSH2 0x14CC JUMP JUMPDEST DUP2 ADD DUP2 DUP2 LT PUSH8 0xFFFFFFFFFFFFFFFF DUP3 GT OR ISZERO PUSH2 0x1531 JUMPI PUSH2 0x1530 PUSH2 0x14DC JUMP JUMPDEST JUMPDEST DUP1 PUSH1 0x40 MSTORE POP POP POP JUMP JUMPDEST PUSH0 PUSH2 0x1543 PUSH2 0x14B3 JUMP JUMPDEST SWAP1 POP PUSH2 0x154F DUP3 DUP3 PUSH2 0x1509 JUMP JUMPDEST SWAP2 SWAP1 POP JUMP JUMPDEST PUSH0 PUSH8 0xFFFFFFFFFFFFFFFF DUP3 GT ISZERO PUSH2 0x156E JUMPI PUSH2 0x156D PUSH2 0x14DC JUMP JUMPDEST JUMPDEST PUSH2 0x1577 DUP3 PUSH2 0x14CC JUMP JUMPDEST SWAP1 POP PUSH1 0x20 DUP2 ADD SWAP1 POP SWAP2 SWAP1 POP JUMP JUMPDEST DUP3 DUP2 DUP4 CALLDATACOPY PUSH0 DUP4 DUP4 ADD MSTORE POP POP POP JUMP JUMPDEST PUSH0 PUSH2 0x15A4 PUSH2 0x159F DUP5 PUSH2 0x1554 JUMP JUMPDEST PUSH2 0x153A JUMP JUMPDEST SWAP1 POP DUP3 DUP2 MSTORE PUSH1 0x20 DUP2 ADD DUP5 DUP5 DUP5 ADD GT ISZERO PUSH2 0x15C0 JUMPI PUSH2 0x15BF PUSH2 0x14C8 JUMP JUMPDEST JUMPDEST PUSH2 0x15CB DUP5 DUP3 DUP6 PUSH2 0x1584 JUMP JUMPDEST POP SWAP4 SWAP3 POP POP POP JUMP JUMPDEST PUSH0 DUP3 PUSH1 0x1F DUP4 ADD SLT PUSH2 0x15E7 JUMPI PUSH2 0x15E6 PUSH2 0x14C4 JUMP JUMPDEST JUMPDEST DUP2 CALLDATALOAD PUSH2 0x15F7 DUP5 DUP3 PUSH1 0x20 DUP7 ADD PUSH2 0x1592 JUMP JUMPDEST SWAP2 POP POP SWAP3 SWAP2 POP POP JUMP JUMPDEST PUSH0 DUP2 SWAP1 POP SWAP2 SWAP1 POP JUMP JUMPDEST PUSH2 0x1612 DUP2 PUSH2 0x1600 JUMP JUMPDEST DUP2 EQ PUSH2 0x161C JUMPI PUSH0 PUSH0 REVERT JUMPDEST POP JUMP JUMPDEST PUSH0 DUP2 CALLDATALOAD SWAP1 POP PUSH2 0x162D DUP2 PUSH2 0x1609 JUMP JUMPDEST SWAP3 SWAP2 POP POP JUMP JUMPDEST PUSH0 PUSH0 PUSH0 PUSH1 0x60 DUP5 DUP7 SUB SLT ISZERO PUSH2 0x164A JUMPI PUSH2 0x1649 PUSH2 0x14BC JUMP JUMPDEST JUMPDEST PUSH0 DUP5 ADD CALLDATALOAD PUSH8 0xFFFFFFFFFFFFFFFF DUP2 GT ISZERO PUSH2 0x1667 JUMPI PUSH2 0x1666 PUSH2 0x14C0 JUMP JUMPDEST JUMPDEST PUSH2 0x1673 DUP7 DUP3 DUP8 ADD PUSH2 0x15D3 JUMP JUMPDEST SWAP4 POP POP PUSH1 0x20 DUP5 ADD CALLDATALOAD PUSH8 0xFFFFFFFFFFFFFFFF DUP2 GT ISZERO PUSH2 0x1694 JUMPI PUSH2 0x1693 PUSH2 0x14C0 JUMP JUMPDEST JUMPDEST PUSH2 0x16A0 DUP7 DUP3 DUP8 ADD PUSH2 0x15D3 JUMP JUMPDEST SWAP3 POP POP PUSH1 0x40 PUSH2 0x16B1 DUP7 DUP3 DUP8 ADD PUSH2 0x161F JUMP JUMPDEST SWAP2 POP POP SWAP3 POP SWAP3 POP SWAP3 JUMP JUMPDEST PUSH0 PUSH1 0x20 DUP3 DUP5 SUB SLT ISZERO PUSH2 0x16D0 JUMPI PUSH2 0x16CF PUSH2 0x14BC JUMP JUMPDEST JUMPDEST PUSH0 DUP3 ADD CALLDATALOAD PUSH8 0xFFFFFFFFFFFFFFFF DUP2 GT ISZERO PUSH2 0x16ED JUMPI PUSH2 0x16EC PUSH2 0x14C0 JUMP JUMPDEST JUMPDEST PUSH2 0x16F9 DUP5 DUP3 DUP6 ADD PUSH2 0x15D3 JUMP JUMPDEST SWAP2 POP POP SWAP3 SWAP2 POP POP JUMP JUMPDEST PUSH0 PUSH20 0xFFFFFFFFFFFFFFFFFFFFFFFFFFFFFFFFFFFFFFFF DUP3 AND SWAP1 POP SWAP2 SWAP1 POP JUMP JUMPDEST PUSH0 DUP2 SWAP1 POP SWAP2 SWAP1 POP JUMP JUMPDEST PUSH0 PUSH2 0x1744 PUSH2 0x173F PUSH2 0x173A DUP5 PUSH2 0x1702 JUMP JUMPDEST PUSH2 0x1721 JUMP JUMPDEST PUSH2 0x1702 JUMP JUMPDEST SWAP1 POP SWAP2 SWAP1 POP JUMP JUMPDEST PUSH0 PUSH2 0x1755 DUP3 PUSH2 0x172A JUMP JUMPDEST SWAP1 POP SWAP2 SWAP1 POP JUMP JUMPDEST PUSH0 PUSH2 0x1766 DUP3 PUSH2 0x174B JUMP JUMPDEST SWAP1 POP SWAP2 SWAP1 POP JUMP JUMPDEST PUSH2 0x1776 DUP2 PUSH2 0x175C JUMP JUMPDEST DUP3 MSTORE POP POP JUMP JUMPDEST PUSH0 PUSH1 0x20 DUP3 ADD SWAP1 POP PUSH2 0x178F PUSH0 DUP4 ADD DUP5 PUSH2 0x176D JUMP JUMPDEST SWAP3 SWAP2 POP POP JUMP JUMPDEST PUSH0 PUSH2 0x179F DUP3 PUSH2 0x1702 JUMP JUMPDEST SWAP1 POP SWAP2 SWAP1 POP JUMP JUMPDEST PUSH2 0x17AF DUP2 PUSH2 0x1795 JUMP JUMPDEST DUP2 EQ PUSH2 0x17B9 JUMPI PUSH0 PUSH0 REVERT JUMPDEST POP JUMP JUMPDEST PUSH0 DUP2 CALLDATALOAD SWAP1 POP PUSH2 0x17CA DUP2 PUSH2 0x17A6 JUMP JUMPDEST SWAP3 SWAP2 POP POP JUMP JUMPDEST PUSH0 PUSH0 PUSH1 0x40 DUP4 DUP6 SUB SLT ISZERO PUSH2 0x17E6 JUMPI PUSH2 0x17E5 PUSH2 0x14BC JUMP JUMPDEST JUMPDEST PUSH0 DUP4 ADD CALLDATALOAD PUSH8 0xFFFFFFFFFFFFFFFF DUP2 GT ISZERO PUSH2 0x1803 JUMPI PUSH2 0x1802 PUSH2 0x14C0 JUMP JUMPDEST JUMPDEST PUSH2 0x180F DUP6 DUP3 DUP7 ADD PUSH2 0x15D3 JUMP JUMPDEST SWAP3 POP POP PUSH1 0x20 PUSH2 0x1820 DUP6 DUP3 DUP7 ADD PUSH2 0x17BC JUMP JUMPDEST SWAP2 POP POP SWAP3 POP SWAP3 SWAP1 POP JUMP JUMPDEST PUSH0 PUSH0 PUSH1 0x40 DUP4 DUP6 SUB SLT ISZERO PUSH2 0x1840 JUMPI PUSH2 0x183F PUSH2 0x14BC JUMP JUMPDEST JUMPDEST PUSH0 DUP4 ADD CALLDATALOAD PUSH8 0xFFFFFFFFFFFFFFFF DUP2 GT ISZERO PUSH2 0x185D JUMPI PUSH2 0x185C PUSH2 0x14C0 JUMP JUMPDEST JUMPDEST PUSH2 0x1869 DUP6 DUP3 DUP7 ADD PUSH2 0x15D3 JUMP JUMPDEST SWAP3 POP POP PUSH1 0x20 DUP4 ADD CALLDATALOAD PUSH8 0xFFFFFFFFFFFFFFFF DUP2 GT ISZERO PUSH2 0x188A JUMPI PUSH2 0x1889 PUSH2 0x14C0 JUMP JUMPDEST JUMPDEST PUSH2 0x1896 DUP6 DUP3 DUP7 ADD PUSH2 0x15D3 JUMP JUMPDEST SWAP2 POP POP SWAP3 POP SWAP3 SWAP1 POP JUMP JUMPDEST PUSH0 DUP2 SWAP1 POP SWAP2 SWAP1 POP JUMP JUMPDEST PUSH2 0x18B2 DUP2 PUSH2 0x18A0 JUMP JUMPDEST DUP3 MSTORE POP POP JUMP JUMPDEST PUSH0 PUSH1 0x20 DUP3 ADD SWAP1 POP PUSH2 0x18CB PUSH0 DUP4 ADD DUP5 PUSH2 0x18A9 JUMP JUMPDEST SWAP3 SWAP2 POP POP JUMP JUMPDEST PUSH2 0x18DA DUP2 PUSH2 0x18A0 JUMP JUMPDEST DUP2 EQ PUSH2 0x18E4 JUMPI PUSH0 PUSH0 REVERT JUMPDEST POP JUMP JUMPDEST PUSH0 DUP2 CALLDATALOAD SWAP1 POP PUSH2 0x18F5 DUP2 PUSH2 0x18D1 JUMP JUMPDEST SWAP3 SWAP2 POP POP JUMP JUMPDEST PUSH0 PUSH1 0x20 DUP3 DUP5 SUB SLT ISZERO PUSH2 0x1910 JUMPI PUSH2 0x190F PUSH2 0x14BC JUMP JUMPDEST JUMPDEST PUSH0 PUSH2 0x191D DUP5 DUP3 DUP6 ADD PUSH2 0x18E7 JUMP JUMPDEST SWAP2 POP POP SWAP3 SWAP2 POP POP JUMP JUMPDEST PUSH2 0x192F DUP2 PUSH2 0x1600 JUMP JUMPDEST DUP3 MSTORE POP POP JUMP JUMPDEST PUSH0 PUSH1 0x20 DUP3 ADD SWAP1 POP PUSH2 0x1948 PUSH0 DUP4 ADD DUP5 PUSH2 0x1926 JUMP JUMPDEST SWAP3 SWAP2 POP POP JUMP JUMPDEST PUSH2 0x1957 DUP2 PUSH2 0x1795 JUMP JUMPDEST DUP3 MSTORE POP POP JUMP JUMPDEST PUSH0 PUSH1 0x20 DUP3 ADD SWAP1 POP PUSH2 0x1970 PUSH0 DUP4 ADD DUP5 PUSH2 0x194E JUMP JUMPDEST SWAP3 SWAP2 POP POP JUMP JUMPDEST PUSH0 PUSH0 PUSH1 0x40 DUP4 DUP6 SUB SLT ISZERO PUSH2 0x198C JUMPI PUSH2 0x198B PUSH2 0x14BC JUMP JUMPDEST JUMPDEST PUSH0 PUSH2 0x1999 DUP6 DUP3 DUP7 ADD PUSH2 0x17BC JUMP JUMPDEST SWAP3 POP POP PUSH1 0x20 PUSH2 0x19AA DUP6 DUP3 DUP7 ADD PUSH2 0x161F JUMP JUMPDEST SWAP2 POP POP SWAP3 POP SWAP3 SWAP1 POP JUMP JUMPDEST PUSH0 PUSH1 0x20 DUP3 DUP5 SUB SLT ISZERO PUSH2 0x19C9 JUMPI PUSH2 0x19C8 PUSH2 0x14BC JUMP JUMPDEST JUMPDEST PUSH0 PUSH2 0x19D6 DUP5 DUP3 DUP6 ADD PUSH2 0x17BC JUMP JUMPDEST SWAP2 POP POP SWAP3 SWAP2 POP POP JUMP JUMPDEST PUSH0 DUP2 MLOAD SWAP1 POP SWAP2 SWAP1 POP JUMP JUMPDEST PUSH0 DUP2 SWAP1 POP SWAP3 SWAP2 POP POP JUMP JUMPDEST DUP3 DUP2 DUP4 MCOPY PUSH0 DUP4 DUP4 ADD MSTORE POP POP POP JUMP JUMPDEST PUSH0 PUSH2 0x1A0B DUP3 PUSH2 0x19DF JUMP JUMPDEST PUSH2 0x1A15 DUP2 DUP6 PUSH2 0x19E9 JUMP JUMPDEST SWAP4 POP PUSH2 0x1A25 DUP2 DUP6 PUSH1 0x20 DUP7 ADD PUSH2 0x19F3 JUMP JUMPDEST DUP1 DUP5 ADD SWAP2 POP POP SWAP3 SWAP2 POP POP JUMP JUMPDEST PUSH0 PUSH2 0x1A3C DUP3 DUP5 PUSH2 0x1A01 JUMP JUMPDEST SWAP2 POP DUP2 SWAP1 POP SWAP3 SWAP2 POP POP JUMP JUMPDEST PUSH0 DUP3 DUP3 MSTORE PUSH1 0x20 DUP3 ADD SWAP1 POP SWAP3 SWAP2 POP POP JUMP JUMPDEST PUSH32 0x46726F6D20746F6B656E206E6F74207365740000000000000000000000000000 PUSH0 DUP3 ADD MSTORE POP JUMP JUMPDEST PUSH0 PUSH2 0x1A8B PUSH1 0x12 DUP4 PUSH2 0x1A47 JUMP JUMPDEST SWAP2 POP PUSH2 0x1A96 DUP3 PUSH2 0x1A57 JUMP JUMPDEST PUSH1 0x20 DUP3 ADD SWAP1 POP SWAP2 SWAP1 POP JUMP JUMPDEST PUSH0 PUSH1 0x20 DUP3 ADD SWAP1 POP DUP2 DUP2 SUB PUSH0 DUP4 ADD MSTORE PUSH2 0x1AB8 DUP2 PUSH2 0x1A7F JUMP JUMPDEST SWAP1 POP SWAP2 SWAP1 POP JUMP JUMPDEST PUSH32 0x546F20746F6B656E206E6F742073657400000000000000000000000000000000 PUSH0 DUP3 ADD MSTORE POP JUMP JUMPDEST PUSH0 PUSH2 0x1AF3 PUSH1 0x10 DUP4 PUSH2 0x1A47 JUMP JUMPDEST SWAP2 POP PUSH2 0x1AFE DUP3 PUSH2 0x1ABF JUMP JUMPDEST PUSH1 0x20 DUP3 ADD SWAP1 POP SWAP2 SWAP1 POP JUMP JUMPDEST PUSH0 PUSH1 0x20 DUP3 ADD SWAP1 POP DUP2 DUP2 SUB PUSH0 DUP4 ADD MSTORE PUSH2 0x1B20 DUP2 PUSH2 0x1AE7 JUMP JUMPDEST SWAP1 POP SWAP2 SWAP1 POP JUMP JUMPDEST PUSH32 0x52617465206D757374206265203E203000000000000000000000000000000000 PUSH0 DUP3 ADD MSTORE POP JUMP JUMPDEST PUSH0 PUSH2 0x1B5B PUSH1 0x10 DUP4 PUSH2 0x1A47 JUMP JUMPDEST SWAP2 POP PUSH2 0x1B66 DUP3 PUSH2 0x1B27 JUMP JUMPDEST PUSH1 0x20 DUP3 ADD SWAP1 POP SWAP2 SWAP1 POP JUMP JUMPDEST PUSH0 PUSH1 0x20 DUP3 ADD SWAP1 POP DUP2 DUP2 SUB PUSH0 DUP4 ADD MSTORE PUSH2 0x1B88 DUP2 PUSH2 0x1B4F JUMP JUMPDEST SWAP1 POP SWAP2 SWAP1 POP JUMP JUMPDEST PUSH0 PUSH2 0x1B9A DUP3 DUP6 PUSH2 0x1A01 JUMP JUMPDEST SWAP2 POP PUSH2 0x1BA6 DUP3 DUP5 PUSH2 0x1A01 JUMP JUMPDEST SWAP2 POP DUP2 SWAP1 POP SWAP4 SWAP3 POP POP POP JUMP JUMPDEST PUSH32 0x4E487B7100000000000000000000000000000000000000000000000000000000 PUSH0 MSTORE PUSH1 0x12 PUSH1 0x4 MSTORE PUSH1 0x24 PUSH0 REVERT JUMPDEST PUSH32 0x4E487B7100000000000000000000000000000000000000000000000000000000 PUSH0 MSTORE PUSH1 0x11 PUSH1 0x4 MSTORE PUSH1 0x24 PUSH0 REVERT JUMPDEST PUSH0 PUSH2 0x1C16 DUP3 PUSH2 0x1600 JUMP JUMPDEST SWAP2 POP PUSH2 0x1C21 DUP4 PUSH2 0x1600 JUMP JUMPDEST SWAP3 POP DUP3 PUSH2 0x1C31 JUMPI PUSH2 0x1C30 PUSH2 0x1BB2 JUMP JUMPDEST JUMPDEST DUP3 DUP3 DIV SWAP1 POP SWAP3 SWAP2 POP POP JUMP JUMPDEST PUSH0 PUSH2 0x1C46 DUP3 PUSH2 0x19DF JUMP JUMPDEST PUSH2 0x1C50 DUP2 DUP6 PUSH2 0x1A47 JUMP JUMPDEST SWAP4 POP PUSH2 0x1C60 DUP2 DUP6 PUSH1 0x20 DUP7 ADD PUSH2 0x19F3 JUMP JUMPDEST PUSH2 0x1C69 DUP2 PUSH2 0x14CC JUMP JUMPDEST DUP5 ADD SWAP2 POP POP SWAP3 SWAP2 POP POP JUMP JUMPDEST PUSH0 PUSH1 0x60 DUP3 ADD SWAP1 POP DUP2 DUP2 SUB PUSH0 DUP4 ADD MSTORE PUSH2 0x1C8C DUP2 DUP7 PUSH2 0x1C3C JUMP JUMPDEST SWAP1 POP DUP2 DUP2 SUB PUSH1 0x20 DUP4 ADD MSTORE PUSH2 0x1CA0 DUP2 DUP6 PUSH2 0x1C3C JUMP JUMPDEST SWAP1 POP PUSH2 0x1CAF PUSH1 0x40 DUP4 ADD DUP5 PUSH2 0x1926 JUMP JUMPDEST SWAP5 SWAP4 POP POP POP POP JUMP JUMPDEST PUSH32 0x496E76616C696420746F6B656E20616464726573730000000000000000000000 PUSH0 DUP3 ADD MSTORE POP JUMP JUMPDEST PUSH0 PUSH2 0x1CEB PUSH1 0x15 DUP4 PUSH2 0x1A47 JUMP JUMPDEST SWAP2 POP PUSH2 0x1CF6 DUP3 PUSH2 0x1CB7 JUMP JUMPDEST PUSH1 0x20 DUP3 ADD SWAP1 POP SWAP2 SWAP1 POP JUMP JUMPDEST PUSH0 PUSH1 0x20 DUP3 ADD SWAP1 POP DUP2 DUP2 SUB PUSH0 DUP4 ADD MSTORE PUSH2 0x1D18 DUP2 PUSH2 0x1CDF JUMP JUMPDEST SWAP1 POP SWAP2 SWAP1 POP JUMP JUMPDEST PUSH0 PUSH1 0x40 DUP3 ADD SWAP1 POP DUP2 DUP2 SUB PUSH0 DUP4 ADD MSTORE PUSH2 0x1D37 DUP2 DUP6 PUSH2 0x1C3C JUMP JUMPDEST SWAP1 POP PUSH2 0x1D46 PUSH1 0x20 DUP4 ADD DUP5 PUSH2 0x194E JUMP JUMPDEST SWAP4 SWAP3 POP POP POP JUMP JUMPDEST PUSH0 PUSH1 0x40 DUP3 ADD SWAP1 POP PUSH2 0x1D60 PUSH0 DUP4 ADD DUP6 PUSH2 0x194E JUMP JUMPDEST PUSH2 0x1D6D PUSH1 0x20 DUP4 ADD DUP5 PUSH2 0x1926 JUMP JUMPDEST SWAP4 SWAP3 POP POP POP JUMP JUMPDEST PUSH0 DUP2 ISZERO ISZERO SWAP1 POP SWAP2 SWAP1 POP JUMP JUMPDEST PUSH2 0x1D88 DUP2 PUSH2 0x1D74 JUMP JUMPDEST DUP2 EQ PUSH2 0x1D92 JUMPI PUSH0 PUSH0 REVERT JUMPDEST POP JUMP JUMPDEST PUSH0 DUP2 MLOAD SWAP1 POP PUSH2 0x1DA3 DUP2 PUSH2 0x1D7F JUMP JUMPDEST SWAP3 SWAP2 POP POP JUMP JUMPDEST PUSH0 PUSH1 0x20 DUP3 DUP5 SUB SLT ISZERO PUSH2 0x1DBE JUMPI PUSH2 0x1DBD PUSH2 0x14BC JUMP JUMPDEST JUMPDEST PUSH0 PUSH2 0x1DCB DUP5 DUP3 DUP6 ADD PUSH2 0x1D95 JUMP JUMPDEST SWAP2 POP POP SWAP3 SWAP2 POP POP JUMP JUMPDEST PUSH32 0x5769746864726177206661696C65640000000000000000000000000000000000 PUSH0 DUP3 ADD MSTORE POP JUMP JUMPDEST PUSH0 PUSH2 0x1E08 PUSH1 0xF DUP4 PUSH2 0x1A47 JUMP JUMPDEST SWAP2 POP PUSH2 0x1E13 DUP3 PUSH2 0x1DD4 JUMP JUMPDEST PUSH1 0x20 DUP3 ADD SWAP1 POP SWAP2 SWAP1 POP JUMP JUMPDEST PUSH0 PUSH1 0x20 DUP3 ADD SWAP1 POP DUP2 DUP2 SUB PUSH0 DUP4 ADD MSTORE PUSH2 0x1E35 DUP2 PUSH2 0x1DFC JUMP JUMPDEST SWAP1 POP SWAP2 SWAP1 POP JUMP JUMPDEST PUSH32 0x416D6F756E74206D757374206265203E20300000000000000000000000000000 PUSH0 DUP3 ADD MSTORE POP JUMP JUMPDEST PUSH0 PUSH2 0x1E70 PUSH1 0x12 DUP4 PUSH2 0x1A47 JUMP JUMPDEST SWAP2 POP PUSH2 0x1E7B DUP3 PUSH2 0x1E3C JUMP JUMPDEST PUSH1 0x20 DUP3 ADD SWAP1 POP SWAP2 SWAP1 POP JUMP JUMPDEST PUSH0 PUSH1 0x20 DUP3 ADD SWAP1 POP DUP2 DUP2 SUB PUSH0 DUP4 ADD MSTORE PUSH2 0x1E9D DUP2 PUSH2 0x1E64 JUMP JUMPDEST SWAP1 POP SWAP2 SWAP1 POP JUMP JUMPDEST PUSH32 0x43616E6E6F7420737761702073616D6520746F6B656E00000000000000000000 PUSH0 DUP3 ADD MSTORE POP JUMP JUMPDEST PUSH0 PUSH2 0x1ED8 PUSH1 0x16 DUP4 PUSH2 0x1A47 JUMP JUMPDEST SWAP2 POP PUSH2 0x1EE3 DUP3 PUSH2 0x1EA4 JUMP JUMPDEST PUSH1 0x20 DUP3 ADD SWAP1 POP SWAP2 SWAP1 POP JUMP JUMPDEST PUSH0 PUSH1 0x20 DUP3 ADD SWAP1 POP DUP2 DUP2 SUB PUSH0 DUP4 ADD MSTORE PUSH2 0x1F05 DUP2 PUSH2 0x1ECC JUMP JUMPDEST SWAP1 POP SWAP2 SWAP1 POP JUMP JUMPDEST PUSH32 0x46726F6D20746F6B656E206E6F7420696E697469616C697A6564000000000000 PUSH0 DUP3 ADD MSTORE POP JUMP JUMPDEST PUSH0 PUSH2 0x1F40 PUSH1 0x1A DUP4 PUSH2 0x1A47 JUMP JUMPDEST SWAP2 POP PUSH2 0x1F4B DUP3 PUSH2 0x1F0C JUMP JUMPDEST PUSH1 0x20 DUP3 ADD SWAP1 POP SWAP2 SWAP1 POP JUMP JUMPDEST PUSH0 PUSH1 0x20 DUP3 ADD SWAP1 POP DUP2 DUP2 SUB PUSH0 DUP4 ADD MSTORE PUSH2 0x1F6D DUP2 PUSH2 0x1F34 JUMP JUMPDEST SWAP1 POP SWAP2 SWAP1 POP JUMP JUMPDEST PUSH32 0x546F20746F6B656E206E6F7420696E697469616C697A65640000000000000000 PUSH0 DUP3 ADD MSTORE POP JUMP JUMPDEST PUSH0 PUSH2 0x1FA8 PUSH1 0x18 DUP4 PUSH2 0x1A47 JUMP JUMPDEST SWAP2 POP PUSH2 0x1FB3 DUP3 PUSH2 0x1F74 JUMP JUMPDEST PUSH1 0x20 DUP3 ADD SWAP1 POP SWAP2 SWAP1 POP JUMP JUMPDEST PUSH0 PUSH1 0x20 DUP3 ADD SWAP1 POP DUP2 DUP2 SUB PUSH0 DUP4 ADD MSTORE PUSH2 0x1FD5 DUP2 PUSH2 0x1F9C JUMP JUMPDEST SWAP1 POP SWAP2 SWAP1 POP JUMP JUMPDEST PUSH0 PUSH1 0xFF DUP3 AND SWAP1 POP SWAP2 SWAP1 POP JUMP JUMPDEST PUSH2 0x1FF1 DUP2 PUSH2 0x1FDC JUMP JUMPDEST DUP2 EQ PUSH2 0x1FFB JUMPI PUSH0 PUSH0 REVERT JUMPDEST POP JUMP JUMPDEST PUSH0 DUP2 MLOAD SWAP1 POP PUSH2 0x200C DUP2 PUSH2 0x1FE8 JUMP JUMPDEST SWAP3 SWAP2 POP POP JUMP JUMPDEST PUSH0 PUSH1 0x20 DUP3 DUP5 SUB SLT ISZERO PUSH2 0x2027 JUMPI PUSH2 0x2026 PUSH2 0x14BC JUMP JUMPDEST JUMPDEST PUSH0 PUSH2 0x2034 DUP5 DUP3 DUP6 ADD PUSH2 0x1FFE JUMP JUMPDEST SWAP2 POP POP SWAP3 SWAP2 POP POP JUMP JUMPDEST PUSH32 0x52617465206E6F74207365740000000000000000000000000000000000000000 PUSH0 DUP3 ADD MSTORE POP JUMP JUMPDEST PUSH0 PUSH2 0x2071 PUSH1 0xC DUP4 PUSH2 0x1A47 JUMP JUMPDEST SWAP2 POP PUSH2 0x207C DUP3 PUSH2 0x203D JUMP JUMPDEST PUSH1 0x20 DUP3 ADD SWAP1 POP SWAP2 SWAP1 POP JUMP JUMPDEST PUSH0 PUSH1 0x20 DUP3 ADD SWAP1 POP DUP2 DUP2 SUB PUSH0 DUP4 ADD MSTORE PUSH2 0x209E DUP2 PUSH2 0x2065 JUMP JUMPDEST SWAP1 POP SWAP2 SWAP1 POP JUMP JUMPDEST PUSH0 PUSH2 0x20AF DUP3 PUSH2 0x1FDC JUMP JUMPDEST SWAP2 POP PUSH2 0x20BA DUP4 PUSH2 0x1FDC JUMP JUMPDEST SWAP3 POP DUP3 DUP3 SUB SWAP1 POP PUSH1 0xFF DUP2 GT ISZERO PUSH2 0x20D3 JUMPI PUSH2 0x20D2 PUSH2 0x1BDF JUMP JUMPDEST JUMPDEST SWAP3 SWAP2 POP POP JUMP JUMPDEST PUSH0 DUP2 PUSH1 0x1 SHR SWAP1 POP SWAP2 SWAP1 POP JUMP JUMPDEST PUSH0 PUSH0 DUP3 SWAP2 POP DUP4 SWAP1 POP JUMPDEST PUSH1 0x1 DUP6 GT ISZERO PUSH2 0x212E JUMPI DUP1 DUP7 DIV DUP2 GT ISZERO PUSH2 0x210A JUMPI PUSH2 0x2109 PUSH2 0x1BDF JUMP JUMPDEST JUMPDEST PUSH1 0x1 DUP6 AND ISZERO PUSH2 0x2119 JUMPI DUP1 DUP3 MUL SWAP2 POP JUMPDEST DUP1 DUP2 MUL SWAP1 POP PUSH2 0x2127 DUP6 PUSH2 0x20D9 JUMP JUMPDEST SWAP5 POP PUSH2 0x20EE JUMP JUMPDEST SWAP5 POP SWAP5 SWAP3 POP POP POP JUMP JUMPDEST PUSH0 DUP3 PUSH2 0x2146 JUMPI PUSH1 0x1 SWAP1 POP PUSH2 0x2201 JUMP JUMPDEST DUP2 PUSH2 0x2153 JUMPI PUSH0 SWAP1 POP PUSH2 0x2201 JUMP JUMPDEST DUP2 PUSH1 0x1 DUP2 EQ PUSH2 0x2169 JUMPI PUSH1 0x2 DUP2 EQ PUSH2 0x2173 JUMPI PUSH2 0x21A2 JUMP JUMPDEST PUSH1 0x1 SWAP2 POP POP PUSH2 0x2201 JUMP JUMPDEST PUSH1 0xFF DUP5 GT ISZERO PUSH2 0x2185 JUMPI PUSH2 0x2184 PUSH2 0x1BDF JUMP JUMPDEST JUMPDEST DUP4 PUSH1 0x2 EXP SWAP2 POP DUP5 DUP3 GT ISZERO PUSH2 0x219C JUMPI PUSH2 0x219B PUSH2 0x1BDF JUMP JUMPDEST JUMPDEST POP PUSH2 0x2201 JUMP JUMPDEST POP PUSH1 0x20 DUP4 LT PUSH2 0x133 DUP4 LT AND PUSH1 0x4E DUP5 LT PUSH1 0xB DUP5 LT AND OR ISZERO PUSH2 0x21D7 JUMPI DUP3 DUP3 EXP SWAP1 POP DUP4 DUP2 GT ISZERO PUSH2 0x21D2 JUMPI PUSH2 0x21D1 PUSH2 0x1BDF JUMP JUMPDEST JUMPDEST PUSH2 0x2201 JUMP JUMPDEST PUSH2 0x21E4 DUP5 DUP5 DUP5 PUSH1 0x1 PUSH2 0x20E5 JUMP JUMPDEST SWAP3 POP SWAP1 POP DUP2 DUP5 DIV DUP2 GT ISZERO PUSH2 0x21FB JUMPI PUSH2 0x21FA PUSH2 0x1BDF JUMP JUMPDEST JUMPDEST DUP2 DUP2 MUL SWAP1 POP JUMPDEST SWAP4 SWAP3 POP POP POP JUMP JUMPDEST PUSH0 PUSH2 0x2212 DUP3 PUSH2 0x1600 JUMP JUMPDEST SWAP2 POP PUSH2 0x221D DUP4 PUSH2 0x1FDC JUMP JUMPDEST SWAP3 POP PUSH2 0x224A PUSH32 0xFFFFFFFFFFFFFFFFFFFFFFFFFFFFFFFFFFFFFFFFFFFFFFFFFFFFFFFFFFFFFFFF DUP5 DUP5 PUSH2 0x2137 JUMP JUMPDEST SWAP1 POP SWAP3 SWAP2 POP POP JUMP JUMPDEST PUSH0 PUSH2 0x225C DUP3 PUSH2 0x1600 JUMP JUMPDEST SWAP2 POP PUSH2 0x2267 DUP4 PUSH2 0x1600 JUMP JUMPDEST SWAP3 POP DUP3 DUP3 MUL PUSH2 0x2275 DUP2 PUSH2 0x1600 JUMP JUMPDEST SWAP2 POP DUP3 DUP3 DIV DUP5 EQ DUP4 ISZERO OR PUSH2 0x228C JUMPI PUSH2 0x228B PUSH2 0x1BDF JUMP JUMPDEST JUMPDEST POP SWAP3 SWAP2 POP POP JUMP JUMPDEST PUSH0 DUP2 MLOAD SWAP1 POP PUSH2 0x22A1 DUP2 PUSH2 0x1609 JUMP JUMPDEST SWAP3 SWAP2 POP POP JUMP JUMPDEST PUSH0 PUSH1 0x20 DUP3 DUP5 SUB SLT ISZERO PUSH2 0x22BC JUMPI PUSH2 0x22BB PUSH2 0x14BC JUMP JUMPDEST JUMPDEST PUSH0 PUSH2 0x22C9 DUP5 DUP3 DUP6 ADD PUSH2 0x2293 JUMP JUMPDEST SWAP2 POP POP SWAP3 SWAP2 POP POP JUMP JUMPDEST PUSH32 0x4E6F7420656E6F756768206C6971756964697479000000000000000000000000 PUSH0 DUP3 ADD MSTORE POP JUMP JUMPDEST PUSH0 PUSH2 0x2306 PUSH1 0x14 DUP4 PUSH2 0x1A47 JUMP JUMPDEST SWAP2 POP PUSH2 0x2311 DUP3 PUSH2 0x22D2 JUMP JUMPDEST PUSH1 0x20 DUP3 ADD SWAP1 POP SWAP2 SWAP1 POP JUMP JUMPDEST PUSH0 PUSH1 0x20 DUP3 ADD SWAP1 POP DUP2 DUP2 SUB PUSH0 DUP4 ADD MSTORE PUSH2 0x2333 DUP2 PUSH2 0x22FA JUMP JUMPDEST SWAP1 POP SWAP2 SWAP1 POP JUMP JUMPDEST PUSH0 PUSH1 0x60 DUP3 ADD SWAP1 POP PUSH2 0x234D PUSH0 DUP4 ADD DUP7 PUSH2 0x194E JUMP JUMPDEST PUSH2 0x235A PUSH1 0x20 DUP4 ADD DUP6 PUSH2 0x194E JUMP JUMPDEST PUSH2 0x2367 PUSH1 0x40 DUP4 ADD DUP5 PUSH2 0x1926 JUMP JUMPDEST SWAP5 SWAP4 POP POP POP POP JUMP JUMPDEST PUSH32 0x5472616E7366657246726F6D206661696C656400000000000000000000000000 PUSH0 DUP3 ADD MSTORE POP JUMP JUMPDEST PUSH0 PUSH2 0x23A3 PUSH1 0x13 DUP4 PUSH2 0x1A47 JUMP JUMPDEST SWAP2 POP PUSH2 0x23AE DUP3 PUSH2 0x236F JUMP JUMPDEST PUSH1 0x20 DUP3 ADD SWAP1 POP SWAP2 SWAP1 POP JUMP JUMPDEST PUSH0 PUSH1 0x20 DUP3 ADD SWAP1 POP DUP2 DUP2 SUB PUSH0 DUP4 ADD MSTORE PUSH2 0x23D0 DUP2 PUSH2 0x2397 JUMP JUMPDEST SWAP1 POP SWAP2 SWAP1 POP JUMP JUMPDEST PUSH32 0x5472616E73666572206661696C65640000000000000000000000000000000000 PUSH0 DUP3 ADD MSTORE POP JUMP JUMPDEST PUSH0 PUSH2 0x240B PUSH1 0xF DUP4 PUSH2 0x1A47 JUMP JUMPDEST SWAP2 POP PUSH2 0x2416 DUP3 PUSH2 0x23D7 JUMP JUMPDEST PUSH1 0x20 DUP3 ADD SWAP1 POP SWAP2 SWAP1 POP JUMP JUMPDEST PUSH0 PUSH1 0x20 DUP3 ADD SWAP1 POP DUP2 DUP2 SUB PUSH0 DUP4 ADD MSTORE PUSH2 0x2438 DUP2 PUSH2 0x23FF JUMP JUMPDEST SWAP1 POP SWAP2 SWAP1 POP JUMP JUMPDEST PUSH0 PUSH1 0x80 DUP3 ADD SWAP1 POP DUP2 DUP2 SUB PUSH0 DUP4 ADD MSTORE PUSH2 0x2457 DUP2 DUP8 PUSH2 0x1C3C JUMP JUMPDEST SWAP1 POP DUP2 DUP2 SUB PUSH1 0x20 DUP4 ADD MSTORE PUSH2 0x246B DUP2 DUP7 PUSH2 0x1C3C JUMP JUMPDEST SWAP1 POP PUSH2 0x247A PUSH1 0x40 DUP4 ADD DUP6 PUSH2 0x1926 JUMP JUMPDEST PUSH2 0x2487 PUSH1 0x60 DUP4 ADD DUP5 PUSH2 0x1926 JUMP JUMPDEST SWAP6 SWAP5 POP POP POP POP POP JUMP JUMPDEST PUSH32 0x5265656E7472616E637947756172643A207265656E7472616E742063616C6C00 PUSH0 DUP3 ADD MSTORE POP JUMP JUMPDEST PUSH0 PUSH2 0x24C4 PUSH1 0x1F DUP4 PUSH2 0x1A47 JUMP JUMPDEST SWAP2 POP PUSH2 0x24CF DUP3 PUSH2 0x2490 JUMP JUMPDEST PUSH1 0x20 DUP3 ADD SWAP1 POP SWAP2 SWAP1 POP JUMP JUMPDEST PUSH0 PUSH1 0x20 DUP3 ADD SWAP1 POP DUP2 DUP2 SUB PUSH0 DUP4 ADD MSTORE PUSH2 0x24F1 DUP2 PUSH2 0x24B8 JUMP JUMPDEST SWAP1 POP SWAP2 SWAP1 POP JUMP INVALID LOG2 PUSH5 0x6970667358 0x22 SLT KECCAK256 0xBE BLOBHASH 0xC5 SWAP7 PUSH24 0x7FDA0C2FBEFE139282CFB397172C1F19F9AE213252231E9B PUSH0 SWAPN 0x8C PUSH5 0x736F6C6343 STOP ADDMOD 0x1E STOP CALLER "
		},
		"gasEstimates": {
			"creation": {
				"codeDepositCost": "1903600",
				"executionCost": "infinite",
				"totalCost": "infinite"
			},
			"external": {
				"exchangeRates(bytes32)": "2843",
				"getExpectedOutput(string,string,uint256)": "infinite",
				"getPairKey(string,string)": "infinite",
				"getRate(string,string)": "infinite",
				"owner()": "2515",
				"renounceOwnership()": "infinite",
				"setExchangeRate(string,string,uint256)": "infinite",
				"setTokenAddress(string,address)": "infinite",
				"swap(string,string,uint256)": "infinite",
				"tokens(string)": "infinite",
				"transferOwnership(address)": "infinite",
				"withdrawToken(address,uint256)": "infinite"
			}
		},
		"methodIdentifiers": {
			"exchangeRates(bytes32)": "577a9fc5",
			"getExpectedOutput(string,string,uint256)": "ed4aa7c0",
			"getPairKey(string,string)": "31dd8eb8",
			"getRate(string,string)": "e3f2804f",
			"owner()": "8da5cb5b",
			"renounceOwnership()": "715018a6",
			"setExchangeRate(string,string,uint256)": "049b266a",
			"setTokenAddress(string,address)": "17456e56",
			"swap(string,string,uint256)": "a451f602",
			"tokens(string)": "04c2320b",
			"transferOwnership(address)": "f2fde38b",
			"withdrawToken(address,uint256)": "9e281a98"
		}
	},
	"abi": [
		{
			"inputs": [],
			"stateMutability": "nonpayable",
			"type": "constructor"
		},
		{
			"inputs": [
				{
					"internalType": "address",
					"name": "owner",
					"type": "address"
				}
			],
			"name": "OwnableInvalidOwner",
			"type": "error"
		},
		{
			"inputs": [
				{
					"internalType": "address",
					"name": "account",
					"type": "address"
				}
			],
			"name": "OwnableUnauthorizedAccount",
			"type": "error"
		},
		{
			"anonymous": false,
			"inputs": [
				{
					"indexed": false,
					"internalType": "string",
					"name": "from",
					"type": "string"
				},
				{
					"indexed": false,
					"internalType": "string",
					"name": "to",
					"type": "string"
				},
				{
					"indexed": false,
					"internalType": "uint256",
					"name": "rate",
					"type": "uint256"
				}
			],
			"name": "ExchangeRateSet",
			"type": "event"
		},
		{
			"anonymous": false,
			"inputs": [
				{
					"indexed": true,
					"internalType": "address",
					"name": "previousOwner",
					"type": "address"
				},
				{
					"indexed": true,
					"internalType": "address",
					"name": "newOwner",
					"type": "address"
				}
			],
			"name": "OwnershipTransferred",
			"type": "event"
		},
		{
			"anonymous": false,
			"inputs": [
				{
					"indexed": false,
					"internalType": "string",
					"name": "symbol",
					"type": "string"
				},
				{
					"indexed": false,
					"internalType": "address",
					"name": "tokenAddress",
					"type": "address"
				}
			],
			"name": "TokenAddressSet",
			"type": "event"
		},
		{
			"anonymous": false,
			"inputs": [
				{
					"indexed": true,
					"internalType": "address",
					"name": "user",
					"type": "address"
				},
				{
					"indexed": false,
					"internalType": "string",
					"name": "fromSymbol",
					"type": "string"
				},
				{
					"indexed": false,
					"internalType": "string",
					"name": "toSymbol",
					"type": "string"
				},
				{
					"indexed": false,
					"internalType": "uint256",
					"name": "fromAmount",
					"type": "uint256"
				},
				{
					"indexed": false,
					"internalType": "uint256",
					"name": "toAmount",
					"type": "uint256"
				}
			],
			"name": "TokenSwapped",
			"type": "event"
		},
		{
			"anonymous": false,
			"inputs": [
				{
					"indexed": false,
					"internalType": "address",
					"name": "token",
					"type": "address"
				},
				{
					"indexed": false,
					"internalType": "uint256",
					"name": "amount",
					"type": "uint256"
				}
			],
			"name": "TokenWithdrawn",
			"type": "event"
		},
		{
			"inputs": [
				{
					"internalType": "bytes32",
					"name": "",
					"type": "bytes32"
				}
			],
			"name": "exchangeRates",
			"outputs": [
				{
					"internalType": "uint256",
					"name": "",
					"type": "uint256"
				}
			],
			"stateMutability": "view",
			"type": "function"
		},
		{
			"inputs": [
				{
					"internalType": "string",
					"name": "from",
					"type": "string"
				},
				{
					"internalType": "string",
					"name": "to",
					"type": "string"
				},
				{
					"internalType": "uint256",
					"name": "amount",
					"type": "uint256"
				}
			],
			"name": "getExpectedOutput",
			"outputs": [
				{
					"internalType": "uint256",
					"name": "",
					"type": "uint256"
				}
			],
			"stateMutability": "view",
			"type": "function"
		},
		{
			"inputs": [
				{
					"internalType": "string",
					"name": "from",
					"type": "string"
				},
				{
					"internalType": "string",
					"name": "to",
					"type": "string"
				}
			],
			"name": "getPairKey",
			"outputs": [
				{
					"internalType": "bytes32",
					"name": "",
					"type": "bytes32"
				}
			],
			"stateMutability": "pure",
			"type": "function"
		},
		{
			"inputs": [
				{
					"internalType": "string",
					"name": "from",
					"type": "string"
				},
				{
					"internalType": "string",
					"name": "to",
					"type": "string"
				}
			],
			"name": "getRate",
			"outputs": [
				{
					"internalType": "uint256",
					"name": "",
					"type": "uint256"
				}
			],
			"stateMutability": "view",
			"type": "function"
		},
		{
			"inputs": [],
			"name": "owner",
			"outputs": [
				{
					"internalType": "address",
					"name": "",
					"type": "address"
				}
			],
			"stateMutability": "view",
			"type": "function"
		},
		{
			"inputs": [],
			"name": "renounceOwnership",
			"outputs": [],
			"stateMutability": "nonpayable",
			"type": "function"
		},
		{
			"inputs": [
				{
					"internalType": "string",
					"name": "from",
					"type": "string"
				},
				{
					"internalType": "string",
					"name": "to",
					"type": "string"
				},
				{
					"internalType": "uint256",
					"name": "rate",
					"type": "uint256"
				}
			],
			"name": "setExchangeRate",
			"outputs": [],
			"stateMutability": "nonpayable",
			"type": "function"
		},
		{
			"inputs": [
				{
					"internalType": "string",
					"name": "symbol",
					"type": "string"
				},
				{
					"internalType": "address",
					"name": "tokenAddress",
					"type": "address"
				}
			],
			"name": "setTokenAddress",
			"outputs": [],
			"stateMutability": "nonpayable",
			"type": "function"
		},
		{
			"inputs": [
				{
					"internalType": "string",
					"name": "from",
					"type": "string"
				},
				{
					"internalType": "string",
					"name": "to",
					"type": "string"
				},
				{
					"internalType": "uint256",
					"name": "amount",
					"type": "uint256"
				}
			],
			"name": "swap",
			"outputs": [],
			"stateMutability": "nonpayable",
			"type": "function"
		},
		{
			"inputs": [
				{
					"internalType": "string",
					"name": "",
					"type": "string"
				}
			],
			"name": "tokens",
			"outputs": [
				{
					"internalType": "contract IERC20Extended",
					"name": "",
					"type": "address"
				}
			],
			"stateMutability": "view",
			"type": "function"
		},
		{
			"inputs": [
				{
					"internalType": "address",
					"name": "newOwner",
					"type": "address"
				}
			],
			"name": "transferOwnership",
			"outputs": [],
			"stateMutability": "nonpayable",
			"type": "function"
		},
		{
			"inputs": [
				{
					"internalType": "address",
					"name": "tokenAddress",
					"type": "address"
				},
				{
					"internalType": "uint256",
					"name": "amount",
					"type": "uint256"
				}
			],
			"name": "withdrawToken",
			"outputs": [],
			"stateMutability": "nonpayable",
			"type": "function"
		}
	]
}